:020000040800F2
:10000000D8050020ED010008FF2B0008112500088D
:10001000FD2B000873070008C93900080000000024
:10002000000000000000000000000000892E000811
:100030003308000800000000012C00088D2E000885
:10004000070200080702000807020008070200086C
:100050000702000807020008350800083B080008EE
:100060004108000807020008070200087507000899
:10007000070200080702000807020008070200083C
:10008000070200080000000007020008070200083D
:10009000070200080702000807020008070200081C
:1000A000070200080702000807020008070200080C
:1000B00007020008070200080702000807020008FC
:1000C00007020008070200080702000807020008EC
:1000D00007020008C13900080702000807020008EB
:1000E00007020008070200080702000807020008CC
:1000F00007020008070200080702000800000000CD
:1001000000000000070200080000000007020008CD
:1001100007020008000000000702000807020008AC
:10012000070200080702000807020008070200088B
:10013000070200080000000000000000070200089D
:10014000070200080702000800000000000000008D
:10015000000000000000000000000000000000009F
:10016000000000000000000000000000070200087E
:10017000070200080000000000000000000000006E
:10018000000000000702000800000000000000005E
:10019000000000000000000000000000000000005F
:1001A000000000000000000007020008070200082D
:1001B000070200080702000807020008000000000C
:1001C000000000000702000800000000000000001E
:1001D0000702000807020008DFF80CD000F048FA18
:1001E00000480047393A0008D805002006488047F3
:1001F00006480047FEE7FEE7FEE7FEE7FEE7FEE70C
:10020000FEE7FEE7FEE7FEE7212F0008D901000820
:100210002DE9F05F0546002092469B46884606463B
:10022000814640241BE0284641464746224600F0CE
:1002300057F853465A46C01A914110D311461846F2
:10024000224600F03EF82D1A67EB01084F46224681
:100250000120002100F035F817EB00094E41201E67
:10026000A4F10104DFDC484631462A464346BDE896
:10027000F09FD2B201E000F8012B491EFBD270477B
:100280000022F6E710B513460A4604461946FFF762
:10029000F0FF204610BD30B50B460146002020225D
:1002A000012409E021FA02F59D4205D303FA02F583
:1002B000491B04FA02F52844151EA2F10102F1DCE3
:1002C00030BD202A04DB203A00FA02F100207047FA
:1002D0009140C2F1200320FA03F319439040704784
:1002E000202A04DB203A21FA02F00021704721FA8B
:1002F00002F3D040C2F120029140084319467047F2
:100300002DE9FE4F804681EA0300C00F0C460090A5
:1003100021F0004123F00045B8EB0200A94105D2CD
:100320004046214690461C460B46024623F00040BC
:10033000104347D0270DC7F30A00C3F30A510290B8
:10034000401A019040286BDAC3F3130040F4801B7D
:100350000098924620B10023D2EB030A63EB0B0B0B
:1003600001985946C0F140025046FFF7AAFF0646E1
:100370000D4650465946019A00F08CF910EB0800E2
:100380006141002487EA115284EAE7731A4340D09E
:10039000009A62B3019A012A4FEA075215DC001B4A
:1003A00061EB02014FF0004202EA0752CDE9004240
:1003B000001C41F5801132462B4600F08CF903B049
:1003C000BDE8F08F40462146F9E7001B61EB0201D2
:1003D000001C41F5801300185B412018A2F500179E
:1003E00047EB030140EAD570B6196D4111E06D0885
:1003F0004FEA360645EAC0754FEA0752001B61EB2B
:100400000201001C41F5801149084FEA3000001933
:10041000514132462B4603B0BDE8F04F00F04CB9D5
:100420000098012240000023D0EB020263EBE0734E
:10043000009821464FEAE074B8EB000061EB04013C
:10044000E9E783F000435BE781F0004158E72DE9DD
:10045000FE4F81EA030404F0004421F000410094BF
:100460004FF0000B23F0004350EA01045ED052EA43
:1004700003045BD0C3F30A54C1F30A552C44A4F21D
:10048000F3340194A0FB0254C1F3130141F4801131
:10049000C3F3130343F4801301FB024400FB034E38
:1004A000840A970A44EA815447EA8357A4FB076801
:1004B00002958D0A05FB07854FEA932C04FB0C542B
:1004C0002705029D4FEA065847EA1637B5EB08059F
:1004D0006EEB070C870E920E47EA811742EA8312F1
:1004E000A7FB0201B6EB0B0164EB00042B0D43EA02
:1004F0000C335E1844EB1C50DA465146E7FB020110
:10050000C5F313044FEA0B3343EA14534FEA0432A2
:10051000019C43EA0603A4F10C040294009CCDE97B
:1005200000B400F0D8F803B0BDE8F08F0020014619
:10053000F9E72DE9F04D81EA030404F0004B21F0C6
:10054000004514464FF0000A23F0004150EA05022E
:1005500020D054EA01021DD0C5F30A570246C5F364
:100560001303C1F31300C1F30A5640F4801543F49A
:100570008013A7EB0608101BD64608F2FD3873EB74
:10058000050002D308F1010801E092185B41B8F1BF
:10059000000F03DA00200146BDE8F08D00204FF483
:1005A0008011064684460EE0171B73EB050705D342
:1005B000121B63EB050306434CEA010C49084FEAA2
:1005C000300092185B4150EA0107EDD152EA030076
:1005D00012D082EA040083EA0501084305D0101B0B
:1005E000AB4106D20122002306E000224FF0004377
:1005F00002E06FF0010253101AEB06004CEB0851B9
:1006000010EB0A0041EB0B01BDE8F04D00F054B8CF
:10061000C1F30A52C1F3130140F2FF3341F48011D8
:100620009A4202DA00200146704740F233439A4270
:10063000A2F2334202DC5242FFF752BEFFF741BE44
:1006400030B5041E71F1000404DB4FF00044404259
:1006500064EB0101141E73F1000405DB1C464FF02E
:100660000043524263EB0403994208BF904230BDFD
:10067000064C074D06E0E06840F0010394E80700EF
:1006800098471034AC42F6D3FFF7AAFD385700085C
:1006900058570008202A06DBCB17203A41FA02F00F
:1006A00043EAE07306E041FA02F3D040C2F12002CF
:1006B000914008431946704710B5141E73F10004A9
:1006C00008DA401C41F1000192185B411A4301D144
:1006D00020F0010010BD2DE9F04D92469B4611B16E
:1006E000B1FA81F202E0B0FA80F220329046FFF7D0
:1006F000E8FD04460F4640EA0A0041EA0B01534672
:100700005A46084313D0114653EA010019D0C8F1E4
:1007100040025046FFF7E4FD05460E465046594656
:100720004246FFF7CEFD084305D0012004E02046F5
:100730003946BDE8F08D0020054346EAE0762C43BB
:1007400037430A986305E40AA0EB08000022FD0A7B
:1007500044EA47540A3002D500200146E9E7010582
:1007600010196941DDE9084500196941BDE8F04DFE
:10077000A2E7FEE7014800F0DAB800BF4800002019
:1007800010B5104C04F18002A4F57E712034C264CF
:100790000268436C8A4223F003013CBF40F6000428
:1007A000C4F20204214481646FF0070151FA82F11E
:1007B0001422B1FBF2F1012201F01F0102FA01F152
:1007C000016510BD00080240037907490122013B81
:1007D00001F1400C01EB830103F01F039A40C0E9D3
:1007E000151CC265704700BF0009024010B5D0E972
:1007F00013CE0124CCF804E0D0F854C0BCF1000FB3
:100800001CBFD0E916CECCF804E0D0E910CE0EF033
:100810001F0E04FA0EF4CCF804400468636080688C
:100820001028084608BF1046A06008BF0A46E260CC
:1008300010BD7047012000F045BA022000F042BA16
:10084000042000F03FBAEFF3108072B6FEE790F894
:100850002510022923D101680A6822F00E020A60DD
:10086000826C136823F48073136001230A6822F0FA
:1008700001020A60D0E9101202F01F0203FA02F22C
:100880004A60D0E913124A60416D31B10A6822F41E
:1008900080720A60D0E916124A60002102E0042149
:1008A000C1630121002280F82420012280F8252044
:1008B0000846704790F8251002292ED101680A6871
:1008C00022F00E020A600A6822F001020A60816CBE
:1008D0000A6822F480720A60D0E9101202F01F0345
:1008E000012202FA03F34B60D0E913134B60416D10
:1008F00031B10B6823F480730B60D0E916134B60A1
:10090000002180F8241080F82520826B6AB180B520
:1009100090470021BDE8804007E00421C163002129
:1009200080F82410012180F8251008467047B0B5E2
:10093000D0E910C4DCF80010026804F01F0E136840
:100940005C0710D5042404FA0EF414EA01050AD059
:10095000116889065EBF116821F004011160CCF8AE
:100960000440016B30E09C0716D5022404FA0EF413
:1009700014EA010510D01168890606D4116821F027
:100980000A011160012180F825100021CCF80440F3
:1009900080F82410C16A17E01B0719D5082303FA51
:1009A0000EF3194008BFB0BD116821F00E011160AF
:1009B000012101FA0EF2CCF804200022C16380F874
:1009C000242080F82510416B11B1BDE8B0400847E4
:1009D000B0BD000000284AD0F8B5044602202B49DB
:1009E000142384F8250004F11807206801F1080297
:1009F0009042274A38BFA1F5806138BF02F5806276
:100A00000244B2FBF3F29200C4E9101247F6F0720E
:100A1000016821EA020CD4E90223D4E9041EE0CFE4
:100A200042EA0C021A43114341EA0E0129433143C1
:100A3000394301602046FFF7A3FEA068B0F5804F60
:100A400006BF002060606068C2B2A16C0138032854
:100A50000A60D4E913124A600BD82046FFF7B4FEAF
:100A6000606D00210160D4E91601416005E00120BC
:100A700070470020C4E91500E06500200121E06313
:100A800084F8240084F82510F8BD00BF000402405B
:100A9000F8FBFDBF10B5044690F82400012820D0D3
:100AA000012084F8240094F82500012816D10220A2
:100AB00084F825000020E063D4F800C0DCF80000D2
:100AC00020F00100CCF800002046FFF78FFE2068E0
:100AD000226B01683AB141F00E010AE0002084F86F
:100AE0002400022010BD21F004010160016841F0E2
:100AF0000A010160A16C0A68D20342BF0A6842F48D
:100B000080720A60616D19B10A6842F480720A60ED
:100B1000016841F001010160002010BDB0B504463C
:100B200000F0B4F90546F748611C406818BF04445A
:100B300000F0ACF9401BA042FAD3B0BD70B5042858
:100B40001AD002282DD0012840D14020FFF7E6FF1F
:100B50005648012100F08EF9C0B3534854494078FB
:100B600000285CD04A7801324A70D2B20B2A64D194
:100B700001224A7050495BE04B4C2078002818BF96
:100B800070BD4020FFF7CAFF4848042100F072F909
:100B9000E0B1607880F001006070BDE8704002F064
:100BA000E9BF4020FFF7BAFF4048022100F062F998
:100BB00060B13D483E4B407848B1DA789C780132CC
:100BC000D6B20A2E08BF0122DA7008E070BD99780B
:100BD000DA784C1CE6B20A2E08BF01249C70364D10
:100BE000344B002821462E4608BF1E463668F66A5A
:100BF00018BF1146002808BF1D462868C9B206FB69
:100C000001F14FF00A06B1FBF6F181632B4918BFE1
:100C10001446E2B20520BDE8704002F0E9BE0A7851
:100C200001320A70D2B20B2A07D101220A7021497F
:100C30000A684FF47A73D362CB601E4ADFF870E023
:100C4000DFF874C000284FF47A76134618BF634665
:100C50009EF800109EF801400D4618BF254600285A
:100C6000EDB2B6FBF5F51E68F562DD6018BF6246B1
:100C70000EF1020300281268D26A18BF0EF10303B6
:100C800000284FF004001B7803FB02F24FF00A0328
:100C9000B2FBF3F2B26318BF2146CAB20849BDE8FD
:100CA000704002F0A5BE00BF2000002000040048F4
:100CB00004000020A8000020F400002018570008BD
:100CC0002757000803490A68024214BF08607047AA
:100CD000FFF734BF140401402DE9FC4F604A06279A
:100CE0004FF0000B4FF001094FF00008904200F167
:100CF000384208BF05274FEAB223052B38BF4FEA19
:100D0000B227002200970C6834FA02F308BFBDE84E
:100D1000FC8F09FA02F314EA030A00F09B804E6884
:100D200006F00304671E012F1ED80327D0F808C061
:100D3000D1F80CE007FA08F90EFA08F72CEA090CCA
:100D40004FEA420E47EA0C078760C6F3001707FA1E
:100D500002FC476827EA030343EA0C036FEA090C25
:100D60004FF0010943600AE00323032CC64603FA4F
:100D700008F36FEA030C02D1C64603241EE0C368E1
:100D80008F68022C03EA0C0307FA0EF743EA070305
:100D9000C36013D16FF003050BF01C030F2405EAA9
:100DA00052069C400644376A27EA04040F6907FA92
:100DB00003F3234333624E6806F00304076804FA22
:100DC0000EF316F4403F07EA0C0743EA07030360FB
:100DD00040D0264B234D264C0BF00C061F461B68BB
:100DE000A44643F001033B603B6803F00103019319
:100DF00022F00303019F2B441F590F24B440A74343
:100E0000009C04FA06F6374343F80C70AB684E6852
:100E100043EA0A07F40258BF23EA0A07124BAF60FD
:100E2000B4029C461B6843EA0A0758BF23EA0A0734
:100E3000CCF80070B4036B6843EA0A0758BF23EA92
:100E40000A076F60F6032B6843EA0A0758BF23EAD4
:100E50000A072F600BF1040B08F10208013252E778
:100E600000140048000401400C04014060100240DE
:100E700008FCFFFF0069084018BF012070471823D5
:100E8000002A08BF2823C1507047000005480068A9
:100E9000704700BF1B48034940680A681044086057
:100EA000704700BFD001002080B5032000F072F829
:100EB000002000F007F808B1012080BD00F024F800
:100EC000002080BD70B50F4E04467068B0B14FF47D
:100ED0007A71B1FBF0F060490968B1FBF0F000F005
:100EE00041FD01250F2C0AD848B94FF0FF302146AB
:100EF0000022002500F030F8346000E0012528468B
:100F000070BD00BF0800002082B00B48816841F02E
:100F100001018160816801F001010191019901687D
:100F200041F080510160006800F08050009000980E
:100F300002B000F095B800BF58100240002808DB4E
:100F400000F01F010122400902FA01F1014A42F8B2
:100F50002010704700E100E080B5144B1B68C3F31C
:100F6000022CBCF1030E8CF007034FF0FF3C38BF9E
:100F70004FF0000E042B28BF04230CFA03F399430F
:100F80000CFA0EF301FA0EF19A431143BDE88040CA
:100F900002F01CBD05494FF6FF030A681A4060F3D2
:100FA0000A22034810430860704700BF0CED00E0C0
:100FB0000000FA0520B3B949B0F5007F0A6845D1B1
:100FC000D1F8800040F48070C1F8800002F4C06065
:100FD000B0F5806F3ED10868012262F34A203222C8
:100FE00008601D48006850431C4AB0FBF2F0C04343
:100FF0004A6918B1013012F48062F9D1486920E0E1
:10100000A6480168D0F8802001F4C06122F4807203
:10101000B1F5806FC0F880201CD10168012262F315
:101020004A21322201600C49096851430B4AB1FB45
:10103000F2F1C943426919B1013112F48062F9D168
:101040004069400544BF0320704703E0022060F37D
:101050004A220A60002070471400002040420F001E
:101060000248016841F48041016070470870004007
:101070002DE9FC4104468078874E000701D400200A
:101080005DE0F06CC0000BD4F06C4FF0010840F054
:101090008050F064F06C00F080500190019801E005
:1010A0004FF000087D4F386840F480703860FFF7DB
:1010B000EDFE05463868C00506D4FFF7E7FE401B85
:1010C0000228F7D9032033E0D6F8840010F44070EA
:1010D00025D0216C884211D0D6F88400D6F884102F
:1010E00041F4803120F44070C6F88410D6F88410A2
:1010F00021F48031C6F88410C6F88400C0070ED0F1
:10110000FFF7C4FE054641F28837D6F88400800711
:1011100005D4FFF7BBFE401BB842F6D9D2E7D6F89C
:101120008400216C20F440700843C6F8840000203D
:10113000B8F1000F1EBFF16C21F08051F1642168FD
:10114000CA0705D0F26F636822F003021A43F26700
:101150008A0705D5F26FA36822F00C021A43F267E2
:101160004A0705D5F26FE36822F030021A43F267AE
:101170000A0705D5F26F236922F0C0021A43F2670D
:101180008A0605D5F26F636922F440621A43F2675A
:101190004A0605D5F26FA36922F440521A43F2675A
:1011A0000A0605D5F26FE36922F440421A43F2675A
:1011B000CA0505D5F26F236A22F440321A43F2675A
:1011C0008A0505D5F26F636A22F440221A43F2675A
:1011D0004A050DD5F26FA36A22F44012B3F5801FC1
:1011E00042EA0302F26702BF326842F480123260C0
:1011F0000A050DD5F26FE36A22F44002B3F5800FC1
:1012000042EA0302F26702BF326842F4801232609F
:10121000CA040DD5F26F236B22F04072B3F1807FC8
:1012200042EA0302F26702BF326842F4801232607F
:101230008A040DD5F26F636B22F04062B3F1006F48
:1012400042EA0302F26702BF326842F4801232605F
:101250004A040DD5F26FA36B22F04062B3F1006F28
:1012600042EA0302F26702BF326842F4801232603F
:1012700009040DD5F16FE26B21F04051B2F1805FAE
:1012800041EA0201F16702BF316841F48031316007
:1012900002B0BDE8F08100BF0C10024000700040B9
:1012A0002DE9F047002854D0724B04460D461868CB
:1012B00000F00F00884209D2186820F00F00284380
:1012C0001860186800F00F00A84242D12068934EC1
:1012D0009A46C107B14602D14FF000086BE0616841
:1012E000032930D156F8081C890132D5716872681B
:1012F00073687768B4460226C7F3416701F00301BB
:1013000006EB4707864E032904BF43F20066C0F28E
:101310006E16C2F30311C3F306220131B6FBF1F1DD
:101320005143554AB1FBF7F1914224D9DCF8001042
:10133000664611F0F00F16D0800701D5A06890B175
:101340004FF000081AE056F8080C022904D1800377
:1013500004D40120BDE8F0874005FAD500F0AEF8CE
:1013600045498842ECD9306808214FF0800861F384
:101370000710306002E04FF0000866463068616890
:1013800020F0030008433060FFF780FD064641F27D
:1013900088374846D9F80000616800F00C00B0EBCF
:1013A000810F05D0FFF772FD801BB842F1D939E0FB
:1013B00020684E465346810706D4B8F1800F16D1F7
:1013C000316821F0F00111E0410742BF316841F47A
:1013D000E0613160010704D53168072262F30D2115
:1013E00031603168A26821F0F00111433160196861
:1013F00001F00F01A9421AD9186820F00F00284304
:101400001860FFF743FD064641F288375046DAF888
:10141000000000F00F00A84207D0FFF737FD801B47
:10142000B842F3D90320BDE8F08720684E46410753
:1014300005D53168E26821F4E061114331600007AD
:1014400006D53068216920F4605040EAC100306060
:1014500000F034F83168094AC1F30311515C01F01E
:101460001F01C8401349086005480068BDE8F047FF
:10147000FFF728BD0020024000B4C404084500085E
:10148000080000200B4825490B4A00680968C1F391
:101490000221515C01F01F01C840704705481F49F7
:1014A000054A00680968C1F3C221515C01F01F01BF
:1014B000C840704714000020184500081749184A12
:1014C000086800F00C000428104608BF7047086840
:1014D00000F00C031348082B1ED00B6803F00C031C
:1014E0000C2B1CBF002070474B6803F00303032B39
:1014F00008BF02464868C0F303100130B2FBF0F0A9
:101500004A68C2F30622496850430222C1F341618E
:1015100002EB4101B0FBF1F0704700BF0810024040
:101520000024F40000366E012DE9FC41002800F093
:10153000AA8104460078DF4EC0071ED120788007BC
:1015400047D42078000740F19A806169D6F894006A
:10155000002900F0838040F00100C6F89400FFF7F6
:1015600095FC0546D6F89400800700F18880FFF7C7
:101570008DFC401B0228F5D9C9E0B168F06801F084
:101580000C0108294BD0032281F00C0122EA000053
:101590000844B0FA80F0400941D16768B7F5803F50
:1015A00007D03068B7F5A02F40F0CC8040F4802001
:1015B0003060306840F480303060FFF767FC0546EB
:1015C00030688003BAD4FFF761FC401B6428F7D968
:1015D0009DE0B068F16800F00C00042828D001F00C
:1015E000030180F00C0081F002010844B0FA80F0A1
:1015F00040091DD1E1683068002900F08A8040F47C
:1016000080703060FFF742FC05463068400500F10D
:101610009180FFF73BFC401B0228F6D977E0306849
:1016200080037FF58BAF606800287FF487AF2AE1E5
:101630003068400503D5E068002800F02481706818
:10164000216920F0FE4040EA01607060C0480068F7
:10165000FFF738FC002840F0168172E720F0010007
:10166000C6F89400FFF712FC0546D6F894008007F0
:1016700005D5FFF70BFC401B0228F6D947E0207880
:10168000400740F19A80B06DC0000BD4B06D4FF0B0
:10169000010840F08050B065B06D00F080500190BE
:1016A000019801E04FF00008AA4F3868C0050FD438
:1016B000386840F480703860FFF7E8FB054638680A
:1016C000C00505D4FFF7E2FB401B0228F7D91EE056
:1016D000A768012F07D0D6F89000052F4AD140F017
:1016E0000400C6F89000D6F8900040F00100C6F85B
:1016F0009000FFF7CBFB054641F28837D6F8900003
:10170000800753D4FFF7C2FB401BB842F6D9032031
:10171000BAE020F480703060FFF7B8FB054630680F
:1017200040057FF50EAFFFF7B1FB411B03200229F7
:10173000F5D9A9E07068216920F0FE4040EA016017
:101740007060FEE620F480303060306820F4802045
:101750003060FFF79BFB0546002F7FF431AF306808
:1017600080037FF5EBAEFFF791FB411B032064295B
:10177000F5D989E020F00100C6F89000D6F8900075
:1017800020F00400C6F89000FFF780FB0546002F0C
:10179000B2D141F28837D6F89000800706D5FFF71E
:1017A00075FB411B0320B942F5D96DE0B8F1000F7C
:1017B0001EBFB06D20F08050B0652078800627D520
:1017C000A169D6F8980089B140F00100C6F89800E8
:1017D000FFF75CFB0546D6F89800800718D4FFF7A2
:1017E00055FB411B03200229F5D94DE020F00100F3
:1017F000C6F89800FFF74AFB0546D6F89800800720
:1018000006D5FFF743FB411B03200229F5D93BE036
:10181000E069002800F09A80B16801F00C010C2901
:1018200035D101282FD0F068216A00F003028A42E6
:1018300029D1616A6FF00F0202EB011100F0F00292
:101840008A4220D1A16A00F4FE42B2EB012F1AD1E4
:10185000E16A00F07842B2EBC16F14D1216B404ACB
:1018600002EA015100F4C002A1F500118A420AD136
:10187000616B4FF07E4200F0C06002EA016101F14D
:101880007E41884262D0012002B0BDE8F08131681B
:10189000022821F0807131600ED1FFF7F7FA05467A
:1018A000306880011DD5FFF7F1FA411B03200229A2
:1018B000F6D9E9E700100240F068274920F003005C
:1018C000F060F0680840F060FFF7E0FA0446306826
:1018D00080013BD5FFF7DAFA011B03200229F6D974
:1018E000D2E704F12007F0686FF00F058ECF05EB0B
:1018F00002121A4D28400843216B1043184A40EA4F
:10190000032002EA01514FF07E42A1F50011084385
:10191000616B40EAC76002EA016101F17E41084360
:10192000F060306840F080703060F06840F08070A7
:10193000F060FFF7ABFA04463068800106D4FFF789
:10194000A5FA011B03200229F6D99DE700209BE799
:101950000800002000700040FFFFEEFE0C809F0199
:101960000000E0FF411E0020B0EB116F1CBF012002
:101970007047044AF023516003490B7007219060BF
:101980001160704710E000E023ED00E090F83C307B
:101990000222012B37D070B580F83D2001221B4D6B
:1019A00080F83C20026854689368AA4202D0184E1E
:1019B000B24203D14E6824F470043443154EB2F1A0
:1019C000804F06EA04060C6846EA040656600DD00D
:1019D000A34CA2420AD0104CA24207D00C4CA24207
:1019E00004D00E4CA24201D0AA4204D1896823F04F
:1019F0008003194391600022012180F83C2080F887
:101A00003D10BDE870401046704700BF00340140F3
:101A1000002C01408FFFFFFD000800400040014006
:101A200060B310B5044690F83D0028B9002084F852
:101A30003C00204600F024F80220211D84F83D00DF
:101A4000206801F075FA012084F8480084F83E000F
:101A500084F83F0084F8400084F8410084F8420094
:101A600084F8430084F8440084F8450084F8460074
:101A700084F8470084F83D00002010BD0120704725
:101A800082B00068FD4988420DD0B0F1804F14D17A
:101A90000B48016841F001010160006800F001009D
:101AA0000190019809E00648016841F002010160D7
:101AB000006800F002000090009802B0704700BF7C
:101AC0005810024010B590F83C2004460220012A2C
:101AD00008BF10BD84F83D0001203E4B84F83C0057
:101AE000206882681A4082600A688AB3102A2FD060
:101AF000202A2DD0302A2BD0402A38D0502A41D04D
:101B0000602A4AD0344B9A4222D0B2F5805F26D068
:101B1000B2F5005F4CD0B2F1101F19D02F4B9A4292
:101B200016D02F4B9A4213D02E4B9A4210D0702AC7
:101B30004DD1D1E90123C9681A4342EA01218268E3
:101B400022F47F4211438160816841F0770105E012
:101B50008168254B1940114341F007018160002045
:101B6000002184F83C10012184F83D1010BD4B6821
:101B7000CA68194601F0A0FB20681B4A8168114021
:101B80004731EBE74B68CA68194601F095FB2068BE
:101B9000154A816811405731E0E74B68CA68194619
:101BA00001F09BFB2068104A816811406731D5E73E
:101BB000D1E90123C9681A4342EA0121826822F46B
:101BC0007F4211438160816841F48041C6E7012072
:101BD000C6E700BF8800CEFF700010002000100094
:101BE000300010004000100088FFCFFF10B586B015
:101BF000044601A81421FEF743FB20689F49884250
:101C000014D0B0F1804F28D11648016841F001018D
:101C10000160006800F0010000900098012005902C
:101C20000020CDE903000220029010E00D48016879
:101C300041F0010101600021006800F00100009006
:101C40000098022005900491CDE9020180200190C6
:101C500001A94FF09040FFF73FF806B010BD00BF5C
:101C6000000400404C100240B0B5044690F83C001F
:101C7000012804BF0220B0BD0D464FEAB201012089
:101C8000052984F83C0048D8DFE801F0030B131B5A
:101C900023332068294601F0D1F9206850F8181F35
:101CA0001EE02068294601F0FDF9206850F8181F51
:101CB00026E02068294601F02DFA206850F81C1F04
:101CC0000EE02068294601F05FFA206850F81C1FDA
:101CD00016E02068294601F091FA206850F8501F5C
:101CE00041F008010160016821F0040101602969E7
:101CF0000FE02068294601F0AFFA206850F8501F25
:101D000041F400610160016821F48061016029698A
:101D100009020268114301600020002184F83C1090
:101D2000B0BD60B310B5044690F83D0028B900205E
:101D300084F83C00204600F024F80220211D84F89D
:101D40003D00206801F0F4F8012084F8480084F890
:101D50003E0084F83F0084F8400084F8410084F895
:101D6000420084F8430084F8440084F8450084F875
:101D7000460084F8470084F83D00002010BD012093
:101D800070477047B0B5044659B1081F4FEAB0001C
:101D9000032809D8DFE800F0020B0E1104F13F0020
:101DA0000DE004F13E000AE004F1430007E004F115
:101DB000400004E004F1410001E004F14200007839
:101DC00001281CBF0120B0BD61B1081F4FEAB0005F
:101DD00003280BD8DFE800F0020E1216022084F868
:101DE0003F0012E0022084F83E000EE0022084F85A
:101DF00043000AE0022084F8400006E0022084F854
:101E0000410002E0022084F84200206801220125FE
:101E100001F004F92168184808444FEAB020072867
:101E200008D805FA00F010F0E50F1EBF486C40F42A
:101E300000404864B1F1804F0ED0104881420BD071
:101E40000F48814208D00F48814205D00E48814298
:101E500002D00E48814209D188680D4A0240002014
:101E6000062A08D0B2F5803F08BFB0BD086840F030
:101E7000010008600020B0BD00D4FEBF0004004097
:101E800000080040002C01400040014000340140A7
:101E90000700010090F88010012901D1022112E011
:101EA0002421C0F8841002681368116821F0010130
:101EB00023F000531160002141661360202280F856
:101EC0008010C0F884200846704770477047B0B54E
:101ED000044690F88000012804BF0220B0BD2420F1
:101EE000C4F88400012084F8800020680568026836
:101EF00022F001020260826822F060621143816078
:101F0000204601F0FBF9206820210560002084F8BC
:101F10008000C4F88410B0BDB0B5044690F88000CD
:101F2000012804BF0220B0BD2420C4F88400012091
:101F300084F8800020680568026822F001020260CF
:101F4000826822F0604211438160204601F0D6F998
:101F5000206820210560002084F88000C4F88410E7
:101F6000B0BD704770477047B0B50446006840F692
:101F70000F01C2690568D0F808C00A4200F08980E4
:101F8000B749B84B29400CEA030E11EB0E0100F0E3
:101F90008A80D10718BF15F4807107D00121016232
:101FA000D4F88C1041F00101C4F88C100CF001033E
:101FB000910708D53BB102210162D4F88C1041F0A1
:101FC0000401C4F88C10510708D53BB1042101620B
:101FD000D4F88C1041F00201C4F88C1011070CD514
:101FE00005F0200151EA0E0107D008210162D4F862
:101FF0008C1041F00801C4F88C1011050BD515F0B8
:10200000806108D04FF400610162D4F88C1041F077
:102010002001C4F88C10D4F88C10002900F0F58051
:1020200091060AD505F020010CF08052891804D0E1
:10203000216F11B1204688472068D4F88C10806841
:1020400001F0280100F04000401800F0D880204640
:1020500001F098FA20688168490601D4CAE0206836
:1020600050E8020F216820F0400041E80202002AF7
:10207000F5D1E06F002800F0BD807B498163FEF759
:1020800019FC002800F0C180E06F816BBDE8B04012
:102090000847910607D505F020010CF08053C918B8
:1020A00001D0216FA1E005EA0203D906E16E39D51E
:1020B000012937D110210162816849063FD4B4F863
:1020C0005E10B4F85C20B4F85E30002B00F09D8008
:1020D000511A0A0401D198E0206850E8000F2268E4
:1020E00020F4907042E80003002BF5D15F4822688D
:1020F00052E8022F2368024043E80225002DF6D162
:102100002020C4F8880000202067E066206850E89E
:10211000000F226820F0100042E80003002BF5D1E8
:1021200089B253E0D10256D51CF4800153D04FF44C
:10213000801101622046BDE8B040FFF713BFE16F98
:102140000A68536899B200295FD0B4F85CC0614551
:102150005BD2A4F85E301168890601D531E02068B1
:1021600050E8000F216820F4807041E80002002A46
:10217000F5D1206850E8020F216820F0010041E805
:102180000202002AF5D1206850E8020F216820F0F1
:10219000400041E80202002AF5D12020C4F888005E
:1021A0000020E066206850E8000F216820F0100051
:1021B00041E80002002AF5D1E06FFEF748FBB4F8D1
:1021C0005CC0B4F85E00ACEB000081B22046BDE814
:1021D000B040FFF77ABE110618D505F0800E0CF45A
:1021E000000111EB0E0111D0616F71B12046BDE805
:1021F000B04008472046BDE8B040FFF7B4BE2046D7
:10220000FFF7B1FE0020C4F88C00B0BD59060AD417
:1022100010021BD515F0804018D02046BDE8B04014
:10222000FFF79FBE206850E8000F216820F04000B3
:1022300041E80002002AF5D1002060672020C4F8A0
:1022400084002046BDE8B04000F061B9D001DCD583
:10225000B5F1FF3FD9DC2046BDE8B040FFF736BE00
:10226000200100040100001089340008FEFFFFEF88
:1022700010B5B0B10446D0F8840028B9002084F825
:102280008000204600F026F82420C4F8840020684E
:10229000016821F001010160204601F0B9F901282F
:1022A00001D1012010BDA06A10B1204601F050F804
:1022B0002068416821F490414160816821F02A0141
:1022C0008160016841F0010101602046BDE81040D5
:1022D00001F0A7B870B598B0044613A81421FDF713
:1022E000CFFF02A84421FDF7CBFF20682649884292
:1022F00047D1002601200396029002A8FEF7B8FEFF
:1023000008B1FEF7A0FAC148416941F4804141613A
:10231000416901F4804101910199016841F0010195
:10232000016013A9006800F00100019001980720E6
:1023300017900220CDE9156614904FF4C0601390F9
:102340004FF09040FEF7C8FC104D114A8020182134
:102350002E62C5E90021C5E90266C5E904062846E2
:10236000C5E90666FEF736FB08B1FEF76CFA2520D4
:1023700000210022E567AC62FEF7EEFD2520FEF7A6
:10238000DDFD18B070BD00BF0038014048000020DE
:1023900008000240D0F88830202B06D1012329B153
:1023A00022B190F88030012B02D1022318467047E9
:1023B00010B500230D4CC366012380F880300368FC
:1023C000A3420ED05C68240201D40AE0036853E8FB
:1023D000003FD0F800C043F080634CE80034002C8C
:1023E000F4D1BDE8104001F02FBA00BF00800040DA
:1023F00010B50D4C207830B1A078232805D04028A6
:1024000008D1002002E00CA005E00120607001F07E
:10241000B1FB02E005A002F065F80648A11C01220C
:10242000BDE81040FFF7B6BF200000204552524FD4
:1024300052000000400100204B455920434F4E54AC
:10244000524F4C0070472DE9FC470446D0F88400F9
:10245000202808D10D46012031B1164622B194F84A
:102460008000012803D1022002B0BDE8F0874FF0C0
:10247000000A01209946C4F88CA084F8800021202D
:10248000C4F88400FEF702FDA4F85660A4F8546076
:102490008046A068B0F5805F06D127690026002F2E
:1024A0000CBF2E462F4601E02F46002684F880A060
:1024B00019E02046802100224346CDF8009001F02B
:1024C00015FAE8B91FB117F8011B206805E036F8C6
:1024D000021B206800276FF35F218162B4F8560069
:1024E0000138A4F85600B4F856000028E1D120467F
:1024F000402100224346CDF8009001F0F7F908B1E1
:102500000320B1E72020C4F884000020ACE7704726
:10251000FEE70000FEB503204FF6FF710490002097
:1025200002900191059003900B4801A9FEF7D4FB9E
:1025300006B080BDFEB5032001A9049001200290E1
:102540004FF6FF7001900020059003900248FEF7BF
:10255000C3FB06B080BD00BF00080048B0B504460C
:102560000020002100F014F900F050F94FF49635E6
:1025700003E0204600F024F9013D002DF9D1B0BD63
:10258000F0B587B000262148214C012702AD069600
:10259000016841F004010160016801F0040101914A
:1025A0000199016841F001010160016801F0010138
:1025B00001910199016841F002010160294600681A
:1025C00000F0020001900198059603974FF44870BF
:1025D000029020460496FEF77FFB4FF4807005962C
:1025E0000397294602904FF090400496FEF774FB43
:1025F000FFF7A0FF0748215841F480712150A069DE
:1026000040F40870A06107B0F0BD00BF4C1002405C
:102610000004004818FCFFFF203AD3B25B0053FAD5
:1026200082F2024B03EB021200F016B820450008BC
:10263000F8B50C46054640F23F16002709E0E25D7A
:10264000002A08BFF8BDB1B22846FFF7E5FF013701
:10265000103E132FF3D9F8BD2DE9F84F14468846E4
:10266000814600F095F8DFF824A1DFF850B100278B
:102670000125182F08BFBDE8F88F00F0C7F8002625
:102680000CE034F8170005FA06F1014214BFBBF85C
:102690000000BAF8000000F093F80136102EF0D1D7
:1026A00009F1010941465FFA89F000F071F801373C
:1026B000DFE700BF10B5FFF763FF002000F014F85C
:1026C000084C48F2302120802088884202D100F056
:1026D00099FA01E000F00CFB002000F005F82080E2
:1026E00010BD00BF46000020B0B5214CD4F8101436
:1026F00041F40071C4F81014D4F8101441F480713E
:10270000C4F81014D4F8001441F02001C4F80014E7
:1027100018490860D4F8100440F02000C4F81004F0
:1027200000BF00BF00BFD4F8000440F02000C4F890
:102730000004D4F8000440F48070C4F80004FFF7EB
:10274000E9FE206940F48070206100BF00BF00BF37
:10275000D4F8F857206840F480702060FFF7EAFE54
:10276000D4F8000440F40070C4F80004A8B2B0BD6E
:10277000180000481408004881B0ADF80200034872
:10278000BDF80210018001B0704700BF10000020AA
:1027900010B50C460146202000F060F821202146AB
:1027A000BDE8104000F05AB881B0ADF8020003480F
:1027B000BDF80210018001B0704700BF2400002066
:1027C0003E490A6942F400720A610A6842F4807262
:1027D0000A600A6842F020020A60C1F8FC03086936
:1027E00040F02000086100BF00BF00BF086840F053
:1027F00020000860086840F48070086000BF00BFD7
:1028000000BF086840F40070086070472B480169F9
:1028100041F400710161016941F480710161016855
:1028200041F0200101602221C0F8FC13016941F050
:102830002001016100BF00BF00BF016841F020011D
:102840000160016841F48071016000BF00BF00BFFA
:10285000016841F400710160704700BF174A1369B5
:1028600043F400731361136943F4807313611368B5
:1028700043F020031360C2F8FC03106940F020000D
:10288000106100BF00BF00BF106840F02000106062
:10289000106840F480701060C2F8FC13106940F0BA
:1028A0002000106100BF00BF00BF106840F0200092
:1028B0001060106840F48070106070471804004881
:1028C000E0B50E480022016841F004010160016892
:1028D00001F0040101910199016841F001010160D9
:1028E0000021006800F00100009000980B20FEF726
:1028F00033FB0B20BDE88C40FEF720BB48100240A4
:102900002DE9F04F87B000244C484E4E00224FF680
:10291000FF750694016841F004010160016801F04F
:10292000040101910199016841F0200101600168F1
:1029300001F0200101910199016841F0010101605C
:10294000016801F0010101910199016841F0020162
:102950000160016801F0020101910199016841F0F3
:10296000080101604FF6FF71006800F00800019057
:102970000198334800F5806781463846B0474FF0EC
:1029800090404FF4807100224FF4807AB04709F5EF
:10299000006B042100225846B04748464FF4487166
:1029A0000022B047029502AE274D4FF0010838468D
:1029B000CDE904443146CDF80C80A8474FF0904053
:1029C00031460494CDE90284A8474FF4881031467B
:1029D000CDE90304072002904846A8474FF09040F5
:1029E0003146CDE90444CDE902A8A8470420CDE949
:1029F00004443146CDE902085846A8474FF44870D0
:102A00000594CDE90384314602904846A8470F4C0F
:102A1000062002210022A0470D4D0620A8470720CE
:102A200002210022A0470720A847082002210022F7
:102A3000A0470820A84707B0BDE8F08F4C1002401F
:102A4000000400487F0E0008D90C0008590F000848
:102A50003D0F000810B58EB0002468461C210D946F
:102A6000CDE90B44CDE90944CDE90744FDF708FC65
:102A70001F4880214F224FF08043816140F2E731AF
:102A8000C0E90032C0E902410461FEF7C9FF08B1A4
:102A9000FDF7D9FE4FF480500AA90A901448FFF7B9
:102AA00011F808B1FDF7CFFE1148FFF73AF908B168
:102AB000FDF7C9FE0E48002407A909940794FEF704
:102AC00065FF08B1FDF7BFFE6320049402946946D8
:102AD00004220190602000900548FFF7C5F808B176
:102AE000FDF7B1FE0248FFF781F80EB010BD00BF40
:102AF000A800002010B58EB0002468461C210D945B
:102B0000CDE90B44CDE90944CDE90744FDF7B8FB15
:102B10001E4880211E4B4F22816140F2E731C0E9FF
:102B20000032C0E902410461FEF77AFF08B1FDF707
:102B30008AFE4FF480500AA90A901448FEF7C2FF9B
:102B400008B1FDF780FE1148FFF7EBF808B1FDF77B
:102B50007AFE0E48002407A909940794FEF716FF91
:102B600008B1FDF770FE63200494029469460422C4
:102B70000190602000900548FFF776F808B1FDF756
:102B800062FE0248FFF732F80EB010BDF4000020DC
:102B90000004004010B5174C174B4FF416520C2090
:102BA0000021C4E90032C4E90211C4E9041004F1AF
:102BB00018001421FDF764FB2046FFF759FB08B10C
:102BC000FDF741FE0B480021FFF7A6F908B1FDF71C
:102BD0003AFE08480021FFF77AF908B1FDF733FE05
:102BE0000448FFF757F9002814BFBDE8104010BD96
:102BF000FDF729BE4001002000380140FEE7FEE756
:102C00007047000010B59E4C00200121A047012014
:102C10000021A047102041F29071A04760204FF49E
:102C20001C51A04761200121A04746200221A04756
:102C3000132048F21001A0472C48EE3081B2122038
:102C4000A04702204FF4A061A047032041F23001C9
:102C5000A047302040F20331A047312040F2033139
:102C6000A047322040F20331A04733204FF4407197
:102C7000A04734200321A047352040F20331A0476C
:102C800036201421A047372040F20331A0473820D6
:102C900040F20331A047392040F20331A0473A20E7
:102CA0004FF44071A0473B200321A0473C2040F255
:102CB0000331A0473D204FF4A051A04792204FF48C
:102CC0000071A047932040F20331A047902040F6C6
:102CD0000D01A047032041F21801A047072040F250
:102CE00073112246BDE81040104700BF1080FFFF5F
:102CF000B0B5634DE32043F20801A847E720122155
:102D0000A847EF2041F23121A84701200021A84720
:102D100002204FF4E061A847032041F23001A847A8
:102D200004200021A847082040F20721A8470920D5
:102D30000021A8470A200021A8470C200021A8470D
:102D40000D200021A8470F200021A84710200021B6
:102D5000A84711200721A84712200021A8471320C7
:102D60000021A847474CC820A047102041F290619D
:102D7000A847112040F22721A8473220A04712205F
:102D80001D21A8473220A04713204FF40061A84717
:102D900029201421A8472B200B21A8473220A04727
:102DA00020200021A84721200021A847302007210A
:102DB000A847312040F20771A84732200621A847D2
:102DC000352040F20471A847362041F60471A84727
:102DD00037200421A84738200021A847392040F295
:102DE0000671A8473C2040F20171A8473D200F2101
:102DF000A84750200021A8475120EF21A847522082
:102E00000021A847532040F23F11A84760204FF40B
:102E10001C51A84761200121A8476A200021A8472A
:102E200080200021A84781200021A847822000217E
:102E3000A84783200021A84784200021A847852097
:102E40000021A84790201021A84792200021A847E0
:102E500093200321A84795204FF48871A847972015
:102E60000021A84798200021A847032041F218011B
:102E7000A847072040F273112A46BDE8B04010472A
:102E80005D2800081D0B000870470000B0B5FEF774
:102E900001F8054C4FF0904001212568FDF7EAFF4D
:102EA00040EA45002060B0BD18000020B0B594B0E5
:102EB00006AC1821201DFDF7E3F901A81421142503
:102EC000FDF7DEF94FF40070FEF774F802204021A0
:102ED0001390CDE91100CDE90F05CDE90D000A9160
:102EE0004FF48071099106902046FEF71DFB18B142
:102EF000EFF3108072B6FEE7002002210590CDE9C5
:102F00000300032002900F20019001A8FEF7C8F9EA
:102F100018B1EFF3108072B6FEE714B0B0BD000038
:102F20000248016841F470010160704788ED00E0DB
:102F3000B0B50368324DB0F1804F0AD0314A9042AB
:102F400007D0314A904204D0304A904201D0A84282
:102F500038D105F5C0544A6823F07003041BB4FA55
:102F600084F4134305F5E0524FEA541E05F5A054CE
:102F7000821A041BB2FA82F2B4FA84F452094FEABC
:102F8000541CCC6823F4407323434C6923F0800322
:102F9000002A43EA040303608B68C3620B68836200
:102FA0000BD1BEF1000F08D1A84206D005F5006292
:102FB000904202D0BCF1000F01D0096901630121E8
:102FC0004161B0BD05F5C05405F5E052041B821AFD
:102FD000B4FA84F4B2FA82F24FEA541E05F5A05412
:102FE0005209041BB4FA84F44FEA541C084CA04262
:102FF000C7D0084CA042C4D0074CA042C1D0C4E7FF
:10300000002C014000040040000800400034014052
:1030100000400140004801400044014001F01F0110
:10302000012303FA01FC036A02FA01F123EA0C030B
:103030000362026A114301627047000070B5026AC0
:1030400022F001020262026AD0F804E083698D680E
:103050000C6822F0020215434A4A1A4042EA040C64
:10306000944A02444FEAB222072A13D8012303FAF2
:1030700002F212F0E50F0DD0CE68D1E905342EF43E
:1030800040721A4326F0040342EA040E25F00C02B3
:1030900043EA0205C0F804E0C0F818C0496841637B
:1030A000056270BD70B5026A22F010020262026A07
:1030B000466883698D680C6822F0200242EA051E8A
:1030C0004D4A1A406FF0040342EA042C794A024444
:1030D00003EBB223032B0DD34FEAB222022A00D016
:1030E00082B9CA686FF0400303EA02122EF0C003EF
:1030F00042EA030ED1E9052326F4406444EA820241
:1031000042EA83064660C0F818C049688163C0F887
:1031100020E070BD70B5026A22F480720262026A19
:103120004668C3698D680C6822F4007242EA052E75
:10313000144A1A406FF0040342EA040C5D4A024448
:1031400003EBB223032B0DD34FEAB222022A00D0A5
:1031500082B9CA6840F2FF4312029A432EF44063D8
:1031600042EA030ED1E9052326F4405444EA021250
:1031700042EA03164660C0F81CC04968C163C0F843
:1031800020E070BD8CFFFEFF70B5026A22F4805211
:103190000262026A4668C3698D680C6822F40052B4
:1031A00042EA053E144A1A406FF0040342EA042C36
:1031B000404A024403EBB223032B0DD34FEAB22261
:1031C000022A00D082B9CA6844F6FF7312039A43F8
:1031D0002EF4404342EA030ED1E9052326F440448D
:1031E00044EA821242EA83164660C0F81CC049686D
:1031F0000164C0F820E070BDFF8CFFFE70B5026A6C
:1032000022F480320262026A4668036D8D680C689F
:1032100022F4003242EA054C0E4A1A4042EA040EF9
:10322000244A02444FEAB222072A0AD8012303FAA9
:1032300002F212F0E50F1EBF4A6926F4803343EA1A
:1032400002264660C0F850E049688164C0F820C09A
:1032500070BD00BF8FFFFEFF70B5026A22F48012BE
:103260000262026A4668036D8D680C6822F40012DF
:1032700042EA055C0E4A1A4042EA042E0D4A024414
:103280004FEAB222072A0AD8012303FA02F212F007
:10329000E50F1EBF4A6926F4802343EA8226466072
:1032A000C0F850E04968C164C0F820C070BD00BFDC
:1032B000FF8FFFFE00D4FEBFD0F820C0036A23F0CA
:1032C00001030362836923F0F00343EA021282617F
:1032D0002CF00A02114301627047036A23F01003C5
:1032E0000362836923F4704343EA0232036A826112
:1032F00023F0A00242EA011101627047416ED9B188
:1033000080B50268DFF840C0DFF840E09168C1F3A3
:10331000426192681CF801301EF80110520FC9007A
:10332000B1FBF3F11CF802301EF80220D200B2FB10
:10333000F3F2BDE8804001E001220121A0F868100D
:10334000A0F86A20704700BF10570008085700080F
:10335000816ACA0708D002685368D0F82CC023F4E9
:10336000003343EA0C0353608A0708D502685368A8
:10337000D0F830C023F4803343EA0C0353604A078B
:1033800008D502685368D0F834C023F4802343EA98
:103390000C0353600A0708D502685368D0F838C098
:1033A00023F4004343EA0C035360CA0608D50268BD
:1033B0009368D0F83CC023F4805343EA0C03936035
:1033C0008A0608D502689368D0F840C023F40053F9
:1033D00043EA0C03936080B54A0615D5D0F800E0A7
:1033E000DEF804C0436C2CF48012B3F5801F42EA6F
:1033F0000302CEF8042007D1DEF80420836C22F407
:10340000C0021A43CEF804200906BDE8804058BF28
:10341000704701684A68C06C22F40022104348607B
:103420007047BCB504460020C4F88C00FDF72EFDA3
:1034300005462068016809070BD56FF07E404FF400
:10344000001100222B460090204600F04FFA70B980
:103450002068006840070CD56FF07E404FF4800173
:1034600000222B460090204600F040FA08B10320CD
:1034700008E02020C4F88400C4F88800002084F804
:103480008000E06602B0B0BD806A0021A0F85E1046
:10349000A0F85610FEF767BDB0B5846AD4F8842052
:1034A000D4F8885020688168212A09D111F0800160
:1034B00006D00020A4F85600204600F091F82068BD
:1034C0008068222D08D110F0400005D00020A4F81B
:1034D0005E00204600F056F8D4F88C0040F0100052
:1034E000C4F88C002046BDE8B040FEF73CBD016842
:1034F000806A0968890630D40021A0F85E1001684E
:1035000051E8001F026821F4807142E80013002B8B
:10351000F5D1016851E8021F026821F0010142E87B
:103520000213002BF5D1016851E8021F026821F057
:10353000400142E80213002BF5D12021C0F8881089
:10354000C16E012909D1016851E8001F026821F00C
:10355000100142E80013002BF5D1C16E012918BFFC
:10356000FEF746BFB0F85C10FEF7AFBC806AC16ED4
:10357000012918BFFEF766BFB0F85C104908FEF7D6
:10358000A4BC0000016851E8001F026821F490719A
:1035900042E80013002BF5D110B5104C026852E838
:1035A000022F0368224043E802210029F6D1C16EB0
:1035B0000129BDE8104009D1016851E8001F0268E7
:1035C00021F0100142E80013002BF5D12021C0F8B2
:1035D000881000210167C166704700BFFEFFFFEF42
:1035E000016851E8001F026821F0C00142E80013A1
:1035F000002BF5D1016851E8021F026821F4000197
:1036000042E80213002BF5D12021C0F88410704746
:10361000F8B5044603688068784D794ED4E9041201
:10362000B34240EA0100E16940EA02001A6840EA58
:10363000010002EA0502734D40EA02001860586872
:10364000E26820F4405040EA02005860A0691CBFC4
:10365000226A10439A682A406C4D10439860AB422E
:10366000D86A626A20F00F0040EA0200D862664819
:1036700012D0674DAB4211D0664DAB4210D0B34271
:1036800010D0654DAB4217D1644B69A61B6803F09F
:10369000030356F8235012E0022504E0042502E05B
:1036A000062500E00A255D4F3F68EF405CA507F066
:1036B000030755F8275000E01025B3421ED0B1F59E
:1036C000004F0DD10121082D00F28E80DFE805F0BA
:1036D00005242F8C278C8C8C2D00FDF7D3FE20E049
:1036E0000121082D00F28080DFE805F00539437ED6
:1036F0003C7E7E7E4100FDF7C5FE35E00121082DB0
:1037000000F27280DFE805F005704F70487070704D
:103710004D00FDF7B7FE41E0FDF7C0FE01E0FDF70B
:10372000CDFE00285DD0626A01E04FF400404449BC
:1037300031F81210B0FBF1F061684A0802EB40006A
:103740004FF6EF72B0FBF1F0A0F1100191424AD8B0
:103750004FF6F0710140C0F3420008443FE0FDF72E
:103760009DFE01E0FDF7AAFED8B3626A01E04FF4C6
:103770000040334931F812104FF6EF72B0FBF1F010
:10378000616800EB5100B0FBF1F0A0F11001914233
:1037900029D8216880B223E0FDF790FE08B3626A61
:1037A00001E04FF40040264931F812106268B0FB86
:1037B000F1F002EB42030121984215D31303984222
:1037C00012D8010E0002002310EB520041F100015B
:1037D000FCF71EFD1B4AA0F54071914203D82168F9
:1037E000C860002100E001210020C4E91C004FF066
:1037F0000110A066084601B0F0BD00BFF369FFCF1D
:1038000000800040FFF4FF110024F4000044004059
:1038100000480040004C0040003801408810024041
:10382000000000000400000002000000080000008A
:103830000100000004000000020000000800000079
:10384000F0560008FFFC0F00B0B5002504461346F3
:10385000C0F88C50A0F85C2081652220C4F8880054
:10386000E06FC8B10A46DFF878C0DFF878E01E499B
:10387000C0E90B1EC0E90DC521682431FDF70AF926
:1038800050B11020C4F88C00002084F88000202063
:10389000C4F888000120B0BD84F88050206948B188
:1038A000206850E8000F216840F4807041E8000271
:1038B000002AF5D1206850E8020F216840F001008D
:1038C00041E80202002AF5D1206850E8020F216881
:1038D00040F0400041E80202002AF5D10020B0BDCE
:1038E000993400086D350008EF3400082DE9F843DD
:1038F000DDF8209004460068984616460F4609F108
:103900000105C1693940C91BB1FA81F14909B142C8
:1039100016D1002DF5D0FDF7B9FAB9F1000F13D08B
:10392000A0EB080048450FD820680168490744BF4C
:10393000C1695FEA0151E4D54FF4006101621EE004
:10394000002001B0BDE8F083206850E8000F216836
:1039500020F4D07041E80002002AF5D1206850E838
:10396000020F216820F0010041E80202002AF5D18F
:103970002020C4F8840004F188001AE0206850E890
:10398000000F216820F4D07041E80002002AF5D130
:10399000206850E8020F216820F0010041E802028F
:1039A000002AF5D12020C4F88400C4F8880004F16E
:1039B0008C0020210160002084F880000320C0E7F3
:1039C0006B48FEF7D1BA00BFFEE7000010B5074C08
:1039D00000F00F03044AB0F1FF3F2344C8BF83182F
:1039E0000801187010BD00BF00E400E014ED00E015
:1039F00082B0BCB5094D0446CDE9062306AA019262
:103A0000284600F0EFF804EB44002946C000C0B29D
:103A1000FEF70EFEBDE8BC4002B070472600002055
:103A2000E0B50190524801A90122FF23FEF70BFDEA
:103A3000019802B080BD00BFFDF736FAFFF736FAF5
:103A4000FEF75EFFFEF73CFFFFF704F8FFF752F8C2
:103A5000FFF7A0F8424C434E4FF480710022A4F5CA
:103A600080652846B047204604210122B047204601
:103A700004210022B04728464FF400710022B047CD
:103A8000204604210122B047204604210022B047ED
:103A900028464FF480610022B047204604210122CD
:103AA000B047204604210022B04728464FF4006169
:103AB0000022B047204604210122B04720460421BD
:103AC0000022B04728464FF480510022B0472046DC
:103AD00004210122B047204604210022B047284695
:103AE0004FF400510022B047204604210122B04784
:103AF000204604210022B04728464FF4804100228E
:103B0000B047204604210122B0472046042100226C
:103B1000B04728464FF400410022B0472046042118
:103B20000122B047204604210022B0470E4804215C
:103B3000FEF728F90D480421FEF724F91F48012259
:103B4000811C0B48FEF726FCFEF7B4FD0020FEF7B3
:103B500013FE4FF6FF70FEF727FE00F00BF8FEE7AE
:103B6000000C00487F0E0008A8000020F400002090
:103B70004001002010B50020FEF7F0FC0F4840780F
:103B800058B10FA13020FEF753FD104C104904200E
:103B90006278FFF72DFFE2780AE00FA13020FEF7F0
:103BA00047FD0A4C0A4904202278FFF721FFA2783A
:103BB00008490520BDE81040FFF71ABF200000208B
:103BC0002020202020205041372020000400002009
:103BD0002757000818570008202020202020504197
:103BE0003120200037B514460846064B6A46214668
:103BF00000F0DCF804466946002000F06EFC204628
:103C00003EBD0000DB44000802E008C8121F08C1E6
:103C1000002AFAD170477047002001E001C1121F4D
:103C2000002AFBD1704700002DE9FF5F82B0002120
:103C3000DDE90430020DDDF840B0034318D044F64E
:103C40001050A2F2FF3242431514119801281FD0E0
:103C5000A5EB0B00401C5FEA000A4FF000064E4F38
:103C6000DFF83891B046504615D5CAF1000413E08C
:103C7000119801244AA3012801D16FEA0B0102988F
:103C8000119AC0E90031C0E9024206B0BDE8F09FD8
:103C9000CBF10000DFE704460021404A491842EB1F
:103CA0000450CDE9001012E0E00707D032463B4651
:103CB00040464946FCF7CBFB8046894632463B46A8
:103CC00010461946FCF7C3FB06460F466410002C4D
:103CD000EAD1DDE90401DDE90023BAF1000F06DADB
:103CE000FCF7B5FB42464B46FCF7B1FB05E0FCF7A1
:103CF00020FC42464B46FCF71CFC04460E460022C4
:103D0000284BFCF79DFC03D84FF0FF30014607E03D
:103D10000022254B20463146FCF7F2FAFCF778FCEE
:103D2000102409E0002C0ADB0A220023FCF770FAB9
:103D3000039B30321A55641E50EA0102F2D1641C12
:103D4000039AC4F111031444119A012A03D00122E9
:103D500008430DD10AE0084304D000204FF0110BB6
:103D6000119072E7A3EB0B056D1E0DE05B4504DDC2
:103D70004FF0000205F1010504E003DA4FF0000204
:103D8000A5F10105002AECD002981199C0E9023191
:103D9000C0E9004579E70000000014400000F03F52
:103DA000300000000000F0430000E03F2DE9FF4F2D
:103DB00095B09B468946064600250FE2252877D117
:103DC00000242746F84A0121059400E0044316F830
:103DD000013F203B01FA03F01042F7D130782A2846
:103DE00011D06FF02F033078A0F13002092A16D8D5
:103DF000059A44F0020402EB820203EB42021044F3
:103E0000761C0590EFE759F8042B0592002A03DA97
:103E1000504244F40054059044F00204761C30787B
:103E20002E2816D116F8010F44F004042A280DD0CC
:103E30006FF02F023078A0F13003092B09D807EB7F
:103E4000870302EB4303C718761CF3E759F8047B9A
:103E5000761C30786C280FD006DC4C2817D06828E8
:103E60000DD06A2814D104E0742810D07A280FD11C
:103E70000DE044F400140AE044F4801401E044F43A
:103E800040147278824202D104F58014761C761CAC
:103E9000307866280BD013DC582877D009DC00284E
:103EA00075D04528F6D04628F4D047281AD19DE190
:103EB00018E0632835D0642879D0652812D195E1BF
:103EC000702873D008DC6728F1D069286FD06E287D
:103ED0000DD06F2806D1B5E073282CD0752875D089
:103EE000782874D05A46179990476D1C75E1C4F331
:103EF0000250022809D003280DD0D9F80010042858
:103F00000DD00D6009F1040967E1D9F80010EA1736
:103F1000C1E90052F6E7D9F800100D80F2E70D7004
:103F2000F0E719F8041B8DF8001000208DF801004F
:103F3000EA46012003E059F804AB4FF0FF30610777
:103F40004FF0000102D40DE008F101018846B942AA
:103F50000FDA8045F8DB1AF808100029F4D108E0E0
:103F600008F1010188468142FADB1AF8081000299D
:103F7000F6D105985B46A0EB080721463846179A0C
:103F800000F094FA284400EB080507E04DE029E131
:103F90000DE01AF8010B5A4617999047B8F101083D
:103FA000F7D25B4621463846179A13E142E00A22CF
:103FB0000092C4F302524FF0000A022A08D059F8C6
:103FC00004CB032A4FEAEC710AD00DE029E02AE085
:103FD00009F1070121F00702F2E802C1914609E068
:103FE0000FFA8CFC4FEAEC71042A03D14FFA8CFCD7
:103FF0004FEAEC71002907DA0A460021DCF1000CD7
:1040000061EB02012D2202E0220504D52B228DF85E
:104010000420012203E0E20701D02022F7E79046C6
:1040200059E00A2102E010220DE010214FF0000AB1
:1040300000910BE010224FF0000A44F0040408271E
:10404000009203E008224FF0000A0092C4F30252EB
:10405000022A05D059F804CB0021032A08D009E030
:1040600009F1070121F00702F2E802C1914605E0DB
:104070001FFA8CFC042A01D10CF0FF0C4FF0000851
:10408000220728D5702806D0009B83F0100353EA3E
:104090000A0305D00EE040228DF80420012208E03A
:1040A0005CEA010206D030228DF804208DF805006C
:1040B00002229046009B83F0080353EA0A030AD1C8
:1040C0005CEA010201D1620705D530228DF8042097
:1040D0004FF001087F1E582804D034A003900EA88A
:1040E00002900DE036A0F9E753466046009AFCF7CF
:1040F0008FF884460398825C0298401E02900270FA
:104100005CEA0100F0D1029806A9081A00F1200A21
:10411000600702D524F4803400E00127574502DD12
:10412000A7EB0A0000E0002000EB0A0100900598D0
:104130004144401A0590E00306D45B462146179A95
:10414000059800F0B3F90544002706E001A85A4697
:10415000C05D179990476D1C7F1C4745F6DBE00357
:104160000CD55B462146179A059800F09FF9054447
:1041700004E030205A46179990476D1C0099481E5C
:1041800000900029F5DC08E0029802995A46007870
:10419000491C0291179990476D1CBAF10001AAF1D0
:1041A000010AF1DC65E100000928010030313233F9
:1041B0003435363738396162636465660000000063
:1041C000303132333435363738394142434445464D
:1041D0000000000000F058F90544761C30780028F3
:1041E0007FF4ECAD19B02846BDE8F08F620700D42B
:1041F000062709F1070222F0070CFCE80223E1463A
:1042000003F000485FEA080C02D00FF2702C0DE0BA
:104210005FEA045C02D50FF2682C07E05FEAC47C19
:1042200002D00FF2602C01E0AFF2700C4FF0FF38BB
:1042300023F00043CDF850C065280CD006DC45289B
:1042400009D046281DD047283DD13DE0662818D02A
:1042500067287ED138E00021112F01DB112000E01A
:10426000781CCDE9000106A90EA8FFF7DDFCDDE909
:104270000F010E9A03910021009207F1010A0491A7
:104280004DE04FF000400097CDE9011006A90EA8BF
:10429000FFF7CAFCDDE90F0203920E9B1199002281
:1042A000DDF80CA00093049211B9791C00EB010A0F
:1042B000B7EB0A0004D4C0F1FF3007F1010A049003
:1042C000AAEB0700019044E0012F00DA012700214A
:1042D000112F01DD112000E03846CDE9000106A9CB
:1042E0000EA8FFF7A1FCDDE90F010E9A0391002152
:1042F00004910092BA4621070CD40399514500DA83
:104300008A46BAF1010F05DD009AAAF10101515C5C
:10431000302908D0B84202DA10F1040F06DA012180
:10432000CDE9011015E0AAF10101E9E7002805DC5B
:10433000049901440491AAEB000102E0411C51459B
:1043400000DD8A460499401A401C01904FF000405D
:104350000290200704D40198504501DBCDF8048079
:1043600000208DF84F0002980DF14F07B0F1004F7B
:1043700025D02B200E9002984FF0020800280CDA6E
:10438000404202902D200E9007E00A210298FBF790
:1043900082FF3031029007F8011DB8F10001A8F149
:1043A0000108F2DC02980028EFD1791E0E980870FF
:1043B000307800F0200040F0450007F8020D12A808
:1043C000C01B00F107081498007800B1012000EB31
:1043D0000A01019801EBE07105984144401A401E22
:1043E0000590E00306D45B462146179A059800F035
:1043F0005DF805441498007818B15A46179990470B
:104400006D1CE00324D55B462146179A059800F001
:104410004DF805441CE00498002807DBDDE90301A2
:10442000884203DD0098405C179901E0179930201D
:104430005A469047049805F10105401C04900198E4
:10444000401E019004D12E205A46179990476D1CAA
:10445000BAF10001AAF1010ADDDC05E017F8010B51
:104460005A46179990476D1CB8F10001A8F1010850
:10447000F4DC5B462146179A0598ABE62D00000058
:104480002B000000200000002DE9F041044600252B
:104490001E461746880404D405E039462020B0475C
:1044A0006D1C641EF9D52846BDE8F0812DE9F04168
:1044B000044600251E469046C80301D5302700E07B
:1044C0002027880404D505E041463846B0476D1CD6
:1044D000641EF9D52846BDE8F0810A68531C0B60BC
:1044E0001070704710B5044601E0FFF799FA14F810
:1044F000010B04490028F8D1BDE810400A20FFF75D
:104500008FBA000000000020000000000000000042
:104510000102030406070809000000000102030469
:10452000000000000000000000000000000000008B
:10453000000000000000000000000000000000007B
:10454000000000000000000000000000000000006B
:1045500000008001800180018001800180018001D4
:104560008001800180018001800180010000000045
:104570008001800100000000000000000000000039
:1045800000000000CC00CC00CC00CC00CC00CC0063
:10459000000000000000000000000000000000001B
:1045A000000000000000000000000000000000000B
:1045B000000000000000000000000000600C600C23
:1045C000600C30063006FE1FFE1F30063807180349
:1045D000FE1FFE1F180318038C018C018C010000C4
:1045E00000008000E003F80F9C0E8C1C8C188C00DF
:1045F0009800F801E007800E801C8C188C189C181D
:10460000B80CF00FE0038000800000000000000004
:104610000000000000000E181B0C110C1106110602
:10462000110311039B018E01C038C06C60446044CB
:10463000304430441844186C0C380000000000006E
:104640000000E001F0033807180618063003F001F7
:10465000F000F8009C310E33061E061C061C063FB7
:10466000FC73F021000000000000000000000000CA
:10467000000000000C000C000C000C000C000C00F2
:10468000000000000000000000000000000000002A
:10469000000000000000000000000000000000001A
:1046A0000000000200038001C000C0006000600044
:1046B000300030003000300030003000300030007A
:1046C00060006000C000C000800100030002000024
:1046D000000020006000C000800180010003000392
:1046E000000600060006000600060006000600069A
:1046F0000003000380018001C00060002000000072
:10470000000000000000000000000000C000C00029
:10471000D806F807E0013003380700000000000069
:104720000000000000000000000000000000000089
:104730000000000000000000000000008001800177
:10474000800180018001FC3FFC3F800180018001ED
:104750008001800100000000000000000000000057
:104760000000000000000000000000000000000049
:104770000000000000000000000000000000000039
:1047800000008001800100010001800000000000A5
:104790000000000000000000000000000000000019
:1047A0000000000000000000E007E007000000003B
:1047B00000000000000000000000000000000000F9
:1047C00000000000000000000000000000000000E9
:1047D00000000000000000000000000000000000D9
:1047E0000000C000C0000000000000000000000049
:1047F0000000000C000C0006000600060003000389
:1048000000038003800180018001C000C000C0005F
:1048100060006000000000000000000000000000D8
:104820000000E003F007380E180C0C180C180C18D8
:104830000C180C180C180C180C180C18180C380E36
:10484000F007E0030000000000000000000000008E
:10485000000000018001C001F00198018801800181
:104860008001800180018001800180018001800140
:104870008001800100000000000000000000000036
:104880000000E003F80F180C0C180C1800180018A2
:10489000000C000600038001C0006000300018001A
:1048A000FC1FFC1F000000000000000000000000D2
:1048B0000000E001F807180E0C0C0C0C000C0006B0
:1048C000C003C007000C001800180C180C18180CB6
:1048D000F807E003000000000000000000000000F6
:1048E0000000000C000E000F000F800DC00C600CCB
:1048F000600C300C180C0C0CFC3FFC3F000C000C46
:10490000000C000C0000000000000000000000008F
:104910000000F80FF80F180018000C00EC03FC075B
:104920001C0E001C0018001800180C181C0C180E87
:10493000F807E00300000000000000000000000095
:104940000000C007F00F381C181818000C00CC032A
:10495000EC0F3C0E1C1C0C180C180C18181C380EF4
:10496000F007E0030000000000000000000000006D
:104970000000FC1FFC1F000C000600060003800363
:104980008001C001C000E0006000600070003000E5
:1049900030003000000000000000000000000000B7
:1049A0000000E003F007380E180C180C180C38063D
:1049B000F007F007180C0C180C180C180C18380C11
:1049C000F80FE003000000000000000000000000FD
:1049D0000000E003F007380E1C0C0C180C180C1823
:1049E0001C1C381EF81BE0190018000C000C1C0ED3
:1049F000F807F001000000000000000000000000C7
:104A000000000000000000000000000080018001A4
:104A10000000000000000000000000000000000096
:104A20008001800100000000000000000000000084
:104A30000000000000000000000000008001800174
:104A40000000000000000000000000000000000066
:104A500080018001000100018000000000000000D2
:104A60000000000000000000000000000000000046
:104A70000010001C800FE003F8001800F800E003AD
:104A8000800F001C0010000000000000000000006B
:104A90000000000000000000000000000000000016
:104AA000F81F000000000000F81F000000000000D8
:104AB00000000000000000000000000000000000F6
:104AC00000000000000000000000000000000000E6
:104AD00008003800F001C007001F0018001FC007C1
:104AE000F001380008000000000000000000000095
:104AF0000000E003F80F180C0C180C180018000C3C
:104B0000000600038001C000C000C00000000000DB
:104B1000C000C00000000000000000000000000015
:104B200000000000E00718180420C229224A11449E
:104B300009440944094409221113E20C02400420EB
:104B40001818E0070000000000000000000000004E
:104B5000000080038003C006C006C006600C600C25
:104B6000301830183018F83FF83F1C700C600C609B
:104B700006C006C0000000000000000000000000A9
:104B80000000FC03FC0F0C0C0C180C180C180C0C7F
:104B9000FC07FC0F0C180C300C300C300C300C18CF
:104BA000FC1FFC07000000000000000000000000E7
:104BB0000000C007F01F38381C300C70066006007B
:104BC0000600060006000600060006600C701C3099
:104BD000F01FE007000000000000000000000000DF
:104BE0000000FE03FE0F060E0618061806300630FB
:104BF0000630063006300630063006180618060E57
:104C0000FE0FFE0300000000000000000000000096
:104C10000000FC3FFC3F0C000C000C000C000C00E2
:104C2000FC1FFC1F0C000C000C000C000C000C0006
:104C3000FC3FFC3F000000000000000000000000FE
:104C40000000F83FF83F180018001800180018007E
:104C5000F81FF81F18001800180018001800180096
:104C60001800180000000000000000000000000014
:104C70000000E00FF83F3C780E6006E007C003003C
:104C8000030003FE03FE03C007C006C00EC03CF0D5
:104C9000F83FE00F000000000000000000000000EE
:104CA00000000C300C300C300C300C300C300C3060
:104CB000FC3FFC3F0C300C300C300C300C300C3016
:104CC0000C300C300000000000000000000000006C
:104CD000000080018001800180018001800180014D
:104CE00080018001800180018001800180018001BC
:104CF00080018001000000000000000000000000B2
:104D00000000000600060006000600060006000679
:104D100000060006000600060006180618063807FA
:104D2000F003E001000000000000000000000000AF
:104D3000000006300618060C060606038601C600AB
:104D400066007600DE008E0106030606060C0618D5
:104D500006300660000000000000000000000000B7
:104D6000000018001800180018001800180018009B
:104D70001800180018001800180018001800180073
:104D8000F81FF81F000000000000000000000000F5
:104D900000000EE01EF01EF01EF036D836D836D8D1
:104DA00036D866CC66CC66CCC6C6C6C6C6C6C6C62F
:104DB00086C386C300000000000000000000000061
:104DC00000000C301C303C303C306C306C30CC304F
:104DD000CC308C310C330C330C360C360C3C0C3C88
:104DE0000C380C3000000000000000000000000043
:104DF0000000E007F81F1C380E70066003C003C0F7
:104E000003C003C003C003C003C006600E701C389B
:104E1000F81FE00700000000000000000000000094
:104E20000000FC0FFC1F0C380C300C300C300C3028
:104E30000C18FC1FFC070C000C000C000C000C00F4
:104E40000C000C000000000000000000000000004A
:104E50000000E007F81F1C380E70066003E003C076
:104E600003C003C003C003C007E006630E3F1C3C41
:104E7000F83FE0F700C00000000000000000000064
:104E80000000FE0FFE1F06380630063006300638DA
:104E9000FE1FFE0706030606060C06180618063057
:104EA0000630066000000000000000000000000066
:104EB0000000E003F80F1C0C0C180C180C001C0070
:104EC000F803E00F001E0038063006300E301C1CC0
:104ED000F80FE007000000000000000000000000E4
:104EE0000000FE7FFE7F8001800180018001800143
:104EF00080018001800180018001800180018001AA
:104F0000800180010000000000000000000000009F
:104F100000000C300C300C300C300C300C300C30ED
:104F20000C300C300C300C300C300C300C301818AD
:104F3000F81FE00700000000000000000000000073
:104F4000000003600630063006300C180C180C18F0
:104F5000180C180C380E300630067007600360031A
:104F6000C001C001000000000000000000000000BF
:104F700000000360C361C361C36166336633663397
:104F80006633663366336C1B6C1B6C1B2C1A3C1E21
:104F9000380E380E00000000000000000000000085
:104FA00000000FE00C7018303018700C600EC00755
:104FB00080038003C003E006700C301C18180C300E
:104FC0000E6007E00000000000000000000000008C
:104FD000000003C006600C301C383818300C600626
:104FE000E007C00380018001800180018001800111
:104FF00080018001000000000000000000000000AF
:105000000000FC7FFC7F006000300018000C0006F0
:1050100000038001C0006000300018000C00060092
:10502000FE7FFE7F00000000000000000000000086
:105030000000E003E00360006000600060006000CA
:105040006000600060006000600060006000600060
:1050500060006000600060006000E003E0030000AA
:10506000000030003000600060006000C000C00040
:10507000C000C00180018001800100030003000323
:105080000006000600000000000000000000000014
:105090000000E003E003000300030003000300033B
:1050A00000030003000300030003000300030003E8
:1050B00000030003000300030003E003E00300001B
:1050C00000000000C001C0016003600360033006FF
:1050D0003006180C180C0000000000000000000052
:1050E00000000000000000000000000000000000C0
:1050F00000000000000000000000000000000000B0
:10510000000000000000000000000000000000009F
:105110000000FFFFFFFF0000000000000000000093
:1051200000000C000C000C000C000C000C00000037
:10513000000000000000000000000000000000006F
:10514000000000000000000000000000000000005F
:10515000000000000000000000000000F003F8075D
:105160001C0C0C0C000FF00FF80C0C0C0C0C1C0F92
:10517000F80FF01800000000000000000000000020
:10518000000018001800180018001800D803F80FC5
:10519000380C181818181818181818181818380C67
:1051A000F80FD8030000000000000000000000001D
:1051B000000000000000000000000000C003F00735
:1051C000300E180C1800180018001800180C300EBB
:1051D000F007C00300000000000000000000000015
:1051E000000000180018001800180018C01BF01F5D
:1051F000301C181818181818181818181818301CF7
:10520000F01FC01B000000000000000000000000B4
:10521000000000000000000000000000C003F00FCC
:10522000300C1818F81FF81F180018003818301C18
:10523000F00FC007000000000000000000000000A8
:105240000000800FC00FC000C000C000F007F007D2
:10525000C000C000C000C000C000C000C000C0004E
:10526000C000C000000000000000000000000000BE
:10527000000000000000000000000000E00DF80F3A
:10528000180E0C0C0C0C0C0C0C0C0C0C0C0C180E42
:10529000F80FE00D000C0C0C1C06F807F0010000E4
:1052A000000018001800180018001800D807F80FA0
:1052B000381C18181818181818181818181818184A
:1052C000181818180000000000000000000000007E
:1052D0000000C000C000000000000000C000C000CE
:1052E000C000C000C000C000C000C000C000C000BE
:1052F000C000C0000000000000000000000000002E
:105300000000C000C000000000000000C000C0009D
:10531000C000C000C000C000C000C000C000C0008D
:10532000C000C000C000C000C000F800780000004D
:1053300000000C000C000C000C000C000C0C0C0607
:105340000C038C01CC006C00FC009C018C030C0352
:105350000C060C0C00000000000000000000000023
:105360000000C000C000C000C000C000C000C000FD
:10537000C000C000C000C000C000C000C000C0002D
:10538000C000C0000000000000000000000000009D
:105390000000000000000000000000007C3CFF7ED8
:1053A000C7E383C183C183C183C183C183C183C177
:1053B00083C183C100000000000000000000000065
:1053C0000000000000000000000000009807F80F37
:1053D000381C181818181818181818181818181829
:1053E000181818180000000000000000000000005D
:1053F000000000000000000000000000C003F00FEB
:10540000300C181818181818181818181818300C04
:10541000F00FC003000000000000000000000000CA
:10542000000000000000000000000000D803F80F9A
:10543000380C181818181818181818181818380CC4
:10544000F80FD80318001800180018001800000002
:10545000000000000000000000000000C01BF01F62
:10546000301C181818181818181818181818301C84
:10547000F01FC01B001800180018001800180000CA
:10548000000000000000000000000000B007F00372
:10549000700030003000300030003000300030004C
:1054A000300030000000000000000000000000009C
:1054B000000000000000000000000000E003F00316
:1054C000380E180C3800F003C007000C180C380E0A
:1054D000F007E003000000000000000000000000F2
:1054E000000000008000C000C000C000F007F0070E
:1054F000C000C000C000C000C000C000C000C000AC
:10550000C00780070000000000000000000000004D
:10551000000000000000000000000000181818182B
:105520001818181818181818181818181818381CD7
:10553000F01FE01900000000000000000000000063
:105540000000000000000000000000000C18180C13
:10555000180C180C30063006300660036003600338
:10556000C001C001000000000000000000000000B9
:10557000000000000000000000000000C141C14127
:10558000C3616363636363633636363636361C1C29
:105590001C1C1C1C0000000000000000000000009B
:1055A0000000000000000000000000001C38381C53
:1055B000300C600660036003600360036006300C1B
:1055C000381C1C3800000000000000000000000033
:1055D000000000000000000000000000183030183B
:1055E00030187018600C600CE00CC006C006800318
:1055F0008003800380018001C001F0007000000082
:10560000000000000000000000000000FC1FFC1F64
:10561000000C000600038001C0006000300018008C
:10562000FC1FFC1F00000000000000000000000044
:10563000000000038001C000C000C000C000C00026
:10564000C00060006000300060004000C000C0008A
:10565000C000C000C000C0008001000300000000C6
:1056600000008001800180018001800180018001B3
:105670008001800180018001800180018001800122
:105680008001800180018001800180018001000093
:1056900000006000C000C001800180018001800125
:1056A0008001000300030006000300018001800167
:1056B0008001800180018001C000600000000000C6
:1056C00000000000000000000000000000000000DA
:1056D000F010F81F080F000000000000000000009C
:1056E00000000000000000000000000000000000BA
:1056F000010002000400060008000A000C0010006F
:1057000020004000800000010101010307010000AA
:105710000804020408010101202020443A253164D4
:1057200030252520202000202020463A25643030D6
:1057300030487A2020200000585700080000002040
:1057400020000000083C00087857000820000020D6
:10575000B8050000183C000800000000010101012C
:105760001000000001000000FFFF00000024F40012
:08577000FFFFFFFF0000000035
:04000005080001D915
:00000001FF
