:020000040800F2
:1000000020050020ED010008FB1B00084D1A000828
:10001000F91B0008590200087720000800000000C2
:10002000000000000000000000000000FF1B0008AE
:100030001B03000800000000FD1B0008011C000855
:10004000070200080702000807020008070200086C
:10005000070200080702000807020008070200085C
:100060000702000807020008070200085D020008F6
:10007000070200080702000807020008070200083C
:10008000070200080000000007020008070200083D
:10009000070200080702000807020008070200081C
:1000A000070200080702000807020008070200080C
:1000B000891C000807020008070200080702000860
:1000C00007020008070200080702000807020008EC
:1000D00007020008070200080702000807020008DC
:1000E00007020008070200080702000807020008CC
:1000F00007020008070200080702000800000000CD
:1001000000000000070200080000000007020008CD
:1001100007020008000000000702000807020008AC
:10012000070200080702000807020008070200088B
:10013000070200080000000000000000070200089D
:10014000070200080702000800000000000000008D
:10015000000000000000000000000000000000009F
:10016000000000000000000000000000070200087E
:10017000070200080000000000000000000000006E
:10018000000000000702000800000000000000005E
:10019000000000000000000000000000000000005F
:1001A000000000000000000007020008070200082D
:1001B000070200080702000807020008000000000C
:1001C000000000000702000800000000000000001E
:1001D0000702000807020008DFF80CD000F02AF838
:1001E000004800479D200008200500200648804761
:1001F00006480047FEE7FEE7FEE7FEE7FEE7FEE70C
:10020000FEE7FEE7FEE7FEE7791C0008D9010008DB
:10021000D2B201E000F8012B491EFBD27047002248
:10022000F6E710B513460A4604461946FFF7F0FFF5
:10023000204610BD064C074D06E0E06840F0010383
:1002400094E8070098471034AC42F6D3FFF7C8FF94
:10025000FC2100081C220008FEE70000014800F015
:1002600061B800BF7000002010B5104C04F180028E
:10027000A4F57E712034C2640268436C8A4223F084
:1002800003013CBF40F60004C4F20204214481642F
:100290006FF0070151FA82F11422B1FBF2F1012251
:1002A00001F01F0102FA01F1016510BD00080240D2
:1002B000037907490122013B01F1400C01EB830165
:1002C00003F01F039A40C0E9151CC265704700BFC8
:1002D0000009024010B5D0E913CE0124CCF804E0A7
:1002E000D0F854C0BCF1000F1CBFD0E916CECCF83A
:1002F00004E0D0E910CE0EF01F0E04FA0EF4CCF894
:1003000004400468636080681028084608BF1046EF
:10031000A06008BF0A46E26010BD7047EFF310808E
:1003200072B6FEE7B0B5D0E910C4DCF80010026880
:1003300004F01F0E13685C0710D5042404FA0EF4B1
:1003400014EA01050AD0116889065EBF116821F020
:1003500004011160CCF80440016B30E09C0716D515
:10036000022404FA0EF414EA010510D0116889067B
:1003700006D4116821F00A011160012180F82510CE
:100380000021CCF8044080F82410C16A17E01B0754
:1003900019D5082303FA0EF3194008BFB0BD116840
:1003A00021F00E011160012101FA0EF2CCF80420B7
:1003B0000022C16380F8242080F82510416B11B120
:1003C000BDE8B0400847B0BD00284AD0F8B50446A3
:1003D00002202B49142384F8250004F11807206813
:1003E00001F108029042274A38BFA1F5806138BF69
:1003F00002F580620244B2FBF3F29200C4E91012EB
:1004000047F6F072016821EA020CD4E90223D4E92C
:10041000041EE0CF42EA0C021A43114341EA0E01E6
:1004200029433143394301602046FFF71DFFA0688F
:10043000B0F5804F06BF002060606068C2B2A16C5A
:10044000013803280A60D4E913124A600BD8204609
:10045000FFF72EFF606D00210160D4E916014160B5
:1004600005E0012070470020C4E91500E065002088
:100470000121E06384F8240084F82510F8BD00BF52
:1004800000040240F8FBFDBF10B5044690F82400BC
:10049000012820D0012084F8240094F825000128A8
:1004A00016D1022084F825000020E063D4F800C0B3
:1004B000DCF8000020F00100CCF800002046FFF737
:1004C00009FF2068226B01683AB141F00E010AE091
:1004D000002084F82400022010BD21F004010160F6
:1004E000016841F00A010160A16C0A68D20342BFB1
:1004F0000A6842F480720A60616D19B10A6842F4B8
:1005000080720A60016841F001010160002010BDA5
:10051000B0B5044600F0ECF90546FB48611C4068A4
:1005200018BF044400F0E4F9401BA042FAD3B0BD68
:100530008EB00A4603460D900C9100200B90079256
:100540000693FFE70C9800680B99C840002800F05C
:10055000AC81FFE70C9800680B99012202FA01F1C7
:1005600008400A900A98002800F09B81FFE70C9849
:10057000406800F00300012807D0FFE70C984068AE
:1005800000F0030002282FD1FFE70D988068099042
:100590000B984000032101FA00F0099921EA0000BC
:1005A00009900C98C0680B99490088400999084344
:1005B000099009980D9988600D98406809900B98EA
:1005C000012101FA00F0099921EA000009900C9834
:1005D0004068C0F300100B998840099908430990BE
:1005E00009980D994860FFE70C98406800F00300F7
:1005F000032818D0FFE70D98C06809900B984000B9
:10060000032101FA00F0099921EA000009900C98F1
:1006100080680B9949008840099908430990099816
:100620000D99C860FFE70C98406800F003000228AD
:1006300026D1FFE70D980B996FF0030202EA5101F2
:100640000844006A09900B9800F0070080000F2111
:1006500001FA00F0099921EA000009900C9800695C
:100660000B9901F007018900884009990843099016
:1006700009980D990B9B02EA530211440862FFE7A7
:100680000D98006809900B984000032101FA00F0D2
:10069000099921EA000009900C98406800F00300D5
:1006A0000B994900884009990843099009980D99C8
:1006B00008600C9880798007002800F0F180FFE73F
:1006C000FFE741F26000C4F20200016841F001015D
:1006D0000160006800F00100089008980590FFE7AD
:1006E0000B9820F003000821C4F201014058099042
:1006F0000B9800F0030080000F2101FA00F0099927
:1007000021EA000009900D98B0F1904F03D1FFE766
:100710000020049042E00D9840F20041C4F6000130
:10072000884203D1FFE70120039034E00D9840F6A2
:100730000001C4F60001884203D1FFE702200290C5
:1007400026E00D9840F60041C4F60001884203D12E
:10075000FFE70320019018E00D9841F20001C4F674
:100760000001884203D1FFE7042000900AE00D98C1
:1007700041F20041C4F600010622884208BF05226A
:100780000092FFE700980190FFE701980290FFE7D1
:1007900002980390FFE703980490FFE704980B99F1
:1007A00001F00301890088400999084309900998DC
:1007B0000B9921F003010822C4F20102885040F293
:1007C0000840C4F20100006809900A98099921EADA
:1007D000000009900C988079C006002805D5FFE735
:1007E0000A98099908430990FFE7099840F20841DF
:1007F000C4F20101086040F20C40C4F2010000683C
:1008000009900A98099921EA000009900C988079CA
:100810008006002805D5FFE70A9809990843099042
:10082000FFE7099840F20C41C4F20101086040F270
:100830000440C4F20100006809900A98099921EA6D
:10084000000009900C9880798007002805D5FFE703
:100850000A98099908430990FFE7099840F2044172
:10086000C4F20101086040F20040C4F201000068D7
:1008700009900A98099921EA000009900C9880795A
:10088000C007002805D0FFE70A9809990843099096
:10089000FFE7099840F20041C4F201010860FFE758
:1008A000FFE70B9801300B904CE60EB0704700004C
:1008B00080B585B013468C4686460490ADF80E1080
:1008C0008DF80D209DF80D0000280293CDF804C08E
:1008D000CDF800E005D0FFE7BDF80E00049988616F
:1008E00004E0BDF80E0004998862FFE705B080BD02
:1008F00006480068704700BF1C48044940680A6801
:1009000010440860704700BF000000201C01002058
:1009100010B5032000F072F80120012400F006F861
:1009200010B900F025F80024204610BD70B50F4E18
:1009300004467068B0B14FF47A71B1FBF0F0DE4953
:100940000968B1FBF0F000F00FFC01250F2C0AD86C
:1009500048B94FF0FF3021460022002500F030F862
:10096000346000E00125284670BD00BF0000002073
:1009700082B00B48816841F001018160816801F01B
:10098000010101910199016841F080510160006805
:1009900000F080500090009802B000F095B800BFC1
:1009A00058100240002808DB00F01F010122400916
:1009B00002FA01F1014A42F82010704700E100E01C
:1009C00080B5144B1B68C3F3022CBCF1030E8CF0F2
:1009D00007034FF0FF3C38BF4FF0000E042B28BF39
:1009E00004230CFA03F399430CFA0EF301FA0EF107
:1009F0009A431143BDE8804001F03EBB05494FF6E4
:100A0000FF030A681A4060F30A2203481043086093
:100A1000704700BF0CED00E00000FA0520B3284944
:100A2000B0F5007F0A6845D1D1F8800040F48070AD
:100A3000C1F8800002F4C060B0F5806F3ED1086854
:100A4000012262F34A20322208609B48006850432A
:100A50001C4AB0FBF2F0C0434A6918B1013012F4ED
:100A60008062F9D1486920E015480168D0F88020FB
:100A700001F4C06122F48072B1F5806FC0F880206B
:100A80001CD10168012262F34A21322201608A49A5
:100A9000096851430B4AB1FBF2F1C943426919B1EC
:100AA000013112F48062F9D14069400544BF03204E
:100AB000704703E0022060F34A220A60002070477A
:100AC0000070004040420F000248016841F480413C
:100AD00001607047087000402DE9F047002854D0AD
:100AE000724B04460D46186800F00F00884209D288
:100AF000186820F00F0028431860186800F00F00F5
:100B0000A84242D12068864E9A46C107B14602D11A
:100B10004FF000086BE06168032930D156F8081CDB
:100B2000890132D57168726873687768B4460226A5
:100B3000C7F3416701F0030106EB4707794E03292C
:100B400004BF41F20026C0F27A06C2F30311C3F3D8
:100B500006220131B6FBF1F15143554AB1FBF7F1E1
:100B6000914224D9DCF80010664611F0F00F16D03F
:100B7000800701D5A06890B14FF000081AE056F840
:100B8000080C022904D1800304D40120BDE8F087B9
:100B90004005FAD500F094F845498842ECD9306810
:100BA00008214FF0800861F30710306002E04FF039
:100BB000000866463068616820F003000843306032
:100BC000FFF796FE064641F288374846D9F80000FE
:100BD000616800F00C00B0EB810F05D0FFF788FED4
:100BE000801BB842F1D939E020684E465346810750
:100BF00006D4B8F1800F16D1316821F0F00111E070
:100C0000410742BF316841F4E0613160010704D51A
:100C10003168072262F30D2131603168A26821F04A
:100C2000F00111433160196801F00F01A9421AD98E
:100C3000186820F00F0028431860FFF759FE064699
:100C400041F288375046DAF8000000F00F00A84261
:100C500007D0FFF74DFE801BB842F3D90320BDE853
:100C6000F08720684E46410705D53168E26821F4D7
:100C7000E06111433160000706D53068216920F436
:100C8000605040EAC100306000F01AF83168094A4B
:100C9000C1F30311515C01F01F01C840064908600F
:100CA00006480068BDE8F047FFF740BE002002405C
:100CB00000B4C404EA21000808000020000000205D
:100CC0001749184A086800F00C000428104608BFAD
:100CD0007047086800F00C031348082B1ED00B68FF
:100CE00003F00C030C2B1CBF002070474B6803F073
:100CF0000303032B08BF02464868C0F3031001300A
:100D0000B2FBF0F04A68C2F306224968504302225F
:100D1000C1F3416102EB4101B0FBF1F0704700BF4C
:100D2000081002400024F40000127A002DE9FC4172
:100D3000002800F0AA8104460078DF4EC0071ED1CB
:100D40002078800747D42078000740F19A806169B5
:100D5000D6F89400002900F0838040F00100C6F826
:100D60009400FFF7C5FD0546D6F89400800700F112
:100D70008880FFF7BDFD401B0228F5D9C9E0B168A6
:100D8000F06801F00C0108294BD0032281F00C011E
:100D900022EA00000844B0FA80F0400941D16768B7
:100DA000B7F5803F07D03068B7F5A02F40F0CC8072
:100DB00040F480203060306840F480303060FFF7CD
:100DC00097FD054630688003BAD4FFF791FD401BBC
:100DD0006428F7D99DE0B068F16800F00C000428A1
:100DE00028D001F0030180F00C0081F002010844DA
:100DF000B0FA80F040091DD1E1683068002900F0A8
:100E00008A8040F480703060FFF772FD05463068DC
:100E1000400500F19180FFF76BFD401B0228F6D9D9
:100E200077E0306880037FF58BAF606800287FF43F
:100E300087AF2AE13068400503D5E068002800F05C
:100E400024817068216920F0FE4040EA01607060F2
:100E5000C0480068FFF76AFD002840F0168172E77D
:100E600020F00100C6F89400FFF742FD0546D6F8D1
:100E70009400800705D5FFF73BFD401B0228F6D9FB
:100E800047E02078400740F19A80B06DC0000BD455
:100E9000B06D4FF0010840F08050B065B06D00F0CB
:100EA00080500190019801E04FF00008AA4F386887
:100EB000C0050FD4386840F480703860FFF718FD23
:100EC00005463868C00505D4FFF712FD401B02280F
:100ED000F7D91EE0A768012F07D0D6F89000052F9C
:100EE0004AD140F00400C6F89000D6F8900040F0D7
:100EF0000100C6F89000FFF7FBFC054641F2883779
:100F0000D6F89000800753D4FFF7F2FC401BB8429C
:100F1000F6D90320BAE020F480703060FFF7E8FCD7
:100F20000546306840057FF50EAFFFF7E1FC411B39
:100F300003200229F5D9A9E07068216920F0FE405C
:100F400040EA01607060FEE620F480303060306876
:100F500020F480203060FFF7CBFC0546002F7FF4A3
:100F600031AF306880037FF5EBAEFFF7C1FC411B6A
:100F700003206429F5D989E020F00100C6F890002B
:100F8000D6F8900020F00400C6F89000FFF7B0FCFF
:100F90000546002FB2D141F28837D6F8900080077D
:100FA00006D5FFF7A5FC411B0320B942F5D96DE03A
:100FB000B8F1000F1EBFB06D20F08050B0652078F2
:100FC000800627D5A169D6F8980089B140F00100C4
:100FD000C6F89800FFF78CFC0546D6F89800800705
:100FE00018D4FFF785FC411B03200229F5D94DE0F9
:100FF00020F00100C6F89800FFF77AFC0546D6F805
:101000009800800706D5FFF773FC411B03200229D7
:10101000F5D93BE0E069002800F09A80B16801F062
:101020000C010C2935D101282FD0F068216A00F07D
:1010300003028A4229D1616A6FF00F0202EB0111AB
:1010400000F0F0028A4220D1A16A00F4FE42B2EB25
:10105000012F1AD1E16A00F07842B2EBC16F14D1CE
:10106000216B404A02EA015100F4C002A1F50011CF
:101070008A420AD1616B4FF07E4200F0C06002EA02
:10108000016101F17E41884262D0012002B0BDE8D9
:10109000F0813168022821F0807131600ED1FFF7B4
:1010A00027FC0546306880011DD5FFF721FC411B58
:1010B00003200229F6D9E9E700100240F068274929
:1010C00020F00300F060F0680840F060FFF710FCCB
:1010D0000446306880013BD5FFF70AFC011B032062
:1010E0000229F6D9D2E704F12007F0686FF00F0566
:1010F0008ECF05EB02121A4D28400843216B104396
:10110000184A40EA032002EA01514FF07E42A1F55D
:1011100000110843616B40EAC76002EA016101F116
:101120007E410843F060306840F080703060F068C5
:1011300040F08070F060FFF7DBFB04463068800110
:1011400006D4FFF7D5FB011B03200229F6D99DE742
:1011500000209BE70000002000700040FFFFEEFE33
:101160000C809F010000E0FF411E0020B0EB116FDA
:101170001CBF01207047044AF023516003490B70E3
:10118000072190601160704710E000E023ED00E05F
:1011900070477047704770477047704790F83C3011
:1011A0000222012B37D070B580F83D2001221B4D63
:1011B00080F83C20026854689368AA4202D0184E16
:1011C000B24203D14E6824F470043443154EB2F198
:1011D000804F06EA04060C6846EA040656600DD005
:1011E000114CA2420AD0114CA24207D00C4CA24290
:1011F00004D00F4CA24201D0AA4204D1896823F046
:101200008003194391600022012180F83C2080F87E
:101210003D10BDE870401046704700BF00340140EB
:10122000002C01408FFFFFFD00040040000800403B
:1012300000400140704760B310B5044690F83D008F
:1012400028B9002084F83C00204600F025F8022050
:10125000211D84F83D00206800F01CFD012084F869
:10126000480084F83E0084F83F0084F8400084F889
:10127000410084F8420084F8430084F8440084F874
:10128000450084F8460084F8470084F83D000020BB
:1012900010BD012070470000F0B587B0044602A8D9
:1012A0001421FEF7BCFF2068B0F1804F44D12348E1
:1012B0000026C16841F00101C160C16801F001016F
:1012C00001910199016841F00101016002A90068E2
:1012D00000F0010001900198012006900220CDE964
:1012E000046603904FF4004002904FF09040FFF7E7
:1012F0001FF9134D134F38204FF0200C4FF40061AD
:101300004FF4007280232E62C5E900702846C5E9BB
:101310000266C5E90432C5E9061CFFF755F808B1B5
:10132000FEF7FCFF1C20002100226562AC62FFF783
:1013300047FB1C20FFF736FB07B0F0BD4C10024006
:10134000700000200800024010B590F83C200446D0
:101350000220012A08BF10BD84F83D0001203E4B49
:1013600084F83C00206882681A4082600A688AB368
:10137000102A2FD0202A2DD0302A2BD0402A38D026
:10138000502A41D0602A4AD0344B9A4222D0B2F53A
:10139000805F26D0B2F5005F4CD0B2F1101F19D09B
:1013A0002F4B9A4216D02F4B9A4213D02E4B9A4273
:1013B00010D0702A4DD1D1E90123C9681A4342EAFD
:1013C0000121826822F47F4211438160816841F0EB
:1013D000770105E08168254B1940114341F0070171
:1013E00081600020002184F83C10012184F83D1028
:1013F00010BD4B68CA68194600F0C6FD20681B4A3C
:10140000816811404731EBE74B68CA68194600F024
:10141000BBFD2068154A816811405731E0E74B68F1
:10142000CA68194600F0FAFD2068104A8168114028
:101430006731D5E7D1E90123C9681A4342EA01219E
:10144000826822F47F4211438160816841F48041C7
:10145000C6E70120C6E700BF8800CEFF700010007D
:1014600020001000300010004000100088FFCFFF67
:10147000704700000068B0F1804F18BF7047034804
:10148000034A4168B2FBF1F181607047100000200F
:1014900000B4C40470470000B0B5044690F83C00A6
:1014A000012804BF0220B0BD0D464FEAB201012061
:1014B000032984F83C005ED8DFE801F0020C163501
:1014C000D5E90012EB68206800F070FD206850F844
:1014D000181F23E0D5E90012EB68206800F0AFFD8B
:1014E000206850F8181F3DE0D5E900C22368E8687D
:1014F000196A60F30712184621F48071196250F8D6
:101500001C1F21F0F30111431A6A01600CF00A015B
:1015100022F4206242EA01211962016821F00C01E3
:101520000160A96823E0D5E900C02368EA68196A68
:10153000000221F4805119624FF2FF0120EA0101FB
:10154000184662F30F3150F81C2F22F473421143F6
:101550001A6A01600CF00A0122F4204242EA0131C9
:101560001962016821F440610160A96809020268FA
:10157000114301600020002184F83C10B0BD60B32D
:1015800010B5044690F83D0028B9002084F83C00CE
:10159000204600F024F80220211D84F83D00206838
:1015A00000F078FB012084F8480084F83E0084F8BD
:1015B0003F0084F8400084F8410084F8420084F839
:1015C000430084F8440084F8450084F8460084F819
:1015D000470084F83D00002010BD0120704770478F
:1015E000F8B51D4616460F46044669B1381F4FEA46
:1015F000B00003280DD8DFE800F0020F121594F8B0
:101600003F1004F1450016E094F83E1004F1440048
:1016100011E004F1430007E004F1400004E004F1AC
:10162000410001E004F142000178082F14BF04F1E9
:10163000470004F14600027802294FF0020018BF6B
:10164000022A08D001294FF0010008BF012A02D167
:101650001EB915B1012001B0F0BD77B1381F4FEAB6
:10166000B00003280FD8DFE800F002141B1F02208F
:1016700084F83F0084F845001CE0022084F83E0016
:1016800084F8440016E00220082F84F8430003D0B9
:101690000DE0022084F84000022084F8460009E0B2
:1016A000022084F8410002E0022084F84200022077
:1016B00084F8470020683946012200F057FB4FEAC2
:1016C000B70003281AD8DFE800F0021C344C606A27
:1016D000414932462B46C1624049606A0163404934
:1016E000606A41632168606A3431FEF7CDFE0028EC
:1016F000B0D12168C86840F4007049E02168012039
:1017000048E0A06A344932462B46C1623349A06A98
:1017100001633349A06A41632168A06A3831FEF74A
:10172000B3FE00287FF496AF2168C86840F480605B
:101730002EE0E06A284932462B46C1622749E06A1A
:1017400001632749E06A41632168E06A3C31FEF7A2
:101750009BFE00287FF47EAF2168C86840F40060DB
:1017600016E0206B1C4932462B46C1621B49206B98
:1017700001631B49206B41632168206B4031FEF7F8
:1017800083FE00287FF466AF2168C86840F480506B
:10179000C8600020B1F1804F0ED0124A91420BD0A8
:1017A000114A914208D0114A914205D0104A914203
:1017B00002D0104A914209D18A680F4B1A40062A7A
:1017C0003FF449AFB2F5803F3FF445AF0A6842F0BD
:1017D00001020A603FE700BF8B1D0008FF1D0008E3
:1017E000371E00080004004000080040002C0140A3
:1017F00000400140003401400700010010B50446DC
:1018000000680169890744BFC1685FEA81715BD4E0
:101810000169490744BFC1685FEA417160D4016949
:10182000090744BFC1685FEA017166D40169C9064E
:1018300044BFC1685FEAC1616BD40169C9071CBFBD
:10184000C1685FEAC17171D10169090644BFC1680D
:101850005FEA016172D40169C90544BFC1685FEAEA
:10186000016173D40169490644BFC1685FEA4161FF
:1018700074D40169890644BFC1685FEA816175D487
:101880000169C90244BFC1685FEAC12176D4016918
:10189000890244BFC1685FEA812177D401694902A6
:1018A00044BFC1685FEA412178D40169090246BF9B
:1018B000C1685FEA012110BD6FF40001016120469B
:1018C000BDE81040FFF7B6BC6FF0020101610121D5
:1018D00021778069800769D02046FFF7CBFD6BE058
:1018E0006FF00401016102212177806910F4407FCB
:1018F00066D02046FFF7BEFD68E06FF00801016189
:1019000004212177C069800764D02046FFF7B2FD2B
:1019100066E06FF01001016108212177C06910F4C1
:10192000407F61D02046FFF7A5FD63E06FF0010125
:101930000161204600F064F8206885E76FF08001BF
:1019400001612046FFF725FC206884E76FF4807171
:1019500001612046FFF71CFC206883E76FF040011F
:101960000161204600F071F8206882E76FF02001E5
:1019700001612046FFF70EFC206881E76FF48011BB
:1019800001612046FFF708FC206880E76FF4001132
:1019900001612046FFF7FFFB20687FE76FF48001BD
:1019A00001612046FFF7F9FB20687EE7204600F042
:1019B00025F8204600F023F800202077206827E74C
:1019C000204600F01BF8204600F019F80020207790
:1019D000206824E7204600F011F8204600F00FF8B8
:1019E00000202077206821E7204600F007F82046F5
:1019F00000F005F80020207720681EE77047704748
:101A00007047B0B590F83C2004460220012A08BF78
:101A1000B0BD84F83D000125204684F83C5000F01C
:101A200035FA00284FF0010009D12068C16821F083
:101A30004001C160C16821F48041C16000200021E3
:101A400084F83C1084F83D50B0BD7047FEE70000BC
:101A5000E0B50E480022016841F004010160016810
:101A600001F0040101910199016841F00101016057
:101A70000021006800F00100009000980B20FEF7A4
:101A80009FFF0B20BDE88C40FEF78CBF4810024042
:101A90002DE9F04387B04FF000082848284C012278
:101AA0004FF47F460127CDF81880016841F004010A
:101AB0000160016801F0040101910199016841F0A0
:101AC00020010160016801F0200101910199016884
:101AD00041F001010160016801F0010101910199EA
:101AE000016841F0080101604FF47F41006800F097
:101AF0000800019001982046FEF7DAFE04F58065A3
:101B0000042100224FF004092846FEF7D1FECDE95A
:101B10000478CDE9026702AE20463146FEF708FDA3
:101B20000220CDF81480314604902846CDE9029772
:101B3000FEF7FEFC07B0BDE8F08300BF4C1002408A
:101B40000008004810B590B0002407A81421CDE982
:101B50000E44CDE90C44FEF762FB4D484FF0FF31D7
:101B60004FF080420694CDE904448461C0E900242A
:101B7000C0E902410461CDE90244CDE90044FFF728
:101B80005AFB08B1FEF7CAFB4FF480500CA90C9029
:101B90003F48FFF7D9FB08B1FEF7C0FB3C48FFF711
:101BA000EEFC08B1FEF7BAFB0024502007A90B9405
:101BB00009940890042007903548FFF722FF08B1E8
:101BC000FEF7ACFB324804A906940494FFF7E6FA4A
:101BD00008B1FEF7A3FB002001210022CDE902009D
:101BE000CDE900012A486946FFF756FC08B1FEF727
:101BF00095FB10B010BD00BFFEE7FEE770477047D1
:101C0000FEF77ABE10B594B006AC1821201DFEF781
:101C100006FB01A81421FEF702FB4FF40070FEF74B
:101C2000FDFE02200A211390CDE91100109101213F
:101C30000F914021CDE90D000A914FF48071099177
:101C400006902046FFF772F818B1EFF3108072B6D5
:101C5000FEE7002002210590CDE903000320029059
:101C60000F20019001A8FEF737FF18B1EFF31080A5
:101C700072B6FEE714B010BD0248016841F470016D
:101C80000160704788ED00E00148FFF7B7BD00BF75
:101C9000D0000020B0B50368DD4DB0F1804F0AD010
:101CA000D94A904207D0D94A904204D0DA4A9042A9
:101CB00001D0A84238D105F5C0544A6823F070031A
:101CC000041BB4FA84F4134305F5E0524FEA541EA2
:101CD00005F5A054821A041BB2FA82F2B4FA84F415
:101CE00052094FEA541CCC6823F4407323434C69D7
:101CF00023F08003002A43EA040303608B68C36275
:101D00000B6883620BD1BEF1000F08D1A84206D048
:101D100005F50062904202D0BCF1000F01D00969C4
:101D2000016301214161B0BD05F5C05405F5E052E4
:101D3000041B821AB4FA84F4B2FA82F24FEA541EF7
:101D400005F5A0545209041BB4FA84F44FEA541C5C
:101D5000B04CA042C7D0034CA042C4D0024CA04219
:101D6000C1D0C4E7004801400044014001F01F0118
:101D7000012303FA01FC036A02FA01F123EA0C03CE
:101D80000362026A11430162704710B5846A616A96
:101D9000814212D0A16A814218D0E16A81421FD0EB
:101DA000216B814225D108212177C06908BB012020
:101DB00084F8410084F847001BE001212177C069C5
:101DC000B8B984F83E1084F8441012E0022121775B
:101DD000C06970B9012084F83F0084F8450008E02C
:101DE00004212177C06920B9012084F8400084F8DB
:101DF00046002046FFF73EFB0020207710BD10B5BF
:101E0000846A616A81420AD0A16A814209D0E16A8A
:101E1000814208D0216B814207D1082004E00120D3
:101E200002E0022000E0042020772046FFF732FB8A
:101E30000020207710BD10B5846A616A81420CD001
:101E4000A16A81420DD0E16A81420FD0216B8142AB
:101E500011D0012084F83D0012E0012084F83E00FA
:101E60000DE0012084F83F00022008E0012084F802
:101E70004000042003E0012084F84100082020777E
:101E80002046FFF7F5FA0020207710BD10B5D0F8F6
:101E900000E0374A374CDEF808001040D1E9003244
:101EA0001440002A40EA040040EA0300CEF808008B
:101EB0004FF000005AD0102A58D0202A56D0302A8D
:101EC00054D0402A23D0502A3DD0602A44D02A4BF7
:101ED0009A424BD0B2F1101F48D0284B9A4245D0BD
:101EE000274B9A4242D0274B9A423FD0702A3CD18E
:101EF000D1E902020969104340EA0120DEF8081026
:101F000021F47F410843CEF80800002010BD0120D5
:101F1000052B2BD0B3F1011F08BF10BDDEF8200048
:101F2000DEF8202022F00102CEF82020DEF8182072
:101F3000096922F0F00242EA0111CEF81810CEF839
:101F40002000002010BDD1F808C00A697046614623
:101F500000F01AF8002010BDD1F808C00A697046D8
:101F6000614600F05BF8002010BD012010BD00BFED
:101F700088FFCEFFF8FFFEFF700010002000100069
:101F80003000100040001000D0F820C0036A23F099
:101F900001030362836923F0F00343EA02128261C2
:101FA0002CF00A02114301627047000010B5D0F80E
:101FB00020C0B0F1804F2CF0010CC0F820C0D0F848
:101FC00018E0D0F820C00ED00F4CA0420BD00F4C20
:101FD000A04208D00E4CA04205D00E4CA04202D028
:101FE0000D4CA0420CD12EF00304224363F30712E0
:101FF00001F00A0182612CF00A021144016210BD55
:102000004EF00102F2E700BF00040040000800406B
:10201000002C01400040014000340140036A23F0DD
:1020200010030362836923F4704343EA0232036AB4
:10203000826123F0A00242EA011101627047D0F8E8
:1020400020C001F00A012CF0100CC0F820C04FEAAB
:10205000022C4FF2FF022CEA020263F30F32836973
:1020600023F473431A43036A826123F0A00242EA15
:10207000011101627047FEE710B5074C00F00F0335
:10208000044AB0F1FF3F2344C8BF83180801187009
:1020900010BD00BF00E400E014ED00E0464F00205A
:1020A0004FF0FF31002205E0BB181032C3E90811E0
:1020B00083F82800402AF7D1387840F001003870C2
:1020C000FEF726FCFFF79EFDFFF7E2FCFFF7C0FCE2
:1020D000FFF738FD3878394C394E0022010220468E
:1020E000B04738780122C043000281B22046B04791
:1020F00004F58065042100222846B04728460421C3
:102100000122B0473878002240F002003870010206
:102110002046B04738780122C043000281B22046F1
:10212000B047284604210022B04728460421012256
:10213000B0473878002240F0100038700102204685
:10214000B047B8460122A14618F8040BC04300026C
:1021500081B22046B047284604210022B0472846D5
:1021600004210122B0471748002142460123FFF70E
:1021700037FA154880467868B8FBF0F0B8606420FC
:10218000FEF7C6F9387800224C4640F0C00038709F
:1021900001024846B04738780122C043000281B2AC
:1021A0004846B047284604210022B047284604216B
:1021B0000122B047DFE700BF100000200008004800
:1021C000B1080008D000002000B4C40402E008C830
:1021D000121F08C1002AFAD170477047002001E0A1
:1021E00001C1121F002AFBD170470000000000004F
:1021F000000001020304060708090000202200086D
:102200000000002010000000CC210008302200084F
:102210001000002010050000DC2100080000000074
:1022200010000000010000000024F4000000000085
:04000005080001D915
:00000001FF
