:020000040800F2
:1000000068050020ED0100080B1B0008A519000879
:10001000091B0008F9020008F32000080000000096
:100020000000000000000000000000000F1B00089E
:100030006D030008000000000D1B0008111B0008E4
:10004000070200080702000807020008070200086C
:10005000070200080702000807020008070200085C
:10006000070200080702000807020008FD02000856
:10007000070200080702000807020008070200083C
:10008000070200080000000007020008070200083D
:10009000070200080702000807020008070200081C
:1000A000070200080702000807020008070200080C
:1000B00007020008070200080702000807020008FC
:1000C00007020008070200080702000807020008EC
:1000D00007020008070200080702000807020008DC
:1000E00007020008070200080702000807020008CC
:1000F00007020008070200080702000800000000CD
:1001000000000000070200080000000007020008CD
:100110000702000800000000911B00080702000809
:10012000070200080702000807020008070200088B
:10013000070200080000000000000000070200089D
:10014000070200080702000800000000000000008D
:10015000000000000000000000000000000000009F
:10016000000000000000000000000000070200087E
:10017000070200080000000000000000000000006E
:10018000000000000702000800000000000000005E
:10019000000000000000000000000000000000005F
:1001A000000000000000000007020008070200082D
:1001B000070200080702000807020008000000000C
:1001C000000000000702000800000000000000001E
:1001D0000702000807020008DFF80CD000F07AF8E8
:1001E000004800477D210008680500200648804738
:1001F00006480047FEE7FEE7FEE7FEE7FEE7FEE70C
:10020000FEE7FEE7FEE7FEE7811B0008D9010008D4
:100210002DE9F05F0546002092469B46884606463B
:10022000814640241BE0284641464746224600F0CE
:1002300041F853465A46C01A914110D31146184608
:10024000224600F028F82D1A67EB01084F46224697
:100250000120002100F01FF817EB00094E41201E7D
:10026000A4F10104DFDC484631462A464346BDE896
:10027000F09FD2B201E000F8012B491EFBD270477B
:100280000022F6E710B513460A4604461946FFF762
:10029000F0FF204610BD202A04DB203A00FA02F1CC
:1002A000002070479140C2F1200320FA03F3194364
:1002B00090407047202A04DB203A21FA02F0002106
:1002C000704721FA02F3D040C2F120029140084366
:1002D00019467047064C074D06E0E06840F0010300
:1002E00094E8070098471034AC42F6D3FFF778FF44
:1002F000F421000814220008FEE70000014800F085
:1003000038B80000080100200D4902688A4201D275
:100310000C4901E00B492031D2B21423083AB2FB58
:10032000F3F2436C02F01F0223F0030319448164CB
:1003300004498031C164012191400165704700008A
:1003400008040240000802400179074A02EB8102DA
:100350004265054A4432491E826501F01F020121AF
:100360009140C16570470000FC080240704772B6BA
:10037000FEE7F0B4016C0C6801680D6890F8442049
:1003800002F01F06042202FA06F3234211D06B0783
:100390000FD50B689B0603D40B6823F004030B6096
:1003A00090F8441001F01F018A40016C4A60016B13
:1003B0001DE0022303FA06F727424FF0000C4FF02E
:1003C000010218D0AF0716D50C68A40605D40C6836
:1003D00024F00A040C6080F8252090F8441001F005
:1003E0001F018B40016C4B6080F824C0C16A00295A
:1003F0001AD0F0BC08470823B340234214D02B077F
:1004000012D50B6823F00E030B6090F84410036CB8
:1004100001F01F0102FA01F15960C26380F8252042
:1004200080F824C0416BE2E7F0BC704770B504006F
:100430000CD02B4A21681420914209D2294A0A443F
:10044000B2FBF0F08000606427480AE0012070BD34
:10045000234A52420A44B2FBF0F080006064204814
:1004600008382064022084F825000A6847F6F070F6
:100470008243D4E902031843D4E904352B431843DB
:10048000A3691843E3691843236A184310430860BB
:100490002046FFF739FFA0680025B0F5804F00D156
:1004A0006560A16C20790860D4E91301416060683F
:1004B000401E032808D82046FFF746FF606D056000
:1004C000D4E91601416002E06565A565E565E5636F
:1004D000012084F8250084F82450002070BD00001D
:1004E00008040240F8FFFDBF000002402DE9F04F74
:1004F000DFF82092002301260324A9F1040B85B024
:100500000F2709F1040AABF1040EFAE006FA03F52D
:100510002A407CD091F804C00CF0030CBCF1010F10
:1005200002D0BCF1020F26D1D0F808C0CDF800C02F
:100530004FEA430C04FA0CF8CDF810C0DDF800C007
:100540002CEA080CCDF800C0D1F80C80DDF810C002
:1005500008FA0CF8DDF800C048EA0C08C0F808807A
:10056000D0F804C02CEA050C0D79C5F300159D40A8
:1005700045EA0C0545600D79ED43AD070ED0C56821
:100580004FEA430804FA08FC25EA0C05D1F808C034
:100590000CFA08FC4CEA050CC0F80CC00D7905F00B
:1005A0000305022D16D1DD0800EB850CCDF808C03F
:1005B000DCF820805D074FEAD56C07FA0CF528EAD5
:1005C00005080D6905FA0CF5DDF808C045EA0805CF
:1005D000CCF8205005684FEA430CCDF808C004FA67
:1005E0000CFC25EA0C0591F804C00CF00308DDF8BA
:1005F00008C008FA0CF848EA0508C0F800804D6801
:1006000015F4403F7CD0444DD5F860C000E077E061
:100610004CF0010CC5F860C02D6E23F0030C05F002
:10062000010500953D4D65440295AD684FEA837C18
:100630004FEA1C7807FA08FC25EA0C05B0F1904F48
:1006400006D0DFF8DCC0604505D14FF0010C20E09A
:100650004FF0000C1DE0DFF8CCC0604502D14FF038
:10066000020C16E0DFF8C0C0604502D14FF0030C69
:100670000FE0DFF8B8C0604502D14FF0040C08E08D
:10068000DFF8ACC0604502D14FF0050C01E04FF03F
:10069000060C0CFA08FC4CEA050C029DC5F808C0D3
:1006A000D9F80050CC46D1F8048095435FEAC828B9
:1006B00000D51543CCF80050DAF80050D446D1F8F4
:1006C000048095435FEA882800D51543CCF8005094
:1006D000DBF80050DC46D1F8048095435FEA8838A7
:1006E00000D51543CCF80050DEF80050F446D1F8A0
:1006F000048095435FEAC83800D51543CCF8005014
:100700005B1C0A6832FA03F57FF400AF05B0BDE860
:10071000F08F00000804014000100240000001407A
:100720000004004800080048000C00480010004881
:10073000001400480069084000D001207047000004
:100740000148806870470000180000200248816856
:1007500042681144816070471800002010B50024E1
:10076000032000F073F80F2000F008F808B101240E
:1007700001E000F025F8204610BD000070B50E4ED7
:1007800005460024706898B14FF47A71B1FBF0F01F
:100790000A490968B1FBF0F000F062FD40B9102D84
:1007A00006D200222946501E00F030F8356000E0E5
:1007B0000124204670BD0000180000202400002005
:1007C0000A4882B0016E41F001010166016E01F03C
:1007D00001010091816D41F080518165806D00F0D3
:1007E0008050009002B000F0A1B80000001002405C
:1007F000002809DB00F01F02012191404009800020
:1008000000F1E020C0F8001170470000F0B40E4B7A
:100810001B680C46C3F30223C3F10705042D00D95E
:100820000425191D072901D2002300E0DB1E012643
:1008300006FA05F1491E214099409E40761E164059
:100840003143F0BC01F05EBC0CED00E0064900F065
:10085000070208684FF6FF03184040EA0220034AE7
:1008600010430860704700000CED00E00000FA053E
:100870002B492C4B0A6832214A432B4940B1B0F531
:10088000007F086829D020F4C06040F480602CE02C
:100890000868C0F34120022804D051F8800F20F4EA
:1008A000807022E0D1F8800020F48070C1F88000D0
:1008B000086820F4C06040F400700860B2FBF3F0F8
:1008C000401C00E0401E4A69520501D50028F9D1BC
:1008D000486940050AD503207047C0F3412002282B
:1008E00006D051F8800F40F48070086000207047F7
:1008F000D1F8800040F48070C1F88000086820F4CE
:10090000C06040F400700860B2FBF3F0401C00E0EF
:10091000401E4A695205DBD50028F9D1D8E700000E
:100920002400002040420F0000700040024881680F
:1009300041F4804181607047007000402DE9F84328
:100940000446006800269D4D00035ED5A86D002773
:10095000C00008D4A86D40F08050A865A86D01279C
:1009600000F080500090DFF85892D9F8001041F460
:100970008071C9F80010FFF7E3FE804606E000BF73
:10098000FFF7DEFEA0EB080002282BD8D9F8000004
:10099000C005F5D5D5F8900010F4407014D0216C46
:1009A000814211D0D5F89000D5F8901020F4407015
:1009B00041F48031C5F89010D5F8901021F48031C1
:1009C000C5F89010C5F89000C00711D0FFF7B8FE29
:1009D000804641F2883907E0FFF7B2FEA0EB08013C
:1009E000494501D903260BE0D5F890008007F3D5DF
:1009F000D5F89000216C20F440700843C5F89000B1
:100A00001FB1A86D20F08050A8652078C00707D0DE
:100A1000D5F88800616820F003000843C5F8880015
:100A20002078800707D5D5F88800A16820F00C0051
:100A30000843C5F888002078400707D5D5F8880016
:100A4000E16820F030000843C5F8880020780007EE
:100A500007D5D5F88800216920F0C0000843C5F803
:100A600088002078800607D5D5F88800616920F4D1
:100A700040600843C5F888002078400607D5D5F8BF
:100A80008800A16920F440500843C5F88800207808
:100A9000000607D5D5F88800E16920F440400843F6
:100AA000C5F888002088C00507D5D5F88800216AD8
:100AB00020F440300843C5F888002088800507D519
:100AC000D5F88800616A20F440200843C5F8880002
:100AD000208840050FD5D5F88800A16A20F4401081
:100AE0000843C5F88800A06AB0F5801F03D1E86804
:100AF00040F48010E860208800050FD5D5F8880004
:100B0000E16A20F440000843C5F88800E06AB0F5C7
:100B1000800F03D1E86840F48010E8602088C004AA
:100B20000FD5D5F88800216B20F040700843C5F838
:100B30008800206BB0F1807F03D1E86840F480101A
:100B4000E86020884FF0006180040ED5D5F8880059
:100B5000626B20F040601043C5F88800606B8842EB
:100B600003D1E86840F48010E860208840040ED586
:100B7000D5F88800A26B20F040601043C5F88800CB
:100B8000A06B884203D1E86840F48010E8602088B8
:100B900000040FD5D5F88800E16B20F040500843E1
:100BA000C5F88800E06BB0F1805F03D1E86840F4DD
:100BB0008030E8603046BDE8F88300000010024055
:100BC000007000402DE9F0470E4605004FF0000789
:100BD00025D0DFF8AC81D8F8000000F00F00B0425B
:100BE0000CD2D8F8001021F00F013143C8F80010E2
:100BF000D8F8000000F00F00B04210D12968614C15
:100C0000C80741F2883A5AD06868DFF87C91032817
:100C100008D0022820682DD0400500282CDB0120B8
:100C2000BDE8F08720688001F9D5E06800F0030294
:100C3000E068C0F30310401C032A19D0534A00BFD8
:100C4000B2FBF0F0E268C2F306225043E268C2F35E
:100C50004162521C5200B0FBF2F0484517D9A0681F
:100C600010F0F00F0CD0880711D5A86840B10EE045
:100C7000474AE5E78003D0E700F0B6F8484506D9D3
:100C8000A06820F0F00040F08000A0608027A068FD
:100C9000696820F003000843A060FFF751FD81461A
:100CA00006E000BFFFF74CFDA0EB090151453AD823
:100CB000A068696800F00C00B0EB810FF2D12868E1
:100CC000810714D5400703D5A06840F4E060A06018
:100CD0002878000705D5A06820F4605040F4E06053
:100CE000A060A068A96820F0F000084304E0802F0D
:100CF00003D1A06820F0F000A060D8F800104046B2
:100D000001F00F01B14216D9016821F00F01314302
:100D10000160FFF715FD074607E000BFFFF710FD74
:100D2000C11B514501D903207AE7D8F8000000F033
:100D30000F00B042F2D12878400705D5A068E968D5
:100D400020F4E0600843A0602878000706D5A0687A
:100D5000296920F4605040EAC100A06000F044F826
:100D6000A1680C4AC1F30311515C01F01F01C84096
:100D70000949086009480068BDE8F047FFF7FEBC74
:100D8000002002400010024000B4C4040024F4001B
:100D900000127A00DC210008240000201800002046
:100DA0000548064900688968054AC1F30221515C7B
:100DB00001F01F01C84070472400002000100240CD
:100DC000EC2100080548064900688968054AC1F316
:100DD000C221515C01F01F01C8407047240000206F
:100DE00000100240EC210008184910B58868C0F3D3
:100DF00081021748012A0BD08A684310C2F381028E
:100E0000022A06D08A68C2F38102032A03D0002096
:100E100010BD184610BDCA6802F00304CA68C2F3C8
:100E20000312521C032C02D0B0FBF2F001E0B3FB22
:100E3000F2F0CA68C968C2F306225043C1F34161A7
:100E4000491C4900B0FBF1F010BD00000010024049
:100E50000024F4002DE9F84304007AD02078FA4DFC
:100E6000C00747D0A868E96800F00C0001F0030152
:100E70000C2802D0082817D001E0032914D060689C
:100E8000B0F5803F17D0B0F5A02F286817D020F418
:100E900080302860286820F4802028606068E0B1F5
:100EA000FFF74EFC064614E02868800322D56068F0
:100EB0000028D2D01EE0286840F48030EDE740F4EE
:100EC00080202860F7E700BFFFF73AFC801B64280A
:100ED00070D828688003F7D50CE0FFF731FC064690
:100EE00005E000BFFFF72CFC801B6428F0D82868C1
:100EF0008003F7D4207880074CD5A868E96800F013
:100F00000C0001F003010C2802D004280DD001E0F0
:100F100002290AD0E068002828682BD040F48070AD
:100F20002860FFF70DFC064619E02868400502D549
:100F3000E068002891D06868217C20F0FE4040EAFB
:100F400001606860C1480068FFF718FC002800D104
:100F500020E076E1FFF7F4FB801B0228B8D8286870
:100F60004005F7D56868217C20F0FE4040EA01602A
:100F700068600FE020F480702860FFF7E1FB064610
:100F800005E000BFFFF7DCFB801B0228A0D8286823
:100F90004005F7D42078000729D560690028D5F8E6
:100FA000940013D040F00100C5F89400FFF7C8FB8F
:100FB000064606E090E000BFFFF7C2FB801B022858
:100FC00086D8D5F894008007F6D510E020F001000F
:100FD000C5F89400FFF7B4FB064604E0FFF7B0FB4A
:100FE000801B022878D8D5F894008007F6D42078A2
:100FF000400761D5A86D0026C00008D4A86D40F058
:101000008050A865A86D012600F08050009090489F
:101010000168C90511D40168804641F480710160FE
:10102000FFF78EFB074604E0FFF78AFBC01B022890
:1010300052D8D8F80000C005F6D5A068012815D010
:101040000528D5F8900016D020F00100C5F89000D2
:10105000D5F8900020F00400C5F89000A06841F297
:101060008838B8B1FFF76CFB07460EE0D5F8900062
:1010700040F00100F0E740F00400C5F89000F5E70B
:10108000FFF75EFBC11B414526D8D5F890008007CD
:10109000F6D50CE0FFF754FB074604E0FFF750FBE2
:1010A000C11B414518D8D5F890008007F6D41EB171
:1010B000A86D20F08050A8652078800629D5A06909
:1010C0000028D5F8980013D040F00100C5F898002A
:1010D000FFF736FB064606E077E000BFFFF730FB80
:1010E000801B022877D8D5F898008007F6D510E045
:1010F00020F00100C5F89800FFF722FB064604E047
:10110000FFF71EFB801B022865D8D5F898008007E2
:10111000F6D4E069F0B3A968C1F38101032961D075
:101120000228286820F0807028600BD0E86820F042
:101130000300E860E86847490840E860FFF700FB03
:1011400004464BE0FFF7FCFA064604E0FFF7F8FA26
:10115000801B02283FD828688001F7D4F4E90801F1
:101160006FF00F0202EB01110843218A5204490873
:1011700002EB4151A26841EA02210843217D4FF070
:101180007E42490802EB41610843217B40EAC1608D
:10119000E96800E062E0304A11400843E8602868EE
:1011A00040F080702860E86840F08070E860FFF7E9
:1011B000C7FA044605E000BFFFF7C2FA001B022889
:1011C00009D828688001F7D548E004E0FFF7B8FAAD
:1011D000001B022802D90320BDE8F883286880019B
:1011E000F4D43BE00128F7D0E868226A00F003015C
:1011F000914226D1616A00F0F00209011039914252
:101200001FD1A26A00F4FE41B1EB022F19D194F86C
:101210002C2000F07841B1EBC26F12D1218E00F486
:10122000C00249084905A1F50011914209D194F87D
:10123000341000F0C06049084906A1F100718142F4
:101240000CD00120C8E70000001002401800002068
:1012500000700040FFFFEEFE0C809F010020BBE706
:1012600010B5401EB0F1807F01D3012010BD4FF0BA
:10127000E02460610F21601700F044FF0020A061AE
:1012800007202061002010BD7047704770477047ED
:1012900070477047F0B590F83C20012A3AD00125FC
:1012A00080F83C50022280F83D2003685A689C6810
:1012B000194E1A4FB34201D0BB4204D122F4700C34
:1012C0004A6842EA0C02DFF858C002EA0C02D1F880
:1012D00000C04CEA020CC3F804C00268B2420DD050
:1012E000B2F1804F0AD00F4B9A4207D00E4B9A4270
:1012F00004D0BA4202D00D4B9A4204D1896824F03E
:1013000080031943916080F83D50002180F83C1023
:101310000846F0BD0220F0BD002C01400034014021
:101320008FFFFFFD00040040000800400040014026
:10133000704710B5040003D094F83D0010B107E0E9
:10134000012010BD002084F83C00204600F022F867
:10135000022084F83D00211D206800F01FFC0120C0
:1013600084F8480084F83E0084F83F0084F8400088
:1013700084F8410084F8420084F8430084F8440073
:1013800084F8450084F8460084F8470084F83D005E
:10139000002010BD08B500680B49884212D10B48E7
:1013A000816D41F010018165806D002200F0100018
:1013B000009011463620FFF729FABDE80840362094
:1013C000FFF716BA08BD00000010004000100240F0
:1013D00090F83D10012901D001207047022180F8CA
:1013E0003D100168CA6842F00102CA6000681049F5
:1013F00088420ED0B0F1804F0BD00E49884208D001
:101400000D49884205D00D49884202D00C498842D6
:1014100007D181680B4A1140062906D0B1F5803FFB
:1014200003D0016841F00101016000207047000015
:10143000002C01400004004000080040003401403E
:101440000040014007000100704770B50446006885
:1014500001694FF00005C943890715D4C168C94324
:10146000890711D4E91E0161012020772068806975
:101470008007204602D0FFF7E7FF04E000F0E3F822
:10148000204600F0E1F8257720680169C943490743
:1014900017D4C168C943490713D46FF0040101612F
:1014A000022020772068806910F4407F204602D017
:1014B000FFF7CAFF04E000F0C6F8204600F0C4F8C9
:1014C000257720680169C943090716D4C168C94353
:1014D000090712D46FF00801016104202077206809
:1014E000C0698007204602D0FFF7AEFF04E000F09D
:1014F000AAF8204600F0A8F8257720680169C943BA
:10150000C90617D4C168C943C90613D46FF01001C6
:101510000161082020772068C06910F4407F2046D0
:1015200002D0FFF791FF04E000F08DF8204600F0B4
:101530008BF8257720680169C943C90708D1C168BC
:10154000C943C90704D1891E0161204600F07EF815
:1015500020680169C943090609D4C168C94309065D
:1015600005D46FF0800101612046FFF78EFE2068F0
:101570000169C943C90509D4C168C943090605D42D
:101580006FF4807101612046FFF77EFE20680169DB
:10159000C943490609D4C168C943490605D46FF057
:1015A00040010161204600F0A5F820680169C943A7
:1015B000890609D4C168C943890605D46FF02001A2
:1015C00001612046FFF762FE20680169C943C90234
:1015D00009D4C168C943C90205D46FF480110161FF
:1015E0002046FFF755FE20680169C943890209D4E6
:1015F000C168C943890205D46FF400110161204616
:10160000FFF745FE20680169C943490209D4C16852
:10161000C943490205D46FF4800101612046FFF7F8
:1016200038FE20680169C94309020BD4C168C94367
:10163000090207D46FF4000101612046BDE8704043
:10164000FFF776BE70BD70477047000070B5006848
:101650001E49884238D11E4E01213046FFF76AF8F4
:101660001C4C0025D4E90221921849411043C4E9D9
:10167000020102213046FFF75DF8D4E904219218F7
:1016800049411043C4E9040120780028207A05D09C
:1016900028B9257010A000F02DFD02E000B1012056
:1016A0002070D4E9040121F07F41014303D0617827
:1016B000C0B231B130B96570BDE8704009A000F02A
:1016C00019BD00B10120607070BD00000010004025
:1016D0000004004800000020423120636C69636B05
:1016E0000A0000004232207472696767657265649F
:1016F0000A000000704790F88010012918D00121DD
:1017000080F880102421C0F8841050F8641B0A6807
:101710000B6823F001030B6022F0005100220260ED
:1017200050F8643C1960202101620277104670472E
:101730000220704770B5044690F8800001281DD043
:10174000012084F880002420C4F884002068056803
:10175000026822F0010202602068826822F0606262
:101760000A438260204600F071FA2068056020205C
:10177000C4F88400002084F8800070BD022070BD91
:1017800070B5044690F8800001281DD0012084F82F
:1017900080002420C4F8840020680568026822F0D4
:1017A000010202602068826822F060420A4382607F
:1017B000204600F04BFA206805602020C4F8840021
:1017C000002084F8800070BD022070BD10B50400B8
:1017D00003D0D4F8840010B107E0012010BD002030
:1017E00084F88000204600F027F82420C4F8840004
:1017F0002068016821F001010160204600F0DCFA58
:101800000128EBD0A06A10B1204600F041FA206810
:10181000416821F4904141602068816821F02A01EB
:1018200081602068016841F0010101602046BDE847
:10183000104000F091BA000070B598B0064614212F
:1018400011A8FEF71DFD44216846FEF719FD224947
:10185000306888423ED101200025CDE90005684668
:10186000FFF76CF808B1FEF782FD1C49086E40F4E2
:1018700080400866086E00F480401690C86C40F006
:101880000100C864C86C11A900F0010016904FF463
:10189000C06011900220CDE912050720CDE9145057
:1018A0004FF09040FEF722FE0E4C0D4820601920AC
:1018B00060601020C4E902058020C4E90405A56128
:1018C000E56120462562FEF7B1FD08B1FEF74FFD48
:1018D000B467A66218B070BD003801400010024025
:1018E00008000240080100202DE9F8430446D0F822
:1018F00084001F4616460D46202851D1DDB1D6B1D1
:1019000094F8800001284BD0012084F880004FF02B
:101910000008C4F88C802120C4F884001834FEF735
:101920000FFFA6878146E68754F8100C183CB0F5E7
:10193000805F03D004E00120BDE8F883206920B176
:101940002E46002584F8808010E00026FAE78021EA
:10195000204600F06BFBB8B9C6B116F8010B216840
:101960008862B4F85600401EA4F85600B4F8560039
:101970004B464FF0000200970028E8D14FF040019D
:10198000204600F053FB30B10320D5E735F8020BB9
:10199000C0F30800E3E72020C4F884000020CBE770
:1019A0000220C9E7FEE700000D4808B5816C41F050
:1019B00004018164816C01F004010091816C41F0AB
:1019C00001018164806C002200F00100009011464A
:1019D0000B20FEF71BFFBDE808400B20FEF708BFF9
:1019E0000010024010B586B014216846FEF748FC8E
:1019F0001648C16C41F02001C164C16C01F02001A6
:101A00000591C16C41F00101C164C16C01F001019B
:101A10000591C16C41F00201C164C06C002400F06A
:101A2000020005900120CDE9000469464FF0904086
:101A30000294FEF75BFD0720CDE9000469460448E7
:101A40000294FEF753FD06B010BD000000100240E6
:101A5000000400483EB500241048009401940E494B
:101A60000294016040F23F61C0E9011440F2E731A5
:101A7000C16080218161FFF75CFC08B1FEF777FC53
:101A80000094694605480294FFF704FC002801D041
:101A9000FEF76DFC3EBD0000001000402C00002051
:101AA000184810B5164901604FF4165141600021E5
:101AB00081600C22C160C0E904128161C1610162D0
:101AC00041628162FFF782FE08B1FEF750FC0021FF
:101AD0000C48FFF755FE08B1FEF749FC0021094804
:101AE000FFF728FE08B1FEF742FC0648FFF703FEA9
:101AF000002803D0BDE81040FEF739BC10BD00003F
:101B00000038014078000020FEE7FEE7704770478C
:101B1000FEF71CBE00B593B038216846FEF7B0FB57
:101B200014210EA8FEF7ACFB0020FEF7A1FE022058
:101B3000C1010391402104910121CDE908010090E8
:101B40001421CDE90A1007900C900D906846FFF71C
:101B500081F908B172B6FEE70F200E9003200F90B6
:101B60000020109011904FF48060129004210EA874
:101B7000FFF728F8002801D072B6FEE713B000BDC9
:101B80000248016841F470010160704788ED00E08F
:101B90000148FFF75ABC00002C0000202DE9F0435B
:101BA0000268234B234D244E244C4FF08049984229
:101BB00007D0484505D0A84203D0B04201D0A0428A
:101BC00003D122F070074A683A431D4FDFF874C012
:101BD000DFF8748098420DD048450BD0A84209D058
:101BE000B04207D0A04205D0B84203D0604501D032
:101BF000404503D122F44075CA682A434D6922F05A
:101C000080022A4302608A68C2620A68826298423D
:101C100007D0A04205D0B84203D0604501D040456E
:101C200001D10969016301214161BDE8F083000030
:101C3000002C014000040040000800400034014036
:101C400000400140004401400048014030B5416E71
:101C5000B9B1026891689268C1F342610B4B520FAF
:101C60009C5CE50003F10804A25CB5FBF2F2A0F86D
:101C70006A205A5C615CD200B2FBF1F1A0F86810F6
:101C800030BD0121A0F86A10F8E70000CC2100085F
:101C900090F82810C90706D001684A68C36A22F480
:101CA00000321A434A6090F82810890706D5016867
:101CB0004A68036B22F480321A434A6090F8281075
:101CC000490706D501684A68436B22F480221A430B
:101CD0004A6090F82810090706D501684A68836BA6
:101CE00022F400421A434A6090F82810C90606D52B
:101CF00001688A68C36B22F480521A438A6090F8A4
:101D00002810890606D501688A68036C22F40052FF
:101D10001A438A6090F82810490611D501684A686C
:101D2000436C22F480121A434A60416CB1F5801F63
:101D300006D101684A68836C22F4C0021A434A60E3
:101D400090F82810090606D501684A68C06C22F48C
:101D5000002202434A607047F8B500260446C0F8E6
:101D60008C60FEF7EDFC0546206800686FF07E474A
:101D7000000708D52B4600224FF40011204600979B
:101D800000F054F960B92068006840070AD52B4676
:101D900000224FF480012046009700F047F908B177
:101DA0000320F8BD2020C4F88400C4F8880044F85B
:101DB0006C6F00202675F8BD2DE9F04104460168DE
:101DC00080682269E3691043626900251A43104361
:101DD000DFF82CC20A688B4B1A4002430A60206865
:101DE0004168E26821F44051114341602168A069D3
:101DF000614501D0226A10438A68834B1A4002432E
:101E00008A602068C16A626A21F00F011143C162D1
:101E10007E4923687E488B420DD1D0F8880010F0AF
:101E2000030006D0012855D0022842D003283FD114
:101E300052E001203DE077498B420BD1D0F8880079
:101E400010F00C0035D0042833D0082840D00C28DE
:101E50002ED141E070498B420BD1D0F8880010F0B0
:101E6000300026D0102835D0202831D030281FD17E
:101E700032E06A498B420BD1D0F8880010F0C000E4
:101E800017D0402826D0802822D0C02810D123E0A7
:101E900063450DD1D0F8880010F4406009D0B0F54A
:101EA000806F17D0B0F5006F12D0B0F5406F13D02F
:101EB00010205B495B4F00264FF4004263453BD145
:101EC00060B1022813D004280BD0082872D10DE08D
:101ED0000220EEE70420ECE70820EAE7FEF760FFC7
:101EE00001E0FEF781FF010001D17CE01146606A4C
:101EF00037F810206768B1FBF2F007EB4703834225
:101F000070D8B0EB073F6DD8002308461946FEF79E
:101F10007FF9090241EA1061020278081018714144
:101F20003A460023FEF774F93F4AA0F5407191420A
:101F300058D82168C86056E0E3694FF6EF789342BD
:101F40002CD109284ED2DFE800F00508114D0D4DC7
:101F50004D4D1000FEF724FF01E0FEF733FF0100B6
:101F600004D140E0FEF740FFF9E71146606A37F818
:101F70001000B1FBF0F04100606801EB5001B1FBD3
:101F8000F0F0A0F1100141452CD84FF6F07101405E
:101F9000C0F3420001432068C16024E0092821D237
:101FA000DFE800F0050912200E2020201100FEF7C6
:101FB000F7FE02E016E0FEF705FF010004D112E093
:101FC000FEF712FFF9E71146606A37F81000B1FB1F
:101FD000F0F1606801EB5001B1FBF0F0A0F11001ED
:101FE00041450AD901250120A4F86A0024F8680FA8
:101FF0002846A660E660BDE8F08180B299E700005F
:1020000000800040F369FFCFFFF4FF11003801406A
:10201000001002400044004000480040004C0040D6
:102020000024F400B4210008FFFC0F002DE9F04764
:102030009A4617460E4604464FF000094FF0200816
:10204000089D4AE0681C48D0FEF77AFBA0EB0A0026
:10205000A8422AD84DB32068016849073DD5C06918
:10206000C043000539D421684FF40060086220683D
:1020700050E8001F21F4D07140E80012002AF6D188
:102080002068083050E8001F21F0010140E80012EC
:10209000002AF5D144F8848FC4F80480C4F808807D
:1020A00004F8049C0320BDE8F087216851E8000F84
:1020B00020F4D07041E80002002AF6D120680830F0
:1020C00050E8001F21F0010140E80012002AF5D17C
:1020D00044F8848FC4F80480E2E72068C06936EAD7
:1020E000000004D00020B842ACD00020DBE7012083
:1020F000F9E7FEE7014A024900F023B8652100082C
:10210000280000200907090E002804DB00F1E02068
:1021100080F80014704700F00F0000F1E02080F814
:10212000141D704702E008C8121F08C1002AFAD126
:1021300070477047002001E001C1121F002AFBD147
:1021400070472DE9F04116460F460446002503E08E
:102150003946B047641C6D1C20780028F8D1284609
:10216000BDE8F08113B54FF6FF73012269460248BE
:10217000FFF7BAFB00981CBD78000020FEF7EEFACE
:10218000FFF7C8FCFFF72EFCFFF70EFCFFF788FCFB
:10219000FFF760FC0348FFF71BF903A0FFF7AAFF56
:1021A000FEE700002C000020496E69742063706C0B
:1021B000740A0000010002000400060008000A0082
:1021C0000C0010002000400080000001010101030C
:1021D00007010000080402040801010100000000DA
:1021E00000000000010203040607080900000000C7
:1021F0000102030414220008000000202C0000004B
:1022000024210008402200082C0000203C0500008A
:10221000342100080101000000000000000000005F
:10222000000000000000000000000000100000009E
:1022300001000000000000000024F4000000000085
:04000005080001D915
:00000001FF
