:020000040800F2
:1000000068050020ED010008FF1900089918000894
:10001000FD190008F9020008212000080000000076
:10002000000000000000000000000000031A0008AB
:100030007503000800000000011A0008051A0008F6
:10004000070200080702000807020008070200086C
:10005000070200080702000807020008070200085C
:10006000070200080702000807020008FD02000856
:10007000070200080702000807020008070200083C
:10008000070200080000000007020008070200083D
:10009000070200080702000807020008070200081C
:1000A000070200080702000807020008070200080C
:1000B00007020008070200080702000807020008FC
:1000C00007020008070200080702000807020008EC
:1000D00007020008070200080702000807020008DC
:1000E00007020008070200080702000807020008CC
:1000F00007020008070200080702000800000000CD
:1001000000000000070200080000000007020008CD
:100110000702000800000000911A0008070200080A
:10012000070200080702000807020008070200088B
:10013000070200080000000000000000070200089D
:10014000070200080702000800000000000000008D
:10015000000000000000000000000000000000009F
:10016000000000000000000000000000070200087E
:10017000070200080000000000000000000000006E
:10018000000000000702000800000000000000005E
:10019000000000000000000000000000000000005F
:1001A000000000000000000007020008070200082D
:1001B000070200080702000807020008000000000C
:1001C000000000000702000800000000000000001E
:1001D0000702000807020008DFF80CD000F07AF8E8
:1001E0000048004765200008680500200648804751
:1001F00006480047FEE7FEE7FEE7FEE7FEE7FEE70C
:10020000FEE7FEE7FEE7FEE7811A0008D9010008D5
:100210002DE9F05F0546002092469B46884606463B
:10022000814640241BE0284641464746224600F0CE
:1002300041F853465A46C01A914110D31146184608
:10024000224600F028F82D1A67EB01084F46224697
:100250000120002100F01FF817EB00094E41201E7D
:10026000A4F10104DFDC484631462A464346BDE896
:10027000F09FD2B201E000F8012B491EFBD270477B
:100280000022F6E710B513460A4604461946FFF762
:10029000F0FF204610BD202A04DB203A00FA02F1CC
:1002A000002070479140C2F1200320FA03F3194364
:1002B00090407047202A04DB203A21FA02F0002106
:1002C000704721FA02F3D040C2F120029140084366
:1002D00019467047064C074D06E0E06840F0010300
:1002E00094E8070098471034AC42F6D3FFF778FF44
:1002F0002021000840210008FEE70000014800F02E
:100300003EB800BF2800002010B5104C04F1800258
:10031000A4F57E712034C2640268436C8A4223F0E3
:1003200003013CBF40F60004C4F20204214481648E
:100330006FF0070151FA82F11422B1FBF2F10122B0
:1003400001F01F0102FA01F1016510BD0008024031
:10035000037907490122013B01F1400C01EB8301C4
:1003600003F01F039A40C0E9151CC265704700BF27
:10037000000902407047EFF3108072B6FEE7B0B597
:10038000D0E910C4DCF80010026804F01F0E1368F6
:100390005C0710D5042404FA0EF414EA01050AD00F
:1003A000116889065EBF116821F004011160CCF864
:1003B0000440016B30E09C0716D5022404FA0EF4C9
:1003C00014EA010510D01168890606D4116821F0DD
:1003D0000A011160012180F825100021CCF80440A9
:1003E00080F82410C16A17E01B0719D5082303FA07
:1003F0000EF3194008BFB0BD116821F00E01116065
:10040000012101FA0EF2CCF804200022C16380F829
:10041000242080F82510416B11B1BDE8B040084799
:10042000B0BD000000284AD0F8B5044602202B4990
:10043000142384F8250004F11807206801F108024C
:100440009042274A38BFA1F5806138BF02F580622B
:100450000244B2FBF3F29200C4E9101247F6F072C4
:10046000016821EA020CD4E90223D4E9041EE0CF9A
:1004700042EA0C021A43114341EA0E012943314377
:10048000394301602046FFF73FFFA068B0F5804F79
:1004900006BF002060606068C2B2A16C013803280A
:1004A0000A60D4E913124A600BD82046FFF750FFC8
:1004B000606D00210160D4E91601416005E0012072
:1004C00070470020C4E91500E06500200121E063C9
:1004D00084F8240084F82510F8BD00BF0004024011
:1004E000F8FBFDBF2DE9FC4F604A06274FF0000BDB
:1004F0004FF001094FF00008904200F1384208BF68
:1005000005274FEAB223052B38BF4FEAB227002256
:1005100000970C6834FA02F308BFBDE8FC8F09FAB3
:1005200002F314EA030A00F09B804E6806F003040D
:10053000671E012F1ED80327D0F808C0D1F80CE0A1
:1005400007FA08F90EFA08F72CEA090C4FEA420EEE
:1005500047EA0C078760C6F3001707FA02FC4768F2
:1005600027EA030343EA0C036FEA090C4FF0010981
:1005700043600AE00323032CC64603FA08F36FEA3C
:10058000030C02D1C64603241EE0C3688F68022C08
:1005900003EA0C0307FA0EF743EA0703C36013D11B
:1005A0006FF003050BF01C030F2405EA52069C4074
:1005B0000644376A27EA04040F6907FA03F3234362
:1005C00033624E6806F00304076804FA0EF316F46B
:1005D000403F07EA0C0743EA0703036040D0264B7D
:1005E000234D264C0BF00C061F461B68A44643F017
:1005F00001033B603B6803F00103019322F0030316
:10060000019F2B441F590F24B440A743009C04FAB8
:1006100006F6374343F80C70AB684E6843EA0A07A6
:10062000F40258BF23EA0A07124BAF60B4029C469B
:100630001B6843EA0A0758BF23EA0A07CCF8007090
:10064000B4036B6843EA0A0758BF23EA0A076F60DE
:10065000F6032B6843EA0A0758BF23EA0A072F600C
:100660000BF1040B08F10208013252E700140048B4
:10067000000401400C0401406010024008FCFFFF30
:100680000069084018BF0120704700000548006855
:10069000704700BF1B48034940680A68104408605F
:1006A000704700BF6401002080B5032000F072F89D
:1006B0000F2000F007F808B1012080BD00F024F8F9
:1006C000002080BD70B50F4E04467068B0B14FF485
:1006D0007A71B1FBF0F060490968B1FBF0F000F00D
:1006E00041FD01250F2C0AD848B94FF0FF302146B3
:1006F0000022002500F030F8346000E00125284693
:1007000070BD00BF0800002082B00B48816841F036
:1007100001018160816801F0010101910199016885
:1007200041F080510160006800F080500090009816
:1007300002B000F095B800BF58100240002808DB56
:1007400000F01F010122400902FA01F1014A42F8BA
:100750002010704700E100E080B5144B1B68C3F324
:10076000022CBCF1030E8CF007034FF0FF3C38BFA6
:100770004FF0000E042B28BF04230CFA03F3994317
:100780000CFA0EF301FA0EF19A431143BDE88040D2
:1007900001F048BC05494FF6FF030A681A4060F3B0
:1007A0000A22034810430860704700BF0CED00E0C8
:1007B0000000FA0520B3B949B0F5007F0A6845D1B9
:1007C000D1F8800040F48070C1F8800002F4C0606D
:1007D000B0F5806F3ED10868012262F34A203222D0
:1007E00008601D48006850431C4AB0FBF2F0C0434B
:1007F0004A6918B1013012F48062F9D1486920E0E9
:10080000A6480168D0F8802001F4C06122F480720B
:10081000B1F5806FC0F880201CD10168012262F31D
:100820004A21322201600C49096851430B4AB1FB4D
:10083000F2F1C943426919B1013112F48062F9D170
:100840004069400544BF0320704703E0022060F385
:100850004A220A60002070471000002040420F002A
:100860000248016841F4804101607047087000400F
:100870002DE9FC4104468078874E000701D4002012
:100880005DE0F06CC0000BD4F06C4FF0010840F05C
:100890008050F064F06C00F080500190019801E00D
:1008A0004FF000087D4F386840F480703860FFF7E3
:1008B000EDFE05463868C00506D4FFF7E7FE401B8D
:1008C0000228F7D9032033E0D6F8840010F44070F2
:1008D00025D0216C884211D0D6F88400D6F8841037
:1008E00041F4803120F44070C6F88410D6F88410AA
:1008F00021F48031C6F88410C6F88400C0070ED0F9
:10090000FFF7C4FE054641F28837D6F88400800719
:1009100005D4FFF7BBFE401BB842F6D9D2E7D6F8A4
:100920008400216C20F440700843C6F88400002045
:10093000B8F1000F1EBFF16C21F08051F164216805
:10094000CA0705D0F26F636822F003021A43F26708
:100950008A0705D5F26FA36822F00C021A43F267EA
:100960004A0705D5F26FE36822F030021A43F267B6
:100970000A0705D5F26F236922F0C0021A43F26715
:100980008A0605D5F26F636922F440621A43F26762
:100990004A0605D5F26FA36922F440521A43F26762
:1009A0000A0605D5F26FE36922F440421A43F26762
:1009B000CA0505D5F26F236A22F440321A43F26762
:1009C0008A0505D5F26F636A22F440221A43F26762
:1009D0004A050DD5F26FA36A22F44012B3F5801FC9
:1009E00042EA0302F26702BF326842F480123260C8
:1009F0000A050DD5F26FE36A22F44002B3F5800FC9
:100A000042EA0302F26702BF326842F480123260A7
:100A1000CA040DD5F26F236B22F04072B3F1807FD0
:100A200042EA0302F26702BF326842F48012326087
:100A30008A040DD5F26F636B22F04062B3F1006F50
:100A400042EA0302F26702BF326842F48012326067
:100A50004A040DD5F26FA36B22F04062B3F1006F30
:100A600042EA0302F26702BF326842F48012326047
:100A700009040DD5F16FE26B21F04051B2F1805FB6
:100A800041EA0201F16702BF316841F4803131600F
:100A900002B0BDE8F08100BF0C10024000700040C1
:100AA0002DE9F047002854D0724B04460D461868D3
:100AB00000F00F00884209D2186820F00F00284388
:100AC0001860186800F00F00A84242D12068934EC9
:100AD0009A46C107B14602D14FF000086BE0616849
:100AE000032930D156F8081C890132D57168726823
:100AF00073687768B4460226C7F3416701F00301C3
:100B000006EB4707864E032904BF41F20026C0F2D8
:100B10007A06C2F30311C3F306220131B6FBF1F1E9
:100B20005143554AB1FBF7F1914224D9DCF800104A
:100B3000664611F0F00F16D0800701D5A06890B17D
:100B40004FF000081AE056F8080C022904D180037F
:100B500004D40120BDE8F0874005FAD500F0AEF8D6
:100B600045498842ECD9306808214FF0800861F38C
:100B70000710306002E04FF0000866463068616898
:100B800020F0030008433060FFF780FD064641F285
:100B900088374846D9F80000616800F00C00B0EBD7
:100BA000810F05D0FFF772FD801BB842F1D939E003
:100BB00020684E465346810706D4B8F1800F16D1FF
:100BC000316821F0F00111E0410742BF316841F482
:100BD000E0613160010704D53168072262F30D211D
:100BE00031603168A26821F0F00111433160196869
:100BF00001F00F01A9421AD9186820F00F0028430C
:100C00001860FFF743FD064641F288375046DAF890
:100C1000000000F00F00A84207D0FFF737FD801B4F
:100C2000B842F3D90320BDE8F08720684E4641075B
:100C300005D53168E26821F4E061114331600007B5
:100C400006D53068216920F4605040EAC100306068
:100C500000F034F83168094AC1F30311515C01F026
:100C60001F01C8401349086005480068BDE8F04707
:100C7000FFF728BD0020024000B4C404E0200008B3
:100C8000080000200B4825490B4A00680968C1F399
:100C90000221515C01F01F01C840704705481F49FF
:100CA000054A00680968C1F3C221515C01F01F01C7
:100CB000C840704710000020F02000081749184A6B
:100CC000086800F00C000428104608BF7047086848
:100CD00000F00C031348082B1ED00B6803F00C0324
:100CE0000C2B1CBF002070474B6803F00303032B41
:100CF00008BF02464868C0F303100130B2FBF0F0B1
:100D00004A68C2F30622496850430222C1F3416196
:100D100002EB4101B0FBF1F0704700BF0810024048
:100D20000024F40000127A002DE9FC41002800F0B4
:100D3000AA8104460078DF4EC0071ED120788007C4
:100D400047D42078000740F19A806169D6F8940072
:100D5000002900F0838040F00100C6F89400FFF7FE
:100D600095FC0546D6F89400800700F18880FFF7CF
:100D70008DFC401B0228F5D9C9E0B168F06801F08C
:100D80000C0108294BD0032281F00C0122EA00005B
:100D90000844B0FA80F0400941D16768B7F5803F58
:100DA00007D03068B7F5A02F40F0CC8040F4802009
:100DB0003060306840F480303060FFF767FC0546F3
:100DC00030688003BAD4FFF761FC401B6428F7D970
:100DD0009DE0B068F16800F00C00042828D001F014
:100DE000030180F00C0081F002010844B0FA80F0A9
:100DF00040091DD1E1683068002900F08A8040F484
:100E000080703060FFF742FC05463068400500F115
:100E10009180FFF73BFC401B0228F6D977E0306851
:100E200080037FF58BAF606800287FF487AF2AE1ED
:100E30003068400503D5E068002800F02481706820
:100E4000216920F0FE4040EA01607060C0480068FF
:100E5000FFF738FC002840F0168172E720F001000F
:100E6000C6F89400FFF712FC0546D6F894008007F8
:100E700005D5FFF70BFC401B0228F6D947E0207888
:100E8000400740F19A80B06DC0000BD4B06D4FF0B8
:100E9000010840F08050B065B06D00F080500190C6
:100EA000019801E04FF00008AA4F3868C0050FD440
:100EB000386840F480703860FFF7E8FB0546386812
:100EC000C00505D4FFF7E2FB401B0228F7D91EE05E
:100ED000A768012F07D0D6F89000052F4AD140F01F
:100EE0000400C6F89000D6F8900040F00100C6F863
:100EF0009000FFF7CBFB054641F28837D6F890000B
:100F0000800753D4FFF7C2FB401BB842F6D9032039
:100F1000BAE020F480703060FFF7B8FB0546306817
:100F200040057FF50EAFFFF7B1FB411B03200229FF
:100F3000F5D9A9E07068216920F0FE4040EA01601F
:100F40007060FEE620F480303060306820F480204D
:100F50003060FFF79BFB0546002F7FF431AF306810
:100F600080037FF5EBAEFFF791FB411B0320642963
:100F7000F5D989E020F00100C6F89000D6F890007D
:100F800020F00400C6F89000FFF780FB0546002F14
:100F9000B2D141F28837D6F89000800706D5FFF726
:100FA00075FB411B0320B942F5D96DE0B8F1000F84
:100FB0001EBFB06D20F08050B0652078800627D528
:100FC000A169D6F8980089B140F00100C6F89800F0
:100FD000FFF75CFB0546D6F89800800718D4FFF7AA
:100FE00055FB411B03200229F5D94DE020F00100FB
:100FF000C6F89800FFF74AFB0546D6F89800800728
:1010000006D5FFF743FB411B03200229F5D93BE03E
:10101000E069002800F09A80B16801F00C010C2909
:1010200035D101282FD0F068216A00F003028A42EE
:1010300029D1616A6FF00F0202EB011100F0F0029A
:101040008A4220D1A16A00F4FE42B2EB012F1AD1EC
:10105000E16A00F07842B2EBC16F14D1216B404AD3
:1010600002EA015100F4C002A1F500118A420AD13E
:10107000616B4FF07E4200F0C06002EA016101F155
:101080007E41884262D0012002B0BDE8F081316823
:10109000022821F0807131600ED1FFF7F7FA054682
:1010A000306880011DD5FFF7F1FA411B03200229AA
:1010B000F6D9E9E700100240F068274920F0030064
:1010C000F060F0680840F060FFF7E0FA044630682E
:1010D00080013BD5FFF7DAFA011B03200229F6D97C
:1010E000D2E704F12007F0686FF00F058ECF05EB13
:1010F00002121A4D28400843216B1043184A40EA57
:10110000032002EA01514FF07E42A1F5001108438D
:10111000616B40EAC76002EA016101F17E41084368
:10112000F060306840F080703060F06840F08070AF
:10113000F060FFF7ABFA04463068800106D4FFF791
:10114000A5FA011B03200229F6D99DE700209BE7A1
:101150000800002000700040FFFFEEFE0C809F01A1
:101160000000E0FF411E0020B0EB116F1CBF01200A
:101170007047044AF023516003490B7007219060C7
:101180001160704710E000E023ED00E07047704709
:10119000704770477047704790F83C300222012B2F
:1011A00037D070B580F83D2001225F4D80F83C209B
:1011B000026854689368AA4202D0594EB24203D1E1
:1011C0004E6824F470043443134EB2F1804F06EAA3
:1011D00004060C6846EA040656600DD04E4CA24246
:1011E0000AD04E4CA24207D04D4CA24204D04D4CE6
:1011F000A24201D0AA4204D1896823F08003194396
:1012000091600022012180F83C2080F83D10BDE86B
:1012100070401046704700BF8FFFFFFD704760B3FE
:1012200010B5044690F83D0028B9002084F83C0031
:10123000204600F025F80220211D84F83D0020689A
:1012400000F02CFC012084F8480084F83E0084F86B
:101250003F0084F8400084F8410084F8420084F89C
:10126000430084F8440084F8450084F8460084F87C
:10127000470084F83D00002010BD012070470000A9
:101280000068D149884218BF7047E0B5094800227C
:10129000016841F0100101600021006800F01000B9
:1012A000019001983620FFF757FA3620BDE88C40B0
:1012B000FFF744BA5810024090F83D1001291CBFB6
:1012C00001207047022180F83D100168C868B1F123
:1012D000804F40F00100C8600ED00F4881420BD013
:1012E0000E48814208D00E48814205D00D48814207
:1012F00002D00D48814209D188680C4A0240002082
:10130000062A08D0B2F5803F08BF7047086840F051
:101310000100086000207047000400400008004001
:10132000002C014000400140003401400700010052
:10133000704710B5044600680169890744BFC16859
:101340005FEA81715BD40169490744BFC1685FEA04
:10135000417160D40169090744BFC1685FEA017146
:1013600066D40169C90644BFC1685FEAC1616BD434
:101370000169C9071CBFC1685FEAC17171D1016908
:10138000090644BFC1685FEA016172D40169C905F9
:1013900044BFC1685FEA016173D40169490644BF73
:1013A000C1685FEA416174D40169890644BFC168BC
:1013B0005FEA816175D40169C90244BFC1685FEA0F
:1013C000C12176D40169890244BFC1685FEA8121E5
:1013D00077D40169490244BFC1685FEA412178D4EA
:1013E0000169090246BFC1685FEA012110BD6FF4BF
:1013F000000101612046BDE81040FFF70FBF6FF00C
:1014000002010161012121778069800769D02046AE
:10141000FFF78EFF6BE06FF004010161022121777D
:10142000806910F4407F66D02046FFF781FF68E0B6
:101430006FF00801016104212177C069800764D041
:101440002046FFF775FF66E06FF01001016108218B
:101450002177C06910F4407F61D02046FFF768FF14
:1014600063E06FF001010161204600F065F820683B
:1014700085E76FF0800101612046FFF788FE206854
:1014800084E76FF4807101612046FFF77FFE2068DA
:1014900083E76FF040010161204600F0ABF820685F
:1014A00082E76FF0200101612046FFF771FE20689E
:1014B00081E76FF4801101612046FFF76BFE206821
:1014C00080E76FF4001101612046FFF762FE20689B
:1014D0007FE76FF4800101612046FFF75CFE206822
:1014E0007EE7204600F025F8204600F023F8002093
:1014F0002077206827E7204600F01BF8204600F000
:1015000019F800202077206824E7204600F011F821
:10151000204600F00FF800202077206821E72046C1
:1015200000F007F8204600F005F80020207720683A
:101530001EE7704770470000F8B5006822498842EE
:1015400018BFF8BD214D224C0121D5E90067204686
:10155000FFF796F8790040EA460041EAD671C5E9FE
:1015600000010221D5E90270400040EAD77620460A
:10157000FFF786F8174C40EA4700C5E902062278D3
:10158000297842B139B90020207013A000F096FDEF
:10159000D5E9020603E0002918BF0121217026F0D9
:1015A0007F41014303D0C0B240B9617831B100201E
:1015B00060700CA0BDE8F84000F080BD002818BFA6
:1015C00001206070F8BD00BF00100040180000202E
:1015D0000004004804000020423120636C69636B02
:1015E00000000000423220747269676765726564AA
:1015F00000000000704790F88010012901D10221FD
:1016000012E02421C0F8841002681368116821F0E8
:10161000010123F000531160002141661360202274
:1016200080F88010C0F8842008467047B0B50446A2
:1016300090F88000012804BF0220B0BD2420C4F827
:101640008400012084F8800020680568026822F088
:1016500001020260826822F06062114381602046CC
:1016600000F092FA206820210560002084F88000B4
:10167000C4F88410B0BDB0B5044690F880000128CD
:1016800004BF0220B0BD2420C4F88400012084F8E7
:10169000800020680568026822F00102026082680A
:1016A00022F0604211438160204600F06DFA20680C
:1016B00020210560002084F88000C4F88410B0BDAB
:1016C00010B5B0B10446D0F8840028B9002084F8E1
:1016D0008000204600F026F82420C4F8840020680A
:1016E000016821F001010160204600F013FB012890
:1016F00001D1012010BDA06A10B1204600F06EFAA1
:101700002068416821F490414160816821F02A01FC
:101710008160016841F0010101602046BDE8104090
:1017200000F0C5BA70B598B0044613A81421FEF7AE
:10173000A7FD02A84421FEF7A3FD2068AE49884218
:1017400040D1002601200396029002A8FFF790F8EE
:1017500008B1FEF710FE7C48416941F480414161C7
:10176000416901F4804101910199016841F0010151
:10177000016013A9006800F00100019001980720A2
:1017800017900220CDE9156614904FF4C0601390B5
:101790004FF09040FEF7A6FE0B4D0C4B8020102121
:1017A00019222E62C5E90032C5E90216C5E9040610
:1017B0002846C5E90666FEF735FE08B1FEF7DBFDF3
:1017C000A567AC6218B070BD280000200800024078
:1017D0002DE9FC470446D0F88400202808D10D46A6
:1017E000012031B1164622B194F88000012803D1BE
:1017F000022002B0BDE8F0874FF0000A01209946B0
:10180000C4F88CA084F880002120C4F88400FEF77E
:101810003DFFA4F85660A4F854608046A068B0F577
:10182000805F06D127690026002F0CBF2E462F4669
:1018300001E02F46002684F880A019E02046802190
:1018400000224346CDF8009000F080FBE8B91FB1BC
:1018500017F8011B206805E036F8021B20680027F6
:101860006FF35F218162B4F856000138A4F8560086
:10187000B4F856000028E1D120464021002243461A
:10188000CDF8009000F062FB08B10320B1E7202002
:10189000C4F884000020ACE7FEE70000E0B50E4885
:1018A0000022016841F004010160016801F00401B7
:1018B00001910199016841F0010101600021006876
:1018C00000F00100009000980B20FEF745FF0B2070
:1018D000BDE88C40FEF732BF48100240B0B586B07C
:1018E0000025194801ACCDE90455016841F02001FB
:1018F0000160016801F0200100910099016841F048
:1019000001010160016801F0010100910099016885
:1019100041F0020101602146006800F002000090E1
:101920000098CDE90255012001904FF09040FEF75C
:10193000D9FD0720CDE90255214601900348FEF765
:10194000D1FD06B0B0BD00BF4C10024000040048FD
:101950001FB5514880210E4B002440F23F62816147
:1019600040F2E731C0E90032C0E902410394CDE919
:101970000144FFF754FC08B1FEF7FDFC464801A9FD
:1019800003940194FFF708FC08B1FEF7F4FC1FBDB7
:101990000010004010B5174C174B4FF416520C2096
:1019A0000021C4E90032C4E90211C4E9041004F1C1
:1019B00018001421FEF764FC2046FFF781FE08B1F1
:1019C000FEF7D9FC0B480021FFF755FE08B1FEF7E2
:1019D000D2FC08480021FFF729FE08B1FEF7CBFC36
:1019E0000448FFF708FE002814BFBDE8104010BDF2
:1019F000FEF7C1BCD400002000380140FEE7FEE73E
:101A000070477047FEF746BE70B594B006AC18211B
:101A1000201DFEF735FC01A814211426FEF730FC2A
:101A200000200025FEF7C6FE02200121CDE91200AC
:101A3000CDE910600F914021CDE90D000A914FF4DE
:101A40008071099106902046FFF76EF918B1EFF307
:101A5000108072B6FEE74FF48060042105900320E9
:101A6000CDE9035502900F20019001A8FFF718F867
:101A700018B1EFF3108072B6FEE714B070BD00002D
:101A80000248016841F470010160704788ED00E090
:101A90000148FFF74EBC00BF88000020B0B50368C6
:101AA000324DB0F1804F0AD0314A904207D0314ACE
:101AB000904204D0304A904201D0A84238D105F576
:101AC000C0544A6823F07003041BB4FA84F413432F
:101AD00005F5E0524FEA541E05F5A054821A041B86
:101AE000B2FA82F2B4FA84F452094FEA541CCC6878
:101AF00023F4407323434C6923F08003002A43EA14
:101B0000040303608B68C3620B6883620BD1BEF170
:101B1000000F08D1A84206D005F50062904202D01D
:101B2000BCF1000F01D00969016301214161B0BD21
:101B300005F5C05405F5E052041B821AB4FA84F48A
:101B4000B2FA82F24FEA541E05F5A0545209041B62
:101B5000B4FA84F44FEA541C084CA042C7D0084C95
:101B6000A042C4D0074CA042C1D0C4E7002C014021
:101B700000040040000800400034014000400140E3
:101B80000048014000440140416ED9B180B502686F
:101B9000DFF840C0DFF840E09168C1F3426192682D
:101BA0001CF801301EF80110520FC900B1FBF3F10F
:101BB0001CF802301EF80220D200B2FBF3F2BDE89E
:101BC000804001E001220121A0F86810A0F86A20FD
:101BD000704700BF1821000810210008816ACA0759
:101BE00008D002685368D0F82CC023F4003343EACD
:101BF0000C0353608A0708D502685368D0F830C0D8
:101C000023F4803343EA0C0353604A0708D5026883
:101C10005368D0F834C023F4802343EA0C035360A4
:101C20000A0708D502685368D0F838C023F4004387
:101C300043EA0C035360CA0608D502689368D0F8DB
:101C40003CC023F4805343EA0C0393608A0608D512
:101C500002689368D0F840C023F4005343EA0C03B1
:101C6000936080B54A0615D5D0F800E0DEF804C0D0
:101C7000436C2CF48012B3F5801F42EA0302CEF8C5
:101C8000042007D1DEF80420836C22F4C0021A433A
:101C9000CEF804200906BDE8804058BF70470168AF
:101CA0004A68C06C22F40022104348607047BCB5FB
:101CB00004460020C4F88C00FEF7E8FC05462068C6
:101CC000016809070BD56FF07E404FF40011002228
:101CD0002B460090204600F039F970B92068006862
:101CE00040070CD56FF07E404FF4800100222B4658
:101CF0000090204600F02AF908B1032008E02020D7
:101D0000C4F88400C4F88800002084F88000E066ED
:101D100002B0B0BDF8B5044603688068784D794ECE
:101D2000D4E90412B34240EA0100E16940EA02004A
:101D30001A6840EA010002EA0502734D40EA020017
:101D400018605868E26820F4405040EA0200586089
:101D5000A0691CBF226A10439A682A406C4D104348
:101D60009860AB42D86A626A20F00F0040EA020035
:101D7000D862664812D0674DAB4211D0664DAB4277
:101D800010D0B34210D0654DAB4217D1644B69A659
:101D90001B6803F0030356F8235012E0022504E009
:101DA000042502E0062500E00A255D4F3F68EF406C
:101DB0005CA507F0030755F8275000E01025B34253
:101DC0001ED0B1F5004F0DD10121082D00F28E80FB
:101DD000DFE805F005242F8C278C8C8C2D00FEF776
:101DE00051FF20E00121082D00F28080DFE805F09E
:101DF0000539437E3C7E7E7E4100FEF743FF35E0A1
:101E00000121082D00F27280DFE805F005704F70A7
:101E1000487070704D00FEF735FF41E0FEF73EFF61
:101E200001E0FEF74BFF00285DD0626A01E04FF44D
:101E30000040444931F81210B0FBF1F061684A08E3
:101E400002EB40004FF6EF72B0FBF1F0A0F1100191
:101E500091424AD84FF6F0710140C0F34200084465
:101E60003FE0FEF71BFF01E0FEF728FFD8B3626AF0
:101E700001E04FF40040334931F812104FF6EF7291
:101E8000B0FBF1F0616800EB5100B0FBF1F0A0F1A4
:101E90001001914229D8216880B223E0FEF70EFF9D
:101EA00008B3626A01E04FF40040264931F812108D
:101EB0006268B0FBF1F002EB42030121984215D3B6
:101EC0001303984212D8010E0002002310EB5200B7
:101ED00041F10001FEF79CF91B4AA0F540719142C7
:101EE00003D82168C860002100E001210020C4E976
:101EF0001C004FF00110A066084601B0F0BD00BF05
:101F0000F369FFCF00800040FFF4FF110024F400CC
:101F10000044004000480040004C004000380140B0
:101F200088100240000000000400000002000000D1
:101F30000800000001000000040000000200000092
:101F400008000000F8200008FFFC0F002DE9F8430E
:101F5000DDF8209004460068984616460F4609F1C1
:101F60000105C1693940C91BB1FA81F14909B14282
:101F700016D1002DF5D0FEF789FBB9F1000F13D073
:101F8000A0EB080048450FD820680168490744BF06
:101F9000C1695FEA0151E4D54FF4006101621EE0BE
:101FA000002001B0BDE8F083206850E8000F2168F0
:101FB00020F4D07041E80002002AF5D1206850E8F2
:101FC000020F216820F0010041E80202002AF5D149
:101FD0002020C4F8840004F188001AE0206850E84A
:101FE000000F216820F4D07041E80002002AF5D1EA
:101FF000206850E8020F216820F0010041E8020249
:10200000002AF5D12020C4F88400C4F8880004F127
:102010008C0020210160002084F880000320C0E7AC
:10202000FEE7000010B5074C00F00F03044AB0F1C2
:10203000FF3F2344C8BF83180801187010BD00BFBC
:1020400000E400E014ED00E0E0B50190044801A9CF
:1020500001224FF6FF73FFF7BBFB019802B080BD72
:10206000D4000020FEF720FBFFF7CEFCFFF736FC84
:10207000FFF714FCFFF78EFCFFF76AFC0348FFF73D
:102080001BF903A000F01AF8FEE700BF880000204B
:10209000496E69742063706C7400000002E008C827
:1020A000121F08C1002AFAD170477047002001E0D2
:1020B00001C1121F002AFBD17047000010B5044671
:1020C00001E0FFF7C1FF14F8010B04490028F8D123
:1020D000BDE810400A20FFF7B7BF00000000002055
:1020E00000000000000000000102030406070809C8
:1020F00000000000010203040100020004000600C9
:1021000008000A000C0010002000400080000001C0
:102110000101010307010000080402040801010194
:102120004021000800000020180000009C2000084A
:10213000582100081800002050050000AC200008BD
:10214000000000000101000010000000010000007C
:082150000024F400000000006F
:04000005080001D915
:00000001FF
