:020000040800F2
:10000000F8070020ED010008CF310008292B000877
:10001000CD310008E1090008753A00080000000031
:10002000000000000000000000000000593400083B
:10003000A70A000800000000D13100085B34000866
:10004000070200080702000807020008070200086C
:10005000070200080702000807020008070200085C
:10006000070200080702000807020008E509000867
:10007000070200080702000807020008070200083C
:1000800007020008000000007D08000807020008C1
:10009000070200080702000807020008070200081C
:1000A000070200080702000807020008070200080C
:1000B00007020008070200080702000807020008FC
:1000C00007020008070200080702000807020008EC
:1000D00007020008070200080702000807020008DC
:1000E00007020008070200080702000807020008CC
:1000F00007020008070200080702000800000000CD
:1001000000000000070200080000000007020008CD
:100110000702000800000000E5340008070200089C
:10012000070200080702000807020008070200088B
:10013000070200080000000000000000070200089D
:10014000070200080702000800000000000000008D
:10015000000000000000000000000000000000009F
:10016000000000000000000000000000070200087E
:10017000070200080000000000000000000000006E
:10018000000000000702000800000000000000005E
:10019000000000000000000000000000000000005F
:1001A000000000000000000007020008070200082D
:1001B0000702000807020008F1090008000000001B
:1001C000000000000702000800000000000000001E
:1001D0000702000807020008DFF80CD000F02AFB35
:1001E00000480047013B0008F80700200648804708
:1001F00006480047FEE7FEE7FEE7FEE7FEE7FEE70C
:10020000FEE7FEE7FEE7FEE7D5340008D901000867
:100210002DE9F05F0546002092469B46884606463B
:10022000814640241BE0284641464746224600F0CE
:1002300013F953465A46C01A914110D31146184635
:10024000224600F0FAF82D1A67EB01084F462246C5
:100250000120002100F0F1F817EB00094E41201EAB
:10026000A4F10104DFDC484631462A464346BDE896
:10027000F09FD2B201E000F8012B491EFBD270477B
:100280000022F6E710B513460A4604461946FFF762
:10029000F0FF204610BD2DE9F04D81EA030404F083
:1002A000004B21F0004514464FF0000A23F00041B6
:1002B00050EA050220D054EA01021DD0C5F30A57C6
:1002C0000246C5F31303C1F31300C1F30A5640F409
:1002D000801543F48013A7EB0608101BD64608F2DE
:1002E000FD3873EB050002D308F1010801E0921814
:1002F0005B41B8F1000F03DA00200146BDE8F08D44
:1003000000204FF48011064684460EE0171B73EB65
:10031000050705D3121B63EB050306434CEA010CEA
:1003200049084FEA300092185B4150EA0107EDD1CD
:1003300052EA030012D082EA040083EA050108436E
:1003400005D0101BAB4106D20122002306E000229B
:100350004FF0004302E06FF0010253101AEB060069
:100360004CEB085110EB0A0041EB0B01BDE8F04DDE
:1003700000F0B9B80EB5C10F80EAE0700844CA07B2
:10038000002140F233438DE80E000A460B4600F090
:10039000B9F803B000BD0EB540F23341029100211F
:1003A000CDE900110A460B4600F0ACF803B000BDE1
:1003B00000F0004230F000400AD0C10D01F560713C
:1003C000C0F3160042EA0151C208400711437047CA
:1003D00000200146704701F0004330B421F0004195
:1003E00050EA010206D00A0DA2F56072C1F31301B2
:1003F000002A02DC30BC00207047440F44EAC104EC
:10040000C100E01830BC00EBC25000F035B830B588
:100410000B46014600202022012409E021FA02F5C2
:100420009D4205D303FA02F5491B04FA02F528445C
:10043000151EA2F10102F1DC30BD202A04DB203AB6
:1004400000FA02F1002070479140C2F1200320FA27
:1004500003F3194390407047202A04DB203A21FA25
:1004600002F00021704721FA02F3D040C2F12002CD
:1004700091400843194670470029A8BF7047401CA7
:10048000490008BF20F00100704710B4B0FA80FCAA
:1004900000FA0CF050EA010404BF10BC704749B1E7
:1004A000CCF1200421FA04F411FA0CF118BF012157
:1004B00021430843A3EB0C01CB1D4FEA00614FEA37
:1004C000102042BF002010BC704700EBC350104406
:1004D0000029A4BF10BC7047401C490008BF20F091
:1004E000010010BC704710B5141E73F1000408DA47
:1004F000401C41F1000192185B411A4301D120F0E8
:10050000010010BD2DE9F04D92469B4611B1B1FAA4
:1005100081F202E0B0FA80F220329046FFF78DFFC0
:1005200004460F4640EA0A0041EA0B0153465A4688
:10053000084313D0114653EA010019D0C8F1400214
:100540005046FFF789FF05460E465046594642463B
:10055000FFF773FF084305D0012004E02046394629
:10056000BDE8F08D0020054346EAE0762C43374392
:100570000A986305E40AA0EB08000022FD0A44EA99
:1005800047540A3002D500200146E9E70105101959
:100590006941DDE9084500196941BDE8F04DA2E770
:1005A0002DE9FE4F804681EA0300C00F0C46009003
:1005B00021F0004123F00045B8EB0200A94105D22B
:1005C0004046214690461C460B46024623F000401A
:1005D000104347D0270DC7F30A00C3F30A51029016
:1005E000401A019040286BDAC3F3130040F4801BDB
:1005F0000098924620B10023D2EB030A63EB0B0B69
:1006000001985946C0F140025046FFF716FF0646D2
:100610000D4650465946019A00F01EF910EB0800AD
:100620006141002487EA115284EAE7731A4340D0FB
:10063000009A62B3019A012A4FEA075215DC001BA7
:1006400061EB02014FF0004202EA0752CDE900429D
:10065000001C41F5801132462B46FFF753FF03B0D3
:10066000BDE8F08F40462146F9E7001B61EB02012F
:10067000001C41F5801300185B412018A2F50017FB
:1006800047EB030140EAD570B6196D4111E06D08E2
:100690004FEA360645EAC0754FEA0752001B61EB88
:1006A0000201001C41F5801149084FEA3000001991
:1006B000514132462B4603B0BDE8F04FFFF713BF60
:1006C0000098012240000023D0EB020263EBE073AC
:1006D000009821464FEAE074B8EB000061EB04019A
:1006E000E9E783F000435BE781F0004158E72DE93B
:1006F000FE4F81EA030404F0004421F0004100941D
:100700004FF0000B23F0004350EA01045ED052EAA0
:1007100003045BD0C3F30A54C1F30A552C44A4F27A
:10072000F3340194A0FB0254C1F3130141F480118E
:10073000C3F3130343F4801301FB024400FB034E95
:10074000840A970A44EA815447EA8357A4FB07685E
:1007500002958D0A05FB07854FEA932C04FB0C5488
:100760002705029D4FEA065847EA1637B5EB0805FC
:100770006EEB070C870E920E47EA811742EA83124E
:10078000A7FB0201B6EB0B0164EB00042B0D43EA5F
:100790000C335E1844EB1C50DA465146E7FB02016D
:1007A000C5F313044FEA0B3343EA14534FEA043200
:1007B000019C43EA0603A4F10C040294009CCDE9D9
:1007C00000B4FFF79FFE03B0BDE8F08F00200146A4
:1007D000F9E7C1F30A52C1F3130140F2FF3341F4C8
:1007E00080119A4202DA00200146704740F23343FA
:1007F0009A42A2F2334202DC5242FFF72DBEFFF7CB
:100800001CBE000030B5041E71F1000404DB4FF083
:100810000044404264EB0101141E73F1000405DB47
:100820001C464FF00043524263EB0403994208BF59
:10083000904230BD064C074D06E0E06840F00103F1
:1008400094E8070098471034AC42F6D3FFF7C8FC91
:1008500080580008A0580008202A06DBCB17203A51
:1008600041FA02F043EAE07306E041FA02F3D040B5
:10087000C2F120029140084319467047014800F038
:1008800015BB00BF480000200146806AC36DC26DE1
:1008900013F0500F07D0D20648BF00F005BB406DE3
:1008A000426B0846104742F40071C16501680B684D
:1008B000CA681B070ED491070AD4C16D21F4807158
:1008C000C165C16DC9045EBFC16D41F00101C16563
:1008D00000F0E8BA12F4406F18BF00F0E3BAC9683C
:1008E0008904EAD5F4E7806AC16D41F04001C16531
:1008F000016E41F00401016600F0D6BA806A00F092
:10090000D2BA0000B0B50168044688688A688007DA
:100910004FF000002AD412F0010208BFB0BD886871
:1009200000F00D00012818D188682C4A10400230D0
:1009300088600320086000F06DFF0546206880682D
:10094000C00704BF0020B0BD00F064FF401B0328B7
:10095000F4D320688068C007F0D0E06D40F010004C
:10096000E065206E40F0010020660120B0BD00BFB0
:1009700070B5044600688168C9072DD1174E81689B
:1009800006F17F02114209D0E06D40F01000E065F1
:10099000206E40F001002066012070BD816831406A
:1009A00041F00101816000F035FF054620680168D3
:1009B000C90711D18168C90704D18168314041F06C
:1009C0000101816000F026FF401B0328EED3206860
:1009D0000068C007EAD1D7E7002070BDC0FFFF7FE5
:1009E000FEE70000014800F03BBD00BFB40000205E
:1009F0007047000010B5104C04F18002A4F57E7120
:100A00002034C2640268436C8A4223F003013CBF75
:100A100040F60004C4F20204214481646FF007012F
:100A200051FA82F11422B1FBF2F1012201F01F010F
:100A300002FA01F1016510BD00080240037907497F
:100A40000122013B01F1400C01EB830103F01F0384
:100A50009A40C0E9151CC265704700BF00090240FA
:100A600010B5D0E913CE0124CCF804E0D0F854C07E
:100A7000BCF1000F1CBFD0E916CECCF804E0D0E9E1
:100A800010CE0EF01F0E04FA0EF4CCF804400468E9
:100A9000636080681028084608BF1046A06008BF41
:100AA0000A46E26010BD7047EFF3108072B6FEE7B1
:100AB000BCB504460020019094F85800012801D1EB
:100AC000022034E001200D4684F858002046FFF74C
:100AD00019FFE16D10B141F0100124E041F2021262
:100AE000144B91430231E16521688A681A4005F090
:100AF00080431A4402F100428A600F4A8B68B3F1C6
:100B0000FF3F0CDC019B01330193019B9342F5D322
:100B1000E06D40F0100020F00201012003E0E16DE3
:100B2000012262F30101002284F85820E16502B03D
:100B3000B0BD00BFC0FFFF3F02DE0400704770473A
:100B40007047704770470000F8B5044600200090D9
:100B500094F85800012801D1022089E101200F46B4
:100B600084F8580020688168490726D4D7E9001224
:100B70001F2602F01F03C2F3012200EB82029E40F7
:100B8000156BC1F38461994025EA06063143116370
:100B900081688268D20842EA9101C90740F0AA80C0
:100BA000BA683968B2F1004F0DD1002202F0BEF9E7
:100BB0002068416941F000410BE0E06D40F0200009
:100BC000E065012051E102F0B1F92068416921F0AE
:100BD00000414161D7E90412C36804295FD1016E65
:100BE000066E3B68A44A1946C3F3846E93FAA3F3D6
:100BF0009446B3FA83F56FF3DF412B46002908BF13
:100C00007346C6F384669E420CD1016E21F000410A
:100C100001663B6803EA0201C3F3846E93FAA3F30F
:100C2000B3FA83F5436E00292B4608BF7346466E20
:100C3000C6F384669E420DD1416E21F000414166AB
:100C400061463B6803EA0C01C3F3846E93FAA3F395
:100C5000B3FA83F5836E00292B4608BF7346866E70
:100C6000C6F384669E420CD1816E21F000418166FC
:100C70003B6803EA0C01C3F3846E93FAA3F3B3FA5F
:100C800083F5C36E002908BF7546C16EC1F3846148
:100C9000A94202BFC16E21F00041C1662AE000F105
:100CA0006005D7F800C0734E55F821E00EEA060E35
:100CB000062606EA93039A400CF0F8431A4342EAE8
:100CC0000E0242F0004245F821203969BA6955F810
:100CD000213023F080731A4345F821203A69397F87
:100CE00055F82230012923F0007308BF03F1007387
:100CF00045F822308168C90764D13968FA685F4DC8
:100D00000B46AA426FF3DF4321D1D0F8B020002B6D
:100D10004FEA916642EA0302C0F8B02091FAA1F2CC
:100D2000B2FA82F52A4608BF8A0E013202F01E028C
:100D3000092A12D8F3B14FF08062691C02EB856278
:100D400001F01F030121994002F0F8421DE0D0F8A4
:100D5000B0109943C0F8B01034E0E3B14FF08062B6
:100D6000691C02EB856201F01F030121994002F02A
:100D7000F8421BE001F0F841721C01F1806102F0C1
:100D80001F0301229A4001F0F841114303EB430293
:100D900041EA025113E001F0F841721C01F1806157
:100DA00002F01F0301229A4001F0F841114303EBC6
:100DB0004302334B03EB0252114341F00071BA6816
:100DC00002F0B4F83B682F4803424DD02E492F481B
:100DD0000E68834206F0E07202D02D4883421ED195
:100DE000300241D42068B0F1A04F3DD1086820F016
:100DF000E070104340F4000008602648264900686F
:100E0000B0FBF1F00C2100EB400001EB800001E0B1
:100E100000980138009000980028F9D124E01F487C
:100E2000834208BF16F0807012D01D4D0020AB42E7
:100E300008BF16F4800318D12068A1F50273984208
:100E400012D0086820F0E070104340F480000AE0FF
:100E50002068A1F50273984206D0086820F0E0707F
:100E6000104340F0807008600020002184F8581082
:100E700001B0F0BD00F0FF03FFFF070000007F405E
:100E8000000020FE0000088008030050000021C37D
:100E90001000C09018000020400D0300000052C751
:100EA000000084CB7047704770470000F8B50446D7
:100EB0000068854E0168426802EA0105A907D6F874
:100EC000081201F01F070CD5E06DC0065EBFE06D93
:100ED00040F40060E0652046FFF730FE2068022104
:100EE000016015F00C0F44D0E16DC9065EBFE16DE5
:100EF00041F40071E165C16811F4406F33D1B04233
:100F00000146024608BF4FF0A04181420AD0092F96
:100F100000F2D880012240F22123BA401A42024650
:100F200008BF0A46D16889041DD4016809071AD58B
:100F3000816849070FD4416821F00C014160E06DE0
:100F400020F48070E065E06DC0040CD4E06D40F0EA
:100F50000100E06507E0E06D40F01000E065206E04
:100F600040F0010020662046FFF79CFF20680C211E
:100F7000016015F0600F21D0E16D0346C9065EBF28
:100F8000E16D41F40051E165C16CB04201F4C07201
:100F9000C1680AD1072F00F292800123BB4013F0F1
:100FA000C10F334608BF4FF0A043DB68002A57D07B
:100FB0002046FFF7C4FD206860210160290609D59D
:100FC000E06D40F48030E065204600F06BF9206869
:100FD00080210160E9050AD5E06D40F40030E0654C
:100FE0002046FFF7AEFD20684FF480710160A9052F
:100FF0000AD5E06D40F48020E0652046FFF7A2FDB1
:1010000020684FF400710160E90616D5E16B31B13B
:10101000002F47D0D6F8081211F4604F0BD0E06DC6
:1010200040F48060E065206E40F0020020662046BB
:10103000FFF73AFF206810210160690558BFF8BD2D
:10104000E16D41F48041E165216E41F008012166C6
:101050004FF4806101602046BDE8F840FFF770BDA5
:101060009A0105D501F4406103F4005289189FD11B
:1010700001689A029CD411F0400199D08168090757
:1010800014D4416821F060014160E06D20F480508B
:10109000E065E06DC0053FF58BAFE06D40F001000D
:1010A000E06585E7C168C907B9D1C4E7E06D40F0E4
:1010B0001000E065206E40F00100206678E74FF0F8
:1010C000A04372E70A462DE700010050BCB5044674
:1010D0000020002C019037D0E06D30B9204600F0A0
:1010E000E3F8002084F858002066216888688000B2
:1010F00003D58868654A104088608868C00016D4A7
:10110000624A886802F180521040624A40F0805082
:1011100088605F480068B0FBF2F0022202EB4000FA
:1011200001E001980138019001980028F9D1886800
:10113000C0000BD4E06D40F01000E065206E40F080
:1011400001002066012002E001209CE000208A6866
:10115000C2F38002E36D03F01003D218E26D03D0F6
:1011600042F0100101208DE022F481720232E2652A
:101170008A68D2070ED1484D2B68D5F800211A4352
:10118000D20707D16268D5F8003323F47C131A43E1
:10119000C5F80023627FE36B43EA4232D4E90235AB
:1011A0002A431A4394F8243042EA0342012B04D123
:1011B000A36A3A4D05EB43431A43E36A23B103F4B0
:1011C00078731A43236B1A43CB68354D2B401A436F
:1011D000CA600A69636B22F040621A430A618A6836
:1011E0008B68DB0843EA9202D2073DD194F838308D
:1011F00094F81CC0CD6844F202025B0025EA0202AA
:1012000043EA8C331A43CA6022690B694AB143F43A
:10121000803343F6FF750B61D1F8C030AB431A43FE
:1012200007E023F4803243F6FF730A61D1F8C0204F
:101230009A43C1F8C02094F840300A69012B10D1BC
:1012400040F2FD7322EA030CD4E91135D4E9132EE0
:1012500043EA0C032B431A4342EA0E0242F0010216
:1012600001E022F001020A6163690A6B22F00F02B9
:10127000012B02BF236A013B1A430A63E16D01227D
:1012800062F30101E16502B0B0BD00BFC0FFFF5FC6
:1012900018000020400D0300080000500000FEFF71
:1012A0000740F0FF70470000F0B597B0044612A861
:1012B0001421FEF7E5FF01A84421FEF7E1FF2068B5
:1012C000624988424ED14FF0005010904FF40040D8
:1012D000019001A800F090FB08B1FFF7E5FB224860
:1012E0000026016841F400510160016801F40051D9
:1012F00000910099016841F00101016012A90068A4
:1013000000F0010000900098149603201390302004
:1013100012904FF0904000F0A9F9144D4FF4005096
:10132000134F4FF0200C4FF400614FF48072802374
:1013300028622420C5E900702846C5E90266C5E98F
:101340000432C5E9061C00F0DDF808B1FFF7ACFB7C
:101350001220002100226565AC6200F0C1FA122063
:1013600000F0B0FA17B0F0BD4C100240B4000020FD
:10137000080002402DE9F041344F04460E46D7F8EC
:10138000080221688968490703D494F85810012994
:1013900002D10220BDE8F08100F01F050120092DD7
:1013A00084F858004CD8A84040F22121084247D088
:1013B00020469046FFF7DCFA20B1002184F858104F
:1013C000BDE8F0812168E06D40F601729043B942BA
:1013D00000F58070E065084608BF4FF0A0400DB1F1
:1013E000884203D1E06D20F48010E065E06D184B79
:1013F000184F194D0022C0044FF0000044BF206E6A
:1014000020F006002066606DC0E90B5743631C2383
:101410000B6084F8582043464A6842F010024A6044
:10142000CA6842F00102CA604031324600F0CAF890
:1014300021680A4B8A681A4004328A60BDE8F0814C
:10144000002084F858000120BDE8F0810001005020
:10145000E7080008FD08000889080008C0FFFF7FB2
:10146000B0B5D0E910C4DCF80010026804F01F0E1B
:1014700013685C0710D5042404FA0EF414EA01057D
:101480000AD0116889065EBF116821F0040111605D
:10149000CCF80440016B30E09C0716D5022404FA16
:1014A0000EF414EA010510D01168890606D41168FB
:1014B00021F00A011160012180F825100021CCF8EB
:1014C000044080F82410C16A17E01B0719D50823CF
:1014D00003FA0EF3194008BFB0BD116821F00E01E8
:1014E0001160012101FA0EF2CCF804200022C16340
:1014F00080F8242080F82510416B11B1BDE8B04080
:101500000847B0BD00284AD0F8B5044602202B4950
:10151000142384F8250004F11807206801F108025B
:101520009042274A38BFA1F5806138BF02F580623A
:101530000244B2FBF3F29200C4E9101247F6F072D3
:10154000016821EA020CD4E90223D4E9041EE0CFA9
:1015500042EA0C021A43114341EA0E012943314386
:10156000394301602046FFF745FAA068B0F5804F87
:1015700006BF002060606068C2B2A16C0138032819
:101580000A60D4E913124A600BD82046FFF756FAD6
:10159000606D00210160D4E91601416005E0012081
:1015A00070470020C4E91500E06500200121E063D8
:1015B00084F8240084F82510F8BD00BF0004024020
:1015C000F8FBFDBF10B5044690F82400012820D098
:1015D000012084F8240094F82500012816D1022067
:1015E00084F825000020E063D4F800C0DCF8000097
:1015F00020F00100CCF800002046FFF731FA206807
:10160000226B01683AB141F00E010AE0002084F833
:101610002400022010BD21F004010160016841F0A6
:101620000A010160A16C0A68D20342BF0A6842F451
:1016300080720A60616D19B10A6842F480720A60B2
:10164000016841F001010160002010BDB0B5044601
:1016500000F0E0F805468D48611C406818BF04445E
:1016600000F0D8F8401BA042FAD3B0BD2DE9FC4FE2
:10167000604A06274FF0000B4FF001094FF00008B9
:10168000904200F1384208BF05274FEAB223052BEC
:1016900038BF4FEAB227002200970C6834FA02F3F1
:1016A00008BFBDE8FC8F09FA02F314EA030A00F050
:1016B0009B804E6806F00304671E012F1ED8032787
:1016C000D0F808C0D1F80CE007FA08F90EFA08F7CC
:1016D0002CEA090C4FEA420E47EA0C078760C6F372
:1016E000001707FA02FC476827EA030343EA0C03E2
:1016F0006FEA090C4FF0010943600AE00323032C51
:10170000C64603FA08F36FEA030C02D1C646032467
:101710001EE0C3688F68022C03EA0C0307FA0EF779
:1017200043EA0703C36013D16FF003050BF01C03FA
:101730000F2405EA52069C400644376A27EA04044F
:101740000F6907FA03F3234333624E6806F003047C
:10175000076804FA0EF316F4403F07EA0C0743EA61
:101760000703036040D0264B234D264C0BF00C069C
:101770001F461B68A44643F001033B603B6803F02F
:101780000103019322F00303019F2B441F590F24EF
:10179000B440A743009C04FA06F6374343F80C70A4
:1017A000AB684E6843EA0A07F40258BF23EA0A0707
:1017B000124BAF60B4029C461B6843EA0A0758BF4D
:1017C00023EA0A07CCF80070B4036B6843EA0A07FF
:1017D00058BF23EA0A076F60F6032B6843EA0A073B
:1017E00058BF23EA0A072F600BF1040B08F1020827
:1017F000013252E700140048000401400C0401408B
:101800006010024008FCFFFF1823002A08BF2823AD
:10181000C150704705480068704700BF1B48034926
:1018200040680A6810440860704700BFF00100205B
:1018300080B5032000F072F80F2000F007F808B11F
:10184000012080BD00F024F8002080BD70B50F4E4F
:1018500004467068B0B14FF47A71B1FBF0F06049A2
:101860000968B1FBF0F000F041FD01250F2C0AD80A
:1018700048B94FF0FF3021460022002500F030F833
:10188000346000E00125284670BD00BF0C00002038
:1018900082B00B48816841F001018160816801F0EC
:1018A000010101910199016841F0805101600068D6
:1018B00000F080500090009802B000F095B800BF92
:1018C00058100240002808DB00F01F0101224009E7
:1018D00002FA01F1014A42F82010704700E100E0ED
:1018E00080B5144B1B68C3F3022CBCF1030E8CF0C3
:1018F00007034FF0FF3C38BF4FF0000E042B28BF0A
:1019000004230CFA03F399430CFA0EF301FA0EF1D7
:101910009A431143BDE8804002F0AEB805494FF646
:10192000FF030A681A4060F30A2203481043086064
:10193000704700BF0CED00E00000FA0520B3B94984
:10194000B0F5007F0A6845D1D1F8800040F480707E
:10195000C1F8800002F4C060B0F5806F3ED1086825
:10196000012262F34A20322208601D480068504379
:101970001C4AB0FBF2F0C0434A6918B1013012F4BE
:101980008062F9D1486920E0A6480168D0F880203B
:1019900001F4C06122F48072B1F5806FC0F880203C
:1019A0001CD10168012262F34A21322201600C49F4
:1019B000096851430B4AB1FBF2F1C943426919B1BD
:1019C000013112F48062F9D14069400544BF03201F
:1019D000704703E0022060F34A220A60002070474B
:1019E0001800002040420F000248016841F4804185
:1019F00001607047087000402DE9FC410446807882
:101A0000874E000701D400205DE0F06CC0000BD4CD
:101A1000F06C4FF0010840F08050F064F06C00F082
:101A200080500190019801E04FF000087D4F386828
:101A300040F480703860FFF7EDFE05463868C00559
:101A400006D4FFF7E7FE401B0228F7D9032033E056
:101A5000D6F8840010F4407025D0216C884211D053
:101A6000D6F88400D6F8841041F4803120F4407018
:101A7000C6F88410D6F8841021F48031C6F884109A
:101A8000C6F88400C0070ED0FFF7C4FE054641F239
:101A90008837D6F88400800705D4FFF7BBFE401BCB
:101AA000B842F6D9D2E7D6F88400216C20F4407011
:101AB0000843C6F884000020B8F1000F1EBFF16C87
:101AC00021F08051F1642168CA0705D0F26F636884
:101AD00022F003021A43F2678A0705D5F26FA36862
:101AE00022F00C021A43F2674A0705D5F26FE36849
:101AF00022F030021A43F2670A0705D5F26F236914
:101B000022F0C0021A43F2678A0605D5F26F6369B4
:101B100022F440621A43F2674A0605D5F26FA369C0
:101B200022F440521A43F2670A0605D5F26FE369C0
:101B300022F440421A43F267CA0505D5F26F236AC0
:101B400022F440321A43F2678A0505D5F26F636AC0
:101B500022F440221A43F2674A050DD5F26FA36AB8
:101B600022F44012B3F5801F42EA0302F26702BF7B
:101B7000326842F4801232600A050DD5F26FE36AD2
:101B800022F44002B3F5800F42EA0302F26702BF7B
:101B9000326842F480123260CA040DD5F26F236BB2
:101BA00022F04072B3F1807F42EA0302F26702BF83
:101BB000326842F4801232608A040DD5F26F636B92
:101BC00022F04062B3F1006F42EA0302F26702BF03
:101BD000326842F4801232604A040DD5F26FA36B72
:101BE00022F04062B3F1006F42EA0302F26702BFE3
:101BF000326842F48012326009040DD5F16FE26B55
:101C000021F04051B2F1805F41EA0201F16702BF69
:101C1000316841F48031316002B0BDE8F08100BF2D
:101C20000C100240007000402DE9F047002854D00D
:101C3000724B04460D46186800F00F00884209D226
:101C4000186820F00F0028431860186800F00F0093
:101C5000A84242D12068934E9A46C107B14602D1AC
:101C60004FF000086BE06168032930D156F8081C7A
:101C7000890132D57168726873687768B446022644
:101C8000C7F3416701F0030106EB4707864E0329BE
:101C900004BF41F20026C0F27A06C2F30311C3F377
:101CA00006220131B6FBF1F15143554AB1FBF7F180
:101CB000914224D9DCF80010664611F0F00F16D0DE
:101CC000800701D5A06890B14FF000081AE056F8DF
:101CD000080C022904D1800304D40120BDE8F08758
:101CE0004005FAD500F0AEF845498842ECD9306895
:101CF00008214FF0800861F30710306002E04FF0D8
:101D0000000866463068616820F0030008433060D0
:101D1000FFF780FD064641F288374846D9F80000B3
:101D2000616800F00C00B0EB810F05D0FFF772FD89
:101D3000801BB842F1D939E020684E4653468107EE
:101D400006D4B8F1800F16D1316821F0F00111E00E
:101D5000410742BF316841F4E0613160010704D5B9
:101D60003168072262F30D2131603168A26821F0E9
:101D7000F00111433160196801F00F01A9421AD92D
:101D8000186820F00F0028431860FFF743FD06464F
:101D900041F288375046DAF8000000F00F00A84200
:101DA00007D0FFF737FD801BB842F3D90320BDE809
:101DB000F08720684E46410705D53168E26821F476
:101DC000E06111433160000706D53068216920F4D5
:101DD000605040EAC100306000F034F83168094AD0
:101DE000C1F30311515C01F01F01C84013490860A1
:101DF00005480068BDE8F047FFF728BD0020024015
:101E000000B4C404704600080C0000200B482549AB
:101E10000B4A00680968C1F30221515C01F01F01FF
:101E2000C840704705481F49054A00680968C1F362
:101E3000C221515C01F01F01C8407047180000200A
:101E4000804600081749184A086800F00C0004286A
:101E5000104608BF7047086800F00C031348082BB1
:101E60001ED00B6803F00C030C2B1CBF0020704726
:101E70004B6803F00303032B08BF02464868C0F316
:101E800003100130B2FBF0F04A68C2F30622496841
:101E900050430222C1F3416102EB4101B0FBF1F07A
:101EA000704700BF081002400024F40000127A00BE
:101EB0002DE9FC41002800F0AA8104460078DF4E9D
:101EC000C0071ED12078800747D42078000740F152
:101ED0009A806169D6F89400002900F0838040F070
:101EE0000100C6F89400FFF795FC0546D6F894006B
:101EF000800700F18880FFF78DFC401B0228F5D990
:101F0000C9E0B168F06801F00C0108294BD0032248
:101F100081F00C0122EA00000844B0FA80F0400988
:101F200041D16768B7F5803F07D03068B7F5A02F7B
:101F300040F0CC8040F480203060306840F4803045
:101F40003060FFF767FC054630688003BAD4FFF7BE
:101F500061FC401B6428F7D99DE0B068F16800F08F
:101F60000C00042828D001F0030180F00C0081F05F
:101F700002010844B0FA80F040091DD1E1683068E0
:101F8000002900F08A8040F480703060FFF742FC46
:101F900005463068400500F19180FFF73BFC401B8F
:101FA0000228F6D977E0306880037FF58BAF606850
:101FB00000287FF487AF2AE13068400503D5E06848
:101FC000002800F024817068216920F0FE4040EA7A
:101FD00001607060C0480068FFF738FC002840F0DE
:101FE000168172E720F00100C6F89400FFF712FC9A
:101FF0000546D6F89400800705D5FFF70BFC401B7B
:102000000228F6D947E02078400740F19A80B06D69
:10201000C0000BD4B06D4FF0010840F08050B065A7
:10202000B06D00F080500190019801E04FF0000881
:10203000AA4F3868C0050FD4386840F48070386003
:10204000FFF7E8FB05463868C00505D4FFF7E2FB5B
:10205000401B0228F7D91EE0A768012F07D0D6F849
:102060009000052F4AD140F00400C6F89000D6F841
:10207000900040F00100C6F89000FFF7CBFB05464A
:1020800041F28837D6F89000800753D4FFF7C2FB9F
:10209000401BB842F6D90320BAE020F480703060CB
:1020A000FFF7B8FB0546306840057FF50EAFFFF738
:1020B000B1FB411B03200229F5D9A9E07068216911
:1020C00020F0FE4040EA01607060FEE620F48030BF
:1020D0003060306820F480203060FFF79BFB0546BD
:1020E000002F7FF431AF306880037FF5EBAEFFF750
:1020F00091FB411B03206429F5D989E020F0010000
:10210000C6F89000D6F8900020F00400C6F89000C1
:10211000FFF780FB0546002FB2D141F28837D6F891
:102120009000800706D5FFF775FB411B0320B942DD
:10213000F5D96DE0B8F1000F1EBFB06D20F08050F2
:10214000B0652078800627D5A169D6F8980089B1B6
:1021500040F00100C6F89800FFF75CFB0546D6F892
:102160009800800718D4FFF755FB411B0320022974
:10217000F5D94DE020F00100C6F89800FFF74AFBC2
:102180000546D6F89800800706D5FFF743FB411BAC
:1021900003200229F5D93BE0E069002800F09A808D
:1021A000B16801F00C010C2935D101282FD0F0685D
:1021B000216A00F003028A4229D1616A6FF00F029E
:1021C00002EB011100F0F0028A4220D1A16A00F472
:1021D000FE42B2EB012F1AD1E16A00F07842B2EB75
:1021E000C16F14D1216B404A02EA015100F4C002D0
:1021F000A1F500118A420AD1616B4FF07E4200F0D6
:10220000C06002EA016101F17E41884262D0012092
:1022100002B0BDE8F0813168022821F080713160A0
:102220000ED1FFF7F7FA0546306880011DD5FFF79C
:10223000F1FA411B03200229F6D9E9E70010024018
:10224000F068274920F00300F060F0680840F06073
:10225000FFF7E0FA0446306880013BD5FFF7DAFA71
:10226000011B03200229F6D9D2E704F12007F06808
:102270006FF00F058ECF05EB02121A4D2840084370
:10228000216B1043184A40EA032002EA01514FF043
:102290007E42A1F500110843616B40EAC76002EA83
:1022A000016101F17E410843F060306840F08070C8
:1022B0003060F06840F08070F060FFF7ABFA0446E1
:1022C0003068800106D4FFF7A5FA011B032002291C
:1022D000F6D99DE700209BE70C000020007000402D
:1022E000FFFFEEFE0C809F010000E0FF411E00207A
:1022F000B0EB116F1CBF01207047044AF0235160FE
:1023000003490B70072190601160704710E000E0F6
:1023100023ED00E070477047704770477047704783
:1023200090F83C300222012B37D070B580F83D2068
:102330000122604D80F83C20026854689368AA42EC
:1023400002D05A4EB24203D14E6824F47004344392
:10235000134EB2F1804F06EA04060C6846EA040602
:1023600056600DD04F4CA2420AD04F4CA24207D02B
:102370004E4CA24204D04E4CA24201D0AA4204D1FB
:10238000896823F08003194391600022012180F8BD
:102390003C2080F83D10BDE870401046704700BFFB
:1023A0008FFFFFFD704760B310B5044690F83D0005
:1023B00028B9002084F83C00204600F025F80220CF
:1023C000211D84F83D00206801F092F8012084F876
:1023D000480084F83E0084F83F0084F8400084F808
:1023E000410084F8420084F8430084F8440084F8F3
:1023F000450084F8460084F8470084F83D0000203A
:1024000010BD01207047000000680C49884218BFC9
:102410007047E0B50A480022016841F010010160F0
:102420000021006800F01000019001983620FFF7AD
:1024300057FA3620BDE88C40FFF744BA0010004040
:102440005810024090F83D1001291CBF0120704730
:10245000022180F83D100168C868B1F1804F40F05A
:102460000100C8600ED00F4881420BD00E48814257
:1024700008D00E48814205D00D48814202D00D4857
:10248000814209D188680C4A02400020062A08D0FF
:10249000B2F5803F08BF7047086840F0010008604F
:1024A000002070470004004000080040002C01405C
:1024B000004001400034014007000100704710B5A2
:1024C000044600680169890744BFC1685FEA8171F9
:1024D0005BD40169490744BFC1685FEA417160D4B8
:1024E0000169090744BFC1685FEA017166D40169E7
:1024F000C90644BFC1685FEAC1616BD40169C907FD
:102500001CBFC1685FEAC17171D10169090644BF8E
:10251000C1685FEA016172D40169C90544BFC1683D
:102520005FEA016173D40169490644BFC1685FEA8B
:10253000416174D40169890644BFC1685FEA816161
:1025400075D40169C90244BFC1685FEAC12176D46C
:102550000169890244BFC1685FEA812177D40169BA
:10256000490244BFC1685FEA412178D40169090288
:1025700046BFC1685FEA012110BD6FF4000101612F
:102580002046BDE81040FFF70DBF6FF0020101616A
:10259000012121778069800769D02046FFF78EFFEF
:1025A0006BE06FF00401016102212177806910F472
:1025B000407F66D02046FFF781FF68E06FF008019A
:1025C000016104212177C069800764D02046FFF7AC
:1025D00075FF66E06FF01001016108212177C06985
:1025E00010F4407F61D02046FFF768FF63E06FF092
:1025F00001010161204600F067F8206885E76FF06F
:10260000800101612046FFF786FE206884E76FF4B1
:10261000807101612046FFF77DFE206883E76FF03F
:1026200040010161204600F045F9206882E76FF023
:10263000200101612046FFF76FFE206881E76FF4FB
:10264000801101612046FFF769FE206880E76FF482
:10265000001101612046FFF760FE20687FE76FF4FC
:10266000800101612046FFF75AFE20687EE7204680
:1026700000F025F8204600F023F80020207720689D
:1026800027E7204600F01BF8204600F019F800204C
:102690002077206824E7204600F011F8204600F05B
:1026A0000FF800202077206821E7204600F007F887
:1026B000204600F005F80020207720681EE77047CC
:1026C00070470000000000002DE9F8432DED066B77
:1026D00000686549884261D1644F00207969B0EB98
:1026E000D12F03D1802907D2012023E040F6C41066
:1026F000814206D205201DE0B1F5806F07D202208D
:1027000018E040F6B830814208D2062012E040F2CC
:10271000DC520420914238BF03200BE040F6746085
:10272000814201D2072005E00020B1F57A6F38BF61
:102730000120C00078603A78904207D17978013161
:10274000CAB2112A08BF1021797005E001213A446C
:10275000002379701376387080B1C9B2082904D388
:1027600000F00E01022902D108E0022906D300F090
:102770000E01022917D1384401210176B868396960
:10278000081A48BF4042C0B2112828BF01F058FAC9
:1027900047480068016841F001010160BDEC066B2B
:1027A00001B0BDE8F08339180A7E002AF6D1012273
:1027B0000A76411F032903D2043801F033FADDE71A
:1027C000082808D00128D9D1B87880F00100B87065
:1027D00001F0D2F9D2E7264C2078D7E9021252F85C
:1027E00020004843FDF7D7FD9FED1B0B53EC102B4A
:1027F000FDF751FDFDF7EFFDFDF7DAFD024641EC77
:10280000180B0B461BA1062001F048F92078D7E9E8
:10281000024151F82000FDF7BEFD9FED110B56EC73
:10282000105B2A463346FDF736FD81462046884632
:10283000FDF7B1FD2A463346FDF72DFD41EC100BA7
:1028400012A04A4643468DED028B8DED000B01F040
:1028500021FA93E700BF00BF000000000088C340DA
:10286000000000000000594000100040200000203F
:102870001C0000202020546F74616C3A20252E32F9
:1028800066207975616E202020000000552E572E9D
:10289000313A252E32660A472E572E3A252E3266B9
:1028A0000A546F74616C3A252E32660A00000000EB
:1028B00014010020704790F88010012901D10221F5
:1028C00012E02421C0F8841002681368116821F016
:1028D000010123F0005311600021416613602022A2
:1028E00080F88010C0F8842008467047B0B50446D0
:1028F00090F88000012804BF0220B0BD2420C4F855
:102900008400012084F8800020680568026822F0B5
:1029100001020260826822F06062114381602046F9
:1029200000F05CFE206820210560002084F8800013
:10293000C4F88410B0BDB0B5044690F880000128FA
:1029400004BF0220B0BD2420C4F88400012084F814
:10295000800020680568026822F001020260826837
:1029600022F0604211438160204600F037FE20686B
:1029700020210560002084F88000C4F88410B0BDD8
:1029800010B5B0B10446D0F8840028B9002084F80E
:102990008000204600F026F82420C4F88400206837
:1029A000016821F001010160204600F0DDFE0128F0
:1029B00001D1012010BDA06A10B1204600F038FE00
:1029C0002068416821F490414160816821F02A012A
:1029D0008160016841F0010101602046BDE81040BE
:1029E00000F08FBE10B598B0044613A81421FDF76F
:1029F00047FC02A84421FDF743FC206817498842A0
:102A00002AD1002401200394029002A8FEF7F4FFCB
:102A100008B1FEF749F88348416941F480414161BA
:102A2000416901F4804101910199016841F001017E
:102A3000016013A9006800F00100019001980720CF
:102A400017900220CDE9154414904FF4C060139004
:102A50004FF09040FEF70AFE18B010BD003801405C
:102A60002DE9FC470446D0F88400202808D10D4603
:102A7000012031B1164622B194F88000012803D11B
:102A8000022002B0BDE8F0874FF0000A012099460D
:102A9000C4F88CA084F880002120C4F88400FEF7DC
:102AA000B9FEA4F85660A4F854608046A068B0F55A
:102AB000805F06D127690026002F0CBF2E462F46C7
:102AC00001E02F46002684F880A019E020468021EE
:102AD00000224346CDF8009000F062FFE8B91FB134
:102AE00017F8011B206805E036F8021B2068002754
:102AF0006FF35F218162B4F856000138A4F85600E4
:102B0000B4F856000028E1D1204640210022434677
:102B1000CDF8009000F044FF08B10320B1E7202079
:102B2000C4F884000020ACE7FEE70000FEB50320F7
:102B30004FF6FF71049000200290019105900390E0
:102B40000B4801A9FEF792FD06B080BDFEB503203B
:102B500001A90490012002904FF6FF70019000201F
:102B6000059003900248FEF781FD06B080BD00BFCE
:102B700000080048B0B504460020002100F03EF9EE
:102B800000F07AF94FF4963503E0204600F04EF954
:102B9000013D002DF9D1B0BDF0B587B00026214828
:102BA000214C012702AD0696016841F00401016045
:102BB000016801F0040101910199016841F00101EE
:102BC0000160016801F0010101910199016841F082
:102BD000020101602946006800F00200019001989E
:102BE000059603974FF44870029020460496FEF72E
:102BF0003DFD4FF4807005960397294602904FF0F3
:102C000090400496FEF732FDFFF7A0FF07482158D9
:102C100041F480712150A06940F40870A06107B0B0
:102C2000F0BD00BF4C1002400004004818FCFFFF3C
:102C3000203AD3B25B0053FA82F2024B03EB02124A
:102C400000F016B888460008F8B50C46054640F274
:102C50003F16002709E0E25D002A08BFF8BDB1B2C7
:102C60002846FFF7E5FF0137103E132FF3D9F8BDD3
:102C70002DE9F84F14468846814600F0BFF8DFF88A
:102C800078A1DFF8A4B100270125182F08BFBDE8FF
:102C9000F88F00F0F1F800260CE034F8170005FA80
:102CA00006F1014214BFBBF80000BAF8000000F0C2
:102CB000BDF80136102EF0D109F1010941465FFA45
:102CC00089F000F09BF80137DFE700BF10B5FFF790
:102CD00063FF002000F03EF8084C48F230212080CD
:102CE0002088884202D100F075FA01E000F0E8FA8D
:102CF000002000F02FF8208010BD00BF440000200D
:102D000010B5134C10200021A04711200021A0472E
:102D100012200021A04713200021A047102041F2DB
:102D2000B071A047112040F23711A047122040F2A5
:102D30003911A04713204FF4E851A047292013214F
:102D4000A047072040F273112246BDE8104010470B
:102D5000C92E0008B0B5214CD4F8101441F400710C
:102D6000C4F81014D4F8101441F48071C4F810148D
:102D7000D4F8001441F02001C4F800141849086088
:102D8000D4F8100440F02000C4F8100400BF00BFC5
:102D900000BFD4F8000440F02000C4F80004D4F8C8
:102DA000000440F48070C4F80004FFF7BFFE2069FF
:102DB00040F48070206100BF00BF00BFD4F8F85716
:102DC000206840F480702060FFF7C0FED4F8000453
:102DD00040F40070C4F80004A8B2B0BD1800004868
:102DE0001408004881B0ADF802000348BDF8021095
:102DF000018001B0704700BF1400002010B50C46E0
:102E00000146202000F060F821202146BDE8104056
:102E100000F05AB881B0ADF802000348BDF80210C6
:102E2000018001B0704700BF420000203E490A699E
:102E300042F400720A610A6842F480720A600A6809
:102E400042F020020A60C1F8FC03086940F020004B
:102E5000086100BF00BF00BF086840F020000860A4
:102E6000086840F48070086000BF00BF00BF0868B9
:102E700040F40070086070472B48016941F400710C
:102E80000161016941F480710161016841F0200133
:102E900001602221C0F8FC13016941F020010161A9
:102EA00000BF00BF00BF016841F020010160016860
:102EB00041F48071016000BF00BF00BF016841F4B0
:102EC00000710160704700BF174A136943F4007333
:102ED0001361136943F480731361136843F0200393
:102EE0001360C2F8FC03106940F02000106100BFBD
:102EF00000BF00BF106840F020001060106840F470
:102F000080701060C2F8FC13106940F0200010615E
:102F100000BF00BF00BF106840F0200010601068C4
:102F200040F480701060704718040048C1F3045CDE
:102F3000C1F34061072300EB810003FA0CF302FAAE
:102F40000CF241699943114341617047B0B588B0B3
:102F500068462021FDF794F91F4800240121022230
:102F60001E4D4FF4003380F84040C46380F83810A1
:102F7000C0E90B4480F8244002624FF480728283DF
:102F80000822C0E90053C0E90244C0E9044182615B
:102F9000FEF79CF808B1FDF787FD04207F2105941A
:102FA0000490CDE902010620694601900C4800908A
:102FB0000948FDF7C9FD08B1FDF776FD0C2069460B
:102FC0000190084800900448FDF7BEFD08B1FDF7E8
:102FD0006BFD08B0B0BD00BF4800002000010050EC
:102FE0000000524700209036E0B5124800220168E8
:102FF00041F004010160016801F0040101910199AF
:10300000016841F0010101600021006800F0010049
:10301000009000980B20FEF763FC0B20FEF752FC9B
:103020005E2000210022FEF75BFC5E20BDE88C40A4
:10303000FEF748BC481002402DE9F04F87B04FF032
:1030400000083348344F01224FF47F4A4FF0010902
:10305000CDF81880016841F004010160016801F0B9
:10306000040101910199016841F0200101600168AA
:1030700001F0200101910199016841F00101016015
:10308000016801F0010101910199016841F0080115
:103090000160016801F0080101910199016841F0A6
:1030A000020101604FF47F41006800F002000190CE
:1030B0000198184800F5806583462846B8470BF507
:1030C0000066042100223046B8475846C02100223D
:1030D000B84702AF114C2846CDE90498CDE902A9C2
:1030E0003946A0470220CDF814803946CDE9039037
:1030F000042002903046A047C020CDF81480CDE9CE
:103100000398394602905846A04707B0BDE8F08FB3
:103110004C10024000040048091800086D16000811
:103120001FB5F24880210E4B002440F21F3281610E
:1031300042F20F71C0E90032C0E902410394CDE9C7
:103140000144FFF730F908B1FDF7AEFCE74801A9EB
:1031500003940194FFF7E4F808B1FDF7A5FC1FBD47
:103160000010004010B5174C174B4FF416520C20AE
:103170000021C4E90032C4E90211C4E9041004F1D9
:1031800018001421FDF77CF82046FFF7F9FB08B181
:10319000FDF78AFC0B480021FFF7CDFB08B1FDF7D6
:1031A00083FC08480021FFF7A1FB08B1FDF77CFC78
:1031B0000448FFF780FB002814BFBDE8104010BD95
:1031C000FDF772BC6001002000380140FEE7FEE719
:1031D0007047000010B59E4C00200121A04701203F
:1031E0000021A047102041F29071A04760204FF4C9
:1031F0001C51A04761200121A04746200221A04781
:10320000132048F21001A0472C48EE3081B2122062
:10321000A04702204FF4A061A047032041F23001F3
:10322000A047302040F20331A047312040F2033163
:10323000A047322040F20331A04733204FF44071C1
:10324000A04734200321A047352040F20331A04796
:1032500036201421A047372040F20331A047382000
:1032600040F20331A047392040F20331A0473A2011
:103270004FF44071A0473B200321A0473C2040F27F
:103280000331A0473D204FF4A051A04792204FF4B6
:103290000071A047932040F20331A047902040F6F0
:1032A0000D01A047032041F21801A047072040F27A
:1032B00073112246BDE81040104700BF1080FFFF89
:1032C000B0B5634DE32043F20801A847E72012217F
:1032D000A847EF2041F23121A84701200021A8474B
:1032E00002204FF4E061A847032041F23001A847D3
:1032F00004200021A847082040F20721A847092000
:103300000021A8470A200021A8470C200021A84737
:103310000D200021A8470F200021A84710200021E0
:10332000A84711200721A84712200021A8471320F1
:103330000021A847474CC820A047102041F29061C7
:10334000A847112040F22721A8473220A047122089
:103350001D21A8473220A04713204FF40061A84741
:1033600029201421A8472B200B21A8473220A04751
:1033700020200021A84721200021A8473020072134
:10338000A847312040F20771A84732200621A847FC
:10339000352040F20471A847362041F60471A84751
:1033A00037200421A84738200021A847392040F2BF
:1033B0000671A8473C2040F20171A8473D200F212B
:1033C000A84750200021A8475120EF21A8475220AC
:1033D0000021A847532040F23F11A84760204FF436
:1033E0001C51A84761200121A8476A200021A84755
:1033F00080200021A84781200021A84782200021A9
:10340000A84783200021A84784200021A8478520C1
:103410000021A84790201021A84792200021A8470A
:1034200093200321A84795204FF48871A84797203F
:103430000021A84798200021A847032041F2180145
:10344000A847072040F273112A46BDE8B040104754
:10345000C92E00084D1600087047FEF7DFB910B5F9
:1034600094B006AC1821201DFCF70AFF01A8142116
:10347000FCF706FF4FF40070FEF760FA02200A2105
:103480001390CDE91100109101210F914021CDE958
:103490000D000A914FF48071099106902046FEF7C5
:1034A00007FD18B1EFF3108072B6FEE7002002218D
:1034B0000590CDE90300032002900F20019001A8A0
:1034C000FEF7B2FB18B1EFF3108072B6FEE714B04E
:1034D00010BD00000248016841F4700101607047AE
:1034E00088ED00E00148FEF7EABF00BF14010020AC
:1034F000B0B50368324DB0F1804F0AD0314A9042E6
:1035000007D0314A904204D0304A904201D0A842BC
:1035100038D105F5C0544A6823F07003041BB4FA8F
:1035200084F4134305F5E0524FEA541E05F5A05408
:10353000821A041BB2FA82F2B4FA84F452094FEAF6
:10354000541CCC6823F4407323434C6923F080035C
:10355000002A43EA040303608B68C3620B6883623A
:103560000BD1BEF1000F08D1A84206D005F50062CC
:10357000904202D0BCF1000F01D009690163012122
:103580004161B0BD05F5C05405F5E052041B821A37
:10359000B4FA84F4B2FA82F24FEA541E05F5A0544C
:1035A0005209041BB4FA84F44FEA541C084CA0429C
:1035B000C7D0084CA042C4D0074CA042C1D0C4E739
:1035C000002C01400004004000080040003401408D
:1035D000004001400048014000440140416ED9B123
:1035E00080B50268DFF840C0DFF840E09168C1F3C1
:1035F000426192681CF801301EF80110520FC90098
:10360000B1FBF3F11CF802301EF80220D200B2FB2D
:10361000F3F2BDE8804001E001220121A0F868102A
:10362000A0F86A20704700BF78580008705800085A
:10363000816ACA0708D002685368D0F82CC023F406
:10364000003343EA0C0353608A0708D502685368C5
:10365000D0F830C023F4803343EA0C0353604A07A8
:1036600008D502685368D0F834C023F4802343EAB5
:103670000C0353600A0708D502685368D0F838C0B5
:1036800023F4004343EA0C035360CA0608D50268DA
:103690009368D0F83CC023F4805343EA0C03936052
:1036A0008A0608D502689368D0F840C023F4005316
:1036B00043EA0C03936080B54A0615D5D0F800E0C4
:1036C000DEF804C0436C2CF48012B3F5801F42EA8C
:1036D0000302CEF8042007D1DEF80420836C22F424
:1036E000C0021A43CEF804200906BDE8804058BF46
:1036F000704701684A68C06C22F400221043486099
:103700007047BCB504460020C4F88C00FEF782F870
:1037100005462068016809070BD56FF07E404FF41D
:10372000001100222B460090204600F039F970B9B4
:103730002068006840070CD56FF07E404FF4800190
:1037400000222B460090204600F02AF908B1032001
:1037500008E02020C4F88400C4F88800002084F821
:103760008000E06602B0B0BDF8B50446036880682A
:10377000784D794ED4E90412B34240EA0100E16980
:1037800040EA02001A6840EA010002EA0502734DAD
:1037900040EA020018605868E26820F4405040EAAD
:1037A00002005860A0691CBF226A10439A682A4030
:1037B0006C4D10439860AB42D86A626A20F00F00EB
:1037C00040EA0200D862664812D0674DAB4211D081
:1037D000664DAB4210D0B34210D0654DAB4217D10D
:1037E000644B69A61B6803F0030356F8235012E0EC
:1037F000022504E0042502E0062500E00A255D4FCD
:103800003F68EF405CA507F0030755F8275000E03C
:103810001025B3421ED0B1F5004F0DD10121082D66
:1038200000F28E80DFE805F005242F8C278C8C8C2D
:103830002D00FEF7EBFA20E00121082D00F2808038
:10384000DFE805F00539437E3C7E7E7E4100FEF7D1
:10385000DDFA35E00121082D00F27280DFE805F085
:1038600005704F70487070704D00FEF7CFFA41E060
:10387000FEF7D8FA01E0FEF7E5FA00285DD0626AAB
:1038800001E04FF40040444931F81210B0FBF1F070
:1038900061684A0802EB40004FF6EF72B0FBF1F0AE
:1038A000A0F1100191424AD84FF6F0710140C0F3E7
:1038B000420008443FE0FEF7B5FA01E0FEF7C2FA25
:1038C000D8B3626A01E04FF40040334931F8121076
:1038D0004FF6EF72B0FBF1F0616800EB5100B0FB06
:1038E000F1F0A0F11001914229D8216880B223E0C3
:1038F000FEF7A8FA08B3626A01E04FF400402649D7
:1039000031F812106268B0FBF1F002EB42030121C2
:10391000984215D31303984212D8010E00020023D7
:1039200010EB520041F10001FCF772FC1B4AA0F5BC
:103930004071914203D82168C860002100E0012154
:103940000020C4E91C004FF00110A066084601B039
:10395000F0BD00BFF369FFCF00800040FFF4FF110E
:103960000024F4000044004000480040004C0040A7
:1039700000380140881002400000000004000000F0
:103980000200000008000000010000000400000028
:10399000020000000800000058580008FFFC0F005B
:1039A0002DE9F843DDF82090044600689846164655
:1039B0000F4609F10105C1693940C91BB1FA81F10E
:1039C0004909B14216D1002DF5D0FDF723FFB9F119
:1039D000000F13D0A0EB080048450FD820680168FD
:1039E000490744BFC1695FEA0151E4D54FF4006162
:1039F00001621EE0002001B0BDE8F083206850E8BD
:103A0000000F216820F4D07041E80002002AF5D1AF
:103A1000206850E8020F216820F0010041E802020E
:103A2000002AF5D12020C4F8840004F188001AE0AF
:103A3000206850E8000F216820F4D07041E80002AF
:103A4000002AF5D1206850E8020F216820F001001B
:103A500041E80202002AF5D12020C4F88400C4F80D
:103A6000880004F18C0020210160002084F880008F
:103A70000320C0E7FEE7000010B5074C00F00F037D
:103A8000044AB0F1FF3F2344C8BF831808011870EF
:103A900010BD00BF00E400E014ED00E082B07CB592
:103AA000054606A8CDE906230C4601904FF4807028
:103AB00000F0A8FD4FF480710646FCF7E1FB019A87
:103AC0003046214600F0F6F805EB45003146C000CF
:103AD000C0B2FFF7B9F8304600F06CFDBDE87C409D
:103AE00002B07047E0B50190044801A90122FF230C
:103AF000FEF7B6FF019802B080BD00BF6001002054
:103B0000802000F07FFD5C4D052102220123E8604A
:103B1000C0E90132C160FDF78BFEFFF7A0FCFFF7A3
:103B20008BFAFFF761FAFFF711FAFFF7F9FAFFF7DF
:103B300019FB0F4C7F212046FCF7BAFF05F110015D
:103B400020460222FDF716FC0A48FEF77BFCFFF731
:103B5000BDF8FFF7D5F80020FFF744F94FF6FF70E6
:103B6000FFF758F90020FFF705F800F005F8FEE729
:103B70004800002014010020B0B50020FEF7FAFF35
:103B8000154CA07800B1B0BD14A11820FFF75CF867
:103B9000184D19A103202A78FFF780FF2878E168E3
:103BA00051F82000FCF7F7FB9FED090B53EC102BAD
:103BB000FCF771FB02460B4613A10420FFF76EFFD2
:103BC000A068BDE8B04000F03BB800BF00BF00BF38
:103BD000000000000000594020000020202020208C
:103BE00057656967682026205061792020202020B1
:103BF000000000001C000020204E756D6265723AC6
:103C0000202564202000000020556E697420707209
:103C10006963653A20252E326620792F6B67202054
:103C20000000000005490A78824208BF704708700A
:103C30001148807800B17047FFF79EBF1C0000203C
:103C40000D498860897801B1704780B5FCF792FB17
:103C50009FED070B53EC102BFCF71DFB02460B46A8
:103C600006A10520BDE88040FFF718BF00BF00BFD8
:103C7000000000000000594020000020202057656F
:103C8000696768743A20252E3266206B67202020F1
:103C9000200000000FB4054B10B503A9044A029898
:103CA00000F0ECF810BC5DF814FB0000E53A0008E9
:103CB0000000002037B514460846064B6A462146E8
:103CC00000F0DCF804466946002000F06EFC204657
:103CD0003EBD0000AB45000802E008C8121F08C145
:103CE000002AFAD170477047002001E001C1121F7D
:103CF000002AFBD1704700002DE9FF5F82B0002150
:103D0000DDE90430020DDDF840B0034318D044F67D
:103D10001050A2F2FF3242431514119801281FD00F
:103D2000A5EB0B00401C5FEA000A4FF000064E4F67
:103D3000DFF83891B046504615D5CAF1000413E0BB
:103D4000119801244AA3012801D16FEA0B010298BE
:103D5000119AC0E90031C0E9024206B0BDE8F09F07
:103D6000CBF10000DFE704460021404A491842EB4E
:103D70000450CDE9001012E0E00707D032463B4680
:103D800040464946FCF7B3FC8046894632463B46EE
:103D900010461946FCF7ABFC06460F466410002C93
:103DA000EAD1DDE90401DDE90023BAF1000F06DA0A
:103DB000FCF79DFC42464B46FCF799FC05E0FCF7FE
:103DC0006AFA42464B46FCF766FA04460E46002263
:103DD000284BFCF717FD03D84FF0FF30014607E0F2
:103DE0000022254B20463146FCF7DAFBFCF7F1FCBC
:103DF000102409E0002C0ADB0A220023FCF708FA51
:103E0000039B30321A55641E50EA0102F2D1641C41
:103E1000039AC4F111031444119A012A03D0012218
:103E200008430DD10AE0084304D000204FF0110BE5
:103E3000119072E7A3EB0B056D1E0DE05B4504DDF1
:103E40004FF0000205F1010504E003DA4FF0000233
:103E5000A5F10105002AECD002981199C0E90231C0
:103E6000C0E9004579E70000000014400000F03F81
:103E7000300000000000F0430000E03F2DE9FF4F5C
:103E800095B09B468946064600250FE2252877D146
:103E900000242746F84A0121059400E0044316F85F
:103EA000013F203B01FA03F01042F7D130782A2875
:103EB00011D06FF02F033078A0F13002092A16D804
:103EC000059A44F0020402EB820203EB4202104422
:103ED000761C0590EFE759F8042B0592002A03DAC7
:103EE000504244F40054059044F00204761C3078AB
:103EF0002E2816D116F8010F44F004042A280DD0FC
:103F00006FF02F023078A0F13003092B09D807EBAE
:103F1000870302EB4303C718761CF3E759F8047BC9
:103F2000761C30786C280FD006DC4C2817D0682817
:103F30000DD06A2814D104E0742810D07A280FD14B
:103F40000DE044F400140AE044F4801401E044F469
:103F500040147278824202D104F58014761C761CDB
:103F6000307866280BD013DC582877D009DC00287D
:103F700075D04528F6D04628F4D047281AD19DE1BF
:103F800018E0632835D0642879D0652812D195E1EE
:103F9000702873D008DC6728F1D069286FD06E28AC
:103FA0000DD06F2806D1B5E073282CD0752875D0B8
:103FB000782874D05A46179990476D1C75E1C4F360
:103FC0000250022809D003280DD0D9F80010042887
:103FD0000DD00D6009F1040967E1D9F80010EA1766
:103FE000C1E90052F6E7D9F800100D80F2E70D7034
:103FF000F0E719F8041B8DF8001000208DF801007F
:10400000EA46012003E059F804AB4FF0FF306107A6
:104010004FF0000102D40DE008F101018846B942D9
:104020000FDA8045F8DB1AF808100029F4D108E00F
:1040300008F1010188468142FADB1AF808100029CC
:10404000F6D105985B46A0EB080721463846179A3B
:1040500000F094FA284400EB080507E04DE029E160
:104060000DE01AF8010B5A4617999047B8F101086C
:10407000F7D25B4621463846179A13E142E00A22FE
:104080000092C4F302524FF0000A022A08D059F8F5
:1040900004CB032A4FEAEC710AD00DE029E02AE0B4
:1040A00009F1070121F00702F2E802C1914609E097
:1040B0000FFA8CFC4FEAEC71042A03D14FFA8CFC06
:1040C0004FEAEC71002907DA0A460021DCF1000C06
:1040D00061EB02012D2202E0220504D52B228DF88E
:1040E0000420012203E0E20701D02022F7E79046F6
:1040F00059E00A2102E010220DE010214FF0000AE1
:1041000000910BE010224FF0000A44F0040408274D
:10411000009203E008224FF0000A0092C4F302521A
:10412000022A05D059F804CB0021032A08D009E05F
:1041300009F1070121F00702F2E802C1914605E00A
:104140001FFA8CFC042A01D10CF0FF0C4FF0000880
:10415000220728D5702806D0009B83F0100353EA6D
:104160000A0305D00EE040228DF80420012208E069
:104170005CEA010206D030228DF804208DF805009B
:1041800002229046009B83F0080353EA0A030AD1F7
:104190005CEA010201D1620705D530228DF80420C6
:1041A0004FF001087F1E582804D034A003900EA8B9
:1041B00002900DE036A0F9E753466046009AFCF7FE
:1041C00027F884460398825C0298401E0290027091
:1041D0005CEA0100F0D1029806A9081A00F1200A51
:1041E000600702D524F4803400E00127574502DD42
:1041F000A7EB0A0000E0002000EB0A010090059800
:104200004144401A0590E00306D45B462146179AC4
:10421000059800F0B3F90544002706E001A85A46C6
:10422000C05D179990476D1C7F1C4745F6DBE00386
:104230000CD55B462146179A059800F09FF9054476
:1042400004E030205A46179990476D1C0099481E8B
:1042500000900029F5DC08E0029802995A4600789F
:10426000491C0291179990476D1CBAF10001AAF1FF
:10427000010AF1DC65E10000092801003031323328
:104280003435363738396162636465660000000092
:10429000303132333435363738394142434445467C
:1042A0000000000000F058F90544761C3078002822
:1042B0007FF4ECAD19B02846BDE8F08F620700D45A
:1042C000062709F1070222F0070CFCE80223E14669
:1042D00003F000485FEA080C02D00FF2702C0DE0EA
:1042E0005FEA045C02D50FF2682C07E05FEAC47C49
:1042F00002D00FF2602C01E0AFF2700C4FF0FF38EB
:1043000023F00043CDF850C065280CD006DC4528CA
:1043100009D046281DD047283DD13DE0662818D059
:1043200067287ED138E00021112F01DB112000E049
:10433000781CCDE9000106A90EA8FFF7DDFCDDE938
:104340000F010E9A03910021009207F1010A0491D6
:104350004DE04FF000400097CDE9011006A90EA8EE
:10436000FFF7CAFCDDE90F0203920E9B11990022B0
:10437000DDF80CA00093049211B9791C00EB010A3E
:10438000B7EB0A0004D4C0F1FF3007F1010A049032
:10439000AAEB0700019044E0012F00DA0127002179
:1043A000112F01DD112000E03846CDE9000106A9FA
:1043B0000EA8FFF7A1FCDDE90F010E9A0391002181
:1043C00004910092BA4621070CD40399514500DAB2
:1043D0008A46BAF1010F05DD009AAAF10101515C8C
:1043E000302908D0B84202DA10F1040F06DA0121B0
:1043F000CDE9011015E0AAF10101E9E7002805DC8B
:10440000049901440491AAEB000102E0411C5145CA
:1044100000DD8A460499401A401C01904FF000408C
:104420000290200704D40198504501DBCDF80480A8
:1044300000208DF84F0002980DF14F07B0F1004FAA
:1044400025D02B200E9002984FF0020800280CDA9D
:10445000404202902D200E9007E00A210298FBF7BF
:10446000D6FF3031029007F8011DB8F10001A8F124
:104470000108F2DC02980028EFD1791E0E9808702E
:10448000307800F0200040F0450007F8020D12A837
:10449000C01B00F107081498007800B1012000EB60
:1044A0000A01019801EBE07105984144401A401E51
:1044B0000590E00306D45B462146179A059800F064
:1044C0005DF805441498007818B15A46179990473A
:1044D0006D1CE00324D55B462146179A059800F031
:1044E0004DF805441CE00498002807DBDDE90301D2
:1044F000884203DD0098405C179901E0179930204D
:104500005A469047049805F10105401C0490019813
:10451000401E019004D12E205A46179990476D1CD9
:10452000BAF10001AAF1010ADDDC05E017F8010B80
:104530005A46179990476D1CB8F10001A8F101087F
:10454000F4DC5B462146179A0598ABE62D00000087
:104550002B000000200000002DE9F041044600255A
:104560001E461746880404D405E039462020B0478B
:104570006D1C641EF9D52846BDE8F0812DE9F04197
:10458000044600251E469046C80301D5302700E0AA
:104590002027880404D505E041463846B0476D1C05
:1045A000641EF9D52846BDE8F0810A68531C0B60EB
:1045B0001070704710B5002821D0114B0022001F49
:1045C000196803E0814203D80A4649680029F9D1F5
:1045D00052B11368841A9C4204D1006818441060D8
:1045E000104602E0506000E0186039B102680B1A12
:1045F000934203D10B681A4402604968416010BDC0
:1046000004000020F0B50B30154D20F00701002408
:10461000144A0FE003688B420BD38B4205D95E1A14
:1046200043184768C3E9006700E04368136002C0AD
:1046300004E0021D10680028ECD12046002802D1B9
:10464000286808B10020F0BD064A07481060074AF4
:10465000121A22F00702C0E9002401202860D7E7DF
:104660000800002004000020FC010020F8030020C6
:104670000000000000000000010203040607080912
:104680000000000001020304000000000000000020
:10469000000000000000000000000000000000001A
:1046A000000000000000000000000000000000000A
:1046B0000000000000000000000080018001800177
:1046C00080018001800180018001800180018001E2
:1046D00080018001000000008001800100000000D6
:1046E000000000000000000000000000CC00CC0032
:1046F000CC00CC00CC00CC0000000000000000008A
:1047000000000000000000000000000000000000A9
:104710000000000000000000000000000000000099
:1047200000000000600C600C600C30063006FE1FBC
:10473000FE1F300638071803FE1FFE1F180318035C
:104740008C018C018C01000000008000E003F80F58
:104750009C0E8C1C8C188C009800F801E007800ED1
:10476000801C8C188C189C18B80CF00FE00380008B
:1047700080000000000000000000000000000E1893
:104780001B0C110C11061106110311039B018E0164
:10479000C038C06C60446044304430441844186CE5
:1047A0000C380000000000000000E001F0033807B2
:1047B000180618063003F001F000F8009C310E33A3
:1047C000061E061C061C063FFC73F02100000000BC
:1047D0000000000000000000000000000C000C00C1
:1047E0000C000C000C000C00000000000000000099
:1047F00000000000000000000000000000000000B9
:104800000000000000000000000000020003800122
:10481000C000C00060006000300030003000300098
:10482000300030003000300060006000C000C00088
:104830008001000300020000000020006000C000B2
:104840008001800100030003000600060006000648
:104850000006000600060006000300038001800138
:10486000C000600020000000000000000000000008
:1048700000000000C000C000D806F807E0013003C7
:1048800038070000000000000000000000000000E9
:104890000000000000000000000000000000000018
:1048A0000000000080018001800180018001FC3F48
:1048B000FC3F800180018001800180010000000038
:1048C00000000000000000000000000000000000E8
:1048D00000000000000000000000000000000000D8
:1048E00000000000000000000000800180010001C5
:1048F0000001800000000000000000000000000037
:1049000000000000000000000000000000000000A7
:10491000E007E007000000000000000000000000C9
:104920000000000000000000000000000000000087
:104930000000000000000000000000000000000077
:1049400000000000000000000000C000C0000000E7
:1049500000000000000000000000000C000C000639
:1049600000060006000300030003800380018001AD
:104970008001C000C000C0006000600000000000B6
:1049800000000000000000000000E003F007380E07
:10499000180C0C180C180C180C180C180C180C18F7
:1049A0000C180C18180C380EF007E003000000007B
:1049B0000000000000000000000000018001C001B4
:1049C000F00198018801800180018001800180014F
:1049D00080018001800180018001800100000000D1
:1049E00000000000000000000000E003F80F180CB9
:1049F0000C180C1800180018000C000600038001A9
:104A0000C000600030001800FC1FFC1F0000000008
:104A100000000000000000000000E001F807180E90
:104A20000C0C0C0C000C0006C003C007000C001896
:104A300000180C180C18180CF807E0030000000010
:104A400000000000000000000000000C000E000F3D
:104A5000000F800DC00C600C600C300C180C0C0C9E
:104A6000FC3FFC3F000C000C000C000C00000000A0
:104A700000000000000000000000F80FF80F180010
:104A800018000C00EC03FC071C0E001C001800189A
:104A900000180C181C0C180EF807E00300000000AA
:104AA00000000000000000000000C007F00F381CEC
:104AB000181818000C00CC03EC0F3C0E1C1C0C1832
:104AC0000C180C18181C380EF007E003000000004A
:104AD00000000000000000000000FC1FFC1F000C94
:104AE00000060006000380038001C001C000E00052
:104AF00060006000700030003000300000000000F6
:104B000000000000000000000000E003F007380E85
:104B1000180C180C180C3806F007F007180C0C18B5
:104B20000C180C180C18380CF80FE00300000000EB
:104B300000000000000000000000E003F007380E55
:104B40001C0C0C180C180C181C1C381EF81BE01937
:104B50000018000C000C1C0EF807F001000000000B
:104B60000000000000000000000000000000000045
:104B70000000000080018001000000000000000033
:104B80000000000000000000800180010000000023
:104B90000000000000000000000000000000000015
:104BA0000000000080018001000000000000000003
:104BB00000000000000000008001800100010001F1
:104BC0008000000000000000000000000000000065
:104BD00000000000000000000010001C800FE00337
:104BE000F8001800F800E003800F001C001000001F
:104BF00000000000000000000000000000000000B5
:104C00000000000000000000F81F0000000000008D
:104C1000F81F00000000000000000000000000007D
:104C20000000000000000000000000000000000084
:104C3000000000000000000008003800F001C0077C
:104C4000001F0018001FC007F00138000800000016
:104C500000000000000000000000E003F80F180C46
:104C60000C180C180018000C000600038001C0008E
:104C7000C000C00000000000C000C0000000000034
:104C8000000000000000000000000000E00718180D
:104C90000420C229224A1144094409440944092232
:104CA0001113E20C024004201818E0070000000075
:104CB0000000000000000000000080038003C00628
:104CC000C006C006600C600C301830183018F83F71
:104CD000F83F1C700C600C6006C006C000000000AD
:104CE00000000000000000000000FC03FC0F0C0CA2
:104CF0000C180C180C180C0CFC07FC0F0C180C30C2
:104D00000C300C300C300C18FC1FFC0700000000AD
:104D100000000000000000000000C007F01F38384D
:104D20001C300C7006600600060006000600060037
:104D3000060006600C701C30F01FE0070000000049
:104D400000000000000000000000FE03FE0F060E41
:104D500006180618063006300630063006300630D3
:104D6000063006180618060EFE0FFE0300000000AF
:104D700000000000000000000000FC3FFC3F0C00B1
:104D80000C000C000C000C00FC1FFC1F0C000C00A5
:104D90000C000C000C000C00FC3FFC3F000000006D
:104DA00000000000000000000000F83FF83F18007D
:104DB0001800180018001800F81FF81F1800180035
:104DC0001800180018001800180018000000000053
:104DD00000000000000000000000E00FF83F3C78F9
:104DE0000E6006E007C00300030003FE03FE03C0DD
:104DF00007C006C00EC03CF0F83FE00F0000000006
:104E0000000000000000000000000C300C300C30EE
:104E10000C300C300C300C30FC3FFC3F0C300C30B4
:104E20000C300C300C300C300C300C30000000001A
:104E300000000000000000000000800180018001EF
:104E4000800180018001800180018001800180015A
:104E5000800180018001800180018001000000004C
:104E60000000000000000000000000060006000630
:104E70000006000600060006000600060006000602
:104E80000006180618063807F003E00100000000CD
:104E90000000000000000000000006300618060CAC
:104EA000060606038601C60066007600DE008E0157
:104EB00006030606060C0618063006600000000011
:104EC000000000000000000000001800180018009A
:104ED0001800180018001800180018001800180012
:104EE0001800180018001800F81FF81F0000000034
:104EF000000000000000000000000EE01EF01EF0A8
:104F00001EF036D836D836D836D866CC66CC66CCC5
:104F1000C6C6C6C6C6C6C6C686C386C300000000CF
:104F2000000000000000000000000C301C303C308D
:104F30003C306C306C30CC30CC308C310C330C339A
:104F40000C360C360C3C0C3C0C380C3000000000CD
:104F500000000000000000000000E007F81F1C38FF
:104F60000E70066003C003C003C003C003C003C0CB
:104F700003C006600E701C38F81FE0070000000038
:104F800000000000000000000000FC0FFC1F0C38B7
:104F90000C300C300C300C300C18FC1FFC070C00D3
:104FA0000C000C000C000C000C000C0000000000B9
:104FB00000000000000000000000E007F81F1C389F
:104FC0000E70066003E003C003C003C003C003C04B
:104FD00007E006630E3F1C3CF83FE0F700C000000E
:104FE00000000000000000000000FE0FFE1F063859
:104FF0000630063006300638FE1FFE07060306069A
:10500000060C061806180630063006600000000080
:1050100000000000000000000000E003F80F1C0C7E
:105020000C180C180C001C00F803E00F001E0038D0
:10503000063006300E301C1CF80FE00700000000A0
:1050400000000000000000000000FE7FFE7F8001E5
:105050008001800180018001800180018001800148
:10506000800180018001800180018001000000003A
:10507000000000000000000000000C300C300C307C
:105080000C300C300C300C300C300C300C300C3040
:105090000C300C300C301818F81FE007000000002E
:1050A0000000000000000000000003600630063031
:1050B00006300C180C180C18180C180C380E30068A
:1050C0003006700760036003C001C00100000000EB
:1050D000000000000000000000000360C361C36125
:1050E000C3616633663366336633663366336C1B7F
:1050F0006C1B6C1B2C1A3C1E380E380E0000000076
:10510000000000000000000000000FE00C701830EC
:105110003018700C600EC00780038003C003E006E7
:10512000700C301C18180C300E6007E000000000F6
:105130000000000000000000000003C006600C300A
:105140001C383818300C6006E007C003800180016D
:105150008001800180018001800180010000000049
:1051600000000000000000000000FC7FFC7F0060E9
:1051700000300018000C000600038001C000600031
:10518000300018000C000600FE7FFE7F00000000CB
:1051900000000000000000000000E003E0036000E9
:1051A00060006000600060006000600060006000FF
:1051B00060006000600060006000600060006000EF
:1051C0006000E003E00300000000300030006000F9
:1051D00060006000C000C000C000C001800180010C
:1051E0008001000300030003000600060000000029
:1051F00000000000000000000000E003E0030003E6
:105200000003000300030003000300030003000386
:105210000003000300030003000300030003000376
:105220000003E003E003000000000000C001C00133
:1052300060036003600330063006180C180C000091
:10524000000000000000000000000000000000005E
:10525000000000000000000000000000000000004E
:10526000000000000000000000000000000000003E
:1052700000000000000000000000FFFFFFFF000032
:10528000000000000000000000000C000C000C00FA
:105290000C000C000C0000000000000000000000EA
:1052A00000000000000000000000000000000000FE
:1052B00000000000000000000000000000000000EE
:1052C00000000000F003F8071C0C0C0C000FF00F9E
:1052D000F80C0C0C0C0C1C0FF80FF0180000000060
:1052E0000000000000000000000018001800180076
:1052F00018001800D803F80F380C181818181818C8
:10530000181818181818380CF80FD80300000000E7
:10531000000000000000000000000000000000008D
:1053200000000000C003F007300E180C1800180031
:1053300018001800180C300EF007C0030000000021
:105340000000000000000000000000180018001815
:1053500000180018C01BF01F301C18181818181857
:10536000181818181818301CF01FC01B0000000077
:10537000000000000000000000000000000000002D
:1053800000000000C003F00F300C1818F81FF81FC1
:10539000180018003818301CF00FC007000000007B
:1053A00000000000000000000000800FC00FC000DF
:1053B000C000C000F007F007C000C000C000C0007F
:1053C000C000C000C000C000C000C000000000005D
:1053D00000000000000000000000000000000000CD
:1053E00000000000E00DF80F180E0C0C0C0C0C0C5B
:1053F0000C0C0C0C0C0C180EF80FE00D000C0C0C27
:105400001C06F807F0010000000018001800180042
:1054100018001800D807F80F381C18181818181892
:10542000181818181818181818181818000000005C
:1054300000000000000000000000C000C0000000EC
:1054400000000000C000C000C000C000C000C000DC
:10545000C000C000C000C000C000C00000000000CC
:1054600000000000000000000000C000C0000000BC
:1054700000000000C000C000C000C000C000C000AC
:10548000C000C000C000C000C000C000C000C0001C
:10549000C000F8007800000000000C000C000C00B8
:1054A0000C000C000C0C0C060C038C01CC006C00E6
:1054B000FC009C018C030C030C060C0C000000008B
:1054C00000000000000000000000C000C000C0009C
:1054D000C000C000C000C000C000C000C000C000CC
:1054E000C000C000C000C000C000C000000000003C
:1054F00000000000000000000000000000000000AC
:10550000000000007C3CFF7EC7E383C183C183C1F0
:1055100083C183C183C183C183C183C100000000F3
:10552000000000000000000000000000000000007B
:10553000000000009807F80F381C181818181818E1
:10554000181818181818181818181818000000003B
:10555000000000000000000000000000000000004B
:1055600000000000C003F00F300C181818181818AD
:10557000181818181818300CF00FC003000000009D
:10558000000000000000000000000000000000001B
:1055900000000000D803F80F380C18181818181855
:1055A000181818181818380CF80FD8031800180015
:1055B00018001800180000000000000000000000A3
:1055C00000000000C01BF01F301C18181818181815
:1055D000181818181818301CF01FC01B00180018D5
:1055E0000018001800180000000000000000000073
:1055F00000000000B007F003700030003000300001
:10560000300030003000300030003000000000007A
:10561000000000000000000000000000000000008A
:1056200000000000E003F003380E180C3800F0030F
:10563000C007000C180C380EF007E0030000000053
:105640000000000000000000000000008000C0001A
:10565000C000C000F007F007C000C000C000C000DC
:10566000C000C000C000C000C007800700000000EC
:10567000000000000000000000000000000000002A
:1056800000000000181818181818181818181818FA
:10569000181818181818381CF01FE019000000001E
:1056A00000000000000000000000000000000000FA
:1056B000000000000C18180C180C180C30063006EE
:1056C0003006600360036003C001C00100000000F9
:1056D00000000000000000000000000000000000CA
:1056E00000000000C141C141C36163636363636340
:1056F0003636363636361C1C1C1C1C1C00000000BE
:105700000000000000000000000000000000000099
:10571000000000001C38381C300C60066003600379
:10572000600360036006300C381C1C380000000069
:105730000000000000000000000000000000000069
:10574000000000001830301830187018600C600C21
:10575000E00CC006C0068003800380038001800146
:10576000C001F00070000000000000000000000018
:1057700000000000FC1FFC1F000C0006000380015D
:10578000C000600030001800FC1FFC1F000000007B
:105790000000000000000000000000038001C000C5
:1057A000C000C000C000C000C00060006000300049
:1057B00060004000C000C000C000C000C000C000C9
:1057C00080010003000000000000800180018001D2
:1057D00080018001800180018001800180018001C1
:1057E00080018001800180018001800180018001B1
:1057F000800180018001000000006000C000C00145
:105800008001800180018001800100030003000607
:10581000000300018001800180018001800180017E
:10582000C000600000000000000000000000000058
:105830000000000000000000F010F81F080F00003A
:105840000000000000000000000000000000000058
:10585000000000000000000001000200040006003B
:1058600008000A000C001000200040008000000129
:1058700001010103070100000804020408010101FD
:10588000A05800080000002020000000D83C0008BC
:10589000C058000820000020D8070000E83C00089D
:1058A00000000000000000000000000010000000E8
:1058B00001000000FFFF00000024F40001000000D0
:04000005080001D915
:00000001FF
