:020000040800F2
:10000000E00E00202D030008976F000863610008D0
:10001000956F000849210008097D000800000000D4
:10002000000000000000000000000000AF720008A7
:100030009F22000800000000996F0008B1720008BC
:100040004703000847030008470300084703000868
:100050004703000847030008BD220008C322000828
:10006000C92200084703000847030008A921000827
:10007000B5210008C1210008CD2100084703000870
:100080004703000800000000BD1F000847030008E8
:100090004703000847030008470300084703000818
:1000A0004703000847030008470300084703000808
:1000B00031730008470300083D7300084703000838
:1000C00047030008470300084703000847030008E8
:1000D00047030008FD7C00084703000847030008A9
:1000E00047030008470300084703000847030008C8
:1000F000470300084703000847030008000000000A
:10010000000000004703000800000000470300084B
:100110004703000800000000497300086D730008E1
:10012000D9210008E5210008F12100084703000853
:10013000470300080000000000000000470300081B
:100140004D210008470300080000000000000000E7
:10015000000000000000000000000000000000009F
:10016000000000000000000000000000470300083D
:10017000470300080000000000000000000000002D
:10018000000000004703000800000000000000001D
:10019000000000000000000000000000000000005F
:1001A00000000000000000004703000847030008AB
:1001B0004703000847030008470300080000000049
:1001C00000000000470300080000000000000000DD
:1001D000592100084703000800F002F800F096F8E3
:1001E0000AA090E8000C82448344AAF10107DA4592
:1001F00001D100F08BF8AFF2090EBAE80F0013F04E
:10020000010F18BFFB1A43F00103184748AD000067
:1002100068AD0000103A24BF78C878C1FAD85207F8
:1002200024BF30C830C144BF04680C607047000070
:100230000023002400250026103A28BF78C1FBD8EF
:10024000520728BF30C148BF0B6070476E2900F0CD
:10025000B582702900F0F783662909F03F8465298B
:1002600009F03C84672909F03984612909F0388450
:1002700003681B0A28BF41F08001692900F06282EF
:10028000642900F05F82752900F05C826F2900F01C
:100290008483782900F0C383E92900F01F83E429CF
:1002A00000F01C83F52900F01983EF2900F0818309
:1002B000F82900F0C2830368DB0928BF41F0800100
:1002C000632901F0E780732901F0EC80E32901F054
:1002D000F780F32901F0FC80002070471FB509F07A
:1002E000F8FB9DE8030000F089F901F04BF90400E8
:1002F0000020002108F0DEFE401C6060002000218C
:1003000008F0C2FEE0601FBD10B510BD01F00CF991
:100310001146FFF7E3FF08F0DBFA01F0E9F903B457
:10032000FFF7F2FF03BC01F019FA0000094880470B
:1003300009480047FEE7FEE7FEE7FEE7FEE7FEE7C7
:10034000FEE7FEE7FEE7FEE704480549054A064BDF
:100350007047000021730008D9010008E008002060
:10036000E00E0020E00A0020E00A002070B50646FA
:1003700000F028F9056806F10B0020F00704B442EC
:100380009CBF002070BD2B466A68BAB11068A042BD
:1003900010D304F1080188423CBF5068586007D36D
:1003A0005168101941601168091B016058601460A0
:1003B000101D70BD13465268002AE7D12146284619
:1003C00000F008F90028DED170BD70B50446051FA5
:1003D00000F0F8F80068002C14BF446870BD002CD1
:1003E00018BFAC423CBF20466468F8D301680A18C5
:1003F000AA4218BF456003D12A680546114401602E
:1004000028684119A1421CBF6C6070BD61686960B9
:1004100021680844286070BD53EA020C00F069802E
:100420002DE9F04B4FF00006002B1FBFB3FA83F508
:1004300003FA05F424FA05F65E4012BF1643B2FA39
:1004400082F502FA05F4C5F120051EBF22FA05FC6B
:1004500044EA0C04203556EA044C4FEA144418BF11
:10046000641C4FF000084FF00009904271EB030C40
:1004700039D3002919BFB1FA81F701FA07F6B0FAAA
:1004800080F700FA07F6C7F120071EBF20FA07FC25
:1004900046EA0C062037B6FBF4FCA7EB0507103F35
:1004A00007F01F0BCBF120060CFA0BFB2CFA06F61B
:1004B00044BFB3460026202FA4BF5E464FF0000B7A
:1004C0005BEA060C08BF4FF0010B19EB0B09ABFB05
:1004D000027C48EB0608C01B06FB02CC0BFB03CCDE
:1004E00071EB0C01C1E70B46024641464846BDE8A8
:1004F000F08B13B54FF000004FF00001AFF3008018
:10050000BDE81C40704700001CB50C46064B7B4400
:1005100069460090204600F06AF9044600206946CA
:1005200000F078F920461CBD030300004FF00002E4
:100530000429C0F0128010F0030C00F01B80CCF1F5
:10054000040CBCF1020F18BF00F8012BA8BF20F863
:10055000022BA1EB0C0100F00DB85FEAC17C24BFB7
:1005600000F8012B00F8012B48BF00F8012B704761
:100570004FF0000200B5134694469646203922BF3C
:10058000A0E80C50A0E80C50B1F12001BFF4F7AF87
:10059000090728BFA0E80C5048BF0CC05DF804EB69
:1005A000890028BF40F8042B08BF704748BF20F8D7
:1005B000022B11F0804F18BF00F8012B70477047D5
:1005C00070477047004870478808002070477047A0
:1005D0007047704738B504460A4600206946AFF3B5
:1005E0000080002808BF38BD02460099204600F070
:1005F00001FB012038BD012000F08EBFF8B5AFF33C
:100600000080054600200C46102000BF0646A819B1
:10061000A0420DD9324669460020AFF300800700A2
:1006200008BF00F079FF0098A04218BF0546C41922
:10063000FFF7C8FF05600746F01D20F007004619C8
:10064000284600F00AF8B44208BFF8BDA21B3146A4
:100650003868BDE8F84000F0CDBA00210160C0E97B
:10066000011070471020704710B500F0BFFA006805
:1006700010BD10B5044600F0B9FA046010BD70B5A5
:10068000044685690068C10601D5302600E02026B1
:10069000C00707D070BDD4E9012130469047206AD9
:1006A000401C20626D1EF6D570BD70B5044685698C
:1006B0000078C00707D170BDD4E901212020904700
:1006C000206A401C20626D1EF6D570BD09684A057F
:1006D00001D540B27047C905FCD500B27047096822
:1006E0004A0501D5C0B27047C905FCD580B2704734
:1006F00070B50C460546012A05D02878800600D53D
:10070000EA69002302E0012305E05B1C934202D268
:10071000E05C0028F9D1A869E618C01AA861286A27
:10072000184428622846FFF7AAFF04E0D5E9012112
:1007300014F8010B9047B442F8D32846FFF7B5FFF1
:1007400070BD00002DE9F0410646002410687529AF
:10075000314616A510D0FFF7B9FF002802DA404253
:1007600013A507E031688A0701D512A502E0490701
:1007700004D511A5012401E0FFF7B1FF00210A22F1
:1007800006F1240709E0B0FBF2FCB0FBF2F302FB38
:100790001C00303078541846491C0028F3D12346F9
:1007A0002A463046BDE8F04100F083BA0000000060
:1007B0002D0000002B0000002000000011680268DE
:1007C000006A530501D508700AE0D30501D50880F9
:1007D00006E0130603D5C217C1E9000200E0086075
:1007E0000120704701694A1C02610878704700B512
:1007F0008FB0CDE901310021059105497944CDE95A
:1008000003101146684600F029F90FB000BD000042
:10081000E5FFFFFF0A6802F8010B0A60704700005D
:100820002DE9FF5F15468A460446DFF8AC80F844A0
:100830000027D8E900103E46CDE9001010E03AF854
:1008400016106A4602A800F047FE411C07D0217826
:10085000890603D5E269391891420DD80744761C00
:100860002078800602D5E069B84205DDAE42E6DBBD
:100870003AF816000028E2D1A069C01BA06120460A
:10088000FFF7FDFED8E90010CDE90010002017E0C9
:100890003AF818106A4602A800F01EFEB0F1FF3FB9
:1008A00081460BD000250DF1080B05E0D4E90121AC
:1008B0001BF8050090476D1C4D45F7D308F101006A
:1008C000B0428046E4DB206A384420622046FFF7CD
:1008D000ECFEBDE8FF9F0000FEA400002DE9F04102
:1008E0008046D21D22F007020025D2E90002F52938
:1008F00015A614D0011E72F1000106DA0023D0EB18
:10090000030063EB020211A608E0D8F800108B0781
:1009100001D50FA602E0490701D50EA60125114613
:10092000002408F1240704E000F07EF930323A5543
:10093000641C50EA0102F7D12B463246214640465C
:10094000BDE8F04100F0B5B9000000002D00000046
:100950002B0000002000000030B4002100F124042E
:1009600008E002F00705D208303542EA4372DB089E
:100970006554491C52EA0305F3D10468002310A210
:10098000250707D5A40600D421B1C46901230DA20F
:10099000641EC46130BC00F08CB910B50446214619
:1009A0001068FFF79CFE02462046BDE81040002379
:1009B000D2E7D21D22F00701D1E90023CCE70000E5
:1009C0000000000030000000F0B40D460188090569
:1009D00002D5214C7C4402E01F4C7C440E340021A3
:1009E00000F1240608E002F00F071209E75D42EA71
:1009F00003721B097754491C52EA0307F3D10278AA
:100A00000023120704D5702D06D009B1022311343A
:100A10002246F0BC00F04DB901231034F8E770B560
:100A200004460D4621461068FFF759FE0246294646
:100A30002046BDE870400023C6E7D21D22F0070320
:100A4000D3E90023C0E70368126843F02003036082
:100A50000823C3610023B7E760A300002DE9F05F1E
:100A6000894604464FF0000ADFF874B1FB44C0F831
:100A700020A02046E1688847002874D0252806D0A9
:100A8000D4E901219047206A401C2062F1E700264A
:100A90005F462046E16888472028054607DB312D60
:100AA00005D2781910F8200C08B10643F1E7B00719
:100AB00001D526F00406C4F81CA00027C4F818A02D
:100AC0002A2D09D0284607F0C3FD38B304EB870868
:100AD000303DC8F8185019E059F8041B204604EBC3
:100AE00087029161E1688847012F054618D1E069C6
:100AF000002820DA26F020061DE0D8F8180000EBC8
:100B0000800005EB40003038C8F818002046E16846
:100B10008847054607F09CFD0028EED1012F0AD03A
:100B20002E2D08D12046E16888477F1C0546022FFC
:100B300046F02006C4DBA069002803DA404246F0F4
:100B40000106A061F00701D026F010066C2D0BD035
:100B5000682D09D04C2D39D06A2D35D0742D35D063
:100B60007A2D33D016E038E0E1682F4620468847DA
:100B7000B842054609D16C2F26D04FF48060E16859
:100B8000064320468847054604E06C2F1AD04FF4F0
:100B9000807006430DB3A5F14100192802D8203515
:100BA00046F400664A462946204626604E46FFF730
:100BB0004DFB80B101280BD0F61D26F0070000F197
:100BC000080956E74020E4E78020D8E70020D6E770
:100BD00006F104094DE7284652E7206ABDE8F09F78
:100BE000F0A20000004870478008002000487047CD
:100BF00080080020034640688C46002818BF8842C1
:100C00003CBF03464068F8D318681844884207D0B0
:100C10000CF1030020F00700001D411A521A014692
:100C2000081D0A60FFF7D1BB30B5B0F10A024FEAE8
:100C3000900E71F100034EEA817EB0EB0E0061EB85
:100C400091014FEA101E4EEA017E10EB0E0041EBBF
:100C500011114FEA102E4EEA016E10EB0E0041EB1F
:100C600011214FEA104E4EEA014E10EB0E0041EBFF
:100C70001141401841F100014FEAD00040EA4170B3
:100C80004FEAD10110EB80054FEA810444EA9074E9
:100C900044EB01046D1944EB0404521BA3414FF0D3
:100CA000000348BF0A3200D530BD401C41F10001AD
:100CB00030BD2DE9F0470D4699469246044600F1B5
:100CC00024080168880604D5E06921F0100121603C
:100CD00000E00120A84201DD471B00E00027A169D8
:100CE0007A1902EB0900081AA0612078C00602D424
:100CF0002046FFF7C4FC002608E0D4E901211AF8D9
:100D000006009047206A401C761C20624E45F4DBAA
:100D10002078C0060AD52046FFF7B1FC06E0D4E9EA
:100D2000012130209047206A401C2062381EA7F124
:100D30000107F4DC07E0D4E9012118F80500904729
:100D4000206A401C2062281EA5F10105F3DC204624
:100D5000FFF7ABFC2078000602D50220BDE8F08743
:100D60000120FBE770472DE9FF4F0C461E464FF070
:100D7000FF378BB0D2E90001DDF860800A908A4627
:100D8000C1F30A5505B93D46002108464FF0000061
:100D9000BAF1000F00F4400005DA00EB80004FF4D8
:100DA000400101EA50004FEA9059B9F1010F00DD0E
:100DB000B9460A9850EA4A000ED044F61050A5F2FF
:100DC000FF3545432F14B8F1000F1ED07542291E80
:100DD0001EDDC9F100021CE0B8F1010F4FF0000068
:100DE00001D0302103E0F24305E02154401CB04221
:100DF000FBDB30460022002121540B99C1F808800A
:100E0000C1E900200FB0BDE8F08FBD1B6D1CDEE70F
:100E10004A4600DA694206A800F0F8FB06AB93E800
:100E2000070003AB83E8070050460A9900F0FDFC79
:100E30008DE80700A0F500501F3800900398002DA2
:100E40000ADD42F21F014A460844002303A9039029
:100E5000684600F066FF09E0A0F500504A461F38DA
:100E6000002303A90390684600F070FF8DE8070097
:100E70000004000C03D04FF0FF30410800E01046A2
:100E8000B8F1000F03D00022009215461EE0751E37
:100E900005D4FFF7C9FE303262556D1EF9D5B34651
:100EA0000122084302D000227F1C04E02078302871
:100EB00001D100227F1E002A099784D01DE0112D48
:100EC00007DAFFF7B1FE303262556D1C50EA0102BD
:100ED000F5D1084302D00098C8B10EE00021681E89
:100EE00005E0235C625C63542254401E491C81422D
:100EF000F7DBAB46A81B401E0990002004F80B004E
:100F00000B98099AC0F80880C0E9002B7AE71126EF
:100F10004FF0000857E72DE9F04F88460446D21DF0
:100F200022F0070191B0D1E90001CDE90A0106F0F4
:100F3000ECFE02460B98C00F01D02D2007E0206880
:100F4000810701D52B2002E0202101EAC000032AFD
:100F5000099001D0072A05DB03464146204600F0F0
:100F600015FB0BE12078800601D5E06900E0062042
:100F7000B8F1650F814606D0B8F1660F18D0B8F108
:100F8000670F70D131E00020B9F1110F009001DB43
:100F9000112301E009F101030AAA01A90CA8FFF736
:100FA000E2FEDDE90C70002609F10105834647E009
:100FB00001204B4600904FF000470AAA01A90CA857
:100FC000FFF7D1FEDDE90DB00C995D46002610B9A2
:100FD00009F101000D18B9EB050003D4C0F1FF368B
:100FE00009F10105A5EB09002BE0B9F1010F01DAC8
:100FF0004FF001090020B9F1110F0090484601DDC2
:10100000112300E003460AAA01A90CA8FFF7ABFED2
:10101000DDE90C704D4600268346207800070AD48F
:10102000AB4500DA5D4601A8012D04DD411911F838
:10103000011C302907D04F4502DA17F1040F04DAFA
:10104000012082460FE06D1EEEE7002F02DCED1B53
:101050003E4403E0781CA84200DD7D1CB81B00F173
:10106000010A4FF000472078000703D4AA4501DBAE
:101070004FF0FF3A0021B7F1004F0DF143088DF812
:10108000431024D002202B23002F01DA7F422D238E
:101090000A21021EA0F1010000DC5FB197FBF1FC08
:1010A00097FBF1F201FB1C7C17460CF1300C08F8A1
:1010B00001CDEEE7A8F1010003702188090501D5F3
:1010C000452100E06521A0F1010800F8011C099804
:1010D0000FA9A1EB0807FF1D00B10120411901EB89
:1010E000EA70A1693844081A401EA0612078C00641
:1010F00002D42046FFF7C3FA099828B1D4E90121A8
:101100009047206A401C20622078C00622D52046E5
:10111000FFF7B5FA1EE0002E04DBB34502DD01A89F
:10112000805D00E03020D4E901219047206A401C16
:101130002062761CAAF101005FEA000A0AD100F0E1
:1011400021FAC0680168405CD4E901219047206A17
:10115000401C2062281EA5F10105DCDC07E0D4E973
:10116000012118F8010B9047206A401C2062381EAC
:10117000A7F10107F3DC2046FFF797FA032011B02F
:1011800041E600002DE9F04F04460D46D21D22F045
:10119000070089B0D0E900974846394606F0B5FD0A
:1011A0000246F80F01D02D2307E02068810701D502
:1011B0002B2302E0202101EAC0038DF820300BB17F
:1011C000012000E00020032A824601D0072A04DB28
:1011D0002946204600F0DAF93FE12078800601D464
:1011E0000D2500E0E569C7F30A560D2D49DA002107
:1011F0004FEA175B08464FF00000002F00F4400054
:1012000007DA00EB80004FF4400100EBD07001EAF8
:1012100060008115012901DD4FF0FF3100224FEA06
:10122000850CBCF1180F06D31346ACF118004FF033
:101230008052C24003E04FF4801323FA0CF30CF108
:101240000C0CBCF1200F04D3ACF1200C09FA0CF00B
:1012500001E007FA0CF000294FF0004801DD18B951
:101260000FE00ED140450CD319EB02095F4121B9C3
:10127000404502D19F4329EA0209BBEB175F00D02A
:10128000761C2088000502D57B48784402E07A4825
:101290007844193808AA302302F80A30037C0AF18E
:1012A0000101002E0AF1020A53546A4602DC4FF093
:1012B000300101E04FF031014FF001088DF80010CE
:1012C00002D0A6F2FF3603E059EA470100D06B4E88
:1012D000002D02DC2178090704D54FF002082E21E9
:1012E0008DF80110C44600210BE0C7F303433F0112
:1012F000C35C491C6D1E02F80830052908F101087D
:1013000001DA002DF1DC00210CE000EB1973491C1F
:101310001B786D1E082902F808304FEA091908F1F8
:10132000010801DA002DF0DC21688B0602D516E0F9
:10133000A8F10108E04505DD02EB080313F8013CC4
:10134000302BF5D0B8F1000F09DD02EB080313F8DC
:10135000013C2E2B03D1090701D4A8F10108002D6F
:1013600005DD3E2102F808106D1E08F10108407CE1
:10137000002E02F8080008F1010804DA2D20764258
:1013800002F8080002E02B2002F808000A214FF4BE
:101390007A70864208F101080BDB96FBF0F33033DC
:1013A00002F8083096FBF0F308F1010800FB136621
:1013B00001E0642E0CDB642096FBF0F3303302F87E
:1013C000083096FBF0F308F1010800FB136601E01A
:1013D0000A2E06DB96FBF1F0303002F8080008F127
:1013E000010896FBF1F001FB1060303002F80800B4
:1013F000A16908F1010808EB050202EB0A00081ACE
:10140000A0612078C00602D42046FFF738F9216A8F
:1014100008AE01EB0A00206204E0D4E9012116F8CD
:10142000010B9047BAF1010AF7D22078C00602D525
:101430002046FFF724F96E4609E016F8010B3E2816
:101440000FD0D4E901219047206A401C2062B8F1F6
:101450000108F2D22046FFF728F909B00320BDE8C1
:10146000F08F206A2844206203E0D4E90121302073
:1014700090476D1EEBD3F8E71D9C000002FCFFFFB8
:1014800010B5436913B1AFF3008001E0FFF730F905
:10149000012010BD127800F124010A7000224A7068
:1014A0000122EDE711684FF0FF32E9E710B543691B
:1014B00013B1AFF3008001E0FFF7B2F9012010BDD6
:1014C000128800F1240182840022C2840122EDE707
:1014D00011684FF0FF32E9E770B516460C46054635
:1014E00000F048F8036893F80101012806D0FF2CAA
:1014F0000FD8185D68B101202C7070BDD3F80701BA
:101500003246214603F2071303442846BDE87040E3
:1015100018474FF0FF3070BD10B500F0F7F8BDE888
:10152000104000F0EEB870477546FFF75BFBAE4623
:1015300005006946534620F00700854618B020B5DF
:10154000FEF702FFBDE820404FF000064FF0000715
:101550004FF000084FF0000B21F00701AC46ACE85B
:10156000C009ACE8C009ACE8C009ACE8C0098D46C8
:101570007047000010B500F005F8001D10BD00BF59
:10158000357B000000487047A00800202DE9F0419D
:101590001F46044603260168072A01F4006004DBA5
:1015A00008B116A505E016A503E008B115A500E0F1
:1015B00015A521F010002060A069C01EA0610FB128
:1015C000401EA0612046FFF75AF84FB1D4E901212F
:1015D00038469047206A401C2062C01C206206E00A
:1015E000206AFAE7D4E9012115F8010B9047761E2D
:1015F000F8D22046FFF759F8BDE8F0814E414E0081
:101600006E616E00494E4600696E66002DE9F04736
:10161000814616468AB0354878440DC88DE80D00DD
:1016200032487844801C03AC0DC884E80D0041F6B4
:101630009B300844372190FBF1F290FBF1F5A5F1C6
:10164000800501FB12041B3C02D56442012000E02E
:101650000020DFF898A080460027FA44AAF1BE0ACD
:101660000EE0E0070AD03246684607EB4701012347
:101670000AEB810100F06AFB8DE8070064107F1C13
:10168000002CEED1194F7F44AE3F19E0E80715D08A
:1016900007EB04100DF1180A90E80E008AE80E001E
:1016A000C068F04201D1981908903246012306A97A
:1016B00003A800F04BFB03AB83E807006D10641C2C
:1016C000002DE3D14FF0010332466946B8F1000F17
:1016D00003A802D000F025FB01E000F037FBC9E9C8
:1016E0000001C9F808200AB0BDE8F0872099000081
:1016F00010B50446AFF300802046BDE81040FEF769
:101700000EBE002801D000F029B8704710B501289E
:1017100005D0002103A000F027F8012010BD09A189
:10172000F8E7000053494752544D454D3A204F7554
:1017300074206F662068656170206D656D6F7279C9
:10174000000000003A2048656170206D656D6F7281
:101750007920636F72727570746564000149182096
:10176000ABBEFEE72600020070B505460C460A2017
:1017700000E06D1C00F052F835B128780028F8D14F
:1017800002E0641C00F04AF814B120780028F8D177
:10179000BDE870400A2000F041B800004FF0013C65
:1017A00050F8042B51F8043B9A4221D1A2EB0C03D0
:1017B000934313EACC1317D150F8042B51F8043B90
:1017C0009A4215D1A2EB0C03934313EACC130BD12D
:1017D00050F8042B51F8043B9A4209D1A2EB0C03B8
:1017E000934313EACC13DBD04FF00000704700BFE7
:1017F000D01A01BAB1FA81F101F0180122FA01F010
:10180000CB40C1F12001DBB2C0B2C01A2CFA01F307
:10181000D11A914311EAC311E6D1704708B5694660
:101820008DF800000320ABBE08BD5FEA400C08BF86
:1018300091F0000F4FEA8C234FEAC12243EA515145
:101840004FEA1C5018BF00F5F0404FEA300018BFB7
:1018500041F000415FEA6C5C00F02980BCF1FF3F81
:1018600008BF40F080407047130C06BF12044FF0D1
:10187000100C4FF0000C130E04BF12020CF1080CF8
:10188000130F04BF12010CF1040C930F04BF92005C
:101890000CF1020CD30F04BF52000CF1010C1146E5
:1018A0004FF00002A0F11F00A0EB0C00704711F0F8
:1018B000004F08BF704731F000413FF4D5AF0B0C2B
:1018C00006BF09044FF0100C4FF0000C0B0E04BFC4
:1018D00009020CF1080C0B0F04BF09010CF1040CF8
:1018E0008B0F04BF89000CF1020CCB0F04BF490021
:1018F0000CF1010CCCF12003A0EB0C0022FA03F355
:1019000002FA0CF241EA030100F10100704720F0F5
:101910007F4C80EA030023F07F47ACEB070303F51D
:101920007C5300F0004003F1FF032DE980494FEAAA
:10193000154B09B44FEA144325EA0B4E24EA034839
:101940000FF2042606EB132749083E785FEA3202BD
:1019500003FB0667C7F5000707FB06F64FEA543797
:101960004FEAD64606F1020607FB066CCCF1005C96
:101970004FEA1C472CEA074C07FB06F40CFB06F564
:1019800004EB15464FEA961634BF00204FF0004096
:101990004FEAD13706FB07FC4FEA1C4C0CFB0BF758
:1019A000D21B03FB0CF761EB07010CFB0EF7B0EB4E
:1019B000074072EB17420CFB08F734BFA2EB07425B
:1019C000B2EB074261EB17414FEA0C444FEA910733
:1019D00006FB07FC4FEA1C4C0CFB0BF7B0EBC740B7
:1019E00072EB573203FB0CF734BFA2EBC742B2EBEA
:1019F000C74261EB57310CFB0EF7B0EBC70072EB3F
:101A000057720CFB08F734BFA2EBC702B2EBC70258
:101A100061EB5771039F4FEA816141EA921104EB38
:101A2000CC044FEAD1374FEA826206FB07FC42EA58
:101A300090124FEA80604FEA1C4C0CFB0BF7D21B54
:101A400003FB0CF761EB07010CFB0EF7B0EB074053
:101A500072EB17420CFB08F734BFA2EB0742B2EB64
:101A6000074261EB17414FEA8C554FEA910704EBAF
:101A70009C2406FB07FC4FEA1C4C0CFB0BF7B0EB5D
:101A8000C74072EB573203FB0CF734BFA2EBC742DF
:101A9000B2EBC74261EB57310CFB0EF7B0EBC7005E
:101AA00072EB57720CFB08F734BFA2EBC702B2EB24
:101AB000C70261EB577115EB4C254FEA816141EA92
:101AC00092114FEA82624FEAD13742EA901206FB46
:101AD00007FC44F100044FEA80604FEA1C4C0CFB09
:101AE0000BF7D21B03FB0CF761EB07010CFB0EF7A6
:101AF000B0EB074072EB17420CFB08F734BFA2EBC8
:101B00000742B2EB074261EB174115EB1C154FEA98
:101B1000813141EA92414FEA823242EA90424FEAF1
:101B200080304FEA0C7644F1000448EA03434EEA61
:101B30000B484FF0000EB2EB080C71EB030724BF0B
:101B4000624639464EEB0E0E4FF0000B0018524124
:101B500049414BEB0B0BB2EB080C71EB03077BF12C
:101B6000000B24BF624639464EEB0E0E4FF0000BC1
:101B70000018524149414BEB0B0BB2EB080C71EBD7
:101B800003077BF1000B24BF624639464EEB0E0E75
:101B900051EA020718BF46F0010616EB0E7655F122
:101BA000000254F1000103D5BDE88901BDE80088B9
:101BB000BDE88901BDE80048B619524141EB010179
:101BC000A3F10103704780807F7E7D7C7B7A7978EA
:101BD000777676757473727171706F6E6E6D6C6CF2
:101BE0006B6A6A6968686766666564646363626194
:101BF0006160605F5F5E5E5D5D5C5C5B5B5A5A5915
:101C00005958585757565655555554545353525280
:101C10005251515050504F4F4F4E4E4D4D4D4C4CD8
:101C20004C4B4B4B4A4A4A49494948484847474721
:101C3000474646464545454444444443434343425E
:101C4000424242414141002B9C4630D477002BD088
:101C50001CB54FEA370703B44FF010004FF01001E6
:101C6000BAF1000F06D0BCF1000FDCBF40F0080055
:101C700040F008014FF000000FBCBDE810400BF130
:101C8000010BBBF1010F08BF5FEA170722BF12F17A
:101C9000010211F101014FF0004143F1000300F096
:101CA000004043EA00007047F9D35708D0E746EAFE
:101CB000064613F1400F4FEA16461FDD13F1200FC1
:101CC000DFBF16430A46002120335B42BED0C3F17A
:101CD000200746EA064602FA07F74FEA164646EAA2
:101CE0000706C3F1200722FA03F201FA07F721FAE7
:101CF00003F14FF0000342EA0702A7E746EA0206B3
:101D000046EA06464FEA164646EA0106BCBF46EAE0
:101D10000646360C4FF000034FF000024FF0000172
:101D200094E72DE9804C9A46934670B491E83800C8
:101D300007C831EA400C48BF34EA430C03D5FFF72B
:101D4000E6FDFFF780FFF0BCBDE8008C2DE9804C7C
:101D50009A46934670B491E8380007C810F0804F57
:101D600008BF13F0804F03D100F005F8FFF76BFFB9
:101D7000F0BCBDE8008C20F07F4780EA030023F030
:101D80007F4C07EB0C03A3F57C5300F00040A3F15C
:101D9000FE0392F0000F00F0B38095F0000F00F00A
:101DA00077802DE901494FEA11404FEA144621EAB4
:101DB000004800FB06FC24EA064708FB06F607FB82
:101DC00008F800FB07F718EB06484CEB164C4FEAF7
:101DD000124B18EB07484FEA15464CEB174022EA26
:101DE0000B4E0BFB06FC25EA06470EFB06F607FB2F
:101DF0000EFE0BFB07F71EEB064E4CEB164C4FF09E
:101E000000061EEB074E4CEB174B18EB0B0840F18E
:101E1000000018EB0E0B58EB000840F100008F1A81
:101E20004FF000013CBFC943661B14BFB5EB040C67
:101E300000213CBFC943F61B4FEA17444EEA8E0E01
:101E400027EA04454FEA1C4704FB07622CEA074CCB
:101E500005FB07F70CFB05F604FB0CFC16EB07462D
:101E600042EB174216EB0C4642EB1C421BEB0606FC
:101E700058EB0202414146EA9E0601D5BDE80189C0
:101E8000B619524141EB0101A3F10103BDE80189FB
:101E90004FEA14454FEA114724EA054621EA074C68
:101EA00005FB07F406FB07F70CFB06F105FB0CFC32
:101EB00011EB074144EB17444FEA124711EB0C4179
:101EC00044EB1C4422EA074C05FB07F206FB07F72C
:101ED0000CFB06F605FB0CFC16EB074642EB174223
:101EE00016EB0C4642EB1C456A1854F1000148BF42
:101EF0007047B619524141EB0101A3F1010370474C
:101F000095F0000F37D04FEA11424FEA144721EA0B
:101F1000024624EA074C02FB07F106FB07F70CFB1D
:101F200006F402FB0CFC14EB074441EB17414FEAAB
:101F3000154714EB0C4441EB1C4125EA074C02FB0E
:101F400007F506FB07F70CFB06F602FB0CFC16EB8D
:101F5000074645EB174516EB0C4645EB1C4212199C
:101F600051F1000148BF7047B619524141EB0101E0
:101F7000A3F1010370474FEA14454FEA114724EAE1
:101F8000054621EA074C05FB07F106FB07F70CFBAA
:101F900006F24FF0000605FB0CFC12EB074241EB8A
:101FA000174112EB0C4251EB1C4148BF704792188D
:101FB00041EB0101A3F101037047000010B5044893
:101FC00000F054FCBDE81040024800F04FBC000097
:101FD000200100208C01002010B5846AE16D11F011
:101FE000500F06D0E16DC90625D5204600F03CFC17
:101FF00010BDE06D40F40070E065206801680907DD
:1020000016D504F0E7FA78B12068C068800400288B
:102010000ADBE06D20F48070E065E06DC00403D45D
:10202000E06D40F00100E065204600F01BFC10BDB3
:10203000C0688007EBE7616D496BBDE81040084759
:1020400010B5806AC16D41F04001C165016E41F07B
:102050000401016600F008FC10BD10B5806A00F0B4
:1020600002FC10BD70B50446006881688268C1F347
:10207000400112F0010F28D039BB816801F00D0139
:10208000012914D18168124A1140891C816021689C
:102090000320086001F0C8FE054612E001F0C4FE0E
:1020A000401B02280DD920688068C00709D0E06D68
:1020B00040F01000E065206E40F001002066012035
:1020C00070BD20688068C007E8D1002070BD0000A6
:1020D000C0FFFF7F70B504460068816811F0010FF2
:1020E0002DD18168174A11421AD18168D543294000
:1020F000491C816001F098FE06461BE0816811F0E2
:10210000010F03D181682940491C816001F08CFED8
:10211000801B02280ED920680068C043C00709D080
:10212000E06D40F01000E065206E40F00100206698
:10213000012070BD20680168C943C907DED10020B5
:1021400070BD00003F000080FEE70000014800F085
:10215000F3BE000000030020014801F06BB800004E
:1021600024030020026892680B681A600A68121D36
:102170000A60006803681B0304D580681060086863
:10218000001D086070470A68036812685A600A6890
:10219000121D0A6000680368DB0204D51268426001
:1021A0000868001D08607047014801F025BB000069
:1021B00094040020014801F01FBB000058020020D9
:1021C000014801F019BB0000F8010020014801F0AE
:1021D00013BB000020080020014801F00DBB0000E7
:1021E00034040020014801F007BB00004C0300202C
:1021F000014801F001BB0000AC0300200D4902685A
:102200008A4201D20C4901E00B492031D2B2142399
:10221000083AB2FBF3F2436C02F01F0223F003030F
:102220001944816404498031C164012191400165F0
:102230007047000008040240000802400179074A84
:1022400002EB81024265054A4432491E826501F073
:102250001F0201219140C16570470000FC08024047
:1022600030B5D0E913456560446D14B1D0E9164529
:10227000656090F8444004F01F050124AC40056CF3
:102280006C60046863608368102B036803D09960F6
:102290000068C26030BD9A600068C16030BD7047A0
:1022A000002240F6B83306E00021491C89B2994269
:1022B000FBD3521C92B28242F6D37047012001F048
:1022C00079BC022001F076BC042001F073BC72B628
:1022D000FEE70000F8B500260446009690F8580086
:1022E0000D4601280BD0012084F858002046FFF746
:1022F000B9FE0100E06D04D040F010002AE0022099
:10230000F8BD20F4885040F00200E0652068826843
:10231000134B1A4005F080431A4342F0004282609A
:10232000104A20680EE0009B5B1C0093934209D387
:10233000E06D20F0020040F01000E06584F8586085
:102340000120F8BD8368DB0FEDD1E06D20F00200C5
:1023500040F00100E06584F858600846F8BD0000D0
:10236000C0FFFF3F02DE04007047704770477047B0
:10237000704700002DE9F047044690F858009CB0E3
:102380000E464FF00009012815D0012084F85800AE
:1023900000251795189520684FF0A04840450ED1AC
:1023A000284F0097384604F011F98246206804F05F
:1023B0000DF960B10EE002201CB0BDE8F087E06DC1
:1023C00040F02000E06584F858500120F4E7BAF1AD
:1023D000000F09D0E06D40F02000E0654FF00109EA
:1023E00084F858504846E7E71748326840F61F71AE
:1023F000002A826822F4604216D094F8383042EA0B
:10240000433273681A438260D8F80820BB6802F030
:10241000010203F001031A43E2D1B36832681A43A0
:1024200083688B431A430BE08260D8F80820BB68AE
:1024300002F0010203F001031A43D1D182688A43FA
:102440008260CDE700010050000300502DE9F84FF5
:1024500000270446009790F85800DFF8D8930D46FF
:10246000B846012811D0012684F85860206804F08D
:10247000A9F860B1E06D40F02000E0655FF0010771
:1024800084F858803846BDE8F88F0220FBE7D5E98C
:1024900000210C23206803EA91131844036B01F018
:1024A0001F014FF01F0C0CFA01FCC2F3846223EAF7
:1024B0000C038A4013430363206804F083F88246C8
:1024C000206804F07BF85AEA00003CD1AA68296829
:1024D0002068B2F1004F37D004F084F820684169D9
:1024E00021F00041416120686969C268C2F3C102FC
:1024F000520091402A69042A31D000EB82002B68F7
:10250000026EDFF834C303F0F84302EA0C020B4317
:102510001A4342F00041016620682A69A96900EB6C
:102520008200026E22F080720A430266297F2268CE
:102530002869012910D0002102EB8000026E22F0F0
:1025400000720A4302667DE0002204F04BF8206826
:10255000416941F00041C5E74FF00071ECE700210F
:1025600004F026F8400320684FF0000172D004F018
:102570001FF890FAA0F0B0FA80F1286842036ED0FC
:1025800090FAA0F0B0FA80F0814204D10022114606
:10259000206804F036F80121206804F009F84003AF
:1025A00020684FF001015DD004F002F890FAA0F02D
:1025B000B0FA80F12868420359D090FAA0F0B0FA3E
:1025C00080F0814204D100220121206804F019F832
:1025D0000221206803F0ECFF400320684FF0020165
:1025E00048D003F0E5FF90FAA0F0B0FA80F1286837
:1025F000420344D090FAA0F0B0FA80F0814204D1B6
:1026000000220221206803F0FCFF0321206803F070
:10261000CFFF400320684FF0030133D003F0C8FF21
:1026200090FAA0F0B0FA80F1286842032FD090FA17
:10263000A0F0B0FA80F0814204D10022032120688A
:1026400003F0DFFF2068816811F0010F22D0A8E0BD
:1026500000E004E003F0ACFFC0F384618DE7C0F359
:10266000846091E703F0A4FFC0F38461A2E7C0F3A4
:102670008460A6E703F09CFFC0F38461B7E7C0F372
:102680008460BBE703F094FFC0F38461CCE7C0F340
:102690008460D0E7EB6829684B4550F8B03FC1F340
:1026A000120101D10B4300E08B430360E868484509
:1026B00077D1286841031CD090FAA0F1B1FA81F1DA
:1026C000491C01F01F0109294FEA403132D8002985
:1026D00012D000BF90FAA0F1B1FA81F101F101012D
:1026E00001F01F0106FA01F609D100BFC0F38461B1
:1026F00009E0C0F38461E3E7C0F38461EEE790FA98
:10270000A0F1B1FA81F101F1010101F01F0146EAE6
:10271000816102D1C0F3846003E090FAA0F0B0FAC6
:1027200080F000F1010000F01F0000EB400041EAE2
:10273000005132E000290ED090FAA0F1B1FA81F1F7
:1027400001F1010101F01F0106FA01F606D100BFF7
:10275000C0F3846106E0C0F38461F1E790FAA0F170
:10276000B1FA81F101F1010101F01F0146EA816135
:1027700002D1C0F3846003E090FAA0F0B0FA80F0D8
:1027800000F1010000F01F002C4A00EB400002EBBA
:10279000005041EA000141F00071AA68206803F08E
:1027A00021FF27482A6802423FF46AAE2548816823
:1027B000254B01F0E0719A4202D0244B9A421CD181
:1027C0000B021AD42268B2F1A04F7FF459AE82688E
:1027D00041F4000122F0E0720A4382601C481D4966
:1027E0000068B0FBF1F0401C00EB4000800000E00E
:1027F000401E00900028FBD142E6174D174BAA421D
:1028000007D1CD0105D422689A42F5D041F08071FC
:1028100009E0134DAA42EFD14A02EDD422689A4250
:10282000EAD041F48001826822F0E0720A438260BB
:1028300026E6000000007F4000F0FF03000020FEBD
:102840000000088000030050000021C31000C09069
:1028500040000020400D0300000052C7000100505E
:10286000000084CB70477047704700002DE9F05F8F
:102870000446006806684568DFF854B2DBF80800D3
:1028800000F01F07B0070ED5A8070CD5E06DC006F5
:1028900003D4E06D40F40060E0652046FFF764FD7E
:1028A000216802200860DFF82CA270074FF0A048D2
:1028B00001D5680703D4300737D5280735D5E06D33
:1028C000C00603D4E06D40F40070E065206803F0BA
:1028D00081FE20B32068504501D1424600E0024607
:1028E000824208D03FB1052F05D0092F03D05045B3
:1028F00003D1414602E0C16801E00146C96889048C
:102900000DD4016809070AD503F05CFE58B3E06DE9
:1029100040F01000E065206E40F001002066204687
:10292000FFF7A0FF21680C200860B00601D5A806BB
:1029300003D4700658D5680656D5E06DC00603D49A
:10294000E06D40F40050E0652068C16C11F4C07F78
:102950001AD00021894603F03DFE0246206850450A
:1029600014D1434613E02068416821F00C01416016
:10297000E06D20F48070E065E06DC004CFD4E06DC0
:1029800040F00100E065CAE70121E3E70346834226
:1029900008D03FB1062F05D0072F03D0504503D1F3
:1029A000414602E0C16801E00146C968B9F1000F83
:1029B00014D08B0102D58AB18A040FD40268520662
:1029C0000CD589020AD403F0F9FDE8B3E06D40F0BC
:1029D0001000E065206E40F0010020662046FFF701
:1029E000C4FC21686020086030060BD5280609D594
:1029F000E06D40F48030E065204600F06BF921681E
:102A000080200860F0050CD5E8050AD5E06D40F49B
:102A10000030E0652046FFF7AAFC21684FF4807083
:102A20000860B0050CD5A8050AD5E06D40F48020FB
:102A3000E0652046FFF79CFC21684FF400700860B9
:102A4000F0062ED5E80600E008E02AD5E06BD0B10C
:102A5000AFB1DBF8080000F4604013E02068416883
:102A600021F060014160E06D20F48050E065E06D90
:102A7000C005B3D4E06D40F00100E065AEE720682A
:102A8000C068C00750B1E06D40F48060E065206E22
:102A900040F0020020662046FFF7E6FE2168102085
:102AA0000860700512D5680510D5E06D40F48040CF
:102AB000E065206E40F00800206621684FF48060D9
:102AC00008602046BDE8F05FFFF750BCBDE8F09F0E
:102AD0000003005000010050F8B54FF0000504005D
:102AE0002E46009502D0E06D10B107E00120F8BD40
:102AF000204600F0F1F8266684F858602068816866
:102B0000C1F3407119B181686A4A1140816020683F
:102B10008168C1F3007189B98168674A114041F049
:102B200080518160654866490068B0FBF1F0400063
:102B3000801C00E0401E00900028FBD120688168C6
:102B4000C1F3007141B9E16D41F01001E165216E01
:102B500041F001012166012503F034FDE16DC90654
:102B600000D430B1E06D40F01000E065012528464A
:102B7000F8BDE06D20F4807040F00200E065206850
:102B8000806810F0010F11D14FF0A04080684D49CE
:102B900000F00100896801F00101084306D14A48AC
:102BA0006168826822F47C120A438260E168E06B0B
:102BB000627F0843A16841EA4231084394F8241037
:102BC00040EA0140012904D1218D404A02EB4141F4
:102BD0000843E16A29B101F47871226B014342EAAA
:102BE00001002168CA683A4B1A400243CA60206853
:102BF0000169626B21F0406111430161206803F0BB
:102C0000E1FC0646206803F0D9FC30432ED1207F3A
:102C100094F83810800340EA41022068C16844F209
:102C2000020399431143C1602069002820680169AB
:102C30000AD041F480310161206850F8C01F226938
:102C40006FF30D01114307E021F480310161206829
:102C500050F8C01F6FF30D01016094F84000012887
:102C60000CD02068016921F001010161606901282F
:102C70002068016B21F00F0111D013E0D4E911019C
:102C80000843D4E913121143084321680A6940F24A
:102C9000FC739A43104340F001000861E6E7226AA2
:102CA000521E11430163E06D20F0020040F001006C
:102CB000E0655CE7C0FFFF5FC0FFFF7F40000020D2
:102CC000400D030000010050000300500000FEFF13
:102CD0000740F0FF704700002DE9F04F97B006461F
:102CE000142111A8FDF744FC44216846FDF740FC7F
:102CF0004FF40041306800258A034A4F4A4C4FF098
:102D000003084FF0800A4FF4807B4FF02009B0F1A8
:102D1000A04F10D0454B98424ED10F92684600917B
:102D200001F0E0FA08B1FFF7D2FA3868401C3860C9
:102D3000012844D04BE00F926846009101F0D2FA8E
:102D400008B1FFF7C4FA3868401C3860012807D181
:102D5000E06C40F40050E064E06C00F40050169029
:102D6000E06C40F00200E064E06C139500F00200BB
:102D700016904FF40060CDE9110811A92C4800F01D
:102D800025FF2D4C2B4804F10C0120600520C4E9DF
:102D9000010581E8200C4FF480602562C4E9060932
:102DA000204638E07465002202211220A66201F05C
:102DB000A1F8122001F090F817B0BDE8F08FE06C98
:102DC00040F40050E064E06C00F400501690E06CB9
:102DD00040F00100E064E06CCDF8449000F00100A8
:102DE000CDE9128516904F4611A94FF0904000F0A2
:102DF000EDFE114C0F486034143820602420C4E9E3
:102E0000010504F10C014FF4806081E8200C25627B
:102E1000C4E90607204600F04DFD0028C2D0FFF7A8
:102E200056FABFE7300000200010024000010050B9
:102E30000004004830000240F80100202DE9F04174
:102E40000446344817468846806800F01F0520680D
:102E500003F0B8FB00285AD194F85800012856D046
:102E6000012084F85800002625B1052D02D0092D37
:102E700000D003E02046FFF72DF918B184F8586020
:102E8000BDE8F081E06D40F60161884340F4807058
:102E9000E06521492068884202D14FF0A04100E05E
:102EA0000146814200D01DB9E06D20F48010E0653C
:102EB000E06DC00404D5206E20F00600206600E01E
:102EC0002666616D1548C862616D15480863616DBD
:102ED0001448486321681C20086084F85860206802
:102EE000416841F0100141602068C16841F0010172
:102EF000C16021683B4642464031606D00F03AFDBA
:102F000021688A68084B1A40121D8A60B8E70220BF
:102F1000B6E700000003005000010050D91F000870
:102F20005B20000841200008C0FFFF7F00680068A8
:102F3000C0F380707047000010B50F4A01689142DD
:102F400002D14FF400110EE00B4A121D914202D142
:102F50004FF4800107E0084A0832914201D1890606
:102F600001E04FF08041054A136831EA030302D1C2
:102F7000116000F00DF910BD000201401404014081
:102F8000F8B504004FF000000546009003D021681A
:102F90000968002901DA012575E0617F21B92077F0
:102FA0002062204600F07EF821680868E66800F498
:102FB0000002D4E90130184363693343184323699D
:102FC00018430B68314E334003430B60206801689F
:102FD00009020ED56AB92E492E4A0968B1FBF2F1F1
:102FE000491C01EB8101890000E0491E0091002984
:102FF000FBD12949884202D14FF400110EE0264945
:10300000091D884202D14FF4800107E022490831AE
:10301000884201D1810601E04FF08041A3691F4839
:103020009E07A0F1040228D0DE0600F104031E680A
:1030300001D50E4300E08E431E60237E9E06184B92
:103040001E6801D50E4300E08E431E60144B08330A
:103050001960237E9B07036801D50B4300E08B4377
:103060000360207EC00702D01068084301E01068AA
:1030700088431060607F20B105E003688B430360E4
:10308000F5E7012060772846F8BD00000F7E00FFBD
:1030900040000020400D03000002014004040140F4
:1030A0000C04014030B587B0044614216846FDF792
:1030B0005FFA2468214D0022214903234FF09040FC
:1030C000AC4209D1CC6C44F00104CC64C96C01F071
:1030D0000101059102210CE0184D2D1DAC4210D1CB
:1030E000CC6C44F00104CC64C96C01F00101059181
:1030F0008021CDE900130292694600F067FD07B018
:1031000030BD0E4D0835AC42F9D1CC6C44F0010411
:10311000CC64C96C029201F0010105910121CDE955
:103120000013694600F052FD00220321402000F008
:10313000E1FE402000F0D0FEE1E700000002014087
:103140000010024008B501004FF00000009003D0CD
:103150000A681368002B01DA012008BD4B7F012BA0
:10316000FAD1136843F00103136002224A7706493B
:10317000064A0968B1FBF2F101EB810100E0491E4A
:1031800000910029FBD108BD4000002080841E0072
:1031900010B500680D49884216D1202000F030FC9F
:1031A0000B48FFF7C3FE01280ED10A4801F052FF79
:1031B00005F09EFA07494FF6FF7009684862BDE8BE
:1031C0001040044801F00ABF10BD00000802014091
:1031D00000030020AC06002090F82100012802D155
:1031E00001490020887070470800002030B590F831
:1031F00021300022012B06D0416A41F002014162D8
:103200000122104630BD8C690B680D6923434C6860
:1032100000682C4323434C6923438C68C9682343CB
:103220000B430168024C21400B430360E9E70000B7
:1032300000F887FF10B5044600680168C90320D56F
:103240000068C0431DD4206904F10801401E2061BC
:103250002046FEF787FFE06828B1401EE060211D90
:103260002046FEF790FF206900280AD120680168F7
:1032700021F480310160012084F821002046FFF70D
:10328000ABFF10BD70B5040004D094F821000025F8
:1032900010B106E0012070BD84F82050204600F0F7
:1032A0000BF865626560A560E560256101206561D8
:1032B00084F82100002070BD2DE9F843064600681F
:1032C0002349884242D12348816C41F0080181643E
:1032D000806C224C00F0080000901F482060702095
:1032E0000025C4E9010504F10C0080274FF40078A3
:1032F0004FF4006980E8A003E5612046256200F0F4
:10330000D9FA08B1FEF7E3FFF461A662134C124844
:103310006034143020607120606004F108011020D6
:1033200081E8A103E5612046256200F0C3FA08B1F7
:10333000FEF7CDFFB461002203216420A66200F0F5
:10334000D9FDBDE8F843642000F0C6BDBDE8F883B0
:10335000000C0240001002401C0402404C030020FC
:10336000704700002DE9F0470446407990460D462D
:1033700001280BD04FF0010984F80590022020713C
:10338000A96808F01006042903D045E00220BDE832
:10339000F08700F049FD07465FEA08004FF0030898
:1033A00005D01CE000F040FDC01B01280FD82068AC
:1033B000406B0004F6D4012000F022FB2168686A0B
:1033C000086416E000F030FDC01B012807D9206911
:1033D00040F00800206184F804800320D7E72068CB
:1033E000406B0028EEDB012000F00AFB2168686AD0
:1033F00048642068816C40F2FF32B2409143AA6A6F
:10340000B240114381642068C16CFF22B2409143F5
:10341000EA6AB2401143C164E869012808D1226810
:10342000916B1F20B0408143286AB04008439063ED
:103430002068C06B0721B1408843A969012903D0E6
:10344000022955D06969E9B300216B69AA681A435A
:103450000A434FF4807101FA06F398432B79012B4C
:1034600000D0002111434FF4007202FA06F3984392
:103470006B79012B00D0002220F44047286842EAF3
:103480000108022836D00743216808FA06F03843BD
:10349000C863206801684FF48042B24091430160E4
:1034A0002268116840F6FE70B0408143E868B04081
:1034B0000843106020680168C022B2409143016057
:1034C000287B00E014E0297C2268C0F3830001F02F
:1034D0003C0140EA8110116E40F60F73B3409943EE
:1034E000B0400143116684F80490002060714EE7FB
:1034F0000121AAE701F028F90549884202D947F4D9
:103500000047C1E703498842BED947F48047BBE77B
:103510000068890900B4C404704770B504460068A7
:1035200001684FF00405890411D5416B89040ED55B
:103530002571216941F001012161E902416320689F
:10354000016821F4805101602046FFF7E5FF206803
:103550000168890014D5416B890011D52571216955
:1035600041F0020121614FF0005141632068016880
:1035700021F0805101602046BDE87040FFF7F0BEA9
:1035800070BD70B5040003D02079002510B105E0AE
:10359000012070BD6571204600F008F802202071FE
:1035A000256101202071002070BD00002DE9F04F41
:1035B00087B0054614216846FCF7DAFF2F4A2968D0
:1035C00000272F4810264FF080084FF480794FF4E1
:1035D000806A4FF0200B914230D1C16C41F48031B0
:1035E000C164C16C01F480310591C16C41F00101ED
:1035F000C164C06C694600F0010005900320CDE96C
:10360000006002974FF0904000F0E0FA1E4C1D4819
:1036100001C40620A4E8C10F700244F820091A482A
:1036200024E0AC60002202213620A56200F062FC9A
:10363000362000F051FC07B0BDE8F08F134A9142EC
:10364000F9D1C16C41F48021C164C06C0E4C00F40E
:10365000802005900E48603401C46620A4E8C10FA4
:103660004FF4005044F820090748603000F022F978
:103670000028D6D0FEF72BFED3E70000000800504C
:1036800000100240080402403404002000100050E2
:103690000800024018B50068C46B0090104421B1C6
:1036A000143000900360002018BD0830F9E72DE9C0
:1036B000F041044640790D46012822D04FF0010820
:1036C00084F805800226267121680A6805F0100733
:1036D00008FA07F002430A60404600F091F92068BA
:1036E000016885B101F47811BE40B14203D141684F
:1036F00041F00201416084F8048000206071BDE85F
:10370000F0810220FBE7C1F344010129F3D14168B4
:1037100041F00101EEE710B590F8253000210122BB
:10372000022B03D00421C163012122E003681C683D
:1037300024F00E041C60836C1C6824F480741C60EC
:1037400003681C6824F001041C6090F84430046C89
:1037500003F01F0302FA03F36360D0E913345C60E3
:10376000436D33B11C6824F480741C60D0E91634B6
:103770005C6080F82520002280F82420084610BDD7
:1037800070B590F82520002401212346022A07D095
:103790000422C26380F8251080F82430012429E037
:1037A0000268156825F00E0515600268156825F099
:1037B00001051560826C156825F48075156090F818
:1037C0004420056C02F01F0201FA02F26A60D0E99F
:1037D00013255560426D32B1156825F4807515606A
:1037E000D0E91625556080F8251080F82430816BCB
:1037F00001B18847204670BDF0B4016C0C680168C7
:103800000D6890F8442002F01F06042202FA06F325
:10381000234211D06B070FD50B689B0603D40B68AE
:1038200023F004030B6090F8441001F01F018A405C
:10383000016C4A60016B1DE0022303FA06F7274280
:103840004FF0000C4FF0010218D0AF0716D50C68EE
:10385000A40605D40C6824F00A040C6080F8252026
:1038600090F8441001F01F018B40016C4B6080F810
:1038700024C0C16A00291AD0F0BC08470823B3400D
:10388000234214D02B0712D50B6823F00E030B60D4
:1038900090F84410036C01F01F0102FA01F1596025
:1038A000C26380F8252080F824C0416BE2E7F0BCB9
:1038B0007047000070B504000CD02B4A216814201A
:1038C000914209D2294A0A44B2FBF0F080006064B8
:1038D00027480AE0012070BD234A52420A44B2FB45
:1038E000F0F080006064204808382064022084F8EA
:1038F00025000A6847F6F0708243D4E902031843B2
:10390000D4E904352B431843A3691843E3691843EA
:10391000236A1843104308602046FEF76FFCA06836
:103920000025B0F5804F00D16560A16C207908605A
:10393000D4E9130141606068401E032808D820467E
:10394000FEF77CFC606D0560D4E91601416002E081
:103950006565A565E565E563012084F8250084F8C3
:103960002450002070BD000008040240F8FFFDBF95
:103970000000024070B5044690F82400002501289C
:103980000CD0012084F8240094F825600020012E3A
:1039900006D084F824000225284670BD022070BDA0
:1039A000022684F82560E0632068066826F0010698
:1039B00006602046FEF754FC206B00282068016852
:1039C00002D041F00E0106E021F004010160206800
:1039D000016841F00A010160A06C0168C90303D5C8
:1039E000016841F480710160606D18B1016841F4B3
:1039F000807101602068016841F001010160CBE73E
:103A000070B5044600F010FA0546601C02D0044868
:103A10004068044400F008FA401BA042FAD370BD8D
:103A20003400002070B5564E0025564C012830D089
:103A300002287ED0042877D12020FFF7E1FF04215F
:103A4000304600F0E7F901286ED1E06901780029DD
:103A50006BD000210170C08804F00EFEE0694A4D71
:103A6000007838B100EB8000411900220123104694
:103A700004F08AFE607800287ED00022E069007899
:103A800000EB80004119BDE870400023184604F0A7
:103A90007BBE8020FFF7B4FF0121304600F0BAF969
:103AA00001286BD12078401CC0B2207005283DD081
:103AB000E0691230E0612078334900EB8000323950
:103AC00001EB4001002002F0E1FB0021012004F0A5
:103AD00083FE0021022004F07FFE0021032004F079
:103AE0007BFE002365701A4628A1182004F04CFEC6
:103AF00000231A4627A1482004F046FE00231A4658
:103B000026A1782004F040FE207800B1012000EBCF
:103B1000800024A1014400231A46A82004F034FEAA
:103B2000002104201FE004E028E023E02570204865
:103B3000C0E78020FFF764FF0221304600F06AF9F9
:103B400001281BD10021607804F046FE6078401CFB
:103B5000C1B26170207850B10020001D814200D1B7
:103B6000657060780121BDE8704004F035BE012029
:103B7000F3E701E001216DE701227FE770BD00005E
:103B80000004004808000020E6AC0008416D706C9D
:103B90000000000046726571000000004F667374FB
:103BA00000000000447574790020202020000000EF
:103BB000C4000020044910B50A68024202D008601F
:103BC000FFF730FF10BD0000140401402DE9F04F55
:103BD000DFF82092002301260324A9F1040B85B00D
:103BE0000F2709F1040AABF1040EFAE006FA03F517
:103BF0002A407CD091F804C00CF0030CBCF1010FFA
:103C000002D0BCF1020F26D1D0F808C0CDF800C018
:103C10004FEA430C04FA0CF8CDF810C0DDF800C0F0
:103C20002CEA080CCDF800C0D1F80C80DDF810C0EB
:103C300008FA0CF8DDF800C048EA0C08C0F8088063
:103C4000D0F804C02CEA050C0D79C5F300159D4091
:103C500045EA0C0545600D79ED43AD070ED0C5680A
:103C60004FEA430804FA08FC25EA0C05D1F808C01D
:103C70000CFA08FC4CEA050CC0F80CC00D7905F0F4
:103C80000305022D16D1DD0800EB850CCDF808C028
:103C9000DCF820805D074FEAD56C07FA0CF528EABE
:103CA00005080D6905FA0CF5DDF808C045EA0805B8
:103CB000CCF8205005684FEA430CCDF808C004FA50
:103CC0000CFC25EA0C0591F804C00CF00308DDF8A3
:103CD00008C008FA0CF848EA0508C0F800804D68EA
:103CE00015F4403F7CD0444DD5F860C000E077E04B
:103CF0004CF0010CC5F860C02D6E23F0030C05F0EC
:103D0000010500953D4D65440295AD684FEA837C01
:103D10004FEA1C7807FA08FC25EA0C05B0F1904F31
:103D200006D0DFF8DCC0604505D14FF0010C20E083
:103D30004FF0000C1DE0DFF8CCC0604502D14FF021
:103D4000020C16E0DFF8C0C0604502D14FF0030C52
:103D50000FE0DFF8B8C0604502D14FF0040C08E076
:103D6000DFF8ACC0604502D14FF0050C01E04FF028
:103D7000060C0CFA08FC4CEA050C029DC5F808C0BC
:103D8000D9F80050CC46D1F8048095435FEAC828A2
:103D900000D51543CCF80050DAF80050D446D1F8DD
:103DA000048095435FEA882800D51543CCF800507D
:103DB000DBF80050DC46D1F8048095435FEA883890
:103DC00000D51543CCF80050DEF80050F446D1F889
:103DD000048095435FEAC83800D51543CCF80050FD
:103DE0005B1C0A6832FA03F57FF400AF05B0BDE84A
:103DF000F08F000008040140001002400000014064
:103E00000004004800080048000C0048001000486A
:103E1000001400480069084000D0012070470AB132
:103E20008161704781627047014880687047000077
:103E30003400002002488168426811448160704764
:103E40003400002010B50024032000F073F8002097
:103E500000F008F808B1012401E000F025F8204640
:103E600010BD000070B50E4E05460024706898B174
:103E70004FF47A71B1FBF0F00A490968B1FBF0F038
:103E800000F0C8FE40B9102D06D200222946501E6F
:103E900000F030F8356000E00124204670BD0000DD
:103EA00034000020400000200A4882B0016E41F03A
:103EB00001010166016E01F001010091816D41F087
:103EC00080518165806D00F08050009002B000F05C
:103ED00001BA000000100240002809DB00F01F02B8
:103EE000012191404009800000F1E020C0F800115C
:103EF00070470000F0B40E4B1B680C46C3F302235E
:103F0000C3F10705042D00D90425191D072901D285
:103F1000002300E0DB1E012606FA05F1491E2140C0
:103F200099409E40761E16403143F0BC03F005BF19
:103F30000CED00E0064900F0070208684FF6FF03A9
:103F4000184040EA0220034A10430860704700000E
:103F50000CED00E00000FA05F8B504004FF0000594
:103F600014D094F83A00052810D094F83A000228AA
:103F70000CD03448016E41F001010166006E00F082
:103F80000100009094F83A0010B104E00120F8BD5F
:103F9000002084F83900204600F058F8A0682A4A2A
:103FA0004FF48071402836D0602834D020680368F0
:103FB000E66A23F0100333430360D4E90103184396
:103FC000D4E9033633431843237D012B00D000216D
:103FD0000843616A0843A16A0843218E40EAC14050
:103FE00094F8341040EA01612068036813401943D3
:103FF000016020688169002909DBD4E906121143B8
:10400000226A836923F03F031A431143816194F8C4
:104010003A0090B114E020680368E66A23F01003C8
:1040200033430360D4E901031843267D2369012E3D
:1040300000D000210B431843CBE7012084F83A005D
:104040002846F8BD00100240113E00E010B586B0D1
:10405000044614216846FCF78BFA0D492068884213
:1040600013D10C48C16C41F00101C164C06C6946B8
:1040700000F0010005900420009003200190002032
:1040800002904FF09040FFF7A1FD06B010BD000078
:1040900000030140001002402DE9F04104004FF000
:1040A000000807D094F83A00052803D094F83A00A5
:1040B000012804D04FF001084046BDE8F081206897
:1040C000016841F0020101602068016841F01001BF
:1040D00001602068016841F40061016020680168A6
:1040E00041F4405101602068016841F00101016024
:1040F000102608252068016821F0F85141EA066180
:1041000001600220FFF77CFC20680068400001D5B8
:104110002E4400E0761B6D08ECD12068016821F088
:10412000F85141EA066101600220FFF769FC20684E
:104130000168490006D50168761C21F0F85141EA72
:10414000066101602068016821F4405141F480510A
:104150000160102508272068016821F4780141EAF0
:10416000C54101600220FFF74BFC20680068400059
:1041700001D53D4400E0ED1B7F08ECD120680168CB
:1041800021F4780141EAC54101600220FFF738FCC3
:1041900020680168490006D501686D1C21F478018A
:1041A00041EAC54101602068016821F400610160B5
:1041B0002068016821F00101016054F82C0B0168AE
:1041C00021F002010160102084E8610054F82C0DF8
:1041D000016821F4780141EAC54101602068016865
:1041E00021F0F85141EA0661016065E7002138B12C
:1041F00090F83A20052A03D090F83A20012A02D0FC
:104200000121084670470268136843F001031360F8
:10421000042280F83A20F4E72B492C4B0A6832211B
:104220004A432B4940B1B0F5007F086829D020F4FB
:10423000C06040F480602CE00868C0F34120022890
:1042400004D051F8800F20F4807022E0D1F8800073
:1042500020F48070C1F88000086820F4C06040F449
:1042600000700860B2FBF3F0401C00E0401E4A6999
:10427000520501D50028F9D1486940050AD5032027
:104280007047C0F34120022806D051F8800F40F457
:104290008070086000207047D1F8800040F4807082
:1042A000C1F88000086820F4C06040F40070086025
:1042B000B2FBF3F0401C00E0401E4A695205DBD51A
:1042C0000028F9D1D8E700004000002040420F004C
:1042D000007000400248816841F48041816070476D
:1042E000007000402DE9F8430446006800269D4D0B
:1042F00000035ED5A86D0027C00008D4A86D40F06B
:104300008050A865A86D012700F080500090DFF86C
:104310005892D9F8001041F48071C9F80010FFF7E5
:1043200083FD804606E000BFFFF77EFDA0EB08009E
:1043300002282BD8D9F80000C005F5D5D5F8900093
:1043400010F4407014D0216C814211D0D5F8900047
:10435000D5F8901020F4407041F48031C5F89010E9
:10436000D5F8901021F48031C5F89010C5F8900070
:10437000C00711D0FFF758FD804641F2883907E0A9
:10438000FFF752FDA0EB0801494501D903260BE0D8
:10439000D5F890008007F3D5D5F89000216C20F473
:1043A00040700843C5F890001FB1A86D20F0805000
:1043B000A8652078C00707D0D5F88800616820F08C
:1043C00003000843C5F888002078800707D5D5F892
:1043D0008800A16820F00C000843C5F88800207808
:1043E000400707D5D5F88800E16820F03000084381
:1043F000C5F888002078000707D5D5F8880021691E
:1044000020F0C0000843C5F888002078800607D552
:10441000D5F88800616920F440600843C5F8880039
:104420002078400607D5D5F88800A16920F44050CF
:104430000843C5F888002078000607D5D5F888001D
:10444000E16920F440400843C5F888002088C00591
:1044500007D5D5F88800216A20F440300843C5F814
:1044600088002088800507D5D5F88800616A20F487
:1044700040200843C5F88800208840050FD5D5F8AE
:104480008800A16A20F440100843C5F88800A06A9B
:10449000B0F5801F03D1E86840F48010E860208800
:1044A00000050FD5D5F88800E16A20F440000843E4
:1044B000C5F88800E06AB0F5800F03D1E86840F4E1
:1044C0008010E8602088C0040FD5D5F88800216BE3
:1044D00020F040700843C5F88800206BB0F1807F61
:1044E00003D1E86840F48010E86020884FF0006154
:1044F00080040ED5D5F88800626B20F04060104330
:10450000C5F88800606B884203D1E86840F48010E9
:10451000E860208840040ED5D5F88800A26B20F012
:1045200040601043C5F88800A06B884203D1E8685A
:1045300040F48010E860208800040FD5D5F888008A
:10454000E16B20F040500843C5F88800E06BB0F103
:10455000805F03D1E86840F48030E8603046BDE811
:10456000F883000000100240007000402DE9F04781
:104570000E4605004FF0000725D0DFF8AC81D8F8D3
:10458000000000F00F00B0420CD2D8F8001021F06B
:104590000F013143C8F80010D8F8000000F00F00F8
:1045A000B04210D12968614CC80741F2883A5AD00C
:1045B0006868DFF87C91032808D0022820682DD095
:1045C000400500282CDB0120BDE8F0872068800131
:1045D000F9D5E06800F00302E068C0F30310401C66
:1045E000032A19D0534A00BFB2FBF0F0E268C2F3CD
:1045F00006225043E268C2F34162521C5200B0FBF3
:10460000F2F0484517D9A06810F0F00F0CD08807D9
:1046100011D5A86840B10EE0474AE5E78003D0E72E
:1046200000F0BCF8484506D9A06820F0F00040F042
:104630008000A0608027A068696820F0030008431C
:10464000A060FFF7F1FB814606E000BFFFF7ECFB3F
:10465000A0EB090151453AD8A068696800F00C0048
:10466000B0EB810FF2D12868810714D5400703D53C
:10467000A06840F4E060A0602878000705D5A06835
:1046800020F4605040F4E060A060A068A96820F0C9
:10469000F000084304E0802F03D1A06820F0F00070
:1046A000A060D8F80010404601F00F01B14216D9C1
:1046B000016821F00F0131430160FFF7B5FB0746A8
:1046C00007E000BFFFF7B0FBC11B514501D9032034
:1046D0007AE7D8F8000000F00F00B042F2D1287855
:1046E000400705D5A068E96820F4E0600843A060B1
:1046F0002878000706D5A068296920F4605040EAB0
:10470000C100A06000F04AF8A1680C4AC1F303118F
:10471000515C01F01F01C840094908600948006860
:10472000BDE8F047FFF79EBB0020024000100240AA
:1047300000B4C4040024F40000127A0018AD00088C
:10474000400000203400002001480068704700004D
:10475000400000200548064900688968054AC1F301
:104760000221515C01F01F01C84070474000002049
:104770000010024028AD0008054806490068896815
:10478000054AC1F3C221515C01F01F01C8407047C6
:10479000400000200010024028AD0008184910B564
:1047A0008868C0F381021748012A0BD08A68431039
:1047B000C2F38102022A06D08A68C2F38102032A68
:1047C00003D0002010BD184610BDCA6802F00304D3
:1047D000CA68C2F30312521C032C02D0B0FBF2F0E1
:1047E00001E0B3FBF2F0CA68C968C2F30622504385
:1047F000C1F34161491C4900B0FBF1F010BD00005C
:10480000001002400024F4002DE9F84304007AD09F
:104810002078FA4DC00747D0A868E96800F00C007E
:1048200001F003010C2802D0082817D001E0032969
:1048300014D06068B0F5803F17D0B0F5A02F28687D
:1048400017D020F480302860286820F48020286069
:104850006068E0B1FFF7E8FA064614E028688003D4
:1048600022D560680028D2D01EE0286840F480304D
:10487000EDE740F480202860F7E700BFFFF7D4FAA7
:10488000801B642870D828688003F7D50CE0FFF7F8
:10489000CBFA064605E000BFFFF7C6FA801B642886
:1048A000F0D828688003F7D4207880074CD5A86812
:1048B000E96800F00C0001F003010C2802D0042884
:1048C0000DD001E002290AD0E068002828682BD02A
:1048D00040F480702860FFF7A7FA064619E02868C0
:1048E000400502D5E068002891D06868217C20F05E
:1048F000FE4040EA01606860C1480068FFF7B2FA14
:10490000002800D120E076E1FFF78EFA801B022814
:10491000B8D828684005F7D56868217C20F0FE40AB
:1049200040EA016068600FE020F480702860FFF7C3
:104930007BFA064605E000BFFFF776FA801B0228E7
:10494000A0D828684005F7D42078000729D56069E9
:104950000028D5F8940013D040F00100C5F8940069
:10496000FFF762FA064606E090E000BFFFF75CFA48
:10497000801B022886D8D5F894008007F6D510E071
:1049800020F00100C5F89400FFF74EFA064604E057
:10499000FFF74AFA801B022878D8D5F894008007E0
:1049A000F6D42078400761D5A86D0026C00008D451
:1049B000A86D40F08050A865A86D012600F08050D9
:1049C000009090480168C90511D40168804641F4FF
:1049D00080710160FFF728FA074604E0FFF724FA28
:1049E000C01B022852D8D8F80000C005F6D5A06830
:1049F000012815D00528D5F8900016D020F0010028
:104A0000C5F89000D5F8900020F00400C5F890009B
:104A1000A06841F28838B8B1FFF706FA07460EE001
:104A2000D5F8900040F00100F0E740F00400C5F830
:104A30009000F5E7FFF7F8F9C11B414526D8D5F8F6
:104A400090008007F6D50CE0FFF7EEF9074604E08A
:104A5000FFF7EAF9C11B414518D8D5F89000800747
:104A6000F6D41EB1A86D20F08050A865207880068D
:104A700029D5A0690028D5F8980013D040F001008E
:104A8000C5F89800FFF7D0F9064606E077E000BFCA
:104A9000FFF7CAF9801B022877D8D5F8980080075D
:104AA000F6D510E020F00100C5F89800FFF7BCF93A
:104AB000064604E0FFF7B8F9801B022865D8D5F850
:104AC00098008007F6D4E069F0B3A968C1F38101CA
:104AD000032961D00228286820F0807028600BD05C
:104AE000E86820F00300E860E86847490840E860AB
:104AF000FFF79AF904464BE0FFF796F9064604E003
:104B0000FFF792F9801B02283FD828688001F7D46C
:104B1000F4E908016FF00F0202EB01110843218A4A
:104B20005204490802EB4151A26841EA02210843BC
:104B3000217D4FF07E42490802EB41610843217B11
:104B400040EAC160E96800E062E0304A1140084391
:104B5000E860286840F080702860E86840F0807065
:104B6000E860FFF761F9044605E000BFFFF75CF974
:104B7000001B022809D828688001F7D548E004E026
:104B8000FFF752F9001B022802D90320BDE8F88381
:104B900028688001F4D43BE00128F7D0E868226A55
:104BA00000F00301914226D1616A00F0F002090190
:104BB000103991421FD1A26A00F4FE41B1EB022FDD
:104BC00019D194F82C2000F07841B1EBC26F12D1CA
:104BD000218E00F4C00249084905A1F50011914257
:104BE00009D194F8341000F0C06049084906A1F1D9
:104BF000007181420CD00120C8E700000010024083
:104C00003400002000700040FFFFEEFE0C809F018A
:104C10000020BBE710B5401EB0F1807F01D301201A
:104C200010BD4FF0E02460610F21601703F085F89C
:104C30000020A06107202061002010BD7047704750
:104C40007047704770477047F0B590F83C20012AD4
:104C50003AD0012580F83C50022280F83D200368BC
:104C60005A689C68194E1A4FB34201D0BB4204D116
:104C700022F4700C4A6842EA0C02DFF858C002EADB
:104C80000C02D1F800C04CEA020CC3F804C0026860
:104C9000B2420DD0B2F1804F0AD00F4B9A4207D0EA
:104CA0000E4B9A4204D0BA4202D00D4B9A4204D124
:104CB000896824F080031943916080F83D500021F9
:104CC00080F83C100846F0BD0220F0BD002C0140E9
:104CD000003401408FFFFFFD000400400008004049
:104CE0000040014090F83C20012A0DD0012280F8BC
:104CF0003C200268136E23F470330B4313660021CB
:104D000080F83C10084670470220704710B590F8B4
:104D10003C400023012C0FD0012480F83C406AB1B4
:104D2000042A21D0082A24D00C2A29D001230021CA
:104D300080F83C10184610BD022010BD0268D46DEA
:104D400024F00F040C43D465104A0168914202D04C
:104D50000F4A914203D18A6E42F0010202E08A6E4C
:104D600022F001028A66E2E70268D46D24F47064DE
:104D700003E00268D46D24F470240C43D465D6E7B4
:104D80000268D46D24F07064F7E70000004401402D
:104D900000480140704710B5040003D094F83D006E
:104DA00010B107E0012010BD002084F83C0020462F
:104DB00000F022F8022084F83D00211D206802F056
:104DC000DBFA012084F8480084F83E0084F83F00B4
:104DD00084F8400084F8410084F8420084F84300DD
:104DE00084F8440084F8450084F8460084F84700BD
:104DF00084F83D00002010BD10B586B00446142193
:104E00006846FBF7B5FB514A21685148914207D1EA
:104E1000016E41F400610166006E00F400600CE078
:104E2000B1F1804F0CD04B4A914218D1816D41F0C5
:104E300002018165806D00F00200059006B010BD92
:104E4000816D41F001018165806D002200F001005B
:104E5000059011461C20FFF74DF81C2010E03E4A3B
:104E6000914210D1816D41F004018165806D002275
:104E700000F00400059002211E20FFF73BF81E20E1
:104E8000FFF72AF8DAE7354A91420ED1816D41F0F9
:104E900010018165806D002200F010000590022154
:104EA0003620FFF727F83620EAE72D4A91420ED147
:104EB000816D41F020018165806D002200F02000AD
:104EC000059002213720FFF715F83720D8E7254C49
:104ED00000220223A14219D1016E41F40051016662
:104EE000016E01F400510591C16C41F00101C164F2
:104EF000C06C694600F00100059098030090CDE970
:104F000001324FF09040CDE903231CE0164CA14242
:104F100094D1016E41F480310166016E01F480315B
:104F20000591C16C41F00201C164C06C694600F09A
:104F3000020005904FF480400090CDE9013201203D
:104F4000CDE903200948FEF741FE77E7002C014038
:104F50000010024000040040000800400010004023
:104F600000140040003401400040014000040048AB
:104F700090F83D10012901D001207047022180F8EE
:104F80003D1000680F4988420ED0B0F1804F0BD021
:104F90000D49884208D00D49884205D00C49884205
:104FA00002D00C49884207D181680B4A114006297A
:104FB00006D0B1F5803F03D0016841F001010160E6
:104FC00000207047002C0140000400400008004011
:104FD00000340140004001400700010090F83D10FE
:104FE000012901D001207047022180F83D1001689D
:104FF000CA6842F00102CA600068104988420ED0B7
:10500000B0F1804F0BD00E49884208D00D4988423C
:1050100005D00D49884202D00C49884207D18168E9
:105020000B4A1140062906D0B1F5803F03D0016834
:1050300041F001010160002070470000002C014098
:1050400000040040000800400034014000400140DE
:10505000070001000168CA6822F00102CA60016805
:105060000A6A41F211131A4207D10A6A9B001A42D6
:1050700003D10A6822F001020A60012180F83D1084
:105080000020704770B5044690F83C0000250128C8
:1050900014D0012684F83C60022084F83D00226888
:1050A0009068364B184020F47F4090600868702864
:1050B0002ED010DC10F00F0F03D021E04FF00200D3
:1050C00070BD4FEA2012072A1AD2DFE802F05252CE
:1050D00052524A3840002A4BC21A984249D009DC41
:1050E000B0F5805F0DD0B0F5005F1CD0B0F1101F9F
:1050F00006D13EE0102A3CD0202A3AD0502A38D09F
:10510000012584F83D60002084F83C00284670BDED
:10511000CB68D1E90121206802F093F92068816809
:1051200041F0770109E0CB68D1E90121206802F064
:1051300088F92068816841F480418160E1E7CA68AC
:105140004968206802F0FAF95021206806E0CA6830
:105150004968206802F03AFA6021206802F07CF980
:10516000CFE7CA684968206802F0E8F94021206862
:10517000F4E7226801461046F0E7000088FFCEFF02
:105180002000100070472DE9F041054690F83C00E2
:1051900000260C46012810D0012085F83C0072B191
:1051A000042A1CD0082A2CD00C2A50D0012600201A
:1051B00085F83C003046BDE8F0810220FBE7D4E9E9
:1051C0000012E368286802F0CBF92868816921F0B1
:1051D0000C01816128688169A26811430FE0D4E95C
:1051E0000012E368286802F003FA2868816921F454
:1051F0004061816128688169A26841EA0221816178
:10520000D5E72868D4E9002C277B016A21F4807156
:105210000162C169036A21F0030141EA0C0121F036
:10522000F00C39074FF420674CEA116123F4206336
:1052300007EA02221A43C16102622868C16921F0AB
:105240000C01C1612868C169A268114328E028687F
:10525000D4E90027E168036A23F480530362D0F89D
:105260001CC0036A2CF4407C4CEA07274FF6FF7CF5
:1052700027F470470CEA013139434FF4204723F4F7
:10528000204307EA02321A43C16102622868C169F9
:1052900021F44061C1612868C169A26841EA022124
:1052A000C16184E710B5040003D094F83D0010B14B
:1052B00007E0012010BD002084F83C00204600F0EB
:1052C00022F8022084F83D00211D206802F054F8E5
:1052D000012084F8480084F83E0084F83F0084F8F8
:1052E000400084F8410084F8420084F8430084F8C8
:1052F000440084F8450084F8460084F8470084F8A8
:105300003D00002010BD704730B50446002571B146
:10531000042911D0082914D00C2917D0102918D02D
:1053200094F8430094F84720012817D114E094F82A
:105330003E0094F84420F7E794F83F0094F84520A5
:10534000F2E794F8400094F84620EDE794F8410025
:10535000E8E794F84200E5E7012A01D0012030BDDA
:10536000022079B1042916D008291DD00C2949D072
:1053700010294AD084F8430084F847000C2947D00C
:1053800001253DE084F83E0084F844002068C268AE
:1053900042F0020210E084F83F0084F845002068E3
:1053A000C26842F0040207E084F8400084F8460036
:1053B0002068C26842F00802C2600122206802F040
:1053C00033F81649206888420ED0B0F1804F0BD0D8
:1053D0001349884208D01349884205D012498842AF
:1053E00002D01249884207D18168114A114006292A
:1053F00006D0B1F5803F03D0016841F001010160A2
:10540000284630BD84F84100B6E784F84200B3E78F
:105410002068C26842F01002CEE70000002C014074
:1054200000040040000800400034014000400140FA
:105430000700010070B50446006801694FF00005DF
:10544000C943890715D4C168C943890711D4E91E26
:10545000016101202077206880698007204602D002
:10546000FFF790FE04E000F0E3F8204600F0E1F8DA
:10547000257720680169C943490717D4C168C94322
:10548000490713D46FF004010161022020772068DE
:10549000806910F4407F204602D0FFF773FE04E0DD
:1054A00000F0C6F8204600F0C4F8257720680169AE
:1054B000C943090716D4C168C943090712D46FF05C
:1054C00008010161042020772068C0698007204618
:1054D00002D0FFF757FE04E000F0AAF8204600F0E3
:1054E000A8F8257720680169C943C90617D4C1689F
:1054F000C943C90613D46FF0100101610820207759
:105500002068C06910F4407F204602D0FFF73AFEC1
:1055100004E000F08DF8204600F08BF82577206835
:105520000169C943C90708D1C168C943C90704D182
:10553000891E0161204600F07DF820680169C94399
:10554000090609D4C168C943090605D46FF0800172
:1055500001612046FFF773FB20680169C943C90553
:1055600009D4C168C943090605D46FF4807101618B
:105570002046FFF763FB20680169C943490609D447
:10558000C168C943490605D46FF040010161204656
:1055900000F0E5FA20680169C943890609D4C168A9
:1055A000C943890605D46FF0200101612046FFF749
:1055B00047FB20680169C943C90209D4C168C943CE
:1055C000C90205D46FF4801101612046FFF73AFB50
:1055D00020680169C943890209D4C168C9438902A5
:1055E00005D46FF4001101612046FFF72AFB206803
:1055F0000169C943490209D4C168C943490205D4B4
:105600006FF4800101612046FFF71DFB20680169EE
:10561000C94309020BD4C168C943090207D46FF416
:10562000000101612046BDE87040FFF7B3BB70BDCB
:10563000704770472DE9F04104462DED0A8B006854
:10564000F649F74D884202D1217F01290FD0F54953
:1056500047F6FF76884219D10021F34800F03FFA5F
:10566000B6FBF0F0A881BDEC0A8BBDE8F081042107
:10567000EE4800F034FA642100FB01F40421EB4809
:1056800000F02DFAB4FBF0F06881ECE7E8498842BD
:1056900006D10021E74800F022FAB6FBF0F0E881DD
:1056A000E5492068884206D10021E44800F017FA55
:1056B000B6FBF0F02882E249206888420FD1D84931
:1056C00002221231DF48FDF7B9FBBDEC0A8B012243
:1056D000BDE8F041D249DC481831FDF7AFBBDB4EE5
:1056E000B0EE008AF7EE008A9FEDD9CA9FEDD9ABE4
:1056F0009FEDDABBDB4CB0F1804F0CD0DA49884229
:10570000B1D1207800287CD03068406A218A884254
:1057100079D20120C2E0207860B13068406A218AE5
:10572000884201D2012000E000206189628802FBEA
:10573000001095E0A07C38B3A08B03F051FF41EC42
:10574000190B3068416AC06A00EE101AF8EE400A80
:1057500000EE100AB8EE401A80EE810A50EE088A78
:10576000B0EEE80A10EE100A04F042F941EC180B12
:10577000A08A03F035FF53EC182B03F045FF41ECF2
:10578000100B53EC192B37E094F82400D0B3E08DC4
:1057900003F026FF41EC190B3068416AC06A00EE45
:1057A000101AF8EE400A00EE100AB8EE401A80EE29
:1057B000810A20EE0C0A20EE080A10EE100A04F00E
:1057C00017F941EC100B02F0CBFAB0EE408AF0EE84
:1057D000608AE08C03F004FF53EC182B03F014FFF5
:1057E00053EC1A2B03F010FF53EC192B03F084FC3D
:1057F00053EC1B2B41EC100B51EC100B03F07CFC19
:1058000002E050E003E048E003F0A6FE28E094F850
:10581000360000B3208F00EE100A3068F8EE400A20
:10582000416AC06A00EE101AB8EE400A20EE801AF3
:1058300000EE100AB4F84000B8EE400AC1EE000ACB
:1058400000EE100AB8EE400A30EE800ABCEEC00A44
:1058500085ED090A05E094F8480008B1B4F8520053
:1058600068620022114681486B6AFDF713FF18B188
:105870007FA1182000F00AFD002211467F486B6AC4
:10588000FDF708FF00283FF400AFBDEC0A8B7CA1B8
:105890003020BDE8F04100F0F9BC00206189628849
:1058A00002FB001092E0A07C38B3A08B03F098FEBE
:1058B00041EC190B3068416AC06A00EE101AF8EE2C
:1058C000400A00EE100AB8EE401A80EE810A50EE4F
:1058D000088AB0EEE80A10EE100A04F089F841ECEC
:1058E000180BA08A03F07CFE53EC182B03F08CFEFF
:1058F00041EC100B53EC192B37E094F82400D8B38B
:10590000E08D03F06DFE41EC190B3068416AC06A0E
:1059100000EE101AF8EE400A00EE100AB8EE401A37
:1059200080EE810A20EE0C0A20EE080A10EE100A22
:1059300004F05EF841EC100B02F012FAB0EE408A6F
:10594000F0EE608AE08C03F04BFE53EC182B03F072
:105950005BFE53EC1A2B03F057FE53EC192B03F0AC
:10596000CBFB53EC1B2B41EC100B51EC100B03F059
:10597000C3FB03F0F1FD29E0FFE794F8360000B324
:10598000208F00EE100A3068F8EE400A416AC06AC3
:1059900000EE101AB8EE400A60EE800A00EE100A1F
:1059A000B4F84000B8EE400A80EE801A00EE100A0B
:1059B000B8EE400A31EE000ABCEEC00A85ED090AD5
:1059C00005E094F8480010B1B4F852006862696AC2
:1059D0004FF48050814201D8084600E0686203F02D
:1059E000FFFD9FED2A1B53EC112B03F00DFE9FEDE5
:1059F000291B53EC112B03F005FF03F0ADFD86B21C
:105A0000A8882C894FF49B714FF61F07884245D117
:105A10003A46304602F023FE56E00000002C0140DA
:105A20000800002000080040140600203005002077
:105A300000340140F80600200040014044070020E7
:105A4000001000408C01002020010020C80500202B
:105A5000DC0F4940000000000000E03F00000000B3
:105A60000000A040C40000200014004020040020DA
:105A70004552522D44414333000000000C040020E5
:105A80004552522D4441433100000000FBFB736E30
:105A90006636A43F0000000000806B40A64207D895
:105AA00010E02046641CA4B23A46A98802F0D7FD53
:105AB000A642F6D208E02046641EA4B23A46A9885F
:105AC00002F0CDFDA642F6D92E81A888401E80B2F4
:105AD000A880502801D102F00BFEEE80C3E50246FB
