:020000040800F2
:10000000C80F0020ED0100081B5A0008734B0008C0
:10001000195A0008F5090008E96600080000000008
:10002000000000000000000000000000335D000838
:100030006F0B0008000000001D5A0008355D000825
:10004000070200080702000807020008070200086C
:1000500007020008070200088D0B0008930B000838
:10006000990B0008070200080702000807020008B1
:10007000550A0008610A00086D0A00080702000816
:10008000790A00080000000069080008070200085B
:10009000070200080702000807020008070200081C
:1000A00007020008C15D000807020008B55D0008EE
:1000B000DD5D000807020008E95D0008070200088E
:1000C00007020008070200080702000807020008EC
:1000D00007020008DD6600080702000807020008A2
:1000E00007020008070200080702000807020008CC
:1000F00007020008070200080702000800000000CD
:1001000000000000070200080000000007020008CD
:100110000702000800000000F55D0008195E0008F5
:10012000850A0008910A00089D0A0008A90A00082B
:10013000B50A0008000000000000000007020008E7
:10014000F909000807020008000000000000000094
:10015000000000000000000000000000000000009F
:10016000000000000000000000000000070200087E
:10017000070200080000000000000000000000006E
:10018000000000000702000800000000000000005E
:10019000000000000000000000000000000000005F
:1001A000000000000000000007020008070200082D
:1001B000070200080702000807020008000000000C
:1001C00000000000C10A000800000000000000005C
:1001D000050A000807020008DFF80CD000F032FB27
:1001E00000480047697C0008C80F00200648804787
:1001F00006480047FEE7FEE7FEE7FEE7FEE7FEE70C
:10020000FEE7FEE7FEE7FEE7A55D0008D90100086E
:100210002DE9F05F0546002092469B46884606463B
:10022000814640241BE0284641464746224600F0CE
:100230005AFA53465A46C01A914110D311461846ED
:10024000224600F041FA2D1A67EB01084F4622467C
:100250000120002100F038FA17EB00094E41201E62
:10026000A4F10104DFDC484631462A464346BDE896
:10027000F09F40EA01039B0703D009E008C9121F61
:1002800008C0042AFAD203E011F8013B00F8013B50
:10029000521EF9D27047D2B201E000F8012B491E7C
:1002A000FBD270470022F6E710B513460A46044613
:1002B0001946FFF7F0FF204610BD2DE9FE4F80469E
:1002C00081EA0300C00F0C46009021F0004123F0AA
:1002D0000045B8EB0200A94105D2404621469046B0
:1002E0001C460B46024623F00040104347D0270D22
:1002F000C7F30A00C3F30A510290401A0190402844
:100300006BDAC3F3130040F4801B0098924620B1CF
:100310000023D2EB030A63EB0B0B01985946C0F1A3
:100320004002504600F0D0F906460D465046594668
:10033000019A00F0E8F910EB08006141002487EA17
:10034000115284EAE7731A4340D0009A62B3019ACB
:10035000012A4FEA075215DC001B61EB02014FF046
:10036000004202EA0752CDE90042001C41F580112B
:1003700032462B4600F0E8F903B0BDE8F08F404666
:100380002146F9E7001B61EB0201001C41F58013D7
:1003900000185B412018A2F5001747EB030140EA63
:1003A000D570B6196D4111E06D084FEA360645EA81
:1003B000C0754FEA0752001B61EB0201001C41F5BA
:1003C000801149084FEA30000019514132462B464E
:1003D00003B0BDE8F04F00F0A8B90098012240003A
:1003E0000023D0EB020263EBE073009821464FEA52
:1003F000E074B8EB000061EB0401E9E783F000432F
:100400005BE781F0004158E72DE9FE4F81EA0304E4
:1004100004F0004421F0004100944FF0000B23F061
:10042000004350EA01045ED052EA03045BD0C3F3F8
:100430000A54C1F30A552C44A4F2F3340194A0FBEE
:100440000254C1F3130141F48011C3F3130343F4C5
:10045000801301FB024400FB034E840A970A44EA1E
:10046000815447EA8357A4FB076802958D0A05FB70
:1004700007854FEA932C04FB0C542705029D4FEA95
:10048000065847EA1637B5EB08056EEB070C870EE2
:10049000920E47EA811742EA8312A7FB0201B6EBEC
:1004A0000B0164EB00042B0D43EA0C335E1844EBA4
:1004B0001C50DA465146E7FB0201C5F313044FEA2C
:1004C0000B3343EA14534FEA0432019C43EA060318
:1004D000A4F10C040294009CCDE900B400F034F9BE
:1004E00003B0BDE8F08F00200146F9E72DE9F04D9B
:1004F00081EA030404F0004B21F0004514464FF05C
:10050000000A23F0004150EA050220D054EA01021B
:100510001DD0C5F30A570246C5F31303C1F31300F8
:10052000C1F30A5640F4801543F48013A7EB060884
:10053000101BD64608F2FD3873EB050002D308F114
:10054000010801E092185B41B8F1000F03DA0020C6
:100550000146BDE8F08D00204FF480110646844628
:100560000EE0171B73EB050705D3121B63EB0503A6
:1005700006434CEA010C49084FEA300092185B41EF
:1005800050EA0107EDD152EA030012D082EA0400DA
:1005900083EA0501084305D0101BAB4106D20122B6
:1005A000002306E000224FF0004302E06FF001025A
:1005B00053101AEB06004CEB085110EB0A0041EB0C
:1005C0000B01BDE8F04D00F0B0B80EB5C10F80EAE8
:1005D000E0700844CA07002140F233438DE80E0062
:1005E0000A460B4600F0B0F803B000BD0EB540F26D
:1005F000334102910021CDE900110A460B4600F07B
:10060000A3F803B000BD70B5C1F30A5201F0004574
:100610000024C1F3130140F2FF3341F480119A42E8
:1006200001DA002070BD40F233439A42A2F2334215
:1006300003DC524200F057F800E090402C43F1D028
:10064000404270BDC1F30A5210B5C1F3130140F22C
:10065000FF3341F480119A4201DA002010BD40F2CC
:1006600033439A42A2F2334203DC524200F03BF899
:1006700010BD904010BD00F0004230F000400AD0A4
:10068000C10D01F56071C0F3160042EA0151C208C4
:1006900040071143704700200146704730B50B46B4
:1006A000014600202022012409E021FA02F59D42A2
:1006B00005D303FA02F5491B04FA02F52844151E76
:1006C000A2F10102F1DC30BD202A04DB203A00FA5D
:1006D00002F1002070479140C2F1200320FA03F399
:1006E000194390407047202A04DB203A21FA02F097
:1006F0000021704721FA02F3D040C2F1200291405C
:10070000084319467047202A06DBCB17203A41FAE6
:1007100002F043EAE07306E041FA02F3D040C2F18E
:100720002002914008431946704710B5141E73F11A
:10073000000408DA401C41F1000192185B411A43A1
:1007400001D120F0010010BD2DE9F04D92469B46ED
:1007500011B1B1FA81F202E0B0FA80F22032904693
:10076000FFF7B2FF04460F4640EA0A0041EA0B01D8
:1007700053465A46084313D0114653EA010019D094
:10078000C8F140025046FFF7AEFF05460E46504600
:1007900059464246FFF798FF084305D0012004E080
:1007A00020463946BDE8F08D0020054346EAE07654
:1007B0002C4337430A986305E40AA0EB08000022A3
:1007C000FD0A44EA47540A3002D500200146E9E711
:1007D000010510196941DDE9084500196941BDE8C5
:1007E000F04DA2E7C1F30A52C1F3130140F2FF3307
:1007F00041F480119A4202DA00200146704740F22B
:1008000033439A42A2F2334202DC5242FFF76BBFFB
:10081000FFF75ABF30B5041E71F1000404DB4FF03E
:100820000044404264EB0101141E73F1000405DB37
:100830001C464FF00043524263EB0403994208BF49
:10084000904230BD064C074D06E0E06840F00103E1
:1008500094E8070098471034AC42F6D3FFF7C0FC89
:10086000409800086098000810B5044800F066FC45
:10087000BDE81040024800F061BC0000FC00002010
:100880006801002010B5846AE16D11F0500F06D0A8
:10089000E16DC90625D5204600F04EFC10BDE06D87
:1008A00040F40070E06520680168090716D504F07F
:1008B00099FB78B12068C068800400280ADBE06DED
:1008C00020F48070E065E06DC00403D4E06D40F07A
:1008D0000100E065204600F02DFC10BDC0688007D7
:1008E000EBE7616D496BBDE81040084710B5806AC1
:1008F000C16D41F04001C165016E41F00401016626
:1009000000F01AFC10BD10B5806A00F014FC10BD98
:1009100070B50446006881688268C1F3400112F036
:10092000010F28D039BB816801F00D01012914D1D4
:100930008168124A1140891C816021680320086087
:1009400001F092FE054612E001F08EFE401B0228E7
:100950000DD920688068C00709D0E06D40F0100014
:10096000E065206E40F001002066012070BD206827
:100970008068C007E8D1002070BD0000C0FFFF7F85
:1009800070B504460068816811F0010F2DD18168AF
:10099000174A11421AD18168D5432940491C816008
:1009A00001F062FE06461BE0816811F0010F03D1E1
:1009B00081682940491C816001F056FE801B022895
:1009C0000ED920680068C043C00709D0E06D40F030
:1009D0001000E065206E40F001002066012070BD2F
:1009E00020680168C943C907DED1002070BD00003E
:1009F0003F000080FEE70000014800F0FFBE00005D
:100A0000DC020020014801F065B80000000300206E
:100A1000026892680B681A600A68121D0A60006812
:100A200003681B0304D5806810600868001D086017
:100A300070470A68036812685A600A68121D0A60E3
:100A400000680368DB0204D5126842600868001D74
:100A500008607047014801F0EFBA0000340200203E
:100A6000014801F0E9BA0000D4010020014801F07A
:100A7000E3BA000068090020014801F0DDBA000077
:100A8000F8060020014801F0D7BA000078080020DD
:100A9000014801F0D1BA000028030020014801F00C
:100AA000CBBA000088030020014801F0C5BA00005D
:100AB000B8070020014801F0BFBA00001808002064
:100AC000014801F0B9BA0000580700200D4902683A
:100AD0008A4201D20C4901E00B492031D2B21423E1
:100AE000083AB2FBF3F2436C02F01F0223F0030357
:100AF0001944816404498031C16401219140016538
:100B00007047000008040240000802400179074ACB
:100B100002EB81024265054A4432491E826501F0BA
:100B20001F0201219140C16570470000FC0802408E
:100B300030B5D0E913456560446D14B1D0E9164570
:100B4000656090F8444004F01F050124AC40056C3A
:100B50006C60046863608368102B036803D099603D
:100B60000068C26030BD9A600068C16030BD7047E7
:100B7000002240F6B83306E00021491C89B29942B0
:100B8000FBD3521C92B28242F6D37047012001F08F
:100B900031BC022001F02EBC042001F02BBC72B647
:100BA000FEE70000F8B500260446009690F85800CD
:100BB0000D4601280BD0012084F858002046FFF78D
:100BC000A7FE0100E06D04D040F010002AE00220F2
:100BD000F8BD20F4885040F00200E065206882688B
:100BE000134B1A4005F080431A4342F000428260E2
:100BF000104A20680EE0009B5B1C0093934209D3CF
:100C0000E06D20F0020040F01000E06584F85860CC
:100C10000120F8BD8368DB0FEDD1E06D20F002000C
:100C200040F00100E06584F858600846F8BD000017
:100C3000C0FFFF3F02DE04007047704770477047F7
:100C4000704700002DE9F047044690F858009CB02A
:100C50000E464FF00009012815D0012084F85800F5
:100C600000251795189520684FF0A04840450ED1F3
:100C7000284F0097384604F0B1F98246206804F006
:100C8000ADF960B10EE002201CB0BDE8F087E06D68
:100C900040F02000E06584F858500120F4E7BAF1F4
:100CA000000F09D0E06D40F02000E0654FF0010931
:100CB00084F858504846E7E71748326840F61F71F5
:100CC000002A826822F4604216D094F8383042EA52
:100CD000433273681A438260D8F80820BB6802F078
:100CE000010203F001031A43E2D1B36832681A43E8
:100CF00083688B431A430BE08260D8F80820BB68F6
:100D000002F0010203F001031A43D1D182688A4341
:100D10008260CDE700010050000300502DE9F84F3C
:100D200000270446009790F85800DFF8D8930D4646
:100D3000B846012811D0012684F85860206804F0D4
:100D400049F960B1E06D40F02000E0655FF0010717
:100D500084F858803846BDE8F88F0220FBE7D5E9D3
:100D600000210C23206803EA91131844036B01F05F
:100D70001F014FF01F0C0CFA01FCC2F3846223EA3E
:100D80000C038A4013430363206804F023F982466E
:100D9000206804F01BF95AEA00003CD1AA682968CF
:100DA0002068B2F1004F37D004F024F9206841697F
:100DB00021F00041416120686969C268C2F3C10243
:100DC000520091402A69042A31D000EB82002B683E
:100DD000026EDFF834C303F0F84302EA0C020B435F
:100DE0001A4342F00041016620682A69A96900EBB4
:100DF0008200026E22F080720A430266297F226816
:100E00002869012910D0002102EB8000026E22F037
:100E100000720A4302667DE0002204F0EBF82068CD
:100E2000416941F00041C5E74FF00071ECE7002156
:100E300004F0C6F8400320684FF0000172D004F0BF
:100E4000BFF890FAA0F0B0FA80F1286842036ED0A3
:100E500090FAA0F0B0FA80F0814204D1002211464D
:100E6000206804F0D6F80121206804F0A9F84003B6
:100E700020684FF001015DD004F0A2F890FAA0F0D4
:100E8000B0FA80F12868420359D090FAA0F0B0FA85
:100E900080F0814204D100220121206804F0B9F8D9
:100EA0000221206804F08CF8400320684FF0020112
:100EB00048D004F085F890FAA0F0B0FA80F12868E4
:100EC000420344D090FAA0F0B0FA80F0814204D1FD
:100ED00000220221206804F09CF80321206804F01D
:100EE0006FF8400320684FF0030133D004F068F836
:100EF00090FAA0F0B0FA80F1286842032FD090FA5F
:100F0000A0F0B0FA80F0814204D1002203212068D1
:100F100004F07FF82068816811F0010F22D0A8E06A
:100F200000E004E004F04CF8C0F384618DE7C0F306
:100F3000846091E704F044F8C0F38461A2E7C0F351
:100F40008460A6E704F03CF8C0F38461B7E7C0F31F
:100F50008460BBE704F034F8C0F38461CCE7C0F3ED
:100F60008460D0E7EB6829684B4550F8B03FC1F387
:100F7000120101D10B4300E08B430360E868484550
:100F800077D1286841031CD090FAA0F1B1FA81F121
:100F9000491C01F01F0109294FEA403132D80029CC
:100FA00012D000BF90FAA0F1B1FA81F101F1010174
:100FB00001F01F0106FA01F609D100BFC0F38461F8
:100FC00009E0C0F38461E3E7C0F38461EEE790FADF
:100FD000A0F1B1FA81F101F1010101F01F0146EA2E
:100FE000816102D1C0F3846003E090FAA0F0B0FA0E
:100FF00080F000F1010000F01F0000EB400041EA2A
:10100000005132E000290ED090FAA0F1B1FA81F13E
:1010100001F1010101F01F0106FA01F606D100BF3E
:10102000C0F3846106E0C0F38461F1E790FAA0F1B7
:10103000B1FA81F101F1010101F01F0146EA81617C
:1010400002D1C0F3846003E090FAA0F0B0FA80F01F
:1010500000F1010000F01F002C4A00EB400002EB01
:10106000005041EA000141F00071AA68206803F0D5
:10107000C1FF27482A6802423FF46AAE25488168CA
:10108000254B01F0E0719A4202D0244B9A421CD1C8
:101090000B021AD42268B2F1A04F7FF459AE8268D5
:1010A00041F4000122F0E0720A4382601C481D49AD
:1010B0000068B0FBF1F0401C00EB4000800000E055
:1010C000401E00900028FBD142E6174D174BAA4264
:1010D00007D1CD0105D422689A42F5D041F0807144
:1010E00009E0134DAA42EFD14A02EDD422689A4298
:1010F000EAD041F48001826822F0E0720A43826003
:1011000026E6000000007F4000F0FF03000020FE04
:101110000000088000030050000021C31000C090B0
:1011200054000020400D0300000052C70001005091
:10113000000084CB70477047704700002DE9F05FD6
:101140000446006806684568DFF854B2DBF808001A
:1011500000F01F07B0070ED5A8070CD5E06DC0063C
:1011600003D4E06D40F40060E0652046FFF764FDC5
:10117000216802200860DFF82CA270074FF0A04819
:1011800001D5680703D4300737D5280735D5E06D7A
:10119000C00603D4E06D40F40070E065206803F001
:1011A00021FF20B32068504501D1424600E00246AD
:1011B000824208D03FB1052F05D0092F03D05045FA
:1011C00003D1414602E0C16801E00146C9688904D3
:1011D0000DD4016809070AD503F0FCFE58B3E06D91
:1011E00040F01000E065206E40F0010020662046CF
:1011F000FFF7A0FF21680C200860B00601D5A80603
:1012000003D4700658D5680656D5E06DC00603D4E1
:10121000E06D40F40050E0652068C16C11F4C07FBF
:101220001AD00021894603F0DDFE024620685045B1
:1012300014D1434613E02068416821F00C0141605D
:10124000E06D20F48070E065E06DC004CFD4E06D07
:1012500040F00100E065CAE70121E3E7034683426D
:1012600008D03FB1062F05D0072F03D0504503D13A
:10127000414602E0C16801E00146C968B9F1000FCA
:1012800014D08B0102D58AB18A040FD402685206A9
:101290000CD589020AD403F099FEE8B3E06D40F062
:1012A0001000E065206E40F0010020662046FFF748
:1012B000C4FC21686020086030060BD5280609D5DB
:1012C000E06D40F48030E065204600F06BF9216865
:1012D00080200860F0050CD5E8050AD5E06D40F4E3
:1012E0000030E0652046FFF7AAFC21684FF48070CB
:1012F0000860B0050CD5A8050AD5E06D40F4802043
:10130000E0652046FFF79CFC21684FF40070086000
:10131000F0062ED5E80600E008E02AD5E06BD0B153
:10132000AFB1DBF8080000F4604013E020684168CA
:1013300021F060014160E06D20F48050E065E06DD7
:10134000C005B3D4E06D40F00100E065AEE7206871
:10135000C068C00750B1E06D40F48060E065206E69
:1013600040F0020020662046FFF7E6FE21681020CC
:101370000860700512D5680510D5E06D40F4804016
:10138000E065206E40F00800206621684FF4806020
:1013900008602046BDE8F05FFFF750BCBDE8F09F55
:1013A0000003005000010050F8B54FF000050400A4
:1013B0002E46009502D0E06D10B107E00120F8BD87
:1013C000204600F0F1F8266684F8586020688168AD
:1013D000C1F3407119B181686A4A11408160206887
:1013E0008168C1F3007189B98168674A114041F091
:1013F00080518160654866490068B0FBF1F04000AB
:10140000801C00E0401E00900028FBD1206881680D
:10141000C1F3007141B9E16D41F01001E165216E48
:1014200041F001012166012503F0D4FDE16DC906FB
:1014300000D430B1E06D40F01000E0650125284691
:10144000F8BDE06D20F4807040F00200E065206897
:10145000806810F0010F11D14FF0A04080684D4915
:1014600000F00100896801F00101084306D14A48F3
:101470006168826822F47C120A438260E168E06B52
:10148000627F0843A16841EA4231084394F824107E
:1014900040EA0140012904D1218D404A02EB41413B
:1014A0000843E16A29B101F47871226B014342EAF1
:1014B00001002168CA683A4B1A400243CA6020689A
:1014C0000169626B21F0406111430161206803F002
:1014D00081FD0646206803F079FD30432ED1207F40
:1014E00094F83810800340EA41022068C16844F251
:1014F000020399431143C1602069002820680169F3
:101500000AD041F480310161206850F8C01F22697F
:101510006FF30D01114307E021F480310161206870
:1015200050F8C01F6FF30D01016094F840000128CE
:101530000CD02068016921F0010101616069012876
:101540002068016B21F00F0111D013E0D4E91101E3
:101550000843D4E913121143084321680A6940F291
:10156000FC739A43104340F001000861E6E7226AE9
:10157000521E11430163E06D20F0020040F00100B3
:10158000E0655CE7C0FFFF5FC0FFFF7F5400002005
:10159000400D030000010050000300500000FEFF5A
:1015A0000740F0FF704700002DE9F04F97B0064666
:1015B000142111A8FEF776FE44216846FEF772FE5C
:1015C0004FF40041306800258A034A4F4A4C4FF0DF
:1015D00003084FF0800A4FF4807B4FF02009B0F1F0
:1015E000A04F10D0454B98424ED10F9268460091C3
:1015F00001F098FA08B1FFF7D2FA3868401C386059
:10160000012844D04BE00F926846009101F08AFA1D
:1016100008B1FFF7C4FA3868401C3860012807D1C8
:10162000E06C40F40050E064E06C00F40050169070
:10163000E06C40F00200E064E06C139500F0020002
:1016400016904FF40060CDE9110811A92C4800F064
:10165000DDFE2D4C2B4804F10C0120600520C4E96F
:10166000010581E8200C4FF480602562C4E9060979
:10167000204638E07465002202211220A66201F0A3
:1016800059F8122001F048F817B0BDE8F08FE06C6F
:1016900040F40050E064E06C00F400501690E06C00
:1016A00040F00100E064E06CCDF8449000F00100EF
:1016B000CDE9128516904F4611A94FF0904000F0E9
:1016C000A5FE114C0F486034143820602420C4E972
:1016D000010504F10C014FF4806081E8200C2562C3
:1016E000C4E90607204600F005FD0028C2D0FFF738
:1016F00056FABFE7440000200010024000010050ED
:101700000004004830000240D40100202DE9F041DF
:101710000446344817468846806800F01F05206854
:1017200003F058FC00285AD194F85800012856D0EC
:10173000012084F85800002625B1052D02D0092D7E
:1017400000D003E02046FFF71BF918B184F8586079
:10175000BDE8F081E06D40F60161884340F480709F
:10176000E06521492068884202D14FF0A04100E0A5
:101770000146814200D01DB9E06D20F48010E06583
:10178000E06DC00404D5206E20F00600206600E065
:101790002666616D1548C862616D15480863616D04
:1017A0001448486321681C20086084F85860206849
:1017B000416841F0100141602068C16841F00101B9
:1017C000C16021683B4642464031606D00F0F2FC4A
:1017D00021688A68084B1A40121D8A60B8E7022007
:1017E000B6E7000000030050000100508508000823
:1017F00007090008ED080008C0FFFF7F10B50F4A79
:101800000168914202D14FF400110EE00B4A121D03
:10181000914202D14FF4800107E0084A0832914218
:1018200001D1890601E04FF08041054A136831EA91
:10183000030302D1116000F00DF910BD0002014058
:1018400014040140F8B504004FF000000546009074
:1018500003D021680968002901DA012575E0617F5C
:1018600021B920772062204600F07EF821680868C0
:10187000E66800F40002D4E9013018436369334399
:101880001843236918430B68314E334003430B6000
:101890002068016809020ED56AB92E492E4A0968E6
:1018A000B1FBF2F1491C01EB8101890000E0491E06
:1018B00000910029FBD12949884202D14FF400113F
:1018C0000EE02649091D884202D14FF4800107E04D
:1018D00022490831884201D1810601E04FF0804160
:1018E000A3691F489E07A0F1040228D0DE0600F17C
:1018F00004031E6801D50E4300E08E431E60237E64
:101900009E06184B1E6801D50E4300E08E431E60F4
:10191000144B08331960237E9B07036801D50B43E2
:1019200000E08B430360207EC00702D010680843AC
:1019300001E0106888431060607F20B105E0036813
:101940008B430360F5E7012060772846F8BD00006F
:101950000F7E00FF54000020400D030000020140F4
:10196000040401400C04014030B587B00446142142
:101970006846FEF797FC2468214D00222149032385
:101980004FF09040AC4209D1CC6C44F00104CC64DF
:10199000C96C01F00101059102210CE0184D2D1DCB
:1019A000AC4210D1CC6C44F00104CC64C96C01F0A1
:1019B000010105918021CDE900130292694600F0F2
:1019C00025FD07B030BD0E4D0835AC42F9D1CC6CC9
:1019D00044F00104CC64C96C029201F0010105914C
:1019E0000121CDE90013694600F010FD002201211C
:1019F000402000F09FFE402000F08EFEE1E7000056
:101A0000000201400010024008B501004FF0000044
:101A1000009003D00A681368002B01DA012008BD8A
:101A20004B7F012BFAD1136843F0010313600222AC
:101A30004A770649064A0968B1FBF2F101EB8101D8
:101A400000E0491E00910029FBD108BD5400002090
:101A500080841E0010B500680549884207D1202007
:101A600000F0EEFB0348C17881F00101C17010BDA8
:101A7000080201400800002090F82100012802D14E
:101A800001490020887070470800002030B590F8A8
:101A900021300022012B06D0416A41F0020141624F
:101AA0000122104630BD8C690B680D6923434C68D8
:101AB00000682C4323434C6923438C68C968234343
:101AC0000B430168024C21400B430360E9E700002F
:101AD00000F887FF10B5044600680168C90320D5E7
:101AE0000068C0431DD4206904F10801401E206134
:101AF0002046FEF78DFFE06828B1401EE060211D02
:101B00002046FEF796FF206900280AD12068016868
:101B100021F480310160012084F821002046FFF784
:101B2000ABFF10BD70B5040004D094F8210000256F
:101B300010B106E0012070BD84F82050204600F06E
:101B40000BF865626560A560E5602561012065614F
:101B500084F82100002070BD2DE9F8430646006896
:101B60002349884242D12348816C41F008018164B5
:101B7000806C224C00F0080000901F48206070200C
:101B80000025C4E9010504F10C0080274FF400781A
:101B90004FF4006980E8A003E5612046256200F06B
:101BA000A9FA08B1FEF7FBFFF461A662134C1248D4
:101BB0006034143020607120606004F1080110204E
:101BC00081E8A103E5612046256200F093FA08B19F
:101BD000FEF7E5FFB461002203216420A66200F055
:101BE000A9FDBDE8F843642000F096BDBDE8F88388
:101BF000000C0240001002401C0402402803002098
:101C0000704700002DE9F0470446407990460D46A4
:101C100001280BD04FF0010984F8059002202071B3
:101C2000A96808F01006042903D045E00220BDE8A9
:101C3000F08700F019FD07465FEA08004FF003083F
:101C400005D01CE000F010FDC01B01280FD8206853
:101C5000406B0004F6D4012000F0F2FA2168686AB3
:101C6000086416E000F000FDC01B012807D92069B8
:101C700040F00800206184F804800320D7E7206842
:101C8000406B0028EEDB012000F0DAFA2168686A78
:101C900048642068816C40F2FF32B2409143AA6AE6
:101CA000B240114381642068C16CFF22B24091436D
:101CB000EA6AB2401143C164E869012808D1226888
:101CC000916B1F20B0408143286AB0400843906365
:101CD0002068C06B0721B1408843A969012903D05E
:101CE000022955D06969E9B300216B69AA681A43D2
:101CF0000A434FF4807101FA06F398432B79012BC4
:101D000000D0002111434FF4007202FA06F3984309
:101D10006B79012B00D0002220F44047286842EA6A
:101D20000108022836D00743216808FA06F0384334
:101D3000C863206801684FF48042B240914301605B
:101D40002268116840F6FE70B0408143E868B040F8
:101D50000843106020680168C022B24091430160CE
:101D6000287B00E014E0297C2268C0F3830001F0A6
:101D70003C0140EA8110116E40F60F73B340994365
:101D8000B0400143116684F80490002060714EE772
:101D90000121AAE701F0F8F80549884202D947F481
:101DA0000047C1E703498842BED947F48047BBE7F3
:101DB0000068890900B4C404704770B5044600681F
:101DC00001684FF00405890411D5416B89040ED5D3
:101DD0002571216941F001012161E9024163206817
:101DE000016821F4805101602046FFF7E5FF20687B
:101DF0000168890014D5416B890011D525712169CD
:101E000041F0020121614FF00051416320680168F7
:101E100021F0805101602046BDE87040FFF7F0BE20
:101E200070BD70B5040003D02079002510B105E025
:101E3000012070BD6571204600F008F80220207175
:101E4000256101202071002070BD000010B586B012
:101E5000044614216846FEF725FA1B4A21681B48F0
:101E600091421BD1C16C41F48031C164C16C01F459
:101E700080310591C16C41F00101C164C06C6946BB
:101E800000F0010005901020009003200190002038
:101E900002904FF0904000F0B9FA0AE00C4A9142EB
:101EA0000FD1C16C41F48021C164C06C00F480206A
:101EB000059000220221362000F03CFC362000F084
:101EC0002BFC06B010BD00000008005000100240BE
:101ED0000010005018B50068C46B0090104421B188
:101EE000143000900360002018BD0830F9E72DE998
:101EF000F041044640790D46012822D04FF00108F8
:101F000084F805800226267121680A6805F010070A
:101F100008FA07F002430A60404600F091F9206891
:101F2000016885B101F47811BE40B14203D1416826
:101F300041F00201416084F8048000206071BDE836
:101F4000F0810220FBE7C1F344010129F3D141688C
:101F500041F00101EEE710B590F825300021012293
:101F6000022B03D00421C163012122E003681C6815
:101F700024F00E041C60836C1C6824F480741C60C4
:101F800003681C6824F001041C6090F84430046C61
:101F900003F01F0302FA03F36360D0E913345C60BB
:101FA000436D33B11C6824F480741C60D0E916348E
:101FB0005C6080F82520002280F82420084610BDAF
:101FC00070B590F82520002401212346022A07D06D
:101FD0000422C26380F8251080F82430012429E00F
:101FE0000268156825F00E0515600268156825F071
:101FF00001051560826C156825F48075156090F8F0
:102000004420056C02F01F0201FA02F26A60D0E976
:1020100013255560426D32B1156825F48075156041
:10202000D0E91625556080F8251080F82430816BA2
:1020300001B18847204670BDF0B4016C0C6801689E
:102040000D6890F8442002F01F06042202FA06F3FD
:10205000234211D06B070FD50B689B0603D40B6886
:1020600023F004030B6090F8441001F01F018A4034
:10207000016C4A60016B1DE0022303FA06F7274258
:102080004FF0000C4FF0010218D0AF0716D50C68C6
:10209000A40605D40C6824F00A040C6080F82520FE
:1020A00090F8441001F01F018B40016C4B6080F8E8
:1020B00024C0C16A00291AD0F0BC08470823B340E5
:1020C000234214D02B0712D50B6823F00E030B60AC
:1020D00090F84410036C01F01F0102FA01F15960FD
:1020E000C26380F8252080F824C0416BE2E7F0BC91
:1020F0007047000070B504000CD02B4A21681420F2
:10210000914209D2294A0A44B2FBF0F0800060648F
:1021100027480AE0012070BD234A52420A44B2FB1C
:10212000F0F080006064204808382064022084F8C1
:1021300025000A6847F6F0708243D4E90203184389
:10214000D4E904352B431843A3691843E3691843C2
:10215000236A1843104308602046FEF7B7FCA068C6
:102160000025B0F5804F00D16560A16C2079086032
:10217000D4E9130141606068401E032808D8204656
:10218000FEF7C4FC606D0560D4E91601416002E011
:102190006565A565E565E563012084F8250084F89B
:1021A0002450002070BD000008040240F8FFFDBF6D
:1021B0000000024070B5044690F824000025012874
:1021C0000CD0012084F8240094F825600020012E12
:1021D00006D084F824000225284670BD022070BD78
:1021E000022684F82560E0632068066826F0010670
:1021F00006602046FEF79CFC206B002820680168E2
:1022000002D041F00E0106E021F0040101602068D7
:10221000016841F00A010160A06C0168C90303D59F
:10222000016841F480710160606D18B1016841F48A
:10223000807101602068016841F001010160CBE715
:1022400070B5044600F010FA0546601C02D0044840
:102250004068044400F008FA401BA042FAD370BD65
:102260004800002070B5564E0025564C012830D04D
:1022700002287ED0042877D12020FFF7E1FF042137
:10228000304600F0E7F901286ED160690178002935
:102290006BD000210170C08805F05AFB60694A4D7F
:1022A000007838B100EB800041190022012310466C
:1022B00005F034FC607800287ED000226069007848
:1022C00000EB80004119BDE870400023184605F07E
:1022D00025BC8020FFF7B4FF0121304600F0BAF999
:1022E00001286BD12078401CC0B2207005283DD059
:1022F0006069123060612078334900EB8000323928
:1023000001EB4001002002F0C9FC0021012005F092
:102310002DFC0021022005F029FC0021032005F0FE
:1023200025FC002365701A4628A1182005F0F6FB4D
:1023300000231A4627A1482005F0F0FB00231A4687
:1023400026A1782005F0EAFB207800B1012000EBFF
:10235000800024A1014400231A46A82005F0DEFBDA
:10236000002104201FE004E028E023E0257020483D
:10237000C0E78020FFF764FF0221304600F06AF9D1
:1023800001281BD10021607805F0F0FB6078401C2B
:10239000C1B26170207850B10020001D814200D18F
:1023A000657060780121BDE8704005F0DFBB012059
:1023B000F3E701E001216DE701227FE770BD000036
:1023C0000004004808000020D2960008416D706C9F
:1023D0000000000046726571000000004F667374D3
:1023E00000000000447574790020202020000000C7
:1023F000A0000020044910B50A68024202D008601B
:10240000FFF730FF10BD0000140401402DE9F04F2C
:10241000DFF82092002301260324A9F1040B85B0E4
:102420000F2709F1040AABF1040EFAE006FA03F5EE
:102430002A407CD091F804C00CF0030CBCF1010FD1
:1024400002D0BCF1020F26D1D0F808C0CDF800C0F0
:102450004FEA430C04FA0CF8CDF810C0DDF800C0C8
:102460002CEA080CCDF800C0D1F80C80DDF810C0C3
:1024700008FA0CF8DDF800C048EA0C08C0F808803B
:10248000D0F804C02CEA050C0D79C5F300159D4069
:1024900045EA0C0545600D79ED43AD070ED0C568E2
:1024A0004FEA430804FA08FC25EA0C05D1F808C0F5
:1024B0000CFA08FC4CEA050CC0F80CC00D7905F0CC
:1024C0000305022D16D1DD0800EB850CCDF808C000
:1024D000DCF820805D074FEAD56C07FA0CF528EA96
:1024E00005080D6905FA0CF5DDF808C045EA080590
:1024F000CCF8205005684FEA430CCDF808C004FA28
:102500000CFC25EA0C0591F804C00CF00308DDF87A
:1025100008C008FA0CF848EA0508C0F800804D68C1
:1025200015F4403F7CD0444DD5F860C000E077E022
:102530004CF0010CC5F860C02D6E23F0030C05F0C3
:10254000010500953D4D65440295AD684FEA837CD9
:102550004FEA1C7807FA08FC25EA0C05B0F1904F09
:1025600006D0DFF8DCC0604505D14FF0010C20E05B
:102570004FF0000C1DE0DFF8CCC0604502D14FF0F9
:10258000020C16E0DFF8C0C0604502D14FF0030C2A
:102590000FE0DFF8B8C0604502D14FF0040C08E04E
:1025A000DFF8ACC0604502D14FF0050C01E04FF000
:1025B000060C0CFA08FC4CEA050C029DC5F808C094
:1025C000D9F80050CC46D1F8048095435FEAC8287A
:1025D00000D51543CCF80050DAF80050D446D1F8B5
:1025E000048095435FEA882800D51543CCF8005055
:1025F000DBF80050DC46D1F8048095435FEA883868
:1026000000D51543CCF80050DEF80050F446D1F860
:10261000048095435FEAC83800D51543CCF80050D4
:102620005B1C0A6832FA03F57FF400AF05B0BDE821
:10263000F08F00000804014000100240000001403B
:102640000004004800080048000C00480010004842
:10265000001400480069084000D0012070470AB10A
:10266000816170478162704701488068704700004F
:102670004800002002488168426811448160704728
:102680004800002010B50024032000F073F800205B
:1026900000F008F808B1012401E000F025F8204618
:1026A00010BD000070B50E4E05460024706898B14C
:1026B0004FF47A71B1FBF0F00A490968B1FBF0F010
:1026C00000F0C8FE40B9102D06D200222946501E47
:1026D00000F030F8356000E00124204670BD0000B5
:1026E00048000020540000200A4882B0016E41F0EA
:1026F00001010166016E01F001010091816D41F05F
:1027000080518165806D00F08050009002B000F033
:1027100001BA000000100240002809DB00F01F028F
:10272000012191404009800000F1E020C0F8001133
:1027300070470000F0B40E4B1B680C46C3F3022335
:10274000C3F10705042D00D90425191D072901D25D
:10275000002300E0DB1E012606FA05F1491E214098
:1027600099409E40761E16403143F0BC03F0E8BF0E
:102770000CED00E0064900F0070208684FF6FF0381
:10278000184040EA0220034A1043086070470000E6
:102790000CED00E00000FA05F8B504004FF000056C
:1027A00014D094F83A00052810D094F83A00022882
:1027B0000CD03448016E41F001010166006E00F05A
:1027C0000100009094F83A0010B104E00120F8BD37
:1027D000002084F83900204600F058F8A0682A4A02
:1027E0004FF48071402836D0602834D020680368C8
:1027F000E66A23F0100333430360D4E9010318436E
:10280000D4E9033633431843237D012B00D0002144
:102810000843616A0843A16A0843218E40EAC14027
:1028200094F8341040EA01612068036813401943AA
:10283000016020688169002909DBD4E9061211438F
:10284000226A836923F03F031A431143816194F89C
:102850003A0090B114E020680368E66A23F01003A0
:1028600033430360D4E901031843267D2369012E15
:1028700000D000210B431843CBE7012084F83A0035
:102880002846F8BD00100240113E00E010B586B0A9
:10289000044614216846FDF705FD0D49206888426D
:1028A00013D10C48C16C41F00101C164C06C694690
:1028B00000F001000590042000900320019000200A
:1028C00002904FF09040FFF7A1FD06B010BD000050
:1028D00000030140001002402DE9F04104004FF0D8
:1028E000000807D094F83A00052803D094F83A007D
:1028F000012804D04FF001084046BDE8F08120686F
:10290000016841F0020101602068016841F0100196
:1029100001602068016841F400610160206801687D
:1029200041F4405101602068016841F001010160FB
:10293000102608252068016821F0F85141EA066157
:1029400001600220FFF77CFC20680068400001D590
:102950002E4400E0761B6D08ECD12068016821F060
:10296000F85141EA066101600220FFF769FC206826
:102970000168490006D50168761C21F0F85141EA4A
:10298000066101602068016821F4405141F48051E2
:102990000160102508272068016821F4780141EAC8
:1029A000C54101600220FFF74BFC20680068400031
:1029B00001D53D4400E0ED1B7F08ECD120680168A3
:1029C00021F4780141EAC54101600220FFF738FC9B
:1029D00020680168490006D501686D1C21F4780162
:1029E00041EAC54101602068016821F4006101608D
:1029F0002068016821F00101016054F82C0B016886
:102A000021F002010160102084E8610054F82C0DCF
:102A1000016821F4780141EAC5410160206801683C
:102A200021F0F85141EA0661016065E7002138B103
:102A300090F83A20052A03D090F83A20012A02D0D3
:102A40000121084670470268136843F001031360D0
:102A5000042280F83A20F4E72B492C4B0A683221F3
:102A60004A432B4940B1B0F5007F086829D020F4D3
:102A7000C06040F480602CE00868C0F34120022868
:102A800004D051F8800F20F4807022E0D1F880004B
:102A900020F48070C1F88000086820F4C06040F421
:102AA00000700860B2FBF3F0401C00E0401E4A6971
:102AB000520501D50028F9D1486940050AD50320FF
:102AC0007047C0F34120022806D051F8800F40F42F
:102AD0008070086000207047D1F8800040F480705A
:102AE000C1F88000086820F4C06040F400700860FD
:102AF000B2FBF3F0401C00E0401E4A695205DBD5F2
:102B00000028F9D1D8E700005400002040420F000F
:102B1000007000400248816841F480418160704744
:102B2000007000402DE9F8430446006800269D4DE2
:102B300000035ED5A86D0027C00008D4A86D40F042
:102B40008050A865A86D012700F080500090DFF844
:102B50005892D9F8001041F48071C9F80010FFF7BD
:102B600083FD804606E000BFFFF77EFDA0EB080076
:102B700002282BD8D9F80000C005F5D5D5F890006B
:102B800010F4407014D0216C814211D0D5F890001F
:102B9000D5F8901020F4407041F48031C5F89010C1
:102BA000D5F8901021F48031C5F89010C5F8900048
:102BB000C00711D0FFF758FD804641F2883907E081
:102BC000FFF752FDA0EB0801494501D903260BE0B0
:102BD000D5F890008007F3D5D5F89000216C20F44B
:102BE00040700843C5F890001FB1A86D20F08050D8
:102BF000A8652078C00707D0D5F88800616820F064
:102C000003000843C5F888002078800707D5D5F869
:102C10008800A16820F00C000843C5F888002078DF
:102C2000400707D5D5F88800E16820F03000084358
:102C3000C5F888002078000707D5D5F888002169F5
:102C400020F0C0000843C5F888002078800607D52A
:102C5000D5F88800616920F440600843C5F8880011
:102C60002078400607D5D5F88800A16920F44050A7
:102C70000843C5F888002078000607D5D5F88800F5
:102C8000E16920F440400843C5F888002088C00569
:102C900007D5D5F88800216A20F440300843C5F8EC
:102CA00088002088800507D5D5F88800616A20F45F
:102CB00040200843C5F88800208840050FD5D5F886
:102CC0008800A16A20F440100843C5F88800A06A73
:102CD000B0F5801F03D1E86840F48010E8602088D8
:102CE00000050FD5D5F88800E16A20F440000843BC
:102CF000C5F88800E06AB0F5800F03D1E86840F4B9
:102D00008010E8602088C0040FD5D5F88800216BBA
:102D100020F040700843C5F88800206BB0F1807F38
:102D200003D1E86840F48010E86020884FF000612B
:102D300080040ED5D5F88800626B20F04060104307
:102D4000C5F88800606B884203D1E86840F48010C1
:102D5000E860208840040ED5D5F88800A26B20F0EA
:102D600040601043C5F88800A06B884203D1E86832
:102D700040F48010E860208800040FD5D5F8880062
:102D8000E16B20F040500843C5F88800E06BB0F1DB
:102D9000805F03D1E86840F48030E8603046BDE8E9
:102DA000F883000000100240007000402DE9F04759
:102DB0000E4605004FF0000725D0DFF8AC81D8F8AB
:102DC000000000F00F00B0420CD2D8F8001021F043
:102DD0000F013143C8F80010D8F8000000F00F00D0
:102DE000B04210D12968614CC80741F2883A5AD0E4
:102DF0006868DFF87C91032808D0022820682DD06D
:102E0000400500282CDB0120BDE8F0872068800108
:102E1000F9D5E06800F00302E068C0F30310401C3D
:102E2000032A19D0534A00BFB2FBF0F0E268C2F3A4
:102E300006225043E268C2F34162521C5200B0FBCA
:102E4000F2F0484517D9A06810F0F00F0CD08807B1
:102E500011D5A86840B10EE0474AE5E78003D0E706
:102E600000F0BCF8484506D9A06820F0F00040F01A
:102E70008000A0608027A068696820F003000843F4
:102E8000A060FFF7F1FB814606E000BFFFF7ECFB17
:102E9000A0EB090151453AD8A068696800F00C0020
:102EA000B0EB810FF2D12868810714D5400703D514
:102EB000A06840F4E060A0602878000705D5A0680D
:102EC00020F4605040F4E060A060A068A96820F0A1
:102ED000F000084304E0802F03D1A06820F0F00048
:102EE000A060D8F80010404601F00F01B14216D999
:102EF000016821F00F0131430160FFF7B5FB074680
:102F000007E000BFFFF7B0FBC11B514501D903200B
:102F10007AE7D8F8000000F00F00B042F2D128782C
:102F2000400705D5A068E96820F4E0600843A06088
:102F30002878000706D5A068296920F4605040EA87
:102F4000C100A06000F04AF8A1680C4AC1F3031167
:102F5000515C01F01F01C840094908600948006838
:102F6000BDE8F047FFF79EBB002002400010024082
:102F700000B4C4040024F40000127A00049700088E
:102F800054000020480000200148006870470000FD
:102F9000540000200548064900688968054AC1F3C5
:102FA0000221515C01F01F01C8407047540000200D
:102FB0000010024014970008054806490068896817
:102FC000054AC1F3C221515C01F01F01C84070479E
:102FD000540000200010024014970008184910B552
:102FE0008868C0F381021748012A0BD08A68431011
:102FF000C2F38102022A06D08A68C2F38102032A40
:1030000003D0002010BD184610BDCA6802F00304AA
:10301000CA68C2F30312521C032C02D0B0FBF2F0B8
:1030200001E0B3FBF2F0CA68C968C2F3062250435C
:10303000C1F34161491C4900B0FBF1F010BD000033
:10304000001002400024F4002DE9F84304007AD077
:103050002078FA4DC00747D0A868E96800F00C0056
:1030600001F003010C2802D0082817D001E0032941
:1030700014D06068B0F5803F17D0B0F5A02F286855
:1030800017D020F480302860286820F48020286041
:103090006068E0B1FFF7E8FA064614E028688003AC
:1030A00022D560680028D2D01EE0286840F4803025
:1030B000EDE740F480202860F7E700BFFFF7D4FA7F
:1030C000801B642870D828688003F7D50CE0FFF7D0
:1030D000CBFA064605E000BFFFF7C6FA801B64285E
:1030E000F0D828688003F7D4207880074CD5A868EA
:1030F000E96800F00C0001F003010C2802D004285C
:103100000DD001E002290AD0E068002828682BD001
:1031100040F480702860FFF7A7FA064619E0286897
:10312000400502D5E068002891D06868217C20F035
:10313000FE4040EA01606860C1480068FFF7B2FAEB
:10314000002800D120E076E1FFF78EFA801B0228EC
:10315000B8D828684005F7D56868217C20F0FE4083
:1031600040EA016068600FE020F480702860FFF79B
:103170007BFA064605E000BFFFF776FA801B0228BF
:10318000A0D828684005F7D42078000729D56069C1
:103190000028D5F8940013D040F00100C5F8940041
:1031A000FFF762FA064606E090E000BFFFF75CFA20
:1031B000801B022886D8D5F894008007F6D510E049
:1031C00020F00100C5F89400FFF74EFA064604E02F
:1031D000FFF74AFA801B022878D8D5F894008007B8
:1031E000F6D42078400761D5A86D0026C00008D429
:1031F000A86D40F08050A865A86D012600F08050B1
:10320000009090480168C90511D40168804641F4D6
:1032100080710160FFF728FA074604E0FFF724FAFF
:10322000C01B022852D8D8F80000C005F6D5A06807
:10323000012815D00528D5F8900016D020F00100FF
:10324000C5F89000D5F8900020F00400C5F8900073
:10325000A06841F28838B8B1FFF706FA07460EE0D9
:10326000D5F8900040F00100F0E740F00400C5F808
:103270009000F5E7FFF7F8F9C11B414526D8D5F8CE
:1032800090008007F6D50CE0FFF7EEF9074604E062
:10329000FFF7EAF9C11B414518D8D5F8900080071F
:1032A000F6D41EB1A86D20F08050A8652078800665
:1032B00029D5A0690028D5F8980013D040F0010066
:1032C000C5F89800FFF7D0F9064606E077E000BFA2
:1032D000FFF7CAF9801B022877D8D5F89800800735
:1032E000F6D510E020F00100C5F89800FFF7BCF912
:1032F000064604E0FFF7B8F9801B022865D8D5F828
:1033000098008007F6D4E069F0B3A968C1F38101A1
:10331000032961D00228286820F0807028600BD033
:10332000E86820F00300E860E86847490840E86082
:10333000FFF79AF904464BE0FFF796F9064604E0DA
:10334000FFF792F9801B02283FD828688001F7D444
:10335000F4E908016FF00F0202EB01110843218A22
:103360005204490802EB4151A26841EA0221084394
:10337000217D4FF07E42490802EB41610843217BE9
:1033800040EAC160E96800E062E0304A1140084369
:10339000E860286840F080702860E86840F080703D
:1033A000E860FFF761F9044605E000BFFFF75CF94C
:1033B000001B022809D828688001F7D548E004E0FE
:1033C000FFF752F9001B022802D90320BDE8F88359
:1033D00028688001F4D43BE00128F7D0E868226A2D
:1033E00000F00301914226D1616A00F0F002090168
:1033F000103991421FD1A26A00F4FE41B1EB022FB5
:1034000019D194F82C2000F07841B1EBC26F12D1A1
:10341000218E00F4C00249084905A1F5001191422E
:1034200009D194F8341000F0C06049084906A1F1B0
:10343000007181420CD00120C8E70000001002405A
:103440004800002000700040FFFFEEFE0C809F014E
:103450000020BBE710B5401EB0F1807F01D30120F2
:1034600010BD4FF0E02460610F21601703F068F990
:103470000020A06107202061002010BD7047704728
:103480007047704770477047F0B590F83C20012AAC
:103490003AD0012580F83C50022280F83D20036894
:1034A0005A689C68194E1A4FB34201D0BB4204D1EE
:1034B00022F4700C4A6842EA0C02DFF858C002EAB3
:1034C0000C02D1F800C04CEA020CC3F804C0026838
:1034D000B2420DD0B2F1804F0AD00F4B9A4207D0C2
:1034E0000E4B9A4204D0BA4202D00D4B9A4204D1FC
:1034F000896824F080031943916080F83D500021D1
:1035000080F83C100846F0BD0220F0BD002C0140C0
:10351000003401408FFFFFFD000400400008004020
:103520000040014090F83C20012A0DD0012280F893
:103530003C200268136E23F470330B4313660021A2
:1035400080F83C10084670470220704710B590F88C
:103550003C400023012C0FD0012480F83C406AB18C
:10356000042A21D0082A24D00C2A29D001230021A2
:1035700080F83C10184610BD022010BD0268D46DC2
:1035800024F00F040C43D465104A0168914202D024
:103590000F4A914203D18A6E42F0010202E08A6E24
:1035A00022F001028A66E2E70268D46D24F47064B6
:1035B00003E00268D46D24F470240C43D465D6E78C
:1035C0000268D46D24F07064F7E700000044014005
:1035D00000480140704710B5040003D094F83D0046
:1035E00010B107E0012010BD002084F83C00204607
:1035F00000F022F8022084F83D00211D206802F02E
:1036000011FC012084F8480084F83E0084F83F0053
:1036100084F8400084F8410084F8420084F84300B4
:1036200084F8440084F8450084F8460084F8470094
:1036300084F83D00002010BD2DE9F04F87B004460E
:1036400014216846FCF72EFE9E489D4A21680025FD
:10365000802647154FF480694FF0200A914242D1ED
:10366000016E41F400610166006E974900F400604C
:1036700005909648B846B34601602A21C0E9011575
:10368000C0E90356C0E907A54F46C0E90589FEF722
:1036900031FD08B1FDF783FA8C488C4E606284627C
:1036A00060368B4830602B20C6E90105C6E9035B14
:1036B000C6E907A5C6E905873046FEF71BFD08B138
:1036C000FDF76DFAA662002203211920B462FFF70C
:1036D00031F81920FFF720F8002202211B20FFF704
:1036E00029F81B201EE0B1F1804F0DD0794A91429C
:1036F0001BD1816D41F002018165806D00F00200F7
:10370000059007B0BDE8F08F816D41F00101816542
:10371000806D002200F00100059002211C20FFF7BF
:1037200009F81C20FEF7F8FFEBE76B4A914229D11C
:10373000816D41F004018165806DDFF8908100F0BA
:103740000400059008F1C008614808F10C01283810
:10375000C8F800004320C8E9010581E8E0064046BA
:10376000C8F82050FEF7C6FC08B1FDF718FAC4F8F7
:103770002480002202211E20C8F82840FEF7DAFF2C
:103780001E20CFE7554A91420ED1816D41F01001C4
:103790008165806D002200F0100005900221362026
:1037A000FEF7C8FF3620BDE74D4A91420ED1816D2C
:1037B00041F020018165806D002200F0200005901D
:1037C00002213720FEF7B6FF3720ABE7454B022238
:1037D00099422ED1016E41F400510166016E01F44F
:1037E00000510591C16C41F00101C164C06C694692
:1037F00000F00100059090038DE82500CDE903520B
:103800004FF09040FEF702FEDFF8DC803049404682
:10381000143902C03121E0E8021580E8E006404694
:10382000C8F8205033E000BFC4F82480C8F828400E
:1038300067E72E4B994231D1016E41F48031016628
:10384000016E01F480310591C16C41F00201C16447
:10385000C06C694600F0020005904FF480408DE88E
:1038600025000120CDE903502148FEF7CFFDDFF808
:103870007880174908F160084046643902C04E213B
:10388000E0E8021580E8E0064046C8F82050FEF760
:1038900031FC0028C8D0FDF782F9C5E7154A9142EE
:1038A000C6D1016E41F400310166006E002200F4C1
:1038B0000030059003211920FEF73CFF192031E765
:1038C000002C0140001002406C000240F80600206D
:1038D0006C0402400004004000080040001000405A
:1038E000001400400034014018080020004001404E
:1038F000000400480044014090F83D10012901D027
:1039000001207047022180F83D1000680F4988426D
:103910000ED0B0F1804F0BD00D49884208D00D4930
:10392000884205D00C49884202D00C49884207D110
:1039300081680B4A1140062906D0B1F5803F03D0BB
:10394000016841F00101016000207047002C014036
:1039500000040040000800400034014000400140E5
:103960000700010090F83D10012901D001207047A7
:10397000022180F83D100168CA6842F00102CA6065
:103980000068104988420ED0B0F1804F0BD00E492C
:10399000884208D00D49884205D00D49884202D09E
:1039A0000C49884207D181680B4A1140062906D08C
:1039B000B1F5803F03D0016841F0010101600020B2
:1039C00070470000002C0140000400400008004047
:1039D0000034014000400140070001000168CA684E
:1039E00022F00102CA6001680A6A41F211131A4208
:1039F00007D10A6A9B001A4203D10A6822F0010229
:103A00000A60012180F83D100020704770B504461F
:103A100090F83C000025012814D0012684F83C6071
:103A2000022084F83D0022689068364B184020F44C
:103A30007F409060086870282ED010DC10F00F0FC7
:103A400003D021E04FF0020070BD4FEA2012072A98
:103A50001AD2DFE802F0525252524A3840002A4B42
:103A6000C21A984249D009DCB0F5805F0DD0B0F59C
:103A7000005F1CD0B0F1101F06D13EE0102A3CD0F0
:103A8000202A3AD0502A38D0012584F83D60002001
:103A900084F83C00284670BDCB68D1E9012120683C
:103AA00002F0A2FA2068816841F0770109E0CB6852
:103AB000D1E90121206802F097FA2068816841F479
:103AC00080418160E1E7CA684968206802F008FB2C
:103AD0005021206806E0CA684968206802F048FB67
:103AE0006021206802F08AFACFE7CA684968206836
:103AF00002F0F6FA40212068F4E7226801461046F9
:103B0000F0E7000088FFCEFF2000100070477047EC
:103B100070472DE9F041054690F83C0000260C4620
:103B2000012810D0012085F83C0072B1042A1CD075
:103B3000082A2CD00C2A50D00126002085F83C0001
:103B40003046BDE8F0810220FBE7D4E90012E368CB
:103B5000286802F0D7FA2868816921F00C01816198
:103B600028688169A26811430FE0D4E90012E36874
:103B7000286802F00FFB2868816921F440618161A7
:103B800028688169A26841EA02218161D5E7286835
:103B9000D4E9002C277B016A21F480710162C1699C
:103BA000036A21F0030141EA0C0121F0F00C39070E
:103BB0004FF420674CEA116123F4206307EA0222E4
:103BC0001A43C16102622868C16921F00C01C16118
:103BD0002868C169A268114328E02868D4E9002751
:103BE000E168036A23F480530362D0F81CC0036ABF
:103BF0002CF4407C4CEA07274FF6FF7C27F47047F3
:103C00000CEA013139434FF4204723F4204307EAFB
:103C100002321A43C16102622868C16921F440611D
:103C2000C1612868C169A26841EA0221C16184E7D3
:103C300010B5040003D094F83D0010B107E0012056
:103C400010BD002084F83C00204600F022F802203D
:103C500084F83D00211D206802F0E4F8012084F87A
:103C6000480084F83E0084F83F0084F8400084F85F
:103C7000410084F8420084F8430084F8440084F84A
:103C8000450084F8460084F8470084F83D00002091
:103C900010BD70472DE9F0411F4690460D000446C7
:103CA0004FF0000613D0042D16D0082D19D00C2D7E
:103CB0001CD0102D1DD094F8430000BF94F847107D
:103CC000022819D0022917D0012818D0BFE094F893
:103CD0003E0094F84410F3E794F83F0094F8451040
:103CE000EEE794F8400094F84610E9E794F84100B4
:103CF000E4E794F84200E1E70220BDE8F081012901
:103D00007ED1B8F1000F01D1002F79D10220E5B3A7
:103D1000042D41D0082D44D00C2D47D0102D48D073
:103D200084F8430084F8470001222946206802F005
:103D3000D1F84A484A494B4A45B3042D4FD0082D83
:103D400063D00C2D75D001264749206888420ED0DB
:103D5000B0F1804F0BD04549884208D04449884291
:103D600005D04449884202D04349884207D181683E
:103D7000424A1140062906D0B1F5803F03D00168C0
:103D800041F0010101603046B7E700E014E084F83B
:103D90003E0084F84400C7E784F83F0084F84500FB
:103DA000C2E784F8400084F84600BDE784F841008B
:103DB000B8E784F84200B5E7636AD862606A3B46B8
:103DC0000163606A4263216842463431606AFEF7EB
:103DD000F1F9A8B92068C16841F4007113E0A36A41
:103DE000D862A06A3B460163A06A426321684246EA
:103DF0003831A06AFEF7DEF910B92068C16800E02A
:103E000025E041F48061C1609EE7E36AD862E06A20
:103E10003B460163E06A4263216842463C31E06A06
:103E2000FEF7C8F998B92068C16841F40061EAE773
:103E3000FFE7236BD862206B3B460163206B426334
:103E4000216842464031206BFEF7B4F908B10120E9
:103E500053E72068C16841F48051D4E7EF5E000861
:103E60005D5F0008955F0008002C014000040040E1
:103E700000080040003401400040014007000100FC
:103E800070B50446006801694FF00005C943890711
:103E900015D4C168C943890711D4E91E0161012005
:103EA0002077206880698007204602D0FFF72FFE28
:103EB00004E000F0E3F8204600F0E1F82577206800
:103EC0000169C943490717D4C168C943490713D4D5
:103ED0006FF004010161022020772068806910F4EE
:103EE000407F204602D0FFF712FE04E000F0C6F843
:103EF000204600F0C4F8257720680169C943090706
:103F000016D4C168C943090712D46FF008010161D2
:103F1000042020772068C0698007204602D0FFF780
:103F2000F6FD04E000F0AAF8204600F0A8F8257796
:103F300020680169C943C90617D4C168C943C906C5
:103F400013D46FF010010161082020772068C06948
:103F500010F4407F204602D0FFF7D9FD04E000F0C6
:103F60008DF8204600F08BF8257720680169C94359
:103F7000C90708D1C168C943C90704D1891E0161B5
:103F8000204600F07DF820680169C943090609D47C
:103F9000C168C943090605D46FF08001016120465C
:103FA000FFF76DFA20680169C943C90509D4C168E2
:103FB000C943090605D46FF4807101612046FFF7FB
:103FC0005DFA20680169C943490609D4C168C9433B
:103FD000490605D46FF040010161204600F051FB15
:103FE00020680169C943890609D4C168C9438906A3
:103FF00005D46FF0200101612046FFF741FA2068E7
:104000000169C943C90209D4C168C943C90205D4B9
:104010006FF4801101612046FFF734FA20680169CE
:10402000C943890209D4C168C943890205D46FF420
:10403000001101612046FFF724FA20680169C94395
:10404000490209D4C168C943490205D46FF480010B
:1040500001612046FFF717FA20680169C943090288
:104060000BD4C168C943090207D46FF40001016190
:104070002046BDE87040FFF7ADBA70BD704770478D
:104080002DE9F04F00262DED0A8B85B00768F84822
:10409000F84C87427DD1A06A64214843E16AF64A20
:1040A000B0FBF1F1A06942F82010401CA061052886
:1040B00000D1A661616BF04AE069143242F8201029
:1040C000401CE061052800D1E661A16BEA4A206A44
:1040D000283242F82010401C2062052800D12662B8
:1040E000E07800287ED0E448283003F05BFC40F6FE
:1040F000FF7140F2E245643802D5606946800AE00B
:10410000A84202DD6069418005E0C0EB003090FB11
:10411000F5F06269508060694FF4A57342885A4394
:10412000B2FBF1F18180D448143003F03BFCD24A59
:1041300061696032914219D14A88A0F51670A2F6E1
:10414000FF735B4243434FF47A7093FBF0F04FF4FC
:104150000063A3EB5203C94D984205EB520201DD07
:10416000184611E090420FDA10460DE03238C0EBED
:10417000003090FBF5F04A88A2F6FF72524290425E
:10418000F2DC002800DA0020488100B200EB401089
:1041900000E02EE000EB8000C21700EB5250C0128E
:1041A0008881B54803F0FEFB61696422C8815043F1
:1041B00000EE100AB0483C30F8EE400AC0880424F3
:1041C00000EE100AB8EE400A80EE801ABCEEC10A7A
:1041D00010EE100A0882E0B20021641E03F0C6FC53
:1041E000002C00E000E0F6D105B0BDEC0A8BBDE884
:1041F000F08FA348874210D19E4902220A31A1487C
:10420000FDF784FA05B09B490122BDEC0A8B103101
:10421000BDE8F04F9C48FDF779BAB0EE009AF7EE92
:10422000009A9FED9A8A9FED9AAB9FED9BBB924DB2
:104230003C35B7F1804F95F80080288A0390B5F996
:104240000A0001906888009095F812E0B5F91C10FA
:1042500095F824B0B5F92E0095F836A02B8FB5F956
:10426000402095F84890B5F952C0AD8A02958C4D22
:104270002D680DD08B4EB742B6D17F4E3C36B8F18B
:10428000000F7DD0696A039881427AD20122C0E092
:10429000794F3C37B8F1000F0BD0696A039881421F
:1042A00001D2012200E00022DDE9001001FB020042
:1042B00065E0BEF1000F26D00846FCF786F941EC18
:1042C000180B686A00EE100AE86AF8EE400A00EE81
:1042D000100AB8EE401A80EE810A50EE099AB0EE4C
:1042E000E90A10EE100AFCF7C6F941EC190B029826
:1042F000FCF77CF953EC192BFCF786F841EC100B1A
:1043000053EC182B35E0BBF1000F3DD0FCF75DF905
:1043100041EC1C0B686A00EE100AE86AF8EE400AED
:1043200000EE100AB8EE401A80EE810A20EE080A6C
:1043300020EE090A10EE100AFCF79DF941EC100B73
:1043400002F00EFAB0EE408AF0EE608AF88CFCF7CC
:104350004DF953EC182BFCF757F853EC1A2BFCF7DC
:1043600053F853EC1C2BFBF7A8FF53EC1B2B41EC31
:10437000100B51EC100BFBF7A0FFFCF763F901E009
:104380004CE045E0606226E0BAF1000F1CD000EE80
:10439000103A686AF8EE400A00EE100AE86AB8EED1
:1043A000400A60EE800A00EE100AB8EE400A80EE85
:1043B000801A00EE102AB8EEC00A31EE000ABCEEF8
:1043C000C00A84ED090A06E0B9F1000F02D0C4F872
:1043D00024C000E06662002211463348636AFDF79C
:1043E00079FD18B131A1182000F058FC00221146C7
:1043F0003148636AFDF76EFD00283FF4F5AE05B065
:104400002EA1BDEC0A8B3020BDE8F04F00F046BC79
:104410000022DDE9001001FB020091E0BEF1000F77
:1044200052D00846FCF7D1F841EC180B686A00EE50
:10443000100AE86AF8EE400A00EE100AB8EE401AD8
:1044400080EE810A50EE099AB0EEE90A10EE100AE9
:10445000FCF711F941EC190B0298FCF7C7F853EC83
:10446000192BFBF7D1FF41EC100B53EC182B61E03B
:1044700000440140080000206400002000F8FFFF15
:104480000010004068010020FC000020DC0F4940C3
:10449000000000000000E03F000000000000A0401D
:1044A000E404002000140040FC0300204552522D7B
:1044B0004441433300000000E80300204552522DE0
:1044C0004441433100000000BBF1000F3AD0FCF73B
:1044D0007CF841EC1C0B686A00EE100AE86AF8EE02
:1044E000400A00EE100AB8EE401A80EE810A20EE73
:1044F000080A20EE090A10EE100AFCF7BCF841EC9D
:10450000100B02F02DF9B0EE408AF0EE608AF08CCC
:10451000FCF76CF853EC182BFBF776FF53EC1A2BD7
:10452000FBF772FF53EC1C2BFBF7C7FE53EC1B2B66
:1045300041EC100B51EC100BFBF7BFFEFCF782F8BF
:10454000606224E0BAF1000F1CD000EE103A686AF5
:10455000F8EE400A00EE100AE86AB8EE400A20EED3
:10456000801A00EE100AB8EE400AC1EE000A00EE12
:10457000102AB8EEC00A30EE800ABCEEC00A84ED04
:10458000090A04E0B9F1000F01D0C4F824C0616A3F
:104590004FF48050814201D8084600E06062FCF789
:1045A00025F89FED1E1B53EC112BFBF72DFF9FED04
:1045B0001D1B53EC112BFBF724FFFCF743F886B2CD
:1045C000A08825894FF49B714FF61F07884204D1BC
:1045D0003A46304603F0B0F915E0AE4207D810E095
:1045E00028466D1CADB23A46A18803F0A5F9AE424B
:1045F000F6D208E028466D1EADB23A46A18803F017
:104600009BF9AE42F6D92681A088401E80B2A080D8
:10461000502801D103F036FAE680E5E5FBFB736E26
:104620006636A43F0000000000806B4070B5044671
:1046300090F83C00012812D0012584F83C5002205B
:1046400084F83D00204601F0E3FC01004FF000003B
:1046500007D084F83D5084F83C00012070BD022052
:1046600070BD2168CA6822F04002CA602168CA6829
:1046700022F48042CA6084F83D5084F83C00002057
:1046800070BD704790F88010012918D0012180F882
:1046900080102421C0F8841050F8641B0A680B684D
:1046A00023F001030B6022F000510022026050F859
:1046B000643C196020210162027710467047022095
:1046C00070477047704770B5044690F88000012825
:1046D0001DD0012084F880002420C4F884002068C4
:1046E0000568026822F0010202602068826822F0F8
:1046F00060620A438260204601F068FD2068056020
:104700002020C4F88400002084F8800070BD0220BE
:1047100070BD70B5044690F8800001281DD00120BE
:1047200084F880002420C4F88400206805680268AA
:1047300022F0010202602068826822F060420A438F
:104740008260204601F042FD206805602020C4F808
:104750008400002084F8800070BD022070BD704786
:10476000704770472DE9F04103680446D86919681D
:104770009A6840F60F0528424FF0000509D18606D9
:104780007ED501F0200602F080573E4378D0216F9D
:1047900027E1A94EA94F16400F40374370D0C707F5
:1047A00009D0CF0507D501271F62D4F88C3043F01C
:1047B0000103C4F88C3083070AD5D30708D02768D3
:1047C00002233B62D4F88C3043F00403C4F88C30ED
:1047D00043070AD5D30708D0276804233B62D4F8DF
:1047E0008C3043F00203C4F88C3003070CD501F081
:1047F0002003334308D0266808233362D4F88C3072
:1048000043F00803C4F88C3003050BD54B0109D5E0
:1048100026684FF400633362D4F88C3043F02003F1
:10482000C4F88C30D4F88C30002B3AD0800609D5EF
:1048300001F0200002F08051084303D0216F09B13C
:1048400020468847D4F88C0021688968490602D43C
:1048500010F0280F27D0204601F078FD20688068EE
:1048600040061BD52068083050E8001F21F04001A9
:1048700040E80012002AF5D1E06F78B1704900E0FD
:1048800017E08163E06FFDF79BFB002809D0E06F24
:10489000816B00E02046BDE8F04108472046FFF765
:1048A00060FFBDE8F0812046FFF75BFFC4F88C5045
:1048B000F7E7E76E2026012F7ED1C7067CD5CF060D
:1048C0007AD51020186220688068400642D5E16FD2
:1048D000086840680004000CE3D0B4F85C20824211
:1048E000DFD9A4F85E000868006880062BD4206831
:1048F00050E8001F21F4807140E80012002AF6D130
:104900002068083050E8001F21F0010140E8001243
:10491000002AF5D12068083050E8001F21F040013E
:1049200040E80012002AF5D1C4F88860E5662168E5
:1049300051E8000F20F0100041E80002002AF6D1F3
:10494000E06FFDF708FBB4F85C00B4F85E10401AA5
:1049500081B22CE0B4F85C00B4F85E10401A81B269
:10496000B4F85E0000289CD000299AD0226852E852
:10497000000F20F4907042E80003002BF6D12E4B7C
:10498000DB432068083050E8002F1A4040E8002739
:10499000002FF6D1C4F88860E5662567226852E8E2
:1049A000000F20F0100042E80003002BF6D1204653
:1049B000FFF787FE75E7FFE7C70209D5570207D55E
:1049C0004FF4801018622046BDE8F041FFF7C8BEE2
:1049D00003060AD501F0800302F40002134304D059
:1049E000616F00297FF456AF5BE7420611D54A0696
:1049F0000FD52046016851E8002F22F0400241E81F
:104A00000023002BF6D1C0F88460456700F0B0F8B1
:104A100047E7020206D54A0004D52046BDE8F0412A
:104A2000FFF79DBEC001C5D50029C3DA2046BDE809
:104A3000F041FFF747BE0000010000102001000414
:104A40003963000810B5040003D0D4F8840010B115
:104A500007E0012010BD002084F88000204600F00F
:104A600027F82420C4F884002068016821F001019F
:104A70000160204601F094FC0128EBD0A06A10B13F
:104A8000204601F0C5FB2068416821F49041416057
:104A90002068816821F02A0181602068016841F066
:104AA000010101602046BDE8104001F015BC000086
:104AB00070B598B00646142111A8FBF7F3FB44210A
:104AC0006846FBF7EFFB26493068884245D1012054
:104AD0000025CDE900056846FEF724F808B1FCF78B
:104AE0005EF82049086E40F480400866086E00F4C5
:104AF00080401690C86C40F00100C864C86C11A9D1
:104B000000F0010016904FF4C06011900220CDE932
:104B100012050720CDE914504FF09040FDF776FCC8
:104B2000124C114820601820C4E901058020C4E916
:104B300003506561A561E56120462562FDF7DAFA5B
:104B400008B1FCF72CF8F467002202212520A662A8
:104B5000FDF7F0FD2520FDF7DFFD18B070BD00006A
:104B60000038014000100240440002406809002063
:104B70007047FEE700B585B014216846FBF792FB4D
:104B80004FF6FF70009000200321CDE90201019053
:104B900069460248FDF73AFC05B000BD0008004830
:104BA00000B585B014216846FBF77CFB4FF6FF701B
:104BB000009001200190032003900020029069469C
:104BC0000248FDF723FC05B000BD000000080048C6
:104BD00070B5002406462146204600F04DF900F04D
:104BE0008BF94FF49635304600F05AF9641CAC420C
:104BF000F9D370BD30B587B014216846FBF752FB7E
:104C00001E48C16C41F00401C164C16C01F0040193
:104C10000591C16C41F00101C164C16C01F0010159
:104C20000591C16C41F00201C164C06C012500F026
:104C3000020005904FF44870CDE90005002403946C
:104C4000694602940E48FDF7E1FB280203940090A8
:104C5000CDE901544FF0904469462046FDF7D6FB5C
:104C6000FFF79EFFA06940F48070A06104481830EF
:104C7000016841F40871016007B030BD00100240C6
:104C800000040048203AD2B2034B02EB420203EB8D
:104C9000021200F019B80000D0840008F0B50E46EA
:104CA0000746002540F23F1407E021463846FFF74B
:104CB000E9FF103C6D1CA4B2761C3278002A01D0AA
:104CC000142DF2D3F0BD00002DE9F04791468A463D
:104CD0000026044600F0D0F8DFF84080012700BF2E
:104CE00000F00AF95FF0000539F8160007FA05F13F
:104CF0000842404601D1408800E0008800F0D0F82A
:104D00006D1C102DF0D3641CE4B25146204600F017
:104D1000B3F8761C182EE3D3BDE8F087000000201E
:104D20002DE9F0439846174689460546002400F0D1
:104D3000A3F80F4EB8F1000F16D100F0DDF803E034
:104D4000308800F0ADF8641CBC42F9D3BDE8F083B4
:104D500000F0D2F8308800F0A3F86D1CEDB249469F
:104D6000284600F089F8641CBC42F1D3EEE700004D
:104D700000000020F0B51C4615460F4606460023ED
:104D80002246FFF7CDFF7019C0B2002322463946F4
:104D9000FFF7C6FF01232A4639463046FFF7C0FF1A
:104DA000381B401C81B22A463046BDE8F040012342
:104DB000FFF7B6BF10B5FFF71DFF002000F014F895
:104DC000084CA080A088A0F50241303906D000F040
:104DD000AFFE002000F008F8A08010BD00F01FFE1C
:104DE000F7E700000000002070B51D490A6842F492
:104DF00000720A600A6842F480720A60184C103C23
:104E0000226842F020022260164A1060086840F0D2
:104E10002000086000BF00BF00BF206840F02000F5
:104E20002060206840F480702060FFF7A3FE4FF000
:104E30009041886A40F48070886200BF00BF00BF64
:104E40000848001F006885B2886940F48070886156
:104E5000FFF7A6FE206840F400702060284670BD71
:104E6000280400481408004801B5BDF800000149B5
:104E7000488008BD0000002010B50C4601462020E7
:104E800000F068F82146BDE81040212000F062B82B
:104E900001B5BDF800000149088008BD00000020F0
:104EA000134A116841F400711160114910390B68FF
:104EB00043F480730B600B6843F020030B600D4BD1
:104EC0001860106840F02000106000BF00BF00BFF5
:104ED000086840F020000860086840F480700860AE
:104EE00000BF00BF00BF086840F400700860704752
:104EF00028040048140800481449086840F4007069
:104F00000860086840F48070086010481038026833
:104F100042F0200202600E4B22221A600A6842F020
:104F200020020A6000BF00BF00BF016841F02001FD
:104F30000160016841F48071016000BF00BF00BFE3
:104F4000016841F4007101607047000028040048C6
:104F500014080048184B10B51A6842F400721A6021
:104F60001A6842F480721A60134A103A146844F0C6
:104F700020041460114C2060186840F02000186074
:104F800000BF00BF00BF106840F020001060106834
:104F900040F4807010602160186840F020001860B4
:104FA00000BF00BF00BF106840F020001060106814
:104FB00040F48070106010BD2804004814080048B8
:104FC00000EB8100006E00F0F84070478068C0F38D
:104FD000C00070478068C0F3800070478068C0F3ED
:104FE00080007047C06810F4406F01D00020704707
:104FF00001207047042303EAD15310B518444369D4
:10500000C1F3045107248C40A3438A4013434361F6
:1050100010BD00EB8100016E21F0004111430166DB
:105020007047000030B58BB000240894099420210B
:1050300068460A94FBF736F91C484FF0A041042556
:1050400001604FF44031C0E90114C4600461C0E95B
:105050000545047744770121016280F82440C46249
:10506000046380F83840C46380F84040FCF79CF942
:1050700008B1FBF794FD08A90C480894FBF7E2FD82
:1050800008B1FBF78CFD0A4800900620CDE9010429
:105090007F200594CDE9030569460448FBF73EFEF1
:1050A000002801D0FBF77BFD0BB030BDFC000020D9
:1050B0000040C03A30B589B020216846FBF7F2F8CD
:1050C00019481849002401604FF44031C0E9011427
:1050D000C46004250461C0E90545047744770121D3
:1050E000016280F82440C462046380F83840C463DD
:1050F00080F84040FCF758F908B1FBF750FD0B4829
:1051000000900620CDE901047F200594CDE9030538
:1051100069460548FBF702FE002801D0FBF73FFD7A
:1051200009B030BD00010050680100200020903619
:105130000C4810B50A49016000214FF44002C0E953
:1051400001120161C160416132218161FCF77AFB8A
:10515000002803D0BDE81040FBF721BD10BD0000C2
:1051600000020140940200200C4810B50A49016079
:1051700000214FF44002C0E901120161C1604161A8
:1051800032218161FCF75EFB002803D0BDE81040AE
:10519000FBF705BD10BD000004020140B80200206D
:1051A0000B4810B5094901600A4A0021C0E9011203
:1051B0000161C160416111218161FCF743FB00285D
:1051C00003D0BDE81040FBF7EABC10BD0802014067
:1051D000DC02002030008000074910B50548086057
:1051E0000846FCF79FFC002803D0BDE81040FBF701
:1051F000D6BC10BD000C02400003002000B58DB0ED
:1052000030216846FBF74EF81149104808600846FF
:10521000FCF707FE08B1FBF7C2FC0220009000205B
:105220008DF804008DF80500029003900121049090
:10523000CDE905010246079069460548FCF7E2FC06
:10524000002801D0FBF7ABFC0DB000BD00080050FA
:10525000E803002000B58DB030216846FBF722F846
:105260001149104808600846FCF7DBFD08B1FBF760
:1052700096FC002002218DF804008DF805000290B4
:10528000CDE906100091CDE904010390024669467C
:105290000548FCF7B7FC002801D0FBF780FC0DB0F7
:1052A00000BD000000100050FC030020354808B588
:1052B000816C41F004018164816C01F00401009172
:1052C000816C41F002018164816C01F00201009166
:1052D000816C41F001018164806C002200F00100CA
:1052E000009011460C20FDF725FA0C20FDF714FA6A
:1052F000002211460D20FDF71DFA0D20FDF70CFAD6
:10530000002211460E20FDF715FA0E20FDF704FAD3
:10531000002211461020FDF70DFA1020FDF7FCF9D0
:10532000002202213820FDF705FA3820FDF7F4F9B4
:10533000002202213920FDF7FDF93920FDF7ECF9B3
:10534000002202213A20FDF7F5F93A20FDF7E4F9B1
:10535000002202213B20FDF7EDF93B20FDF7DCF9AF
:10536000002202213C20FDF7E5F93C20FDF7D4F9AD
:10537000002202216120FDF7DDF9BDE8084061202F
:10538000FDF7CAB9001002402DE9F04186B01421A2
:105390006846FAF787FF3D48C16C41F02001C164BF
:1053A000C16C01F020010591C16C41F00101C164A3
:1053B000C16C01F001010591C16C41F00201C164B1
:1053C000C16C01F002010591C16C41F00401C1649E
:1053D000C16C01F004010591C16C41F00801C16488
:1053E000C06C2B4E00F008004FF4E06505900022E1
:1053F00029463046FDF733F9264F0022042138466E
:10540000FDF72DF9072000904FF488100024CDE916
:105410000104DFF8848069464046FCF7F7FF0095F9
:105420000125CDE90154694630460394FCF7EEFFAF
:1054300004200090CDE90154694638460394FCF7F6
:10544000E5FF102000900320CDE9010469464046A5
:10545000FCF7DCFF002201210620FDF76BF9062096
:10546000FDF75AF9002201210720FDF763F9072013
:10547000FDF752F9002201210820FDF75BF9082011
:10548000FDF74AF906B0BDE8F081000000100240C7
:1054900000080048000C0048000400480C4810B503
:1054A0000A49016080214160602181600C21016115
:1054B000002101758161C162FDF76EF9002803D0FA
:1054C000BDE81040FBF76BBB10BD000000030140BE
:1054D0001004002010B590B0002409940A940B9495
:1054E000142104A80C94FAF7DDFE28480D940F94BB
:1054F0000E940094019402942349039401609F2127
:10550000C0E901144FF6FF71C0E9031444618461DE
:10551000FEF761F808B1FBF742FB4FF480500990A9
:1055200009A91A48FEF772FA08B1FBF738FB1748C9
:10553000FEF77EFB08B1FBF732FB042004905020FD
:10554000CDE9050404A911480894FFF76FF808B1E4
:10555000FBF725FB0D940DA90C480F94FDF794FF64
:1055600008B1FBF71CFB0120CDE9004002940022AA
:10557000694606480394FEF7CCFA002801D0FBF7F1
:105580000EFB10B010BD000000400140600600207E
:105590000D4810B50B49016040F23F6141600021A8
:1055A00042F20F72C0E90212016141618021816102
:1055B000FEF711F8002803D0BDE81040FBF7EFBA62
:1055C00010BD000000440140AC06002030B591B091
:1055D00000240C940D940E94142104A80F94FAF74F
:1055E00061FE35480A940B94099400940194029446
:1055F0003049039401609F21C0E901144FF6FF7107
:10560000C0E9031444618461FDF7E5FF08B1FBF7CD
:10561000C6FA4FF480500C900CA92748FEF7F6F913
:1056200008B1FBF7BCFA2448FEF702FB08B1FBF710
:10563000B6FA042004907020CDE90504079404A96B
:105640001D480894FEF7F2FF08B1FBF7A8FA099489
:105650000A9409A918480B94FDF716FF08B1FBF747
:105660009EFA4FF400411448FDF75CFF022501202B
:105670000095CDE90104002269460F480394FEF726
:1056800048FA08B1FBF78BFA002202210A48FDF71D
:105690005DFF08B1FBF783FA042269460648CDE9AD
:1056A0000045FEF736FA002801D0FBF778FA11B072
:1056B00030BD0000002C01404C04002010B588B023
:1056C00000211748009101910291039104910591E5
:1056D0004FF080420691C0E9002140F23F62C0E9EC
:1056E0000212802484610161FDF775FF08B1FBF7A8
:1056F00056FA4FF48050009069460948FEF786F943
:1057000008B1FBF74CFA2020049004A90694044841
:10571000FDF7BAFE002801D0FBF741FA08B010BD32
:105720009804002010B588B014216846FAF7BAFD35
:10573000002415480594069412490794C0E9001402
:105740004FF6FF71C0E9024104618461FDF743FF38
:1057500008B1FBF724FA0720009010200190694659
:105760000948FEF763FF08B1FBF719FA059405A98C
:1057700005480794FDF788FE002801D0FBF70FFAD3
:1057800008B010BD00040040E404002010B590B043
:10579000002409940A940B94142168460C94FAF797
:1057A00081FD2E480D940F940E9405940694079451
:1057B0002949089401609F21C0E901144FF6FF7147
:1057C000C0E903148461FDF706FF08B1FBF7E7F9B0
:1057D0004FF48050099009A92048FEF717F908B145
:1057E000FBF7DDF91D48FEF723FA08B1FBF7D7F9FF
:1057F000042000907020CDE9010403946946174805
:105800000494FEF713FF08B1FBF7C9F90D940DA935
:1058100012480F94FDF738FE08B1FBF7C0F94FF4BA
:1058200080410E48FDF77EFE0120CDE9054007943A
:10583000002205A909480894FEF76BF908B1FBF7A7
:10584000AEF9002201210548FDF780FE002801D0B5
:10585000FBF7A5F910B010BD00080040300500208E
:105860003EB500241048009401940E490294016052
:1058700040F23F61C0E9011442F20F71C160802122
:105880008161FDF7A8FE08B1FBF789F9009469462C
:1058900005480294FDF7F8FD002801D0FBF77FF9D9
:1058A0003EBD0000001000407C0500203EB50024F5
:1058B0000F48009401940D49029401609F21C0E9B2
:1058C00001144FF6FF71C16080218161FDF783FEF5
:1058D00008B1FBF764F90094694605480294FDF7A6
:1058E000D3FD002801D0FBF75AF93EBD001400405B
:1058F000C805002010B590B000240C940D940E94AF
:10590000142104A80F94FAF7CDFC28480A940B94AC
:1059100009940094019402942349039401609F2107
:10592000C0E901144FF6FF71C0E9031444618461BA
:10593000FDF751FE08B1FBF732F94FF480500C909F
:105940000CA91A48FEF762F808B1FBF728F91748C6
:10595000FEF76EF908B1FBF722F9042004905020FD
:10596000CDE9050404A911480894FEF75FFE08B1CB
:10597000FBF715F909940A9409A90C480B94FDF753
:1059800083FD08B1FBF70BF90120CDE9004002943B
:105990000022694605480394FEF7BBF8002801D0B1
:1059A000FBF7FDF810B010BD0034014014060020D4
:1059B000184810B5164901604FF4E13141600021EB
:1059C00081600C22C160C0E904128161C161016281
:1059D00041628162FFF736F808B1FBF7E0F8002179
:1059E0000C48FEF796FE08B1FBF7D9F800210948EC
:1059F000FEF769FE08B1FBF7D2F80648FEF742FE53
:105A0000002803D0BDE81040FBF7C9B810BD000066
:105A100000380140D8080020FEE7FEE7704730B5A7
:105A200001210020FFF796FA4FF47A70FBF7A0F8F7
:105A300000210120FFF78EFA41F290711020FFF74C
:105A400089FA4FF41C516020FFF784FA012161208C
:105A5000FFF780FA02214620FFF77CFA48F2100196
:105A60001320FFF777FA48F2FE011220FFF772FACF
:105A70004FF4A0610220FFF76DFA41F230010320DC
:105A8000FFF768FA40F2033421463020FFF762FA4C
:105A900021463120FFF75EFA21463220FFF75AFAFD
:105AA000E51E29463320FFF755FA03213420FFF77E
:105AB00051FA21463520FFF74DFA14213620FFF721
:105AC00049FA21463720FFF745FA21463820FFF7EB
:105AD00041FA21463920FFF73DFA29463A20FFF7DF
