:020000040800F2
:10000000B0040024AD020008DF25000841250008E7
:10001000DD250008B9030008A52F00080000000036
:10002000000000000000000000000000E5270008BC
:10003000BB03000800000000E1250008E7270008D6
:10004000C7020008C7020008C7020008C70200086C
:10005000C7020008C7020008C7020008C70200085C
:10006000C7020008C7020008C7020008C70200084C
:10007000C7020008C7020008C7020008C70200083C
:10008000C7020008C7020008C7020008C70200082C
:10009000C7020008C7020008C7020008C70200081C
:1000A000C7020008C7020008C7020008C70200080C
:1000B000C7020008C7020008C7020008C7020008FC
:1000C000C7020008C7020008C7020008C7020008EC
:1000D000C70200089D2F0008C7020008C7020008D9
:1000E000C7020008C702000800000000C70200089D
:1000F000C7020008C7020008C7020008C7020008BC
:10010000C7020008C7020008C7020008C7020008AB
:10011000C7020008C7020008C7020008C70200089B
:10012000C7020008C7020008C7020008C70200088B
:10013000C7020008C7020008C7020008C70200087B
:1001400000000000000000000000000000000000AF
:10015000C7020008C7020008C7020008C70200085B
:10016000C7020008C7020008C7020008C70200084B
:10017000C7020008C7020008C7020008000000000C
:10018000C7020008C7020008C7020008C70200082B
:10019000C7020008C7020008C7020008C70200081B
:1001A000C7020008C7020008C7020008C70200080B
:1001B000C7020008C7020008C7020008C7020008FB
:1001C000C7020008C7020008C7020008C7020008EB
:1001D000C7020008C7020008C7020008C7020008DB
:1001E000C7020008C7020008C7020008C7020008CB
:1001F000C7020008C7020008C7020008C7020008BB
:10020000C7020008C7020008C7020008C7020008AA
:10021000C7020008C7020008C7020008C70200089A
:10022000C7020008C7020008C7020008000000005B
:10023000C7020008C702000800000000C70200084B
:10024000C7020008C7020008C7020008C70200086A
:10025000C7020008C7020008C7020008C70200085A
:10026000C7020008C7020008C7020008C70200084A
:10027000C7020008C7020008C7020008000000000B
:10028000C7020008C7020008C702000800000000FB
:1002900000000000C7020008DFF80CD000F07AF878
:1002A00000480047E52F0008B004002406488047B6
:1002B00006480047FEE7FEE7FEE7FEE7FEE7FEE74B
:1002C000FEE7FEE7FEE7FEE78D280008990200083A
:1002D0002DE9F05F0546002092469B46884606467B
:1002E000814640241BE0284641464746224600F00E
:1002F00041F853465A46C01A914110D31146184648
:10030000224600F028F82D1A67EB01084F462246D6
:100310000120002100F01FF817EB00094E41201EBC
:10032000A4F10104DFDC484631462A464346BDE8D5
:10033000F09FD2B201E000F8012B491EFBD27047BA
:100340000022F6E710B513460A4604461946FFF7A1
:10035000F0FF204610BD202A04DB203A00FA02F10B
:10036000002070479140C2F1200320FA03F31943A3
:1003700090407047202A04DB203A21FA02F0002145
:10038000704721FA02F3D040C2F1200291400843A5
:1003900019467047064C074D06E0E06840F001033F
:1003A00094E8070098471034AC42F6D3FFF778FF83
:1003B0008C300008AC300008FEE77047EFF3108087
:1003C00072B6FEE7F8B5044600F040FB002C00F0E2
:1003D000AA80054694F83500022840F0A6802768D8
:1003E000AC4EB74238463CD0AB488742384638D04E
:1003F000AA488742384634D0A9488742384630D088
:10040000A848874238462CD0A7488742384628D08B
:10041000A6488742384624D0A5488742384620D08F
:10042000A448874238461CD0A3488742384618D093
:10043000A2488742384614D0A1488742384610D097
:10044000A048874238460CD09F488742384608D09B
:100450009E488742384604D09D48874240F0E98054
:100460009B48016821F01E0207F1140102606FF041
:1004700080000A68B74200EA020008603CD0F448F5
:1004800087421CBFF348874236D0F34887421CBFDF
:10049000F248874230D0F24887421CBFF148874279
:1004A0002AD0F14887421CBFF048874224D0F04848
:1004B00087421CBFEF4887421ED0EF4887421CBFCF
:1004C000EE48874218D0EE4887421CBFEE4887426C
:1004D00012D0EC4887421CBFEC4887420CD0EC4855
:1004E00087421CBFEB48874206D0EB4887421CBFBF
:1004F000EA48874240F0B680206E016821F480719E
:100500000160386820F0010038603868C00710D0FA
:1005100000F09CFA401B0628F7D3202060650320DA
:1005200084F8350003E0012081E08020606501202F
:100530007AE02068B0421CBFC54988421DD0C54939
:1005400088421CBFC449884217D0C44988421CBF96
:10055000C349884211D0C34988421CBFC24988425E
:100560000BD0C24988421CBFC149884205D0C1494D
:1005700088421CBFC04988425FD1A16DE26D3F2314
:1005800002F01F0203FA02F28A60B0423BD0B04987
:1005900088421CBFAF49884235D0AF4988421CBF52
:1005A000AE4988422FD0AE4988421CBFAD4988422F
:1005B00029D0AD4988421CBFAC49884223D0AC4900
:1005C00088421CBFAB4988421DD0AB4988421CBF42
:1005D000AA49884217D0AA4988421CBFAA49884222
:1005E00011D0A84988421CBFA84988420BD0A8490D
:1005F00088421CBFA749884205D0A74988421CBF32
:10060000A64988423BD1E06ED4E9191200284A601D
:1006100006D0016821F480710160D4E91C014160B9
:10062000012084F835000020002184F8341001B046
:10063000F0BD6FF00E0039461BE7904988429CD010
:100640009149884299D08E49884296D08D498842F6
:10065000A16D93D0E26D012302F01F0203FA02F2B2
:100660004A6092E78E4887423FF446AF8D48874202
:100670003FF442AF8C4887423FF43EAF41E78849A0
:100680008842C0D087498842BDD087498842BAD0C5
:10069000C6E700BF100002402800024040000240B0
:1006A000580002407000024088000240A000024052
:1006B000B8000240100402402804024040040240F6
:1006C000580402407004024088040240A004024022
:1006D000B804024010B5002841D090F83510022926
:1006E0003BD10168594A914223D0594B99421CBFD2
:1006F000584B99421DD0584B99421CBF574B9942B9
:1007000017D0574B99421CBF564B994211D0564BAC
:1007100099421CBF554B99420BD0554B99421CBF77
:10072000544B994205D0544B99421CBF534B9942AC
:100730003CD10423914280F835301CBF44488142AB
:1007400005D0444881421CBF434881420AD1086811
:1007500020F001000860002102E0802141650121B4
:10076000084610BD3D488142F1D03D488142EED05F
:100770003C488142EBD03C4881421CBF3B4881420F
:10078000E5D03B4881421CBF3A488142DFD03A481D
:1007900081421CBF39488142D9D039488142D6D0E4
:1007A00038488142D3D038488142D0E7344B99420F
:1007B000BFD0344B9942BCD0334B9942B9D00A6870
:1007C00022F00E020A60314A91420A6822F00102C8
:1007D0000A600BD02E4A91421CBF2E4A914205D08E
:1007E0002D4A91421CBF2D4A914225D1D0E916C213
:1007F000D0E9183E196802F01F0221F4807101242B
:10080000196004FA02F1CCF80410816ECEF80410DD
:10081000C16E31B10A6822F480720A60D0E91C12FC
:100820004A60012180F835100021026D002A80F80D
:10083000341095D090478EE7194A9142D6D0194A84
:100840009142D3D0184A9142D0D0EAE7100002403A
:100850002800024040000240580002407000024060
:1008600088000240A0000240B8000240100402408C
:100870002804024040040240580402407004024030
:1008800088040240B8040240A00402400854025800
:100890001C540258305402584454025858540258B8
:1008A0006C54025894540258805402582DE9FE4F5B
:1008B000604A0A27604C019002444FEAB223A042EA
:1008C00008BF0927002600204FF0000B092B38BF76
:1008D0004FEAB2270097A4E0012303FA0BF412EACF
:1008E000040C00F09A80D1F80480324608F0030E20
:1008F000AEF10107012F16D8019E0323B76803FA52
:1009000000F5CB68AF4383403B43B3604FEA4B09EC
:100910007368C8F30017A34307FA0BF423436FEA85
:10092000050A73600CE00323019E8340BEF1030FB0
:100930006FEA030A814603D181464FF0030E1FE0A0
:10094000F368BEF1020F8C6803EA0A0304FA09F4A3
:1009500043EA0403F36013D16FF0030303EA5B037C
:10096000334402F01C071D6A0F24BC40A5430C69E8
:1009700004FA07F72F431F62D1F8048008F0030E32
:1009800033680EFA09F703EA0A033B4318F4403FC1
:100990003360164641D0624B1F46284A1B680F241D
:1009A00043F002033B604FF0B04E3B6803F002039C
:1009B00002932BF00303029F06F00C079D58BC40E6
:1009C000A543009C04FA07F72F439F50DEF8003040
:1009D0004F6843EA0C05FC0258BF23EA0C05CEF829
:1009E0000050134B1A461B68BC0243EA0C0558BF63
:1009F00023EA0C051560D2F88030BC0343EA0C05ED
:100A000058BF23EA0C05C2F88050D36FFF0343EAB6
:100A10000C0558BF23EA0C05D5670BF1010B02301A
:100A200004360A6832FA0BF77FF456AFBDE8FE8F42
:100A3000040000580000FEA70024025808040058D3
:100A400001480068000C70470010005C0548006811
:100A5000704700BF2948007802490A6810440860BE
:100A6000704700BFA800002480B5032000F088F87C
:100A700000F098FF0F490A68C2F303220968624B2D
:100A800001F00F019A5C595C02F01F02D0400A4A43
:100A900001F01F0120FA01F11160194908600F20CF
:100AA00000F00CF808B1012080BD00F02BF8002008
:100AB00080BD00BF184402581000002470B50F4ECE
:100AC0003178C1B104464FF47A70B0FBF1F00C49B3
:100AD0000968B1FBF0F001F051FA0F2C4FF001055D
:100AE0000AD848B94FF0FF3000222146002500F017
:100AF00027F8746000E00125284670BD040000243A
:100B00000C00002481B00648016841F00201016038
:100B1000006800F002000090009801B0704700BF2C
:100B2000F4440258002808DB00F01F01012202FAF9
:100B300001F1024A400942F82010704700E100E04C
:100B400080B5154B1B68C3F3022C8CF0070EBEF169
:100B5000040F28BF4FF0040EBCF103034FF0FF3C1D
:100B600038BF00230CFA0EFE21EA0E0199400CFA60
:100B700003F39A431143BDE8804002F015BA00BF69
:100B800005490A684FF6FF031A4060F30A2203483A
:100B900010430860704700BF0CED00E00000FA054C
:100BA000B0B5104D29684907296805D401F007013F
:100BB000081A18BF0120B0BD21F0070108432860C2
:100BC000FFF744FF044655F8080C800407D4FFF7EC
:100BD0003DFF001BB0F57A7FF5D90120B0BD0020A4
:100BE000B0BD00BF0C48025880B500F09BFE05491F
:100BF000054A0968C1F30211515C01F01F01C840A8
:100C000080BD00BF204402585430000810B53C4C51
:100C1000A36AA26AC2F3053CE26AC2F30012E16B66
:100C2000C1F3CC01BCF1000F02FB01F100EE101A80
:100C3000B8EE400A0AD003F00303022B0AD063B9CE
:100C4000216889060CD49FED311A13E00021C0E918
:100C5000001153E09FED2C1A0CE09FED2A1A09E0D9
:100C600021682B4AC1F3C10122FA01F101EE101AE9
:100C7000B8EE411A02EE10CA9FED263AB8EE422AAB
:100C8000A16B6FF35F2181EE021A02EE101AB8EE2B
:100C9000422AA16BC1F3462100EE032AB7EE000AF7
:100CA00003EE101A32EE002AB8EE433A21EE021A91
:100CB00033EE002A81EE022ABCEEC22A80ED002A21
:100CC000A16BC1F3064102EE101AB8EE422A32EED1
:100CD000002A81EE022ABCEEC22A80ED012AA16B15
:100CE000C1F3066102EE101AB8EE422A32EE000A93
:100CF00081EE000ABCEEC00A10EE101A816010BD31
:100D0000004402580024744A20BCBE4B0024744C9A
:100D10000090D0030000003910B53C4CA36AA26AD1
:100D2000C2F3055CE26AC2F30022616CC1F3CC013C
:100D3000BCF1000F02FB01F100EE101AB8EE400A00
:100D40000AD003F00303022B0AD063B92168890695
:100D50000CD49FED311A13E00021C0E9001153E0DB
:100D60009FED2C1A0CE09FED2A1A09E021682B4A0E
:100D7000C1F3C10122FA01F101EE101AB8EE411AD5
:100D800002EE10CA9FED263AB8EE422A216C6FF3AC
:100D90005F2181EE021A02EE101AB8EE422A216C8F
:100DA000C1F3462100EE032AB7EE000A03EE101A43
:100DB00032EE002AB8EE433A21EE021A33EE002A50
:100DC00081EE022ABCEEC22A80ED002A216CC1F31A
:100DD000064102EE101AB8EE422A32EE002A81EEE7
:100DE000022ABCEEC22A80ED012A216CC1F3066101
:100DF00002EE101AB8EE422A32EE000A81EE000A24
:100E0000BCEEC00A10EE101A816010BD00440258FA
:100E10000024744A20BCBE4B0024744C0090D003C4
:100E2000000000392DE9F0470446C078AC4F0007B8
:100E300021D5606E4FEA3051032908D8DFE801F070
:100E400002090E16F96941F40031F9610EE001263C
:100E500012E0201D022101F0C5FB04E004F1240092
:100E6000022101F03FFC064630B9606E396C21F476
:100E700040110843386400266078BA46C00701D1A3
:100E8000354629E0606D04280BD83546DFE800F0D0
:100E9000030C11171700F869354640F40030F8616B
:100EA0000DE00125012718E0201D002101F09AFB2B
:100EB00004E004F12400002101F014FC0546002D9B
:100EC0002F460AD1DAF84000002520F00700616DB6
:100ED00008435246CAF840003746607880072CD550
:100EE000A06D4FEAB01004280CD8DFE800F0030E24
:100EF00013191900DAF81C00514640F40030CAF802
:100F00001C000DE00125012618E0201D002101F044
:100F100069FB04E004F12400002101F0E3FB054635
:100F2000002D2E460AD1DAF84000002520F4E070AA
:100F3000A16D08435246CAF840003E46607840071B
:100F400002D4B04657462BE0D4F8A40057464FEAE7
:100F50007050042809D8DFE800F0030C11171700BF
:100F6000F86940F40030F8610EE001254FF0010807
:100F700016E0201D002101F035FB04E004F12400FF
:100F8000002101F0AFFB0546002DA84608D1B86C42
:100F9000002520F46000D4F8A4100843B046B864DB
:100FA000607800072BD5D4F8A8004FEA30600428F9
:100FB00009D8DFE800F0030B10161600F86940F4BA
:100FC0000030F8610DE00125012719E0201D002106
:100FD00001F008FB04E004F12400002101F082FB91
:100FE0000546002D2F460BD1DAF84800002520F0E9
:100FF000E060D4F8A81008435246CAF848004746B3
:10100000E078800725D5A06C4FEA301003280BD874
:10101000DFE800F012020D12DAF81C00514640F42D
:101020000030CAF81C0007E00125012612E0201D4F
:10103000022101F0D7FA0546002D2E460AD1DAF832
:101040003C00002520F03000A16C08435246CAF84D
:101050003C003E466078C0062CD5E06D4FEA30304B
:1010600004280CD8DFE800F0030E13191900DAF891
:101070001C00514640F40030CAF81C000DE0012568
:10108000012718E0201D002101F0ACFA04E004F172
:101090002400002101F026FB0546002D2F460AD131
:1010A000DAF84000002520F4E040E16D08435246A4
:1010B000CAF8400037466078800626D5206E4FEA91
:1010C0003040052809D8DFE800F013030D1313138F
:1010D000201D012101F086FA09E00125012615E015
:1010E0001044025804F12400012101F0FBFA0546E6
:1010F000002D2E460AD1DAF84000002520F4E02029
:10110000216E08435246CAF840003E4660784006C9
:1011100026D5D4F8AC004FEA3070052809D8DFE8AE
:1011200000F011030B111111201D012101F05AFAD9
:1011300007E00125012714E004F12400012101F05A
:10114000D1FA0546002D2F460BD1DAF848000025CC
:1011500020F0E040D4F8AC1008435246CAF84800EA
:1011600037466078000621D5E06E90B1B0F1005F9F
:101170000AD0B0F1805F2DD1DAF81C00514640F45E
:101180000030CAF81C0004E0201D012101F02AFAF9
:101190000546002D2E460AD1DAF84000002520F041
:1011A0004050E16E08435246CAF840003E46E0789F
:1011B000C00702D1B046574623E0606C574603286B
:1011C0000BD8DFE800F013020E13F86940F400308A
:1011D000F8610BE001250126E9E701254FF0010840
:1011E0000FE0201D022101F0FDF90546002DA84663
:1011F00007D1F86B002520F00300616C0843B0466E
:10120000F863A078400601D4474617E0D7F8F0030A
:1012100040F48070C7F8F003FFF718FC0646D7F8D3
:10122000F003C00507D4FFF711FC801B6428F6D932
:101230000325032702E0002D2F4611D02078C00798
:101240004FD0A06F4FEAF000052834D8DFE800F057
:101250003C03363C3C3C201D012101F0C3F932E047
:10126000DAF860105346D4F8B000414011F4407FE2
:101270000BD0196E1A6E21F4407142F480321A6656
:101280001A6E22F480321A661966B0F5807F40F03B
:101290002582FFF7DBFB064641F288390325032749
:1012A000DAF86000800700F11682FFF7CFFB801BA1
:1012B0004845F5D9C2E70125012613E004F12400D1
:1012C000012101F00FFA0546002D2E460AD1DAF869
:1012D0004400002520F03800A16F08435246CAF8A8
:1012E00044003E462078800722D5606F052809D843
:1012F000DFE800F011030B111111201D012101F095
:1013000071F907E00125012713E004F12400012110
:1013100001F0E8F90546002D2F460AD1DAF844001D
:10132000002520F00700616F08435246CAF84400C8
:1013300037462078400724D5D4F89000052809D8EE
:10134000DFE800F011030B111111201D012101F044
:1013500049F907E00125012614E004F124000121E8
:1013600001F0C0F90546002D2E460BD1DAF84800F1
:10137000002520F00700D4F8901008435246CAF820
:1013800048003E462078800626D5D4F88C004FEAE7
:101390003070052809D8DFE800F011030B11111196
:1013A000201D002101F01EF907E00125012714E0AE
:1013B00004F12400022101F095F90546002D2F4685
:1013C0000BD1DAF84400002520F0E040D4F88C106E
:1013D00008435246CAF8440037462078400626D5CE
:1013E000D4F898004FEAB020052809D8DFE800F0CB
:1013F00011030B111111201D002101F0F3F807E07A
:101400000125012614E004F12400022101F06AF90B
:101410000546002D2E460BD1DAF84800002520F4B1
:10142000E050D4F8981008435246CAF848003E46A7
:101430002078000626D5D4F89C004FEA70300528A5
:1014400009D8DFE800F011030B111111201D002154
:1014500001F0C8F807E00125012714E004F1240099
:10146000022101F03FF90546002D2F460BD1DAF895
:101470004800002520F46040D4F89C1008435246F0
:10148000CAF8480037462068010717D5D4F88010FD
:10149000B1F5805F0AD104F12400022101F022F9A4
:1014A000002818BF01272068D4F88010DAF84420FB
:1014B000534622F440521143CAF84410C10617D5CE
:1014C000D4F89410B1F5807F0AD104F124000221F0
:1014D00001F008F9002818BF01272068D4F89410FB
:1014E000DAF84820534622F440721143CAF84810F3
:1014F000000321D5D4F8A000B0F5003F0ED0B0F520
:10150000803F05D080BB201D002101F06BF804E076
:1015100004F12400022101F0E5F80546002D2E46D5
:101520000BD1DAF84800002520F44030D4F8A010A0
:1015300008435246CAF848003E46A07840072AD5DC
:10154000D4F88400B0F5401F17D0B0F5001F0ED0BE
:10155000B0F5801F40F0BA80DAF81C00514640F424
:101560000030CAF81C0008E001250126E5E704F177
:101570002400012101F0B6F80546002D2F460BD1BD
:10158000DAF84400002520F44010D4F88410084311
:101590005246CAF844003746A078C00701D13E46FB
:1015A00021E0E06CB0F5803F08D0D0B9DAF81C003B
:1015B000514640F40030CAF81C0004E0201D02210E
:1015C00001F010F80546002D2E460CD1DAF83C004B
:1015D000002520F48030E16C08435246CAF83C00F4
:1015E000DDE7012501262068810008D504F12400EB
:1015F000022101F077F8002818BF01262068810336
:1016000019D5E16F6FF0010202EB3122022A0AD3F1
:101610004FEA31223AB1012A5BD1DAF81C2042F4B8
:101620000032CAF81C203DB9DAF8442022F4407296
:101630001143CAF844103546C10207D5DAF8401004
:1016400021F00041226F1143CAF84010C10008D5B3
:10165000DAF8001021F48041D4F8B4201143CAF81C
:101660000010810207D5DAF8401021F08071A26ED7
:101670001143CAF8401041000CD5DAF8001021F4EB
:101680000041CAF80010D4F8B810DAF8002011436D
:10169000CAF80010B0F1FF3F07DCDAF83C1021F087
:1016A0004051226D1143CAF83C10000208D5DAF807
:1016B000440020F44000D4F888100843CAF84400DD
:1016C000002D18BF01252846BDE8F0870125012718
:1016D00062E70125B0E75346D4F8B00000F440714A
:1016E0001A68B1F5407F22F47C5103D1054A02EA21
:1016F0001012114319606FF31F30196E0025084353
:10170000186681E5CFFFFF002DE9F843002800F0BF
:1017100000810446814D286800F00F008846884209
:101720000BD2286820F00F0040EA080028602868E3
:1017300000F00F00404540F0EC802068D04F41079A
:101740000AD52169BA6902F07002914204D9BA69D6
:1017500022F070021143B96101070AD56169FA6983
:1017600002F07002914204D9FA6922F0700211432A
:10177000F961C1060AD5A169FA6902F4E0629142F1
:1017800004D9FA6922F4E0621143F96181060AD5AD
:10179000E1693A6A02F07002914204D93A6A22F091
:1017A00070021143396210F002010AD0E268BB698D
:1017B00003F00F039A4204D9BB6923F00F031A43C5
:1017C000BA61C20738D0B86920F47061D4E9010267
:1017D00011430328B96105D0022807D1396889036C
:1017E0000DD496E03968890109D492E0012839685E
:1017F00002D1C90503D48CE0490740F18A803969D8
:10180000A94621F0070108433861FFF71FF9064692
:1018100041F28835386900F038006168B0EBC10FDB
:1018200006D0FFF713F9801BA842F3D9032071E01B
:1018300020684D4600F0020151B1E168BA6902F03A
:101840000F02914204D2BA6922F00F021143B9612A
:10185000296801F00F0141450AD9296821F00F01DB
:1018600041EA08012960296801F00F01414550D182
:1018700041070AD52169BA6902F07002914204D287
:10188000BA6922F070021143B96101070AD5616992
:10189000FA6902F07002914204D2FA6922F07002F1
:1018A0001143F961C1060AD5A169FA6902F4E0623F
:1018B000914204D2FA6922F4E0621143F961800690
:1018C0000AD5E069396A01F07001884204D2396AA8
:1018D00021F070010843386200F064F8B969C1F37F
:1018E00003212F4A515CBB6903F00F03D25C01F066
:1018F0001F0120FA01F102F01F00184A21FA00F03E
:101900001060174A064800681160BDE8F843FFF709
:10191000D5B8012001B0BDE8F08300BF002000521F
:101920000800002480B500F03DF80B490A68C2F3B6
:10193000032209681A4B01F00F019A5C595C02F00E
:101940001F0220FA02F201F01F00044922FA00F0FF
:10195000086003490A6080BD184402581000002442
:101960000C00002480B5FFF7DDFF0C490C4A096824
:10197000C1F30211515C01F01F01C84080BD00BFDE
:1019800080B5FFF7CFFF0549054A0968C1F3022179
:10199000515C01F01F01C84080BD00BF1C440258CB
:1019A0005430000836490869C0F3C20003280CD03F
:1019B000022828D048BB08688006374858BF7047BF
:1019C0000968C1F3C101C84070478A6A886AC0F3D8
:1019D000051CCB6A486B03F00103C0F3CC00BCF1DB
:1019E000000F03FB00F000EE100AB8EE400A0ED024
:1019F00002F00302022A0CD072B9086880060ED4E5
:101A00009FED241A15E0204870471E4870470020BB
:101A100070479FED1F1A0CE09FED1C1A09E0086843
:101A20001D4AC0F3C10022FA00F001EE100AB8EE20
:101A3000411A02EE10CA9FED193AB8EE422A086B1D
:101A40006FF35F2081EE021A02EE100AB8EE422A0E
:101A5000086BC0F3462000EE032AB7EE000A0130FF
:101A600032EE000A21EE000A01EE100AB8EE411A29
:101A700080EE010ABCEEC00A10EE100A704700BFEB
:101A80000044025800093D0040787D010024744A5A
:101A900020BCBE4B0024744C0090D00300000039E1
:101AA000F8B5002800F08E8104460078D14EC007BA
:101AB0004AD0306900F03801B06A102905D01829E1
:101AC00009D100F00300022805D1306880033BD51E
:101AD0006068C8BB76E1606868B1B0F5803F06D049
:101AE000B0F5A02F30681CD140F480203060306801
:101AF00040F480301BE0306820F480303060306883
:101B000020F480203060FEF7A1FF05463068800396
:101B10001AD5FEF79BFF401B64284FF00300F5D950
:101B200065E120F480303060306820F4802030603F
:101B3000FEF78CFF05463068800305D4FEF786FF6C
:101B4000401B6428F7D951E12078800761D53069BE
:101B500010F03801B06A18D0182908BF5FEA807009
:101B600013D0E0680028316838D021F0190108430B
:101B70003060FEF76BFF0546306840071FD4FEF764
:101B800065FF401B0228F7D930E130684007E06864
:101B900002D5002800F01681316821F019010843B0
:101BA0003060FEF753FF05463068400707D4FEF764
:101BB0004DFF401B02284FF00300F5D917E1FEF757
:101BC0003FFF41F20301884219D82069716840281B
:101BD00021F47C311AD141F4003019E021F00100E8
:101BE0003060FEF733FF05463068400711D5FEF739
:101BF0002DFF401B02284FF00300F5D9F7E0706875
:101C000020F0FE40216940EA016001E041EA003035
:101C100070602078C00653D5306900F03801B06A92
:101C2000082905D018290BD100F00300012807D19D
:101C30003068C00519D5E069802840F0C38014E001
:101C4000E0690028306827D040F080003060FEF75F
:101C5000FDFE05463068C00507D4FEF7F7FE401BC1
:101C600002284FF00300F5D9C1E0FEF7E9FE41F28A
:101C70000301884208D8206A7168202821F0F841C1
:101C80001BD141F080401AE0F06820F07C50216ABE
:101C900040EA0160F06013E020F080003060FEF761
:101CA000D5FE05463068C0050AD5FEF7CFFE401BBD
:101CB00002284FF00300F5D999E041EA8060706096
:101CC0002078000723D560690028706F0ED040F09F
:101CD00001007067FEF7BAFE0546706F800716D4E4
:101CE000FEF7B4FE401B0228F7D97FE020F0010088
:101CF0007067FEF7ABFE0546706F800707D5FEF7ED
:101D0000A5FE401B02284FF00300F5D96FE02078B4
:101D1000800623D5A069002830680ED040F480509A
:101D20003060FEF793FE05463068800416D4FEF757
:101D30008DFE401B0228F7D958E020F48050306017
:101D4000FEF784FE05463068800407D5FEF77EFE68
:101D5000401B02284FF00300F5D948E020784007E7
:101D600032D4656A002D00F0EF80306900F0380051
:101D7000182850D1B16A012D306B23D001F0030235
:101D8000A36A9A421ED1C1F30511E26A914219D1A8
:101D90000146226B6FF35F21013A914212D1C0F3E9
:101DA0004621626B013A91420CD1C0F30641A26B0D
:101DB000013A914206D1C0F30660E16B01398842D5
:101DC00000F0C280012012E0D6F8000440F48070D8
:101DD000C6F80004FEF73AFE0546D6F80004C00532
:101DE0000AD4FEF733FE401B6428F6D9032001B065
:101DF000F0BD00BF00440258A06860B3012806D0BF
:101E00000528306F40F0A28040F004003067306F4A
:101E100040F00100A0E0306820F080703060FEF7F4
:101E200015FE022D05460AD1306880012CD5FEF73B
:101E30000DFE401B02284FF00300F5D9D7E73068AC
:101E4000800140F18180FEF701FE401B02284FF027
:101E50000300F4D9CBE7306F20F001003067306F1A
:101E600020F004003067FEF7F1FD054641F28837A7
:101E7000306F80077FF575AFFEF7E8FD401BB84275
:101E80004FF00300F4D9B2E7B06A40F2F33188436F
:101E9000A16A226B0843511E626B4FF47E4303EB31
:101EA0004222E36A6FF35F2192B240EA0310B0620C
:101EB0005018A16B4FF4FE0202EB014101F4FE0148
:101EC0000844E16B4FF0FE4202EB016101F0FE417C
:101ED000084430634FF6F871F06A20F00100F062B8
:101EE000706B8843A16C40EAC1007063F06A20F017
:101EF0000C00216C0843F062F06A20F00200616C73
:101F00000843F062F06A40F48030F062F06A40F416
:101F10000030F062F06A40F48020F062F06A40F035
:101F20000100F062306840F080703060FEF78EFD96
:101F300004463068800107D4FEF788FD001B0228A4
:101F40004FF00300F5D952E7002050E720F00100E0
:101F50003067306F20F004003067FEF777FD0546EC
:101F600041F28837306F80073FF5FBAEFEF76EFD1C
:101F7000401BB8424FF00300F4D938E7411E00205F
:101F8000B0EB116F01D001207047044A5160F0217D
:101F9000034B1970072190601160704710E000E05A
:101FA00023ED00E090F88010012901D1022112E018
:101FB0002421C0F8841002681368116823F00053CC
:101FC00021F0010111600021416613602022C0F858
:101FD000842080F880100846704770477047B0B57D
:101FE000044690F88000012801D10220B0BD0120F4
:101FF00084F880002420C4F8840020680568026802
:1020000022F001020260826822F060621143816066
:10201000204600F095FC206805602020C4F884006C
:10202000002084F88000B0BDB0B5044690F8800070
:10203000012801D10220B0BD012084F880002420B5
:10204000C4F8840020680568026822F0010202607A
:10205000826822F0604211438160204600F070FCEB
:10206000206805602020C4F88400002084F88000E7
:10207000B0BD704770477047B0B504460068C2698C
:1020800040F60F0105680A42D0F808C000F08980C8
:10209000B8490CEA010EB849294011EB0E0100F0D5
:1020A0008A80D10718BF15F4807107D00121016221
:1020B000D4F88C1041F00101C4F88C1091070CF099
:1020C000010308D53BB102210162D4F88C1041F024
:1020D0000401C4F88C10510708D53BB104210162FA
:1020E000D4F88C1041F00201C4F88C1011070CD503
:1020F00005F0200151EA0E0107D008210162D4F851
:102100008C1041F00801C4F88C1011050BD515F0A6
:10211000806108D04FF400610162D4F88C1041F066
:102120002001C4F88C10D4F88C10002900F0F6803F
:1021300091060AD505F020010CF08052891804D0D0
:10214000216F11B1204688472068D4F88C10806830
:1021500001F0280100F04000401800F0D98020462E
:1021600000F0B6FC20688168490601D4CBE0206805
:1021700050E8020F216820F0400041E80202002AE6
:10218000F5D1E06F002800F0BE807C490165FEF7C4
:10219000A1FA002800F0C280E06F016DBDE8B040F8
:1021A0000847910607D505F020010CF08053C918A7
:1021B00001D0216FA2E005EA0203D906E16E39D50C
:1021C000012937D110210162816849063FD4B4F852
:1021D0005C10B4F85E20B4F85E30002B00F09E80F6
:1021E000891A0A0401D199E0206850E8000F22689A
:1021F00020F4907042E80003002BF5D1604822687B
:1022000052E8022F2368024043E80225002DF6D150
:102210002020C4F888000020E0662067206850E88D
:10222000000F226820F0100042E80003002BF5D1D7
:1022300089B254E0D10257D51CF4800154D04FF438
:10224000801101622046BDE8B040FFF713BFE26F86
:1022500011684B6899B2002960D0B4F85CC0614540
:102260005CD2A4F85E30D169B1F5807F01D131E054
:10227000206850E8000F216820F4807041E80002D7
:10228000002AF5D1206850E8020F216820F00100F3
:1022900041E80202002AF5D1206850E8020F2168C7
:1022A00020F0400041E80202002AF5D12020C4F8C5
:1022B00088000020E066206850E8000F216820F0C8
:1022C000100041E80002002AF5D1E06FFEF77AF82D
:1022D000B4F85CC0B4F85E00ACEB000081B22046FC
:1022E000BDE8B040FFF779BE110618D505F0800EA5
:1022F0000CF4000111EB0E0111D0616F71B1204699
:10230000BDE8B04008472046BDE8B040FFF7B3BE87
:102310002046FFF7B0FE0020C4F88C00B0BD59067F
:102320000AD410021BD515F0804018D02046BDE815
:10233000B040FFF79EBE206850E8000F216820F0F3
:10234000400041E80002002AF5D12020C4F88400B2
:10235000002060672046BDE8B04000F0F0B8D00132
:10236000DCD5B5F1FF3FD9DC2046BDE8B040FFF732
:1023700035BE00BF0100001020010004C12A000882
:10238000FEFFFFEF10B5B0B10446D0F8840028B9C5
:10239000002084F88000204600F026F82420C4F8AD
:1023A00084002068016821F001010160204600F0EE
:1023B000BDFB012801D1012010BDA06A10B120464B
:1023C00000F0E8FA2068416821F49041416081689A
:1023D00021F02A018160016841F00101016020467D
:1023E000BDE8104000F039BB10B5B6B0044631A8C6
:1023F0001421FDF7A5FF02A8BC21FDF7A1FF20686D
:102400007549884231D101200290002402A820940D
:10241000FEF708FD08B1FDF7D1FF5548016941F00D
:1024200010010161016901F0100101910199016838
:1024300041F00101016031A9006800F00100019044
:1024400001984FF4C06031900220CDE9320407209A
:10245000349435900648FEF729FA25200021002201
:10246000FEF76EFB2520FEF75DFB36B010BD00BF0A
:10247000000002582DE9F8430446D0F884002028D3
:102480000AD10E4600294FF0010006D0174622B1AE
:1024900094F88000012803D1022001B0BDE8F08348
:1024A000012084F880004FF000092120C4F88C90AE
:1024B0001D46C4F88400FEF7C9FAA4F85470A4F8C5
:1024C00056700746A168B1F5805F07D120690028E2
:1024D0001CBF30464E46B046064601E04FF00008AD
:1024E00084F8809018E080210095002220463B4629
:1024F00000F0EAFCE0B91EB116F8010B216805E016
:1025000038F8020B002621686FF35F208862B4F868
:1025100056000138A4F85600B4F856000028E2D15D
:1025200040210095002220463B4600F0CDFC08B13A
:102530000320B2E72020C4F884000020ADE77047F4
:10254000FEE7000082B00A48016841F080010160A6
:10255000016801F0800101910199016841F00101D8
:102560000160006800F001000090009802B0704720
:10257000E044025810B5174C17484FF4E131206081
:102580000020C4E901100C21E060C4E9040104F159
:1025900018001421FDF7D4FE2046FFF7F3FE08B122
:1025A000FDF70CFF0B480021FFF73EFD08B1FDF7DA
:1025B00005FF08480021FFF712FD08B1FDF7FEFEF8
:1025C0000448FFF7EFFC18B1BDE81040FDF7F6BE78
:1025D00010BD00BF1800002400100140FEE7FEE718
:1025E00070470000F8B5CE4FBA6A02F00302032A22
:1025F00001D1012074E00546386820F080600C4667
:102600003860FEF723FA06463868000105D5FEF764
:102610001DFA801B0228F7D95FE0B86A4FF47E43A9
:10262000696820F47C30AA68013903EB42222B68E8
:102630006FF35F2192B240EA03301144EA684FF42D
:10264000FE03B86203EB024202F4FE028818296915
:102650004FF0FE4202EB016101F0FE410844B86315
:10266000002CF86A20F0C000696940EA0100F862B5
:10267000F86A20F02000A96940EA0100F8624FF6EC
:10268000F871F86A20F01000F862F86B20EA010097
:10269000E96940EAC100F863F86A40F01000F862A6
:1026A00005D0012CF86A06D140F4801005E0F86AE4
:1026B00040F4002001E040F40010F862386840F077
:1026C00080603860FEF7C2F904463868000106D41D
:1026D000FEF7BCF9001B0328F7D3032000E000201D
:1026E00001B0F0BDF8B58E4FBA6A02F00302032ABA
:1026F00001D1012074E00546386820F080500C4676
:102700003860FEF7A3F906463868800005D5FEF765
:102710009DF9801B0228F7D95FE0B86A4FF47E4329
:10272000696820F07C70AA68013903EB42222B68AB
:102730006FF35F2192B240EA03501144EA684FF40C
:10274000FE03B86203EB024202F4FE028818296914
:102750004FF0FE4202EB016101F0FE410844386493
:10276000002CF86A20F44060696940EA0100F862D0
:10277000F86A20F40070A96940EA0100F8624FF697
:10278000F871F86A20F48070F862786C20EA010031
:10279000E96940EAC1007864F86A40F48070F86240
:1027A00005D0012CF86A06D140F4000005E0F86A73
:1027B00040F4800001E040F08070F862386840F03A
:1027C00080503860FEF742F904463868800006D42D
:1027D000FEF73CF9001B0328F7D3032000E000209C
:1027E00001B0F0BD7047FEF735B90000B0B59CB040
:1027F00009A8244D4C21FDF7A3FD01AC2021204662
:10280000FDF79EFD0220FEF7CBF9002000901E4848
:10281000016821F0010101600121006800F0010060
:102820000090286861F38F302860286800F44040E9
:102830000090009828688004FCD5022009900120AF
:102840000C9040200D90002509A81295FFF728F95B
:1028500018B1EFF3108072B6FEE73F200190201D03
:102860001421FDF76DFD4FF48060CDE907050121CE
:102870002046FEF749FF18B1EFF3108072B6FEE76D
:102880001CB0B0BD184802582C04005823480168F9
:10289000214A41F470010160106800F00F00062821
:1028A00004D81068072161F30300106010B51C48BC
:1028B00001681C4C41F001010160002101610368C5
:1028C0002340036013681B0704D51368072464F3CF
:1028D00003031360144A8161C16101628262134A79
:1028E000C262134A026341638263C163026441644A
:1028F000026822F48022026001660E480068B1EB93
:10290000507FBDE8104002D101200B49086043F21E
:10291000D2000A49086070470020005288ED00E0AC
:10292000004402587FEDF6EA000202020000FF01B7
:10293000800201010010005C08810051004000523B
:10294000416ED9B180B501688A68C2F34262896874
:10295000490FDFF838C01CF80130DFF834E01EF80A
:1029600001101B01B3FBF1F11CF802301EF802202C
:102970001B01B3FBF2F2BDE8804001E0012101221E
:10298000A0F86A10A0F86820704700BF7C300008EB
:1029900084300008816ACA0708D00268D0F82CC0C9
:1029A000536823F4003343EA0C0353608A0708D5C5
:1029B0000268D0F830C0536823F4803343EA0C0334
:1029C00053604A0708D50268D0F834C0536823F42E
:1029D000802343EA0C0353600A0708D50268D0F845
:1029E00038C0536823F4004343EA0C035360CA061B
:1029F00008D50268D0F83CC0936823F4805343EABA
:102A00000C0393608A0608D50268D0F840C093682A
:102A100023F4005343EA0C0393604A0612D502687C
:102A2000D0F844C05368BCF5801F23F4801343EAF8
:102A30000C03536006D1536823F4C00C836C43EA43
:102A40000C035360090658BF70470168C06C4A68A0
:102A500022F40022104348607047BCB500210446B0
:102A6000C0F88C10FDF7F2FF216805460A681207CE
:102A70000BD56FF07E404FF40011009000222046ED
:102A80002B4600F021FA70B92168086840070CD580
:102A90006FF07E404FF480010090002220462B46CC
:102AA00000F012FA08B1032008E02020C4F88400E6
:102AB000C4F888000020E06684F8800002B0B0BD51
:102AC000806B0021A0F85E10A0F85610FFF7D3BA73
:102AD000016851E8001F026821F4907142E8001378
:102AE000002BF5D110B5104C026852E8022F036894
:102AF000224043E802210029F6D1C16E0129BDE838
:102B0000104009D1016851E8001F026821F010014E
:102B100042E80013002BF5D12021C0F888100021D5
:102B2000C1660167704700BFFEFFFFEFFEB50446B8
:102B3000006804F108038D4D8B4E0ECB1943636979
:102B40000B43E16907680B432F409D4D3B430360F6
:102B5000A842436823F4405342EA03024260A26958
:102B60001CBF236A1A4383683340964E1A4382601F
:102B7000B042C26A944E22F00F03626A43EA020333
:102B8000C36228D0914B984232D0914B98423CD0AE
:102B9000904B984246D0904B984200F050808F4B1B
:102BA000984200F05880A84200F061808C4B984217
:102BB00000F069808B4B984240F07B80736DB44687
:102BC000C3F3C206052E00F275800123DFE806F08C
:102BD0007367696B6D6F736DB44603F00706052E5E
:102BE00000F268800023DFE806F0665A5C5E6062EF
:102BF000736DB44603F00706052E00F25B800023D8
:102C0000DFE806F0594D4F515355736DB44603F04C
:102C10000706052E00F24E800023DFE806F04C4048
:102C200042444648736DB44603F00706052E00F291
:102C300041800023DFE806F03F333537393B736DC1
:102C4000B44603F00706052E34D80023DFE806F06B
:102C50003327292B2D2F736DB44603F00706052E5D
:102C600028D80023DFE806F0271B1D1F2123B36DA2
:102C7000B44603F00706052E1CD80223DFE806F051
:102C80001B0F11131517736DB446C3F3C206052E3F
:102C900010D80123DFE806F00F030507090B042312
:102CA00009E0082307E0102305E0202303E0402388
:102CB00001E0B4468023A8427F4810D0B1F5004F10
:102CC0001DD1082B4FF0010127D8DFE803F0058D57
:102CD000D5D590D5D5D59400FEF744FE8FE0402B96
:102CE00032D0042B33D0082B35D0102B40D0202BE2
:102CF00048D0022B40F0BF80FDF776FF2FE0082B75
:102D00004FF0010114D8DFE803F00594B7B797B787
:102D1000B7B79B00FEF726FE96E0102B00F0B580BB
:102D2000202B6ED0402B40F0A7804FF4004068E08D
:102D3000102B00F0B580202B00F08880402B40F055
:102D40009B804FF4004081E04FF400401AE0684659
:102D5000FDF75CFF02E06846FDF7DEFF0198002802
:102D600000F08780626A0DE0FFF4FF11F369FFCF86
:102D7000DCF8000065468006504803D52968C1F399
:102D8000C101C8404E4931F812106268B0FBF1F041
:102D900002EB420188424FF001016DD313039842C8
:102DA0006AD8010E000210EB520041F1000100232D
:102DB000FDF78EFAA0F54071424A914257D95AE088
:102DC000000C0058004400400044025800480040F5
:102DD000004C00400050004000780040007C004063
:102DE0000014014000100140FEF7CAFD07E06846EC
:102DF000FDF70CFF02E06846FDF78EFF0198C0B3B7
:102E0000626A2F4931F81210B0FBF1F061684A088C
:102E100002EB4000B0FBF1F04FF6EF72A0F11001B1
:102E2000914228D84FF6F071C0F342020840104496
:102E30001DE0FEF7A5FD07E06846FDF7E7FE02E0AE
:102E40006846FDF769FF019898B1626A1C4931F83C
:102E500012104FF6EF72B0FBF1F0616800EB510019
:102E6000B0FBF1F0A0F11001914204D880B22168CA
:102E7000C860002100E001214FF00110A066002091
:102E8000C4E91C00084603B0F0BDDCF8000065464C
:102E900080060A48B5D52968C1F3C101C840B0E72A
:102EA000DCF80000654680060448CFD52968C1F3E8
:102EB000C101C840CAE700BF00093D000090D0032F
:102EC00064300008FFFC0F002DE9F843DDF8209086
:102ED000984616460F460446006809F10105C16987
:102EE0003940C91BB1FA81F14909B14216D1002D0F
:102EF000F5D0FDF7ABFDB9F1000F13D0A0EB080042
:102F000048450FD820680168490744BFC1695FEA96
:102F10000151E4D54FF4006101621EE0002001B0D0
:102F2000BDE8F083206850E8000F216820F4D070DD
:102F300041E80002002AF5D1206850E8020F21681C
:102F400020F0010041E80202002AF5D12020C4F857
:102F5000840004F188001AE0206850E8000F21681E
:102F600020F4D07041E80002002AF5D1206850E832
:102F7000020F216820F0010041E80202002AF5D189
:102F80002020C4F88400C4F8880004F18C002021BB
:102F90000160002084F880000320C0E71048FFF79C
:102FA0006BB800BFFEE7000000F00F02044B090100
:102FB0001A44044BB0F1FF3FC8BFC21811707047EC
:102FC00014ED00E000E400E0E0B5019001A9012269
:102FD00003484FF6FF73FFF74DFA019802B080BD2A
:102FE00018000024FDF740FDFFF700FCFFF7AAFAE8
:102FF000FFF7C0FA01A000F01BF8FEE754657374F8
:10300000696E672074657374696E673F0000000025
:1030100002E008C8121F08C1002AFAD170477047A1
:10302000002001E001C1121F002AFBD170470000FF
:1030300010B5044601E0FFF7C7FF14F8010B04497F
:103040000028F8D1BDE810400A20FFF7BDBF0000FE
:103050000000002400000000010203040102030438
:1030600006070809010002000400060008000A0023
:103070000C0010002000400080000001010101034D
:10308000070100000804020408010101B030000833
:10309000000000241800000010300008C8300008AC
:1030A00018000024980400002030000800000000F0
:1030B0000000000001000000100000000090D0039C
:0830C0000090D00300000000A5
:040000050800029954
:00000001FF
