:020000040800F2
:10000000385800244103000887530008C3500008F3
:1000100085530008F50A00082D5F00080000000065
:10002000000000000000000000000000D1550008A2
:10003000490F0008000000008D530008D355000848
:100040005B0300085B0300085B0300085B03000818
:100050005B0300085B0300085B0300085B03000808
:100060005B0300085B0300085B030008F90A000853
:10007000050B00085B0300085B0300085B03000836
:100080005B0300085B0300085B0300085B030008D8
:100090005B0300085B0300085B0300085B030008C8
:1000A0005B0300085B0300085B0300085B030008B8
:1000B0005B0300085B0300085B0300085B030008A8
:1000C0005B0300085B0300085B0300085B03000898
:1000D0005B030008215F00085B0300085B03000866
:1000E0005B0300085B030008000000005B030008DE
:1000F0005B0300085B0300085B0300085B03000868
:100100005B0300085B0300085B0300085B03000857
:100110005B0300085B0300085B0300085B03000847
:100120005B0300085B0300085B0300085B03000837
:100130005B0300085B0300085B0300085B03000827
:1001400000000000000000000000000000000000AF
:100150005B0300085B0300085B0300085B03000807
:100160005B0300085B0300085B0300085B030008F7
:100170005B0300085B0300085B030008000000004D
:100180005B0300085B0300085B0300085B030008D7
:100190005B0300085B0300085B0300085B030008C7
:1001A0005B0300085B0300085B0300085B030008B7
:1001B0005B0300085B0300085B0300085B030008A7
:1001C0005B0300085B0300085B0300085B03000897
:1001D0005B0300085B0300085B0300085B03000887
:1001E0005B0300085B0300085B0300085B03000877
:1001F0005B0300085B0300085B0300085B03000867
:100200005B0300085B0300085B0300085B03000856
:100210005B0300085B0300085B0300085B03000846
:100220005B0300085B0300085B030008000000009C
:100230005B0300085B030008000000005B0300088C
:100240005B0300085B0300085B0300085B03000816
:100250005B0300085B0300085B0300085B03000806
:100260005B0300085B0300085B0300085B030008F6
:100270005B0300085B0300085B030008000000004C
:100280005B0300085B0300085B030008000000003C
:10029000000000005B03000800F002F800F040F8E6
:1002A0000AA090E8000C82448344AAF10107DA45D1
:1002B00001D100F035F8AFF2090EBAE80F0013F0E3
:1002C000010F18BFFB1A43F001031847145D00002B
:1002D000345D0000103A24BF78C878C1FAD85207BC
:1002E00024BF30C830C144BF04680C6070470000B0
:1002F0000023002400250026103A28BF78C1FBD82F
:10030000520728BF30C148BF0B6070471FB505F0CA
:1003100041FE9DE8030000F047F91FBD10B510BD78
:1003200000F09EF91146FFF7F1FF05F011FE00F015
:10033000BCF903B4FFF7F2FF03BC00F0EDF90000D5
:100340000948804709480047FEE7FEE7FEE7FEE769
:10035000FEE7FEE7FEE7FEE7FEE7FEE704480549A5
:10036000054A064B70470000C55600089902000870
:10037000380300243858002438530024385300240C
:1003800070B5064600F0F4F8056806F10B0020F0A1
:100390000704B4429CBF002070BD2B466A68BAB106
:1003A0001068A04210D304F1080188423CBF506895
:1003B000586007D35168101941601168091B01602A
:1003C00058601460101D70BD13465268002AE7D1B2
:1003D0002146284600F0D4F80028DED170BD70B563
:1003E0000446051F00F0C4F80068002C14BF4468E0
:1003F00070BD002C18BFAC423CBF20466468F8D3E7
:1004000001680A18AA4218BF456003D12A68054648
:100410001144016028684119A1421CBF6C6070BD85
:100420006168696021680844286070BD53EA020C65
:1004300000F069802DE9F04B4FF00006002B1FBF44
:10044000B3FA83F503FA05F424FA05F65E4012BF09
:100450001643B2FA82F502FA05F4C5F120051EBF73
:1004600022FA05FC44EA0C04203556EA044C4FEA13
:10047000144418BF641C4FF000084FF0000990426C
:1004800071EB030C39D3002919BFB1FA81F701FAD6
:1004900007F6B0FA80F700FA07F6C7F120071EBF8B
:1004A00020FA07FC46EA0C062037B6FBF4FCA7EB63
:1004B0000507103F07F01F0BCBF120060CFA0BFBD2
:1004C0002CFA06F644BFB3460026202FA4BF5E4692
:1004D0004FF0000B5BEA060C08BF4FF0010B19EB65
:1004E0000B09ABFB027C48EB0608C01B06FB02CCE9
:1004F0000BFB03CC71EB0C01C1E70B4602464146F6
:100500004846BDE8F08B13B54FF000004FF00001F6
:10051000AFF30080BDE81C4070474FF0000200B50B
:10052000134694469646203922BFA0E80C50A0E816
:100530000C50B1F12001BFF4F7AF090728BFA0E8C4
:100540000C5048BF0CC05DF804EB890028BF40F890
:10055000042B08BF704748BF20F8022B11F0804FD2
:1005600018BF00F8012B70477047704770470000B4
:1005700000487047E002002470477047704770479A
:1005800038B504460A4600206946AFF300800028CB
:1005900008BF38BD02460099204600F03FF8012010
:1005A00038BD012000F054B8F8B5AFF3008005461F
:1005B00000200C46102000BF0646A819A0420DD905
:1005C000324669460020AFF30080070008BF00F004
:1005D0003FF80098A04218BF0546C419FFF7C8FFAE
:1005E00005600746F01D20F007004619284600F078
:1005F0000AF8B44208BFF8BDA21B31463868BDE80E
:10060000F84000F00BB800210160C0E9011070470C
:100610001020704700487047D80200240346406805
:100620008C46002818BF88423CBF03464068F8D378
:1006300018681844884207D00CF1030020F0070026
:10064000001D411A521A0146081D0A60FFF7C7BE75
:1006500010B500F039F8BDE8104000F02FB8704731
:100660007546FFF7D7FFAE4605006946534620F0B2
:100670000700854618B020B5FFF770FEBDE82040A2
:100680004FF000064FF000074FF000084FF0000B4E
:1006900021F00701AC46ACE8C009ACE8C009ACE801
:1006A000C009ACE8C0098D46704710B50446AFF3E9
:1006B00000802046BDE81040FFF73BBE002801D077
:1006C00000F02AB87047000010B5012805D00021BD
:1006D00003A000F027F8012010BD09A1F8E70000F1
:1006E00053494752544D454D3A204F7574206F661B
:1006F0002068656170206D656D6F72790000000083
:100700003A2048656170206D656D6F727920636F66
:10071000727275707465640001491820ABBEFEE703
:100720002600020070B505460C460A2000E06D1C4C
:1007300000F011F835B128780028F8D102E0641CE7
:1007400000F009F814B120780028F8D1BDE8704015
:100750000A20AFF3008008B569468DF80000032039
:10076000ABBE08BD70B53A4905460068884202D064
:10077000384A904202D1D1F8080302E03648D0F856
:10078000080310F4403F11D003F0E4FC044668680D
:10079000B0F5803F06D0B0F5003F03D0B0F5403F44
:1007A00026D101E0000C17E0A40821E04FF400205E
:1007B00002F0FAFD044668688103890B18D18114A0
:1007C0000C2915D2DFE801F0140606060606060B12
:1007D0000D0F1113800C4000B4FBF0F408E0240965
:1007E00006E0640904E0A40902E0E40900E0240A48
:1007F00002F006FB41F20301884208D81748844200
:100800002868816813D821F48071816070BD144913
:100810006008884204D82868816821F44071F4E7B0
:100820001049884206D82868816821F4407141F453
:100830008071EAE70C4988422868816804D821F46D
:10084000407141F40071E0E741F44071DDE70000E0
:10085000002002400021024000600258002D3101BA
:10086000105E5F0020BCBE0040787D012DE9F041A4
:100870000027044600680D4604F028FC0646206860
:1008800004F020FC30435DD020682F4EC168890100
:1008900005D5617D012902D1217D01290BD0022DD1
:1008A0001DD0206804F012FCB8B120688168C1F343
:1008B000400169B111E02549012502E08F4232D2A1
:1008C0007F1C0268D2435206F8D440210160E8E759
:1008D0008168314041F010018160012D11D0206804
:1008E00004F0F0FB48B120688168C1F3400121B9F0
:1008F0008168314041F020018160022D08D0032D34
:1009000004D0042502F082FA064617E00C25F9E728
:100910000825F7E702F07AFA801B05280ED920682F
:10092000806828420AD0606D40F010006065A06DBC
:1009300040F00100A0650120BDE8F08120688068DA
:100940002842E7D10020F7E7C0FFFF7F00DC0C0062
:1009500010B5846B616D11F0500F06D0616DC90642
:1009600025D5204600F07BFD10BD606D40F4007081
:10097000606520680168090707D504F0AFFB90B1F6
:100980002068C068800403D50DE0C06880070AD1E4
:10099000606D20F480706065606DC00403D4606D8C
:1009A00040F001006065204600F052FD10BDE16C92
:1009B000C96CBDE81040084710B5806B416D41F02F
:1009C00040014165816D41F00401816500F047FD02
:1009D00010BD10B5806B00F041FD10BD70B5044630
:1009E000006881688268C1F3400112F0010F28D0CD
:1009F00039BB816801F00D01012914D18168124AC7
:100A00001140891C816021680320086002F0FEF912
:100A1000054612E002F0FAF9401B02280DD92068C1
:100A20008068C00709D0606D40F010006065A06D5F
:100A300040F00100A065012070BD20688068C007FB
:100A4000E8D1002070BD0000C0FFFF7F70B50446F4
:100A50000068816811F0010F40D18168204A11427D
:100A60002DD18168D5432940491C816002F0CEF91F
:100A70001C49064620681C4B884201D0984201D18F
:100A80001A4A00E01A4A9268984202F01F0200D007
:100A9000014681421DD0E2B120E0816811F0010FD2
:100AA00003D181682940491C816002F0AFF9801BA5
:100AB00002280ED920680068C043C00709D0606DC5
:100AC00040F010006065A06D40F00100A0650120BD
:100AD00070BD20680168C943C907DED1002070BD20
:100AE0003F0000800020024000210240002302401D
:100AF00000630258FEE70000014801F0C1B90000A0
:100B0000E8010024014801F0BBB9000060020024A4
:100B1000294A016891423AD0274A1832914236D088
:100B2000254A3032914232D0234A483291422ED067
:100B3000214A603291422AD01F4A7832914226D00F
:100B40001D4A9032914222D01B4AA83291421ED0B7
:100B50001A4A91421BD0194A1832914217D0174AAB
:100B60003032914213D0154A483291420FD0134A85
:100B7000603291420BD0114A7832914207D00F4A2D
:100B80009032914203D00D4AA832914211D1CAB29B
:100B90001823103AB2FBF3F26FF30901032A02F0B3
:100BA0000703074AD25CC26500D9091D8165084662
:100BB000704721F0FF01F9E71000024010040240E5
:100BC0009E5F000830B5224A012301689142CAB2F3
:100BD0001BD01F4C1434A14217D01D4C2834A14205
:100BE00013D01B4C3C34A1420FD0194C5034A142BD
:100BF0000BD0174C6434A14207D0154C7834A14275
:100C000003D0134C8C34A1420CD11421114C083A5E
:100C1000B2FBF1F10F4A803201F01F0504EB8101B4
:100C2000AB4010E00C4D1824103A0D44B2FBF4F127
:100C3000A82D00D80831094A01F01F0402EB8101F8
:100C4000064AA3408032603080E80E0030BD0000CC
:100C50000854025800580258F0FBFDBF000802403B
:100C600010B50279531E072B2DD8174C0168A142ED
:100C70001BD0154C1434A14217D0134C2834A14278
:100C800013D0114C3C34A1420FD00F4C5034A14230
:100C90000BD00D4C6434A14207D00B4C7834A142E8
:100CA00003D0094C8C34A14203D10849074C44318C
:100CB00002E00749064C443104EB8202C0E91B21E3
:100CC00001219940416710BD08540258FC58025850
:100CD000FC08024010B583694FF0C074826A014677
:100CE000002053B1B3F5005F15D072B1012A0CD0CA
:100CF000022A0AD0032A09D104E01AB1012A06D037
:100D0000022A03D1C96AC90100D5012010BDC96AF0
:100D1000A142FAD010BD002AF7D0012AF2D0022A4F
:100D2000F3D0032AF3D010BD2DE9F04F804E804F51
:100D3000DFF8FC911836DFF8F8A148370468856DB4
:100D40000AF1300ADFF8ECB14C45DFF8ECC1DFF80E
:100D5000ECE16DD0B4426BD0544569D0BC4267D051
:100D6000DFF8D081A8F11808444561D05C455FD018
:100D700064455DD074455BD0DFF8C481444557D0ED
:100D8000DFF8BC8108F11808444551D0DFF8B08184
:100D900008F1300844454BD0DFF8A48108F1480839
:100DA000444545D0DFF8988108F1600844453FD0BC
:100DB000DFF88C8108F17808444539D0DFF880816C
:100DC00008F19008444533D0DFF8748108F1A80891
:100DD00044452DD0DFF86C81444529D0DFF864818B
:100DE00008F11408444523D0DFF8588108F1280899
:100DF00044451DD0DFF84C8108F13C08444517D02C
:100E0000DFF8408108F15008444511D0DFF8348103
:100E100008F1640844450BD0DFF8288108F1780810
:100E2000444505D0DFF81C8108F18C08444509D100
:100E3000D0E91948C4F80480C46E1CB1D0E91C483C
:100E4000C4F8048004684C452ED0B4422CD05445DC
:100E50002AD0BC4228D0374E183EB44224D05C453C
:100E600022D0644520D074451ED0354EB4421BD0EC
:100E7000334E1836B44217D0314E3036B44213D008
:100E80002F4E4836B4420FD02D4E6036B4420BD0B0
:100E90002B4E7836B44207D0294E9036B44203D058
:100EA000274EA836B44215D190F85C603F2406F076
:100EB0001F06B440AC600468256825F480252560D1
:100EC0002EE09A600068C160BDE8F08F996000680C
:100ED000C260F9E71B4EB4421BD01A4E1436B4421E
:100EE00017D0184E2836B44213D0164E3C36B442B2
:100EF0000FD0144E5036B4420BD0124E6436B4426A
:100F000007D0104E7836B44203D00E4E8C36B44221
:100F1000DAD190F85C60012406F01F06B4406C60E2
:100F2000046863608368402B0368CFD1C9E7000081
:100F30001000024088000240A0000240B8000240B9
:100F40001004024008540258704772B6FEE70000D1
:100F50002DE9F0470F4690F850109AB00446012949
:100F60004FF0000915D00026DFF8F880012084F842
:100F7000500015961696216841450ED13A4D0095C0
:100F8000284604F0A7F88246206804F0A3F860B170
:100F90000EE002201AB0BDE8F087606D84F8506062
:100FA00040F0200060650120F4E7BAF1000F09D09D
:100FB000616D4FF0010941F020006065484684F8FA
:100FC0005060E7E720684146884201D0A84201D13D
:100FD000264800E0264840F61F72D7F800C0254B8F
:100FE000BCF1000F23D0D0F808C0D7F804802CF44F
:100FF000404C4CEA080CC0F808C0D4F800C08C453E
:1010000001D0AC4507D18968AB6801F0010103F05C
:101010000103194302E0996801F001010029CDD1D3
:10102000BD683968836829439343194317E087688B
:1010300027F44047876027688F4201D0AF4207D12D
:101040008968AB6801F0010103F00103194302E074
:10105000996801F001010029B0D181689143816054
:10106000ACE70000002002400021024000230240C3
:1010700000630258006002582DE9F84F4FF0000B52
:101080000446E54E0D46CDF800B05F4690F850009E
:10109000DFF888A3012808D04FF0010984F85090A8
:1010A000206804F013F818B169E10220BDE8F88F58
:1010B00021682868CA69030328D090FAA0F0B0FA22
:1010C00080F000BF00F01F0309FA03F00243CA6179
:1010D000D5E900124FF00C0C20681F23C1F3846186
:1010E0000CEA921C02F01F02604493409140026B94
:1010F0009A430A430263206803F0E8FF80462068B1
:1011000003F0E0FF58EA000003D07FE0C0F3846002
:10111000D8E72068AA68296803F0E8FFC049096891
:10112000B9EB117F06D121686869C968C1F38201F2
:10113000490008E02068C168C906C1686869F5D53A
:1011400001F0100149088840296904292ED022683D
:101150002B6802EB810103F0F8420B6E024303F0AF
:10116000004010430866697E22682869012917D06B
:101170005FF0000102EB8000026E22F000420A43A1
:101180000266287E21682A6901280CD000200B699C
:1011900002F01F02904023F4F04202430A6135E05E
:1011A0004FF00041E6E74FF40060F0E7206829784F
:1011B000026E02F0F842B2EB816F03D1016E21F0B2
:1011C0000041016620682978426E02F0F842B2EBD5
:1011D000816F03D1416E21F000414166206829787A
:1011E000826E02F0F842B2EB816F03D1816E21F082
:1011F0000041816620682978C26E02F0F842B2EBA5
:10120000816F03D1C16E21F00041C1662068816801
:1012100011F0010F76D150F8C02F95F80CC0814B1A
:1012200029680CF0180C23FA0CF3C1F313080B40D7
:1012300022EA08021A4302607B48E968814277D1BA
:10124000286801031BD090FAA0F1B1FA81F1491C82
:1012500001F01F0109294FEA003131D8002911D0CE
:1012600090FAA0F1B1FA81F101F1010101F01F0141
:1012700009FA01F209D100BFC0F3846109E0C0F3AB
:101280008461E4E7C0F38461EEE790FAA0F1B1FA7B
:1012900081F101F1010101F01F0142EA816102D1F6
:1012A000C0F3846003E090FAA0F0B0FA80F000F19F
:1012B000010000F01F0000EB400041EA005133E064
:1012C00000290ED090FAA0F1B1FA81F101F10101EB
:1012D00001F01F0109FA01F206D100BFC0F38461D9
:1012E00006E0C0F38461F1E790FAA0F1B1FA81F170
:1012F00001F1010101F01F0142EA816103D1C0F354
:10130000846004E040E090FAA0F0B0FA80F0474A30
:1013100000F1010000F01F0000EB400002EB005064
:1013200041EA000141F00071AA68206803F0DEFE86
:10133000D5F800C0BCF1000F26DA3D4B20683D49CE
:10134000DFF8F490984201D0B04201D10A4600E0A3
:101350004A469268984202F0E07201D0B04209D148
:101360009D68D6F8088005F0010508F0010845EAF7
:10137000080503E0DAF8085005F0010545B1606D95
:10138000012740F020006065384684F850B08DE6B3
:101390002A4DAC451CD115021AD45045F4D19842BF
:1013A00002D0B04200D049468B6842F4000023F0DE
:1013B000E07202438A60234921480968B1FBF0F0DA
:1013C0004000801C00E0401E00900028FBD1DBE7BD
:1013D0001D4DAC450CD1D5010AD45045D4D198420D
:1013E00002D0B04200D049468B6842F080700EE0D7
:1013F000164DAC45C8D15502C6D45045C4D198420B
:1014000002D0B04200D049468B6842F4800023F0FD
:10141000E07202438A60B7E7002102400060025890
:101420000010005CFFFF0F000000FF47000020FEDF
:10143000002002400023024000630258000084CBD9
:10144000400D030010000024000052C70000B8CF78
:10145000014800F0E5B9000018000024704770470B
:10146000F8B54FF0000604003546009602D0606DD6
:1014700010B107E00120F8BD204600F005F9A6658F
:1014800084F8506020688168C1F3407119B18168A7
:10149000704A1140816020688168C1F3007181B990
:1014A00081686D4A114041F0805181606C496B4800
:1014B0000968B1FBF0F0401C00E0401E00900028DD
:1014C000FBD120688168C1F3007141B9616D0125CC
:1014D00041F010016165A16D41F00101A16503F0CA
:1014E000F5FD616DC90600D420B1606D012540F0A5
:1014F000100093E0606D20F4807040F002006065A1
:101500002068816811F0010F1FD1564A564B904256
:1015100001D0984207D191689E6801F0010106F060
:101520000106314303E05149896801F0010161B9C5
:10153000904201D0984201D14D4800E04D48826868
:10154000616822F47C120A43826001F059FC41F286
:101550000301884202D9A06810280CD0617D227F47
:10156000A368206B490341EA024118430843217FE5
:1015700001290CD010E0607D227F216B400340EAFE
:10158000024241F01000104340F00C00EFE7218CC4
:10159000394A02EB41410843616A29B1A26A01F468
:1015A0007871014342EA01002168344BCA681A404D
:1015B0000243CA60206803F089FD0646206803F0F4
:1015C00081FD30431DD1216844F20303267DE26A88
:1015D000C86842EA863298431043C86094F83800DD
:1015E00001281ED02068016921F0010101612068F5
:1015F000626B016921F07041114301612046FFF7E0
:10160000B1F8E068012820681CD0016B21F00F01BF
:101610000163606D20F0020040F001006065284623
:10162000F8BD2068A28F164FD4E9101C154E07EBA9
:101630000247A36C026941EA0C013B433240194363
:101640001143D3E7A269016B521E21F00F01114330
:10165000DEE70000C0FFFF5FC0FFFF7F400D03001B
:1016600010000024002002400021024000600258C7
:1016700000230240006302580000FEFF03C0F0FF99
:101680000100FFFF1EF800FC30B5B5B00446142180
:101690002FA8FEF742FFBC216846FEF73EFF1B491C
:1016A0002068884230D102200490002481040C225A
:1016B0002025C023CDE90010CDE90220CDE9075453
:1016C0002894CDE90503684601F0A4FF08B1FFF7AF
:1016D0003CFC0F48016841F020010160006800F007
:1016E000200034900A480830016841F0010101608F
:1016F00000682FA900F00100349003202F95CDE958
:101700003004044801F060FA35B030BD00200240DA
:10171000D8440258000002582DE9F047384E0446DC
:1017200000689146DFF8DC808A46B04201D040452F
:1017300001D1354900E03549896801F01F0503F002
:10174000C5FC002859D194F85000012855D001203B
:101750004FF0000784F8500025B1052D02D0092D67
:1017600000D003E02046FFF771F918B184F85070FB
:10177000BDE8F087616D40F60163206899434045FC
:1017800041F48071616500D00646864200D01DB9E3
:10179000606D20F480106065606DC00404D5A06D9C
:1017A00020F00600A06500E0A7651C20E16C184A47
:1017B000CA63E26C17491164E26C1749D16421686D
:1017C000086084F850702068416841F01001416061
:1017D0002068E16AC26822F003020A43C2602168FD
:1017E0004B46E06C5246403101F0A0F821680B4BAB
:1017F0008A681A40121D8A60BAE70220B8E7000022
:1018000000200240002102400023024000630258F1
:1018100051090008D3090008B9090008C0FFFF7F7B
:1018200070B5044690F85000012809D0012084F8D2
:10183000500003212046FFF719F8050002D027E0E9
:10184000022070BD2068C16821F00301C160E06C16
:1018500090F83510022907D100F020F8050003D0D8
:10186000606D40F0400060652068416821F0100123
:101870004160204615B1FFF7B1F809E0FFF7AEF877
:10188000050005D1606D20F4885040F001006065CE
:10189000002084F85000284670BD00002DE9F84F64
:1018A000044601F0B3FA00903CB194F835000228E8
:1018B00006D0802161650020E4E00120BDE8F88FBA
:1018C000C74DC74EC649183520683036DFF8148337
:1018D000DFF814938842DFF814A3DFF814B32ED096
:1018E000A8422CD0B0422AD0404528D0484526D026
:1018F000504524D0584522D0BD4A183290421ED0BF
:10190000BC4A90421BD0BB4A1832904217D0B94A09
:101910003032904213D0B74A483290420FD0B54A85
:10192000603290420BD0B34A7832904207D0B14A2D
:101930009032904203D0AF4AA832904209D1026857
:1019400022F01E0202602068426922F08002426199
:1019500003E0026822F00E02026027688F423846D8
:101960004DD0A8424BD0B04249D0404547D0484521
:1019700045D0504543D0584541D09D4A18329042F9
:101980003DD09C4A90423AD09A4A1832904236D082
:10199000984A3032904232D0964A483290422ED005
:1019A000944A603290422AD0924A7832904226D0AD
:1019B000904A9032904222D08E4AA83290421ED055
:1019C0008D4A90421BD08C4A1432904217D08A4ADA
:1019D0002832904213D0884A3C3290420FD0864A37
:1019E000503290420BD0844A6432904207D0824AEF
:1019F0007832904203D0804A8C32974204D1206ED4
:101A0000026822F48072026075492068884228D0FA
:101A1000A84226D0B04224D0404522D0484520D00C
:101A200050451ED058451CD071491831884218D0F5
:101A30007049884215D06F491831884211D06D49DC
:101A4000303188420DD06B494831884209D069490C
:101A50006031884205D067497831884201D06549B4
:101A60009031016821F0010101600EE001F0CEF932
:101A70000099401A052808D9202262650321002018
:101A800084F8351084F8340017E73868C007EDD1C2
:101A9000534A0121206890422ED0A8422CD0B04257
:101AA0002AD0404528D0484526D0504524D0584516
:101AB00022D04F4B183398421ED04E4B98421BD029
:101AC0004C4B1833984217D04A4B3033984213D0BE
:101AD000484B483398420FD0464B603398420BD066
:101AE000444B7833984207D0424B9033984203D00E
:101AF000404BA833984208D194F85C703F23A06D06
:101B000007F01F07BB40836007E094F85C30A06DCE
:101B100003F01F0301FA03F34360206890424DD0A5
:101B2000A8424BD0B04249D0404547D0484545D067
:101B3000504543D0584541D02D4A183290423DD0AF
:101B40002C4A90423AD02B4A1832904236D0294A39
:101B50003032904232D0274A483290422ED0254A25
:101B6000603290422AD0234A7832904226D0214ACD
:101B70009032904222D01F4AA83290421ED01E4A74
:101B800090421BD01C4A1432904217D01A4A283275
:101B9000904213D0184A3C3290420FD0164A50322D
:101BA00090420BD0144A6432904207D0124A7832E5
:101BB000904203D0104A8C3290420BD1D4E91902E2
:101BC0004260E06E30B1026822F480720260D4E9B3
:101BD0001C024260002084F8351084F834006DE661
:101BE000100002405800024070000240880002408D
:101BF000A000024010040240085402582DE9F05F92
:101C000028B190F83510022904D0802141650120C7
:101C1000BDE8F09F904C904B0168183C18338E4AF9
:101C2000DFF83C92A1428D4CDFF838E28E4FDFF8AE
:101C30003CB2DFF83CA28F4D8F4E31D091422FD075
:101C400099422DD0A1422BD0494529D0714527D0AA
:101C5000B94225D0DFF810C20CF1180C61451FD035
:101C6000DFF808C2ACF1600C614519D0DFF8FCC1A7
:101C7000ACF1480C614513D0DFF8F0C1ACF1300C89
:101C800061450DD0DFF8E4C1ACF1180C614507D017
:101C9000594505D0514503D0A94201D0B1422CD1BC
:101CA000DFF8B4C14FF0040880F83580ACF1180CAF
:101CB00061451DD091421BD0994219D0A14217D045
:101CC000494515D0714513D0B94211D06648183036
:101CD00081420DD065486038814209D06348483858
:101CE000814205D061483038814201D05F481838C0
:101CF000086820F001000860ABE0D1F800C02CF0CB
:101D00000E08DFF854C1C1F80080ACF1180C01686E
:101D1000614527D0914225D0994223D0A14221D0BC
:101D200049451FD071451DD0B9421BD0DFF838C1DD
:101D30000CF1180C614515D0DFF830C1ACF1600C26
:101D400061450FD0DFF824C1ACF1480C614509D0E2
:101D5000DFF818C1ACF1300C614503D0DFF80CC1DD
:101D6000ACF1180CD1F800C02CF0010CC1F800C087
:101D7000DFF8E4804FF0010C0168A8F11808414534
:101D800046D0914244D0994242D0A14240D04945E8
:101D90003ED071453CD0B9423AD0334A18329142D4
:101DA00036D0324A603A914232D0304A483A914273
:101DB0002ED02E4A303A91422AD02C4A183A9142DB
:101DC00026D0594524D0514522D0A94220D0B14235
:101DD0001ED02A4A91421BD0284A1432914217D071
:101DE000264A2832914213D0244A3C3291420FD0E5
:101DF000224A503291420BD0204A6432914207D09D
:101E00001E4A7832914203D01C4A8C32914218D13A
:101E1000016E0A6822F480720A6090F85C20816D7D
:101E200002F01F020CFA02F24A60D0E919124A606D
:101E3000C16E31B10A6822F480720A60D0E91C12C6
:101E40004A600022016D80F835C080F8342001B16D
:101E500088470020DCE600002800024058000240CD
:101E60007000024088000240A0000240700402405E
:101E700088040240A0040240B804024008540258FA
:101E80002DE9FC5F0446F74E0020DFF8D883009070
:101E90004FF41652F44808F11808A56DDFF8C49302
:101EA000DFF8C0A3016809F1300920680AF1480A87
:101EB000B1FBF2F1B04201912F68D5F800C0DFF814
:101EC000ACB335D04146884232D0484530D0504539
:101ED0002ED058452CD0E5491831884228D0E34906
:101EE0003031884224D0E1494831884220D0E0494D
:101EF00088421DD0DE491831884219D0DC49303182
:101F0000884215D0DA494831884211D0DFF860E3C1
:101F10000EF1600E70450BD0D54A7832904207D052
:101F2000D34B9033984203D0D149A83188427DD118
:101F300094F85C20082102F01F0201FA02F23A42F2
:101F40004AD0B04232D0404530D048452ED05045DE
:101F50002CD058452AD0C54A1832904226D0C34AC0
:101F60003032904222D0C14A483290421ED0C04AFC
:101F700090421BD0BE4A1832904217D0BC4A303231
:101F8000904213D0BA4A483290420FD0B84A6032D9
:101F900090420BD0B64A7832904207D0B44A903281
:101FA000904203D0B24AA832904203D1026802F0B4
:101FB000040202E0026802F008026AB1026822F03C
:101FC0000402026094F85C0000F01F008140A960E8
:101FD000606D40F00100606594F85C00012100F044
:101FE0001F008140394240D02068B04234D0404583
:101FF00032D0484530D050452ED058452CD09B4A41
:102000001832904228D0994A3032904224D0974AD0
:102010004832904220D0964A90421DD0944A1832BD
:10202000904219D0924A3032904200E0AFE113D092
:102030008F4A483290420FD08D4A603290420BD086
:102040008B4A7832904207D0894A9032904203D02E
:10205000874AA83290427DD1406910F0800F04D0A9
:10206000A960606D40F00200606594F85C00042196
:1020700000F01F00814039423ED02068B04232D08B
:10208000404530D048452ED050452CD058452AD018
:10209000764A1832904226D0744A3032904222D08A
:1020A000724A483290421ED0714A90421BD0704A08
:1020B0001832904217D06E4A3032904213D06C4A98
:1020C000483290420FD06A4A603290420BD0684A40
:1020D0007832904207D0664A9032904203D0644AE8
:1020E000A83290424ED1006810F0020F04D0A960CF
:1020F000606D40F00400606594F85C00102100F011
:102100001F008140394258D02068B04234D0404549
:1021100032D0484530D050452ED058452CD0534A67
:102120001832904228D0514A3032904224D04F4A3F
:102130004832904220D04E4A90421DD04C4A18322C
:10214000904219D04A4A3032904215D0484A48321B
:10215000904200E014E00FD0454A603290420BD02C
:10216000434A7832904207D0414A9032904203D09D
:102170003F4AA832904207D1006800F0080006E00C
:10218000006872E70068B7E7006800F00400A0B1DB
:10219000A96020680168490304D50068000308D5D8
:1021A000A16C07E00168C90503D4016821F00801AA
:1021B0000160216C09B12046884794F85C00202119
:1021C00000F01F008140394279D02068B04232D0FF
:1021D000404530D048452ED050452CD058452AD0C7
:1021E000224A1832904226D0204A3032904222D0E1
:1021F0001E4A483290421ED01D4A90421BD01C4AB3
:102200001832904217D01A4A3032904213D0184AEE
:10221000483290420FD0164A603290420BD0144A96
:102220007832904207D0124A9032904203D0104A3E
:10223000A832904203D1006800F0100002E000686C
:1022400000F00200B0B3A96094F8350004282068BB
:1022500001680FD049037ED5006800032BD4616C60
:102260002AE000001000024010000024700002402C
:102270001004024021F0160101602068416921F03C
:1022800080014161206C08B9A06C20B12068016810
:1022900021F00801016094F85C303F21012003F037
:1022A0001F0300229940A96084F8350084F8342087
:1022B000216D65E003E0E16B09B120468847606D60
:1022C00000287DD0606DC00759D02068042184F8B3
:1022D0003510B0422BD0404529D0484527D0504535
:1022E00025D0584523D09D49884220D09B4918319C
:1022F00088421CD099493031884218D09849884288
:1023000015D097491831884211D09549303188420B
:102310000DD093494831884209D0914960318842B3
:1023200005D08F497831884201D08D4990310168BC
:1023300021F00101016020680099019A491C009177
:10234000914202D80168C907F6D10068C00710D0D1
:1023500003200FE0FFE70168C905ACD40368012141
:10236000002223F01003036084F8351084F8342031
:10237000A1E7012084F83500002084F83400E16CE6
:1023800000291DD002B02046BDE8F05F084775491E
:1023900088421DD073491431884219D071492831BF
:1023A000884215D06F493C31884211D06D49503177
:1023B00088420DD06B496431884209D0694900E0F8
:1023C00084E07831884203D066498C3188427DD1DF
:1023D00094F85C800427016808F01F0807FA08F7E2
:1023E00017EA0C0F009746D04F0744D500980F040A
:1023F000686003D5C8033CD4A16CC1E7880638D413
:102400002068B0422DD055496039884229D04845CE
:1024100027D0504525D0584523D05049884220D058
:102420004E49183188421CD04C493031884218D06E
:102430004B49884215D04A491831884211D0484941
:10244000303188420DD046494831884209D0704524
:1024500007D0904205D0984203D04149A831884224
:1024600003D1016821F0080102E0016821F00401B4
:102470000160216C84E7022707FA08F717EA0C0FBE
:1024800000974ED08F074CD500980F04686003D595
:10249000C80344D4616C73E7880640D42068B04216
:1024A0002FD02E49603988422BD0484529D050453D
:1024B00027D0584525D02949884222D027491831AC
:1024C00088421ED025493031884200E044E018D0CF
:1024D0002349884215D022491831884211D0204919
:1024E000303188420DD01E494831884209D07045AC
:1024F00007D0904205D0984203D01949A8318842AC
:1025000003D1016821F0140102E0016821F00A0101
:102510000160012184F83510002084F83400E16B5B
:102520002EE7082202FA08F212EA0C0F14D009076B
:1025300012D5016821F00E01016094F85C100120B1
:10254000002201F01F0100FA01F16960606584F862
:10255000350084F8342012E7BDE8FC9F8800024073
:1025600010040240085402582DE9F05F044600F0C0
:102570004DFC002C07467DD0E34E022120684FF031
:102580000308DFF888934FF00005DFF884A3B0421A
:10259000DFF880B334D0DC4A1832904230D048455E
:1025A0002ED050452CD058452AD0DA4A18329042C5
:1025B00026D0D84A3032904222D0D64A4832904271
:1025C0001ED0D54A90421BD0D34A1832904217D021
:1025D000D14A3032904213D0CF4A483290420FD085
:1025E000CD4A603290420BD0CB4A7832904207D02D
:1025F000C94A9032904203D0C74AA83290427DD156
:1026000084F83510B04284F834502ED0BE491831C9
:1026100088422AD0484528D0504526D0584524D055
:10262000BC491831884220D0BA49303188421CD088
:10263000B8494831884218D0B749884215D0B649C0
:102640001831884211D0B449303188420DD0B24996
:102650004831884209D0B0496031884205D0AE493E
:102660007831884201D0AC499031016821F00101F4
:10267000016008E027E100BF00F0C8FBC01B05288F
:1026800001D920211CE120680068C007F4D104F1C1
:1026900008002168D4E9053C8E4685C809681043C6
:1026A000D4E907281F43636A38439C4F40EA0C0073
:1026B0001043394040EA0800042B40EA010003D1EE
:1026C000D4E90B1211430843954909686FF30F01D0
:1026D000B1F1005F0FD36168A1F12902052A08D981
:1026E000163A032A05D9083A012A02D94F39032993
:1026F00001D840F48010CEF8000000E023E020680C
:10270000676A4069042F20F0070047EA00070DD1EF
:10271000D4E90A01074349B12046FEF7DBFA28B1A4
:1027200040206065012184F83510CCE020684761C5
:102730002046FEF7EDF994F85C203F2102F01F02DD
:102740009140816054E0774A90421BD0754B14331E
:10275000984217D0734B2833984213D0714B3C33B7
:1027600098420FD06F4B503398420BD06D4B64336F
:10277000984207D06B4B7833984203D0694B8C3327
:1027800098427DD184F8351084F83450664B016846
:10279000A26801EA030E402A73D0802A72D0002278
:1027A000D4E90378D4E9053142EAD70242EAD808ED
:1027B0005C4AD4E9077C48EAD30848EAD10141EAF7
:1027C000D701524241EA1C11142341EA0E01016073
:1027D00020681044B0FBF3F08000E0652046FEF76F
:1027E00097F994F85C20012102F01F0291404160AA
:1027F0002068B04257D044491831884253D04845E8
:1028000051D050454FD058454DD04249183188429B
:1028100049D040493031884245D03E49483188420C
:1028200041D03D4988423ED03B49183188423AD098
:1028300039493031884236D037494831884232D020
:102840003549603188422ED03349783188422AD0C8
:1028500031499031884226D02F49A831884222D070
:10286000304988421FD02F49143188421BD02D494E
:102870002831884217D02B493C31884213D002E0DE
:102880001DE017E018E02749503188420BD0254958
:102890006431884207D023497831884203D02149E6
:1028A0008C31884229D12046FEF78CF9A068802817
:1028B0000CD00CE0102273E74FF4804270E7402107
:1028C000616584F835800120BDE8F09F6560216E68
:1028D00020790860D4E9190141606068401E07282A
:1028E00008D82046FEF7BCF9E06E0560D4E91C016B
:1028F000416002E0E566256765670120656584F84B
:1029000035000020E0E700001000024040000240D7
:102910005800024070000240100402403F8010FE48
:102920000010005C085402580F00FEFF2DE9F84F1C
:1029300004008C464FF00000009014D094F834004E
:10294000012812D094F835500120002184F8340079
:10295000012D0CD0C00260650120009084F8341075
:102960000098BDE8F88F0120FBE70220F9E78C4DC5
:102970000226206884F83560A8428A4D61658A4E37
:102980008A4FDFF82C82DFF82C92DFF82CA2DFF8D8
:102990002CB226D0A84224D0B04222D0B84220D0B7
:1029A00040451ED048451CD050451AD0584518D037
:1029B0008349884215D082491831884211D0804914
:1029C000303188420DD07E494831884209D07C4957
:1029D0006031884205D07A497831884201D07849FF
:1029E0009031016821F00101016061462046FEF747
:1029F0009BF96B49206888422CD0A8422AD0B0426B
:102A000028D0B84226D0404524D0484522D0504551
:102A100020D058451ED06A4A90421BD0684A1832CE
:102A2000904217D0664A3032904213D0644A4832FE
:102A300090420FD0624A603290420BD0604A7832A6
:102A4000904207D05E4A9032904203D05C4AA8324E
:102A500090420CD1026822F01E0242F0160202607F
:102A6000206C88B12068026842F008020BE002681E
:102A700022F00E0242F00A020260206C20B12068AF
:102A8000026842F004020260206888424BD0A842EB
:102A900049D0B04247D0B84245D0404543D04845E0
:102AA00041D050453FD058453DD0454A90423AD05C
:102AB000434A1832904236D0414A3032904232D0A6
:102AC0003F4A483290422ED03D4A603290422AD04E
:102AD0003B4A7832904226D0394A9032904222D0F6
:102AE000374AA83290421ED0364A90421BD0354A0F
:102AF0001432904217D0334A2832904213D0314AD0
:102B00003C3290420FD02F4A503290420BD02D4A87
:102B10006432904207D02B4A7832904203D0294A3F
:102B20008C3290420DD1206E0268D20303D5026828
:102B300042F480720260E06E18B1026842F4807262
:102B400002602068884226D0A84224D0B04222D019
:102B5000B84220D040451ED048451CD050451AD020
:102B6000584518D01649884215D015491831884261
:102B700011D01349303188420DD011494831884273
:102B800009D00F496031884205D00D49783188421B
:102B900001D00B499031016841F001010160DFE68D
:102BA000100002402800024040000240580002404D
:102BB0007000024088000240A0000240B8000240BD
:102BC00010040240085402582DE9F84F03247D4DAB
:102BD00000234FF001094FF0B04B4FF00F0AE9E02E
:102BE00009FA03F73A4076D00E7906F00306012E73
:102BF00001D0022E18D1D0F808C04FEA430ECE689B
:102C000004FA0EF82CEA080C06FA0EF646EA0C0650
:102C10008660D0F804C00E792CEA070CC6F30016C3
:102C20009E4046EA0C0646600E79F643B6070BD086
:102C3000C6684FEA43088F6804FA08FC26EA0C06C7
:102C400007FA08F73743C7600E7906F00306022E2D
:102C500012D1DE080F694FEA437C00EB8606B646C8
:102C6000366A4FEADC6C0AFA0CF807FA0CF726EA27
:102C700008063743CEF820700F7906684FEA4308FC
:102C800007F0030704FA08FC07FA08F726EA0C061F
:102C9000374307604E6816F4403F1CD04A4E3768F1
:102CA00047F00207376036689F0706F00206009675
:102CB00023F0030606F1B046B6463F0FD6F8086487
:102CC000DFF808810AFA07FC404526EA0C0603D122
:102CD0004FF0000C41E06CE0DFF8F4C0604502D139
:102CE0004FF0010C39E0DFF8ECC0604502D14FF045
:102CF000020C32E0DFF8E0C0604502D14FF0030C77
:102D00002BE0DFF8D8C0604502D14FF0040C24E07E
:102D1000DFF8CCC0604502D14FF0050C1DE0DFF8B4
:102D2000C4C0604502D14FF0060C16E0DFF8B8C011
:102D3000604502D14FF0070C0FE0DFF8B0C06045EE
:102D400002D14FF0080C08E0DFF8A4C0604502D1C2
:102D50004FF0090C01E04FF00A0C0CFA07FC4CEAAA
:102D6000060CCEF808C44F68DBF80060FF0226EAC4
:102D7000020600D516435F46CBF80060D1F804C0C8
:102D8000DBF804605FEA8C2C26EA020600D51643C5
:102D90007E606E684F6826EA0206BF0300D51643C0
:102DA0006E602E684F6826EA0206FF0300D51643C0
:102DB0002E605B1C0A6832FA03F67FF411AFBDE89F
:102DC000F88F000080000058F444025800000258B8
:102DD0000004025800080258000C02580010025863
:102DE0000014025800180258001C02580020025813
:102DF000002402580AB1816170470904FBE7000012
:102E000001480068000C70470010005C01488068B1
:102E100070470000040000240248816802781144D1
:102E20008160704704000024032010B500F086F88C
:102E300001F0D6F90F4A104914681368C4F303224D
:102E400003F00F038A5CC95C02F01F0201F01F014E
:102E5000D0400A4A20FA01F11160094908600F20A8
:102E600000F010F808B1012010BD00F02BF8002090
:102E700010BD000018440258CE5F00081400002462
:102E80001000002470B50D4D04462878A0B14FF411
:102E90007A71B1FBF0F00A490968B1FBF0F001F07A
:102EA000E3FC48B9102C07D200222146501E00F046
:102EB00025F800206C6070BD012070BD0400002466
:102EC00010000024054808B5016841F002010160C6
:102ED000006800F00200009008BD0000F4440258B1
:102EE000002809DB410900F01F028900012001F1DF
:102EF000E0219040C1F80001704700000E4BF0B493
:102F00001B680D46C3F30223C3F10706042E00D944
:102F10000426191D072901D2002300E0DB1E01242D
:102F200004FA06F19C40491E2940641E9940144051
:102F30002143F0BC02F0FBBF0CED00E0064900F0BD
:102F4000070210B54FF6FF040868044B204040EA22
:102F500002201843086010BD0CED00E00000FA05E7
:102F6000134970B50A68D243520705D5096801F0C4
:102F70000701814213D118E00A6822F007020243D8
:102F80000A60FFF743FF0A4D4FF47A760446083D86
:102F900007E000BFFFF73AFF001BB04201D9012054
:102FA00070BD2868C0438004F4D4002070BD0000C8
:102FB0000C48025810B501F0CDF805490968054ADA
:102FC000C1F30211515C01F01F01C84010BD0000A7
:102FD00020440258CE5F00084A4930B5494C0B1DC9
:102FE0000A680C3409681D68246802F0030305F0C0
:102FF0000102C1F30511C4F3CC04002914FB02F251
:1030000000EE102AF8EE400A76D0414A9FED3E1AB3
:10301000DFED3E1AB7EE000A23B1012B5AD0022B86
:1030200018D15CE0374C283C23689B0612D5394BFD
:10303000246801EE901A1168C4F3C104F8EE612A05
:10304000E34001EE903AC1F30801F8EE611A81EE17
:10305000A22A07E002EE101A1168F8EE422A81EE69
:10306000A22A45E001EE901A1168F8EE611A40EECE
:10307000811A71EE800A62EE200AC1F3462101EE48
:10308000101AB8EE411A31EE001AC0EE811ABCEEE9
:10309000E11A80ED001A1168C1F3064101EE101A21
:1030A000B8EE411A31EE001AC0EE811ABCEEE11AF8
:1030B00080ED011A1168C1F3066101EE101AB8EE35
:1030C000411A31EE000A80EE801ABCEEC10A80ED92
:1030D000020A30BD01EE901ADFED0F2A03E001EE87
:1030E000901ADFED0E2A1168F8EE611A82EEA12A1D
:1030F000C1F30801B6E7FFE700210160416081608C
:1031000030BD000028440258000000390024744CEF
:10311000304402580090D0030024744A20BCBE4BB7
:10312000494930B5484C0B1D0A68143409681D68BC
:10313000246802F00303C5F30012C1F30531C4F3A0
:10314000CC04002914FB02F200EE102AF8EE400A2B
:1031500075D03F4A9FED3D1AB7EE000A6BB1DFED27
:103160003D1A012B01D0022B64D002EE101A116817
:10317000F8EE422A81EEA22A21E0334C283C236853
:103180009B0612D5344B246801EE901A1168C4F3E3
:10319000C104F8EE612AE34001EE903AC1F3080160
:1031A000F8EE611A81EEA22A0BE001EE901ADFED33
:1031B0002B2A00BFF8EE611A116882EEA12AC1F332
:1031C000080101EE901A1168F8EE611A40EE811ABA
:1031D00071EE800A62EE200AC1F3462101EE101A58
:1031E000B8EE411A31EE001AC0EE811ABCEEE11AB7
:1031F00080ED001A1168C1F3064101EE101AB8EE15
:10320000411A31EE001AC0EE811ABCEEE11A80EDCF
:10321000011A1168C1F3066101EE101AB8EE411AE5
:1032200031EE000A80EE801ABCEEC10A80ED020A7F
:1032300030BD04E001EE901ADFED092ABAE7002163
:10324000016041608160F3E72844025800000039C2
:10325000384402580024744A0090D0030024744C6F
:1032600020BCBE4B494930B5484C0B1D0A681C3484
:1032700009681D68246802F00303C5F30022C1F346
:103280000551C4F3CC04002914FB02F200EE102A0D
:10329000F8EE400A75D03F4A9FED3D1AB7EE000A9E
:1032A0006BB1DFED3D1A012B01D0022B64D002EE91
:1032B000101A1168F8EE422A81EEA22A21E0334C5E
:1032C000283C23689B0612D5344B246801EE901AE3
:1032D0001168C4F3C104F8EE612AE34001EE903AAC
:1032E000C1F30801F8EE611A81EEA22A0BE001EEAB
:1032F000901ADFED2B2A00BFF8EE611A116882EEFA
:10330000A12AC1F3080101EE901A1168F8EE611AC2
:1033100040EE811A71EE800A62EE200AC1F3462166
:1033200001EE101AB8EE411A31EE001AC0EE811A01
:10333000BCEEE11A80ED001A1168C1F3064101EEFE
:10334000101AB8EE411A31EE001AC0EE811ABCEE26
:10335000E11A80ED011A1168C1F3066101EE101A3D
:10336000B8EE411A31EE000A80EE801ABCEEC10AB6
:1033700080ED020A30BD04E001EE901ADFED092A6B
:10338000BAE70021016041608160F3E728440258F8
:1033900000000039404402580024744A0090D003D1
:1033A0000024744C20BCBE4B2DE9F04F944A4FF4DE
:1033B0008079DFF848824845924B89B0924EA8F157
:1033C000040592494FF080574FEA22144FF0005CF9
:1033D0002ED1D8F8000000F00700052824D2DFE83D
:1033E00000F09BB58425AA0003A8FFF7F5FD04981B
:1033F00009B0BDE8F08F6846FFF792FE0098F7E746
:1034000006A8FFF72FFF0698F2E70868C0F3C1008F
:1034100022FA00F0ECE70A68D2057CD5B8427AD1EE
:103420002046E5E71846E3E70020E1E73046DFE71E
:10343000B0F5007F1AD0DFF8D891B0F5806F26D0B4
:10344000B0F5006F37D04FF4805A50454FF4804BA1
:103450004FD1D8F8000000F4E040B0F5005F44D050
:103460003DDC002858D05045DED16FE0D8F8000090
:1034700000F4E070802838D004DC00284CD04028CC
:10348000D2D163E0C028D1D04845CDD153E0D9F89E
:10349000000000F46000B0F5800F26D004DCD8B343
:1034A000B0F5001FC0D151E0B0F5C00FBED0B0F5EF
:1034B000000FB9D13FE0D9F8000000F0E060B0F1B2
:1034C000007F12D004DC38B3B0F1807FACD13DE096
:1034D000B0F1407FAAD0B0F1806FA5D12BE0B0F55C
:1034E000405FA3D058459FD125E0086880009BD558
:1034F00086E7B0F5002F4FF4803612D0B04237D1B6
:10350000286810F4803075D0B0428DD10868000171
:103510008AD5684601E025E06CE0FFF701FE0298DD
:1035200066E7D9F8000010F440300FD0B04211D057
:10353000B0F5003F98D128680D6800F040506D0745
:103540007FF569AF00287FF466AF5EE70868000189
:10355000CDD550E708688000C9D506A8FFF782FEE0
:10356000089845E709688903C1D5604588D159E7BE
:1035700058452BD1D9F8000000F0E040B0F1405F91
:103580001CD00CDC90B1B8422CD060458AD10868C0
:103590008000ACD506A8FFF765FE079828E7B0F1D4
:1035A000804F0FD0B0F1A04F90D11FE0FFF702FD88
:1035B0001EE76846FFF7B4FD019819E70868400761
:1035C00095D522E70868C00591D529E7B0F5004FE9
:1035D00089D1D8F8000010F0405007D0B84209D087
:1035E000604592D108680001E3D41DE708688003B4
:1035F000FBD517E708688001F7D5F5E65044025877
:103600000090D00340787D010080BB000044025848
:10361000584402582DE9FC5F044650F8241B00254D
:1036200000902E460801FE4FDFF8F8831DD5606E2E
:1036300050B1B0F5801F0CD0B0F5001F0ED0B0F522
:10364000401F1DD001250FE0386840F4003038607D
:1036500016E00221201D01F09BFE03E000980221EC
:1036600001F026FF05000BD02E462088C00523D58B
:10367000606D05281ED2DFE800F00C11161B1B0040
:10368000626ED8F8001021F440111143C8F8001000
:10369000EBE7386840F40030386009E00021201D75
:1036A00001F076FE03E00098002101F001FF0546DD
:1036B0006DB100E001252E462088800528D5A06D3B
:1036C00080281ED00CDC90B140280ED114E0626D31
:1036D000D8F8001021F007011143C8F80010EBE7FB
:1036E000C02813D0B0F5807F10D001250FE03868D6
:1036F00040F40030386009E00021201D01F048FE50
:1037000003E00098002101F0D3FE054695B12E4656
:103710002088DFF81093400509F108092CD5D4F86A
:10372000A400B0F5800F20D00DDCA0B1B0F5001FD3
:103730000FD115E0A26DD8F8001021F4E07111430B
:10374000C8F80010E4E7B0F5C00F13D0B0F5000FD3
:1037500010D001250FE0386840F40030386009E0EF
:103760000021201D01F014FE03E00098002101F06B
:103770009FFE054675B12E46208800052DD5D4F84C
:10378000A800B0F1007F21D00EDCA8B1B0F1807F9D
:1037900010D116E0D4F8A420D9F8001021F460016B
:1037A0001143C9F80010E7E7B0F1407F13D0B0F142
:1037B000806F10D001250FE0386840F40030386089
:1037C00009E00021201D01F0E3FD03E00098002145
:1037D00001F06EFE05466DB12E46206880011FD5B2
:1037E000A06CD8B110280FD0202812D0302815D0C6
:1037F000012514E0D4F8A820D9F8001021F0E061E8
:103800001143C9F80010E8E7386840F40030386028
:1038100004E00221201D01F0BBFD05466DB12E46DE
:103820002088C0042BD5E06DB0F5005F20D00DDC02
:10383000A0B1B0F5805F0FD115E07A48A26C001FEF
:10384000016821F0300111430160E9E7B0F5405F04
:1038500013D0B0F5804F10D001250FE0386840F448
:103860000030386009E00021201D01F091FD03E0E7
:103870000098002101F01CFE054685B12E462088E7
:10388000800429D5206EB0F5403F23D010DC08B36A
:10389000B0F5803F14D0B0F5003F0FD115E0E26DD8
:1038A000D8F8001021F4E0411143C8F80010E6E711
:1038B000B0F5802F0ED0B0F5A02F0BD001250AE077
:1038C0000121201D01F064FD03E00098012101F0B9
:1038D000EFFD05468DB12E46208840042AD5D4F848
:1038E000AC00B0F1405F23D010DC08B3B0F1805FD2
:1038F00014D0B0F1005F0FD115E0226ED8F800109F
:1039000021F4E0211143C8F80010E5E7B0F1804F41
:103910000ED0B0F1A04F0BD001250AE00121201DEF
:1039200001F036FD03E00098012101F0C1FD0546DC
:103930006DB12E46208800041FD5E06ED8B1B0F1DD
:10394000805F0ED0B0F1005F10D0012514E0D4F8F4
:10395000AC20D9F8001021F0E0411143C9F8001063
:10396000E8E7386840F40030386004E00121201DA9
:1039700001F00EFD05466DB12E462068C0011ED532
:10398000606CD0B101280ED0022811D0032814D0C9
:10399000012513E0E26ED8F8001021F040511143E8
:1039A000C8F80010E9E7386840F40030386004E0F7
:1039B0000221201D01F0ECFC054685B12E46206851
:1039C000DFF85CB04002ABF11C0B57D5164801681C
:1039D00041F480710160FFF719FA82460EE0114848
:1039E000626C001F016821F0030111430160E6E7EA
:1039F000FFF70CFAA0EB0A0064283DD80A480068DB
:103A0000C005F5D57DBBDFF81CA0B4F8B0200AF1E5
:103A1000200ADAF8001002F4407001F4407105E069
:103A20002C4402585044025800480258814211D098
:103A3000DAF80010DAF8002021F4407142F4803204
:103A4000CAF80020DAF8002022F48032CAF80020F8
:103A5000CAF80010D4F8B000B0F5807F21D1FFF78C
:103A6000D5F9019019E008E0FFF7D0F90199411A62
:103A700041F28830814210D903252E462078DFF8A4
:103A800044A4C0073DD0A06F182838D026DC80B3EE
:103A9000082829D0102825D12CE0DAF8000080076A
:103AA000E2D5D4F8B010C1F30120032858460DD058
:103AB000016821F47C510160B4F8B020DAF80010FC
:103AC000C2F30B021143CAF80010D7E7FE4A03689D
:103AD00002EA111223F47C511143ECE720280ED0A6
:103AE00028280CD001250BE00121201D01F050FCFD
:103AF00004E004E00098012101F0DAFC05465DB124
:103B00002E46207880071ED5606F062819D2DFE880
:103B100000F0160C11161616A26FDAF8001021F03C
:103B200038011143CAF80010EBE70121201D01F014
:103B30002FFC03E00098012101F0BAFC054675B1A5
:103B400000E001252E46207840071FD5D4F89000CC
:103B5000062819D2DFE800F0160C11161616626F4F
:103B6000DAF8001021F007011143CAF80010EAE763
:103B70000121201D01F00CFC03E00098012101F05F
:103B800097FC05469DB100E001252E462078800671
:103B90002BD5D4F88C00B0F1405F24D011DC10B3E9
:103BA000B0F1805F15D0B0F1005F10D116E0D4F80D
:103BB0009020D9F8001021F007011143C9F8001036
:103BC000E4E7B0F1804F0ED0B0F1A04F0BD001254B
:103BD0000AE00021201D01F0DBFB03E00098022138
:103BE00001F066FC05468DB12E46207840062BD5A7
:103BF000D4F89800B0F5406F24D011DC10B3B0F5C4
:103C0000806F15D0B0F5006F10D116E0D4F88C207D
:103C1000DAF8001021F0E0411143CAF80010E4E79F
:103C2000B0F5805F0ED0B0F5A05F0BD001250AE0A3
:103C30000021201D01F0ACFB03E00098022101F0FF
:103C400037FC05468DB12E46207800062BD5D4F8DA
:103C50009C00B0F5C04F24D011DC10B3B0F5005F6C
:103C600015D0B0F5804F10D116E0D4F89820D9F8CF
:103C7000001021F4E0511143C9F80010E4E7B0F559
:103C8000004F0ED0B0F5204F0BD001250AE00021E7
:103C9000201D01F07DFB03E00098022101F008FCEB
:103CA00005464DB12E46207800071ED5D4F8800079
:103CB000B0F5805F0AD00FE0D4F89C20D9F800104E
:103CC00021F460411143C9F80010ECE7009802218B
:103CD00001F0EEFB00B10126D4F88020DAF80010E4
:103CE00021F440511143CAF800102078C00613D5C2
:103CF000D4F89400B0F5807F05D10098022101F03E
:103D0000D7FB00B10126D4F89420D9F8001021F493
:103D100040711143C9F800102068000316D5D4F88B
:103D2000A00038B1B0F5803F09D0B0F5003F0BD00E
:103D300001250AE00021201D01F02AFB03E0009884
:103D4000022101F0B5FB054685B12E4620684003EF
:103D500022D5D4F88400B0F5801F11D0B0F5001F33
:103D600013D0B0F5401F15D0012514E0D4F8A020E1
:103D7000D9F8001021F440311143C9F80010E5E7EB
:103D8000386840F40030386004E00098012101F008
:103D90008FFB054655B12E462068C0031CD5E06C4C
:103DA00070B1B0F5803F10D0012514E0D4F8842024
:103DB000DAF8001021F440111143CAF80010EBE7C3
:103DC000386840F40030386004E00221201D01F022
:103DD000DFFA0546CDB12E462068800005D5009853
:103DE000022101F065FB00B10126206880031BD58C
:103DF000E06FB8B1B0F5807F10D0B0F5007F11D082
:103E0000B0F5407F0ED001250DE02E48E26C083859
:103E1000016821F4803111430160DDE7386840F426
:103E200000303860F5B32E462068C00207D5226FF7
:103E3000D8F8001021F000411143C8F800102068A4
:103E4000C00008D5D4F8B420DBF8001021F480417C
:103E50001143CBF800102068800207D5A26ED8F875
:103E6000001021F080711143C8F800102068400054
:103E70000CD5DBF8001021F40041CBF80010DBF882
:103E80000010D4F8B8201143CBF8001020680028A7
:103E900007DA0C48226D0838016821F040511143BF
:103EA000016000E014E02068000208D5D4F8882002
:103EB000DAF8001021F440011143CAF8001086B16D
:103EC000012003E054440258CFFFFF00BDE8FC9FEF
:103ED000E26FDAF8001021F440711143CAF80010C3
:103EE000A2E70020EDE770472DE9F05F04000F46E0
:103EF0007ED0DFF83882D8F8000000F00F00B8421A
:103F00000CD2D8F8001021F00F013943C8F8001086
:103F1000D8F8000000F00F00B84269D12078844D35
:103F200040070AD52069296801F07001884204D948
:103F3000296821F070010143296020787C4E361DEC
:103F400000070AD56069316801F07001884204D920
:103F5000316821F07001014331602078C0060AD534
:103F6000A069316801F4E061884204D9316821F424
:103F7000E061014331602078DFF8B4B180060BF1D5
:103F8000080B0CD5E1695846DBF8002002F07002FE
:103F9000914204D9026822F070020A43026020783C
:103FA00080070AD5E068296801F00F01884204D92A
:103FB000296821F00F01014329602078C0073ED015
:103FC0005B49A2682868183920F4706010432860A3
:103FD0006068022818D0032819D00968012819D070
:103FE000490700294ADADFF848A1AAF1080A00E0E7
:103FF00044E0DAF8002022F007020243CAF8002069
:10400000FEF704FF814612E009688903E9E70968C1
:104010008901E6E7C905E4E7FEF7F8FEA0EB090130
:1040200041F28830814202D90320BDE8F09F6168E7
:10403000DAF8000000F03800B0EBC10FECD12078C6
:1040400080070AD5E068296801F00F01884204D290
:10405000296821F00F0101432960D8F8001040467B
:1040600001F00F01B9420BD9016821F00F0139436A
:104070000160006800F00F00B84201D00120D4E7D1
:10408000207840070AD52069296801F0700188422C
:1040900004D2296821F070010143296020780007CB
:1040A0000AD56069316801F07001884204D2316834
:1040B00021F07001014331602078C0060AD5A06963
:1040C000316801F4E061884204D2316821F4E06192
:1040D00001433160207880060CD5E1695846DBF851
:1040E000002002F07002914204D2026822F07002B5
:1040F0000A43026000F074F80E492A682B68C2F384
:10410000032203F00F038A5CC95C02F01F0201F076
:104110001F01D040084A20FA01F1116007490860E8
:1041200007480068BDE8F05FFEF7ACBE0020005213
:1041300018440258CE5F0008140000241000002428
:10414000080000240248016841F400210160704722
:104150000044025830B500F043F80B4A0B490C4BB1
:1041600015681468C5F3032204F00F048A5C095D26
:1041700002F01F0201F01F01D040064A20FA01F1AF
:1041800019601060084630BD18440258CE5F000820
:10419000140000241000002400B5FFF7DBFF0549E0
:1041A0000968054AC1F30211515C01F01F01C840C2
:1041B00000BD00001C440258CE5F000800B5FFF7A8
:1041C000C9FF05490968054AC1F30221515C01F0A4
:1041D0001F01C84000BD00001C440258CE5F00080B
:1041E000454970B545480968434B103B11F038020A
:1041F00008D00111082A03D0102A0BD0182A0BD09E
:10420000084670BD19688906FBD51968C1F3C1015C
:10421000C84070BD3A4870BD3749374D18310C1D44
:1042200024350A68096826682D6802F0030406F040
:104230000102C1F30511C5F3CC0515FB02F200EE36
:10424000102AB8EE400AE9B32F4ADFED2E0AB7EE86
:10425000001A6CB1DFED2D1A012C01D0022C43D0D5
:1042600002EE101A1068F8EE422A81EEA22A1EE031
:104270001C68A40611D51B6801EE901A1168C3F3DF
:10428000C103F8EE612AD84001EE900AC1F308009C
:10429000F8EE611A81EEA22A0BE001EE901ADFED32
:1042A0001C2A00BFF8EE611A106882EEA12AC0F342
:1042B000080001EE900AF8EE611A40EE201A31EE85
:1042C000810A00E015E022EE000A1068C0F34620E3
:1042D000401C00EE900AF8EE600A80EE201ABCEE58
:1042E000C10A10EE100A70BD01EE901ADFED092A26
:1042F000D8E7002070BD0000104402580090D003A1
:1043000040787D0100000039304402580024744A8E
:104310000024744C20BCBE4B064810B50068400514
:1043200006D5FFF7E0FD03494FF48060091D0860E2
:1043300010BD0000644402582DE9F05F04007DD0F8
:10434000FF4F2078FE4D1837DFF8F493103DC0077B
:1043500048D0D9F80000396800F03800102815D08E
:10436000182803D101F0030002280FD06068B0F5CF
:10437000803F12D010B1B0F5A02F18D0286820F4DB
:1043800080302860286820F4802009E028688003B5
:1043900028D560680028D2D024E0286840F4803016
:1043A0002860606888B1FEF731FD064609E028689C
:1043B00040F480202860F0E7FEF728FD801B642889
:1043C0006FD828688003F7D50CE0FEF71FFD06467E
:1043D00005E000BFFEF71AFD801B6428F0D82868AE
:1043E0008003F7D4207841F20308D54E0C3E8007B5
:1043F00069D5D9F80000396810F038000ED01828B7
:1044000001D188070AD0E06890B3296821F019012A
:1044100001432960FEF7FAFC824631E02868400734
:1044200002D5E06800288AD0E168286820F01900E9
:1044300008432860FEF7EAFC824607E0DFE000BFA1
:10444000FEF7E4FCA0EB0A000228B9D82868400770
:10445000F6D500BFFEF7D4FC40451BD820694028A4
:1044600012D0316821F47C3141EA003030602AE01A
:1044700018E000BFFEF7CAFCA0EB0A0002289FD894
:1044800028684007F6D5E5E7306820F47C3040F432
:104490000030EBE7207C316821F0FE4141EA00600A
:1044A000E4E70DE1286820F001002860FEF7AEFC8B
:1044B000824605E0FEF7AAFCA0EB0A0002288DD890
:1044C00028684007F6D42078C0065DD5D9F80000EA
:1044D000DFF86CB2396800F03800ABF1040B082843
:1044E00010D0182803D101F0030001280AD0E06998
:1044F0000028286838D040F080002860FEF786FC4D
:10450000824623E02868C00523D5E069802876D15B
:104510001FE0206A202821D0316821F0F84141EACB
:104520008060306030E000BF94F82010DBF800209D
:1045300022F07C5242EA0161CBF8001024E000BF77
:10454000FEF764FCA0EB0A00022898D82868C00592
:10455000F6D5FEF755FC4045E6D8DAE7306820F09E
:10456000F84040F08040DCE720F080002860FEF753
:104570004DFC064605E000BFFEF748FC801B022804
:104580009DD82868C005F7D42078000729D56C4845
:104590006169643000298046016811D041F0010151
:1045A0000160FEF733FC064605E000BFFEF72EFC77
:1045B000801B0228C9D8D8F800008007F6D510E083
:1045C00021F001010160FEF721FC064605E000BF75
:1045D000FEF71CFC801B022872D8D8F80000800768
:1045E000F6D42078800623D5A0690028286810D04A
:1045F00040F480502860FEF709FC064605E02CE1F7
:10460000FEF704FC801B02285AD828688004F7D5DE
:104610000EE020F480502860FEF7F8FB064604E028
:10462000FEF7F4FB801B02284AD828688004F7D4E0
:10463000207840074FD5DFF80C81D8F8001041F4FE
:104640008071C8F80010FEF7E1FB064605E000BFE8
:10465000FEF7DCFB801B642832D8D8F80000C005C8
:10466000F6D5374EA068603601280AD008B1052873
:1046700013D0306820F001003060306820F0040072
:1046800002E0306840F001003060A06841F2883AF2
:1046900090B1FEF7BBFB80460AE0306840F00400B2
:1046A0003060EEE7FEF7B2FBA0EB0801514507D8FA
:1046B00030688007F6D50EE0FEF7A8FB804607E0DD
:1046C00084E000BFFEF7A2FBA0EB080151457DD8B6
:1046D00030688007F6D4606AB0B3DFF86480D9F838
:1046E000001008F12008C1F3C20103296FD002288D
:1046F000286820F08070286003D0FEF787FB04460E
:1047000080E0FEF783FB064605E000BFFEF77EFB78
:10471000801B022873D828688001F7D4E26A40F22F
:10472000F331386854F8283F884340EA02101843B0
:104730003860217B4FF4FE0C22894FF0FE4704E0E5
:10474000104402580048025889E0208A4902521E4B
:10475000267DA1F5007189B2401EC2F30802114303
:10476000761E0CEA004001433E4807EA0662114308
:104770003C4AC8F800100832016821F001010160CC
:1047800011684FF6F876236AB14341EAC30111601C
:104790000168A26921F00C01114301600168E2691E
:1047A00021F0020111430160016841F48031016090
:1047B000016841F400310160016841F48021016029
:1047C000016841F001010160286801E017E01DE087
:1047D00040F080702860FEF719FB044605E000BF3A
:1047E000FEF714FB001B022809D828688001F7D5C2
:1047F00035E000BFFEF70AFB001B022802D90320A8
:10480000BDE8F09F28688001F4D428E039680128C9
:10481000D8F8000021D0A26A01F0030393421CD112
:10482000E26AC1F305118A4217D1216BC0F3080275
:10483000491E8A4211D1616BC0F34622491E914242
:104840000BD1A16BC0F30642491E914205D1E16B29
:10485000C0F30660491E814201D00120D0E700204C
:10486000CEE700002C440258401EB0F1807F10B506
:1048700001D3012010BD4FF0E02460610F216017CB
:1048800001F055FB0020A0610721216110BD00004F
:10489000F0B590F83C20012A3BD01F4E012480F84F
:1048A0003C40022280F83D2002681C4D5368B24211
:1048B000D2F808C001D0AA4203D14F6823F4700394
:1048C0003B430F6823F070031F4357600268B242F6
:1048D00013D0B2F1804F10D0114B9A420DD0114B32
:1048E0009A420AD0104B9A4207D0AA4205D00F4BE9
:1048F0009A4202D00E4B9A4204D189682CF0800370
:1049000019439160002180F83D4080F83C10084632
:10491000F0BD0220F0BD0000000001400004014095
:104920000004004000080040000C00400018004057
:104930000040014010B5040003D094F83D0010B1D0
:1049400007E0012010BD002084F83C00204600F064
:1049500023F8022084F83D002068211D00F020FF8C
:10496000012084F8480084F83E0084F83F0084F871
:10497000400084F8410084F8420084F8430084F841
:10498000440084F8450084F8460084F8470084F821
:104990003D00002010BD000008B5006806498842AF
:1049A00008D10648016841F480310160006800F4D4
:1049B0008030009008BD000000400140F0440258E3
:1049C00070B5044690F83C000025012814D03A4BFD
:1049D000012684F83C60022084F83D00226890683B
:1049E000184020F47F409060086870282FD010DCB9
:1049F00010F00F0F03D022E04FF0020070BD4FEA1D
:104A00002012072A1BD2DFE802F0535353534B39CD
:104A10004100B0F1101F4BD009DCB0F5805F0FD022
:104A2000B0F5005F1ED0B0F5801F08D140E0A0F5C2
:104A3000801120393CD010293AD0202938D00125C6
:104A400084F83D60002084F83C00284670BD4A6828
:104A50002068D1E9021300F005FF2068816841F069
:104A6000770109E04A682068D1E9021300F0FAFEF4
:104A70002068816841F480418160E1E7CA68496843
:104A8000206800F003FF2068502106E0CA684968EA
:104A9000206800F00CFF2068602100F0EDFECFE7F9
:104AA000CA684968206800F0F1FE20684021F4E7F8
:104AB000226801461046F0E788FFCEFF30B590F837
:104AC0008010012918D0012280F880202421C0F80C
:104AD00084100022202450F8641B0B680D6823F01A
:104AE000005325F001050D60026050F8641C0B6056
:104AF00004620277104630BD022030BD7047704717
:104B000070B5044690F8800001281DD0012284F879
:104B100080202420C4F8840020680568026822F000
:104B2000010202602068826822F060620A438260AB
:104B3000204600F0CFFE2268202100201560C4F836
:104B4000841084F8800070BD022070BD70B50446EA
:104B500090F8800001281DD0012284F880202420B4
:104B6000C4F8840020680568026822F0010202602F
:104B70002068826822F060420A438260204600F08A
:104B8000A9FE2268202100201560C4F8841084F852
:104B9000800070BD022070BD7047704770470000F4
:104BA0002DE9F04103680446002540F60F06D86958
:104BB00019689A68304209D186067DD501F0200631
:104BC00002F080573E4377D0216F62E1C64EC74F57
:104BD00016400F4037436FD0C70709D0CF0507D520
:104BE00001271F62D4F88C3043F00103C4F88C30E5
:104BF00083070AD5D30708D0276802233B62D4F87D
:104C00008C3043F00403C4F88C3043070AD5D30733
:104C100008D0276804233B62D4F88C3043F00203A9
:104C2000C4F88C3003070CD501F02003334308D0BF
:104C3000266808233362D4F88C3043F00803C4F8A4
:104C40008C3003050BD54B0109D526684FF4006362
:104C50003362D4F88C3043F02003C4F88C30D4F89D
:104C60008C30002B3AD0800609D501F0200002F0EC
:104C70008051084303D0216F09B12046884721683D
:104C8000D4F88C008968490602D410F0280F27D088
:104C9000204600F0DFFE2068806840061BD52068B3
:104CA000083050E8001F21F0400140E80012002ABF
:104CB000F5D1E06F78B100E018E08D490165E06F53
:104CC000FCF79CFF002809D0E06F016D00E0204652
:104CD000BDE8F04108472046FFF760FFBDE8F081DE
:104CE0002046FFF75BFFC4F88C50F7E7E76E2026FD
:104CF000012F7CD1C7067AD5CF0678D5102018624F
:104D00002068806840067DD5E16F7A4A0868904245
:104D100034D0784A1832904230D0764A30329042BD
:104D20002CD0744A4832904228D0724A6032904265
:104D300024D0704A7832904220D06E4A903290420D
:104D40001CD06C4AA832904218D06B4A904215D0C1
:104D5000694A1832904211D0674A303290420DD0E1
:104D6000654A4832904209D0634A6032904205D089
:104D7000614A7832904201D05F4A90324068000424
:104D8000000CABD0B4F85C208242A7D9A4F85E0036
:104D9000C869B0F5807F2ED0216851E8000F20F45B
:104DA000807041E80002002AF6D12068083050E8FF
:104DB000001F21F0010140E80012002AF5D120680F
:104DC000083050E8001F21F0400140E80012002A9E
:104DD000F5D1C4F88860E566216851E8000F20F03D
:104DE000100041E80002002AF6D1E06F01E03BE04C
:104DF00008E0FCF753FDB4F85C00B4F85E10401A0C
:104E000081B22DE0B4F85C00B4F85E10B4F85E2016
:104E1000401A81B2002AB4D00029B2D0226852E8E8
:104E2000000F20F4907042E80003002BF6D1334BC2
:104E3000226802F1080252E8000F00EA030042E88B
:104E40000007002FF4D1C4F88860E5662567226862
:104E500052E8000F20F0100042E80003002BF6D1CA
:104E60002046FFF74BFE39E7C70209D5570207D5A1
:104E70004FF4801018622046BDE8F041FFF78DBE68
:104E800003060AD501F0800302F40002134304D0A4
:104E9000616F00297FF41BAF20E7420611D54A0657
:104EA0000FD52046026852E8001F21F0400142E879
:104EB0000013002BF6D1C0F88460456700F000F9BC
:104EC0000CE7020206D54A0004D52046BDE8F041B1
:104ED000FFF762BEC001C6D50029C4DA2046BDE88E
:104EE000F041FFF70CBE000001000010200100049B
:104EF000415A00081000024010040240FEFFFFEF7C
:104F000010B5040003D0D4F8840010B107E00120EC
:104F100010BD002084F88000204600F027F82420EF
:104F2000C4F884002068016821F001010160204676
:104F300000F0BAFD0128EBD0A06A10B1204600F0C5
:104F4000EBFC2068416821F4904141602068816851
:104F500021F02A0181602068016841F001010160AF
:104F60002046BDE8104000F03BBD00002DE9F043B5
:104F7000B5B0064614212FA8FBF7CFFABC2168462E
:104F8000FBF7CBFA4A49002430680227464D4FF41C
:104F90008068DFF81891884245D101201E94009066
:104FA0006846FEF737FB08B1FBF7CFFF3E481030ED
:104FB000016841F010010160006800F010003490B9
:104FC000286840F00200286028680421CDE9307488
:104FD00000F002003490CDE932414FF440402F9070
:104FE0002FA94846FDF7F0FD324D292232492846C7
:104FF00085E81600C5E903486C61AC61EC612C6280
:105000006C62FDF7B1FA08B1FBF79FFF0022F5676C
:1050100025201146AE63FDF771FF2520FDF760FFE7
:1050200035B0BDE8F08325498842F9D1684600973C
:105030001D94FEF7EFFA08B1FBF787FF1A48083016
:10504000016841F480210160006800F48020349000
:10505000286840F00200286028680721CDE93074F4
:1050600000F002003490CDE932414FF440602F90BF
:105070002FA94846FDF7A8FD0E4D2D220E49783583
:105080001831284685E81600C5E903486C61AC6113
:10509000EC612C626C62FDF767FA08B1FBF755FF13
:1050A000F567AE63BCE70000E04402580004025814
:1050B00000100140E80100241000024000480040B8
:1050C0007047FEE78068C0F3C00070478068C0F397
:1050D000800070478068C0F380007047C06810F49B
:1050E000406F01D0002070470120704710B50424A4
:1050F00004EAD1540723C1F3045120448B408A4071
:10510000416999431143416110BD000030B58BB036
:10511000002468461C21079408940994FBF7FDF9C4
:105120001D4804251B4A01218B02C0E9002484602C
:105130004FF4B862C0E9034504754475816100F11C
:105140002401047781E81C000463446380F838403C
:10515000FCF786F908B1FBF7F8FE0F4807A907949A
:10516000FBF7F6FE08B1FBF7F0FE0C48062140F213
:10517000FF7203928DE8130007486946CDE9045495
:105180008DF81940FBF778FF002801D0FBF7DDFE12
:105190000BB030BD00200240180000240000B84FC2
:1051A0000D4808B5016841F0010101600068002266
:1051B000114600F0010000900B20FDF79FFE0B2030
:1051C000FDF78EFE00220C201146FDF797FEBDE88C
:1051D00008400C20FDF784BED844025810B586B0B4
:1051E00014216846FBF799F91548016841F08001E0
:1051F0000160016801F080010591016841F0010141
:105200000160016801F001010591016841F00201AE
:105210000160006800220B4C032100F002000590A1
:105220002046FDF7E7FD00210320009001222046E3
:10523000CDE9012103916946FDF7C6FC06B010BD1A
:10524000E04402580004025810B588B01848002401
:105250001649062200948023019402940394049436
:1052600005940694C0E90014C0E902420461C0E953
:105270000543FFF75FFB08B1FBF767FE4FF4805073
:1052800000900B486946FFF79BFB08B1FBF75DFEFA
:1052900020200490064804A90694FFF7F9FA002894
:1052A00001D0FBF752FE08B010BD000000400140E5
:1052B0007C0000241848002110B5164C0C224FF435
:1052C000E1330460C0E90131C160C0E904128161C9
:1052D000C161016241628162FFF712FE08B1FBF712
:1052E00034FE0D480021FFF731FC08B1FBF72DFE1D
:1052F00009480021FFF704FC08B1FBF726FE064829
:10530000FFF7DCFB002803D0BDE81040FBF71DBE13
:1053100010BD000000100140C80000241848002102
:1053200010B5164C0C224FF4E1330460C0E9013192
:10533000C160C0E904128161C161016241628162A0
:10534000FFF7DEFD08B1FBF700FE0D480021FFF777
:10535000FDFB08B1FBF7F9FD09480021FFF7D0FB81
:1053600008B1FBF7F2FD0648FFF7A8FB002803D0C1
:10537000BDE81040FBF7E9BD10BD0000004800404B
:1053800058010024FEE7FEF7C7FFFEE77047000064
:105390002DE9F047454D044689464FF0000A28683C
:1053A000C04380070AD0414E283E306820F080601C
:1053B0003060FDF72BFD0746B04608E00120BDE850
:1053C000F08700BFFDF722FDC01B022867D8D8F880
:1053D00000000001F6D4206829684FF4FE0721F48C
:1053E0007C313E0241EA00302860207AA389B4F87B
:1053F00004C040022D4D2D495B1E227CACF1010CF6
:105400001035091DA0F5007080B2521ECCF3080CB7
:1054100007EA034340EA0C00184306EA026210431D
:1054200028600868626920F0C000104308600A68BC
:10543000A06922F0200202430A60281D0A6822F0B7
:1054400010020A6002684FF6F873E4699A4342EA70
:10545000C40202600868B9F1000F40F010020A604F
:1054600011D00868B9F1010F11D040F400100860A4
:10547000D8F80000444640F08060C8F80000FDF70E
:10548000C5FC05460DE0086840F40020EFE740F455
:105490008010ECE7FDF7BAFC401B022801D903207D
:1054A0008DE720680001F5D5504688E7284402586A
:1054B0002DE9F047454D044689464FF0000A28681B
:1054C000C04380070AD0414E283E306820F080500B
:1054D0003060FDF79BFC0746B04608E00120BDE8C0
:1054E000F08700BFFDF792FCC01B022867D8D8F8F0
:1054F00000008000F6D4208829684FF4FE0721F0D0
:105500007C713E0241EA00502860207AA389B4F8F9
:1055100004C040022D4D2D495B1E227CACF1010CD4
:105520001835091DA0F5007080B2521ECCF3080C8E
:1055300007EA034340EA0C00184306EA02621043FC
:1055400028600868626920F44060104308600A68B7
:10555000A06922F4007202430A60281D0A6822F43E
:1055600080720A6002684FF6F873E4699A4342EA6F
:10557000C40202600868B9F1000F40F480720A604A
:1055800011D00868B9F1010F11D040F080700860A7
:10559000D8F80000444640F08050C8F80000FDF7FD
:1055A00035FC05460DE0086840F48000EFE740F464
:1055B0000000ECE7FDF72AFC401B022801D903207C
:1055C0008DE720688000F5D5504688E728440258CA
:1055D0007047FDF721BC0000F0B59DB04C21684636
:1055E000FAF79BFF202113A8FAF797FF0220FDF797
:1055F000B7FC3149002431480A6822F001020A60F0
:105600000A68026842F440420260026802F44042C2
:105610001B9202689204FCD5294A136843F00203E6
:105620001360126802F002021B92026842F44042C8
:10563000026002680A6842F001020A60096801F02B
:1056400001011B9101688904FCD51D49CC39022058
:105650000A6808250123C603052722F00302921CCD
:105660000A60C0210990CDE90A07CDE90C100F901E
:10567000CDE91054CDE900360E9068461294FEF73D
:105680005BFE08B172B6FEE740201A903F2103018D
:10569000CDE916500322CDE9180313AB13A883E814
:1056A00016000421FEF720FC08B172B6FEE7FEF7F3
:1056B00049FD1DB0F0BD00002C04005818480258E8
:1056C000F44402582C48F0B52C4A016841F47001AA
:1056D0000160106800F00F00072804D2106820F065
:1056E0000F00C01D106026490020254C10340B68A7
:1056F000244D43F001030B6020600B682B400B60CE
:10570000136803F00F03072B04D9136823F00F036A
:10571000DB1D13601A4C1C4A18341C4B261D371D08
:105720002060174C1A4D28343060261D3860371D14
:1057300023603B1D35601C1D3A60251D2E1D186021
:10574000331D22602860326018600A680C4B114CCF
:1057500022F4802260330A60186020686FF30F0023
:10576000B0F1005F03D20C490120C1F8080143F2F7
:10577000D2000A490860F0BD88ED00E00020005228
:10578000004402587FEDF6EA8002010100020202A5
:105790000000FF010010005C00800051004000523A
:1057A0002DE9F047274B4FF0804A274D0268984279
:1057B000264E274F274C09D0504507D0A84205D088
:1057C000B04203D0B84201D0A04205D1D1F804C004
:1057D00022F070024CEA0202DFF87CC0DFF87C8025
:1057E0009842DFF87C900FD050450DD0A8420BD0E6
:1057F000B04209D0B84207D0A04205D0604503D0DE
:10580000404501D0484503D1CD6822F440722A4377
:105810004D6922F080022A43026098428A68C2627F
:105820000A68826207D0A04205D0604503D0404597
:1058300001D0484501D10969016301214161BDE8F9
:10584000F087000000000140000400400008004014
:10585000000C0040000401400040014000440140B1
:105860000048014042EA032283680A4323F47F414F
:105870000A43826070470000034B82681A400A4363
:1058800042F00701816070478FFFCFFF10B5036AB8
:10589000046A23F00A0324F00104046284690B43C0
:1058A00024F0F00141EA02118161036210BD10B5DC
:1058B000036A23F0100303628369046A23F47043CC
:1058C00024F0A00443EA0232826144EA0111016239
:1058D00010BD000030B5416EB9B101680D4B03F148
:1058E00008048A688968C2F34262490F5D5C615CA2
:1058F0002D01B5FBF1F1A0F86A10995CA25C0901D9
:10590000B1FBF2F1A0F8681030BD0121A0F86A10D7
:10591000F8E70000BE5F000890F82810C90706D01D
:105920000168C36A4A6822F400321A434A6090F858
:105930002810890706D50168036B4A6822F4803273
:105940001A434A6090F82810490706D50168436B4E
:105950004A6822F480221A434A6090F82810090706
:1059600006D50168836B4A6822F400421A434A60F4
:1059700090F82810C90606D50168C36B8A6822F41E
:1059800080521A438A6090F82810890606D501686B
:10599000036C8A6822F400521A438A6090F8281037
:1059A000490611D50168436C4A6822F480121A43F3
:1059B0004A60416CB1F5801F06D10168836C4A686A
:1059C00022F4C0021A434A6090F82810090606D54E
:1059D0000168C26C486820F400201043486070479A
:1059E000F8B500260446C0F88C60FDF70FFA0546AE
:1059F00020686FF07E470068000708D500222B461C
:105A00004FF400112046009700F024FA60B9206896
:105A1000006840070AD500222B464FF4800120463B
:105A2000009700F017FA08B10320F8BD2020C4F851
:105A30008400C4F88800E666002084F88060F8BD21
:105A400010B5806B0021A0F85E10A0F85610FFF78B
:105A5000A5F810BD10B5026852E8001F21F490713E
:105A600042E80013002BF6D10E4B0268083252E8D0
:105A7000001F194042E80014002CF6D1C16E012924
:105A800008D1026852E8001F21F0100142E800131B
:105A9000002BF6D100212022C0F88820C1660167C2
:105AA00010BD0000FEFFFFEF2DE9F04304468068C3
:105AB000D84E87B0D84B2168D4E90427D4F81CC04D
:105AC00010430A68002547EA0C0738433240024376
:105AD0000A602068E268416821F440511143416046
