:020000040800F2
:10000000D0060020ED010008E74E0008051D00089D
:10001000E54E000897130008095000080000000092
:10002000000000000000000000000000EB4E00088F
:100030009913000800000000E94E0008ED4E00088A
:10004000070200080702000807020008070200086C
:10005000070200080702000807020008070200085C
:10006000070200080702000807020008070200084C
:10007000070200080702000807020008070200083C
:10008000070200080702000807020008070200082C
:10009000070200080702000807020008070200081C
:1000A000070200080702000807020008070200080C
:1000B00007020008070200080702000807020008FC
:1000C00007020008070200080702000807020008EC
:1000D00007020008070200080702000807020008DC
:1000E00007020008070200080702000807020008CC
:1000F00007020008070200080702000807020008BC
:1001000007020008070200080702000807020008AB
:10011000070200080702000807020008070200089B
:10012000070200080702000807020008070200088B
:1001300000F002F800F04AF80AA090E8000C8244AF
:100140008344AAF10107DA4501D100F03FF8AFF28C
:10015000090EBAE80F0013F0010F18BFFB1A43F0A5
:1001600001031847C86F0000E86F0000103A24BF71
:1001700078C878C1FAD8520724BF30C830C144BF0C
:1001800004680C607047000000230024002500264E
:10019000103A28BF78C1FBD8520728BF30C148BFEA
:1001A0000B607047662905F08983732900F0B183DD
:1001B000002070471FB500F0B1FB040000200021B3
:1001C00005F0D0F8E0601FBD10B510BD00F0A6FC32
:1001D0001146FFF7EFFF05F03BF800F0C4FC03B455
:1001E000FFF7F2FF03BC00F007FD0000094880475D
:1001F00009480047FEE7FEE7FEE7FEE7FEE7FEE709
:10020000FEE7FEE7FEE7FEE704480549054A064B20
:10021000704700004F4F000831010008D000002057
:10022000D0060020D0020020D00200200FB41CB560
:10023000074B06AA7B4469460090059800F03FFBF7
:100240000020694600F04EFB1CBC5DF814FB00006A
:10025000AD06000070B5044685690068C10601D589
:10026000302600E02026C00707D070BDD4E9012168
:1002700030469047206A401C20626D1EF6D570BD46
:1002800070B5044685690078C00707D170BDD4E910
:10029000012120209047206A401C20626D1EF6D567
:1002A00070BD70B50C460546012A05D02878800639
:1002B00000D5EA69002302E0012305E05B1C9342BC
:1002C00002D2E05C0028F9D1A869E618C01AA8613A
:1002D000286A184428622846FFF7BCFF04E0D5E9E5
:1002E000012114F8010B9047B442F8D32846FFF7D8
:1002F000C7FF70BD2DE9F0474FF0000A894604465C
:10030000C0F820A02046E1688847002876D025283C
:1003100006D0D4E901219047206A401C2062F1E711
:10032000E168204600258847C4F81CA0064600273F
:10033000C4F818A02A2E09D0304604F08AFE38B33B
:1003400004EB8708303EC8F8186019E059F8041B20
:10035000204604EB87029161E1688847012F064639
:1003600018D1E069002820DA25F020051DE0D8F832
:10037000180000EB800006EB40003038C8F8180089
:100380002046E1688847064604F063FE0028EED167
:10039000012F0AD02E2E08D12046E16888477F1C05
:1003A0000646022F45F02005C4DBA069002803DAC9
:1003B000404245F00105A061E80701D025F0100595
:1003C000B6B1A6F14100192802D8203645F40065DF
:1003D0004A463146204625604D46FFF7E3FE58B1B8
:1003E000012806D0ED1D25F0070000F1080989E776
:1003F00004E005F1040985E730468AE7206ABDE894
:10040000F08710B5431C02E010F8011B71B18107A1
:10041000FAD14FF0013202C88C1A8C4314EAC2118F
:10042000F9D0C01A0A0603D0C01E10BDC01A10BDF4
:100430000A0401D0801E10BD0902FCD0401E10BD70
:100440004FF0000200B5134694469646203922BF6D
:10045000A0E80C50A0E80C50B1F12001BFF4F7AFB8
:10046000090728BFA0E80C5048BF0CC05DF804EB9A
:10047000890028BF40F8042B08BF704748BF20F808
:10048000022B11F0804F18BF00F8012B7047704706
:100490007047704770472DE9FF4F0C461E464FF0DE
:1004A000FF378BB0D2E90001DDF860800A908A4600
:1004B000C1F30A5505B93D46002108464FF000003A
:1004C000BAF1000F00F4400005DA00EB80004FF4B1
:1004D000400101EA50004FEA9059B9F1010F00DDE7
:1004E000B9460A9850EA4A000ED044F61050A5F2D8
:1004F000FF3545432F14B8F1000F1ED07542291E59
:100500001EDDC9F100021CE0B8F1010F4FF0000040
:1005100001D0302103E0F24305E02154401CB042F9
:10052000FBDB30460022002121540B99C1F80880E2
:10053000C1E900200FB0BDE8F08FBD1B6D1CDEE7E8
:100540004A4600DA694206A800F072FA06AB93E860
:10055000070003AB83E8070050460A9900F053FBFD
:100560008DE80700A0F500501F3800900398002D7B
:100570000ADD42F21F014A460844002303A9039002
:10058000684600F0BCFD09E0A0F500504A461F385F
:10059000002303A90390684600F0C6FD8DE807001C
:1005A0000004000C03D04FF0FF30410800E010467B
:1005B000B8F1000F03D00022009215461EE0751E10
:1005C00005D400F0AFF9303262556D1EF9D5B3464F
:1005D0000122084302D000227F1C04E0207830284A
:1005E00001D100227F1E002A099784D01DE0112D21
:1005F00007DA00F097F9303262556D1C50EA0102BB
:10060000F5D1084302D00098C8B10EE00021681E61
:1006100005E0235C625C63542254401E491C814205
:10062000F7DBAB46A81B401E0990002004F80B0026
:100630000B98099AC0F80880C0E9002B7AE71126C8
:100640004FF0000857E72DE9F04F88460446D21DC9
:1006500022F0070191B0D1E90001CDE90A0104F0CF
:10066000D4FC02460B98C00F01D02D2007E0206873
:10067000810701D52B2002E0202101EAC000032AD6
:10068000099001D0072A05DB03464146204600F0C9
:100690008FF90BE12078800601D5E06900E00620A3
:1006A000B8F1650F814606D0B8F1660F18D0B8F1E1
:1006B000670F70D131E00020B9F1110F009001DB1C
:1006C000112301E009F101030AAA01A90CA8FFF70F
:1006D000E2FEDDE90C70002609F10105834647E0E2
:1006E00001204B4600904FF000470AAA01A90CA830
:1006F000FFF7D1FEDDE90DB00C995D46002610B97B
:1007000009F101000D18B9EB050003D4C0F1FF3663
:1007100009F10105A5EB09002BE0B9F1010F01DAA0
:100720004FF001090020B9F1110F0090484601DD9A
:10073000112300E003460AAA01A90CA8FFF7ABFEAB
:10074000DDE90C704D4600268346207800070AD468
:10075000AB4500DA5D4601A8012D04DD411911F811
:10076000011C302907D04F4502DA17F1040F04DAD3
:10077000012082460FE06D1EEEE7002F02DCED1B2C
:100780003E4403E0781CA84200DD7D1CB81B00F14C
:10079000010A4FF000472078000703D4AA4501DB87
:1007A0004FF0FF3A0021B7F1004F0DF143088DF8EB
:1007B000431024D002202B23002F01DA7F422D2367
:1007C0000A21021EA0F1010000DC5FB197FBF1FCE1
:1007D00097FBF1F201FB1C7C17460CF1300C08F87A
:1007E00001CDEEE7A8F1010003702188090501D5CC
:1007F000452100E06521A0F1010800F8011C0998DD
:100800000FA9A1EB0807FF1D00B10120411901EB61
:10081000EA70A1693844081A401EA0612078C00619
:1008200002D42046FFF716FD099828B1D4E901212A
:100830009047206A401C20622078C00622D52046BE
:10084000FFF708FD1EE0002E04DBB34502DD01A822
:10085000805D00E03020D4E901219047206A401CEF
:100860002062761CAAF101005FEA000A0AD100F0BA
:1008700055F8C0680168405CD4E901219047206ABE
:10088000401C2062281EA5F10105DCDC07E0D4E94C
:10089000012118F8010B9047206A401C2062381E85
:1008A000A7F10107F3DC2046FFF7EAFC032011B0B3
:1008B00041E6000001694A1C02610878704700B5F2
:1008C0008FB0CDE901310021059105497944CDE989
:1008D000031011466846FFF70DFD0FB000BD000084
:1008E000E5FFFFFF0A6802F8010B0A60704710B5C8
:1008F000436913B1AFF3008001E0FFF7D2FC0120A0
:1009000010BD127800F124010A7000224A70012201
:10091000EDE711684FF0FF32E9E70000004870474B
:100920009000002030B5B0F10A024FEA900E71F14C
:1009300000034EEA817EB0EB0E0061EB91014FEABD
:10094000101E4EEA017E10EB0E0041EB11114FEA32
:10095000102E4EEA016E10EB0E0041EB11214FEA12
:10096000104E4EEA014E10EB0E0041EB11414018C3
:1009700041F100014FEAD00040EA41704FEAD10155
:1009800010EB80054FEA810444EA907444EB0104C3
:100990006D1944EB0404521BA3414FF0000348BF00
:1009A0000A3200D530BD401C41F1000130BD0000CD
:1009B0002DE9F0411F46044603260168072A01F489
:1009C000006004DB08B116A505E016A503E008B138
:1009D00015A500E015A521F010002060A069C01E3B
:1009E000A0610FB1401EA0612046FFF733FC4FB15C
:1009F000D4E9012138469047206A401C2062C01C7F
:100A0000206206E0206AFAE7D4E9012115F8010B1B
:100A10009047761EF8D22046FFF732FCBDE8F08101
:100A20004E414E006E616E00494E4600696E660092
:100A30002DE9F047814616468AB0354878440DC8FE
:100A40008DE80D0032487844801C03AC0DC884E862
:100A50000D0041F69B300844372190FBF1F290FBEA
:100A6000F1F5A5F1800501FB12041B3C02D564429F
:100A7000012000E00020DFF898A080460027FA441B
:100A8000AAF1BE0A0EE0E0070AD03246684607EB3C
:100A9000470101230AEB810100F046FB8DE80700C6
:100AA00064107F1C002CEED1194F7F44AE3F19E03B
:100AB000E80715D007EB04100DF1180A90E80E00B6
:100AC0008AE80E00C068F04201D1981908903246B9
:100AD000012306A903A800F027FB03AB83E8070066
:100AE0006D10641C002DE3D14FF0010332466946BE
:100AF000B8F1000F03A802D000F001FB01E000F004
:100B000013FBC9E90001C9F808200AB0BDE8F08765
:100B1000D466000000487047700000207546FFF75B
:100B2000F9FFAE4605006946534620F007008546AA
:100B300018B020B5FFF768FBBDE820404FF0000675
:100B40004FF000074FF000084FF0000B21F00701B5
:100B5000AC46ACE8C009ACE8C009ACE8C009ACE8F8
:100B6000C0098D46704710B50446AFF3008020469B
:100B7000BDE81040FFF733BB4FF0013C50F8042BA9
:100B800051F8043B9A4221D1A2EB0C03934313EAA0
:100B9000CC1317D150F8042B51F8043B9A4215D1CD
:100BA000A2EB0C03934313EACC130BD150F8042BA4
:100BB00051F8043B9A4209D1A2EB0C03934313EA88
:100BC000CC13DBD04FF00000704700BFD01A01BA41
:100BD000B1FA81F101F0180122FA01F0CB40C1F124
:100BE0002001DBB2C0B2C01A2CFA01F3D11A914332
:100BF00011EAC311E6D1704701491820ABBEFEE7E8
:100C00002600020070475FEA400C08BF91F0000F19
:100C10004FEA8C234FEAC12243EA51514FEA1C505C
:100C200018BF00F5F0404FEA300018BF41F0004116
:100C30005FEA6C5C00F02980BCF1FF3F08BF40F028
:100C400080407047130C06BF12044FF0100C4FF099
:100C5000000C130E04BF12020CF1080C130F04BF9A
:100C600012010CF1040C930F04BF92000CF1020C62
:100C7000D30F04BF52000CF1010C11464FF00002DB
:100C8000A0F11F00A0EB0C00704711F0004F08BF4F
:100C9000704731F000413FF4D5AF0B0C06BF09049B
:100CA0004FF0100C4FF0000C0B0E04BF09020CF1BA
:100CB000080C0B0F04BF09010CF1040C8B0F04BFCF
:100CC00089000CF1020CCB0F04BF49000CF1010CA0
:100CD000CCF12003A0EB0C0022FA03F302FA0CF291
:100CE00041EA030100F10100704720F07F4C80EAE7
:100CF000030023F07F47ACEB070303F57C5300F0C0
:100D0000004003F1FF032DE980494FEA154B09B478
:100D10004FEA144325EA0B4E24EA03480FF2042657
:100D200006EB132749083E785FEA320203FB0667A9
:100D3000C7F5000707FB06F64FEA54374FEAD646D9
:100D400006F1020607FB066CCCF1005C4FEA1C477B
:100D50002CEA074C07FB06F40CFB06F504EB1546E2
:100D60004FEA961634BF00204FF000404FEAD137CB
:100D700006FB07FC4FEA1C4C0CFB0BF7D21B03FBDA
:100D80000CF761EB07010CFB0EF7B0EB074072EBC1
:100D900017420CFB08F734BFA2EB0742B2EB074245
:100DA00061EB17414FEA0C444FEA910706FB07FC41
:100DB0004FEA1C4C0CFB0BF7B0EBC74072EB573201
:100DC00003FB0CF734BFA2EBC742B2EBC74261EBA7
:100DD00057310CFB0EF7B0EBC70072EB57720CFBF0
:100DE00008F734BFA2EBC702B2EBC70261EB577141
:100DF000039F4FEA816141EA921104EBCC044FEA70
:100E0000D1374FEA826206FB07FC42EA90124FEAB2
:100E100080604FEA1C4C0CFB0BF7D21B03FB0CF75A
:100E200061EB07010CFB0EF7B0EB074072EB1742CA
:100E30000CFB08F734BFA2EB0742B2EB074261EBB1
:100E400017414FEA8C554FEA910704EB9C2406FBAF
:100E500007FC4FEA1C4C0CFB0BF7B0EBC74072EBE6
:100E6000573203FB0CF734BFA2EBC742B2EBC742C9
:100E700061EB57310CFB0EF7B0EBC70072EB57720A
:100E80000CFB08F734BFA2EBC702B2EBC70261EB61
:100E9000577115EB4C254FEA816141EA92114FEAF7
:100EA00082624FEAD13742EA901206FB07FC44F116
:100EB00000044FEA80604FEA1C4C0CFB0BF7D21B7E
:100EC00003FB0CF761EB07010CFB0EF7B0EB0740DF
:100ED00072EB17420CFB08F734BFA2EB0742B2EBF0
:100EE000074261EB174115EB1C154FEA813141EACE
:100EF00092414FEA823242EA90424FEA80304FEA12
:100F00000C7644F1000448EA03434EEA0B484FF0E4
:100F1000000EB2EB080C71EB030724BF62463946A2
:100F20004EEB0E0E4FF0000B0018524149414BEBB7
:100F30000B0BB2EB080C71EB03077BF1000B24BF2A
:100F4000624639464EEB0E0E4FF0000B0018524130
:100F500049414BEB0B0BB2EB080C71EB03077BF138
:100F6000000B24BF624639464EEB0E0E51EA0207D3
:100F700018BF46F0010616EB0E7655F1000254F14B
:100F8000000103D5BDE88901BDE80088BDE88901FD
:100F9000BDE80048B619524141EB0101A3F101033C
:100FA000704780807F7E7D7C7B7A797877767675D6
:100FB0007473727171706F6E6E6D6C6C6B6A6A694E
:100FC0006868676666656464636362616160605FE8
:100FD0005F5E5E5D5D5C5C5B5B5A5A595958585761
:100FE00057565655555554545353525252515150C9
:100FF00050504F4F4F4E4E4D4D4D4C4C4C4B4B4B1C
:101000004A4A4A4949494848484747474746464661
:10101000454545444444444343434342424242419C
:101020004141002B9C4630D477002BD01CB54FEAB1
:10103000370703B44FF010004FF01001BAF1000F62
:1010400006D0BCF1000FDCBF40F0080040F0080102
:101050004FF000000FBCBDE810400BF1010BBBF1DD
:10106000010F08BF5FEA170722BF12F1010211F159
:1010700001014FF0004143F1000300F0004043EA5A
:1010800000007047F9D35708D0E746EA064613F147
:10109000400F4FEA16461FDD13F1200FDFBF164346
:1010A0000A46002120335B42BED0C3F1200746EA46
:1010B000064602FA07F74FEA164646EA0706C3F164
:1010C000200722FA03F201FA07F721FA03F14FF0A1
:1010D000000342EA0702A7E746EA020646EA064696
:1010E0004FEA164646EA0106BCBF46EA0646360CFB
:1010F0004FF000034FF000024FF0000194E72DE99C
:10110000804C9A46934670B491E8380007C831EA9B
:10111000400C48BF34EA430C03D5FFF7E6FDFFF768
:1011200080FFF0BCBDE8008C2DE9804C9A469346C8
:1011300070B491E8380007C810F0804F08BF13F072
:10114000804F03D100F005F8FFF76BFFF0BCBDE85E
:10115000008C20F07F4780EA030023F07F4C07EBF0
:101160000C03A3F57C5300F00040A3F1FE0392F0C2
:10117000000F00F0B38095F0000F00F077802DE9AC
:1011800001494FEA11404FEA144621EA004800FBAA
:1011900006FC24EA064708FB06F607FB08F800FBF6
:1011A00007F718EB06484CEB164C4FEA124B18EBBE
:1011B00007484FEA15464CEB174022EA0B4E0BFB53
:1011C00006FC25EA06470EFB06F607FB0EFE0BFBA8
:1011D00007F71EEB064E4CEB164C4FF000061EEBCD
:1011E000074E4CEB174B18EB0B0840F1000018EBC7
:1011F0000E0B58EB000840F100008F1A4FF0000171
:101200003CBFC943661B14BFB5EB040C00213CBFB7
:10121000C943F61B4FEA17444EEA8E0E27EA0445EF
:101220004FEA1C4704FB07622CEA074C05FB07F753
:101230000CFB05F604FB0CFC16EB074642EB1742D1
:1012400016EB0C4642EB1C421BEB060658EB020267
:10125000414146EA9E0601D5BDE80189B6195241D1
:1012600041EB0101A3F10103BDE801894FEA1445F7
:101270004FEA114724EA054621EA074C05FB07F42B
:1012800006FB07F70CFB06F105FB0CFC11EB074115
:1012900044EB17444FEA124711EB0C4144EB1C445A
:1012A00022EA074C05FB07F206FB07F70CFB06F6E4
:1012B00005FB0CFC16EB074642EB174216EB0C46FF
:1012C00042EB1C456A1854F1000148BF7047B6193B
:1012D000524141EB0101A3F10103704795F0000F6A
:1012E00037D04FEA11424FEA144721EA024624EA76
:1012F000074C02FB07F106FB07F70CFB06F402FBA9
:101300000CFC14EB074441EB17414FEA154714EB73
:101310000C4441EB1C4125EA074C02FB07F506FB98
:1013200007F70CFB06F602FB0CFC16EB074645EB39
:10133000174516EB0C4645EB1C42121951F1000102
:1013400048BF7047B619524141EB0101A3F10103B7
:1013500070474FEA14454FEA114724EA054621EA4F
:10136000074C05FB07F106FB07F70CFB06F24FF0F5
:10137000000605FB0CFC12EB074241EB174112EB98
:101380000C4251EB1C4148BF7047921841EB0101E0
:10139000A3F101037047FEE7704772B6FEE7000055
:1013A00070B5044600F018F90546601C02D00448E8
:1013B0000078044400F010F9401BA042FAD370BD3D
:1013C000040000202DE9F84FDFF8C891002409F14E
:1013D000040A0AF1040B23460F270BF1040ED1E097
:1013E0000125A54006EA0502AA4276D1DFF8A8C188
:1013F0004E68A6EB0C0866452BD00DDC032E34D0CE
:1014000005DC36B3012E19D0022E2FD11BE0112E90
:1014100016D0122E2AD119E0B8F5881F19D006DC93
:10142000B8F5803F15D0B8F5801F1FD111E0B8F591
:10143000001F0ED0B8F5041F18D10AE0CB6815E0E4
:10144000CB681B1D12E0CB6808330FE0CB680C3370
:101450000CE08B682BB1012B4FF0080303D04561E2
:1014600004E0042302E0056100E00023FF2A01D824
:10147000064601E000F104064FEA840501D9A5F112
:101480002005D6F8008007FA05FC28EA0C0803FAC4
:1014900005F548EA0508C6F800804D68ED0070D5EE
:1014A0003E4DAE6946F00106AE61AD6924F003061B
:1014B00005F0010500953A4D06EB050CDCF80850E7
:1014C000A607360F07FA06F825EA0805DFF8D480E4
:1014D000404503D14FF0000825E052E0DFF8C88016
:1014E000404502D14FF001081DE0DFF8C0804045C3
:1014F00002D14FF0020816E0DFF8B480404502D177
:101500004FF003080FE0DFF8AC80404502D14FF008
:10151000040808E0DFF8A080404502D14FF005083C
:1015200001E04FF0060808FA06F848EA0508CCF88A
:1015300008804D68D9F80060ED034D4601D516438B
:1015400000E096432E604D68DAF80060AD03554622
:1015500001D5164300E096432E604D68DBF800602D
:10156000ED025D4601D5164300E096432E604D68BE
:10157000DEF80060AD02754601D5164300E09643E3
:101580002E60641C0A681646E2407FF429AFBDE86D
:10159000F88F00000004014000001110001002400C
:1015A0000000014000080140000C01400010014013
:1015B0000014014000180140001C0140C26821EAEB
:1015C00002030A4043EA0241016170470AB1016126
:1015D00070470904FBE7000001488068704700007D
:1015E000040000200248816802781144816070473D
:1015F00004000020074810B5016841F010010160A7
:10160000032000F067F80F2000F006F800F024F83F
:10161000002010BD0020024070B50D4D04464FF46F
:101620007A712878B1FBF0F00A490968B1FBF0F053
:1016300000F0EAFA48B9102C07D200222146501EC9
:1016400000F028F800206C6070BD012070BD000023
:1016500004000020100000200C4808B5816941F00A
:1016600001018161816901F001010091C16941F0CD
:101670008051C161C06900F0805000900448416809
:1016800021F0E06141F00071416008BD00100240AE
:1016900000000140F0B40E4B1B680C46C3F302235C
:1016A000C3F10705042D00D90425191D072901D20E
:1016B000002300E0DB1E012606FA05F1491E214049
:1016C00099409E40761E16403143F0BC03F0B1BCF9
:1016D0000CED00E0064900F0070208684FF6FF0332
:1016E000184040EA0220034A104308607047000097
:1016F0000CED00E00000FA052DE9F0470F4605006B
:1017000061D0434E306800F00700B84209D230681B
:1017100020F0070038433060306800F00700B8421E
:1017200051D128683B4C810712D5400703D560682A
:1017300040F4E06060602878000703D5606840F4FA
:10174000605060606068A96820F0F0000843606045
:101750002878C00728D06868012810D0216802289E
:1017600010D0890700292EDA616821F003010143B6
:101770006160FFF731FF804641F288390DE0216852
:101780008903EFE78901EDE7FFF726FFA0EB0801EA
:10179000494502D90320BDE8F0876068696800F018
:1017A0000C00B0EB810FEFD1306800F00700B842B9
:1017B0000BD9306820F0070038433060306800F003
:1017C0000700B84201D00120E5E72878400705D599
:1017D0006068E96820F4E0600843606028780007EA
:1017E00006D56068296920F4605040EAC100606055
:1017F00000F038F86168084AC1F30311515CC84031
:101800000649086006480068FFF706FF0020C2E7A7
:101810000020024000100240C058000810000020C4
:10182000080000200448054900684968044AC1F3DB
:101830000221515CC8407047100000200010024097
:10184000D05800080448054900684968044AC1F3B3
:10185000C221515CC84070471000002000100240B7
:10186000D058000812A185B00FC98DE80F0014A050
:10187000144A006804905168134801F00C03042BCB
:1018800010D0082B0ED1C1F38343C9031DF8030008
:101890000AD5516804AAC1F34041515C0A4A504339
:1018A000B0FBF1F005B0704708494843FAE7000083
:1018B00002030405060708090A0B0C0D0E0F101091
:1018C000010200000010024000127A0000093D00F1
:1018D0002DE9F84F040070D02078C04DC00749D0E2
:1018E0006868C0F38100012807D06868C0F38100F0
:1018F000022809D16868C00306D52868800339D555
:1019000060680028E7D035E06068B0F5803F0BD014
:1019100010B1B0F5A02F11D0286820F480302860D5
:10192000286820F4802002E0286840F48030286095
:10193000606890B1FFF750FE06460AE0286840F460
:1019400080202860F0E700BFFFF746FE801B642878
:1019500073D828688003F7D50CE0FFF73DFE0646F4
:1019600005E000BFFFF738FE801B6428F0D8286828
:101970008003F7D420789A4E80074FF001094FF08A
:10198000000839D5686810F00C0F07D06868C0F3FC
:101990008100022809D16868C00306D4286880073E
:1019A00014D52069012808D110E02069B0B1C6F82B
:1019B0000090FFF711FE074605E00AE1FFF70CFE75
:1019C000C01B0228C4D828688007F7D52868616939
:1019D00020F0F80040EAC10028600DE0C6F8008061
:1019E000FFF7FAFD074604E0FFF7F6FDC01B0228EB
:1019F00023D828688007F7D4207800072CD57948A9
:101A0000A169D9B1C0F80090FFF7E6FD074604E0F0
:101A1000FFF7E2FDC01B02280FD8686A8007F7D5E0
:101A200071484FF4FA510068B0FBF1F0009000BF2C
:101A30000098411E0091FAD20EE080E0C0F80080CC
:101A4000FFF7CAFD074604E0FFF7C6FDC01B0228EA
:101A500075D8686A8007F7D42078400760D5E869B0
:101A60000027C00008D4E86940F08050E861E869C8
:101A7000012700F0805000905C480168C90513D42C
:101A80000168834641F480710160FFF7A5FD82463D
:101A900006E000BFFFF7A0FDA0EB0A0064284ED8C7
:101AA000DBF80000C005F5D5E06801280AD008B1D0
:101AB000052813D0286A20F001002862286A20F047
:101AC000040002E0286A40F001002862E06841F268
:101AD000883B98B1FFF780FD82460BE0286A40F012
:101AE00004002862EEE700BFFFF776FDA0EB0A01D5
:101AF00059455AD8286A8007F6D50CE0FFF76CFDE7
:101B0000824605E0FFF768FDA0EB0A0159454CD875
:101B1000286A8007F6D41FB1E86920F08050E86198
:101B2000E06988B36968C1F38101022944D00228C1
:101B3000C6F8608004D0FFF74FFD044638E034E07B
:101B4000FFF74AFD074604E0FFF746FDC01B0228E9
:101B50002BD828688001F7D4206AB0F5803F05D1E2
:101B60006868A16820F4003008436860D4E908017F
:101B70000843696821F4741108436860C6F86090EE
:101B8000FFF72AFD044606E025E000BFFFF724FD2D
:101B9000001B022809D828688001F7D51BE000BF88
:101BA000FFF71AFD001B022802D90320BDE8F88FB9
:101BB00028688001F4D40EE00128F7D06868226A12
:101BC00000F48031914204D1616A00F470108842BF
:101BD00001D00120EAE70020E8E700000010024001
:101BE0000000424280044242100000200070004089
:101BF0004FF0E0210428086903D020F004000861B8
:101C0000704740F00400FAE710B5401EB0F1807F45
:101C100001D3012010BD4FF0E02460610F21601757
:101C200003F007FA0020A06107202061002010BD0A
:101C300070B5040004D094F83D00002510B106E012
:101C4000012070BD84F83C50204600F023F8242089
:101C500084F83D002068C16821F40051C16020462D
:101C600003F076F92068016921F490410161206850
:101C7000416921F02A0141612068C16841F40051A5
:101C8000C1602564202084F83D0084F83E000020D7
:101C900070BD000030B585B000240094019402941A
:101CA000039400681449884224D11448816941F49E
:101CB00080418161816901F480410491816941F031
:101CC0000401816180690E4D00F0040004904FF41E
:101CD000007000900220019003200390694628467E
:101CE000FFF770FB2815CDE90004694628460294E9
:101CF000FFF768FB05B030BD00380140001002401E
:101D000000080140FEE70000F0B50F490646002438
:101D100008884D8821464543204602F0A5FE03F081
:101D200065F80A494FF480774A15DFF824C080230C
:101D300007E00F614A61CCF800604B610B610A61FA
:101D4000641CAC42F5D3F0BD6000002000100140DF
:101D50000C0C014006488088A0F5AA41103903D038
:101D60005FF0290003F030B84FF42450FAE7000088
:101D7000600000202DE9F04F2B492C260A4688717F
:101D800092884FF4305A4FF4285B4FF4487541F66F
:101D9000631E2B274FF02A0C4FF0F00845F2105924
:101DA0004FF4A0744FF4F073B8B10C80A1F8028026
:101DB0004A4532D1A1F808A0A1F80AB038028881BA
:101DC0000D804B80A2F5A640103801D10B804C80CD
:101DD000BDE8F04F002002F0DDBCA1F800804C808F
:101DE0004A4507D1A1F808A0A1F80AB04FF42C5039
:101DF000888105E072450E8105D14F81A1F80CC0A4
:101E00000B804D8002E0A1F80AC08F81A2F5A640A8
:101E10001038DDD10C804B80DAE70E81A1F80AC0C2
:101E200072458F81CCD0CDE7600000202DE9F74FBF
:101E300007466B486B4C01F0FF0982884FEA112876
:101E400065153E0A4189A2F5AA4307F0FF0A103B37
:101E50002CD0A2F5C853633B57D0084602F0B4FF1C
:101E60004FF4807BC4F810B065615F4F3E60802600
:101E7000666126612561C4F810B06561C7F800A0ED
:101E80006661266125615648808902F09DFFC4F88D
:101E900010B06561C7F8008066612661C4F8105013
:101EA000C4F810B06561C7F8009080E0084602F001
:101EB0008BFF4FF4807BC4F810B065614A4F3E60E1
:101EC000802666612661256145484089401C80B2B4
:101ED00002F07AFFC4F810B06561C7F800A066612F
:101EE000266125613E48808902F06EFFC4F810B07B
:101EF0006561C7F800806661266125613848808980
:101F0000401C80B202F060FFCAE782791AB90288E9
:101F1000D21B521E97B2084602F056FF4FF4807A49
:101F2000C4F810A06561DFF8C0B0380ACBF8000033
:101F30008026666126612561C4F810A06561F9B24A
:101F4000CBF80010666126612561C4F810A06561B8
:101F5000CBF80000666126612561C4F810A06561B8
:101F6000CBF800106661266125611D48808902F06A
:101F70002BFFC4F810A065615946CBF8008066615C
:101F800026612561C4F810A06561CBF800906661F8
:101F900026612561C4F810A06561CBF800806661F8
:101FA00026612561C4F810A06561C1F800906661E2
:101FB000266125614FF480716161656108480A4AB4
:101FC0000089106080206061206125612161656168
:101FD00002991160606120612561BDE8FE8F0000FB
:101FE00060000020001001400C0C01402DE9F04F72
:101FF000F74887B0816941F008018161816901F08A
:1020000008010091816941F01001816180694FF000
:10201000030B00F0100000904FF4F86002900120D4
:10202000CDE9040B039002A9EA48FFF7CBF94FF67C
:10203000FF7502A9E8480295FFF7C4F9E748406830
:10204000E64920F0E06040F080604860322003F014
:1020500011F80121002002F0CFFE322003F00AF82F
:10206000D32002F0B1FE02F01FFBDD4CA08002F095
:102070001BFBA08002F018FB05EA0020A08002F004
:1020800013FBA18849F241360843A08041F663184A
:1020900045F2103745F210594FF4704AB04273D0F0
:1020A000042002F091FE02F0FFFAA08002F0FCFA98
:1020B000A08002F0F9FA05EA0020A08002F0F4FA0C
:1020C000A1880843A0F50541A08052397ED0A0F533
:1020D000EE41893958D0D42002F076FE02F0E4FABD
:1020E000A08002F0E1FAA08002F0DEFA05EA00200A
:1020F000A08002F0D9FAA1880843A080B84243D05A
:102100005521504602F078FEAA214FF2010002F05C
:1021100073FE52214FF2020002F06EFE08214FF2D0
:10212000030002F069FE01214FF2040002F064FE98
:102130004FF4454002F048FE02F0B6FA05EA0020EE
:10214000A0804CF2015002F03FFE02F0ADFAA188EF
:102150000843A080052002F08DFFA188494513D0D7
:10216000A12002F031FE02F09FFAA08002F09CFA5A
:1021700005EA0020A08002F097FAA1880843A0F5A4
:10218000AE41A08061397DD0A088B0427BD1CF2004
:1021900002F01AFE002002F005FEC12002F002FE4D
:1021A000302002F0FFFDED2002F00EFE642002F070
:1021B000F9FD032002F0F6FD122002F0F3FD81206C
:1021C00002F0F0FDE82002F0FFFD00E0F7E08520DE
:1021D00002F0E8FD102002F0E5FD7A2002F0E2FDB9
:1021E000CB2002F0F1FD392002F0DCFD2C2002F0C2
:1021F000D9FD002002F0D6FD342002F0D3FD0220EC
:1022000002F0D0FDF72002F0DFFD202002F0CAFD31
:10221000EA2002F0D9FD002002F0C4FD002002F007
:10222000C1FDC02002F0D0FD1B2002F0BBFDC1208B
:1022300002F0CAFD012002F0B5FDC52002F0C4FD88
:10224000302002F0AFFD302002F0ACFDC72002F0DC
:10225000BBFDB72002F0A6FD362002F0B5FD4820F8
:1022600002F0A0FD3A2002F0AFFD552002F09AFDE9
:10227000B12002F0A9FD002002F094FD1A2002F026
:1022800091FD01E09FE0ADE0B62002F09DFD0A2047
:1022900002F088FDA22002F085FDF22002F094FDFC
:1022A000002002F07FFD262002F08EFD012002F0CA
:1022B00079FDE02002F088FD0F2002F073FD2A2056
:1022C00002F070FD282002F06DFD082002F06AFD8A
:1022D0000E2002F067FD082002F064FD542002F099
:1022E00061FDA92002F05EFD432002F05BFD0A20A3
:1022F00002F058FD0F2002F055FD002002F052FDC3
:10230000002002F04FFD002002F04CFD002002F002
:1023100049FDE12002F058FD002002F043FD1520A8
:1023200002F040FD172002F03DFD072002F03AFDCB
:10233000112002F037FD062002F034FD2B2002F0C0
:1023400031FD562002F02EFD3C2002F02BFD052031
:1023500002F028FD102002F025FD0F2002F022FDE2
:102360003F2002F01FFD3F2002F01CFD0F2002F075
:1023700019FD2B2002F028FD002002F013FD0020A3
:1023800002F010FD012002F00DFD3F2002F00AFDD9
:102390002A2002F019FD002002F004FD002002F0C6
:1023A00001FD002002F0FEFCEF2002F0FBFC1120FA
:1023B00002F00AFD782002F05DFE01F061B847F2FC
:1023C0008970A080FEE3A4F8048001F0DFBF000064
:1023D0000010024000100140000C014000000140CC
:1023E00060000020A0F5EE418939EBD0B84241F001
:1023F0004980ED2002F0E8FC012002F0D3FCFE2031
:1024000002F0D0FCEE2002F0DFFCDE2002F0CAFC7D
:10241000212002F0C7FCF12002F0D6FC012002F0DE
:10242000C1FCDF2002F0D0FC102002F0BBFCC42075
:1024300002F0CAFC8F2002F0B5FCC62002F0C4FCFA
:10244000002002F0AFFCE22002F0ACFCE22002F03F
:10245000A9FCE22002F0A6FCBF2002F0B5FCAA20F5
:1024600002F0A0FCB02002F0AFFC0D2002F09AFCBC
:10247000002002F097FC0D2002F094FC002002F0F6
:1024800091FC112002F08EFC002002F08BFC192040
:1024900002F088FC002002F085FC212002F082FC82
:1024A000002002F07FFC2D2002F07CFC002002F0D6
:1024B00079FC3D2002F076FC002002F073FC5D20E8
:1024C00002F070FC002002F06DFC5D2002F06AFC5E
:1024D000002002F067FCB12002F076FC802002F0C0
:1024E00061FC002002F05EFC8B2002F05BFC00200F
:1024F00002F058FC962002F055FC002002F052FC3D
:10250000B22002F061FC002002F04CFC002002F03E
:1025100049FC022002F046FC002002F043FC0320AC
:1025200002F040FC002002F03DFCB32002F04CFC25
:10253000002002F037FC002002F034FC002002F002
:1025400031FC002002F02EFC002002F02BFC0020C9
:1025500002F028FC002002F025FC002002F022FC02
:10256000002002F01FFC002002F01CFC002002F002
:1025700019FC002002F016FC002002F013FC0020E1
:1025800002F010FC002002F00DFC002002F00AFC1A
:10259000002002F007FC002002F004FC002002F002
:1025A00001FC002002F0FEFB002002F0FBFB0020FB
:1025B00002F0F8FB002002F0F5FB002002F0F2FB35
:1025C000B42002F001FC8B2002F0ECFB002002F0B2
:1025D000E9FB962002F0E6FB002002F0E3FBA120DD
:1025E00002F0E0FB002002F0DDFBB52002F0ECFB86
:1025F000022002F0D7FB002002F0D4FB032002F0FF
:10260000D1FB002002F0CEFB042002F0CBFB002027
:1026100002F0C8FBB62002F0D7FB002002F0C2FB9C
:10262000002002F0BFFBB72002F0CEFB002002F03A
:10263000B9FB002002F0B6FB3F2002F0B3FB002004
:1026400002F0B0FB5E2002F0ADFB002002F0AAFB1E
:10265000642002F0A7FB002002F0A4FB8C2002F013
:10266000A1FB002002F09EFBAC2002F09BFB0020AF
:1026700002F098FBDC2002F095FB002002F092FBB8
:10268000702002F08FFB002002F08CFB902002F003
:1026900089FB002002F086FBEB2002F083FB002088
:1026A00002F080FBDC2002F07DFB002002F07AFBD0
:1026B000B82002F089FB002002F074FB002002F039
:1026C00071FB002002F06EFB002002F06BFB00208B
:1026D00002F068FB002002F065FB002002F062FBC4
:1026E000002002F05FFBBA2002F06EFB242002F013
:1026F00059FB002002F056FB002002F053FB0020A3
:1027000002F050FBC12002F05FFB202002F04AFBE8
:10271000002002F047FB542002F044FB002002F0AE
:1027200041FBFF2002F03EFB002002F03BFBC220F9
:1027300002F04AFB0A2002F035FB002002F032FBD7
:10274000042002F02FFB002002F02CFBC32002F03B
:102750003BFB3C2002F026FB002002F023FB3A204A
:1027600002F020FB002002F01DFB392002F01AFBD2
:10277000002002F017FB372002F014FB002002F0CB
:1027800011FB3C2002F00EFB002002F00BFB362078
:1027900002F008FB002002F005FB322002F002FBF1
:1027A000002002F0FFFA2F2002F0FCFA002002F0D5
:1027B000F9FA2C2002F0F6FA002002F0F3FA2920B0
:1027C00002F0F0FA002002F0EDFA262002F0EAFA18
:1027D000002002F0E7FA242002F0E4FA002002F0E0
:1027E000E1FA242002F0DEFA002002F0DBFA2320D6
:1027F00002F0D8FA002002F0D5FA3C2002F0D2FA1A
:10280000002002F0CFFA362002F0CCFA002002F0CD
:10281000C9FA322002F0C6FA002002F0C3FA2F20D3
:1028200002F0C0FA002002F0BDFA2C2002F0BAFA41
:10283000002002F0B7FA292002F0B4FA002002F0DA
:10284000B1FA262002F0AEFA002002F0ABFA242002
:1028500002F0A8FA002002F0A5FA242002F0A2FA61
:10286000002002F09FFA232002F09CFA002002F0E0
:1028700099FAC42002F0A8FA622002F093FA00202C
:1028800002F090FA052002F08DFA002002F08AFA98
:10289000842002F087FA002002F084FAF02002F08F
:1028A00081FA002002F07EFA182002F07BFA002064
:1028B00002F078FAA42002F075FA002002F072FA11
:1028C000182002F06FFA002002F06CFA502002F09B
:1028D00069FA002002F066FA0C2002F063FA002088
:1028E00002F060FA172002F05DFA002002F05AFAB6
:1028F000952002F057FA002002F054FAF32002F07B
:1029000051FA002002F04EFAE62002F04BFA0020C5
:1029100002F048FAC52002F057FA322002F042FADB
:10292000002002F03FFA442002F03CFA002002F0BE
:1029300039FA652002F036FA002002F033FA7620E8
:1029400002F030FA002002F02DFA882002F02AFA74
:10295000002002F027FAC62002F036FA202002F00A
:1029600021FA002002F01EFA172002F01BFA0020C4
:1029700002F018FA012002F015FA002002F012FA13
:10298000C72002F021FA002002F00CFA002002F029
:1029900009FA002002F006FA002002F003FAC8202B
:1029A00002F012FA002002F0FDF9002002F0FAF91C
:1029B000002002F0F7F9002002F0F4F9C92002F03B
:1029C00003FA002002F0EEF9002002F0EBF90020FB
:1029D00002F0E8F9002002F0E5F9002002F0E2F947
:1029E000002002F0DFF9002002F0DCF9002002F004
:1029F000D9F9002002F0D6F9002002F0D3F9002026
:102A000002F0D0F9002002F0CDF9002002F0CAF95E
:102A1000002002F0C7F9002002F0C4F9002002F003
:102A2000C1F9E02002F0D0F9162002F0BBF9002035
:102A300002F0B8F91C2002F0B5F9002002F0B2F95A
:102A4000212002F0AFF9002002F0ACF9362002F0AC
:102A5000A9F9002002F0A6F9462002F0A3F900200F
:102A600002F0A0F9522002F09DF9002002F09AF93C
:102A7000642002F097F9002002F094F97A2002F025
:102A800091F9002002F08EF98B2002F08BF90020E2
:102A900002F088F9992002F085F9002002F082F90D
:102AA000A82002F07FF9002002F07CF9B92002F0A2
:102AB00079F9002002F076F9C42002F073F90020C1
:102AC00002F070F9CA2002F06DF9002002F06AF9F4
:102AD000D22002F067F9002002F064F9D92002F058
:102AE00061F9002002F05EF9E02002F05BF90020BD
:102AF00002F058F9F32002F055F9002002F052F9E3
:102B0000E12002F061F9162002F04CF9002002F0F9
:102B100049F91C2002F046F9002002F043F9222076
:102B200002F040F9002002F03DF9362002F03AF9B7
:102B3000002002F037F9452002F034F9002002F0BD
:102B400031F9522002F02EF9002002F02BF9642016
:102B500002F028F9002002F025F97A2002F022F98B
:102B6000002002F01FF98B2002F01CF9002002F077
:102B700019F9992002F016F9002002F013F9A820A3
:102B800002F010F9002002F00DF9B92002F00AF964
:102B9000002002F007F9C42002F004F9002002F03E
:102BA00001F9CA2002F0FEF8002002F0FBF8D22062
:102BB00002F0F8F8002002F0F5F8D82002F0F2F860
:102BC000002000E08DE302F0EDF8E02002F0EAF8EA
:102BD000002002F0E7F8F32002F0E4F8002002F011
:102BE000E1F8E22002F0F0F8052002F0DBF8002026
:102BF00002F0D8F80B2002F0D5F8002002F0D2F84D
:102C00001B2002F0CFF8002002F0CCF8342002F0B4
:102C1000C9F8002002F0C6F8442002F0C3F80020F2
:102C200002F0C0F84F2002F0BDF8002002F0BAF820
:102C3000612002F0B7F8002002F0B4F8792002F029
:102C4000B1F8002002F0AEF8882002F0ABF80020C6
:102C500002F0A8F8972002F0A5F8002002F0A2F8F0
:102C6000A62002F09FF8002002F09CF8B72002F0A6
:102C700099F8002002F096F8C22002F093F80020A4
:102C800002F090F8C72002F08DF8002002F08AF8D8
:102C9000D12002F087F8002002F084F8D62002F05C
:102CA00081F8002002F07EF8DD2002F07BF80020A1
:102CB00002F078F8F32002F075F8002002F072F8C4
:102CC000E32002F081F8052002F06CF8002002F009
:102CD00069F80A2002F066F8002002F063F81C2070
:102CE00002F060F8002002F05DF8332002F05AF89C
:102CF000002002F057F8442002F054F8002002F0BF
:102D000051F8502002F04EF8002002F04BF86220FB
:102D100002F048F8002002F045F8782002F042F86E
:102D2000002002F03FF8882002F03CF8002002F07A
:102D300039F8972002F036F8002002F033F8A62088
:102D400002F030F8002002F02DF8B72002F02AF847
:102D5000002002F027F8C22002F024F8002002F040
:102D600021F8C72002F01EF8002002F01BF8D12045
:102D700002F018F8002002F015F8D52002F012F841
:102D8000002002F00FF8DD2002F00CF8002002F025
:102D900009F8F32002F006F8002002F003F8E4201E
:102DA00002F012F8012001F0FDFF002001F0FAFF0F
:102DB000012001F0F7FF002001F0F4FF022001F0F4
:102DC000F1FF002001F0EEFF2A2001F0EBFF0020D0
:102DD00001F0E8FF3C2001F0E5FF002001F0E2FFF8
:102DE0004B2001F0DFFF002001F0DCFF5D2001F04F
:102DF000D9FF002001F0D6FF742001F0D3FF00209E
:102E000001F0D0FF842001F0CDFF002001F0CAFFC7
:102E1000932001F0C7FF002001F0C4FFA22001F0C1
:102E2000C1FF002001F0BEFFB32001F0BBFF002076
:102E300001F0B8FFBE2001F0B5FF002001F0B2FFA5
:102E4000C42001F0AFFF002001F0ACFFCD2001F065
:102E5000A9FF002001F0A6FFD32001F0A3FF00206E
:102E600001F0A0FFDD2001F09DFF002001F09AFF9E
:102E7000F32001F097FF002001F094FFE52001F01E
:102E8000A3FF002001F08EFF002001F08BFF002047
:102E900001F088FF002001F085FF022001F082FF91
:102EA000002001F07FFF292001F07CFF002001F0CD
:102EB00079FF3C2001F076FF002001F073FF4B20EA
:102EC00001F070FF002001F06DFF5D2001F06AFF4E
:102ED000002001F067FF742001F064FF002001F082
:102EE00061FF842001F05EFF002001F05BFF932072
:102EF00001F058FF002001F055FFA22001F052FF21
:102F0000002001F04FFFB32001F04CFF002001F042
:102F100049FFBE2001F046FF002001F043FFC4201E
:102F200001F040FF002001F03DFFCD2001F03AFF0D
:102F3000002001F037FFD32001F034FF002001F022
:102F400031FFDC2001F02EFF002001F02BFFF320E9
:102F500001F028FF002001F025FFE62001F034FFFA
:102F6000112001F01FFF002001F01CFF342001F0B0
:102F700019FF002001F016FF562001F013FF00207A
:102F800001F010FF762001F00DFF002001F00AFF94
:102F9000772001F007FF002001F004FF662001F018
:102FA00001FF002001F0FEFE882001F0FBFE002062
:102FB00001F0F8FE992001F0F5FE002001F0F2FE8C
:102FC000BB2001F0EFFE002001F0ECFE992001F0A3
:102FD000E9FE002001F0E6FE662001F0E3FE00209D
:102FE00001F0E0FE552001F0DDFE002001F0DAFEE8
:102FF000552001F0D7FE002001F0D4FE452001F05D
:10300000D1FE002001F0CEFE432001F0CBFE0020D7
:1030100001F0C8FE442001F0C5FE002001F0C2FE10
:10302000E72001F0D1FE322001F0BCFE002001F0CB
:10303000B9FE552001F0B6FE002001F0B3FE762067
:1030400001F0B0FE002001F0ADFE662001F0AAFE06
:10305000002001F0A7FE672001F0A4FE002001F08F
:10306000A1FE672001F09EFE002001F09BFE87205C
:1030700001F098FE002001F095FE992001F092FEEB
:10308000002001F08FFEBB2001F08CFE002001F03B
:1030900089FE992001F086FE002001F083FE772052
:1030A00001F080FE002001F07DFE442001F07AFE58
:1030B000002001F077FE562001F074FE002001F0A0
:1030C00071FE232001F06EFE002001F06BFE332024
:1030D00001F068FE002001F065FE452001F062FE6F
:1030E000002001F05FFEE82001F06EFE002001F0FC
:1030F00059FE002001F056FE992001F053FE0020F9
:1031000001F050FE872001F04DFE002001F04AFE44
:10311000882001F047FE002001F044FE772001F0F6
:1031200041FE002001F03EFE662001F03BFE002043
:1031300001F038FE882001F035FE002001F032FE5B
:10314000AA2001F02FFE002001F02CFEBB2001F090
:1031500029FE002001F026FE992001F023FE002028
:1031600001F020FE662001F01DFE002001F01AFE95
:10317000552001F017FE002001F014FE552001F04B
:1031800011FE002001F00EFE442001F00BFE002095
:1031900001F008FE442001F005FE002001F002FECF
:1031A000552001F0FFFD002001F0FCFDE92001F0B9
:1031B0000BFEAA2001F0F6FD002001F0F3FD002037
:1031C00001F0F0FD002001F0EDFD002001F0FCFD1C
:1031D000AA2001F0E7FDCF2001F0F6FD002001F06C
:1031E000E1FD002001F0DEFD002001F0DBFD00200C
:1031F00001F0D8FD002001F0D5FD002001F0D2FD46
:10320000002001F0CFFD002001F0CCFD002001F0F6
:10321000C9FD002001F0C6FD002001F0C3FD002023
:1032200001F0C0FD002001F0BDFD002001F0BAFD5D
:10323000002001F0B7FD002001F0B4FD002001F0F6
:10324000B1FDF02001F0C0FD002001F0ABFD5020E9
:1032500001F0A8FD002001F0A5FD002001F0A2FD75
:10326000002001F09FFDF32001F0AEFD002001F0F1
:1032700099FDF92001F0A8FD062001F093FD102032
:1032800001F090FD292001F08DFD002001F08AFD64
:103290003A2001F099FD552001F084FD112001F044
:1032A00093FD642001F0E6FE292001F08DFD35201C
:1032B00001F08AFD002001F075FD512001F084FD30
:1032C000FF2001F06FFD532001F07EFD2C2001F066
:1032D00069FD552001F078FD822001F063FD2C206E
:1032E000FEE3112001F070FD782001F0C3FE3620CE
:1032F00001F06AFD002001F055FD3A2001F064FD67
:10330000052001F04FFDB22001F05EFD0C2001F020
:1033100049FD0C2001F046FD002001F043FD332063
:1033200001F040FD332001F03DFDB72001F04CFDE0
:10333000352001F037FDBB2001F046FD322001F0C1
:1033400031FDC02001F040FD0C2001F02BFDC2201A
:1033500001F03AFD012001F025FDC32001F034FD0C
:10336000102001F01FFDC42001F02EFD202001F0EF
:1033700019FDC62001F028FD0F2001F013FDD0201B
:1033800001F022FDA42001F00DFDA12001F00AFDB5
:10339000E02001F019FDD02001F004FD002001F033
:1033A00001FD022001F0FEFC072001F0FBFC0A20D9
:1033B00001F0F8FC282001F0F5FC322001F0F2FCCD
:1033C000442001F0EFFC422001F0ECFC062001F06B
:1033D000E9FC0E2001F0E6FC122001F0E3FC1420D1
:1033E00001F0E0FC172001F0DDFCE12001F0ECFC35
:1033F000D02001F0D7FC002001F0D4FC022001F025
:10340000D1FC072001F0CEFC0A2001F0CBFC2820E3
:1034100001F0C8FC312001F0C5FC542001F0C2FCD1
:10342000472001F0BFFC0E2001F0BCFC1C2001F085
:10343000B9FC172001F0B6FC1B2001F0B3FC1E20E4
:1034400001F0B0FC2A2001F0BFFC002001F0AAFC32
:10345000002001F0A7FC002001F0A4FCEF2001F007
:10346000A1FC2B2001F0B0FC002001F09BFC00200F
:1034700001F098FC012001F095FC3F2001F092FC46
:1034800029202DE748457CD15521504601F0B4FC58
:103490004FF20104AA21204601F0AEFC651C522126
:1034A000284601F0A9FCA61C0821304601F0A4FC26
:1034B000E71C0121384601F09FFC0D214FF43040FC
:1034C00001F09AFC0D214BF2010001F095FC0D2159
:1034D0004BF2020001F090FC4FF436483421404694
:1034E00001F08AFC34214BF2016001F085FC3421AB
:1034F0004BF2026001F080FC4FF431490D21484647
:1035000001F07AFC4BF2011B0D21584601F074FCCE
:103510000D214BF2021001F06FFC34214FF43740C3
:1035200001F06AFC34214BF2017001F065FC34219A
:103530004BF2027001F060FC00214FF4324001F0C8
:103540005BFC00214BF2012001F056FC00214BF204
:10355000022001F051FC24214FF4384001F04CFCD2
:1035600024214BF6010001F047FC24214BF6020018
:1035700001F042FC01214FF43F4001F03DFC0F21DE
:1035800000E0FDE34FF4334001F036FC0F214BF235
:10359000013001F031FC0F214BF2023001F02CFC24
:1035A00034214FF4394001F027FC34214BF601104F
:1035B00001F022FC34214BF6021001F01DFC082121
:1035C0004FF4354001F018FC08214BF2015001F096
:1035D00013FC08214BF2025001F00EFC03214FF4C2
:1035E000424001F009FC24214FF43A4001F004FC70
:1035F00024214BF6012001F0FFFB24214BF6022091
:1036000001F0FAFB00214FF43C4001F0F5FB78217A
:103610004BF6014001F0F0FB00214BF6024001F0B7
:10362000EBFB00214FF43D4001F0E6FB78214BF627
:10363000015001F0E1FB00214BF6025001F0DCFBF0
:1036400000214FF43E4001F0D7FB64214BF60160AE
:1036500001F0D2FB00214FF4514001F0CDFB3321AA
:103660004DF2011001F0C8FB00214DF2021001F0F3
:10367000C3FB34214DF2031001F0BEFB00214DF2DB
:10368000041001F0B9FB3A214DF2051001F0B4FB32
:1036900000214DF2061001F0AFFB4A214DF2071058
:1036A00001F0AAFB00214DF2081001F0A5FB5C21FE
:1036B0004DF2091001F0A0FB00214DF20A1001F0BB
:1036C0009BFB81214DF20B1001F096FB00214DF286
:1036D0000C1001F091FBA6214DF20D1001F08CFBB6
:1036E00000214DF20E1001F087FBE5214DF20F1085
:1036F00001F082FB01214DF2101001F07DFB13213E
:103700004DF2111001F078FB01214DF2121001F081
:1037100073FB54214DF2131001F06EFB01214DF2A9
:10372000141001F069FB82214DF2151001F064FBC9
:1037300001214DF2161001F05FFBCA214DF2171066
:1037400001F05AFB02214DF2181001F055FB002147
:103750004DF2191001F050FB02214DF21A1001F048
:103760004BFB01214DF21B1001F046FB02214DF2F3
:103770001C1001F041FB34214DF21D1001F03CFB07
:1037800002214DF21E1001F037FB67214DF21F1090
:1037900001F032FB02214DF2201001F02DFB8421BB
:1037A0004DF2211001F028FB02214DF2221001F010
:1037B00023FBA4214DF2231001F01EFB02214DF248
:1037C000241001F019FBB7214DF2251001F014FB74
:1037D00002214DF2261001F00FFBCF214DF22710F0
:1037E00001F00AFB02214DF2281001F005FBDE2159
:1037F0004DF2291001F000FB02214DF22A1001F0D8
:10380000FBFAF2214DF22B1001F0F6FA02214DF2F3
:103810002C1001F0F1FAFE214DF22D1001F0ECFA1E
:1038200003214DF22E1001F0E7FA10214DF22F1076
:1038300001F0E2FA03214DF2301001F0DDFA3321FC
:103840004DF2311001F0D8FA03214DF2321001F09F
:10385000D3FA6D214DF2331001F0CEFA00214FF46E
:10386000524001F0C9FA33214DF2012001F0C4FAAF
:1038700000214DF2022001F0BFFA34214DF2032065
:1038800001F0BAFA00214DF2042001F0B5FA3A2114
:103890004DF2052001F0B0FA00214DF2062001F0B2
:1038A000ABFA4A214DF2072001F0A6FA00214DF2B1
:1038B000082001F0A1FA5C214DF2092001F09CFAE8
:1038C00000214DF20A2001F097FA81214DF20B20E0
:1038D00001F092FA00214DF20C2001F08DFAA621A0
:1038E0004DF20D2001F088FA00214DF20E2001F07A
:1038F00083FAE5214DF20F2001F07EFA01214DF20D
:10390000102001F079FA13214DF2112001F074FA20
:1039100001214DF2122001F06FFA54214DF21320D3
:1039200001F06AFA01214DF2142001F065FA8221BA
:103930004DF2152001F060FA01214DF2162001F040
:103940005BFACA214DF2172001F056FA02214DF21E
:10395000182001F051FA00214DF2192001F04CFA23
:1039600002214DF21A2001F047FA01214DF21B20ED
:1039700001F042FA02214DF21C2001F03DFA3421FF
:103980004DF21D2001F038FA02214DF21E2001F007
:1039900033FA67214DF21F2001F02EFA02214DF279
:1039A000202001F029FA84214DF2212001F024FA8F
:1039B00002214DF2222001F01FFAA4214DF2232012
:1039C00001F01AFA02214DF2242001F015FAB72174
:1039D0004DF2252001F010FA02214DF2262001F0CF
:1039E0000BFACF214DF2272001F006FA02214DF209
:1039F000282001F001FADE214DF2292001F0FCF926
:103A000002214DF22A2001F0F7F9F2214DF22B208C
:103A100001F0F2F902214DF22C2001F0EDF9FE2126
:103A20004DF22D2001F0E8F903214DF22E2001F096
:103A3000E3F910214DF22F2001F0DEF903214DF2C0
:103A4000302001F0D9F933214DF2312001F0D4F9C1
:103A500003214DF2322001F0CFF96D214DF23320D8
:103A600001F0CAF900214FF4534001F0C5F93321A8
:103A70004DF2013001F0C0F900214DF2023001F0A9
:103A8000BBF934214DF2033001F0B6F900214DF2BB
:103A9000043001F0B1F93A214DF2053001F0ACF9F2
:103AA00000214DF2063001F0A7F94A214DF207300E
:103AB00001F0A2F900214DF2083001F09DF95C21DE
:103AC0004DF2093001F098F900214DF20A3001F071
:103AD00093F981214DF20B3001F08EF9002100E0C5
:103AE000FDE34DF20C3001F087F9A6214DF20D30C7
:103AF00001F082F900214DF20E3001F07DF9E5214F
:103B00004DF20F3001F078F901214DF2103001F043
:103B100073F913214DF2113001F06EF901214DF2CC
:103B2000123001F069F954214DF2133001F064F9BB
:103B300001214DF2143001F05FF982214DF2153070
:103B400001F05AF901214DF2163001F055F9CA2160
:103B50004DF2173001F050F902214DF2183001F00A
:103B60004BF900214DF2193001F046F902214DF2D6
:103B70001A3001F041F901214DF21B3001F03CF9FE
:103B800002214DF21C3001F037F934214DF21D3085
:103B900001F032F902214DF21E3001F02DF96721BA
:103BA0004DF21F3001F028F902214DF2203001F0D2
:103BB00023F984214DF2213001F01EF902214DF24A
:103BC000223001F019F9A4214DF2233001F014F94B
:103BD00002214DF2243001F00FF9B7214DF22530CA
:103BE00001F00AF902214DF2263001F005F9CF214A
:103BF0004DF2273001F000F902214DF2283001F09A
:103C0000FBF8DE214DF2293001F0F6F802214DF2E9
:103C10002A3001F0F1F8F2214DF22B3001F0ECF8EE
:103C200002214DF22C3001F0E7F8FE214DF22D304B
:103C300001F0E2F803214DF22E3001F0DDF8102101
:103C40004DF22F3001F0D8F803214DF2303001F061
:103C5000D3F833214DF2313001F0CEF803214DF28B
:103C6000323001F0C9F86D214DF2333001F0C4F863
:103C700000214FF4544001F0BFF833214DF20140D0
:103C800001F0BAF800214DF2024001F0B5F83421FC
:103C90004DF2034001F0B0F800214DF2044001F074
:103CA000ABF83A214DF2054001F0A6F800214DF2A3
:103CB000064001F0A1F84A214DF2074001F09CF8BE
:103CC00000214DF2084001F097F85C214DF20940C7
:103CD00001F092F800214DF20A4001F08DF88121A7
:103CE0004DF20B4001F088F800214DF20C4001F03C
:103CF00083F8A6214DF20D4001F07EF800214DF22F
:103D00000E4001F079F8E5214DF20F4001F074F812
:103D100001214DF2104001F06FF813214DF21140D6
:103D200001F06AF801214DF2124001F065F85421CA
:103D30004DF2134001F060F801214DF2144001F002
:103D40005BF882214DF2154001F056F801214DF249
:103D5000164001F051F8CA214DF2174001F04CF81D
:103D600002214DF2184001F047F800214DF21940B0
:103D700001F042F802214DF21A4001F03DF800E056
:103D800002E301214DF21B4001F036F802214DF211
:103D90001C4001F031F834214DF21D4001F02CF8A7
:103DA00002214DF21E4001F027F867214DF21F401D
:103DB00001F022F802214DF2204001F01DF884218B
:103DC0004DF2214001F018F802214DF2224001F09D
:103DD00013F8A4214DF2234001F00EF802214DF218
:103DE000244001F009F8B7214DF2254001F004F814
:103DF00002214DF2264000F0FFFFCF214DF2274077
:103E000000F0FAFF02214DF2284000F0F5FFDE211C
:103E10004DF2294000F0F0FF02214DF22A4000F05F
:103E2000EBFFF2214DF22B4000F0E6FF02214DF2B4
:103E30002C4000F0E1FFFE214DF22D4000F0DCFFB0
:103E400003214DF22E4000F0D7FF10214DF22F40FC
:103E500000F0D2FF03214DF2304000F0CDFF3321BE
:103E60004DF2314000F0C8FF03214DF2324000F026
:103E7000C3FF6D214DF2334000F0BEFF00214FF42F
:103E8000554000F0B9FF33214DF2015000F0B4FF6E
:103E900000214DF2025000F0AFFF34214DF20350EB
:103EA00000F0AAFF00214DF2045000F0A5FF3A21D6
:103EB0004DF2055000F0A0FF00214DF2065000F039
:103EC0009BFF4A214DF2075000F096FF00214DF272
:103ED000085000F091FF5C214DF2095000F08CFF7A
:103EE00000214DF20A5000F087FF81214DF20B5066
:103EF00000F082FF00214DF20C5000F07DFFA62162
:103F00004DF20D5000F078FF00214DF20E5000F000
:103F100073FFE5214DF20F5000F06EFF01214DF2CD
:103F2000105000F069FF13214DF2115000F064FFB2
:103F300001214DF2125000F05FFF54214DF2135059
:103F400000F05AFF01214DF2145000F055FF82217C
:103F50004DF2155000F050FF01214DF2165000F0C7
:103F60004BFFCA214DF2175000F046FF02214DF2DF
:103F7000185000F041FF00214DF2195000F03CFFB5
:103F800002214DF21A5000F037FF01214DF21B5073
:103F900000F032FF02214DF21C5000F02DFF3421C1
:103FA0004DF21D5000F028FF02214DF21E5000F08E
:103FB00023FF67214DF21F5000F01EFF02214DF23A
:103FC000205000F019FF84214DF2215000F014FF21
:103FD00002214DF2225000F00FFFA4214DF2235098
:103FE00000F00AFF02214DF2245000F005FFB72136
:103FF0004DF2255000F000FF02214DF2265000F056
:10400000FBFECF214DF2275000F0F6FE02214DF2CB
:10401000285000F0F1FEDE214DF2295000F0ECFEB8
:1040200002214DF22A5000F0E7FEF2214DF22B5012
:1040300000F0E2FE02214DF22C5000F0DDFEFE21E8
:104040004DF22D5000F0D8FE03214DF22E5000F01D
:10405000D3FE10214DF22F5000F0CEFE03214DF281
:10406000305000F0C9FE33214DF2315000F0C4FE53
:1040700003214DF2325000F0BFFE6D214DF233505E
:1040800000F0BAFE00214FF4564000F0B5FE332197
:104090004DF2016000F0B0FE00214DF2026000F030
:1040A000ABFE34214DF2036000F0A6FE00214DF27C
:1040B000046000F0A1FE3A214DF2056000F09CFE84
:1040C00000214DF2066000F097FE4A214DF2076094
:1040D00000F092FE00214DF2086000F08DFE5C21A0
:1040E0004DF2096000F088FE00214DF20A6000F0F8
:1040F00083FE81214DF20B6000F07EFE00214DF227
:104100000C6000F079FEA6214DF20D6000F074FE07
:1041100000214DF20E6000F06FFEE5214DF20F60C0
:1041200000F06AFE01214DF2106000F065FE1321DF
:104130004DF2116000F060FE01214DF2126000F0BE
:104140005BFE54214DF2136000F056FE01214DF24A
:10415000146000F051FE82214DF2156000F04CFE1B
:1041600001214DF2166000F047FECA214DF21760A2
:1041700000F042FE02214DF2186000F03DFE0021E9
:104180004DF2196000F038FE02214DF21A6000F085
:1041900033FE01214DF21B6000F02EFE02214DF294
:1041A0001C6000F029FE34214DF21D6000F024FE59
:1041B00002214DF21E6000F01FFE67214DF21F60CC
:1041C00000F01AFE02214DF2206000F015FE84215D
:1041D0004DF2216000F010FE02214DF2226000F04D
:1041E0000BFEA4214DF2236000F006FE02214DF2E9
:1041F000246000F001FEB7214DF2256000F0FCFDC7
:1042000002214DF2266000F0F7FDCF214DF227602C
:1042100000F0F2FD02214DF2286000F0EDFDDE21FC
:104220004DF2296000F0E8FD02214DF22A6000F015
:10423000E3FDF2214DF22B6000F0DEFD02214DF294
:104240002C6000F0D9FDFE214DF22D6000F0D4FD70
:1042500003214DF22E6000F0CFFD10214DF22F60B2
:1042600000F0CAFD03214DF2306000F0C5FD33219E
:104270004DF2316000F0C0FD03214DF2326000F0DC
:10428000BBFD6D214DF2336000F0B6FD5521504667
:1042900000F0B2FDAA21204600F0AEFD52212846D2
:1042A00000F0AAFD0821304600F0A6FD00213846A6
:1042B00000F0A2FDCC21484600F09EFD00215846AA
:1042C00000F09AFD0521404600F096FD70214FF464
:1042D000374000F091FD70214BF2017000E050E09A
:1042E00000F08AFD01214FF4384000F085FD0321E4
:1042F0004BF6010000F080FD03214BF6020000F0B8
:104300007BFD03214BF6030000F076FD02214FF404
:104310003C4000F071FD00214BF6014000F06CFDC7
:1043200000214BF6024000F067FDD0214FF44940D8
:1043300000F062FD02214CF6011000F05DFD5021FD
:104340004CF6021000F058FD50214CF6031000F01E
:1043500053FD50214CF6041000F04EFD00214FF4A7
:10436000545000F049FD55214FF4685000F044FDD1
:104370004FF4885000F028FD782000F089FE4FF4BB
:10438000245000F021FD7BE14045FCD1E22000F00B
:104390001BFDC34C4FF48077276165156561DFF81D
:1043A00004831D21C8F800108026666126612561FE
:1043B000276165610220C8F80000666126612561F9
:1043C000276165610420C8F80000666126612561E7
:1043D000642000F05DFEE02000F0F6FC27616561DE
:1043E0004FF0010AC8F800A06661266125610A2025
:1043F00000F040FEE02000F0E7FC27616561C8F8AE
:1044000000B06661266125610C2000F033FE0120BA
:1044100000F0DAFC0A2000F02DFEE62000F0D4FCCB
:10442000276165612F21C8F800106661266125614A
:1044300027616561FF20C8F800006661266125617B
:1044400027616561C8F80000666126612561B020BA
:1044500000F0BAFC276165612021C8F80010666190
:1044600026612561276165614FF00009C8F8009059
:1044700066612661256127616561C8F800B06661E3
:10448000266125612761656140F21F31C8F800107F
:1044900066612661256127616561C8F800A06661D3
:1044A000266125612761656140F2DF11C8F80010BF
:1044B00066612661256127616561C8F800906661C3
:1044C00026612561B42000F07FFC2761656104202E
:1044D000C8F800006661266125612761656140F2C8
:1044E0001F41C8F80010666126612561276165617A
:1044F000C8F80090666126612561276165612E21FB
:10450000C8F8001066612661256127616561414632
:10451000C8F8009066612661256127616561C8F869
:10452000009066612661256127616561C8F8009089
:1045300066612661256127616561C1F80090666149
:1045400026612561B62000F03FFC276165610220ED
:10455000C8F80000666126612561276165614FF436
:104560000371C8F8001066612661256127616561E5
:10457000C8F8009066612661256127616561172191
:10458000C8F8001066612661256127616561152103
:10459000C8F8001066612661256127616561C8F869
:1045A000009066612661256127616561C8F8009009
:1045B000666126612561F02000F006FC27616561D7
:1045C000C8F800B0666126612561292000F0FCFB77
:1045D000D02000F0F9FB27616561C8F800906661A2
:1045E00026612561BE2000F0EFFB27616561052192
:1045F000C8F8001066612661256127616561FE21AA
:10460000C8F8001066612661256127616561414631
:10461000C8F800A066612661256127616561C8F858
:10462000009066612661256127616561C8F8009088
:1046300066612661256127616561C1F80090666148
:1046400026612561B82000F0BFFB27616561C8F8CD
:1046500000B066612661256127616561C8F800A028
:10466000666126612561BA2000F0AEFB27616561B5
:10467000C8F800A0666126612561642000F03CF85E
:104680000020FDF777FB012291020548FCF79EFF11
:104690004FF6FF70FDF738FB07B0BDE8F08F000064
:1046A000001001400C0C0140F0B5114A4FF0883069
:1046B0001060131D18600E4C00200C3420600D4952
:1046C0009015086145004D6140264E610220401E54
:1046D000C0B2FCD20648083000680E6180B20D619D
:1046E0004FF03331116019604FF6FF712160F0BD5A
:1046F000000C0140001001402DE9F0478146BE202A
:1047000000F062FB204C4FF48077276165156561EE
:10471000DFF878800521C8F80010802666612661E0
:10472000256127616561484600F0B7FF4FF06632AA
:10473000174B00F0C5FF00F083FFC8F8000066616A
:1047400026612561276165610121C8F80010666155
:104750002661256127616561FF21C8F80010666147
:1047600026612561276165610020C8F80000666147
:104770002661256127616561C8F8000066612661D0
:104780002561BDE8F0870000001001400C0C0140DD
:10479000666604402DE9F04FB04D00242946AA7901
:1047A000898841F66317012A01D01AB10CE0B94299
:1047B00002D109E0B94207D1082805D2DFE800F0AC
:1047C000161812140C19100E082812D2DFE800F087
:1047D000110406080A0C0E1080240AE0402408E0A8
:1047E000C02406E0202404E0602402E0A02400E0CD
:1047F000E02445F21056B14202D14FF4585000E087
:104800003620A1F51342413A03D0A1F5EE42893A90
:1048100001D144F00804214600F0EEFAA888B8421D
:104820000AD0A10629886A8802D5914202D303E002
:10483000914201D92A8069804FF48077DFF8208285
:104840007C004FF0000A4FF0800BB0427DD16889A8
:1048500000F0BAFAC8F81070C8F81440DFF80492F3
:10486000C9F800A05E46C8F814B0C8F810B0C8F87F
:1048700010406889401C80B200F0A6FAC8F8107099
:10488000C8F81440C9F800A0C8F81460C8F810604F
:10489000C8F810406889801C80B200F095FAC8F80A
:1048A0001070C8F814402888401E0112C9F8001082
:1048B000C8F81460C8F81060C8F810406889C01CB7
:1048C00080B200F081FAC8F81070C8F81440287857
:1048D000401EC1B2C9F80010C8F81460C8F81060D2
:1048E000C8F81040A88900F06FFAC8F81070C8F82E
:1048F0001440C9F800A0C8F81460C8F81060C8F8DF
:104900001040A889401C80B200F05EFAC8F8107010
:10491000C8F81440C9F800A0C8F81460C8F81060BE
:10492000C8F81040A889801C80B200F04DFAC8F881
:104930001070C8F814406888401E0112C9F80010B1
:10494000C8F81460C8F8106000E014E0C8F810401F
:10495000A889C01C80B200F037FAC8F81070C8F8F7
:104960001440A878401EC1B2C9F80010C8F81460FD
:10497000C8F810606DE0A946688900F025FAC8F80B
:104980001070C8F81440374EC6F800A05D46C8F84D
:1049900014B0C8F810B0C8F81040C8F81070C8F8C3
:1049A0001440C6F800A0C8F814B0C8F810B0C8F891
:1049B0001040C8F81070C8F81440B9F80000401E44
:1049C00001123160C8F814B0C8F81050C8F810408F
:1049D000C8F81070C8F81440C0B23060C8F814505D
:1049E000C8F81050C8F81040B9F80C0000F0ECF905
:1049F000C8F81070C8F81440C6F800A0C8F81450E1
:104A0000C8F81050C8F81040C8F81070C8F8144022
:104A1000C6F800A0C8F81450C8F81050C8F81040E4
:104A2000C8F81070C8F81440B9F80200401E01120E
:104A30003160C8F81450C8F81050C8F81040C8F8D1
:104A40001070C8F81440C0B23060C8F81450C8F8EC
:104A50001050C8F81040BDE8F08F00006000002042
:104A6000001001400C0C01402DE9F04F804A4FEA44
:104A70001129CDB293881146060A7E4CDFF8F8A1C1
:104A80004989A3F5C85C00F0FF084FF480774FF424
:104A9000007BBCF1630C30D0A3F5AA401038084667
:104AA0007ED000F091F9A01520615F46C4F814B0E3
:104AB000CAF80060802666612661C4F810B02061E3
:104AC000C4F814B0CAF8008066612661C4F810B05A
:104AD0006748808900F078F9A01520616761CAF8FD
:104AE000009066612661276120616761504605601C
:104AF000666126612761BDE8F08F5D4A9279002AE0
:104B000056D0084600F060F927615846C4F814B042
:104B10005246CAF80060802161612161C4F810B07A
:104B20002761C4F814B0CAF8008061612161C4F83B
:104B300010B02761C4F814B04D4B1B885B1E1E12C9
:104B4000166061612161206127616061DBB21360E1
:104B5000616121612061464EB08900F035F927611D
:104B60005846C4F814B05246CAF8009080216161DA
:104B70002161C4F810B02761C4F814B0CAF800501D
:104B800061612161C4F810B02761C4F814B0738862
:104B90005B1E1D121560616121612061276100E0CB
:104BA00031E06061DBB21360616121612061A2E7E5
:104BB0002F4A1288101A401E86B2084600F004F9E7
:104BC00027615846C4F814B000235246CAF8003092
:104BD000802161612161C4F810B02761C4F814B06C
:104BE000CAF8003061612161C4F810B02761C4F8CF
:104BF00014B0330ACAF80030616121612061276175
:104C00006061F3B2A3E700F0DFF84FF48070206139
:104C10005F46C4F814B0CAF8006080266661266159
:104C2000C4F810B012484089401C80B200F0CCF8A3
:104C3000700020616761CAF80080666126612761A3
:104C40000B48808900F0C0F8700020616761CAF8E5
:104C5000009066612661276105488089401C80B20A
:104C600000F0B2F870002061676150463FE7000035
:104C700060000020001001400C0C01402DE9FF4FA6
:104C80001D460C468A46580700D0012000EBD5008F
:104C900069084843203A00F0FF09D0B20026DFF847
:104CA0009CB0029045E00C2D12D0102D15D0182D7F
:104CB00041D10298224900EBC00000BF01EB800007
:104CC0004FF00008875D38060CD51E4802880DE0BD
:104CD00002981D4900EB4000F0E71C49029801EBE7
:104CE0000010EDE70D9828B9164842882146009833
:104CF000FDF79CF87806070E641CBBF80200A4B20E
:104D0000A04218D9A4EB0A00A84209D10098544641
:104D1000401C80B20090BBF8001081420BD906E025
:104D200008F1010000F0FF08B8F1080FCBD3761CA2
:104D3000F6B24E45B7D3BDE8FF8F000060000020FB
:104D40003C63000814000020D85800084C5D00089F
:104D50002DE9F84F044600F0FF0910190D46DDE972
:104D60000AB61FFA80F8581987B24FF0000A12E00D
:104D7000444503D305EB0B004C4685B2BD420FD230
:104D80005B4629462046CDF800A0FFF777FF04EBED
:104D90005B0084B2761C3278A2F120005E28E7D94D
:104DA000BDE8F88F06494FF480720A614A154A61DE
:104DB000044B18608020486108610A617047000058
:104DC000001001400C0C014006494FF480724A610A
:104DD0004A154A61044B18608020486108610A61E5
:104DE00070470000001001400C0C01400148008990
:104DF000FFF7EABF6000002010B50C46FFF7E4FFA4
:104E000006484FF48071016141154161044A146004
:104E1000802242610261016110BD0000001001406A
:104E20000C0C01402DE9F04186B000241C48009490
:104E3000019402940394816941F0200181618169A8
:104E400001F020010491816941F0040181618069D0
:104E5000144F00F004004FF480750490002229469E
:104E60003846FCF7B3FBDFF84080002204214046BF
:104E7000FCF7ACFB0095022601250396CDE9015411
:104E800069463846FCF79EFA0420CDE90005CDE9D5
:104E9000024669464046FCF795FA06B0BDE8F08147
:104EA0000010024000080140001401400C4810B5F9
:104EB0000A4901604FF4E1314160002181600C2218
:104EC000C160C0E904128161C161FCF7B1FE002834
:104ED00003D0BDE81040FCF760BA10BD00380140B7
:104EE0001C000020FEE7FEE770477047FCF77ABB26
:104EF00030B58FB028216846FBF7A2FA14210AA822
:104F0000FBF79EFA01210804CDE900100024029469
:104F100002250491CDE907504FF4E010099068464E
:104F2000FCF7D6FC08B172B6FEE70F20CDE90A0502
:104F30004FF48060CDE90C4002210AA80E94FCF7E2
:104F4000DBFB002801D072B6FEE70FB030BD704722
:104F500070B5044600680169E26821F440511143CC
:104F600001612169A0680843616908432168CA6832
:104F700041F20C639A430243CA6020684169A26906
:104F800021F44071114341611E492068884202D1D9
:104F9000FCF758FC01E0FCF745FC00EBC00101EB1D
:104FA0000012606864218000B2FBF0F3B3FBF1F300
:104FB0006FF018067343B2FBF0F5B2FBF0F605EBA9
:104FC0008305322303EB0515B5FBF1F5B6FBF1F6CE
:104FD00005F0F00505EB0615B2FBF0F6B2FBF0F0BC
:104FE000B0FBF1F06FF01802504306EB800003EBCA
:104FF0000010B0FBF1F0216800F00F002844886039
:1050000070BD000000380140FEE7490050EAC120B1
:1050100018BF04204A0D18BF40F0010040F2FF7293
:10502000B2EB515F08BF40F00200012808BF052025
:1050300070470907090E002804DB00F1E02080F822
:105040000014704700F00F0000F1E02080F8141DFC
:10505000704730380A2801D201207047002070477D
:1050600010B504460420FCF7C3FD0148046010BDE0
:105070001800002070B5054600244FF47A7603E04E
:10508000304600F005F8641CAC42F9D370BD000056
:1050900070B54FF0E024002265690949A3690968E9
:1050A0004843A1699942FCD002D2A3EB010302E07C
:1050B000A5EB010633441A440B468242F1D370BD7E
:1050C000180000202DE9F04F0C4606464FF4807B77
:1050D000A3B0002259464A48FCF778FA802102A87A
:1050E000FBF7AEF9DFF81CA1474DDFF820914FF632
:1050F000FF774FF47848052E5DD2DFE806F0031401
:1051000025384A00FCF768FA00F0C7FA0022534637
:1051100000F03EF902460B463DA102A80094FBF7C1
:1051200085F82F8047E0FCF757FA00F0B6FA002226
:10513000534600F02DF902460B4638A102A8009410
:10514000FBF774F81F2010E0FCF746FA00F0A5FA10
:105150000022534600F01CF902460B4632A102A879
:105160000094FBF763F84FF6E070288023E0FCF72B
:1051700033FA00F092FA0022534600F009F9024691
:105180000B462CA102A80094FBF750F8A5F800806C
:1051900011E0FCF721FA00F080FA0022534600F0FB
:1051A000F7F802460B4626A102A80094FBF73EF84A
:1051B0002F80A9F80080254C02A90C20CDE9000120
:1051C00020880A2101EB001081B21023DC220A2082
:1051D000FFF7BEFD02A8FBF714F92521B0FBF1F0A3
:1051E000216801220844401C20600021A9F8001019
:1051F00059460348FCF7EAF923B0BDE8F08F0000F8
:105200000008014000408F401400002016000020DC
:1052100025372E33665B565D2025730025372E33E8
:10522000665B445D2025730025372E33665B575D32
:105230002025730025372E33665B455D20257300DE
:1052400025372E33665B465D202573000000002065
:10525000FCF7D0F9FFF74CFEFFF7E4FDFFF726FE61
:105260004820FFF7FDFEFCF7C1FEFCF773FD0020B0
:10527000FCF74AFD18490020088018A10120FFF71B
:1052800021FF1B4D002204212846FCF79FF9012233
:1052900011021848FCF79AF917A10220FFF712FF34
:1052A00000244FF47A7604212846FCF787F9102C65
:1052B00003D0641C0D2C06D009E017A10320FFF7D2
:1052C00001FF112403E01EA10420FFF7FBFE30467E
:1052D000FCF766F8E7E70000160000204C43442086
:1052E000626F6F7420636F6D706C65746500000091
:1052F0000014014000080140445331204C45442033
:105300006973206F6E2E20436865636B2073746130
:105310007475732E000000004D696C74692D6C6902
:105320006E65206C6F6E67206D65737361676520B5
:1053300068616E646C696E67207465737400000048
:105340004552524F523A20446F6E27742077616E57
:105350007420746F20776F726B20616E79206D6F8F
:105360007265000010B500290AD00878002807D01F
:1053700005487844FBF700FC002801D0002010BD50
:105380000248784410BD0000DA1D0000D21D000064
:105390002DE9C04130B4DFF8A0C23CEA111418BFB7
:1053A0003CEA131400F0EC8081EA03051CEA1114B6
:1053B00044EAD57418BF1CEA131500F0C780A4EBAB
:1053C00005044FF0004545EAC12145EAC32341EAFF
:1053D000505143EA525304F17F74994204F500346A
:1053E0004FEAC0204FEAC22208BF904200F09C80E2
:1053F0004FEA13650FF24016765D4FEA134506FB40
:1054000005F7C7F1807706FB07F74FEAD737A7FB09
:1054100003687642C8F58038A7FB06CE38BFA8F1EE
:10542000010807FB08E64FF0000EA6FB028CE6FB26
:1054300003CEDCF1000CCEF1004E38BFAEF1010E10
:10544000A6FB0C584FF000074FF00005E6FB0E8757
:10545000A1FB08C6A0FB07CE16EB0E0645F1000522
:10546000E1FB076515F1E04E7EBFA4F580345FEAED
:1054700046066D4116F1800745F100054FEA1727F2
:105480004FEA066647EA0567A6F1DE46B6F1805F99
:105490004FEA15251FD9384624F0010C05EBC471DD
:1054A000BCF1FE6F01EB0C1102D8F0BCBDE800812D
:1054B00024425CBF01F5801E9EEAC47F02D4F0BC8A
:1054C000BDE80081244238D4F0BCA1F1C041BDE860
:1054D000004100F0EDB94FEAD22242EA43524FEACE
:1054E000D323A7FB02864FEAD02040EA415007FBB6
:1054F00003661EEA0E0F4FEAD12105FB026658BF74
:10550000A6EB0056B6EB00564FEA520E4EEAC37EAB
:1055100018EB0E0E56EB530EBDD518EB02085E418C
:105520007F1C55F10005B6E74FF480154FF00007DA
:105530004FF000064FF00008ADE7F0BC4FF0000060
:1055400001F1C04101F00041BDE8008111EA0C1FEA
:105550000CEA131500D00CE013EA0C1F00F02580B4
:105560004FF00000F0BC81EA030101F00041BDE80A
:105570000081F0BCBDE8004181EA030100F098B968
:10558000F0BCBDE8004170B500F044F9097EFC3E76
:1055900000F007B881EA03014FF0000001F000417C
:1055A000704781EA030100F083B9F0BCBDE8004117
:1055B0004FF0000021497047FFFDFBF9F7F5F4F2C9
:1055C000F0EEEDEBE9E8E6E4E3E1E0DEDDDBDAD89E
:1055D000D7D5D4D3D1D0CFCDCCCBCAC8C7C6C5C4FC
:1055E000C2C1C0BFBEBDBCBBBAB9B8B7B6B5B4B313
:1055F000B2B1B0AFAEADACABAAA9A8A8A7A6A5A4FE
:10560000A3A3A2A1A09F9F9E9D9C9C9B9A999998C1
:105610009797969595949393929191908F8F8E8E64
:105620008D8C8C8B8B8A89898888878786858584F1
:1056300084838382828181800000FF070000F87FDD
:105640004FEA1153A3F58063D3F11E03A8BFD3F132
:10565000200C08DB4FF0004242EAC12252EA5052CD
:1056600032FA03F0704709420BD4102BC4BF00205C
:10567000704703F5787CBCF1FF3F05D04FF0FF3059
:1056800070474FF00000704770B500F0C3F800BFDE
:105690004992248000207047F0E7B0FA80F310FAB6
:1056A00003F10AD0C3F11D0303F580634FEA4150B3
:1056B0004FEA035202EBD12170474FF000007047D0
:1056C000DFF848C170B51CEA111E1EBF1CEA131595
:1056D0009EEA0C0F95EA0C0F00F06F8081EA03043C
:1056E00023EA4C134EEAD47E21EA4C1141F4801196
:1056F00043F48013AE44A1FB024CA0FB0365AEF162
:105700007F7E361955EB0C05A1FB034C4CF10003D1
:10571000A0FB021C16EB0C06654153F10003094285
:1057200018BF46F0010613F4007F0BD14FEA033196
:105730004FEA0530340341EA155140EA16506FF044
:1057400003020AE04FEAC3214FEAC520F40241EA0E
:10575000555140EA56506FF0020202EB2E4201EB27
:10576000025585EACE710AD05FEA440C18BF24F0D6
:10577000004450F1000041F1000120EAD47040F2F1
:10578000FE7C624500D270BDA84214BF4FF0804439
:105790004FF04044002E08BF0024BEF1806FA8BF28
:1057A000A1F1C041BDE8704080F282804FF000005E
:1057B00001F1C04101F0004170479EEA0C0F0CEA74
:1057C000131518BF95EA0C0F06D04FF0000081EAC0
:1057D000030E0EF0004170BD00F01CF88900013E80
:1057E00000F007B800F009B84FEA430C5FEA5C5CD0
:1057F00008D081EA030100F05BB84FEA410C5FEA90
:105800005C5CF6D14FF00000014970470000FF07D3
:105810000000F87F0EF1020E2EF0030E5EF8046B0E
:10582000364205D4012A43EB030515F5001F12D8B3
:10583000012841EB010C1CF5001F0CD80ED14FEADA
:10584000D17C15F5001F0CEB4C0C0CF1020C08BFC1
:105850004CEBD37C04E04FF0080C01E04FEAD37C22
:105860000CEB4C0526FA05F606F00706B6F1040C1B
:1058700006D20EEB860CBDE870404CF0010C604780
:10588000DFE80CF0090B02024FF000414FF000007E
:10589000A1F5002170BD19461046012851EB010405
:1058A00018BFD4F5001484BF002001F0004170BD82
:1058B0000808A0F500114FEA31017047FAF7C3BE9E
:1058C00000000000000000000102030406070809B0
:1058D00000000000010203040000000000000000BE
:1058E00000000000000000003F4000000000000039
:1058F00000003000400030004000000009000BC0F4
:105900003D000BC03D00090018C024407FE022404C
:1059100031800000180024C01B000D80324001803F
:1059200003801C4027401C8007400040100060009E
:1059300000000000000000000000000000001F80C8
:10594000204040200000402020401F800000000038
:10595000090006001F800600090000000400040082
:105960003F80040004000000001000600000000000
:105970000000000004000400040004000400000013
:10598000000000400000000000000000002001C0F6
:1059900006003800400000001F80204020402040CA
:1059A0001F800000000010403FC0004000000000C9
:1059B00018C02140224024401840000010802040A0
:1059C000244024401B80000002000D0011003FC055
:1059D000014000003C8024402440244023800000FB
:1059E0001F80244024403440038000003000200009
:1059F00027C03800200000001B80244024402440A1
:105A00001B8000001C0022C0224022401F8000009A
:105A1000000000000840000000000000000000003E
:105A20000460000000000000000004000A001100F3
:105A30002080404009000900090009000900000019
:105A400000004040208011000A00040018002000DF
:105A500023402400180000001F80204027402940D8
:105A60001F400000004007C039000F0001C0004087
:105A700020403FC0244024401B8000001F80204065
:105A8000204020403080000020403FC02040204087
:105A90001F80000020403FC024402E4030C0000046
:105AA00020403FC024402E00300000000F00108036
:105AB000204022403380020020403FC00400040008
:105AC0003FC02040204020403FC0204020400000F8
:105AD0000060202020203FC02000200020403FC048
