:020000040800F2
:1000000050070020ED010008AB500008FB1D000860
:10001000A9500008DB13000831520008000000005E
:10002000000000000000000000000000AF500008C9
:10003000DD13000800000000AD500008B1500008BA
:10004000070200080702000807020008070200086C
:10005000070200080702000807020008070200085C
:10006000070200080702000807020008070200084C
:10007000070200080702000807020008070200083C
:10008000070200080702000807020008070200082C
:10009000070200080702000807020008070200081C
:1000A000070200080702000807020008070200080C
:1000B00007020008070200080702000807020008FC
:1000C00007020008070200080702000807020008EC
:1000D00007020008070200080702000807020008DC
:1000E00007020008070200080702000807020008CC
:1000F00007020008070200080702000807020008BC
:1001000007020008070200080702000807020008AB
:10011000070200080702000807020008070200089B
:10012000070200080702000807020008070200088B
:1001300000F002F800F04AF80AA090E8000C8244AF
:100140008344AAF10107DA4501D100F03FF8AFF28C
:10015000090EBAE80F0013F0010F18BFFB1A43F0A5
:1001600001031847C4720000E4720000103A24BF73
:1001700078C878C1FAD8520724BF30C830C144BF0C
:1001800004680C607047000000230024002500264E
:10019000103A28BF78C1FBD8520728BF30C148BFEA
:1001A0000B607047662905F00785732900F0D3833B
:1001B000002070471FB500F0D3FB04000020002191
:1001C00005F04EFAE0601FBD10B510BD00F0C8FC90
:1001D0001146FFF7EFFF05F099F900F0E6FC03B4D4
:1001E000FFF7F2FF03BC00F029FD0000094880473B
:1001F00009480047FEE7FEE7FEE7FEE7FEE7FEE709
:10020000FEE7FEE7FEE7FEE704480549054A064B20
:100210007047000013510008310100085001002010
:100220005007002050030020500300200FB41CB5DD
:10023000074B06AA7B4469460090059800F061FBD5
:100240000020694600F070FB1CBC5DF814FB000048
:10025000F106000070B5044685690068C10601D545
:10026000302600E02026C00707D070BDD4E9012168
:1002700030469047206A401C20626D1EF6D570BD46
:1002800070B5044685690078C00707D170BDD4E910
:10029000012120209047206A401C20626D1EF6D567
:1002A00070BD70B50C460546012A05D02878800639
:1002B00000D5EA69002302E0012305E05B1C9342BC
:1002C00002D2E05C0028F9D1A869E618C01AA8613A
:1002D000286A184428622846FFF7BCFF04E0D5E9E5
:1002E000012114F8010B9047B442F8D32846FFF7D8
:1002F000C7FF70BD2DE9F0474FF0000A894604465C
:10030000C0F820A02046E1688847002876D025283C
:1003100006D0D4E901219047206A401C2062F1E711
:10032000E168204600258847C4F81CA0064600273F
:10033000C4F818A02A2E09D0304604F09EFF38B326
:1003400004EB8708303EC8F8186019E059F8041B20
:10035000204604EB87029161E1688847012F064639
:1003600018D1E069002820DA25F020051DE0D8F832
:10037000180000EB800006EB40003038C8F8180089
:100380002046E1688847064604F077FF0028EED152
:10039000012F0AD02E2E08D12046E16888477F1C05
:1003A0000646022F45F02005C4DBA069002803DAC9
:1003B000404245F00105A061E80701D025F0100595
:1003C000B6B1A6F14100192802D8203645F40065DF
:1003D0004A463146204625604D46FFF7E3FE58B1B8
:1003E000012806D0ED1D25F0070000F1080989E776
:1003F00004E005F1040985E730468AE7206ABDE894
:10040000F08710B5431C02E010F8011B71B18107A1
:10041000FAD14FF0013202C88C1A8C4314EAC2118F
:10042000F9D0C01A0A0603D0C01E10BDC01A10BDF4
:100430000A0401D0801E10BD0902FCD0401E10BD70
:100440004FF000020429C0F0128010F0030C00F0FD
:100450001B80CCF1040CBCF1020F18BF00F8012B7B
:10046000A8BF20F8022BA1EB0C0100F00DB85FEA49
:10047000C17C24BF00F8012B00F8012B48BF00F815
:10048000012B70474FF0000200B513469446964684
:10049000203922BFA0E80C50A0E80C50B1F1200197
:1004A000BFF4F7AF090728BFA0E80C5048BF0CC045
:1004B0005DF804EB890028BF40F8042B08BF7047A3
:1004C00048BF20F8022B11F0804F18BF00F8012B15
:1004D000704770477047704770472DE9FF4F0C46D3
:1004E0001E464FF0FF378BB0D2E90001DDF8608087
:1004F0000A908A46C1F30A5505B93D4600210846CF
:100500004FF00000BAF1000F00F4400005DA00EBF4
:1005100080004FF4400101EA50004FEA9059B9F1D0
:10052000010F00DDB9460A9850EA4A000ED044F6A1
:100530001050A5F2FF3545432F14B8F1000F1ED01F
:100540007542291E1EDDC9F100021CE0B8F1010F41
:100550004FF0000001D0302103E0F24305E02154C8
:10056000401CB042FBDB30460022002121540B9995
:10057000C1F80880C1E900200FB0BDE8F08FBD1BB5
:100580006D1CDEE74A4600DA694206A800F072FAFE
:1005900006AB93E8070003AB83E8070050460A99CF
:1005A00000F053FB8DE80700A0F500501F380090C5
:1005B0000398002D0ADD42F21F014A460844002339
:1005C00003A90390684600F0BCFD09E0A0F50050C7
:1005D0004A461F38002303A90390684600F0C6FD71
:1005E0008DE807000004000C03D04FF0FF304108F5
:1005F00000E01046B8F1000F03D00022009215462B
:100600001EE0751E05D400F0AFF9303262556D1E44
:10061000F9D5B3460122084302D000227F1C04E032
:100620002078302801D100227F1E002A099784D02B
:100630001DE0112D07DA00F097F9303262556D1C7C
:1006400050EA0102F5D1084302D00098C8B10EE08B
:100650000021681E05E0235C625C63542254401E46
:10066000491C8142F7DBAB46A81B401E09900020C5
:1006700004F80B000B98099AC0F80880C0E9002B19
:100680007AE711264FF0000857E72DE9F04F88462A
:100690000446D21D22F0070191B0D1E90001CDE955
:1006A0000A0104F0C6FD02460B98C00F01D02D20B0
:1006B00007E02068810701D52B2002E0202101EA14
:1006C000C000032A099001D0072A05DB03464146F2
:1006D000204600F08FF90BE12078800601D5E06913
:1006E00000E00620B8F1650F814606D0B8F1660F2C
:1006F00018D0B8F1670F70D131E00020B9F1110FB7
:10070000009001DB112301E009F101030AAA01A90C
:100710000CA8FFF7E2FEDDE90C70002609F10105E7
:10072000834647E001204B4600904FF000470AAA5D
:1007300001A90CA8FFF7D1FEDDE90DB00C995D46CB
:10074000002610B909F101000D18B9EB050003D41A
:10075000C0F1FF3609F10105A5EB09002BE0B9F165
:10076000010F01DA4FF001090020B9F1110F0090DB
:10077000484601DD112300E003460AAA01A90CA89E
:10078000FFF7ABFEDDE90C704D460026834620786E
:1007900000070AD4AB4500DA5D4601A8012D04DD4F
:1007A000411911F8011C302907D04F4502DA17F121
:1007B000040F04DA012082460FE06D1EEEE7002FE1
:1007C00002DCED1B3E4403E0781CA84200DD7D1CEA
:1007D000B81B00F1010A4FF000472078000703D44E
:1007E000AA4501DB4FF0FF3A0021B7F1004F0DF1B0
:1007F00043088DF8431024D002202B23002F01DA68
:100800007F422D230A21021EA0F1010000DC5FB10E
:1008100097FBF1FC97FBF1F201FB1C7C17460CF1F6
:10082000300C08F801CDEEE7A8F101000370218833
:10083000090501D5452100E06521A0F1010800F876
:10084000011C09980FA9A1EB0807FF1D00B10120A9
:10085000411901EBEA70A1693844081A401EA061F1
:100860002078C00602D42046FFF7F4FC099828B18E
:10087000D4E901219047206A401C20622078C006FC
:1008800022D52046FFF7E6FC1EE0002E04DBB34530
:1008900002DD01A8805D00E03020D4E9012190470D
:1008A000206A401C2062761CAAF101005FEA000A5F
:1008B0000AD100F055F8C0680168405CD4E9012114
:1008C0009047206A401C2062281EA5F10105DCDC4F
:1008D00007E0D4E9012118F8010B9047206A401C79
:1008E0002062381EA7F10107F3DC2046FFF7C8FCA1
:1008F000032011B041E6000001694A1C026108783A
:10090000704700B58FB0CDE901310021059105494F
:100910007944CDE9031011466846FFF7EBFC0FB0B0
:1009200000BD0000E5FFFFFF0A6802F8010B0A6046
:10093000704710B5436913B1AFF3008001E0FFF7D2
:10094000B0FC012010BD127800F124010A700022D1
:100950004A700122EDE711684FF0FF32E9E700002D
:10096000004870471001002030B5B0F10A024FEA8C
:10097000900E71F100034EEA817EB0EB0E0061EB48
:1009800091014FEA101E4EEA017E10EB0E0041EB82
:1009900011114FEA102E4EEA016E10EB0E0041EBE2
:1009A00011214FEA104E4EEA014E10EB0E0041EBC2
:1009B0001141401841F100014FEAD00040EA417076
:1009C0004FEAD10110EB80054FEA810444EA9074AC
:1009D00044EB01046D1944EB0404521BA3414FF096
:1009E000000348BF0A3200D530BD401C41F1000170
:1009F00030BD00002DE9F0411F4604460326016882
:100A0000072A01F4006004DB08B116A505E016A56D
:100A100003E008B115A500E015A521F01000206045
:100A2000A069C01EA0610FB1401EA0612046FFF763
:100A300011FC4FB1D4E9012138469047206A401C8F
:100A40002062C01C206206E0206AFAE7D4E9012196
:100A500015F8010B9047761EF8D22046FFF710FCE0
:100A6000BDE8F0814E414E006E616E00494E460079
:100A7000696E66002DE9F047814616468AB0354812
:100A800078440DC88DE80D0032487844801C03ACD2
:100A90000DC884E80D0041F69B300844372190FBD7
:100AA000F1F290FBF1F5A5F1800501FB12041B3C6E
:100AB00002D56442012000E00020DFF898A08046C3
:100AC0000027FA44AAF1BE0A0EE0E0070AD0324637
:100AD000684607EB470101230AEB810100F046FB62
:100AE0008DE8070064107F1C002CEED1194F7F4465
:100AF000AE3F19E0E80715D007EB04100DF1180A16
:100B000090E80E008AE80E00C068F04201D1981902
:100B100008903246012306A903A800F027FB03AB87
:100B200083E807006D10641C002DE3D14FF0010332
:100B300032466946B8F1000F03A802D000F001FB6D
:100B400001E000F013FBC9E90001C9F808200AB070
:100B5000BDE8F0878C69000000487047F000002075
:100B60007546FFF7F9FFAE4605006946534620F08B
:100B70000700854618B020B5FFF746FBBDE82040CA
:100B80004FF000064FF000074FF000084FF0000B49
:100B900021F00701AC46ACE8C009ACE8C009ACE8FC
:100BA000C009ACE8C0098D46704710B50446AFF3E4
:100BB00000802046BDE81040FFF711BB4FF0013C1C
:100BC00050F8042B51F8043B9A4221D1A2EB0C03BC
:100BD000934313EACC1317D150F8042B51F8043B7C
:100BE0009A4215D1A2EB0C03934313EACC130BD119
:100BF00050F8042B51F8043B9A4209D1A2EB0C03A4
:100C0000934313EACC13DBD04FF00000704700BFD2
:100C1000D01A01BAB1FA81F101F0180122FA01F0FB
:100C2000CB40C1F12001DBB2C0B2C01A2CFA01F3F3
:100C3000D11A914311EAC311E6D170470149182036
:100C4000ABBEFEE72600020070475FEA400C08BF1B
:100C500091F0000F4FEA8C234FEAC12243EA515131
:100C60004FEA1C5018BF00F5F0404FEA300018BFA3
:100C700041F000415FEA6C5C00F02980BCF1FF3F6D
:100C800008BF40F080407047130C06BF12044FF0BD
:100C9000100C4FF0000C130E04BF12020CF1080CE4
:100CA000130F04BF12010CF1040C930F04BF920048
:100CB0000CF1020CD30F04BF52000CF1010C1146D1
:100CC0004FF00002A0F11F00A0EB0C00704711F0E4
:100CD000004F08BF704731F000413FF4D5AF0B0C17
:100CE00006BF09044FF0100C4FF0000C0B0E04BFB0
:100CF00009020CF1080C0B0F04BF09010CF1040CE4
:100D00008B0F04BF89000CF1020CCB0F04BF49000C
:100D10000CF1010CCCF12003A0EB0C0022FA03F340
:100D200002FA0CF241EA030100F10100704720F0E1
:100D30007F4C80EA030023F07F47ACEB070303F509
:100D40007C5300F0004003F1FF032DE980494FEA96
:100D5000154B09B44FEA144325EA0B4E24EA034825
:100D60000FF2042606EB132749083E785FEA3202A9
:100D700003FB0667C7F5000707FB06F64FEA543783
:100D80004FEAD64606F1020607FB066CCCF1005C82
:100D90004FEA1C472CEA074C07FB06F40CFB06F550
:100DA00004EB15464FEA961634BF00204FF0004082
:100DB0004FEAD13706FB07FC4FEA1C4C0CFB0BF744
:100DC000D21B03FB0CF761EB07010CFB0EF7B0EB3A
:100DD000074072EB17420CFB08F734BFA2EB074247
:100DE000B2EB074261EB17414FEA0C444FEA91071F
:100DF00006FB07FC4FEA1C4C0CFB0BF7B0EBC740A3
:100E000072EB573203FB0CF734BFA2EBC742B2EBD5
:100E1000C74261EB57310CFB0EF7B0EBC70072EB2A
:100E200057720CFB08F734BFA2EBC702B2EBC70244
:100E300061EB5771039F4FEA816141EA921104EB24
:100E4000CC044FEAD1374FEA826206FB07FC42EA44
:100E500090124FEA80604FEA1C4C0CFB0BF7D21B40
:100E600003FB0CF761EB07010CFB0EF7B0EB07403F
:100E700072EB17420CFB08F734BFA2EB0742B2EB50
:100E8000074261EB17414FEA8C554FEA910704EB9B
:100E90009C2406FB07FC4FEA1C4C0CFB0BF7B0EB49
:100EA000C74072EB573203FB0CF734BFA2EBC742CB
:100EB000B2EBC74261EB57310CFB0EF7B0EBC7004A
:100EC00072EB57720CFB08F734BFA2EBC702B2EB10
:100ED000C70261EB577115EB4C254FEA816141EA7E
:100EE00092114FEA82624FEAD13742EA901206FB32
:100EF00007FC44F100044FEA80604FEA1C4C0CFBF5
:100F00000BF7D21B03FB0CF761EB07010CFB0EF791
:100F1000B0EB074072EB17420CFB08F734BFA2EBB3
:100F20000742B2EB074261EB174115EB1C154FEA84
:100F3000813141EA92414FEA823242EA90424FEADD
:100F400080304FEA0C7644F1000448EA03434EEA4D
:100F50000B484FF0000EB2EB080C71EB030724BFF7
:100F6000624639464EEB0E0E4FF0000B0018524110
:100F700049414BEB0B0BB2EB080C71EB03077BF118
:100F8000000B24BF624639464EEB0E0E4FF0000BAD
:100F90000018524149414BEB0B0BB2EB080C71EBC3
:100FA00003077BF1000B24BF624639464EEB0E0E61
:100FB00051EA020718BF46F0010616EB0E7655F10E
:100FC000000254F1000103D5BDE88901BDE80088A5
:100FD000BDE88901BDE80048B619524141EB010165
:100FE000A3F10103704780807F7E7D7C7B7A7978D6
:100FF000777676757473727171706F6E6E6D6C6CDE
:101000006B6A6A696868676666656464636362617F
:101010006160605F5F5E5E5D5D5C5C5B5B5A5A5900
:10102000595858575756565555555454535352526C
:101030005251515050504F4F4F4E4E4D4D4D4C4CC4
:101040004C4B4B4B4A4A4A4949494848484747470D
:10105000474646464545454444444443434343424A
:10106000424242414141002B9C4630D477002BD074
:101070001CB54FEA370703B44FF010004FF01001D2
:10108000BAF1000F06D0BCF1000FDCBF40F0080041
:1010900040F008014FF000000FBCBDE810400BF11C
:1010A000010BBBF1010F08BF5FEA170722BF12F166
:1010B000010211F101014FF0004143F1000300F082
:1010C000004043EA00007047F9D35708D0E746EAEA
:1010D000064613F1400F4FEA16461FDD13F1200FAD
:1010E000DFBF16430A46002120335B42BED0C3F166
:1010F000200746EA064602FA07F74FEA164646EA8E
:101100000706C3F1200722FA03F201FA07F721FAD2
:1011100003F14FF0000342EA0702A7E746EA02069E
:1011200046EA06464FEA164646EA0106BCBF46EACC
:101130000646360C4FF000034FF000024FF000015E
:1011400094E72DE9804C9A46934670B491E83800B4
:1011500007C831EA400C48BF34EA430C03D5FFF717
:10116000E6FDFFF780FFF0BCBDE8008C2DE9804C68
:101170009A46934670B491E8380007C810F0804F43
:1011800008BF13F0804F03D100F005F8FFF76BFFA5
:10119000F0BCBDE8008C20F07F4780EA030023F01C
:1011A0007F4C07EB0C03A3F57C5300F00040A3F148
:1011B000FE0392F0000F00F0B38095F0000F00F0F6
:1011C00077802DE901494FEA11404FEA144621EAA0
:1011D000004800FB06FC24EA064708FB06F607FB6E
:1011E00008F800FB07F718EB06484CEB164C4FEAE3
:1011F000124B18EB07484FEA15464CEB174022EA12
:101200000B4E0BFB06FC25EA06470EFB06F607FB1A
:101210000EFE0BFB07F71EEB064E4CEB164C4FF089
:1012200000061EEB074E4CEB174B18EB0B0840F17A
:10123000000018EB0E0B58EB000840F100008F1A6D
:101240004FF000013CBFC943661B14BFB5EB040C53
:1012500000213CBFC943F61B4FEA17444EEA8E0EED
:1012600027EA04454FEA1C4704FB07622CEA074CB7
:1012700005FB07F70CFB05F604FB0CFC16EB074619
:1012800042EB174216EB0C4642EB1C421BEB0606E8
:1012900058EB0202414146EA9E0601D5BDE80189AC
:1012A000B619524141EB0101A3F10103BDE80189E7
:1012B0004FEA14454FEA114724EA054621EA074C54
:1012C00005FB07F406FB07F70CFB06F105FB0CFC1E
:1012D00011EB074144EB17444FEA124711EB0C4165
:1012E00044EB1C4422EA074C05FB07F206FB07F718
:1012F0000CFB06F605FB0CFC16EB074642EB17420F
:1013000016EB0C4642EB1C456A1854F1000148BF2D
:101310007047B619524141EB0101A3F10103704737
:1013200095F0000F37D04FEA11424FEA144721EAF7
:10133000024624EA074C02FB07F106FB07F70CFB09
:1013400006F402FB0CFC14EB074441EB17414FEA97
:10135000154714EB0C4441EB1C4125EA074C02FBFA
:1013600007F506FB07F70CFB06F602FB0CFC16EB79
:10137000074645EB174516EB0C4645EB1C42121988
:1013800051F1000148BF7047B619524141EB0101CC
:10139000A3F1010370474FEA14454FEA114724EACD
:1013A000054621EA074C05FB07F106FB07F70CFB96
:1013B00006F24FF0000605FB0CFC12EB074241EB76
:1013C000174112EB0C4251EB1C4148BF7047921879
:1013D00041EB0101A3F101037047FEE7704772B6CC
:1013E000FEE7000070B5044600F018F90546601CE1
:1013F00002D004480078044400F010F9401BA042D9
:10140000FAD370BD040000202DE9F84FDFF8C89131
:10141000002409F1040A0AF1040B23460F270BF1FB
:10142000040ED1E00125A54006EA0502AA4276D1C4
:10143000DFF8A8C14E68A6EB0C0866452BD00DDC82
:10144000032E34D005DC36B3012E19D0022E2FD155
:101450001BE0112E16D0122E2AD119E0B8F5881FE4
:1014600019D006DCB8F5803F15D0B8F5801F1FD124
:1014700011E0B8F5001F0ED0B8F5041F18D10AE02E
:10148000CB6815E0CB681B1D12E0CB6808330FE07A
:10149000CB680C330CE08B682BB1012B4FF00803A9
:1014A00003D0456104E0042302E0056100E000236D
:1014B000FF2A01D8064601E000F104064FEA840540
:1014C00001D9A5F12005D6F8008007FA05FC28EA25
:1014D0000C0803FA05F548EA0508C6F800804D68CF
:1014E000ED0070D53E4DAE6946F00106AE61AD69C6
:1014F00024F0030605F0010500953A4D06EB050CB6
:10150000DCF80850A607360F07FA06F825EA0805A2
:10151000DFF8D480404503D14FF0000825E052E0C9
:10152000DFF8C880404502D14FF001081DE0DFF828
:10153000C080404502D14FF0020816E0DFF8B480C9
:10154000404502D14FF003080FE0DFF8AC80404582
:1015500002D14FF0040808E0DFF8A080404502D136
:101560004FF0050801E04FF0060808FA06F848EACF
:101570000508CCF808804D68D9F80060ED034D46A9
:1015800001D5164300E096432E604D68DAF80060FE
:10159000AD03554601D5164300E096432E604D68D5
:1015A000DBF80060ED025D4601D5164300E096438E
:1015B0002E604D68DEF80060AD02754601D5164319
:1015C00000E096432E60641C0A681646E2407FF4F1
:1015D00029AFBDE8F88F00000004014000001110A1
:1015E000001002400000014000080140000C0140D2
:1015F000001001400014014000180140001C01408F
:10160000C26821EA02030A4043EA024101617047CD
:101610000AB1016170470904FBE7000001488068D6
:1016200070470000040000200248816802781144DD
:101630008160704704000020074810B5016841F040
:1016400010010160032000F067F80F2000F006F899
:1016500000F024F8002010BD0020024070B50D4DB0
:1016600004464FF47A712878B1FBF0F00A49096812
:10167000B1FBF0F000F0EAFA48B9102C07D20022D2
:101680002146501E00F028F800206C6070BD01203B
:1016900070BD000004000020100000200C4808B5B8
:1016A000816941F001018161816901F001010091CD
:1016B000C16941F08051C161C06900F08050009063
:1016C0000448416821F0E06141F00071416008BDCB
:1016D0000010024000000140F0B40E4B1B680C46A5
:1016E000C3F30223C3F10705042D00D90425191DF6
:1016F000072901D2002300E0DB1E012606FA05F1CE
:10170000491E214099409E40761E16403143F0BC50
:1017100003F0A3BD0CED00E0064900F007020868E5
:101720004FF6FF03184040EA0220034A10430860C6
:10173000704700000CED00E00000FA052DE9F047CD
:101740000F46050061D0434E306800F00700B842F4
:1017500009D2306820F0070038433060306800F06C
:101760000700B84251D128683B4C810712D5400789
:1017700003D5606840F4E06060602878000703D516
:10178000606840F4605060606068A96820F0F00014
:10179000084360602878C00728D06868012810D006
:1017A0002168022810D0890700292EDA616821F00B
:1017B000030101436160FFF731FF804641F2883940
:1017C0000DE021688903EFE78901EDE7FFF726FFC8
:1017D000A0EB0801494502D90320BDE8F087606805
:1017E000696800F00C00B0EB810FEFD1306800F0B9
:1017F0000700B8420BD9306820F00700384330604A
:10180000306800F00700B84201D00120E5E72878F1
:10181000400705D56068E96820F4E060084360602F
:101820002878000706D56068296920F4605040EAEE
:10183000C100606000F038F86168084AC1F3031124
:10184000515CC8400649086006480068FFF706FF7B
:101850000020C2E70020024000100240BC5B0008EC
:10186000100000200800002004480549006849686D
:10187000044AC1F30221515CC840704710000020A7
:1018800000100240CC5B0008044805490068496824
:10189000044AC1F3C221515CC840704710000020C7
:1018A00000100240CC5B000812A185B00FC98DE882
:1018B0000F0014A0144A006804905168134801F006
:1018C0000C03042B10D0082B0ED1C1F38343C903A2
:1018D0001DF803000AD5516804AAC1F34041515CC8
:1018E0000A4A5043B0FBF1F005B07047084948433D
:1018F000FAE7000002030405060708090A0B0C0DAD
:101900000E0F1010010200000010024000127A00B9
:1019100000093D002DE9F84F040070D02078C04D3B
:10192000C00749D06868C0F38100012807D0686803
:10193000C0F38100022809D16868C00306D5286871
:10194000800339D560680028E7D035E06068B0F5DD
:10195000803F0BD010B1B0F5A02F11D0286820F433
:1019600080302860286820F4802002E0286840F455
:1019700080302860606890B1FFF750FE06460AE0AC
:10198000286840F480202860F0E700BFFFF746FE9B
:10199000801B642873D828688003F7D50CE0FFF714
:1019A0003DFE064605E000BFFFF738FE801B6428B9
:1019B000F0D828688003F7D420789A4E80074FF03B
:1019C00001094FF0000839D5686810F00C0F07D0F6
:1019D0006868C0F38100022809D16868C00306D492
:1019E0002868800714D52069012808D110E02069F3
:1019F000B0B1C6F80090FFF711FE074605E00AE116
:101A0000FFF70CFEC01B0228C4D828688007F7D552
:101A10002868616920F0F80040EAC10028600DE004
:101A2000C6F80080FFF7FAFD074604E0FFF7F6FD71
:101A3000C01B022823D828688007F7D42078000725
:101A40002CD57948A169D9B1C0F80090FFF7E6FD1F
:101A5000074604E0FFF7E2FDC01B02280FD8686AC2
:101A60008007F7D571484FF4FA510068B0FBF1F0E8
:101A7000009000BF0098411E0091FAD20EE080E075
:101A8000C0F80080FFF7CAFD074604E0FFF7C6FD77
:101A9000C01B022875D8686A8007F7D420784007F1
:101AA00060D5E8690027C00008D4E86940F080509C
:101AB000E861E869012700F0805000905C48016807
:101AC000C90513D40168834641F480710160FFF7B2
:101AD000A5FD824606E000BFFFF7A0FDA0EB0A00CF
:101AE00064284ED8DBF80000C005F5D5E068012871
:101AF0000AD008B1052813D0286A20F00100286216
:101B0000286A20F0040002E0286A40F00100286200
:101B1000E06841F2883B98B1FFF780FD82460BE018
:101B2000286A40F004002862EEE700BFFFF776FD68
:101B3000A0EB0A0159455AD8286A8007F6D50CE06F
:101B4000FFF76CFD824605E0FFF768FDA0EB0A0198
:101B500059454CD8286A8007F6D41FB1E86920F0AF
:101B60008050E861E06988B36968C1F381010229A6
:101B700044D00228C6F8608004D0FFF74FFD044629
:101B800038E034E0FFF74AFD074604E0FFF746FD82
:101B9000C01B02282BD828688001F7D4206AB0F532
:101BA000803F05D16868A16820F400300843686070
:101BB000D4E908010843696821F474110843686096
:101BC000C6F86090FFF72AFD044606E025E000BF56
:101BD000FFF724FD001B022809D828688001F7D5EB
:101BE0001BE000BFFFF71AFD001B022802D90320EB
:101BF000BDE8F88F28688001F4D40EE00128F7D002
:101C00006868226A00F48031914204D1616A00F46C
:101C10007010884201D00120EAE70020E8E70000C8
:101C200000100240000042428004424210000020A6
:101C3000007000404FF0E0210428086903D020F034
:101C400004000861704740F00400FAE710B5401E38
:101C5000B0F1807F01D3012010BD4FF0E02460611E
:101C60000F21601703F0F9FA0020A061072020611E
:101C7000002010BD70B5040004D094F83D0000258C
:101C800010B106E0012070BD84F83C50204600F001
:101C900023F8242084F83D002068C16821F4005115
:101CA000C160204603F036FA2068016921F49041B2
:101CB00001612068416921F02A0141612068C16801
:101CC00041F40051C1602564202084F83D0084F86F
:101CD0003E00002070BD000030B585B000240094A7
:101CE00001940294039400681449884224D1144852
:101CF000816941F480418161816901F480410491ED
:101D0000816941F00401816180690E4D00F0040099
:101D100004904FF400700090022001900320039083
:101D200069462846FFF770FB2815CDE9000469468F
:101D300028460294FFF768FB05B030BD003801402B
:101D400000100240000801402DE9F843044690F8D5
:101D50003D001F4616460D4620284CD1C5B1BEB1E8
:101D600094F83C00012846D0012084F83C004FF054
:101D70000008C4F84080212084F83D00FFF74EFCA5
:101D8000A6848146E684A068B0F5805F03D004E0B5
:101D90000120BDE8F883206928B12E465FF00005D8
:101DA00084F83C800EE00026FAE78021204603F00C
:101DB0000DFAA0B9AEB116F8010B21684860E08CAD
:101DC000401EE084E08C4B464FF000020097002854
:101DD000EBD14FF04001204603F0F8F930B1032079
:101DE000D7E735F8020BC0F30800E6E7202084F8B7
:101DF0003D000020CDE70220CBE7FEE7F0B50F491C
:101E00000646002408884D8821464543204602F0B6
:101E10000DFF03F0CDF80A494FF480774A15DFF83B
:101E200024C0802307E00F614A61CCF800604B6159
:101E30000B610A61641CAC42F5D3F0BDE0000020E8
:101E4000001001400C0C014006488088A0F5AA4112
:101E5000103903D05FF0290003F098B84FF42450F4
:101E6000FAE70000E00000202DE9F04F2B492C2676
:101E70000A46887192884FF4305A4FF4285B4FF429
:101E8000487541F6631E2B274FF02A0C4FF0F008DF
:101E900045F210594FF4A0744FF4F073B8B10C80B0
:101EA000A1F802804A4532D1A1F808A0A1F80AB0F1
:101EB000380288810D804B80A2F5A640103801D1F0
:101EC0000B804C80BDE8F04F002002F045BDA1F82A
:101ED00000804C804A4507D1A1F808A0A1F80AB0BB
:101EE0004FF42C50888105E072450E8105D14F8159
:101EF000A1F80CC00B804D8002E0A1F80AC08F81D0
:101F0000A2F5A6401038DDD10C804B80DAE70E81B7
:101F1000A1F80AC072458F81CCD0CDE7E000002047
:101F20002DE9F74F07466B486B4C01F0FF0982889B
:101F30004FEA112865153E0A4189A2F5AA4307F028
:101F4000FF0A103B2CD0A2F5C853633B57D008467C
:101F500003F01CF84FF4807BC4F810B065615F4F4C
:101F60003E608026666126612561C4F810B0656117
:101F7000C7F800A06661266125615648808903F094
:101F800005F8C4F810B06561C7F800806661266185
:101F9000C4F81050C4F810B06561C7F8009080E034
:101FA000084602F0F3FF4FF4807BC4F810B065617F
:101FB0004A4F3E608026666126612561454840891A
:101FC000401C80B202F0E2FFC4F810B06561C7F8AF
:101FD00000A06661266125613E48808902F0D6FF37
:101FE000C4F810B06561C7F800806661266125619C
:101FF00038488089401C80B202F0C8FFCAE7827965
:102000001AB90288D21B521E97B2084602F0BEFFD0
:102010004FF4807AC4F810A06561DFF8C0B0380AC8
:10202000CBF800008026666126612561C4F810A007
:102030006561F9B2CBF80010666126612561C4F8CC
:1020400010A06561CBF80000666126612561C4F8C7
:1020500010A06561CBF800106661266125611D48FE
:10206000808902F093FFC4F810A065615946CBF84F
:102070000080666126612561C4F810A06561CBF817
:102080000090666126612561C4F810A06561CBF8F7
:102090000080666126612561C4F810A06561C1F801
:1020A00000906661266125614FF480716161656110
:1020B00008480A4A0089106080206061206125611B
:1020C0002161656102991160606120612561BDE84F
:1020D000FE8F0000E0000020001001400C0C0140C9
:1020E0002DE9FF4F1F4600980C46101A401C86B27F
:1020F0004FF48078124D4FF4007A4FF0800BDDF8EA
:10210000349019E02146009802F090FD02F050FF53
:10211000002051460B4B5A460AE000BFC5F810801C
:102120006961C3F800906A612A612961401C80B22C
:10213000B042F3D3641CA4B2BC42E3D9BDE8FF8F24
:10214000001001400C0C01402DE9F04FF74887B01A
:10215000816941F008018161816901F00801009104
:10216000816941F01001816180694FF0030B00F03B
:10217000100000904FF4F86002900120CDE9040BAC
:10218000039002A9EA48FFF73FF94FF6FF7502A94D
:10219000E8480295FFF738F9E7484068E64920F03B
:1021A000E06040F080604860322003F077F8012161
:1021B000002002F003FF322003F070F8D32002F079
:1021C000E5FE02F01FFBDD4CA08002F01BFBA080AF
:1021D00002F018FB05EA0020A08002F013FBA188A2
:1021E00049F241360843A08041F6631845F21037A2
:1021F00045F210594FF4704AB04273D0042002F0F7
:10220000C5FE02F0FFFAA08002F0FCFAA08002F006
:10221000F9FA05EA0020A08002F0F4FAA188084348
:10222000A0F50541A08052397ED0A0F5EE41893954
:1022300058D0D42002F0AAFE02F0E4FAA08002F006
:10224000E1FAA08002F0DEFA05EA0020A08002F0A8
:10225000D9FAA1880843A080B84243D055215046FE
:1022600002F0ACFEAA214FF2010002F0A7FE5221BB
:102270004FF2020002F0A2FE08214FF2030002F02A
:102280009DFE01214FF2040002F098FE4FF44540FC
:1022900002F07CFE02F0B6FA05EA0020A0804CF2C3
:1022A000015002F073FE02F0ADFAA1880843A0804D
:1022B000052002F0F3FFA188494513D0A12002F0C8
:1022C00065FE02F09FFAA08002F09CFA05EA002069
:1022D000A08002F097FAA1880843A0F5AE41A08043
:1022E00061397DD0A088B0427BD1CF2002F04EFE74
:1022F000002002F039FEC12002F036FE302002F04C
:1023000033FEED2002F042FE642002F02DFE032099
:1023100002F02AFE122002F027FE812002F024FEA5
:10232000E82002F033FE00E0F7E0852002F01CFE1A
:10233000102002F019FE7A2002F016FECB2002F0E7
:1023400025FE392002F010FE2C2002F00DFE0020A8
:1023500002F00AFE342002F007FE022002F004FE22
:10236000F72002F013FE202002F0FEFDEA2002F02A
:102370000DFE002002F0F8FD002002F0F5FDC02067
:1023800002F004FE1B2002F0EFFDC12002F0FEFD72
:10239000012002F0E9FDC52002F0F8FD302002F036
:1023A000E3FD302002F0E0FDC72002F0EFFDB72092
:1023B00002F0DAFD362002F0E9FD482002F0D4FDFB
:1023C0003A2002F0E3FD552002F0CEFDB12002F0EC
:1023D000DDFD002002F0C8FD1A2002F0C5FD01E07D
:1023E0009FE0ADE0B62002F0D1FD0A2002F0BCFD76
:1023F000A22002F0B9FDF22002F0C8FD002002F098
:10240000B3FD262002F0C2FD012002F0ADFDE02068
:1024100002F0BCFD0F2002F0A7FD2A2002F0A4FD6F
:10242000282002F0A1FD082002F09EFD0E2002F0FF
:102430009BFD082002F098FD542002F095FDA92094
:1024400002F092FD432002F08FFD0A2002F08CFD85
:102450000F2002F089FD002002F086FD002002F02E
:1024600083FD002002F080FD002002F07DFDE120D0
:1024700002F08CFD002002F077FD152002F074FDC3
:10248000172002F071FD072002F06EFD112002F00E
:102490006BFD062002F068FD2B2002F065FD562042
:1024A00002F062FD3C2002F05FFD052002F05CFDC1
:1024B000102002F059FD0F2002F056FD3F2002F0DF
:1024C00053FD3F2002F050FD0F2002F04DFD2B2068
:1024D00002F05CFD002002F047FD002002F044FD08
:1024E000012002F041FD3F2002F03EFD2A2002F0D3
:1024F0004DFD002002F038FD002002F035FD0020E7
:1025000002F032FDEF2002F02FFD112002F03EFD1F
:10251000782002F0C3FE01F061B847F28970A08014
:10252000FEE3A4F8048001F0DFBF000000100240C9
:1025300000100140000C014000000140E0000020BC
:10254000A0F5EE418939EBD0B84241F04980ED2049
:1025500002F01CFD012002F007FDFE2002F004FD48
:10256000EE2002F013FDDE2002F0FEFC212002F03E
:10257000FBFCF12002F00AFD012002F0F5FCDF2057
:1025800002F004FD102002F0EFFCC42002F0FEFC7B
:102590008F2002F0E9FCC62002F0F8FC002002F0D7
:1025A000E3FCE22002F0E0FCE22002F0DDFCE220AD
:1025B00002F0DAFCBF2002F0E9FCAA2002F0D4FC11
:1025C000B02002F0E3FC0D2002F0CEFC002002F06F
:1025D000CBFC0D2002F0C8FC002002F0C5FC11204D
:1025E00002F0C2FC002002F0BFFC192002F0BCFC8B
:1025F000002002F0B9FC212002F0B6FC002002F01D
:10260000B3FC2D2002F0B0FC002002F0ADFC3D2018
:1026100002F0AAFC002002F0A7FC5D2002F0A4FC5E
:10262000002002F0A1FC5D2002F09EFC002002F0E0
:102630009BFCB12002F0AAFC802002F095FC002057
:1026400002F092FC8B2002F08FFC002002F08CFC48
:10265000962002F089FC002002F086FCB22002F0F5
:1026600095FC002002F080FC002002F07DFC02209E
:1026700002F07AFC002002F077FC032002F074FCE8
:10268000002002F071FCB32002F080FC002002F078
:102690006BFC002002F068FC002002F065FC0020CA
:1026A00002F062FC002002F05FFC002002F05CFC03
:1026B000002002F059FC002002F056FC002002F03D
:1026C00053FC002002F050FC002002F04DFC0020E2
:1026D00002F04AFC002002F047FC002002F044FC1B
:1026E000002002F041FC002002F03EFC002002F03D
:1026F0003BFC002002F038FC002002F035FC0020FA
:1027000002F032FC002002F02FFC002002F02CFC32
:10271000002002F029FC002002F026FCB42002F088
:1027200035FC8B2002F020FC002002F01DFC9620DE
:1027300002F01AFC002002F017FCA12002F014FCA9
:10274000002002F011FCB52002F020FC022002F073
:102750000BFC002002F008FC032002F005FC002026
:1027600002F002FC042002F0FFFB002002F0FCFB60
:10277000B62002F00BFC002002F0F6FB002002F075
:10278000F3FBB72002F002FC002002F0EDFB00207A
:1027900002F0EAFB3F2002F0E7FB002002F0E4FB3E
:1027A0005E2002F0E1FB002002F0DEFB642002F07C
:1027B000DBFB002002F0D8FB8C2002F0D5FB0020D0
:1027C00002F0D2FBAC2002F0CFFB002002F0CCFBE9
:1027D000DC2002F0C9FB002002F0C6FB702002F0F2
:1027E000C3FB002002F0C0FB902002F0BDFB0020E4
:1027F00002F0BAFBEB2002F0B7FB002002F0B4FBC2
:10280000DC2002F0B1FB002002F0AEFBB82002F0A9
:10281000BDFB002002F0A8FB002002F0A5FB002079
:1028200002F0A2FB002002F09FFB002002F09CFBC4
:10283000002002F099FB002002F096FB002002F03D
:1028400093FBBA2002F0A2FB242002F08DFB0020B3
:1028500002F08AFB002002F087FB002002F084FBDC
:10286000C12002F093FB202002F07EFB002002F04A
:102870007BFB542002F078FB002002F075FBFF2068
:1028800002F072FB002002F06FFBC22002F07EFB20
:102890000A2002F069FB002002F066FB042002F02F
:1028A00063FB002002F060FBC32002F06FFB3C20C2
:1028B00002F05AFB002002F057FB3A2002F054FBD2
:1028C000002002F051FB392002F04EFB002002F004
:1028D0004BFB372002F048FB002002F045FB3C2078
:1028E00002F042FB002002F03FFB362002F03CFBEE
:1028F000002002F039FB322002F036FB002002F00B
:1029000033FB2F2002F030FB002002F02DFB2C20A7
:1029100002F02AFB002002F027FB292002F024FB12
:10292000002002F021FB262002F01EFB002002F016
:102930001BFB242002F018FB002002F015FB2420D2
:1029400002F012FB002002F00FFB232002F00CFB30
:10295000002002F009FB3C2002F006FB002002F000
:1029600003FB362002F000FB002002F0FDFA3220CB
:1029700002F0FAFA002002F0F7FA2F2002F0F4FA3F
:10298000002002F0F1FA2C2002F0EEFA002002F012
:10299000EBFA292002F0E8FA002002F0E5FA2620FE
:1029A00002F0E2FA002002F0DFFA242002F0DCFA62
:1029B000002002F0D9FA242002F0D6FA002002F01A
:1029C000D3FA232002F0D0FA002002F0CDFAC4207E
:1029D00002F0DCFA622002F0C7FA002002F0C4FA2A
:1029E000052002F0C1FA002002F0BEFA842002F0B5
:1029F000BBFA002002F0B8FAF02002F0B5FA00208D
:102A000002F0B2FA182002F0AFFA002002F0ACFA9D
:102A1000A42002F0A9FA002002F0A6FA182002F081
:102A2000A3FA002002F0A0FA502002F09DFA002044
:102A300002F09AFA0C2002F097FA002002F094FAC1
:102A4000172002F091FA002002F08EFA952002F091
:102A50008BFA002002F088FAF32002F085FA0020B9
:102A600002F082FAE62002F07FFA002002F07CFAFF
:102A7000C52002F08BFA322002F076FA002002F034
:102A800073FA442002F070FA002002F06DFA65201B
:102A900002F06AFA002002F067FA762002F064FA87
:102AA000002002F061FA882002F05EFA002002F0B5
:102AB0005BFAC62002F06AFA202002F055FA0020E4
:102AC00002F052FA172002F04FFA002002F04CFAFE
:102AD000012002F049FA002002F046FAC72002F075
:102AE00055FA002002F040FA002002F03DFA0020E2
:102AF00002F03AFA002002F037FAC82002F046FA53
:102B0000002002F031FA002002F02EFA002002F03C
:102B10002BFA002002F028FAC92002F037FA002030
:102B200002F022FA002002F01FFA002002F01CFA44
:102B3000002002F019FA002002F016FA002002F03C
:102B400013FA002002F010FA002002F00DFA002023
:102B500002F00AFA002002F007FA002002F004FA5C
:102B6000002002F001FA002002F0FEF9002002F03D
:102B7000FBF9002002F0F8F9002002F0F5F9E0205E
:102B800002F004FA162002F0EFF9002002F0ECF94E
:102B90001C2002F0E9F9002002F0E6F9212002F001
:102BA000E3F9002002F0E0F9362002F0DDF9002020
:102BB00002F0DAF9462002F0D7F9002002F0D4F949
:102BC000522002F0D1F9002002F0CEF9642002F088
:102BD000CBF9002002F0C8F97A2002F0C5F90020F4
:102BE00002F0C2F98B2002F0BFF9002002F0BCF91C
:102BF000992002F0B9F9002002F0B6F9A82002F0FD
:102C0000B3F9002002F0B0F9B92002F0ADF90020CC
:102C100002F0AAF9C42002F0A7F9002002F0A4F9FA
:102C2000CA2002F0A1F9002002F09EF9D22002F0A1
:102C30009BF9002002F098F9D92002F095F90020C4
:102C400002F092F9E02002F08FF9002002F08CF9F6
:102C5000F32002F089F9002002F086F9E12002F069
:102C600095F9162002F080F9002002F07DF91C2071
:102C700002F07AF9002002F077F9222002F074F9CC
:102C8000002002F071F9362002F06EF9002002F007
:102C90006BF9452002F068F9002002F065F9522036
:102CA00002F062F9002002F05FF9642002F05CF9A2
:102CB000002002F059F97A2002F056F9002002F0C3
:102CC00053F98B2002F050F9002002F04DF99920C1
:102CD00002F04AF9002002F047F9A82002F044F976
:102CE000002002F041F9B92002F03EF9002002F084
:102CF0003BF9C42002F038F9002002F035F9CA206F
:102D000002F032F9002002F02FF9D22002F02CF963
:102D1000002002F029F9D82002F026F9002000E076
:102D20008DE302F021F9E02002F01EF9002002F00C
:102D30001BF9F32002F018F9002002F015F9E22047
:102D400002F024F9052002F00FF9002002F00CF93E
:102D50000B2002F009F9002002F006F91B2002F016
:102D600003F9002002F000F9342002F0FDF8002001
:102D700002F0FAF8442002F0F7F8002002F0F4F82C
:102D80004F2002F0F1F8002002F0EEF8612002F08E
:102D9000EBF8002002F0E8F8792002F0E5F80020D6
:102DA00002F0E2F8882002F0DFF8002002F0DCF800
:102DB000972002F0D9F8002002F0D6F8A62002F001
:102DC000D3F8002002F0D0F8B72002F0CDF80020B0
:102DD00002F0CAF8C22002F0C7F8002002F0C4F8DE
:102DE000C72002F0C1F8002002F0BEF8D12002F0A6
:102DF000BBF8002002F0B8F8D62002F0B5F80020A9
:102E000002F0B2F8DD2002F0AFF8002002F0ACF8DA
:102E1000F32002F0A9F8002002F0A6F8E32002F067
:102E2000B5F8052002F0A0F8002002F09DF80A2075
:102E300002F09AF8002002F097F81C2002F094F8B3
:102E4000002002F091F8332002F08EF8002002F00A
:102E50008BF8442002F088F8002002F085F850201A
:102E600002F082F8002002F07FF8622002F07CF885
:102E7000002002F079F8782002F076F8002002F0C5
:102E800073F8882002F070F8002002F06DF89720A7
:102E900002F06AF8002002F067F8A62002F064F859
:102EA000002002F061F8B72002F05EF8002002F086
:102EB0005BF8C22002F058F8002002F055F8C72055
:102EC00002F052F8002002F04FF8D12002F04CF846
:102ED000002002F049F8D52002F046F8002002F068
:102EE00043F8DD2002F040F8002002F03DF8F32026
:102EF00002F03AF8002002F037F8E42002F046F839
:102F0000012002F031F8002002F02EF8012002F03A
:102F10002BF8002002F028F8022002F025F800200B
:102F200002F022F82A2002F01FF8002002F01CF81C
:102F30003C2002F019F8002002F016F84B2002F0B5
:102F400013F8002002F010F85D2002F00DF80020C8
:102F500002F00AF8742002F007F8002002F004F8EA
:102F6000842002F001F8002001F0FEFF932001F020
:102F7000FBFF002001F0F8FFA22001F0F5FF002088
:102F800001F0F2FFB32001F0EFFF002001F0ECFFB1
:102F9000BE2001F0E9FF002001F0E6FFC42001F0AF
:102FA000E3FF002001F0E0FFCD2001F0DDFF002075
:102FB00001F0DAFFD32001F0D7FF002001F0D4FFA9
:102FC000DD2001F0D1FF002001F0CEFFF32001F061
:102FD000CBFF002001F0C8FFE52001F0D7FF002063
:102FE00001F0C2FF002001F0BFFF002001F0BCFF94
:102FF000002001F0B9FF022001F0B6FF002001F02F
:10300000B3FF292001F0B0FF002001F0ADFF3C200C
:1030100001F0AAFF002001F0A7FF4B2001F0A4FF60
:10302000002001F0A1FF5D2001F09EFF002001F0D3
:103030009BFF742001F098FF002001F095FF842091
:1030400001F092FF002001F08FFF932001F08CFF30
:10305000002001F089FFA22001F086FF002001F08E
:1030600083FFB32001F080FF002001F07DFFBE2030
:1030700001F07AFF002001F077FFC42001F074FF17
:10308000002001F071FFCD2001F06EFF002001F063
:103090006BFFD32001F068FF002001F065FFDC200A
:1030A00001F062FF002001F05FFFF32001F05CFF00
:1030B000002001F059FFE62001F068FF112001F027
:1030C00053FF002001F050FF342001F04DFF00209D
:1030D00001F04AFF562001F047FF002001F044FFB5
:1030E000762001F041FF002001F03EFF772001F043
:1030F0003BFF002001F038FF662001F035FF002083
:1031000001F032FF882001F02FFF002001F02CFF9A
:10311000992001F029FF002001F026FFBB2001F0DB
:1031200023FF002001F020FF992001F01DFF002067
:1031300001F01AFF662001F017FF002001F014FFD4
:10314000552001F011FF002001F00EFF552001F085
:103150000BFF002001F008FF452001F005FF0020D3
:1031600001F002FF432001F0FFFE002001F0FCFE11
:10317000442001F0F9FE002001F0F6FEE72001F006
:1031800005FF322001F0F0FE002001F0EDFE552099
:1031900001F0EAFE002001F0E7FE762001F0E4FEF7
:1031A000002001F0E1FE662001F0DEFE002001F0CB
:1031B000DBFE672001F0D8FE002001F0D5FE67207D
:1031C00001F0D2FE002001F0CFFE872001F0CCFEFE
:1031D000002001F0C9FE992001F0C6FE002001F098
:1031E000C3FEBB2001F0C0FE002001F0BDFE99200F
:1031F00001F0BAFE002001F0B7FE772001F0B4FE26
:10320000002001F0B1FE442001F0AEFE002001F0EC
:10321000ABFE562001F0A8FE002001F0A5FE232001
:1032200001F0A2FE002001F09FFE332001F09CFE81
:10323000002001F099FE452001F096FE002001F0EB
:1032400093FEE82001F0A2FE002001F08DFE002098
:1032500001F08AFE992001F087FE002001F084FE33
:10326000872001F081FE002001F07EFE882001F021
:103270007BFE002001F078FE772001F075FE002033
:1032800001F072FE662001F06FFE002001F06CFE7E
:10329000882001F069FE002001F066FEAA2001F0FE
:1032A00063FE002001F060FEBB2001F05DFE002007
:1032B00001F05AFE992001F057FE002001F054FE63
:1032C000662001F051FE002001F04EFE552001F075
:1032D0004BFE002001F048FE552001F045FE002085
:1032E00001F042FE442001F03FFE002001F03CFED0
:1032F000442001F039FE002001F036FE552001F097
:1033000033FE002001F030FEE92001F03FFEAA204C
:1033100001F02AFE002001F027FE002001F024FE2B
:10332000002001F021FE002001F030FEAA2001F073
:103330001BFECF2001F02AFE002001F015FE002028
:1033400001F012FE002001F00FFE002001F00CFE43
:10335000002001F009FE002001F006FE002001F02F
:1033600003FE002001F000FE002001F0FDFD002022
:1033700001F0FAFD002001F0F7FD002001F0F4FD5E
:10338000002001F0F1FD002001F0EEFD002001F031
:10339000EBFD002001F0E8FD002001F0E5FDF0204C
:1033A00001F0F4FD002001F0DFFD502001F0DCFD14
:1033B000002001F0D9FD002001F0D6FD002001F031
:1033C000D3FDF32001F0E2FD002001F0CDFDF92056
:1033D00001F0DCFD062001F0C7FD102001F0C4FD66
:1033E000292001F0C1FD002001F0BEFD3A2001F0CE
:1033F000CDFD552001F0B8FD112001F0C7FD64207E
:1034000001F04CFF292001F0C1FD352001F0BEFD87
:10341000002001F0A9FD512001F0B8FDFF2001F0CE
:10342000A3FD532001F0B2FD2C2001F09DFD55209D
:1034300001F0ACFD822001F097FD2C20FEE311206D
:1034400001F0A4FD782001F029FF362001F09EFD57
:10345000002001F089FD3A2001F098FD052001F0DF
:1034600083FDB22001F092FD0C2001F07DFD0C20C7
:1034700001F07AFD002001F077FD332001F074FDAA
:10348000332001F071FDB72001F080FD352001F0FF
:103490006BFDBB2001F07AFD322001F065FDC020FC
:1034A00001F074FD0C2001F05FFDC22001F06EFD03
:1034B000012001F059FDC32001F068FD102001F04A
:1034C00053FDC42001F062FD202001F04DFDC62017
:1034D00001F05CFD0F2001F047FDD02001F056FD0A
:1034E000A42001F041FDA12001F03EFDE02001F00B
:1034F0004DFDD02001F038FD002001F035FD022007
:1035000001F032FD072001F02FFD0A2001F02CFD13
:10351000282001F029FD322001F026FD442001F091
:1035200023FD422001F020FD062001F01DFD0E20AC
:1035300001F01AFD122001F017FD142001F014FD16
:10354000172001F011FDE12001F020FDD02001F055
:103550000BFD002001F008FD022001F005FD072011
:1035600001F002FD0A2001F0FFFC282001F0FCFC24
:10357000312001F0F9FC542001F0F6FC472001F065
:10358000F3FC0E2001F0F0FC1C2001F0EDFC1720F4
:1035900001F0EAFC1B2001F0E7FC1E2001F0E4FC36
:1035A0002A2001F0F3FC002001F0DEFC002001F0F5
:1035B000DBFC002001F0D8FCEF2001F0D5FC2B2033
:1035C00001F0E4FC002001F0CFFC002001F0CCFC75
:1035D000012001F0C9FC3F2001F0C6FC29202DE7A5
:1035E00048457CD15521504601F0E8FC4FF20104DA
:1035F000AA21204601F0E2FC651C5221284601F078
:10360000DDFCA61C0821304601F0D8FCE71C012196
:10361000384601F0D3FC0D214FF4304001F0CEFCD0
:103620000D214BF2010001F0C9FC0D214BF202000B
:1036300001F0C4FC4FF436483421404601F0BEFC92
:1036400034214BF2016001F0B9FC34214BF20260ED
:1036500001F0B4FC4FF431490D21484601F0AEFCB5
:103660004BF2011B0D21584601F0A8FC0D214BF235
:10367000021001F0A3FC34214FF4374001F09EFC0E
:1036800034214BF2017001F099FC34214BF20270AD
:1036900001F094FC00214FF4324001F08FFC002136
:1036A0004BF2012001F08AFC00214BF2022001F0D4
:1036B00085FC24214FF4384001F080FC24214BF696
:1036C000010001F07BFC24214BF6020001F076FCA6
:1036D00001214FF43F4001F071FC0F2100E0FDE3B8
:1036E0004FF4334001F06AFC0F214BF2013001F03E
:1036F00065FC0F214BF2023001F060FC34214FF4E5
:10370000394001F05BFC34214BF6011001F056FC0E
:1037100034214BF6021001F051FC08214FF43540E2
:1037200001F04CFC08214BF2015001F047FC08214C
:103730004BF2025001F042FC03214FF4424001F0F1
:103740003DFC24214FF43A4001F038FC24214BF693
:10375000012001F033FC24214BF6022001F02EFC65
:1037600000214FF43C4001F029FC78214BF6014048
:1037700001F024FC00214BF6024001F01FFC002167
:103780004FF43D4001F01AFC78214BF6015001F056
:1037900015FC00214BF6025001F010FC00214FF403
:1037A0003E4001F00BFC64214BF6016001F006FC89
:1037B00000214FF4514001F001FC33214DF2011082
:1037C00001F0FCFB00214DF2021001F0F7FB342167
:1037D0004DF2031001F0F2FB00214DF2041001F054
:1037E000EDFB3A214DF2051001F0E8FB00214DF20E
:1037F000061001F0E3FB4A214DF2071001F0DEFB59
:1038000000214DF2081001F0D9FB5C214DF20910A6
:1038100001F0D4FB00214DF20A1001F0CFFB812111
:103820004DF20B1001F0CAFB00214DF20C1001F01B
:10383000C5FBA6214DF20D1001F0C0FB00214DF299
:103840000E1001F0BBFBE5214DF20F1001F0B6FBAD
:1038500001214DF2101001F0B1FB13214DF21110B6
:1038600001F0ACFB01214DF2121001F0A7FB542135
:103870004DF2131001F0A2FB01214DF2141001F0E2
:103880009DFB82214DF2151001F098FB01214DF2B4
:10389000161001F093FBCA214DF2171001F08EFBB8
:1038A00002214DF2181001F089FB00214DF2191090
:1038B00001F084FB02214DF21A1001F07FFB01217F
:1038C0004DF21B1001F07AFB02214DF21C1001F0A9
:1038D00075FB34214DF21D1001F070FB02214DF2F9
:1038E0001E1001F06BFB67214DF21F1001F066FB0B
:1038F00002214DF2201001F061FB84214DF22110D4
:1039000001F05CFB02214DF2221001F057FBA421D3
:103910004DF2231001F052FB02214DF2241001F070
:103920004DFBB7214DF2251001F048FB02214DF26D
:10393000261001F043FBCF214DF2271001F03EFB92
:1039400002214DF2281001F039FBDE214DF2291041
:1039500001F034FB02214DF22A1001F02FFBF2217D
:103960004DF22B1001F02AFB02214DF22C1001F038
:1039700025FBFE214DF22D1001F020FB03214DF21D
:103980002E1001F01BFB10214DF22F1001F016FB41
:1039900003214DF2301001F011FB33214DF23110B3
:1039A00001F00CFB03214DF2321001F007FB6D21F9
:1039B0004DF2331001F002FB00214FF4524001F0B0
:1039C000FDFA33214DF2012001F0F8FA00214DF209
:1039D000022001F0F3FA34214DF2032001F0EEFA57
:1039E00000214DF2042001F0E9FA3A214DF20520C0
:1039F00001F0E4FA00214DF2062001F0DFFA4A213D
:103A00004DF2072001F0DAFA00214DF2082001F012
:103A1000D5FA5C214DF2092001F0D0FA00214DF2D7
:103A20000A2001F0CBFA81214DF20B2001F0C6FAF9
:103A300000214DF20C2001F0C1FAA6214DF20D201B
:103A400001F0BCFA00214DF20E2001F0B7FAE52199
:103A50004DF20F2001F0B2FA01214DF2102001F0D9
:103A6000ADFA13214DF2112001F0A8FA01214DF217
:103A7000122001F0A3FA54214DF2132001F09EFA16
:103A800001214DF2142001F099FA82214DF2152006
:103A900001F094FA01214DF2162001F08FFACA21AB
:103AA0004DF2172001F08AFA02214DF2182001F0A0
:103AB00085FA00214DF2192001F080FA02214DF221
:103AC0001A2001F07BFA01214DF21B2001F076FA59
:103AD00002214DF21C2001F071FA34214DF21D201B
:103AE00001F06CFA02214DF21E2001F067FA672105
:103AF0004DF21F2001F062FA02214DF2202001F068
:103B00005DFA84214DF2212001F058FA02214DF294
:103B1000222001F053FAA4214DF2232001F04EFAA5
:103B200002214DF2242001F049FAB7214DF225205F
:103B300001F044FA02214DF2262001F03FFACF2194
:103B40004DF2272001F03AFA02214DF2282001F02F
:103B500035FADE214DF2292001F030FA02214DF232
:103B60002A2001F02BFAF2214DF22B2001F026FA47
:103B700002214DF22C2001F021FAFE214DF22D20E0
:103B800001F01CFA03214DF22E2001F017FA10214A
:103B90004DF22F2001F012FA03214DF2302001F0F6
:103BA0000DFA33214DF2312001F008FA03214DF2D4
:103BB000322001F003FA6D214DF2332001F0FEF9BD
:103BC00000214FF4534001F0F9F933214DF2013057
:103BD00001F0F4F900214DF2023001F0EFF9342147
:103BE0004DF2033001F0EAF900214DF2043001F00A
:103BF000E5F93A214DF2053001F0E0F900214DF2EE
:103C0000063001F0DBF94A214DF2073001F0D6F918
:103C100000214DF2083001F0D1F95C214DF209305C
:103C200001F0CCF900214DF20A3001F0C7F98121F1
:103C30004DF20B3001F0C2F9002100E0FDE34DF23E
:103C40000C3001F0BBF9A6214DF20D3001F0B6F9B0
:103C500000214DF20E3001F0B1F9E5214DF20F30A7
:103C600001F0ACF901214DF2103001F0A7F9132158
:103C70004DF2113001F0A2F901214DF2123001F0A4
:103C80009DF954214DF2133001F098F901214DF2C4
:103C9000143001F093F982214DF2153001F08EF9C4
:103CA00001214DF2163001F089F9CA214DF2173089
:103CB00001F084F902214DF2183001F07FF9002162
:103CC0004DF2193001F07AF902214DF21A3001F06B
:103CD00075F901214DF21B3001F070F902214DF20E
:103CE0001C3001F06BF934214DF21D3001F066F902
:103CF00002214DF21E3001F061F967214DF21F30B3
:103D000001F05CF902214DF2203001F057F98421D5
:103D10004DF2213001F052F902214DF2223001F032
:103D20004DF9A4214DF2233001F048F902214DF262
:103D3000243001F043F9B7214DF2253001F03EF96E
:103D400002214DF2263001F039F9CF214DF2273012
:103D500001F034F902214DF2283001F02FF9DE2173
:103D60004DF2293001F02AF902214DF22A3001F0FA
:103D700025F9F2214DF22B3001F020F902214DF20C
:103D80002C3001F01BF9FE214DF22D3001F016F917
:103D900003214DF22E3001F011F910214DF22F3098
:103DA00001F00CF903214DF2303001F007F9332115
:103DB0004DF2313001F002F903214DF2323001F0C1
:103DC000FDF86D214DF2333001F0F8F800214FF489
:103DD000544001F0F3F833214DF2014001F0EEF8C8
:103DE00000214DF2024001F0E9F834214DF2034088
:103DF00001F0E4F800214DF2044001F0DFF83A212F
:103E00004DF2054001F0DAF800214DF2064001F0D4
:103E1000D5F84A214DF2074001F0D0F800214DF2CB
:103E2000084001F0CBF85C214DF2094001F0C6F8E2
:103E300000214DF20A4001F0C1F881214DF20B4002
:103E400001F0BCF800214DF20C4001F0B7F8A621BA
:103E50004DF20D4001F0B2F800214DF20E4001F09C
:103E6000ADF8E5214DF20F4001F0A8F801214DF227
:103E7000104001F0A3F813214DF2114001F09EF81B
:103E800001214DF2124001F099F854214DF21340F6
:103E900001F094F801214DF2144001F08FF88221D5
:103EA0004DF2154001F08AF801214DF2164001F063
:103EB00085F8CA214DF2174001F080F802214DF239
:103EC000184001F07BF800214DF2194001F076F81E
:103ED00002214DF21A4001F071F800E002E30121E5
:103EE0004DF21B4001F06AF802214DF21C4001F036
:103EF00065F834214DF21D4001F060F802214DF2C9
:103F00001E4001F05BF867214DF21F4001F056F8AA
:103F100002214DF2204001F051F884214DF2214060
:103F200001F04CF802214DF2224001F047F8A421A3
:103F30004DF2234001F042F802214DF2244001F0FD
:103F40003DF8B7214DF2254001F038F802214DF23D
:103F5000264001F033F8CF214DF2274001F02EF832
:103F600002214DF2284001F029F8DE214DF22940CE
:103F700001F024F802214DF22A4001F01FF8F2214D
:103F80004DF22B4001F01AF802214DF22C4001F0C5
:103F900015F8FE214DF22D4001F010F803214DF2ED
:103FA0002E4001F00BF810214DF22F4001F006F8E1
:103FB00003214DF2304001F001F833214DF2314040
:103FC00000F0FCFF03214DF2324000F0F7FF6D21BD
:103FD0004DF2334000F0F2FF00214FF4554000F065
:103FE000EDFF33214DF2015000F0E8FF00214DF2CA
:103FF000025000F0E3FF34214DF2035000F0DEFFE9
:1040000000214DF2045000F0D9FF3A214DF2055045
:1040100000F0D4FF00214DF2065000F0CFFF4A21FE
:104020004DF2075000F0CAFF00214DF2085000F099
:10403000C5FF5C214DF2095000F0C0FF00214DF298
:104040000A5000F0BBFF81214DF20B5000F0B6FF8B
:1040500000214DF20C5000F0B1FFA6214DF20D50A1
:1040600000F0ACFF00214DF20E5000F0A7FFE5215B
:104070004DF20F5000F0A2FF01214DF2105000F060
:104080009DFF13214DF2115000F098FF01214DF2D8
:10409000125000F093FF54214DF2135000F08EFFA8
:1040A00001214DF2145000F089FF82214DF215508C
:1040B00000F084FF01214DF2165000F07FFFCA216D
:1040C0004DF2175000F07AFF02214DF2185000F027
:1040D00075FF00214DF2195000F070FF02214DF2E2
:1040E0001A5000F06BFF01214DF21B5000F066FFEB
:1040F00002214DF21C5000F061FF34214DF21D50A1
:1041000000F05CFF02214DF21E5000F057FF6721C6
:104110004DF21F5000F052FF02214DF2205000F0EE
:104120004DFF84214DF2215000F048FF02214DF255
:10413000225000F043FFA4214DF2235000F03EFF37
:1041400002214DF2245000F039FFB7214DF22550E5
:1041500000F034FF02214DF2265000F02FFFCF2156
:104160004DF2275000F02AFF02214DF2285000F0B6
:1041700025FFDE214DF2295000F020FF02214DF2F3
:104180002A5000F01BFFF2214DF22B5000F016FFD9
:1041900002214DF22C5000F011FFFE214DF22D5066
:1041A00000F00CFF03214DF22E5000F007FF10210C
:1041B0004DF22F5000F002FF03214DF2305000F07D
:1041C000FDFE33214DF2315000F0F8FE03214DF297
:1041D000325000F0F3FE6D214DF2335000F0EEFE50
:1041E00000214FF4564000F0E9FE33214DF201600A
:1041F00000F0E4FE00214DF2026000F0DFFE342109
:104200004DF2036000F0DAFE00214DF2046000F090
:10421000D5FE3A214DF2056000F0D0FE00214DF2AE
:10422000066000F0CBFE4A214DF2076000F0C6FEAA
:1042300000214DF2086000F0C1FE5C214DF20960E2
:1042400000F0BCFE00214DF20A6000F0B7FE8121B3
:104250004DF20B6000F0B2FE00214DF20C6000F058
:10426000ADFEA6214DF20D6000F0A8FE00214DF23A
:104270000E6000F0A3FEE5214DF20F6000F09EFEFF
:1042800001214DF2106000F099FE13214DF21160F2
:1042900000F094FE01214DF2126000F08FFE5421D7
:1042A0004DF2136000F08AFE01214DF2146000F01F
:1042B00085FE82214DF2156000F080FE01214DF255
:1042C000166000F07BFECA214DF2176000F076FE0A
:1042D00002214DF2186000F071FE00214DF21960CC
:1042E00000F06CFE02214DF21A6000F067FE012121
:1042F0004DF21B6000F062FE02214DF21C6000F0E6
:104300005DFE34214DF21D6000F058FE02214DF299
:104310001E6000F053FE67214DF21F6000F04EFE5C
:1043200002214DF2206000F049FE84214DF221600F
:1043300000F044FE02214DF2226000F03FFEA42175
:104340004DF2236000F03AFE02214DF2246000F0AD
:1043500035FEB7214DF2256000F030FE02214DF20E
:10436000266000F02BFECF214DF2276000F026FEE4
:1043700002214DF2286000F021FEDE214DF229607D
:1043800000F01CFE02214DF22A6000F017FEF2211F
:104390004DF22B6000F012FE02214DF22C6000F075
:1043A0000DFEFE214DF22D6000F008FE03214DF2BE
:1043B0002E6000F003FE10214DF22F6000F0FEFD94
:1043C00003214DF2306000F0F9FD33214DF23160F0
:1043D00000F0F4FD03214DF2326000F0EFFD6D219D
:1043E0004DF2336000F0EAFD5521504600F0E6FD45
:1043F000AA21204600F0E2FD5221284600F0DEFD11
:104400000821304600F0DAFD0021384600F0D6FDE4
:10441000CC21484600F0D2FD0021584600F0CEFDE8
:104420000521404600F0CAFD70214FF4374000F0EE
:10443000C5FD70214BF2017000E050E000F0BEFDC0
:1044400001214FF4384000F0B9FD03214BF6010083
:1044500000F0B4FD03214BF6020000F0AFFD032194
:104460004BF6030000F0AAFD02214FF43C4000F09F
:10447000A5FD00214BF6014000F0A0FD00214BF608
:10448000024000F09BFDD0214FF4494000F096FD22
:1044900002214CF6011000F091FD50214CF6021063
:1044A00000F08CFD50214CF6031000F087FD5021E8
:1044B0004CF6041000F082FD00214FF4545000F03F
:1044C0007DFD55214FF4685000F078FD4FF4885081
:1044D00000F05CFD782000F0EFFE4FF4245000F077
:1044E00055FD7BE14045FCD1E22000F04FFDC34C7F
:1044F0004FF48077276165156561DFF804831D211E
:10450000C8F8001080266661266125612761656113
:104510000220C8F800006661266125612761656197
:104520000420C8F80000666126612561642000F05F
:10453000C3FEE02000F02AFD276165614FF0010A0B
:10454000C8F800A06661266125610A2000F0A6FE79
:10455000E02000F01BFD27616561C8F800B06661CE
:10456000266125610C2000F099FE012000F00EFD6F
:104570000A2000F093FEE62000F008FD2761656147
:104580002F21C8F8001066612661256127616561E9
:10459000FF20C8F80000666126612561276165611A
:1045A000C8F80000666126612561B02000F0EEFCCD
:1045B000276165612021C8F80010666126612561C8
:1045C000276165614FF00009C8F8009066612661B7
:1045D000256127616561C8F800B0666126612561C3
:1045E0002761656140F21F31C8F8001066612661DD
:1045F000256127616561C8F800A0666126612561B3
:104600002761656140F2DF11C8F80010666126611C
:10461000256127616561C8F80090666126612561A2
:10462000B42000F0B3FC276165610420C8F80000E5
:104630006661266125612761656140F21F41C8F806
:10464000001066612661256127616561C8F80090E8
:10465000666126612561276165612E21C8F8001019
:10466000666126612561276165614146C8F8009051
:1046700066612661256127616561C8F80090666101
:104680002661256127616561C8F800906661266131
:10469000256127616561C1F8009066612661256129
:1046A000B62000F073FC276165610220C8F80000A5
:1046B000666126612561276165614FF40371C8F861
:1046C000001066612661256127616561C8F8009068
:1046D000666126612561276165611721C8F80010B0
:1046E000666126612561276165611521C8F80010A2
:1046F00066612661256127616561C8F80090666181
:104700002661256127616561C8F8009066612661B0
:104710002561F02000F03AFC27616561C8F800B01F
:10472000666126612561292000F030FCD02000F070
:104730002DFC27616561C8F80090666126612561DE
:10474000BE2000F023FC276165610521C8F8001038
:1047500066612661256127616561FE21C8F8001048
:10476000666126612561276165614146C8F800A040
:1047700066612661256127616561C8F80090666100
:104780002661256127616561C8F800906661266130
:10479000256127616561C1F8009066612661256128
:1047A000B82000F0F3FB27616561C8F800B06661CE
:1047B0002661256127616561C8F800A066612661F0
:1047C0002561BA2000F0E2FB27616561C8F800A00E
:1047D000666126612561642000F070F80020FDF715
:1047E00043FB012291020548FCF712FF4FF6FF70D0
:1047F000FDF704FB07B0BDE8F08F0000001001409A
:104800000C0C0140F0B5114A4FF088301060131DB8
:1048100018600E4C00200C3420600D499015086182
:1048200045004D6140264E610220401EC0B2FCD2C0
:104830000648083000680E6180B20D614FF03331D8
:10484000116019604FF6FF712160F0BD000C01404E
:104850000010014010B5184C2288824202D96288AB
:104860008A4201D8002010BD00F0E0F9A088A0F530
:10487000AA4110391CD02E2000F088FBFFF7C2FFA0
:10488000A188A1F5C852633AEDD0FFF7BBFF0446FB
:10489000FFF7B8FF0146E0B24FF6FF7202EA0022CE
:1048A000E00AC002920A40EA421040EAD12010BD5C
:1048B0004FF43850E0E70000E00000202DE9F04719
:1048C0008146BE2000F062FB204C4FF480772761C8
:1048D00065156561DFF878800521C8F8001080262D
:1048E00066612661256127616561484601F053F8DC
:1048F0004FF06632174B01F061F801F01FF8C8F86D
:104900000000666126612561276165610121C8F8A3
:10491000001066612661256127616561FF21C8F885
:104920000010666126612561276165610020C8F875
:10493000000066612661256127616561C8F8000095
:10494000666126612561BDE8F08700000010014026
:104950000C0C0140666604402DE9F04FB04D002478
:104960002946AA79898841F66317012A01D01AB12C
:104970000CE0B94202D109E0B94207D1082805D2BA
:10498000DFE800F0161812140C19100E082812D2C5
:10499000DFE800F0110406080A0C0E1080240AE07B
:1049A000402408E0C02406E0202404E0602402E063
:1049B000A02400E0E02445F21056B14202D14FF4A9
:1049C000585000E03620A1F51342413A03D0A1F53A
:1049D000EE42893A01D144F00804214600F0EEFA93
:1049E000A888B8420AD0A10629886A8802D59142CF
:1049F00002D303E0914201D92A8069804FF4807785
:104A0000DFF820827C004FF0000A4FF0800BB042AC
:104A10007DD1688900F0BAFAC8F81070C8F814405F
:104A2000DFF80492C9F800A05E46C8F814B0C8F8D0
:104A300010B0C8F810406889401C80B200F0A6FA97
:104A4000C8F81070C8F81440C9F800A0C8F814607D
:104A5000C8F81060C8F810406889801C80B200F067
:104A600095FAC8F81070C8F814402888401E011242
:104A7000C9F80010C8F81460C8F81060C8F81040F1
:104A80006889C01C80B200F081FAC8F81070C8F8BC
:104A900014402878401EC1B2C9F80010C8F814604C
:104AA000C8F81060C8F81040A88900F06FFAC8F87C
:104AB0001070C8F81440C9F800A0C8F81460C8F80D
:104AC0001060C8F81040A889401C80B200F05EFA5F
:104AD000C8F81070C8F81440C9F800A0C8F81460ED
:104AE000C8F81060C8F81040A889801C80B200F097
:104AF0004DFAC8F81070C8F814406888401E0112BA
:104B0000C9F80010C8F81460C8F8106000E014E09C
:104B1000C8F81040A889C01C80B200F037FAC8F865
:104B20001070C8F81440A878401EC1B2C9F800102F
:104B3000C8F81460C8F810606DE0A946688900F0F4
:104B400025FAC8F81070C8F81440374EC6F800A00F
:104B50005D46C8F814B0C8F810B0C8F81040C8F8DE
:104B60001070C8F81440C6F800A0C8F814B0C8F80F
:104B700010B0C8F81040C8F81070C8F81440B9F860
:104B80000000401E01123160C8F814B0C8F810507F
:104B9000C8F81040C8F81070C8F81440C0B23060AF
:104BA000C8F81450C8F81050C8F81040B9F80C00F4
:104BB00000F0ECF9C8F81070C8F81440C6F800A06E
:104BC000C8F81450C8F81050C8F81040C8F8107051
:104BD000C8F81440C6F800A0C8F81450C8F810501F
:104BE000C8F81040C8F81070C8F81440B9F80200AE
:104BF000401E01123160C8F81450C8F81050C8F8AF
:104C00001040C8F81070C8F81440C0B23060C8F83E
:104C10001450C8F81050C8F81040BDE8F08F0000DC
:104C2000E0000020001001400C0C01402DE9F04F85
:104C3000804A4FEA1129CDB293881146060A7E4C6C
:104C4000DFF8F8A14989A3F5C85C00F0FF084FF42C
:104C500080774FF4007BBCF1630C30D0A3F5AA4001
:104C6000103808467ED000F091F9A01520615F460B
:104C7000C4F814B0CAF80060802666612661C4F8E2
:104C800010B02061C4F814B0CAF8008066612661D3
:104C9000C4F810B06748808900F078F9A015206149
:104CA0006761CAF8009066612661276120616761CB
:104CB00050460560666126612761BDE8F08F5D4A58
:104CC0009279002A56D0084600F060F927615846CC
:104CD000C4F814B05246CAF80060802161612161B5
:104CE000C4F810B02761C4F814B0CAF8008061613C
:104CF0002161C4F810B02761C4F814B04D4B1B8873
:104D00005B1E1E1216606161216120612761606176
:104D1000DBB21360616121612061464EB08900F011
:104D200035F927615846C4F814B05246CAF80090C5
:104D3000802161612161C4F810B02761C4F814B00A
:104D4000CAF8005061612161C4F810B02761C4F84D
:104D500014B073885B1E1D121560616121612061B2
:104D6000276100E031E06061DBB2136061612161C5
:104D70002061A2E72F4A1288101A401E86B2084608
:104D800000F004F927615846C4F814B000235246D5
:104D9000CAF80030802161612161C4F810B0276138
:104DA000C4F814B0CAF8003061612161C4F810B0D1
:104DB0002761C4F814B0330ACAF800306161216178
:104DC000206127616061F3B2A3E700F0DFF84FF4E0
:104DD000807020615F46C4F814B0CAF80060802675
:104DE00066612661C4F810B012484089401C80B248
:104DF00000F0CCF8700020616761CAF8008066613D
:104E0000266127610B48808900F0C0F8700020619E
:104E10006761CAF80090666126612761054880894C
:104E2000401C80B200F0B2F870002061676150460B
:104E30003FE70000E0000020001001400C0C0140A2
:104E40002DE9FF4F1D460C468A46580700D0012029
:104E500000EBD50069084843203A00F0FF09D0B2C2
:104E60000026DFF89CB0029045E00C2D12D0102DEA
:104E700015D0182D41D10298224900EBC00000BF87
:104E800001EB80004FF00008875D38060CD51E4806
:104E900002880DE002981D4900EB4000F0E71C4934
:104EA000029801EB0010EDE70D9828B916484288EA
:104EB00021460098FDF734F87806070E641CBBF80D
:104EC0000200A4B2A04218D9A4EB0A00A84209D15A
:104ED00000985446401C80B20090BBF800108142FC
:104EE0000BD906E008F1010000F0FF08B8F1080F47
:104EF000CBD3761CF6B24E45B7D3BDE8FF8F00008A
:104F0000E00000203866000814000020D45B000890
:104F1000486000082DE9F84F044600F0FF09101919
:104F20000D46DDE90AB61FFA80F8581987B24FF02E
:104F3000000A12E0444503D305EB0B004C4685B252
:104F4000BD420FD25B4629462046CDF800A0FFF7B0
:104F500077FF04EB5B0084B2761C3278A2F120006C
:104F60005E28E7D9BDE8F88F06494FF480720A61E0
:104F70004A154A61044B18608020486108610A6143
:104F800070470000001001400C0C014006494FF42E
:104F900080724A614A154A61044B1860802048615A
:104FA00008610A6170470000001001400C0C0140CC
:104FB00001480089FFF7EABFE000002010B50C4669
:104FC000FFF7E4FF06484FF480710161411541612C
:104FD000044A1460802242610261016110BD000038
:104FE000001001400C0C01402DE9F04186B0002476
:104FF0001C480094019402940394816941F02001BB
:105000008161816901F020010491816941F004010D
:1050100081618069144F00F004004FF480750490A2
:10502000002229463846FCF7F3FADFF840800022D8
:1050300004214046FCF7ECFA009502260125039670
:10504000CDE9015469463846FCF7DEF90420CDE984
:105050000005CDE9024669464046FCF7D5F906B0A1
:10506000BDE8F0810010024000080140001401403A
:105070000C4810B50A4901604FF4E131416000214C
:1050800081600C22C160C0E904128161C161FCF73A
:10509000F1FD002803D0BDE81040FCF7A0B910BD19
:1050A000003801409C000020FEE7FEE77047704793
:1050B000FCF7BABA30B58FB028216846FBF7E2F9A1
:1050C00014210AA8FBF7DEF901210804CDE900103C
:1050D0000024029402250491CDE907504FF4E0101A
:1050E00009906846FCF716FC08B172B6FEE70F207F
:1050F000CDE90A054FF48060CDE90C4002210AA8F1
:105100000E94FCF71BFB002801D072B6FEE70FB02F
:1051100030BD704770B5044600680169E26821F44B
:105120004051114301612169A06808436169084346
:105130002168CA6841F20C639A430243CA6020683E
:105140004169A26921F44071114341611E492068FF
:10515000884202D1FCF798FB01E0FCF785FB00EBED
:10516000C00101EB0012606864218000B2FBF0F323
:10517000B3FBF1F36FF018067343B2FBF0F5B2FB2B
:10518000F0F605EB8305322303EB0515B5FBF1F5CE
:10519000B6FBF1F605F0F00505EB0615B2FBF0F6EF
:1051A000B2FBF0F0B0FBF1F06FF01802504306EBE9
:1051B000800003EB0010B0FBF1F0216800F00F005D
:1051C0002844886070BD0000003801402DE9F0419E
:1051D000984617460E460446069D1DE0681C1BD0E7
:1051E0002DB1FCF71BFAA0EB0800A84214D92068E7
:1051F000C16821F4D071C1602068416921F00101CA
:105200004161202084F83D0084F83E00002084F8AD
:105210003C000320BDE8F0812068006836EA000009
:1052200004D00020B842D9D00020F3E70120F9E7EC
:10523000FEE7490050EAC12018BF04204A0D18BFFC
:1052400040F0010040F2FF72B2EB515F08BF40F046
:105250000200012808BF052070470907090E002831
:1052600004DB00F1E02080F80014704700F00F002C
:1052700000F1E02080F8141D704730380A2801D270
:10528000012070470020704710B504460420FCF749
:10529000D1FC0148046010BD1800002070B505461F
:1052A00000244FF47A7603E0304600F005F8641CE1
:1052B000AC42F9D370BD000070B54FF0E02400227D
:1052C00065690949A36909684843A1699942FCD005
:1052D00002D2A3EB010302E0A5EB010633441A441A
:1052E0000B468242F1D370BD180000202DE9F34F28
:1052F000884683B000224FF480716F48FCF788F92C
:10530000DFF8B8A14FF0000BDAF8000012283EDBFE
:105310004046FBF776F825210B30B0FBF1F027E093
:105320005FF01A04A4F1140081B22346F0220A208F
:10533000CDF800B0FCF7D4FE0A2600256719B9B2F3
:105340003046FFF787FA0246103FB9B23046FCF705
:10535000E7FD6D1CADB20C2DF0D3761CB6B2E62E77
:10536000EBD31034A4B2B4F5907FDBD9A9F10100DE
:1053700040B25FEA0009D3D54046FBF742F8252149
:105380000B30B0FBF1F0C0F11101CAF80010802120
:105390004B48FBF755F80398DFF828914A4C4B4DE2
:1053A0004FF6FF764FF47847052860D2DFE800F02B
:1053B0000315273B4D00FCF731F900F0ECFA002211
:1053C0004B4600F063F902460B4641A13C48CDF83C
:1053D0000080FAF72BFF268049E0FCF71FF900F068
:1053E000DAFA00224B4600F051F902460B463BA187
:1053F0003348CDF80080FAF719FF1F2011E0FCF7C1
:105400000DF900F0C8FA00224B4600F03FF90246C1
:105410000B4635A12A48CDF80080FAF707FF4FF672
:10542000E070208023E0FCF7F9F800F0B4FA0022E5
:105430004B4600F02BF902460B462EA12048CDF832
:105440000080FAF7F3FE278011E0FCF7E7F800F0A0
:10545000A2FA00224B4600F019F902460B4628A199
:105460001748CDF80080FAF7E1FE26802F80144916
:105470000C20CDE90001BAF800000A2101EB001070
:1054800081B254461023DC220A20FFF743FD0C486A
:10549000FAF7B7FF2521B0FBF1F02168012208449B
:1054A000401C2060A5F800B005B01102BDE8F04F27
:1054B0000148FCF7ADB800000008014000000020E2
:1054C0001C00002000408F40140000201600002027
:1054D00025372E33665B565D2025730025372E3326
:1054E000665B445D2025730025372E33665B575D70
:1054F0002025730025372E33665B455D202573001C
:1055000025372E33665B465D20257300FCF794F843
:10551000FFF7D0FDFFF768FDFFF7AAFD4820FFF772
:10552000B3FEFCF711FEFCF78FFC0020FCF766FCD5
:105530001E49002008801EA10120FFF7D7FE214D43
:10554000002204212846FCF763F8012211021E48BC
:10555000FCF75EF81DA10220FFF7C8FE00244FF6FD
:10556000FF764FF47A773346122220A12448FCF7C5
:10557000EBFB04212846FCF743F8102C03D0641CF5
:105580000D2C06D009E01FA10320FFF7AFFE112468
:1055900003E026A10420FFF7A9FE2DA10020FFF7BC
:1055A000A5FE3846FBF71EFFDDE7000016000020D1
:1055B0004C434420626F6F7420636F6D706C657430
:1055C00065000000001401400008014044533120F0
:1055D0004C4544206973206F6E2E20436865636BD1
:1055E000207374617475732E000000005465737429
:1055F000696E672074657374696E673F0A00000006
:105600009C0000204D696C74692D6C696E65206C7E
:105610006F6E67206D6573736167652068616E6486
:105620006C696E6720746573740000004552524FB8
:10563000523A20446F6E27742077616E7420746F25
:1056400020776F726B20616E79206D6F726500003C
:105650004D65616E696E676C657373206C6F670072
:1056600010B500290AD00878002807D005487844EA
:10567000FBF7A4FA002801D0002010BD02487844AE
:1056800010BD0000DA1D0000D21D00002DE9C04150
:1056900030B4DFF8A0C23CEA111418BF3CEA13147E
:1056A00000F0EC8081EA03051CEA111444EAD57489
:1056B00018BF1CEA131500F0C780A4EB05044FF0D7
:1056C000004545EAC12145EAC32341EA505143EA76
:1056D000525304F17F74994204F500344FEAC0201C
:1056E0004FEAC22208BF904200F09C804FEA136547
:1056F0000FF24016765D4FEA134506FB05F7C7F13A
:10570000807706FB07F74FEAD737A7FB0368764297
:10571000C8F58038A7FB06CE38BFA8F1010807FB03
:1057200008E64FF0000EA6FB028CE6FB03CEDCF190
:10573000000CCEF1004E38BFAEF1010EA6FB0C58A6
:105740004FF000074FF00005E6FB0E87A1FB08C6EF
:10575000A0FB07CE16EB0E0645F10005E1FB076541
:1057600015F1E04E7EBFA4F580345FEA46066D4138
:1057700016F1800745F100054FEA17274FEA066644
:1057800047EA0567A6F1DE46B6F1805F4FEA1525C8
:105790001FD9384624F0010C05EBC471BCF1FE6F33
:1057A00001EB0C1102D8F0BCBDE8008124425CBFC3
:1057B00001F5801E9EEAC47F02D4F0BCBDE80081E2
:1057C000244238D4F0BCA1F1C041BDE8004100F052
:1057D000EDB94FEAD22242EA43524FEAD323A7FB64
:1057E00002864FEAD02040EA415007FB03661EEADA
:1057F0000E0F4FEAD12105FB026658BFA6EB0056FB
:10580000B6EB00564FEA520E4EEAC37E18EB0E0E70
:1058100056EB530EBDD518EB02085E417F1C55F1C7
:105820000005B6E74FF480154FF000074FF0000673
:105830004FF00008ADE7F0BC4FF0000001F1C041AF
:1058400001F00041BDE8008111EA0C1F0CEA1315BC
:1058500000D00CE013EA0C1F00F025804FF0000090
:10586000F0BC81EA030101F00041BDE80081F0BC19
:10587000BDE8004181EA030100F098B9F0BCBDE841
:10588000004170B500F044F9097EFC3E00F007B815
:1058900081EA03014FF0000001F00041704781EA06
:1058A000030100F083B9F0BCBDE800414FF00000F7
:1058B00021497047FFFDFBF9F7F5F4F2F0EEEDEB4F
:1058C000E9E8E6E4E3E1E0DEDDDBDAD8D7D5D4D3FE
:1058D000D1D0CFCDCCCBCAC8C7C6C5C4C2C1C0BF4A
:1058E000BEBDBCBBBAB9B8B7B6B5B4B3B2B1B0AF50
:1058F000AEADACABAAA9A8A8A7A6A5A4A3A3A2A134
:10590000A09F9F9E9D9C9C9B9A99999897979695EE
:1059100095949393929191908F8F8E8E8D8C8C8B8A
:105920008B8A898988888787868585848483838212
:10593000828181800000FF070000F87F4FEA115349
:10594000A3F58063D3F11E03A8BFD3F1200C08DBBD
:105950004FF0004242EAC12252EA505232FA03F0BA
:10596000704709420BD4102BC4BF0020704703F5C9
:10597000787CBCF1FF3F05D04FF0FF3070474FF00F
:105980000000704770B500F0C3F800BF4992248052
:1059900000207047F0E7B0FA80F310FA03F10AD064
:1059A000C3F11D0303F580634FEA41504FEA0352F0
:1059B00002EBD12170474FF000007047DFF848C17B
:1059C00070B51CEA111E1EBF1CEA13159EEA0C0FCF
:1059D00095EA0C0F00F06F8081EA030423EA4C1370
:1059E0004EEAD47E21EA4C1141F4801143F4801335
:1059F000AE44A1FB024CA0FB0365AEF17F7E3619DD
:105A000055EB0C05A1FB034C4CF10003A0FB021C61
:105A100016EB0C06654153F10003094218BF46F02E
:105A2000010613F4007F0BD14FEA03314FEA053032
:105A3000340341EA155140EA16506FF003020AE0C0
:105A40004FEAC3214FEAC520F40241EA555140EA2A
:105A500056506FF0020202EB2E4201EB025585EA2E
:105A6000CE710AD05FEA440C18BF24F0004450F114
:105A7000000041F1000120EAD47040F2FE7C624552
:105A800000D270BDA84214BF4FF080444FF0404494
:105A9000002E08BF0024BEF1806FA8BFA1F1C04155
:105AA000BDE8704080F282804FF0000001F1C041FB
:105AB00001F0004170479EEA0C0F0CEA131518BF65
:105AC00095EA0C0F06D04FF0000081EA030E0EF0AD
:105AD000004170BD00F01CF88900013E00F007B8DD
