:020000040800F2
:1000000050070020ED010008B32D00080F2500085F
:10001000B12D0008F90200084D3B00080000000067
:10002000000000000000000000000000FD3000089B
:100030007D03000800000000B52D0008FF30000817
:10004000070200080702000807020008070200086C
:1000500007020008070200087F0300088503000864
:100060008B030008070200080702000805030008C8
:10007000070200080702000807020008070200083C
:10008000070200080000000007020008070200083D
:10009000070200080702000807020008070200081C
:1000A000070200087D310008070200080702000867
:1000B000893100080702000807020008070200084B
:1000C00007020008070200080702000807020008EC
:1000D00007020008413B0008070200080702000869
:1000E00007020008070200080702000807020008CC
:1000F00007020008070200080702000800000000CD
:1001000000000000070200080000000007020008CD
:1001100007020008000000000702000807020008AC
:10012000070200080702000807020008070200088B
:10013000070200080000000000000000070200089D
:10014000FD02000807020008000000000000000097
:10015000000000000000000000000000000000009F
:10016000000000000000000000000000070200087E
:10017000070200080000000000000000000000006E
:10018000000000000702000800000000000000005E
:10019000000000000000000000000000000000005F
:1001A000000000000000000007020008070200082D
:1001B000070200080702000807020008000000000C
:1001C000000000000702000800000000000000001E
:1001D0000702000807020008DFF80CD000F07AF8E8
:1001E00000480047C13B00085007002006488047F0
:1001F00006480047FEE7FEE7FEE7FEE7FEE7FEE70C
:10020000FEE7FEE7FEE7FEE761310008D9010008DE
:100210002DE9F05F0546002092469B46884606463B
:10022000814640241BE0284641464746224600F0CE
:1002300041F853465A46C01A914110D31146184608
:10024000224600F028F82D1A67EB01084F46224697
:100250000120002100F01FF817EB00094E41201E7D
:10026000A4F10104DFDC484631462A464346BDE896
:10027000F09FD2B201E000F8012B491EFBD270477B
:100280000022F6E710B513460A4604461946FFF762
:10029000F0FF204610BD202A04DB203A00FA02F1CC
:1002A000002070479140C2F1200320FA03F3194364
:1002B00090407047202A04DB203A21FA02F0002106
:1002C000704721FA02F3D040C2F120029140084366
:1002D00019467047064C074D06E0E06840F0010300
:1002E00094E8070098471034AC42F6D3FFF778FF44
:1002F000B03C0008D03C0008FEE70000B44800F025
:100300004DB800BF014800F0D7B900BF6C00002015
:1003100010B5104C04F18002A4F57E712034C26443
:100320000268436C8A4223F003013CBF40F600049C
:10033000C4F20204214481646FF0070151FA82F192
:100340001422B1FBF2F1012201F01F0102FA01F1C6
:10035000016510BD00080240037907490122013BF5
:1003600001F1400C01EB830103F01F039A40C0E947
:10037000151CC265704700BF00090240704701208C
:1003800000F0A4BA022000F0A1BA042000F09EBA46
:10039000704700680068C0F38070704710B503684C
:1003A000544A0F4C934205D0534A934205D14FF41F
:1003B00080020AE04FF4001207E0A4F503714FF049
:1003C00080428B4208BF4FF0005221681140914299
:1003D00018BF10BD2260BDE8104000F0BBB800BFE0
:1003E00014040140F8B504460020002C009040D0D1
:1003F0002268106800283CDB607F30B90020206252
:100400002077204600F07AF82268D2F800C0D4E9BC
:100410000103D4E9031E65691668324F18433E4054
:10042000284308435FEA0C2140EA0E0040EA060038
:100430001060106813D410F4000010D02A482B4923
:100440000068B0FBF1F0142100EB800001EB8000AC
:1004500001E000980138009000980028F9D1254962
:1004600023488A4207D024498A4207D14FF48001A9
:100470000CE0012033E04FF4001107E0A0F5FC731D
:100480004FF080419A4208BF4FF00051A2695FEAE5
:10049000827C18D0D306836854BF8B430B438360A0
:1004A0009306C36854BF8B430B43C3604161BCF1E7
:1004B000000F436854BF8B430B43D207436005D002
:1004C0000268114305E042688A434260026822EAFA
:1004D00001010160607F08B901206077002001B050
:1004E000F0BD00BF0F7E00FF30000020400D030074
:1004F00000040140000201400402014010B586B032
:10050000044601A81421FFF7BBFE20682F4988424A
:100510001CD10F48016841F00101016001A9006888
:1005200000F001000090009800200390032002904A
:10053000012001904FF0904000F0D2F940200121BD
:10054000002200F00DFB402000F0FCFA06B010BDC8
:100550004C100240B0B500681C49884200D0B0BDC4
:10056000142000F05BF91A48FFF713FF012818BFA9
:10057000B0BDD34841F211120068016A114208D19E
:10058000016A44F24442114203D1016821F00101A1
:10059000016000210F4CCC4D01224162016841F005
:1005A00001010160C748012100680171A4F5806064
:1005B0004FF40061A847204602210122A8472046A7
:1005C000022100222B46BDE8B04018470802014036
:1005D00048000020000C004890F82510022923D183
:1005E00001680A6822F00E020A60826C136823F424
:1005F0008073136001230A6822F001020A60D0E9C7
:10060000101202F01F0203FA02F24A60D0E913123C
:100610004A60416D31B10A6822F480720A60D0E903
:1006200016124A60002102E00421C1630121002268
:1006300080F82420012280F825200846704790F891
:10064000251002292ED101680A6822F00E020A60E4
:100650000A6822F001020A60816C0A6822F4807242
:100660000A60D0E9101202F01F03012202FA03F31C
:100670004B60D0E913134B60416D31B10B6823F42B
:1006800080730B60D0E916134B60002180F82410B2
:1006900080F82520826B6AB180B590470021BDE8C3
:1006A000804007E00421C163002180F8241001216B
:1006B00080F8251008467047B0B5D0E910C4DCF8C2
:1006C0000010026804F01F0E13685C0710D50424A4
:1006D00004FA0EF414EA01050AD0116889065EBF17
:1006E000116821F004011160CCF80440016B30E086
:1006F0009C0716D5022404FA0EF414EA010510D062
:100700001168890606D4116821F00A0111600121DF
:1007100080F825100021CCF8044080F82410C16A2C
:1007200017E01B0719D5082303FA0EF3194008BF79
:10073000B0BD116821F00E011160012101FA0EF225
:10074000CCF804200022C16380F8242080F8251012
:10075000416B11B1BDE8B0400847B0BD00284AD098
:10076000F8B5044602202B49142384F8250004F12F
:100770001807206801F108029042274A38BFA1F506
:10078000806138BF02F580620244B2FBF3F292004E
:10079000C4E9101247F6F072016821EA020CD4E9AC
:1007A0000223D4E9041EE0CF42EA0C021A431143AB
:1007B00041EA0E0129433143394301602046FFF7E6
:1007C000A7FDA068B0F5804F06BF0020606060689C
:1007D000C2B2A16C013803280A60D4E913124A603E
:1007E0000BD82046FFF7B8FD606D00210160D4E909
:1007F0001601416005E0012070470020C4E91500A2
:10080000E06500200121E06384F8240084F82510CD
:10081000F8BD00BF00040240F8FBFDBFB0B50446C0
:1008200000F038F90546B948611C406818BF044417
:1008300000F030F9401BA042FAD3B0BD70B50446B9
:100840001420FFF7EBFF1D4D2146284600F016F956
:10085000012818BF70BD1A4841F211120068016AE0
:10086000114208D1016A44F24442114203D10168A5
:1008700021F0010101600021042C4FF00102124E11
:100880004162016841F0010101600E4821460068A3
:1008900008BF0321425405F5806021460122B0477C
:1008A00005F50064022101222046B04720460221BE
:1008B00000223346BDE87040184700BF00040048DE
:1008C0002402002034000020870A000803490A6837
:1008D000024214BF08607047FFF7B0BF1404014024
:1008E0002DE9FC4F604A06274FF0000B4FF001093D
:1008F0004FF00008904200F1384208BF05274FEA48
:10090000B223052B38BF4FEAB227002200970C68AC
:1009100034FA02F308BFBDE8FC8F09FA02F314EAC7
:10092000030A00F09B804E6806F00304671E012F47
:100930001ED80327D0F808C0D1F80CE007FA08F950
:100940000EFA08F72CEA090C4FEA420E47EA0C07A8
:100950008760C6F3001707FA02FC476827EA03031B
:1009600043EA0C036FEA090C4FF0010943600AE007
:100970000323032CC64603FA08F36FEA030C02D1E3
:10098000C64603241EE0C3688F68022C03EA0C03EA
:1009900007FA0EF743EA0703C36013D16FF00305AC
:1009A0000BF01C030F2405EA52069C400644376AEC
:1009B00027EA04040F6907FA03F3234333624E68FE
:1009C00006F00304076804FA0EF316F4403F07EA42
:1009D0000C0743EA0703036040D0264B234D264C07
:1009E0000BF00C061F461B68A44643F001033B6056
:1009F0003B6803F00103019322F00303019F2B44A2
:100A00001F590F24B440A743009C04FA06F637434D
:100A100043F80C70AB684E6843EA0A07F40258BF0B
:100A200023EA0A07124BAF60B4029C461B6843EAF4
:100A30000A0758BF23EA0A07CCF80070B4036B68B2
:100A400043EA0A0758BF23EA0A076F60F6032B68D8
:100A500043EA0A0758BF23EA0A072F600BF1040B89
:100A600008F10208013252E7001400480004014076
:100A70000C0401406010024008FCFFFF00690840C0
:100A800018BF012070471823002A08BF2823C1502F
:100A90007047000005480068704700BF1B480349C5
:100AA00040680A6810440860704700BF4C0300208B
:100AB00080B5032000F072F8002000F007F808B1BC
:100AC000012080BD00F024F8002080BD70B50F4EDD
:100AD00004467068B0B14FF47A71B1FBF0F0604930
:100AE0000968B1FBF0F000F095FE01250F2C0AD843
:100AF00048B94FF0FF3021460022002500F030F8C1
:100B0000346000E00125284670BD00BF24000020AD
:100B100082B00B48816841F001018160816801F079
:100B2000010101910199016841F080510160006863
:100B300000F080500090009802B000F095B800BF1F
:100B400058100240002808DB00F01F010122400974
:100B500002FA01F1014A42F82010704700E100E07A
:100B600080B5144B1B68C3F3022CBCF1030E8CF050
:100B700007034FF0FF3C38BF4FF0000E042B28BF97
:100B800004230CFA03F399430CFA0EF301FA0EF165
:100B90009A431143BDE8804002F0DABF05494FF6A1
:100BA000FF030A681A4060F30A22034810430860F2
:100BB000704700BF0CED00E00000FA0520B3B94912
:100BC000B0F5007F0A6845D1D1F8800040F480700C
:100BD000C1F8800002F4C060B0F5806F3ED10868B3
:100BE000012262F34A20322208601D480068504307
:100BF0001C4AB0FBF2F0C0434A6918B1013012F44C
:100C00008062F9D1486920E0A6480168D0F88020C8
:100C100001F4C06122F48072B1F5806FC0F88020C9
:100C20001CD10168012262F34A21322201600C4981
:100C3000096851430B4AB1FBF2F1C943426919B14A
:100C4000013112F48062F9D14069400544BF0320AC
:100C5000704703E0022060F34A220A6000207047D8
:100C60003000002040420F000248016841F48041FA
:100C700001607047087000402DE9FC41044680780F
:100C8000874E000701D400205DE0F06CC0000BD45B
:100C9000F06C4FF0010840F08050F064F06C00F010
:100CA00080500190019801E04FF000087D4F3868B6
:100CB00040F480703860FFF7EDFE05463868C005E7
:100CC00006D4FFF7E7FE401B0228F7D9032033E0E4
:100CD000D6F8840010F4407025D0216C884211D0E1
:100CE000D6F88400D6F8841041F4803120F44070A6
:100CF000C6F88410D6F8841021F48031C6F8841028
:100D0000C6F88400C0070ED0FFF7C4FE054641F2C6
:100D10008837D6F88400800705D4FFF7BBFE401B58
:100D2000B842F6D9D2E7D6F88400216C20F440709E
:100D30000843C6F884000020B8F1000F1EBFF16C14
:100D400021F08051F1642168CA0705D0F26F636811
:100D500022F003021A43F2678A0705D5F26FA368EF
:100D600022F00C021A43F2674A0705D5F26FE368D6
:100D700022F030021A43F2670A0705D5F26F2369A1
:100D800022F0C0021A43F2678A0605D5F26F636942
:100D900022F440621A43F2674A0605D5F26FA3694E
:100DA00022F440521A43F2670A0605D5F26FE3694E
:100DB00022F440421A43F267CA0505D5F26F236A4E
:100DC00022F440321A43F2678A0505D5F26F636A4E
:100DD00022F440221A43F2674A050DD5F26FA36A46
:100DE00022F44012B3F5801F42EA0302F26702BF09
:100DF000326842F4801232600A050DD5F26FE36A60
:100E000022F44002B3F5800F42EA0302F26702BF08
:100E1000326842F480123260CA040DD5F26F236B3F
:100E200022F04072B3F1807F42EA0302F26702BF10
:100E3000326842F4801232608A040DD5F26F636B1F
:100E400022F04062B3F1006F42EA0302F26702BF90
:100E5000326842F4801232604A040DD5F26FA36BFF
:100E600022F04062B3F1006F42EA0302F26702BF70
:100E7000326842F48012326009040DD5F16FE26BE2
:100E800021F04051B2F1805F41EA0201F16702BFF7
:100E9000316841F48031316002B0BDE8F08100BFBB
:100EA0000C100240007000402DE9F047002854D09B
:100EB000724B04460D46186800F00F00884209D2B4
:100EC000186820F00F0028431860186800F00F0021
:100ED000A84242D12068934E9A46C107B14602D13A
:100EE0004FF000086BE06168032930D156F8081C08
:100EF000890132D57168726873687768B4460226D2
:100F0000C7F3416701F0030106EB4707864E03294B
:100F100004BF43F20066C0F26E16C2F30311C3F3BE
:100F200006220131B6FBF1F15143554AB1FBF7F10D
:100F3000914224D9DCF80010664611F0F00F16D06B
:100F4000800701D5A06890B14FF000081AE056F86C
:100F5000080C022904D1800304D40120BDE8F087E5
:100F60004005FAD500F0AEF845498842ECD9306822
:100F700008214FF0800861F30710306002E04FF065
:100F8000000866463068616820F00300084330605E
:100F9000FFF780FD064641F288374846D9F8000041
:100FA000616800F00C00B0EB810F05D0FFF772FD17
:100FB000801BB842F1D939E020684E46534681077C
:100FC00006D4B8F1800F16D1316821F0F00111E09C
:100FD000410742BF316841F4E0613160010704D547
:100FE0003168072262F30D2131603168A26821F077
:100FF000F00111433160196801F00F01A9421AD9BB
:10100000186820F00F0028431860FFF743FD0646DC
:1010100041F288375046DAF8000000F00F00A8428D
:1010200007D0FFF737FD801BB842F3D90320BDE896
:10103000F08720684E46410705D53168E26821F403
:10104000E06111433160000706D53068216920F462
:10105000605040EAC100306000F034F83168094A5D
:10106000C1F30311515C01F01F01C840134908602E
:1010700005480068BDE8F047FFF728BD00200240A2
:1010800000B4C4046E3C0008240000200B4825492D
:101090000B4A00680968C1F30221515C01F01F018D
:1010A000C840704705481F49054A00680968C1F3F0
:1010B000C221515C01F01F01C84070473000002080
:1010C0007E3C00081749184A086800F00C00042804
:1010D000104608BF7047086800F00C031348082B3F
:1010E0001ED00B6803F00C030C2B1CBF00207047B4
:1010F0004B6803F00303032B08BF02464868C0F3A4
:1011000003100130B2FBF0F04A68C2F306224968CE
:1011100050430222C1F3416102EB4101B0FBF1F007
:10112000704700BF081002400024F40000366E0132
:101130002DE9FC41002800F0AA8104460078DF4E2A
:10114000C0071ED12078800747D42078000740F1DF
:101150009A806169D6F89400002900F0838040F0FD
:101160000100C6F89400FFF795FC0546D6F89400F8
:10117000800700F18880FFF78DFC401B0228F5D91D
:10118000C9E0B168F06801F00C0108294BD00322D6
:1011900081F00C0122EA00000844B0FA80F0400916
:1011A00041D16768B7F5803F07D03068B7F5A02F09
:1011B00040F0CC8040F480203060306840F48030D3
:1011C0003060FFF767FC054630688003BAD4FFF74C
:1011D00061FC401B6428F7D99DE0B068F16800F01D
:1011E0000C00042828D001F0030180F00C0081F0ED
:1011F00002010844B0FA80F040091DD1E16830686E
:10120000002900F08A8040F480703060FFF742FCD3
:1012100005463068400500F19180FFF73BFC401B1C
:101220000228F6D977E0306880037FF58BAF6068DD
:1012300000287FF487AF2AE13068400503D5E068D5
:10124000002800F024817068216920F0FE4040EA07
:1012500001607060C0480068FFF738FC002840F06B
:10126000168172E720F00100C6F89400FFF712FC27
:101270000546D6F89400800705D5FFF70BFC401B08
:101280000228F6D947E02078400740F19A80B06DF7
:10129000C0000BD4B06D4FF0010840F08050B06535
:1012A000B06D00F080500190019801E04FF000080F
:1012B000AA4F3868C0050FD4386840F48070386091
:1012C000FFF7E8FB05463868C00505D4FFF7E2FBE9
:1012D000401B0228F7D91EE0A768012F07D0D6F8D7
:1012E0009000052F4AD140F00400C6F89000D6F8CF
:1012F000900040F00100C6F89000FFF7CBFB0546D8
:1013000041F28837D6F89000800753D4FFF7C2FB2C
:10131000401BB842F6D90320BAE020F48070306058
:10132000FFF7B8FB0546306840057FF50EAFFFF7C5
:10133000B1FB411B03200229F5D9A9E0706821699E
:1013400020F0FE4040EA01607060FEE620F480304C
:101350003060306820F480203060FFF79BFB05464A
:10136000002F7FF431AF306880037FF5EBAEFFF7DD
:1013700091FB411B03206429F5D989E020F001008D
:10138000C6F89000D6F8900020F00400C6F890004F
:10139000FFF780FB0546002FB2D141F28837D6F81F
:1013A0009000800706D5FFF775FB411B0320B9426B
:1013B000F5D96DE0B8F1000F1EBFB06D20F0805080
:1013C000B0652078800627D5A169D6F8980089B144
:1013D00040F00100C6F89800FFF75CFB0546D6F820
:1013E0009800800718D4FFF755FB411B0320022902
:1013F000F5D94DE020F00100C6F89800FFF74AFB50
:101400000546D6F89800800706D5FFF743FB411B39
:1014100003200229F5D93BE0E069002800F09A801A
:10142000B16801F00C010C2935D101282FD0F068EA
:10143000216A00F003028A4229D1616A6FF00F022B
:1014400002EB011100F0F0028A4220D1A16A00F4FF
:10145000FE42B2EB012F1AD1E16A00F07842B2EB02
:10146000C16F14D1216B404A02EA015100F4C0025D
:10147000A1F500118A420AD1616B4FF07E4200F063
:10148000C06002EA016101F17E41884262D0012020
:1014900002B0BDE8F0813168022821F0807131602E
:1014A0000ED1FFF7F7FA0546306880011DD5FFF72A
:1014B000F1FA411B03200229F6D9E9E700100240A6
:1014C000F068274920F00300F060F0680840F06001
:1014D000FFF7E0FA0446306880013BD5FFF7DAFAFF
:1014E000011B03200229F6D9D2E704F12007F06896
:1014F0006FF00F058ECF05EB02121A4D28400843FE
:10150000216B1043184A40EA032002EA01514FF0D0
:101510007E42A1F500110843616B40EAC76002EA10
:10152000016101F17E410843F060306840F0807055
:101530003060F06840F08070F060FFF7ABFA04466E
:101540003068800106D4FFF7A5FA011B03200229A9
:10155000F6D99DE700209BE72400002000700040A2
:10156000FFFFEEFE0C809F010000E0FF10B578B396
:10157000044690F8250028B9002084F8240020466D
:1015800000F03EF80220CA2184F82500206841625C
:1015900053214162204601F067FDA8B92068174A2F
:1015A00081691140816161682269A369114382697F
:1015B000194311438161D4E9021242EA01410161F8
:1015C000204601F074FD28B12168FF224A6210BD57
:1015D000012010BD20688169D4F814C0D4E9073215
:1015E00021F060411143194341EA0C018161FF215F
:1015F0004162012084F82500002010BDBFFF8FFB51
:1016000010B592B0044601A84421FEF739FE2068C7
:101610000F49884219D14FF4007011904FF4002007
:10162000019001A8FFF728FB08B1FEF7B1FE0948B9
:10163000816B41F400418163016841F48061016084
:10164000006800F480600090009812B010BD00BFE8
:1016500000280040581002402DE9F0410D4690F856
:10166000241004460220012908BFBDE8F08184F857
:1016700025000120002A84F8240006D06878E97843
:10168000AE78000240EA014714E06F78DFF8488145
:10169000F80642BF07F0EF0000F10A076F70E87824
:1016A000C0470646F8B2C047000240EA0647A8789D
:1016B000C04706462068CA212D7841625321416205
:1016C000204601F0D1FC18B12168FF224A6213E0E4
:1016D00047EA0600216820F0C00040EA4530486033
:1016E000204601F0E4FC2168FF2200284A6203D171
:1016F000012084F825000020002184F82410BDE892
:10170000F08100BF2DE9F0470D4690F82410044603
:101710000220012908BFBDE8F08784F825000120D8
:10172000CA21164684F82400206841625321416290
:10173000204601F099FC18B12168FF224A6246E078
:101740002768002EB86900F040000FD0002807BFBE
:101750004FF0000985F80390E8784FEA80596A78DD
:101760002978A878120242EA014614E0002807BF4F
:101770004FF0000985F80390E8784FEA8059DFF8C8
:1017800058A02878D04780466878D047000240EAC1
:101790000846A878D0473043104940EA090008407D
:1017A0003860B86920F48020B861D5E90301BA69CE
:1017B00008431043B861204601F079FC2168FF22FC
:1017C00000284A6203D1012084F82500002000216E
:1017D00084F82410BDE8F0873D3000087F7F7F004B
:1017E000B0B504460068C16821F02001C160FFF770
:1017F00051F905462068C068800644BF0020B0BD8E
:10180000FFF748F9401BB0F57A7F84BF0320B0BDD5
:10181000F0E70000411E0020B0EB116F1CBF01205B
:101820007047044AF023516003490B700721906010
:101830001160704710E000E023ED00E07047704752
:101840007047000090F83C20012A01D1022151E0AC
:10185000F0B50122284D80F83C20D1E900C3D1E940
:1018600002422B4024F4705522F47C52464C2A4309
:101870001A432CF477231A430B6923F476231A4373
:101880004B691A430B6B22F4742223F470231A431E
:101890008B6942EA03430268A24202D08C4DAA42FD
:1018A00003D1CD6923F080532B43A24202D0884D4F
:1018B000AA4219D1A4460D6AD1E909460F4F23F077
:1018C0007C73624507EA065743EA070325F0007771
:1018D00043EA070343EA040302D07D4CA24203D14A
:1018E000C96A23F000530B430021536480F83C1075
:1018F000BDE8F04008467047FF87F0FF0000F0FCAD
:10190000704770477047000090F83C300222012B6E
:1019100037D070B580F83D2001221B4D80F83C2067
:10192000026854689368AA4202D0694EB24203D159
:101930004E6824F470043443144EB2F1804F06EA2A
:1019400004060C6846EA040656600DD05C4CA242C0
:101950000AD05C4CA24207D05D4CA24204D00C4C91
:10196000A24201D0AA4204D1896823F0800319431E
:1019700091600022012180F83C2080F83D10BDE8F4
:1019800070401046704700BF003401408FFFFFFDDC
:1019900000400140704760B310B5044690F83D0028
:1019A00028B9002084F83C00204600F025F80220E9
:1019B000211D84F83D00206801F0ECFB012084F833
:1019C000480084F83E0084F83F0084F8400084F822
:1019D000410084F8420084F8430084F8440084F80D
:1019E000450084F8460084F8470084F83D00002054
:1019F00010BD012070470000E0B50068B0F1804FD5
:101A000023D02F49884234D02E4988423AD02E49DB
:101A1000884240D02D49884246D02D49884218BF7F
:101A20008CBD2C480022816841F400618160002156
:101A3000806800F40060019001981920FFF790F889
:101A40001920BDE88C40FFF77DB8224800220168CC
:101A500041F0010101600021006800F001000190E7
:101A600001981C20FFF77CF81C20BDE88C40FFF794
:101A700069B81848016841F002010160006800F08F
:101A8000020019E01348016841F004010160006898
:101A900000F0040010E00F48016841F010010160FF
:101AA000006800F0100007E00A48816841F48021D6
:101AB0008160806800F48020019001988CBD00BF97
:101AC00000040040000800400010004000480140B1
:101AD000002C01405810024010B590F83C200446FC
:101AE0000220012A08BF10BD84F83D0001203E4BB2
:101AF00084F83C00206882681A4082600A688AB3D1
:101B0000102A2FD0202A2DD0302A2BD0402A38D08E
:101B1000502A41D0602A4AD0344B9A4222D0B2F5A2
:101B2000805F26D0B2F5005F4CD0B2F1101F19D003
:101B30002F4B9A4216D02F4B9A4213D02E4B9A42DB
:101B400010D0702A4DD1D1E90123C9681A4342EA65
:101B50000121826822F47F4211438160816841F053
:101B6000770105E08168254B1940114341F00701D9
:101B700081600020002184F83C10012184F83D1090
:101B800010BD4B68CA68194601F036FD20681B4A33
:101B9000816811404731EBE74B68CA68194601F08C
:101BA0002BFD2068154A816811405731E0E74B68EA
:101BB000CA68194601F031FD2068104A8168114059
:101BC0006731D5E7D1E90123C9681A4342EA012107
:101BD000826822F47F4211438160816841F4804130
:101BE000C6E70120C6E700BF8800CEFF70001000E6
:101BF00020001000300010004000100088FFCFFFD0
:101C0000704710B5044600680169890744BFC16880
:101C10005FEA81715BD40169490744BFC1685FEA2B
:101C2000417160D40169090744BFC1685FEA01716D
:101C300066D40169C90644BFC1685FEAC1616BD45B
:101C40000169C9071CBFC1685FEAC17171D101692F
:101C5000090644BFC1685FEA016172D40169C90520
:101C600044BFC1685FEA016173D40169490644BF9A
:101C7000C1685FEA416174D40169890644BFC168E3
:101C80005FEA816175D40169C90244BFC1685FEA36
:101C9000C12176D40169890244BFC1685FEA81210C
:101CA00077D40169490244BFC1685FEA412178D411
:101CB0000169090246BFC1685FEA012110BD6FF4E6
:101CC000000101612046BDE81040FFF763BE6FF0E0
:101CD00002010161012121778069800769D02046D6
:101CE000FFF78EFF6BE06FF00401016102212177A5
:101CF000806910F4407F66D02046FFF781FF68E0DE
:101D00006FF00801016104212177C069800764D068
:101D10002046FFF775FF66E06FF0100101610821B2
:101D20002177C06910F4407F61D02046FFF768FF3B
:101D300063E06FF001010161204600F035F9206891
:101D400085E76FF0800101612046FFF778FD20688C
:101D500084E76FF4807101612046FFF76FFD206812
:101D600083E76FF040010161204600F04DF92068E3
:101D700082E76FF0200101612046FFF761FD2068D6
:101D800081E76FF4801101612046FFF7BAFD2068FA
:101D900080E76FF4001101612046FFF7B1FD206874
:101DA0007FE76FF4800101612046FFF7ABFD2068FB
:101DB0007EE7204600F066F8204600F0F3F80020A9
:101DC0002077206827E7204600F05CF8204600F0E6
:101DD000E9F800202077206824E7204600F052F838
:101DE000204600F0DFF800202077206821E7204619
:101DF00000F048F8204600F0D5F800202077206851
:101E00001EE7000010B586B0044601A81421FEF7B5
:101E100037FA20681849884214D01849884229D1D5
:101E20001748016841F0010101600021006800F0DD
:101E3000010000900098022005900491CDE9020174
:101E4000402011E00E48016841F001010160006886
:101E500000F0010000900098012005900020CDE9DD
:101E60000300022002908020019001A94FF09040D1
:101E7000FEF736FD06B010BD0048014000040040EA
:101E80004C10024070470000B0B5044690F83C008A
:101E9000012804BF0220B0BD0D464FEAB201012067
:101EA000052984F83C0048D8DFE801F0030B131B38
:101EB00023332068294601F0E3F9206850F8181F01
:101EC0001EE02068294601F00FFA206850F8181F1C
:101ED00026E02068294601F03FFA206850F81C1FD0
:101EE0000EE02068294601F071FA206850F81C1FA6
:101EF00016E02068294601F0A3FA206850F8501F28
:101F000041F008010160016821F0040101602969C4
:101F10000FE02068294601F0C1FA206850F8501FF0
:101F200041F400610160016821F480610160296968
:101F300009020268114301600020002184F83C106E
:101F4000B0BD60B310B5044690F83D0028B900203C
:101F500084F83C00204600F024F80220211D84F87B
:101F60003D00206801F016F9012084F8480084F84B
:101F70003E0084F83F0084F8400084F8410084F873
:101F8000420084F8430084F8440084F8450084F853
:101F9000460084F8470084F83D00002010BD012071
:101FA00070477047704700000349884218BF704768
:101FB00002484068006900472402002038000020E1
:101FC000B0B590F83C2004460220012A08BFB0BDFD
:101FD00084F83D000125204684F83C5001F08EFA3B
:101FE00000284FF0010009D12068C16821F04001AC
:101FF000C160C16821F48041C1600020002184F8E3
:102000003C1084F83D50B0BD704790F88010012915
:1020100001D1022112E02421C0F884100268136863
:10202000116821F0010123F0005311600021416685
:102030001360202280F88010C0F884200846704782
:1020400070477047B0B5044690F88000012804BF7F
:102050000220B0BD2420C4F88400012084F8800050
:1020600020680568026822F001020260826822F09E
:10207000606211438160204601F0E0FA206820216F
:102080000560002084F88000C4F88410B0BDB0B5AD
:10209000044690F88000012804BF0220B0BD24202F
:1020A000C4F88400012084F8800020680568026874
:1020B00022F001020260826822F0604211438160D6
:1020C000204601F0BBFA206820210560002084F83A
:1020D0008000C4F88410B0BD70477047704700009E
:1020E000B0B50446006840F60F01C2690568D0F833
:1020F00008C00A4200F08980B749B84B29400CEA71
:10210000030E11EB0E0100F08A80D10718BF15F401
:10211000807107D001210162D4F88C1041F00101D7
:10212000C4F88C100CF00103910708D53BB10221D3
:102130000162D4F88C1041F00401C4F88C105107EE
:1021400008D53BB104210162D4F88C1041F00201A2
:10215000C4F88C1011070CD505F0200151EA0E01CE
:1021600007D008210162D4F88C1041F00801C4F8AE
:102170008C1011050BD515F0806108D04FF400616B
:102180000162D4F88C1041F02001C4F88C10D4F80E
:102190008C10002900F0F58091060AD505F0200189
:1021A0000CF08052891804D0216F11B12046884765
:1021B0002068D4F88C10806801F0280100F04000FD
:1021C000401800F0D880204601F006FB20688168A6
:1021D000490601D4CAE0206850E8020F216820F0C7
:1021E000400041E80202002AF5D1E06F002800F02B
:1021F000BD807B498163FEF722FA002800F0C18090
:10220000E06F816BBDE8B0400847910607D505F047
:1022100020010CF08053C91801D0216FA1E005EA1C
:102220000203D906E16E39D5012937D110210162A7
:10223000816849063FD4B4F85E10B4F85C20B4F865
:102240005E30002B00F09D80511A0A0401D198E005
:10225000206850E8000F226820F4907042E80003E4
:10226000002BF5D15F48226852E8022F2368024014
:1022700043E80225002DF6D12020C4F88800002074
:102280002067E066206850E8000F226820F0100008
:1022900042E80003002BF5D189B253E0D10256D5B4
:1022A0001CF4800153D04FF4801101622046BDE838
:1022B000B040FFF712BFE16F0A68536899B2002976
:1022C0005FD0B4F85CC061455BD2A4F85E301168A1
:1022D000890601D531E0206850E8000F216820F41C
:1022E000807041E80002002AF5D1206850E8020F12
:1022F000216820F0010041E80202002AF5D120689F
:1023000050E8020F216820F0400041E80202002A54
:10231000F5D12020C4F888000020E066206850E84D
:10232000000F216820F0100041E80002002AF5D1DA
:10233000E06FFEF751F9B4F85CC0B4F85E00ACEBA6
:10234000000081B22046BDE8B040FFF779BE11061B
:1023500018D505F0800E0CF4000111EB0E0111D020
:10236000616F71B12046BDE8B04008472046BDE826
:10237000B040FFF7B3BE2046FFF7B0FE0020C4F820
:102380008C00B0BD59060AD410021BD515F0804050
:1023900018D02046BDE8B040FFF79EBE206850E848
:1023A000000F216820F0400041E80002002AF5D12A
:1023B000002060672020C4F884002046BDE8B040BB
:1023C00000F0A4B8D001DCD5B5F1FF3FD9DC204640
:1023D000BDE8B040FFF735BE200100040100001049
:1023E000C9370008FEFFFFEF10B5B0B10446D0F8C2
:1023F000840028B9002084F88000204600F026F8E8
:102400002420C4F884002068016821F001010160E3
:10241000204601F00FFA012801D1012010BDA06A69
:1024200010B1204601F034F92068416821F4904150
:102430004160816821F02A018160016841F0010159
:1024400001602046BDE8104001F08BB970B598B02E
:10245000044613A81421FDF713FF02A84421FDF739
:102460000FFF20682649884248D1002601200396A4
:10247000029002A8FEF700FC08B1FDF789FF624850
:10248000416941F480414161416901F48041019118
:102490000199016841F00101016013A9006800F091
:1024A000010001900198072017900220CDE91566E0
:1024B00014904FF4C06013904FF09040FEF710FA64
:1024C000104D114B2020802118222E62C5E90032C8
:1024D000C5E90266C5E90416C5E906602846FEF7A7
:1024E0003DF908B1FDF754FF252001210022E567E1
:1024F000AC62FEF735FB2520FEF724FB18B070BD5B
:10250000003801406C000020080002407047FEE7E0
:10251000FEB503204FF6FF71049000200290019158
:10252000059003900B4801A9FEF7DAF906B080BDCB
:10253000FEB5032001A90490012002904FF6FF7020
:1025400001900020059003900248FEF7C9F906B0FB
:1025500080BD00BF00080048B0B50446002000213F
:1025600000F0C6F800F002F94FF4963503E020467B
:1025700000F0D6F8013D002DF9D1B0BDF0B587B01F
:1025800000262148214C012702AD0696016841F042
:1025900004010160016801F00401019101990168E1
:1025A00041F001010160016801F00101019101990F
:1025B000016841F0020101602946006800F0020054
:1025C00001900198059603974FF4487002902046B9
:1025D0000496FEF785F94FF4807005960397294617
:1025E00002904FF090400496FEF77AF9FFF7A0FFB3
:1025F0000748215841F480712150A06940F40870C7
:10260000A06107B0F0BD00BF4C10024000040048BC
:1026100018FCFFFF10B5FFF7B1FF002000F014F821
:10262000084C48F2302120802088884202D100F0F6
:10263000C3FB01E000F036FC002000F005F820802C
:1026400010BD00BF42000020B0B5214CD4F81014DA
:1026500041F40071C4F81014D4F8101441F48071DE
:10266000C4F81014D4F8001441F02001C4F8001488
:1026700018490860D4F8100440F02000C4F8100491
:1026800000BF00BF00BFD4F8000440F02000C4F831
:102690000004D4F8000440F48070C4F80004FFF78C
:1026A00037FF206940F48070206100BF00BF00BF89
:1026B000D4F8F857206840F480702060FFF738FFA6
:1026C000D4F8000440F40070C4F80004A8B2B0BD0F
:1026D000180000481408004881B0ADF80200034813
:1026E000BDF80210018001B0704700BF2C0000202F
:1026F00010B50C460146202000F060F8212021464C
:10270000BDE8104000F05AB881B0ADF802000348AF
:10271000BDF80210018001B0704700BF40000020EA
:102720003E490A6942F400720A610A6842F4807202
:102730000A600A6842F020020A60C1F8FC030869D6
:1027400040F02000086100BF00BF00BF086840F0F3
:1027500020000860086840F48070086000BF00BF77
:1027600000BF086840F40070086070472B4801699A
:1027700041F400710161016941F4807101610168F6
:1027800041F0200101602221C0F8FC13016941F0F1
:102790002001016100BF00BF00BF016841F02001BE
:1027A0000160016841F48071016000BF00BF00BF9B
:1027B000016841F400710160704700BF174A136956
:1027C00043F400731361136943F480731361136856
:1027D00043F020031360C2F8FC03106940F02000AE
:1027E000106100BF00BF00BF106840F02000106003
:1027F000106840F480701060C2F8FC13106940F05B
:102800002000106100BF00BF00BF106840F0200032
:102810001060106840F48070106070471804004821
:1028200080B50B480B4A0C4B00214FF0210CC0E93E
:102830000031C0E90221C0E90411C0F818C0FDF759
:10284000D1FD002814BFBDE8804080BDFDF7A0BDCC
:10285000480000201000C00008020140E0B50E480A
:102860000022016841F004010160016801F00401E7
:1028700001910199016841F00101016000210068A6
:1028800000F00100009000980B20FEF769F90B2082
:10289000BDE88C40FEF756B9481002402DE9F04FD4
:1028A00087B000245348554E01224FF47F454FF026
:1028B00001080694016841F004010160016801F01B
:1028C000040101910199016841F020010160016852
:1028D00001F0200101910199016841F001010160BD
:1028E000016801F0010101910199016841F00201C3
:1028F0000160016801F0020101910199016841F054
:10290000080101604FF47F41006800F00800019069
:102910000198394800F5806781463846B047384607
:10292000FF2100224FF0FF0AB0474FF090404FF4D4
:1029300090710022B04709F5006B0421002258462F
:10294000B04748464FF478710022B047CDE904847F
:10295000CDE9025802AE2A4D38463146A8473846DE
:102960003146CDE90444CDE902A8A84710204FF430
:102970008817314602904FF0904004940397A8477F
:102980004FF49070CDE904443146CDE902084FF090
:102990009040A8470720CDE903743146029048468D
:1029A000A84702203146049004200594CDE902088E
:1029B0005846A8474FF478700594CDE90384314612
:1029C00002904846A8470F4C062001210022A0474C
:1029D0000D4D0620A847072001210022A04707200F
:1029E000A847082001210022A0470820A84707B0D7
:1029F000BDE8F08F4C10024000040048870A000830
:102A0000E1080008610B0008450B0008B0B586B06E
:102A100001A81421FDF734FC19481A4D00244FF089
:102A20008041FF227F230462C0E90054C0E90232E2
:102A3000C0E90444C0E906410094FEF797FD08B1DF
:102A4000FDF7A6FC5520CDE90444029401A901221A
:102A50008DF8060045F21200ADF804000848FEF7B4
:102A600051FE08B1FDF794FC074869460122009029
:102A70000348FEF7F1FD08B1FDF78AFC06B0B0BDD2
:102A8000CC0000200028004001010100B0B594B046
:102A90000DAC1C212046FDF7F3FB68463421FDF701
:102AA000EFFB1E481E4D2723002140F2E732C0E90C
:102AB0000053C0E90212C0E904118161FEF76BFF07
:102AC00008B1FDF765FC1548FFF73BFA08B1FDF7C3
:102AD0005FFC602018210D90201DFDF7D1FB0F48F1
:102AE000214600220025FFF7CFF908B1FDF750FC81
:102AF0006C4614212046FDF7C3FB4FF400500C95A3
:102B00000695214605900548FEF79CFE08B1FDF7A5
:102B10003FFC0248FFF776F914B0B0BD4001002039
:102B20000048014080B588B003A81421FDF7A8FB38
:102B30001548164B002140F69F72C0E90031C0E9EC
:102B40000212C0E9041181610291CDE90011FEF782
:102B500022FF08B1FDF71CFC202003A904900720E8
:102B600003900948FFF72CFA08B1FDF711FC00208B
:102B700069460290CDE900000348FEF7C5FE08B1A2
:102B8000FDF706FC08B080BDF4000020002C0140D9
:102B900080B588B003A81421FDF772FB1548002109
:102BA00041F26F724FF080438161C0E90031C0E9AA
:102BB000021201610291CDE90011FEF7ECFE08B1AD
:102BC000FDF7E6FB202003A90490072003900948A5
:102BD000FFF7F6F908B1FDF7DBFB0020694602902C
:102BE00000900448FEF790FE08B1FDF7D1FB08B055
:102BF00080BD00BF8C01002010B58EB00024684657
:102C00001C210D94CDE90B44CDE90944CDE90744DD
:102C1000FDF736FB1E481F4B40F2E7314F2284611F
:102C2000C0E90032C0E902410461FEF7B4FE08B118
:102C3000FDF7AEFB4FF480500AA90A901448FEF746
:102C40004BFF08B1FDF7A4FB1148FFF77AF908B173
:102C5000FDF79EFB802007A90990202007900C48D3
:102C6000FEF752FE08B1FDF793FB002069460022F3
:102C70000490CDE90100602000900548FFF704F9B9
:102C800008B1FDF785FB0248FFF7BCF80EB010BD98
:102C9000D80100200004004080B588B003A81421AA
:102CA000FDF7EEFA1448154B002140F2E73281613E
:102CB000C0E90031C0E9021201610291CDE90011C1
:102CC000FEF769FE08B1FDF763FB202003A904901D
:102CD000072003900848FFF773F908B1FDF758FB88
:102CE00000206946029000900348FEF70DFE08B1EF
:102CF000FDF74EFB08B080BD240200200008004014
:102D00001FB50F480F4B002440F2CF7141F63F72C0
:102D10008461C0E90032C0E902410394CDE9014475
:102D2000FEF739FE08B1FDF733FB054801A903940E
:102D30000194FEF7E9FD08B1FDF72AFB1FBD00BFB6
:102D4000700200200010004010B5174C174B4FF4D4
:102D500016520C200021C4E90032C4E90211C4E972
:102D6000041004F118001421FDF78AFA2046FFF739
:102D70003BFB08B1FDF70CFB0B480021FFF787F97F
:102D800008B1FDF705FB08480021FFF75BF908B122
:102D9000FDF7FEFA0448FFF738F9002814BFBDE834
:102DA000104010BDFDF7F4BABC020020003801400D
:102DB000FEE770477047000010B59E4C00200121CF
:102DC000A04701200021A047102041F29071A047A8
:102DD00060204FF41C51A04761200121A0474620EC
:102DE0000221A047132048F21001A0472C48EE30E2
:102DF00081B21220A04702204FF4A061A047032017
:102E000041F23001A047302040F20331A047312089
:102E100040F20331A047322040F20331A047332073
:102E20004FF44071A04734200321A047352040F2E1
:102E30000331A04736201421A047372040F2033148
:102E4000A047382040F20331A047392040F2033137
:102E5000A0473A204FF44071A0473B200321A047F0
:102E60003C2040F20331A0473D204FF4A051A04741
:102E700092204FF40071A047932040F20331A04705
:102E8000902040F60D01A047032041F21801A04711
:102E9000072040F273112246BDE81040104700BFE2
:102EA0001080FFFFB0B5634DE32043F20801A8474F
:102EB000E7201221A847EF2041F23121A847012045
:102EC0000021A84702204FF4E061A847032041F207
:102ED0003001A84704200021A847082040F207211C
:102EE000A84709200021A8470A200021A8470C2054
:102EF0000021A8470D200021A8470F200021A84746
:102F000010200021A84711200721A84712200021E6
:102F1000A84713200021A847474CC820A0471020ED
:102F200041F29061A847112040F22721A8473220A2
:102F3000A04712201D21A8473220A04713204FF49C
:102F40000061A84729201421A8472B200B21A8475E
:102F50003220A04720200021A84721200021A84797
:102F600030200721A847312040F20771A8473220BE
:102F70000621A847352040F20471A847362041F6C3
:102F80000471A84737200421A84738200021A8470A
:102F9000392040F20671A8473C2040F20171A84751
:102FA0003D200F21A84750200021A8475120EF21A4
:102FB000A84752200021A847532040F23F11A847BC
:102FC00060204FF41C51A84761200121A8476A20C6
:102FD0000021A84780200021A84781200021A84780
:102FE00082200021A84783200021A84784200021B7
:102FF000A84785200021A84790201021A8479220AB
:103000000021A84793200321A84795204FF48871F9
:10301000A84797200021A84798200021A84703200F
:1030200041F21801A847072040F273112A46BDE873
:10303000B0401047BD2700081D08000801460928B8
:103040004FF00A0328BF0921C94301440A31CAB21B
:10305000B2FBF3F202EB8203A1EB4303591A0844DB
:1030600040EA0210C0B2704770B504460068C168FB
:10307000490619D4C168002641F08001C160FDF7FE
:1030800009FD05460BE010F040000ED1FDF702FDF2
:10309000401BB0F57A7F02D9032684F825602068AA
:1030A000032EC068EFD100E00026F0B270BD10B56D
:1030B00004460068C16821F08001C1608169890609
:1030C00009D42046FEF78CFB00280EBF0020032009
:1030D00084F8250010BD816921F02001816120461E
:1030E000FEF77EFB00281ABF032084F8250000208D
:1030F00021688A6942F020028A6110BD7047FDF79D
:10310000CDBC10B594B006AC1821201DFDF7B8F861
:103110004FF40070FDF752FD022014211390CDE909
:103120001100CDE90F01CDE90D0001200B904020E9
:103130000A904FF4807009900A2006902046FDF70F
:10314000F7FF002002210590CDE903000320029043
:103150000F20019001A8FDF7A7FE14B010BD0000DC
:103160000548D0F8801041F47001C0F880104FF08D
:1031700000610160704700BF08ED00E00148FEF704
:1031800040BD00BFF40000200148FEF73ABD00BF7B
:103190008C010020B0B50368324DB0F1804F0AD0E9
:1031A000314A904207D0314A904204D0304A90428E
:1031B00001D0A84238D105F5C0544A6823F0700305
:1031C000041BB4FA84F4134305F5E0524FEA541E8D
:1031D00005F5A054821A041BB2FA82F2B4FA84F400
:1031E00052094FEA541CCC6823F4407323434C69C2
:1031F00023F08003002A43EA040303608B68C36260
:103200000B6883620BD1BEF1000F08D1A84206D033
:1032100005F50062904202D0BCF1000F01D00969AF
:10322000016301214161B0BD05F5C05405F5E052CF
:10323000041B821AB4FA84F4B2FA82F24FEA541EE2
:1032400005F5A0545209041BB4FA84F44FEA541C47
:10325000084CA042C7D0084CA042C4D0074CA042A2
:10326000C1D0C4E7002C0140000400400008004029
:10327000003401400040014000480140004401404A
:1032800070B5026A22F001020262026AD0F804E01C
:1032900083698D680C6822F0020215434A4A1A407D
:1032A00042EA040C944A02444FEAB222072A13D895
:1032B000012303FA02F212F0E50F0DD0CE68D1E936
:1032C00005342EF440721A4326F0040342EA040E39
:1032D00025F00C0243EA0205C0F804E0C0F818C06B
:1032E00049684163056270BD70B5026A22F0100240
:1032F0000262026A466883698D680C6822F02002C7
:1033000042EA051E4D4A1A406FF0040342EA042CBB
:10331000794A024403EBB223032B0DD34FEAB222C6
:10332000022A00D082B9CA686FF0400303EA021291
:103330002EF0C00342EA030ED1E9052326F44064CF
:1033400044EA820242EA83064660C0F818C049682F
:103350008163C0F820E070BD70B5026A22F480720B
:103360000262026A4668C3698D680C6822F40072C2
:1033700042EA052E144A1A406FF0040342EA040C94
:103380005D4A024403EBB223032B0DD34FEAB22272
:10339000022A00D082B9CA6840F2FF4312029A435F
:1033A0002EF4406342EA030ED1E9052326F440548B
:1033B00044EA021242EA03164660C0F81CC049689B
:1033C000C163C0F820E070BD8CFFFEFF70B5026ADB
:1033D00022F480520262026A4668C3698D680C68F2
:1033E00022F4005242EA053E144A1A406FF00403E8
:1033F00042EA042C404A024403EBB223032B0DD3D0
:103400004FEAB222022A00D082B9CA6844F6FF739A
:1034100012039A432EF4404342EA030ED1E90523F6
:1034200026F4404444EA821242EA83164660C0F819
:103430001CC049680164C0F820E070BDFF8CFFFE2D
:1034400070B5026A22F480320262026A4668036D35
:103450008D680C6822F4003242EA054C0E4A1A408C
:1034600042EA040E244A02444FEAB222072A0AD84A
:10347000012303FA02F212F0E50F1EBF4A6926F497
:10348000803343EA02264660C0F850E04968816410
:10349000C0F820C070BD00BF8FFFFEFF70B5026A8C
:1034A00022F480120262026A4668036D8D680C681D
:1034B00022F4001242EA055C0E4A1A4042EA042E47
:1034C0000D4A02444FEAB222072A0AD8012303FA1E
:1034D00002F212F0E50F1EBF4A6926F4802343EA88
:1034E00082264660C0F850E04968C164C0F820C038
:1034F00070BD00BFFF8FFFFE00D4FEBF10B5D0F837
:1035000000E0374A374CDEF808001040D1E90032BD
:103510001440002A40EA040040EA0300CEF8080004
:103520004FF000005AD0102A58D0202A56D0302A06
:1035300054D0402A23D0502A3DD0602A44D02A4B70
:103540009A424BD0B2F1101F48D0284B9A4245D036
:10355000274B9A4242D0274B9A423FD0702A3CD107
:10356000D1E902020969104340EA0120DEF808109F
:1035700021F47F410843CEF80800002010BD01204F
:10358000052B2BD0B3F1011F08BF10BDDEF82000C2
:10359000DEF8202022F00102CEF82020DEF81820EC
:1035A000096922F0F00242EA0111CEF81810CEF8B3
:1035B0002000002010BDD1F808C00A69704661469D
:1035C00000F01AF8002010BDD1F808C00A69704652
:1035D000614600F022F8002010BD012010BD00BFA0
:1035E00088FFCEFFF8FFFEFF7000100020001000E3
:1035F0003000100040001000D0F820C0036A23F013
:1036000001030362836923F0F00343EA021282613B
:103610002CF00A02114301627047036A23F0100381
:103620000362836923F4704343EA0232036A8261CE
:1036300023F0A00242EA011101627047416ED9B144
:1036400080B50268DFF840C0DFF840E09168C1F360
:10365000426192681CF801301EF80110520FC90037
:10366000B1FBF3F11CF802301EF80220D200B2FBCD
:10367000F3F2BDE8804001E001220121A0F86810CA
:10368000A0F86A20704700BFA63C00089E3C0008D6
:10369000816ACA0708D002685368D0F82CC023F4A6
:1036A000003343EA0C0353608A0708D50268536865
:1036B000D0F830C023F4803343EA0C0353604A0748
:1036C00008D502685368D0F834C023F4802343EA55
:1036D0000C0353600A0708D502685368D0F838C055
:1036E00023F4004343EA0C035360CA0608D502687A
:1036F0009368D0F83CC023F4805343EA0C039360F2
:103700008A0608D502689368D0F840C023F40053B5
:1037100043EA0C03936080B54A0615D5D0F800E063
:10372000DEF804C0436C2CF48012B3F5801F42EA2B
:103730000302CEF8042007D1DEF80420836C22F4C3
:10374000C0021A43CEF804200906BDE8804058BFE5
:10375000704701684A68C06C22F400221043486038
:103760007047BCB504460020C4F88C00FDF792F900
:1037700005462068016809070BD56FF07E404FF4BD
:10378000001100222B460090204600F06FF970B91E
:103790002068006840070CD56FF07E404FF4800130
:1037A00000222B460090204600F060F908B103206B
:1037B00008E02020C4F88400C4F88800002084F8C1
:1037C0008000E06602B0B0BD806A0021A0F85E1003
:1037D000A0F85610FEF782BC016851E8001F02688D
:1037E00021F4907142E80013002BF5D110B5104C74
:1037F000026852E8022F0368224043E802210029B0
:10380000F6D1C16E0129BDE8104009D1016851E827
:10381000001F026821F0100142E80013002BF5D1CF
:103820002021C0F8881000210167C166704700BFE1
:10383000FEFFFFEFF8B5044603688068784D794EC7
:10384000D4E90412B34240EA0100E16940EA02000F
:103850001A6840EA010002EA0502734D40EA0200DC
:1038600018605868E26820F4405040EA020058604E
:10387000A0691CBF226A10439A682A406C4D10430D
:103880009860AB42D86A626A20F00F0040EA0200FA
:10389000D862664812D0674DAB4211D0664DAB423C
:1038A00010D0B34210D0654DAB4217D1644B69A61E
:1038B0001B6803F0030356F8235012E0022504E0CE
:1038C000042502E0062500E00A255D4F3F68EF4031
:1038D0005CA507F0030755F8275000E01025B34218
:1038E0001ED0B1F5004F0DD10121082D00F28E80C0
:1038F000DFE805F005242F8C278C8C8C2D00FDF73C
:10390000C5FB20E00121082D00F28080DFE805F0F2
:103910000539437E3C7E7E7E4100FDF7B7FB35E0F6
:103920000121082D00F27280DFE805F005704F706C
:10393000487070704D00FDF7A9FB41E0FDF7B2FB48
:1039400001E0FDF7BFFB00285DD0626A01E04FF4A3
:103950000040444931F81210B0FBF1F061684A08A8
:1039600002EB40004FF6EF72B0FBF1F0A0F1100156
:1039700091424AD84FF6F0710140C0F3420008442A
:103980003FE0FDF78FFB01E0FDF79CFBD8B3626AD7
:1039900001E04FF40040334931F812104FF6EF7256
:1039A000B0FBF1F0616800EB5100B0FBF1F0A0F169
:1039B0001001914229D8216880B223E0FDF782FBF3
:1039C00008B3626A01E04FF40040264931F8121052
:1039D0006268B0FBF1F002EB42030121984215D37B
:1039E0001303984212D8010E0002002310EB52007C
:1039F00041F10001FCF70CFC1B4AA0F5407191421B
:103A000003D82168C860002100E001210020C4E93A
:103A10001C004FF00110A066084601B0F0BD00BFC9
:103A2000F369FFCF00800040FFF4FF110024F40091
:103A30000044004000480040004C00400038014075
:103A40008810024000000000040000000200000096
:103A50000800000001000000040000000200000057
:103A600008000000863C0008FFFC0F002DE9F84329
:103A7000DDF8209004460068984616460F4609F186
:103A80000105C1693940C91BB1FA81F14909B14247
:103A900016D1002DF5D0FCF7FDFFB9F1000F13D0C2
:103AA000A0EB080048450FD820680168490744BFCB
:103AB000C1695FEA0151E4D54FF4006101621EE083
:103AC000002001B0BDE8F083206850E8000F2168B5
:103AD00020F4D07041E80002002AF5D1206850E8B7
:103AE000020F216820F0010041E80202002AF5D10E
:103AF0002020C4F8840004F188001AE0206850E80F
:103B0000000F216820F4D07041E80002002AF5D1AE
:103B1000206850E8020F216820F0010041E802020D
:103B2000002AF5D12020C4F88400C4F8880004F1EC
:103B30008C0020210160002084F880000320C0E771
:103B40000148FEF7CDBA00BFBC020020FEE700002E
:103B500010B5074C00F00F03044AB0F1FF3F2344B7
:103B6000C8BF83180801187010BD00BF00E400E052
:103B700014ED00E0094840F2F31100684163304859
:103B80000021006801707047044840F25721006826
:103B900041632B48012100680170704740010020FB
:103BA0002748416808688968884208BF7047401AFA
:103BB000024948BF40420968886270478C01002072
:103BC00020491F4801F11002C0E90012FCF770FF04
:103BD000FFF797FAFEF762FEFEF740FEFEF7D8FF0A
:103BE000FFF7B2F8FEF71CFEFFF706F8FFF754F8F0
:103BF000FEF70CFFFEF796FFFEF748FFFFF780F891
:103C00006420FCF70BFE104C104D4FF6FF710122A3
:103C1000A4F58060A847204602210122A84720463B
:103C200002210022A847FEF7F5FC0020FEF794FCD5
:103C30000020FEF751FD4FF6FF70FEF765FDFEE731
:103C40003800002000000020000C0048870A00080F
:103C500002E008C8121F08C1002AFAD17047704755
:103C6000002001E001C1121F002AFBD170470000B3
:103C7000000000000000010203040607080900001C
:103C80000000010203040100020004000600080015
:103C90000A000C001000200040008000000101011B
:103CA00001030701000008040204080101010000EB
:103CB000D03C00080000002038000000503C000804
:103CC000083D00083800002018070000603C00088C
:103CD00001000000893B0008753B0008000000005F
:103CE00001000000000000000000000000000000D3
:103CF000A13B00081000000001000000FFFF0000D1
:083D00000024F400440000203F
:04000005080001D915
:00000001FF
