:020000040800F2
:10000000D0070020E50100085F69000815350008E9
:100010005D69000819140008256E00080000000042
:1000200000000000000000000000000063690008FC
:1000300053140008000000006169000865690008A9
:10004000FF010008FF010008FF010008FF01000890
:10005000FF010008FF0100085514000863140008A0
:10006000FF010008FF010008FF0100081D1400083F
:10007000FF010008FF010008FF010008FF01000860
:10008000FF010008FF010008C9120008FF01000875
:10009000FF010008FF010008FF01000869140008C3
:1000A000FF010008FF010008FF010008FF01000830
:1000B000FF010008E5690008FF010008FF010008D2
:1000C000FF010008FF010008FF010008FF01000810
:1000D000FF010008196E0008FF010008FF01000879
:1000E0005B140008FF010008FF010008FF01000881
:1000F000FF010008FF010008FF010008FF010008E0
:10010000FF010008FF010008FF010008FF010008CF
:10011000FF010008FF010008FF010008FF010008BF
:10012000FF010008FF010008FF010008FF010008AF
:1001300000F002F800F047F80AA090E8000C8244B2
:100140008344AAF10107DA4501D100F03CF8AFF28F
:10015000090EBAE80F0013F0010F18BFFB1A43F0A5
:10016000010318476092000080920000103A24BFFB
:1001700078C878C1FAD8520724BF30C830C144BF0C
:1001800004680C607047000000230024002500264E
:10019000103A28BF78C1FBD8520728BF30C148BFEA
:1001A0000B607047662907F03984002070471FB53F
:1001B00000F04CFB04000020002106F0C5FFE060C9
:1001C0001FBD10B510BD00F041FC1146FFF7EFFF59
:1001D00006F086FE00F05FFC03B4FFF7F2FF03BCFD
:1001E00000F0A2FC0948804709480047FEE7FEE707
:1001F000FEE7FEE7FEE7FEE7FEE7FEE7FEE7FEE7D7
:1002000004480549054A064B70470000E3690008A9
:1002100031010008D0010020D0070020D0030020C9
:10022000D00300200FB41CB5074B06AA7B446946D7
:100230000090059800F0F1FA0020694600F000FBFC
:100240001CBC5DF814FB0000110600002DE9F0470E
:100250004FF0000A89460446C0F820A02046E16815
:100260008847002876D0252806D0D4E90121904778
:10027000206A401C2062F1E7E1682046002588479B
:10028000C4F81CA006460027C4F818A02A2E09D0DE
:10029000304606F0ECFD38B304EB8708303EC8F872
:1002A000186019E059F8041B204604EB870291619D
:1002B000E1688847012F064618D1E069002820DA56
:1002C00025F020051DE0D8F8180000EB800006EBB3
:1002D00040003038C8F818002046E16888470646D4
:1002E00006F0C5FD0028EED1012F0AD02E2E08D130
:1002F0002046E16888477F1C0646022F45F020050E
:10030000C4DBA069002803DA404245F00105A06182
:10031000E80701D025F01005B6B1A6F14100192873
:1003200002D8203645F400654A463146204625600D
:100330004D46FFF737FF58B1012806D0ED1D25F0D7
:10034000070000F1080989E704E005F1040985E7E1
:1003500030468AE7206ABDE8F0874FF000020429A2
:10036000C0F0128010F0030C00F01B80CCF1040CE4
:10037000BCF1020F18BF00F8012BA8BF20F8022B18
:10038000A1EB0C0100F00DB85FEAC17C24BF00F8BE
:10039000012B00F8012B48BF00F8012B70474FF0EC
:1003A000000200B5134694469646203922BFA0E8C5
:1003B0000C50A0E80C50B1F12001BFF4F7AF0907D1
:1003C00028BFA0E80C5048BF0CC05DF804EB8900C2
:1003D00028BF40F8042B08BF704748BF20F8022B05
:1003E00011F0804F18BF00F8012B7047704770471D
:1003F000704770472DE9FF4F0C461E464FF0FF3700
:100400008BB0D2E90001DDF860800A908A46C1F322
:100410000A5505B93D46002108464FF00000BAF1E3
:10042000000F00F4400005DA00EB80004FF44001BB
:1004300001EA50004FEA9059B9F1010F00DDB946C9
:100440000A9850EA4A000ED044F61050A5F2FF3543
:1004500045432F14B8F1000F1ED07542291E1EDD32
:10046000C9F100021CE0B8F1010F4FF0000001D00B
:10047000302103E0F24305E02154401CB042FBDB95
:1004800030460022002121540B99C1F80880C1E9AF
:1004900000200FB0BDE8F08FBD1B6D1CDEE74A46A3
:1004A00000DA694206A800F05BFA06AB93E80700A1
:1004B00003AB83E8070050460A9900F03CFB8DE847
:1004C0000700A0F500501F3800900398002D0ADDAA
:1004D00042F21F014A460844002303A903906846DC
:1004E00000F0A5FD09E0A0F500504A461F380023A2
:1004F00003A90390684600F0AFFD8DE807000004F3
:10050000000C03D04FF0FF30410800E01046B8F176
:10051000000F03D00022009215461EE0751E05D480
:1005200000F098F9303262556D1EF9D5B3460122BC
:10053000084302D000227F1C04E02078302801D13B
:1005400000227F1E002A099784D01DE0112D07DAB2
:1005500000F080F9303262556D1C50EA0102F5D18D
:10056000084302D00098C8B10EE00021681E05E0E3
:10057000235C625C63542254401E491C8142F7DBB9
:10058000AB46A81B401E0990002004F80B000B98F6
:10059000099AC0F80880C0E9002B7AE711264FF0CD
:1005A000000857E72DE9F04F88460446D21D22F097
:1005B000070191B0D1E90001CDE90A0106F033FC51
:1005C00002460B98C00F01D02D2007E0206881075C
:1005D00001D52B2002E0202101EAC000032A099066
:1005E00001D0072A05DB03464146204600F078F992
:1005F0000BE12078800601D5E06900E00620B8F123
:10060000650F814606D0B8F1660F18D0B8F1670FB4
:1006100070D131E00020B9F1110F009001DB1123FE
:1006200001E009F101030AAA01A90CA8FFF7E2FE03
:10063000DDE90C70002609F10105834647E0012041
:100640004B4600904FF000470AAA01A90CA8FFF7FB
:10065000D1FEDDE90DB00C995D46002610B909F117
:1006600001000D18B9EB050003D4C0F1FF3609F104
:100670000105A5EB09002BE0B9F1010F01DA4FF0FC
:1006800001090020B9F1110F0090484601DD112346
:1006900000E003460AAA01A90CA8FFF7ABFEDDE9BA
:1006A0000C704D4600268346207800070AD4AB45DF
:1006B00000DA5D4601A8012D04DD411911F8011C85
:1006C000302907D04F4502DA17F1040F04DA012070
:1006D00082460FE06D1EEEE7002F02DCED1B3E446C
:1006E00003E0781CA84200DD7D1CB81B00F1010A64
:1006F0004FF000472078000703D4AA4501DB4FF0F4
:10070000FF3A0021B7F1004F0DF143088DF8431077
:1007100024D002202B23002F01DA7F422D230A212F
:10072000021EA0F1010000DC5FB197FBF1FC97FB1A
:10073000F1F201FB1C7C17460CF1300C08F801CDDE
:10074000EEE7A8F1010003702188090501D54521D4
:1007500000E06521A0F1010800F8011C09980FA92B
:10076000A1EB0807FF1D00B10120411901EBEA7060
:10077000A1693844081A401EA0612078C00602D43E
:100780002046AFF30080099828B1D4E901219047B1
:10079000206A401C20622078C00622D52046AFF394
:1007A00000801EE0002E04DBB34502DD01A8805D61
:1007B00000E03020D4E901219047206A401C2062EB
:1007C000761CAAF101005FEA000A0AD100F03EF8A7
:1007D000C0680168405CD4E901219047206A401C50
:1007E0002062281EA5F10105DCDC07E0D4E9012127
:1007F00018F8010B9047206A401C2062381EA7F1B0
:100800000107F3DC2046AFF30080032011B041E67E
:1008100001694A1C02610878704700B58FB0CDE9C4
:1008200001310021059105497944CDE903101146B4
:100830006846FFF70BFD0FB000BD0000E5FFFFFFAE
:100840000A6802F8010B0A60704700000048704710
:100850008C01002030B5B0F10A024FEA900E71F120
:1008600000034EEA817EB0EB0E0061EB91014FEA8E
:10087000101E4EEA017E10EB0E0041EB11114FEA03
:10088000102E4EEA016E10EB0E0041EB11214FEAE3
:10089000104E4EEA014E10EB0E0041EB1141401894
:1008A00041F100014FEAD00040EA41704FEAD10126
:1008B00010EB80054FEA810444EA907444EB010494
:1008C0006D1944EB0404521BA3414FF0000348BFD1
:1008D0000A3200D530BD401C41F1000130BD00009E
:1008E0002DE9F0411F46044603260168072A01F45A
:1008F000006004DB08B116A505E016A503E008B109
:1009000015A500E015A521F010002060A069C01E0B
:10091000A0610FB1401EA0612046AFF300804FB12F
:10092000D4E9012138469047206A401C2062C01C4F
:10093000206206E0206AFAE7D4E9012115F8010BEC
:100940009047761EF8D22046AFF30080BDE8F081D4
:100950004E414E006E616E00494E4600696E660063
:100960002DE9F047814616468AB0354878440DC8CF
:100970008DE80D0032487844801C03AC0DC884E833
:100980000D0041F69B300844372190FBF1F290FBBB
:10099000F1F5A5F1800501FB12041B3C02D5644270
:1009A000012000E00020DFF898A080460027FA44EC
:1009B000AAF1BE0A0EE0E0070AD03246684607EB0D
:1009C000470101230AEB810100F046FB8DE8070097
:1009D00064107F1C002CEED1194F7F44AE3F19E00C
:1009E000E80715D007EB04100DF1180A90E80E0087
:1009F0008AE80E00C068F04201D19819089032468A
:100A0000012306A903A800F027FB03AB83E8070036
:100A10006D10641C002DE3D14FF00103324669468E
:100A2000B8F1000F03A802D000F001FB01E000F0D4
:100A300013FBC9E90001C9F808200AB0BDE8F08736
:100A4000F4890000004870476C0100207546FFF7EC
:100A5000F9FFAE4605006946534620F0070085467B
:100A600018B020B5FFF7CCFBBDE820404FF00006E2
:100A70004FF000074FF000084FF0000B21F0070186
:100A8000AC46ACE8C009ACE8C009ACE8C009ACE8C9
:100A9000C0098D46704710B50446AFF3008020466C
:100AA000BDE81040FFF798BB4FF0013C50F8042B15
:100AB00051F8043B9A4221D1A2EB0C03934313EA71
:100AC000CC1317D150F8042B51F8043B9A4215D19E
:100AD000A2EB0C03934313EACC130BD150F8042B75
:100AE00051F8043B9A4209D1A2EB0C03934313EA59
:100AF000CC13DBD04FF00000704700BFD01A01BA12
:100B0000B1FA81F101F0180122FA01F0CB40C1F1F4
:100B10002001DBB2C0B2C01A2CFA01F3D11A914302
:100B200011EAC311E6D1704701491820ABBEFEE7B8
:100B30002600020070475FEA400C08BF91F0000FEA
:100B40004FEA8C234FEAC12243EA51514FEA1C502D
:100B500018BF00F5F0404FEA300018BF41F00041E7
:100B60005FEA6C5C00F02980BCF1FF3F08BF40F0F9
:100B700080407047130C06BF12044FF0100C4FF06A
:100B8000000C130E04BF12020CF1080C130F04BF6B
:100B900012010CF1040C930F04BF92000CF1020C33
:100BA000D30F04BF52000CF1010C11464FF00002AC
:100BB000A0F11F00A0EB0C00704711F0004F08BF20
:100BC000704731F000413FF4D5AF0B0C06BF09046C
:100BD0004FF0100C4FF0000C0B0E04BF09020CF18B
:100BE000080C0B0F04BF09010CF1040C8B0F04BFA0
:100BF00089000CF1020CCB0F04BF49000CF1010C71
:100C0000CCF12003A0EB0C0022FA03F302FA0CF261
:100C100041EA030100F10100704720F07F4C80EAB7
:100C2000030023F07F47ACEB070303F57C5300F090
:100C3000004003F1FF032DE980494FEA154B09B449
:100C40004FEA144325EA0B4E24EA03480FF2042628
:100C500006EB132749083E785FEA320203FB06677A
:100C6000C7F5000707FB06F64FEA54374FEAD646AA
:100C700006F1020607FB066CCCF1005C4FEA1C474C
:100C80002CEA074C07FB06F40CFB06F504EB1546B3
:100C90004FEA961634BF00204FF000404FEAD1379C
:100CA00006FB07FC4FEA1C4C0CFB0BF7D21B03FBAB
:100CB0000CF761EB07010CFB0EF7B0EB074072EB92
:100CC00017420CFB08F734BFA2EB0742B2EB074216
:100CD00061EB17414FEA0C444FEA910706FB07FC12
:100CE0004FEA1C4C0CFB0BF7B0EBC74072EB5732D2
:100CF00003FB0CF734BFA2EBC742B2EBC74261EB78
:100D000057310CFB0EF7B0EBC70072EB57720CFBC0
:100D100008F734BFA2EBC702B2EBC70261EB577111
:100D2000039F4FEA816141EA921104EBCC044FEA40
:100D3000D1374FEA826206FB07FC42EA90124FEA83
:100D400080604FEA1C4C0CFB0BF7D21B03FB0CF72B
:100D500061EB07010CFB0EF7B0EB074072EB17429B
:100D60000CFB08F734BFA2EB0742B2EB074261EB82
:100D700017414FEA8C554FEA910704EB9C2406FB80
:100D800007FC4FEA1C4C0CFB0BF7B0EBC74072EBB7
:100D9000573203FB0CF734BFA2EBC742B2EBC7429A
:100DA00061EB57310CFB0EF7B0EBC70072EB5772DB
:100DB0000CFB08F734BFA2EBC702B2EBC70261EB32
:100DC000577115EB4C254FEA816141EA92114FEAC8
:100DD00082624FEAD13742EA901206FB07FC44F1E7
:100DE00000044FEA80604FEA1C4C0CFB0BF7D21B4F
:100DF00003FB0CF761EB07010CFB0EF7B0EB0740B0
:100E000072EB17420CFB08F734BFA2EB0742B2EBC0
:100E1000074261EB174115EB1C154FEA813141EA9E
:100E200092414FEA823242EA90424FEA80304FEAE2
:100E30000C7644F1000448EA03434EEA0B484FF0B5
:100E4000000EB2EB080C71EB030724BF6246394673
:100E50004EEB0E0E4FF0000B0018524149414BEB88
:100E60000B0BB2EB080C71EB03077BF1000B24BFFB
:100E7000624639464EEB0E0E4FF0000B0018524101
:100E800049414BEB0B0BB2EB080C71EB03077BF109
:100E9000000B24BF624639464EEB0E0E51EA0207A4
:100EA00018BF46F0010616EB0E7655F1000254F11C
:100EB000000103D5BDE88901BDE80088BDE88901CE
:100EC000BDE80048B619524141EB0101A3F101030D
:100ED000704780807F7E7D7C7B7A797877767675A7
:100EE0007473727171706F6E6E6D6C6C6B6A6A691F
:100EF0006868676666656464636362616160605FB9
:100F00005F5E5E5D5D5C5C5B5B5A5A595958585731
:100F10005756565555555454535352525251515099
:100F200050504F4F4F4E4E4D4D4D4C4C4C4B4B4BEC
:100F30004A4A4A4949494848484747474746464632
:100F4000454545444444444343434342424242416D
:100F50004141002B9C4630D477002BD01CB54FEA82
:100F6000370703B44FF010004FF01001BAF1000F33
:100F700006D0BCF1000FDCBF40F0080040F00801D3
:100F80004FF000000FBCBDE810400BF1010BBBF1AE
:100F9000010F08BF5FEA170722BF12F1010211F12A
:100FA00001014FF0004143F1000300F0004043EA2B
:100FB00000007047F9D35708D0E746EA064613F118
:100FC000400F4FEA16461FDD13F1200FDFBF164317
:100FD0000A46002120335B42BED0C3F1200746EA17
:100FE000064602FA07F74FEA164646EA0706C3F135
:100FF000200722FA03F201FA07F721FA03F14FF072
:10100000000342EA0702A7E746EA020646EA064666
:101010004FEA164646EA0106BCBF46EA0646360CCB
:101020004FF000034FF000024FF0000194E72DE96C
:10103000804C9A46934670B491E8380007C831EA6C
:10104000400C48BF34EA430C03D5FFF7E6FDFFF739
:1010500080FFF0BCBDE8008C2DE9804C9A46934699
:1010600070B491E8380007C810F0804F08BF13F043
:10107000804F03D100F005F8FFF76BFFF0BCBDE82F
:10108000008C20F07F4780EA030023F07F4C07EBC1
:101090000C03A3F57C5300F00040A3F1FE0392F093
:1010A000000F00F0B38095F0000F00F077802DE97D
:1010B00001494FEA11404FEA144621EA004800FB7B
:1010C00006FC24EA064708FB06F607FB08F800FBC7
:1010D00007F718EB06484CEB164C4FEA124B18EB8F
:1010E00007484FEA15464CEB174022EA0B4E0BFB24
:1010F00006FC25EA06470EFB06F607FB0EFE0BFB79
:1011000007F71EEB064E4CEB164C4FF000061EEB9D
:10111000074E4CEB174B18EB0B0840F1000018EB97
:101120000E0B58EB000840F100008F1A4FF0000141
:101130003CBFC943661B14BFB5EB040C00213CBF88
:10114000C943F61B4FEA17444EEA8E0E27EA0445C0
:101150004FEA1C4704FB07622CEA074C05FB07F724
:101160000CFB05F604FB0CFC16EB074642EB1742A2
:1011700016EB0C4642EB1C421BEB060658EB020238
:10118000414146EA9E0601D5BDE80189B6195241A2
:1011900041EB0101A3F10103BDE801894FEA1445C8
:1011A0004FEA114724EA054621EA074C05FB07F4FC
:1011B00006FB07F70CFB06F105FB0CFC11EB0741E6
:1011C00044EB17444FEA124711EB0C4144EB1C442B
:1011D00022EA074C05FB07F206FB07F70CFB06F6B5
:1011E00005FB0CFC16EB074642EB174216EB0C46D0
:1011F00042EB1C456A1854F1000148BF7047B6190C
:10120000524141EB0101A3F10103704795F0000F3A
:1012100037D04FEA11424FEA144721EA024624EA46
:10122000074C02FB07F106FB07F70CFB06F402FB79
:101230000CFC14EB074441EB17414FEA154714EB44
:101240000C4441EB1C4125EA074C02FB07F506FB69
:1012500007F70CFB06F602FB0CFC16EB074645EB0A
:10126000174516EB0C4645EB1C42121951F10001D3
:1012700048BF7047B619524141EB0101A3F1010388
:1012800070474FEA14454FEA114724EA054621EA20
:10129000074C05FB07F106FB07F70CFB06F24FF0C6
:1012A000000605FB0CFC12EB074241EB174112EB69
:1012B0000C4251EB1C4148BF7047921841EB0101B1
:1012C000A3F1010370470000014800F0C2B900001B
:1012D0004800002070B5044600688168C943C9070A
:1012E00017D1816821F00101816001F043F80546C2
:1012F0000AE000BF01F03EF8401B022804D9206834
:101300008068C043C00706D020688068C043C0071B
:10131000F0D0002070BDA06A40F01000A062E06A2A
:1013200040F00100E062012070BD10B50146406A46
:10133000826A12F0500F05D0006A026BBDE81040BF
:1013400008461047816A41F400718162016889682A
:10135000C1F3424107290CD1017B51B9816A21F4C3
:1013600080718162816AC90403D4816A41F00101FC
:10137000816200F06BF910BD10B5406A816A41F0DE
:1013800040018162C16A41F00401C16200F060F96C
:1013900010BD10B5406A00F05AF910BDF8B500262E
:1013A0000446009600688168C943C9072DD081684A
:1013B00041F001018160164816490068B0FBF1F068
:1013C00000E0401E00900028FBD100F0D3FF05464E
:1013D00016E000BF00F0CEFF401B022810D92068A5
:1013E0008068C043C0070BD0A06A40F01000A06224
:1013F000E06A40F00100E06284F824600120F8BD5A
:1014000020688068C043C007E4D10020F8BD000018
:101410001C00002040420F00FEE70000014800F0E1
:101420004BBC00007800002030B590F840500124FB
:10143000AC40C56B6C60046863604368102B036844
:1014400003D099600068C26030BD9A600068C160D6
:1014500030BD7047012000F07BBE4FF4004000F02B
:1014600077BE022000F074BE202000F071BE72B67C
:10147000FEE70000F8B500250446009590F824002A
:10148000012808D0012084F824002046FFF722FF1D
:10149000060002D053E00220F8BDA06A20F4885074
:1014A00040F00200A062022001F002F8264909681B
:1014B000B1FBF0F0400000E0401E00900028FBD19E
:1014C0002046FFF76BFF2068816841F008018160CA
:1014D00000F050FF074608E000F04CFFC01B0A2850
:1014E00003D920688068000715D420688068000749
:1014F000F2D42068816841F00401816000F03AFF75
:10150000074612E000F036FFC01B0A280DD92068FC
:101510008068400709D5A06A20F0020040F0100062
:10152000A06284F824500120F8BD2068806840073C
:10153000E8D4A06A20F0020040F00100A06284F824
:1015400024503046F8BD00001C0000207047000009
:10155000F8B50024009490F824202546012A12D0E2
:10156000012280F824204A681F23072A0DD206682A
:10157000776B521E02EB820293409F430B689340AD
:101580001F43776319E00220F8BD06680D2A0AD2CE
:10159000376BD21F02EB820293409F430B6893404C
:1015A0001F43376309E0F76A0D3A02EB820293406A
:1015B0009F430B6893401F43F7620A68072306683E
:1015C0000A2A0AD3F7680A3A02EB420293409F4381
:1015D0008B6893401F43F76008E0376902EB4202D3
:1015E00093409F438B6893401F4337610A68102ADA
:1015F00001D0112A20D1124B02689A4217D1936868
:101600001B0219D4936843F40003936009681029FE
:1016100012D10C490C4A0968B1FBF2F101EB8101CE
:10162000490000E0491E00910029FBD104E0816AD5
:1016300041F020018162012480F824502046F8BD49
:10164000002401401C00002040420F0070477047FA
:10165000704710B5044600684168890626D50168C0
:10166000890723D5A16AC90603D4A16A41F4007190
:10167000A1628168C1F34241072910D1217B71B970
:10168000416821F020014160A06A20F48070A062CE
:10169000A06AC00403D4A06A40F00100A062204602
:1016A000FFF7D4FF21686FF01200086020684168DE
:1016B00009062ED5016849072BD5A16AC90603D4AE
:1016C000A16A41F40051A1628168C1F30231072986
:1016D00009D04168490515D48168C1F34241072901
:1016E00010D1217B71B9416821F080014160A06A6D
:1016F00020F48050A062A06AC00503D4A06A40F024
:101700000100A0622046FFF721FF21686FF00C0066
:1017100008602068416849060DD50068C0070AD0F6
:10172000A06A40F48030A062204600F095F821685D
:101730006FF00100086010BD2DE9F04104004FF08A
:1017400000057FD0A06A002628B9E66284F82460EC
:10175000204600F083F82046FFF7BCFDA16AC906C9
:1017600000D420B1A06A40F01000A0626AE0A16A33
:1017700021F4885141F00201A162334923688B4270
:10178000E16904D1B1F5402F01D14FF40021277B4D
:101790004FF4807C41EA470261680A43A1686145D1
:1017A00008D0012906D0002194F814E0BEF1010F01
:1017B00002D00AE06146F7E7C7B1A76A47F0200701
:1017C000A762E76A47F00107E7625F6827F46947A5
:1017D0000F435F60236899681C4F3940114399603B
:1017E000A16861450BD0012909D00CE0DFF860E069
:1017F000A7690EEB47370F4347F40061E5E7218AFD
:101800000D05A5F580152168CB6A23F470032B43E1
:10181000CB62216889680F4B1940914208D1E6627A
:10182000A16A21F0020141F00101A162BDE8F0814D
:10183000A06A20F0020040F01000A062E06A40F0D0
:101840000100E0620120F1E7003C0140FDF7E1FF0B
:1018500000E0FFFFFE0E1FFF7047000070B586B06E
:1018600000250646009501950295039500681D49DF
:10187000884235D11C49886940F4007088618869C4
:1018800000F400700490886940F004008861886961
:10189000694600F0040004900420009003200190A9
:1018A000124800F061FC134C1148C4E90005802087
:1018B000C4E90250400020618000C4E905052046CB
:1018C000E56100F01DFB08B1FFF7D1FD3462002295
:1018D00011461220666200F0B9FD122000F0A8FD4A
:1018E00006B070BD00240140001002400008014015
:1018F00008000240780000202DE9F04789460446A0
:101900003B4900683B4F0E1D9046884201D0B842CB
:1019100007D1306810F4702F03D001252846BDE8A8
:10192000F08794F8240001280CD0012084F82400CA
:101930002046FFF733FD05004FF0000004D084F887
:101940002400EBE70220EAE7A16A40F60162914336
:1019500041F48071A1622168B94218D1326812F451
:10196000702F14D0A16A41F48011A1623168490539
:1019700005D5A16A21F4005141F48051A162A16A08
:10198000C9040AD5E16A21F00601E16206E0A26A13
:1019900022F48012A2624968E9E7E06284F8240038
:1019A000216A15488862216A1448C862216A14486D
:1019B000086321686FF0020008602068816841F4C4
:1019C00080718160216843464A464C31206A00F0AC
:1019D000D5FA20688168C1F342410729816803D0A4
:1019E00041F48011816099E741F4A001FAE7000019
:1019F00000240140002801402B1300089313000825
:101A00007913000870B54379012B1CD0012646716B
:101A10000223037105682B6802F0100440F6FE7281
:101A2000A2409343D1E900210A43A2401A432A600D
:101A300001680A68C023A3409A430A600671002126
:101A40004171084670BD022070BD70B5040003D01E
:101A50002079002510B105E0012070BD6571204698
:101A600000F008F80220207125610120207100207B
:101A700070BD000000B585B0002100910191029178
:101A8000039100680E49884218D10E48C16941F09F
:101A90000051C161C16901F000510491816941F0B7
:101AA000040181618069694600F0040004901020FF
:101AB000009003200190044800F056FB05B000BDE3
:101AC00000740040001002400008014018B504688E
:101AD00000940068104421B114300090036000208D
:101AE00018BD0830F9E770B54279012A1ED00122ED
:101AF0004271022303710468266801F0100302FAA0
:101B000003F52E4326600029016811D00C6804F407
:101B100070153C249C40A54203D14B6843F002035E
:101B20004B60027100214171084670BD022070BDFA
:101B30000B68C3F383030F2BF3D14B6843F001030E
:101B4000EEE710B590F821100022022905D00421FB
:101B5000816380F82020012010BD01680B6823F00C
:101B60000E030B6001680B6823F001030B6090F813
:101B70004030C46B012101FA03F3636080F8211047
:101B800080F82020104610BD2DE9F05F90F821105C
:101B90000024022903D004218163012485E0016827
:101BA0000A6822F00E020A6001680A6822F0010247
:101BB0000A603F4E3E4FB215DFF8F4C0DFF8F090F8
:101BC000DFF8ECA0DFF8E8B0DFF8E4E00168783F88
:101BD00013011502ACF1640CA9F15009AAF13C0AF9
:101BE000ABF1280BAEF1140E4FF48018B14227D997
:101BF000B9420ED0614512D049451DD0514518D08B
:101C0000594518D0714501D1424615E0294EB142DF
:101C100001D1012210E0274E1436B14201D1102229
:101C20000AE0244E2836B14206D0224A3C32914284
:101C300001D11A4600E02A461E49091F0A602BE01E
:101C4000B94213D0614517D0494522D051451DD026
:101C500059451DD0714501D142461AE0B14202D129
:101C60004FF0807215E0134EB14201D1012210E015
:101C7000104E1436B14201D110220AE00D4E283622
:101C8000B14206D00B4A3C32914201D11A4600E0E3
:101C90002A46074980394A60012180F82110002135
:101CA00080F82010416B01B188472046BDE8F09FC5
:101CB00080000240080402402DE9F05FC16B0A6811
:101CC00001680B68046C4FF0040808FA04F8844DAE
:101CD000844E854FDFF814C2DFF81492DFF814A2A7
:101CE000DFF814B2DFF814E218EA020F65D05FEAF9
:101CF000437862D50A68920603D40A6822F0040287
:101D00000A60DFF8F0814FF48062016808F114087E
:101D100013011402414524D9A9420DD0B1420FD07C
:101D2000B9421AD0614515D0494515D0514501D168
:101D3000120312E0594501D104220EE0714501D190
:101D400040220AE06D4D1435A94206D06B4A283274
:101D5000914201D11A4600E022466749091F0A60F4
:101D600029E0A94213D0B14215D0B94220D0614533
:101D70001BD049451BD0514502D14FF4800217E0DA
:101D8000414502D14FF0806212E0594501D1042251
:101D90000EE0714501D140220AE0584D1435A942A8
:101DA00006D0564A2832914201D11A4600E0224616
:101DB0004B4908394A60C16A71E04FF0020808FADD
:101DC00004F818EA020F70D05FEA83786DD50A68CC
:101DD000920606D40A6822F00A020A60012180F8FD
:101DE0002110DFF810814FF40072016808F1140827
:101DF00013011402414524D9A9420DD0B1420FD09C
:101E0000B9421AD0614515D0494515D0514501D187
:101E1000120312E0594501D102220EE0714501D1B1
:101E200020220AE0354D1435A94206D0334A283223
:101E3000914201D11A4600E022462F49091F0A604B
:101E400029E0A94213D0B14215D0B94220D0614552
:101E50001BD049451BD0514502D14FF4001217E069
:101E6000414502D14FF0007212E0594501D10222E2
:101E70000EE0714501D120220AE0204D1435A9421F
:101E800006D01E4A2832914201D11A4600E022466D
:101E9000134908394A60002180F82010816A00291E
:101EA0001CD0BDE8F05F0847FFE70825A5401542B4
:101EB00014D01A0712D50A6822F00E020A6090F8B0
:101EC0004020C36B012101FA02F25A60816380F85D
:101ED0002110002180F82010016BE0E7BDE8F09FA1
:101EE000080002401C000240300002404400024052
:101EF000580002406C000240080402401C040240EA
:101F000030B560B11A4B026814219A4209D2194BBC
:101F10001344B3FBF1F18900016417490AE0012081
:101F200030BD134B5B421344B3FBF1F189000164F4
:101F30000F490839C163022180F82110136843F664
:101F4000F0718B43F0E901142143D0E902452C43A1
:101F5000214304692143446921438469214319438E
:101F6000116000214163012242770177084630BDAC
:101F700008040240F8FFFDBF0000024070B50446AF
:101F800090F82000002501280CD0012084F82000C2
:101F900094F821600020012E06D084F8200002254C
:101FA000284670BD022070BD022684F82160A0631F
:101FB0002068066826F0010606602046FFF734FA1E
:101FC000E06A00282068016802D041F00E0106E0B6
:101FD00021F0040101602068016841F00A010160FC
:101FE0002068016841F001010160D9E770B504463D
:101FF00000F0C0F90546601C02D004480078044493
:1020000000F0B8F9401BA042FAD370BD10000020C8
:102010002DE9FC41444F454C014601281ED0444E59
:1020200002295AD020460125007820292CD0EE0321
:10203000B14276D1002874D01420FFF7D7FF314683
:10204000384600F08DF900286BD1E078092842D09D
:10205000401CE070BDE8FC4104F0CCBF1420FFF749
:10206000C5FF0121384600F07BF9012859D12078BD
:102070004FF4807180F001022270384600F075F94B
:10208000BDE8FC4104F0CEBF00284AD01420FFF781
:10209000ADFF2021304600F063F9002841D1A0783F
:1020A000244E09280AD0401CC0B28102A070A1EBC6
:1020B0000011A1EBC000401E316807E0A5706078F8
:1020C00028B900201C4905F05DFA31684863BDE875
:1020D000FC4104F077BFE570BCE71420FFF786FFF2
:1020E0000221304600F03CF900281AD1607890F0C7
:1020F0000100607001D011A000E012A01021CDE914
:102100000010642214238C21104604F05CFA6078DD
:1021100002B080F00102BDE8F04104210B4800F05C
:1021200024B9BDE8FC810000000801400000002047
:1021300000100140D000002000388F404155544F1E
:10214000000000004D414E55000000000014014009
:10215000044910B50A68024202D00860FFF758FF30
:1021600010BD0000140401402DE9F84FDFF8C891BC
:10217000002409F1040A0AF1040B23460F270BF18E
:10218000040ED1E00125A54006EA0502AA4276D157
:10219000DFF8A8C14E68A6EB0C0866452BD00DDC15
:1021A000032E34D005DC36B3012E19D0022E2FD1E8
:1021B0001BE0112E16D0122E2AD119E0B8F5881F77
:1021C00019D006DCB8F5803F15D0B8F5801F1FD1B7
:1021D00011E0B8F5001F0ED0B8F5041F18D10AE0C1
:1021E000CB6815E0CB681B1D12E0CB6808330FE00D
:1021F000CB680C330CE08B682BB1012B4FF008033C
:1022000003D0456104E0042302E0056100E00023FF
:10221000FF2A01D8064601E000F104064FEA8405D2
:1022200001D9A5F12005D6F8008007FA05FC28EAB7
:102230000C0803FA05F548EA0508C6F800804D6861
:10224000ED0070D53E4DAE6946F00106AE61AD6958
:1022500024F0030605F0010500953A4D06EB050C48
:10226000DCF80850A607360F07FA06F825EA080535
:10227000DFF8D480404503D14FF0000825E052E05C
:10228000DFF8C880404502D14FF001081DE0DFF8BB
:10229000C080404502D14FF0020816E0DFF8B4805C
:1022A000404502D14FF003080FE0DFF8AC80404515
:1022B00002D14FF0040808E0DFF8A080404502D1C9
:1022C0004FF0050801E04FF0060808FA06F848EA62
:1022D0000508CCF808804D68D9F80060ED034D463C
:1022E00001D5164300E096432E604D68DAF8006091
:1022F000AD03554601D5164300E096432E604D6868
:10230000DBF80060ED025D4601D5164300E0964320
:102310002E604D68DEF80060AD02754601D51643AB
:1023200000E096432E60641C0A681646E2407FF483
:1023300029AFBDE8F88F0000000401400000111033
:10234000001002400000014000080140000C014064
:10235000001001400014014000180140001C014021
:102360008068084000D0012070470AB101617047C1
:102370000904FBE701488068704700001000002056
:102380000248816802781144816070471000002083
:10239000074810B5016841F010010160032000F00A
:1023A00075F8002000F006F800F024F8002010BDB9
:1023B0000020024070B50D4D04464FF47A71287824
:1023C000B1FBF0F00A490968B1FBF0F000F0D8FB6E
:1023D00048B9102C07D200222146501E00F036F8D2
:1023E00000206C6070BD012070BD00001000002056
:1023F0001C0000200C4808B5816941F00101816191
:10240000816901F001010091C16941F08051C16110
:10241000C06900F0805000900448416821F0E061FC
:1024200041F00071416008BD001002400000014011
:10243000002809DB00F01F020121914040098000C3
:1024400000F1E020C0F8001170470000F0B40E4B1E
:102450001B680C46C3F30223C3F10705042D00D902
:102460000425191D072901D2002300E0DB1E0126E7
:1024700006FA05F1491E214099409E40761E1640FD
:102480003143F0BC04F0E3BC0CED00E0064900F081
:10249000070208684FF6FF03184040EA0220034A8B
:1024A00010430860704700000CED00E00000FA05E2
:1024B00010B52CA401461DCC86B08DE81D002DA0C2
:1024C0002D4C00680490002004292FD00BDC01293A
:1024D0002FD0022928D100F071F96168C1F3813150
:1024E000491C49001EE0082920D010291CD1616830
:1024F0002268D20118D5C1F38342C9031DF8020036
:1025000009D5616804AAC1F34041515C1B4AB2FB82
:10251000F1F1484301E01A4948436168490203D494
:1025200040000321B0FBF1F006B010BD00F056F9F9
:10253000FAE7226AC2F30121012903D1920701D5EA
:10254000C803F1E7022905D1626A920702D549F66C
:102550004040E9E70329E7D121688903E4D54FF238
:102560002440E1E702030405060708090A0B0C0DE5
:102570000E0F1010010200000010024000127A003D
:1025800000093D002DE9F84305460078354CC007A9
:1025900054D0E0690026C00008D4E06940F08050C3
:1025A000E061E069012600F0805000902E4801684B
:1025B000C90512D40168804641F480710160FFF7BB
:1025C000D9FE074605E000BFFFF7D4FEC01B642814
:1025D00023D8D8F80000C005F6D5206A10F4407062
:1025E00021D0A98801F4407181421CD0206A1F4982
:1025F000012220F440700A6000220A602062C007B5
:1026000011D0FFF7B7FE074641F2883808E000BF57
:10261000FFF7B0FEC11B414502D90320BDE8F88396
:10262000206A8007F4D5206A696820F44070084366
:1026300020621EB1E06920F08050E06128788007B8
:1026400005D56068A96820F4404008436060287898
:10265000C00605D56068696920F4800008436060A1
:102660000020DBE7001002400070004040044242BE
:102670002DE9F0470F46050061D0434E306800F069
:102680000700B84209D2306820F0070038433060B4
:10269000306800F00700B84251D128683B4C8107F0
:1026A00012D5400703D5606840F4E0606060287888
:1026B000000703D5606840F4605060606068A968F6
:1026C00020F0F000084360602878C00728D06868D0
:1026D000012810D02168022810D0890700292EDA9D
:1026E000616821F0030101436160FFF743FE80460A
:1026F00041F288390DE021688903EFE78901EDE7B0
:10270000FFF738FEA0EB0801494502D90320BDE8D8
:10271000F0876068696800F00C00B0EB810FEFD1C2
:10272000306800F00700B8420BD9306820F007008D
:1027300038433060306800F00700B84201D0012013
:10274000E5E72878400705D56068E96820F4E0608F
:10275000084360602878000706D56068296920F47E
:10276000605040EAC100606000F038F86168084AD3
:10277000C1F30311515CC84006490860064800686F
:10278000FFF718FE0020C2E70020024000100240C0
:10279000107B00081C00002014000020044805499C
:1027A00000684968044AC1F30221515CC84070477F
:1027B0001C00002000100240207B0008044805494E
:1027C00000684968044AC1F3C221515CC84070479F
:1027D0001C00002000100240207B000812A185B0E0
:1027E0000FC98DE80F0014A0144A006804905168C6
:1027F000134801F00C03042B10D0082B0ED1C1F3A9
:102800008343C9031DF803000AD5516804AAC1F324
:102810004041515C0A4A5043B0FBF1F005B07047AB
:1028200008494843FAE700000203040506070809BF
:102830000A0B0C0D0E0F10100102000000100240D8
:1028400000127A0000093D002DE9F84F040070D015
:102850002078C04DC00749D06868C0F381000128C6
:1028600007D06868C0F38100022809D16868C003F6
:1028700006D52868800339D560680028E7D035E0A0
:102880006068B0F5803F0BD010B1B0F5A02F11D02B
:10289000286820F480302860286820F4802002E036
:1028A000286840F480302860606890B1FFF762FDCE
:1028B00006460AE0286840F480202860F0E700BF60
:1028C000FFF758FD801B642873D828688003F7D56C
:1028D0000CE0FFF74FFD064605E000BFFFF74AFD9D
:1028E000801B6428F0D828688003F7D420789A4E9B
:1028F00080074FF001094FF0000839D5686810F0E3
:102900000C0F07D06868C0F38100022809D16868FD
:10291000C00306D42868800714D52069012808D18F
:1029200010E02069B0B1C6F80090FFF723FD07461C
:1029300005E00AE1FFF71EFDC01B0228C4D8286885
:102940008007F7D52868616920F0F80040EAC100E7
:1029500028600DE0C6F80080FFF70CFD074604E094
:10296000FFF708FDC01B022823D828688007F7D48A
:10297000207800072CD57948A169D9B1C0F800901A
:10298000FFF7F8FC074604E0FFF7F4FCC01B022841
:102990000FD8686A8007F7D571484FF4FA5100687C
:1029A000B0FBF1F0009000BF0098411E0091FAD2F8
:1029B0000EE080E0C0F80080FFF7DCFC074604E092
:1029C000FFF7D8FCC01B022875D8686A8007F7D4C7
:1029D0002078400760D5E8690027C00008D4E8697E
:1029E00040F08050E861E869012700F080500090D5
:1029F0005C480168C90513D40168834641F48071BD
:102A00000160FFF7B7FC824606E000BFFFF7B2FCAB
:102A1000A0EB0A0064284ED8DBF80000C005F5D50D
:102A2000E06801280AD008B1052813D0286A20F0F0
:102A300001002862286A20F0040002E0286A40F0C1
:102A400001002862E06841F2883B98B1FFF792FCF0
:102A500082460BE0286A40F004002862EEE700BFDF
:102A6000FFF788FCA0EB0A0159455AD8286A80076D
:102A7000F6D50CE0FFF77EFC824605E0FFF77AFC16
:102A8000A0EB0A0159454CD8286A8007F6D41FB13B
:102A9000E86920F08050E861E06988B36968C1F3B3
:102AA0008101022944D00228C6F8608004D0FFF7D3
:102AB00061FC044638E034E0FFF75CFC074604E0C4
:102AC000FFF758FCC01B02282BD828688001F7D4D8
:102AD000206AB0F5803F05D16868A16820F4003015
:102AE00008436860D4E908010843696821F4741157
:102AF00008436860C6F86090FFF73CFC044606E0B7
:102B000025E000BFFFF736FC001B022809D8286823
:102B10008001F7D51BE000BFFFF72CFC001B02284B
:102B200002D90320BDE8F88F28688001F4D40EE0B4
:102B30000128F7D06868226A00F48031914204D1FC
:102B4000616A00F47010884201D00120EAE7002099
:102B5000E8E70000001002400000424280044242C8
:102B60001C000020007000404FF0E021042808699C
:102B700003D020F004000861704740F00400FAE739
:102B800010B5401EB0F1807F01D3012010BD4FF081
:102B9000E02460610F21601704F059F90020A06162
:102BA00007202061002010BD7047704770B590F875
:102BB0003C20012A2CD0012480F83C40022280F8DD
:102BC0003D2003685A689D6822F070060A68324307
:102BD0005A60104B02689A420ED00F4B9A420BD0AB
:102BE000B2F1804F08D00D4B9A4205D00C4B9A425F
:102BF00002D00C4B9A4204D1496825F08003194356
:102C0000916080F83D40002180F83C10084670BD7E
:102C1000022070BD002C014000340140000400403F
:102C200000080040000C004010B5040003D094F8E8
:102C30003D0010B107E0012010BD002084F83C00E9
:102C4000204600F01FF8022084F83D00211D206876
:102C500003F0CEFE012084F8460084F83E0084F89C
:102C60003F0084F8400084F8410084F8420084F872
:102C7000430084F8440084F8450084F83D000020B7
:102C800010BD000008B500680B49884212D10B48FE
:102C9000C16941F00201C161C069002200F0020077
:102CA000009011461D20FFF7D1FBBDE808401D2014
:102CB000FFF7BEBB08BD000000040040001002404A
:102CC00070B5044690F83C00012817D0012584F81F
:102CD0003C50022084F83D002068826822F0770290
:102CE00022F47F4282600868502830D00DDC202812
:102CF0004DD005DC98B310283BD148E0022070BDD0
:102D0000302844D0402834D139E0602828D07028B9
:102D100006D0B0F5805F2CD0B0F5005F29D10AE075
:102D2000CB68D1E90121206803F0A8FE2068816802
:102D300041F0770109E0CB68D1E90121206803F077
:102D40009DFE2068816841F48041816011E0CA687D
:102D50004968206803F066FF5021206807E016E00C
:102D6000CA684968206803F06EFF6021206803F09C
:102D70008FFE84F83D50002084F83C0070BDCA6886
:102D80004968206803F04EFF40212068EFE7226881
:102D900001461046EBE7704770B5044600680169CC
:102DA0004FF00005C943890715D4C168C943890795
:102DB00011D4E91E01610120207720688069800715
:102DC000204602D0FFF7E7FF04E000F0E5F82046D8
:102DD00000F021FA257720680169C943490717D413
:102DE000C168C943490713D46FF00401016102208F
:102DF00020772068806910F4407F204602D0FFF7DA
:102E0000CAFF04E000F0C8F8204600F004FA257775
:102E100020680169C943090716D4C168C943090775
:102E200012D46FF008010161042020772068C06986
:102E30008007204602D0FFF7AEFF04E000F0ACF8B8
:102E4000204600F0E8F9257720680169C943C906E2
:102E500017D4C168C943C90613D46FF010010161CA
:102E6000082020772068C06910F4407F204602D0F7
:102E7000FFF791FF04E000F08FF8204600F0CBF957
:102E8000257720680169C943C90708D1C168C943CA
:102E9000C90704D1891E0161204600F0BDF92068F0
:102EA0000169C943090609D4C168C943090605D4A3
:102EB0006FF0800101612046FFF776FE206801690E
:102EC000C943490609D4C168C943490605D46FF00E
:102ED00040010161204600F0A0F920680169C94362
:102EE00089060BD4C168C943890607D46FF0200155
:102EF00001612046BDE87040FFF757BE70BD00007D
:102F000000B585B000210091019102910391006804
:102F10000B49884211D10B48816941F0040181615C
:102F20008069694600F004000490C02000900220EF
:102F3000019003900448FFF717F905B000BD0000A9
:102F400000040040001002400008014010B5044693
:102F500090F83C0001280AD0012084F83C0042B1DE
:102F6000042A0AD0082A0CD00C2A11D10DE0022024
:102F700010BD206803F094FD0AE0206803F0C0FD56
:102F800006E0206803F0F2FD02E0206803F022FE74
:102F9000002084F83C0010BD2DE9F047364C3B4D35
:102FA0002146364E94F804C04A788868344FDFF8DA
:102FB000D480DFF8D490F317C9782D68BCF1000FE6
:102FC0000DD0BCF1010F2DD0BCF1020F2FD0BCF100
:102FD000030F4FD142F20F70A863002049E092B175
:102FE00004F014FB32463B4604F074F90022284BEF
:102FF00004F01EFC0022434604F01CFB00224B465A
:1030000004F022FC09E0C1F10A0000EB4001C1EB31
:10301000C01003EB400004F0E2FA04F0B3FAA86336
:10302000012026E041F28730A863022021E092B11E
:1030300004F0ECFA32463B4604F04CF90022154B02
:1030400004F0F6FB0022434604F0F4FA00224B465B
:1030500004F0FAFB09E0C1F11E0000EB4001C1EBF6
:10306000C01003EB400004F0BAFA04F08BFAA86336
:1030700003202071BDE8F087000000209A999999FB
:103080009999794000406F400000F03FD000002047
:103090000000244000003E4010B5040003D094F826
:1030A0003D0010B107E0012010BD002084F83C0075
:1030B000204600F01EF8022084F83D00211D206803
:1030C00003F096FC012084F8460084F83E0084F862
:1030D0003F0084F8400084F8410084F8420084F8FE
:1030E000430084F8440084F8450084F83D00002043
:1030F00010BD704770B5044690F83C000D4601289D
:103100000AD0012084F83C0042B1042A18D0082AD1
:103110002AD00C2A4DD139E0022070BD206803F07E
:10312000BFFC2068816941F00801816120688169E4
:1031300021F004018161206881692A69114311E04D
:10314000206803F0DDFC2068816941F40061816141
:103150002068816921F480618161206881692A6920
:1031600041EA0221816124E0206803F0FFFC20682D
:10317000C16941F00801C1612068C16921F0040101
:10318000C1612068C1692A69114311E0206803F018
:1031900021FD2068C16941F40061C1612068C169F5
:1031A00021F48061C1612068C1692A6941EA022174
:1031B000C161002084F83C0070BD10B5040003D04C
:1031C00094F83D0010B107E0012010BD002084F804
:1031D0003C00204600F01EF8022084F83D00211D2E
:1031E000206803F005FC012084F8460084F83E00C6
:1031F00084F83F0084F8400084F8410084F84200DD
:1032000084F8430084F8440084F8450084F83D00C5
:10321000002010BD70477047704770477047704777
:10322000F8B5026804461068D168536910F00F0FB2
:103230004FF0000553D003F0010601F490773743B7
:103240005FD0C20705D0CA0503D5226C42F0010247
:103250002264420705D5DA0703D0226C42F002024D
:103260002264820705D5DA0703D0226C42F00402FB
:103270002264020707D501F02002324303D0226CFA
:1032800042F008022264226C002A34D0800604D561
:10329000880602D5204603F008FD20684069216CAD
:1032A000C0F38010090700D430B3204603F0E5FCDA
:1032B0002068416949061BD5416921F040014161FF
:1032C000A06BA8B158494163A06BFEF75DFC0028D4
:1032D00011D0A06B416B01B0BDE8F04008478306F8
:1032E0000FD58B060DD52046BDE8F84003F0DDBCB8
:1032F0002046FFF794FFF8BD2046FFF790FF2564B6
:10330000F8BD266B2023012E52D1C60650D5CE061D
:103310004ED5106850680090506940062AD5A16BC0
:10332000086840680004000CEAD0A68D8642E7D900
:10333000E0858869202818D0D06820F48070D0609B
:103340002068416921F0010141612068416921F053
:103350004001416184F83E3025632068C16821F056
:103360001001C160A06BFEF7ECFBA08DE18D401A4F
:1033700081B219E0A08DE18D401A81B2E08D002864
:10338000BED00029BCD0D06820F49070D0602068F6
:10339000426922F00102426184F83E3025632068D0
:1033A000C26822F01002C2602046FFF737FFF8BD66
:1033B00005062BD50D0629D594F83D002128F6D118
:1033C000A068B0F5805F01D12069B0B1206A411CCE
:1033D0002162216800784860E08C401E0004000CE7
:1033E000E084E4D12068C16821F08001C1602068D8
:1033F000C16841F04001C160F8BD206A0088C0F397
:1034000008005060206A801C2062E5E74006F3D582
:103410004806F1D5D168204621F04001D16084F8FA
:103420003D3000F076F8F8BD6B6C000870B5040014
:1034300004D094F83D00002510B106E0012070BDD5
:1034400084F83C50204600F023F8242084F83D0006
:103450002068C16821F40051C160204603F080FC5F
:103460002068016921F4904101612068416921F0DF
:103470002A0141612068C16841F40051C16025649E
:10348000202084F83D0084F83E00002070BD00003C
:1034900030B585B000240094019402940394006830
:1034A000184988422CD11848816941F480418161D2
:1034B000816901F480410491816941F004018161D5
:1034C0008069124D00F0040004904FF400700090E9
:1034D000022001900320039069462846FEF744FE2F
:1034E0002815CDE90004694628460294FEF73CFE03
:1034F000002211462520FEF7A9FF2520FEF798FFA0
:1035000005B030BD00380140001002400008014005
:1035100070477047FEE70000F0B50F4906460024EB
:1035200008884D8821464543204602F09DFE03F061
:1035300099F80A494FF480774A15DFF824C08023B0
:1035400007E00F614A61CCF800604B610B610A61D2
:10355000641CAC42F5D3F0BD5C01002000100140BA
:103560000C0C01402DE9F04F2B492C260A4688719E
:1035700092884FF4305A4FF4285B4FF4487541F667
:10358000631E2B274FF02A0C4FF0F00845F210591C
:103590004FF4A0744FF4F073B8B10C80A1F802801E
:1035A0004A4532D1A1F808A0A1F80AB038028881B2
:1035B0000D804B80A2F5A640103801D10B804C80C5
:1035C000BDE8F04F002002F0E5BCA1F800804C807F
:1035D0004A4507D1A1F808A0A1F80AB04FF42C5031
:1035E000888105E072450E8105D14F81A1F80CC09C
:1035F0000B804D8002E0A1F80AC08F81A2F5A640A1
:103600001038DDD10C804B80DAE70E81A1F80AC0BA
:1036100072458F81CCD0CDE75C0100202DE9F74FBA
:1036200007466B486B4C01F0FF0982884FEA11286E
:1036300065153E0A4189A2F5AA4307F0FF0A103B2F
:103640002CD0A2F5C853633B57D0084602F0F8FFD0
:103650004FF4807BC4F810B065615F4F3E608026F8
:10366000666126612561C4F810B06561C7F800A0E5
:103670006661266125615648808902F0E1FFC4F841
:1036800010B06561C7F8008066612661C4F810500B
:10369000C4F810B06561C7F8009080E0084602F0F9
:1036A000CFFF4FF4807BC4F810B065614A4F3E6095
:1036B000802666612661256145484089401C80B2AC
:1036C00002F0BEFFC4F810B06561C7F800A06661E3
:1036D000266125613E48808902F0B2FFC4F810B02F
:1036E0006561C7F800806661266125613848808978
:1036F000401C80B202F0A4FFCAE782791AB902889E
:10370000D21B521E97B2084602F09AFF4FF4807AFD
:10371000C4F810A06561DFF8C0B0380ACBF800002B
:103720008026666126612561C4F810A06561F9B242
:10373000CBF80010666126612561C4F810A06561B0
:10374000CBF80000666126612561C4F810A06561B0
:10375000CBF800106661266125611D48808902F062
:103760006FFFC4F810A065615946CBF80080666110
:1037700026612561C4F810A06561CBF800906661F0
:1037800026612561C4F810A06561CBF800806661F0
:1037900026612561C4F810A06561C1F800906661DA
:1037A000266125614FF480716161656108480A4AAC
:1037B0000089106080206061206125612161656160
:1037C00002991160606120612561BDE8FE8F0000F3
:1037D0005C010020001001400C0C01402DE9F04F6D
:1037E000F74887B0816941F008018161816901F082
:1037F00008010091816941F01001816180694FF0F9
:10380000030B00F0100000904FF4F86002900120CC
:10381000CDE9040B039002A9EA48FEF7A5FC4FF698
:10382000FF7502A9E8480295FEF79EFCE74840684C
:10383000E64920F0E06040F080604860322003F00C
:1038400027FB0121002002F013FF322003F020FBB0
:10385000D32002F0F5FE02F027FBDD4CA08002F041
:1038600023FBA08002F020FB05EA0020A08002F0EC
:103870001BFBA18849F241360843A08041F663183A
:1038800045F2103745F210594FF4704AB04273D0E8
:10389000042002F0D5FE02F007FBA08002F004FB3A
:1038A000A08002F001FB05EA0020A08002F0FCFAF3
:1038B000A1880843A0F50541A08052397ED0A0F52B
:1038C000EE41893958D0D42002F0BAFE02F0ECFA69
:1038D000A08002F0E9FAA08002F0E6FA05EA0020F2
:1038E000A08002F0E1FAA1880843A080B84243D04A
:1038F0005521504602F0BCFEAA214FF2010002F011
:10390000B7FE52214FF2020002F0B2FE08214FF240
:10391000030002F0ADFE01214FF2040002F0A8FE08
:103920004FF4454002F08CFE02F0BEFA05EA00209A
:10393000A0804CF2015002F083FE02F0B5FAA1889B
:103940000843A080052003F0A3FAA188494513D0BD
:10395000A12002F075FE02F0A7FAA08002F0A4FAFE
:1039600005EA0020A08002F09FFAA1880843A0F594
:10397000AE41A08061397DD0A088B0427BD1CF20FC
:1039800002F05EFE002002F049FEC12002F046FE79
:10399000302002F043FEED2002F052FE642002F0DF
:1039A0003DFE032002F03AFE122002F037FE812095
:1039B00002F034FEE82002F043FE00E0F7E085204C
:1039C00002F02CFE102002F029FE7A2002F026FEE2
:1039D000CB2002F035FE392002F020FE2C2002F030
:1039E0001DFE002002F01AFE342002F017FE022015
:1039F00002F014FEF72002F023FE202002F00EFE5B
:103A0000EA2002F01DFE002002F008FE002002F075
:103A100005FEC02002F014FE1B2002F0FFFDC120B5
:103A200002F00EFE012002F0F9FDC52002F008FEB2
:103A3000302002F0F3FD302002F0F0FDC72002F04C
:103A4000FFFDB72002F0EAFD362002F0F9FD482024
:103A500002F0E4FD3A2002F0F3FD552002F0DEFD15
:103A6000B12002F0EDFD002002F0D8FD1A2002F096
:103A7000D5FD01E09FE0ADE0B62002F0E1FD0A20B7
:103A800002F0CCFDA22002F0C9FDF22002F0D8FD28
:103A9000002002F0C3FD262002F0D2FD012002F03A
:103AA000BDFDE02002F0CCFD0F2002F0B7FD2A2082
:103AB00002F0B4FD282002F0B1FD082002F0AEFDB6
:103AC0000E2002F0ABFD082002F0A8FD542002F009
:103AD000A5FDA92002F0A2FD432002F09FFD0A20CF
:103AE00002F09CFD0F2002F099FD002002F096FDEF
:103AF000002002F093FD002002F090FD002002F073
:103B00008DFDE12002F09CFD002002F087FD1520D4
:103B100002F084FD172002F081FD072002F07EFDF7
:103B2000112002F07BFD062002F078FD2B2002F030
:103B300075FD562002F072FD3C2002F06FFD05205D
:103B400002F06CFD102002F069FD0F2002F066FD0E
:103B50003F2002F063FD3F2002F060FD0F2002F0E5
:103B60005DFD2B2002F06CFD002002F057FD0020CF
:103B700002F054FD012002F051FD3F2002F04EFD05
:103B80002A2002F05DFD002002F048FD002002F036
:103B900045FD002002F042FDEF2002F03FFD112024
:103BA00002F04EFD782003F073F901F061B847F29E
:103BB0008970A080FEE3A4F8048001F0DFBF00005C
:103BC0000010024000100140000C014000000140C4
:103BD0005C010020A0F5EE418939EBD0B84241F0FC
:103BE0004980ED2002F02CFD012002F017FDFE209F
:103BF00002F014FDEE2002F023FDDE2002F00EFDA7
:103C0000212002F00BFDF12002F01AFD012002F04C
:103C100005FDDF2002F014FD102002F0FFFCC4209F
:103C200002F00EFD8F2002F0F9FCC62002F008FD24
:103C3000002002F0F3FCE22002F0F0FCE22002F0AF
:103C4000EDFCE22002F0EAFCBF2002F0F9FCAA2021
:103C500002F0E4FCB02002F0F3FC0D2002F0DEFCE8
:103C6000002002F0DBFC0D2002F0D8FC002002F066
:103C7000D5FC112002F0D2FC002002F0CFFC19206C
:103C800002F0CCFC002002F0C9FC212002F0C6FCAE
:103C9000002002F0C3FC2D2002F0C0FC002002F046
:103CA000BDFC3D2002F0BAFC002002F0B7FC5D2014
:103CB00002F0B4FC002002F0B1FC5D2002F0AEFC8A
:103CC000002002F0ABFCB12002F0BAFC802002F030
:103CD000A5FC002002F0A2FC8B2002F09FFC00203B
:103CE00002F09CFC962002F099FC002002F096FC69
:103CF000B22002F0A5FC002002F090FC002002F0AF
:103D00008DFC022002F08AFC002002F087FC0320D8
:103D100002F084FC002002F081FCB32002F090FC51
:103D2000002002F07BFC002002F078FC002002F072
:103D300075FC002002F072FC002002F06FFC0020F5
:103D400002F06CFC002002F069FC002002F066FC2E
:103D5000002002F063FC002002F060FC002002F072
:103D60005DFC002002F05AFC002002F057FC00200D
:103D700002F054FC002002F051FC002002F04EFC46
:103D8000002002F04BFC002002F048FC002002F072
:103D900045FC002002F042FC002002F03FFC002025
:103DA00002F03CFC002002F039FC002002F036FC5E
:103DB000B42002F045FC8B2002F030FC002002F021
:103DC0002DFC962002F02AFC002002F027FCA12006
:103DD00002F024FC002002F021FCB52002F030FCAF
:103DE000022002F01BFC002002F018FC032002F06D
:103DF00015FC002002F012FC042002F00FFC002051
:103E000002F00CFCB62002F01BFC002002F006FCC5
:103E1000002002F003FCB72002F012FC002002F0A8
:103E2000FDFB002002F0FAFB3F2002F0F7FB002030
:103E300002F0F4FB5E2002F0F1FB002002F0EEFB4A
:103E4000642002F0EBFB002002F0E8FB8C2002F083
:103E5000E5FB002002F0E2FBAC2002F0DFFB0020DB
:103E600002F0DCFBDC2002F0D9FB002002F0D6FBE4
:103E7000702002F0D3FB002002F0D0FB902002F073
:103E8000CDFB002002F0CAFBEB2002F0C7FB0020B4
:103E900002F0C4FBDC2002F0C1FB002002F0BEFBFC
:103EA000B82002F0CDFB002002F0B8FB002002F0A9
:103EB000B5FB002002F0B2FB002002F0AFFB0020B7
:103EC00002F0ACFB002002F0A9FB002002F0A6FBF0
:103ED000002002F0A3FBBA2002F0B2FB242002F083
:103EE0009DFB002002F09AFB002002F097FB0020CF
:103EF00002F094FBC12002F0A3FB202002F08EFB15
:103F0000002002F08BFB542002F088FB002002F01E
:103F100085FBFF2002F082FB002002F07FFBC22025
:103F200002F08EFB0A2002F079FB002002F076FB03
:103F3000042002F073FB002002F070FBC32002F0AB
:103F40007FFB3C2002F06AFB002002F067FB3A2076
:103F500002F064FB002002F061FB392002F05EFBFE
:103F6000002002F05BFB372002F058FB002002F03B
:103F700055FB3C2002F052FB002002F04FFB3620A4
:103F800002F04CFB002002F049FB322002F046FB1D
:103F9000002002F043FB2F2002F040FB002002F043
:103FA0003DFB2C2002F03AFB002002F037FB2920D9
:103FB00002F034FB002002F031FB262002F02EFB41
:103FC000002002F02BFB242002F028FB002002F04E
:103FD00025FB242002F022FB002002F01FFB2320FF
:103FE00002F01CFB002002F019FB3C2002F016FB43
:103FF000002002F013FB362002F010FB002002F03C
:104000000DFB322002F00AFB002002F007FB2F20FC
:1040100002F004FB002002F001FB2C2002F0FEFA6B
:10402000002002F0FBFA292002F0F8FA002002F04A
:10403000F5FA262002F0F2FA002002F0EFFA24202E
:1040400002F0ECFA002002F0E9FA242002F0E6FA8D
:10405000002002F0E3FA232002F0E0FA002002F050
:10406000DDFAC42002F0ECFA622002F0D7FA002058
:1040700002F0D4FA052002F0D1FA002002F0CEFAC4
:10408000842002F0CBFA002002F0C8FAF02002F0FF
:10409000C5FA002002F0C2FA182002F0BFFA002090
:1040A00002F0BCFAA42002F0B9FA002002F0B6FA3D
:1040B000182002F0B3FA002002F0B0FA502002F00B
:1040C000ADFA002002F0AAFA0C2002F0A7FA0020B4
:1040D00002F0A4FA172002F0A1FA002002F09EFAE2
:1040E000952002F09BFA002002F098FAF32002F0EB
:1040F00095FA002002F092FAE62002F08FFA0020F2
:1041000002F08CFAC52002F09BFA322002F086FA07
:10411000002002F083FA442002F080FA002002F02E
:104120007DFA652002F07AFA002002F077FA762014
:1041300002F074FA002002F071FA882002F06EFAA0
:10414000002002F06BFAC62002F07AFA202002F07A
:1041500065FA002002F062FA172002F05FFA0020F0
:1041600002F05CFA012002F059FA002002F056FA3F
:10417000C72002F065FA002002F050FA002002F099
:104180004DFA002002F04AFA002002F047FAC82057
:1041900002F056FA002002F041FA002002F03EFA46
:1041A000002002F03BFA002002F038FAC92002F0A9
:1041B00047FA002002F032FA002002F02FFA002025
:1041C00002F02CFA002002F029FA002002F026FA70
:1041D000002002F023FA002002F020FA002002F072
:1041E0001DFA002002F01AFA002002F017FA00204F
:1041F00002F014FA002002F011FA002002F00EFA88
:10420000002002F00BFA002002F008FA002002F071
:1042100005FAE02002F014FA162002F0FFF900205F
:1042200002F0FCF91C2002F0F9F9002002F0F6F986
:10423000212002F0F3F9002002F0F0F9362002F01C
:10424000EDF9002002F0EAF9462002F0E7F900203B
:1042500002F0E4F9522002F0E1F9002002F0DEF968
:10426000642002F0DBF9002002F0D8F97A2002F095
:10427000D5F9002002F0D2F98B2002F0CFF900200E
:1042800002F0CCF9992002F0C9F9002002F0C6F939
:10429000A82002F0C3F9002002F0C0F9B92002F012
:1042A000BDF9002002F0BAF9C42002F0B7F90020ED
:1042B00002F0B4F9CA2002F0B1F9002002F0AEF920
:1042C000D22002F0ABF9002002F0A8F9D92002F0C8
:1042D000A5F9002002F0A2F9E02002F09FF90020E9
:1042E00002F09CF9F32002F099F9002002F096F90F
:1042F000E12002F0A5F9162002F090F9002002F06A
:104300008DF91C2002F08AF9002002F087F92220A2
:1043100002F084F9002002F081F9362002F07EF9E3
:10432000002002F07BF9452002F078F9002002F02D
:1043300075F9522002F072F9002002F06FF9642042
:1043400002F06CF9002002F069F97A2002F066F9B7
:10435000002002F063F98B2002F060F9002002F0E7
:104360005DF9992002F05AF9002002F057F9A820CF
:1043700002F054F9002002F051F9B92002F04EF990
:10438000002002F04BF9C42002F048F9002002F0AE
:1043900045F9CA2002F042F9002002F03FF9D2208C
:1043A00002F03CF9002002F039F9D82002F036F989
:1043B000002000E08DE302F031F9E02002F02EF958
:1043C000002002F02BF9F32002F028F9002002F07F
:1043D00025F9E22002F034F9052002F01FF900204F
:1043E00002F01CF90B2002F019F9002002F016F976
:1043F0001B2002F013F9002002F010F9342002F023
:104400000DF9002002F00AF9442002F007F900201B
:1044100002F004F94F2002F001F9002002F0FEF84A
:10442000612002F0FBF8002002F0F8F8792002F099
:10443000F5F8002002F0F2F8882002F0EFF80020F2
:1044400002F0ECF8972002F0E9F8002002F0E6F81C
:10445000A62002F0E3F8002002F0E0F8B72002F016
:10446000DDF8002002F0DAF8C22002F0D7F80020D0
:1044700002F0D4F8C72002F0D1F8002002F0CEF804
:10448000D12002F0CBF8002002F0C8F8D62002F0CC
:10449000C5F8002002F0C2F8DD2002F0BFF80020CD
:1044A00002F0BCF8F32002F0B9F8002002F0B6F8F0
:1044B000E32002F0C5F8052002F0B0F8002002F079
:1044C000ADF80A2002F0AAF8002002F0A7F81C209C
:1044D00002F0A4F8002002F0A1F8332002F09EF8C8
:1044E000002002F09BF8442002F098F8002002F02F
:1044F00095F8502002F092F8002002F08FF8622028
:1045000002F08CF8002002F089F8782002F086F89A
:10451000002002F083F8882002F080F8002002F0EA
:104520007DF8972002F07AF8002002F077F8A620B4
:1045300002F074F8002002F071F8B72002F06EF873
:10454000002002F06BF8C22002F068F8002002F0B0
:1045500065F8C72002F062F8002002F05FF8D12071
:1045600002F05CF8002002F059F8D52002F056F86D
:10457000002002F053F8DD2002F050F8002002F095
:104580004DF8F32002F04AF8002002F047F8E4204A
:1045900002F056F8012002F041F8002002F03EF847
:1045A000012002F03BF8002002F038F8022002F06F
:1045B00035F8002002F032F82A2002F02FF800200F
:1045C00002F02CF83C2002F029F8002002F026F836
:1045D0004B2002F023F8002002F020F85D2002F0CA
:1045E0001DF8002002F01AF8742002F017F80020DD
:1045F00002F014F8842002F011F8002002F00EF806
:10460000932002F00BF8002002F008F8A22002F03C
:1046100005F8002002F002F8B32001F0FFFF0020AF
:1046200001F0FCFFBE2001F0F9FF002001F0F6FFD1
:10463000C42001F0F3FF002001F0F0FFCD2001F0D5
:10464000EDFF002001F0EAFFD32001F0E7FF00209A
:1046500001F0E4FFDD2001F0E1FF002001F0DEFFCA
:10466000F32001F0DBFF002001F0D8FFE52001F08E
:10467000E7FF002001F0D2FF002001F0CFFF002073
:1046800001F0CCFF002001F0C9FF022001F0C6FFBD
:10469000002001F0C3FF292001F0C0FF002001F03D
:1046A000BDFF3C2001F0BAFF002001F0B7FF4B2016
:1046B00001F0B4FF002001F0B1FF5D2001F0AEFF7A
:1046C000002001F0ABFF742001F0A8FF002001F0F2
:1046D000A5FF842001F0A2FF002001F09FFF93209E
:1046E00001F09CFF002001F099FFA22001F096FF4D
:1046F000002001F093FFB32001F090FF002001F0B3
:104700008DFFBE2001F08AFF002001F087FFC4204A
:1047100001F084FF002001F081FFCD2001F07EFF39
:10472000002001F07BFFD32001F078FF002001F092
:1047300075FFDC2001F072FF002001F06FFFF32015
:1047400001F06CFF002001F069FFE62001F078FF26
:10475000112001F063FF002001F060FF342001F020
:104760005DFF002001F05AFF562001F057FF0020A6
:1047700001F054FF762001F051FF002001F04EFFC0
:10478000772001F04BFF002001F048FF662001F088
:1047900045FF002001F042FF882001F03FFF00208C
:1047A00001F03CFF992001F039FF002001F036FFB5
:1047B000BB2001F033FF002001F030FF992001F011
:1047C0002DFF002001F02AFF662001F027FF0020C6
:1047D00001F024FF552001F021FF002001F01EFF11
:1047E000552001F01BFF002001F018FF452001F0CB
:1047F00015FF002001F012FF432001F00FFF002001
:1048000001F00CFF442001F009FF002001F006FF39
:10481000E72001F015FF322001F000FF002001F039
:10482000FDFE552001F0FAFE002001F0F7FE762093
:1048300001F0F4FE002001F0F1FE662001F0EEFE32
:10484000002001F0EBFE672001F0E8FE002001F0FF
:10485000E5FE672001F0E2FE002001F0DFFE872088
:1048600001F0DCFE002001F0D9FE992001F0D6FE17
:10487000002001F0D3FEBB2001F0D0FE002001F0AB
:10488000CDFE992001F0CAFE002001F0C7FE77207E
:1048900001F0C4FE002001F0C1FE442001F0BEFE84
:1048A000002001F0BBFE562001F0B8FE002001F010
:1048B000B5FE232001F0B2FE002001F0AFFE332050
:1048C00001F0ACFE002001F0A9FE452001F0A6FE9B
:1048D000002001F0A3FEE82001F0B2FE002001F06C
:1048E0009DFE002001F09AFE992001F097FE002025
:1048F00001F094FE872001F091FE002001F08EFE71
:10490000882001F08BFE002001F088FE772001F066
:1049100085FE002001F082FE662001F07FFE00206F
:1049200001F07CFE882001F079FE002001F076FE87
:10493000AA2001F073FE002001F070FEBB2001F000
:104940006DFE002001F06AFE992001F067FE002054
:1049500001F064FE662001F061FE002001F05EFEC1
:10496000552001F05BFE002001F058FE552001F0BB
:1049700055FE002001F052FE442001F04FFE0020C1
:1049800001F04CFE442001F049FE002001F046FEFB
:10499000552001F043FE002001F040FEE92001F027
:1049A0004FFEAA2001F03AFE002001F037FE002061
:1049B00001F034FE002001F031FE002001F040FE45
:1049C000AA2001F02BFECF2001F03AFE002001F0DA
:1049D00025FE002001F022FE002001F01FFE002035
:1049E00001F01CFE002001F019FE002001F016FE6F
:1049F000002001F013FE002001F010FE002001F065
:104A00000DFE002001F00AFE002001F007FE00204C
:104A100001F004FE002001F001FE002001F0FEFD87
:104A2000002001F0FBFD002001F0F8FD002001F066
:104A3000F5FDF02001F004FE002001F0EFFD502014
:104A400001F0ECFD002001F0E9FD002001F0E6FDA1
:104A5000002001F0E3FDF32001F0F2FD002001F061
:104A6000DDFDF92001F0ECFD062001F0D7FD10205E
:104A700001F0D4FD292001F0D1FD002001F0CEFD90
:104A80003A2001F0DDFD552001F0C8FD112001F0B4
:104A9000D7FD642002F0FCF9292001F0D1FD35207A
:104AA00001F0CEFD002001F0B9FD512001F0C8FD5C
:104AB000FF2001F0B3FD532001F0C2FD2C2001F0D6
:104AC000ADFD552001F0BCFD822001F0A7FD2C209A
:104AD000FEE3112001F0B4FD782002F0D9F9362070
:104AE00001F0AEFD002001F099FD3A2001F0A8FD93
:104AF000052001F093FDB22001F0A2FD0C2001F091
:104B00008DFD0C2001F08AFD002001F087FD33208F
:104B100001F084FD332001F081FDB72001F090FD0C
:104B2000352001F07BFDBB2001F08AFD322001F031
:104B300075FDC02001F084FD0C2001F06FFDC22046
:104B400001F07EFD012001F069FDC32001F078FD38
:104B5000102001F063FDC42001F072FD202001F05F
:104B60005DFDC62001F06CFD0F2001F057FDD02047
:104B700001F066FDA42001F051FDA12001F04EFDE1
:104B8000E02001F05DFDD02001F048FD002001F0A3
:104B900045FD022001F042FD072001F03FFD0A2003
:104BA00001F03CFD282001F039FD322001F036FDF6
:104BB000442001F033FD422001F030FD062001F0D9
:104BC0002DFD0E2001F02AFD122001F027FD1420FA
:104BD00001F024FD172001F021FDE12001F030FD5E
:104BE000D02001F01BFD002001F018FD022001F093
:104BF00015FD072001F012FD0A2001F00FFD28200D
:104C000001F00CFD312001F009FD542001F006FDFA
:104C1000472001F003FD0E2001F000FD1C2001F0F3
:104C2000FDFC172001F0FAFC1B2001F0F7FC1E2010
:104C300001F0F4FC2A2001F003FD002001F0EEFC5D
:104C4000002001F0EBFC002001F0E8FCEF2001F077
:104C5000E5FC2B2001F0F4FC002001F0DFFC00203B
:104C600001F0DCFC012001F0D9FC3F2001F0D6FC72
:104C700029202DE748457CD15521504601F0F8FC0C
:104C80004FF20104AA21204601F0F2FC651C5221DA
:104C9000284601F0EDFCA61C0821304601F0E8FC96
:104CA000E71C0121384601F0E3FC0D214FF43040B0
:104CB00001F0DEFC0D214BF2010001F0D9FC0D21C9
:104CC0004BF2020001F0D4FC4FF436483421404648
:104CD00001F0CEFC34214BF2016001F0C9FC34211B
:104CE0004BF2026001F0C4FC4FF431490D214846FB
:104CF00001F0BEFC4BF2011B0D21584601F0B8FC3F
:104D00000D214BF2021001F0B3FC34214FF4374077
:104D100001F0AEFC34214BF2017001F0A9FC34210A
:104D20004BF2027001F0A4FC00214FF4324001F07C
:104D30009FFC00214BF2012001F09AFC00214BF274
:104D4000022001F095FC24214FF4384001F090FC42
:104D500024214BF6010001F08BFC24214BF60200CC
:104D600001F086FC01214FF43F4001F081FC0F214E
:104D700000E0FDE34FF4334001F07AFC0F214BF2E9
:104D8000013001F075FC0F214BF2023001F070FC94
:104D900034214FF4394001F06BFC34214BF6011003
:104DA00001F066FC34214BF6021001F061FC082191
:104DB0004FF4354001F05CFC08214BF2015001F04A
:104DC00057FC08214BF2025001F052FC03214FF432
:104DD000424001F04DFC24214FF43A4001F048FCE0
:104DE00024214BF6012001F043FC24214BF6022044
:104DF00001F03EFC00214FF43C4001F039FC7821E9
:104E00004BF6014001F034FC00214BF6024001F06A
:104E10002FFC00214FF43D4001F02AFC78214BF695
:104E2000015001F025FC00214BF6025001F020FC5E
:104E300000214FF43E4001F01BFC64214BF6016061
:104E400001F016FC00214FF4514001F011FC332118
:104E50004DF2011001F00CFC00214DF2021001F0A6
:104E600007FC34214DF2031001F002FC00214DF249
:104E7000041001F0FDFB3A214DF2051001F0F8FBA2
:104E800000214DF2061001F0F3FB4A214DF207100C
:104E900001F0EEFB00214DF2081001F0E9FB5C216E
:104EA0004DF2091001F0E4FB00214DF20A1001F06F
:104EB000DFFB81214DF20B1001F0DAFB00214DF2F6
:104EC0000C1001F0D5FBA6214DF20D1001F0D0FB26
:104ED00000214DF20E1001F0CBFBE5214DF20F1039
:104EE00001F0C6FB01214DF2101001F0C1FB1321AE
:104EF0004DF2111001F0BCFB01214DF2121001F036
:104F0000B7FB54214DF2131001F0B2FB01214DF219
:104F1000141001F0ADFB82214DF2151001F0A8FB39
:104F200001214DF2161001F0A3FBCA214DF217101A
:104F300001F09EFB02214DF2181001F099FB0021B7
:104F40004DF2191001F094FB02214DF21A1001F0FC
:104F50008FFB01214DF21B1001F08AFB02214DF263
:104F60001C1001F085FB34214DF21D1001F080FB77
:104F700002214DF21E1001F07BFB67214DF21F1044
:104F800001F076FB02214DF2201001F071FB84212B
:104F90004DF2211001F06CFB02214DF2221001F0C4
:104FA00067FBA4214DF2231001F062FB02214DF2B8
:104FB000241001F05DFBB7214DF2251001F058FBE4
:104FC00002214DF2261001F053FBCF214DF22710A4
:104FD00001F04EFB02214DF2281001F049FBDE21C9
:104FE0004DF2291001F044FB02214DF22A1001F08C
:104FF0003FFBF2214DF22B1001F03AFB02214DF262
:105000002C1001F035FBFE214DF22D1001F030FB8C
:1050100003214DF22E1001F02BFB10214DF22F1029
:1050200001F026FB03214DF2301001F021FB33216A
:105030004DF2311001F01CFB03214DF2321001F052
:1050400017FB6D214DF2331001F012FB00214FF4DC
:10505000524001F00DFB33214DF2012001F008FB1D
:1050600000214DF2022001F003FB34214DF2032018
:1050700001F0FEFA00214DF2042001F0F9FA3A2184
:105080004DF2052001F0F4FA00214DF2062001F066
:10509000EFFA4A214DF2072001F0EAFA00214DF221
:1050A000082001F0E5FA5C214DF2092001F0E0FA58
:1050B00000214DF20A2001F0DBFA81214DF20B2094
:1050C00001F0D6FA00214DF20C2001F0D1FAA62110
:1050D0004DF20D2001F0CCFA00214DF20E2001F02E
:1050E000C7FAE5214DF20F2001F0C2FA01214DF27D
:1050F000102001F0BDFA13214DF2112001F0B8FA91
:1051000001214DF2122001F0B3FA54214DF2132087
:1051100001F0AEFA01214DF2142001F0A9FA82212A
:105120004DF2152001F0A4FA01214DF2162001F0F4
:105130009FFACA214DF2172001F09AFA02214DF28E
:10514000182001F095FA00214DF2192001F090FA93
:1051500002214DF21A2001F08BFA01214DF21B20A1
:1051600001F086FA02214DF21C2001F081FA34216F
:105170004DF21D2001F07CFA02214DF21E2001F0BB
:1051800077FA67214DF21F2001F072FA02214DF2E9
:10519000202001F06DFA84214DF2212001F068FAFF
:1051A00002214DF2222001F063FAA4214DF22320C6
:1051B00001F05EFA02214DF2242001F059FAB721E4
:1051C0004DF2252001F054FA02214DF2262001F083
:1051D0004FFACF214DF2272001F04AFA02214DF279
:1051E000282001F045FADE214DF2292001F040FA95
:1051F00002214DF22A2001F03BFAF2214DF22B2040
:1052000001F036FA02214DF22C2001F031FAFE2194
:105210004DF22D2001F02CFA03214DF22E2001F049
:1052200027FA10214DF22F2001F022FA03214DF22E
:10523000302001F01DFA33214DF2312001F018FA2F
:1052400003214DF2322001F013FA6D214DF233208B
:1052500001F00EFA00214FF4534001F009FA332116
:105260004DF2013001F004FA00214DF2023001F05C
:10527000FFF934214DF2033001F0FAF900214DF22B
:10528000043001F0F5F93A214DF2053001F0F0F962
:1052900000214DF2063001F0EBF94A214DF20730C2
:1052A00001F0E6F900214DF2083001F0E1F95C214E
:1052B0004DF2093001F0DCF900214DF20A3001F025
:1052C000D7F981214DF20B3001F0D2F9002100E035
:1052D000FDE34DF20C3001F0CBF9A6214DF20D307B
:1052E00001F0C6F900214DF20E3001F0C1F9E521BF
:1052F0004DF20F3001F0BCF901214DF2103001F0F8
:10530000B7F913214DF2113001F0B2F901214DF23C
:10531000123001F0ADF954214DF2133001F0A8F92B
:1053200001214DF2143001F0A3F982214DF2153024
:1053300001F09EF901214DF2163001F099F9CA21D0
:105340004DF2173001F094F902214DF2183001F0BE
:105350008FF900214DF2193001F08AF902214DF246
:105360001A3001F085F901214DF21B3001F080F96E
:1053700002214DF21C3001F07BF934214DF21D3039
:1053800001F076F902214DF21E3001F071F967212A
:105390004DF21F3001F06CF902214DF2203001F086
:1053A00067F984214DF2213001F062F902214DF2BA
:1053B000223001F05DF9A4214DF2233001F058F9BB
:1053C00002214DF2243001F053F9B7214DF225307E
:1053D00001F04EF902214DF2263001F049F9CF21BA
:1053E0004DF2273001F044F902214DF2283001F04E
:1053F0003FF9DE214DF2293001F03AF902214DF258
:105400002A3001F035F9F2214DF22B3001F030F95C
:1054100002214DF22C3001F02BF9FE214DF22D30FE
:1054200001F026F903214DF22E3001F021F910216F
:105430004DF22F3001F01CF903214DF2303001F014
:1054400017F933214DF2313001F012F903214DF2F9
:10545000323001F00DF96D214DF2333001F008F9D1
:1054600000214FF4544001F003F933214DF2014083
:1054700001F0FEF800214DF2024001F0F9F834216C
:105480004DF2034001F0F4F800214DF2044001F028
:10549000EFF83A214DF2054001F0EAF800214DF213
:1054A000064001F0E5F84A214DF2074001F0E0F82E
:1054B00000214DF2084001F0DBF85C214DF209407B
:1054C00001F0D6F800214DF20A4001F0D1F8812117
:1054D0004DF20B4001F0CCF800214DF20C4001F0F0
:1054E000C7F8A6214DF20D4001F0C2F800214DF29F
:1054F0000E4001F0BDF8E5214DF20F4001F0B8F883
:1055000001214DF2104001F0B3F813214DF211408A
:1055100001F0AEF801214DF2124001F0A9F854213A
:105520004DF2134001F0A4F801214DF2144001F0B6
:105530009FF882214DF2154001F09AF801214DF2B9
:10554000164001F095F8CA214DF2174001F090F88D
:1055500002214DF2184001F08BF800214DF2194064
:1055600001F086F802214DF21A4001F081F800E0C6
:1055700002E301214DF21B4001F07AF802214DF2C5
:105580001C4001F075F834214DF21D4001F070F817
:1055900002214DF21E4001F06BF867214DF21F40D1
:1055A00001F066F802214DF2204001F061F88421FB
:1055B0004DF2214001F05CF802214DF2224001F051
:1055C00057F8A4214DF2234001F052F802214DF288
:1055D000244001F04DF8B7214DF2254001F048F884
:1055E00002214DF2264001F043F8CF214DF2274031
:1055F00001F03EF802214DF2284001F039F8DE2199
:105600004DF2294001F034F802214DF22A4001F018
:105610002FF8F2214DF22B4001F02AF802214DF231
:105620002C4001F025F8FE214DF22D4001F020F82C
:1056300003214DF22E4001F01BF810214DF22F40B6
:1056400001F016F803214DF2304001F011F833213A
:105650004DF2314001F00CF803214DF2324001F0DF
:1056600007F86D214DF2334001F002F800214FF4AC
:10567000554000F0FDFF33214DF2015000F0F8FFDE
:1056800000214DF2025000F0F3FF34214DF203509F
:1056900000F0EEFF00214DF2045000F0E9FF3A2146
:1056A0004DF2055000F0E4FF00214DF2065000F0ED
:1056B000DFFF4A214DF2075000F0DAFF00214DF2E2
:1056C000085000F0D5FF5C214DF2095000F0D0FFEA
:1056D00000214DF20A5000F0CBFF81214DF20B501A
:1056E00000F0C6FF00214DF20C5000F0C1FFA621D2
:1056F0004DF20D5000F0BCFF00214DF20E5000F0B5
:10570000B7FFE5214DF20F5000F0B2FF01214DF23D
:10571000105000F0ADFF13214DF2115000F0A8FF22
:1057200001214DF2125000F0A3FF54214DF213500D
:1057300000F09EFF01214DF2145000F099FF8221EC
:105740004DF2155000F094FF01214DF2165000F07B
:105750008FFFCA214DF2175000F08AFF02214DF24F
:10576000185000F085FF00214DF2195000F080FF25
:1057700002214DF21A5000F07BFF01214DF21B5027
:1057800000F076FF02214DF21C5000F071FF342131
:105790004DF21D5000F06CFF02214DF21E5000F042
:1057A00067FF67214DF21F5000F062FF02214DF2AA
:1057B000205000F05DFF84214DF2215000F058FF91
:1057C00002214DF2225000F053FFA4214DF223504C
:1057D00000F04EFF02214DF2245000F049FFB721A6
:1057E0004DF2255000F044FF02214DF2265000F00A
:1057F0003FFFCF214DF2275000F03AFF02214DF23A
:10580000285000F035FFDE214DF2295000F030FF26
:1058100002214DF22A5000F02BFFF2214DF22B50C5
:1058200000F026FF02214DF22C5000F021FFFE2156
:105830004DF22D5000F01CFF03214DF22E5000F0D0
:1058400017FF10214DF22F5000F012FF03214DF2EF
:10585000305000F00DFF33214DF2315000F008FFC1
:1058600003214DF2325000F003FF6D214DF2335011
:1058700000F0FEFE00214FF4564000F0F9FE332107
:105880004DF2016000F0F4FE00214DF2026000F0E4
:10589000EFFE34214DF2036000F0EAFE00214DF2EC
:1058A000046000F0E5FE3A214DF2056000F0E0FEF4
:1058B00000214DF2066000F0DBFE4A214DF2076048
:1058C00000F0D6FE00214DF2086000F0D1FE5C2110
:1058D0004DF2096000F0CCFE00214DF20A6000F0AC
:1058E000C7FE81214DF20B6000F0C2FE00214DF297
:1058F0000C6000F0BDFEA6214DF20D6000F0B8FE78
:1059000000214DF20E6000F0B3FEE5214DF20F6074
:1059100000F0AEFE01214DF2106000F0A9FE13214F
:105920004DF2116000F0A4FE01214DF2126000F072
:105930009FFE54214DF2136000F09AFE01214DF2BA
:10594000146000F095FE82214DF2156000F090FE8B
:1059500001214DF2166000F08BFECA214DF2176056
:1059600000F086FE02214DF2186000F081FE002159
:105970004DF2196000F07CFE02214DF21A6000F039
:1059800077FE01214DF21B6000F072FE02214DF204
:105990001C6000F06DFE34214DF21D6000F068FEC9
:1059A00002214DF21E6000F063FE67214DF21F6080
:1059B00000F05EFE02214DF2206000F059FE8421CD
:1059C0004DF2216000F054FE02214DF2226000F001
:1059D0004FFEA4214DF2236000F04AFE02214DF259
:1059E000246000F045FEB7214DF2256000F040FE36
:1059F00002214DF2266000F03BFECF214DF22760E0
:105A000000F036FE02214DF2286000F031FEDE216A
:105A10004DF2296000F02CFE02214DF22A6000F0C8
:105A200027FEF2214DF22B6000F022FE02214DF202
:105A30002C6000F01DFEFE214DF22D6000F018FEDE
:105A400003214DF22E6000F013FE10214DF22F6065
:105A500000F00EFE03214DF2306000F009FE33210C
:105A60004DF2316000F004FE03214DF2326000F08F
:105A7000FFFD6D214DF2336000F0FAFD55215046D7
:105A800000F0F6FDAA21204600F0F2FD5221284642
:105A900000F0EEFD0821304600F0EAFD0021384616
:105AA00000F0E6FDCC21484600F0E2FD002158461A
:105AB00000F0DEFD0521404600F0DAFD70214FF4D4
:105AC000374000F0D5FD70214BF2017000E050E04E
:105AD00000F0CEFD01214FF4384000F0C9FD032154
