:020000040800F2
:1000000018050020ED0100088B19000845170008AD
:1000100089190008F90200086D200008000000009E
:100020000000000000000000000000004F1A00085F
:10003000FB020008000000008D190008511A00089A
:10004000070200080702000807020008070200086C
:10005000070200080702000807020008070200085C
:10006000070200080702000807020008070200084C
:10007000070200080702000807020008070200083C
:10008000070200080000000007020008070200083D
:10009000070200080702000807020008070200081C
:1000A000070200080702000807020008070200080C
:1000B00007020008070200080702000807020008FC
:1000C00007020008070200080702000807020008EC
:1000D00007020008070200080702000807020008DC
:1000E00007020008070200080702000807020008CC
:1000F00007020008070200080702000800000000CD
:1001000000000000070200080000000007020008CD
:100110000702000800000000DD1A000807020008BE
:10012000070200080702000807020008070200088B
:10013000070200080000000000000000070200089D
:10014000070200080702000800000000000000008D
:10015000000000000000000000000000000000009F
:10016000000000000000000000000000070200087E
:10017000070200080000000000000000000000006E
:10018000000000000702000800000000000000005E
:10019000000000000000000000000000000000005F
:1001A000000000000000000007020008070200082D
:1001B000070200080702000807020008000000000C
:1001C000000000000702000800000000000000001E
:1001D0000702000807020008DFF80CD000F07AF8E8
:1001E0000048004795200008180500200648804771
:1001F00006480047FEE7FEE7FEE7FEE7FEE7FEE70C
:10020000FEE7FEE7FEE7FEE7CD1A0008D901000889
:100210002DE9F05F0546002092469B46884606463B
:10022000814640241BE0284641464746224600F0CE
:1002300041F853465A46C01A914110D31146184608
:10024000224600F028F82D1A67EB01084F46224697
:100250000120002100F01FF817EB00094E41201E7D
:10026000A4F10104DFDC484631462A464346BDE896
:10027000F09FD2B201E000F8012B491EFBD270477B
:100280000022F6E710B513460A4604461946FFF762
:10029000F0FF204610BD202A04DB203A00FA02F1CC
:1002A000002070479140C2F1200320FA03F3194364
:1002B00090407047202A04DB203A21FA02F0002106
:1002C000704721FA02F3D040C2F120029140084366
:1002D00019467047064C074D06E0E06840F0010300
:1002E00094E8070098471034AC42F6D3FFF778FF44
:1002F0000C2100082C210008FEE77047EFF3108066
:1003000072B6FEE72DE9FC4F604A06274FF0000B5E
:100310004FF001094FF00008904200F1384208BF49
:1003200005274FEAB223052B38BF4FEAB227002238
:1003300000970C6834FA02F308BFBDE8FC8F09FA95
:1003400002F314EA030A00F09B804E6806F00304EF
:10035000671E012F1ED80327D0F808C0D1F80CE083
:1003600007FA08F90EFA08F72CEA090C4FEA420ED0
:1003700047EA0C078760C6F3001707FA02FC4768D4
:1003800027EA030343EA0C036FEA090C4FF0010963
:1003900043600AE00323032CC64603FA08F36FEA1E
:1003A000030C02D1C64603241EE0C3688F68022CEA
:1003B00003EA0C0307FA0EF743EA0703C36013D1FD
:1003C0006FF003050BF01C030F2405EA52069C4056
:1003D0000644376A27EA04040F6907FA03F3234344
:1003E00033624E6806F00304076804FA0EF316F44D
:1003F000403F07EA0C0743EA0703036040D0264B5F
:10040000234D264C0BF00C061F461B68A44643F0F8
:1004100001033B603B6803F00103019322F00303F7
:10042000019F2B441F590F24B440A743009C04FA9A
:1004300006F6374343F80C70AB684E6843EA0A0788
:10044000F40258BF23EA0A07124BAF60B4029C467D
:100450001B6843EA0A0758BF23EA0A07CCF8007072
:10046000B4036B6843EA0A0758BF23EA0A076F60C0
:10047000F6032B6843EA0A0758BF23EA0A072F60EE
:100480000BF1040B08F10208013252E70014004896
:10049000000401400C0401406010024008FCFFFF12
:1004A0001823002A08BF2823C15070470548006858
:1004B000704700BF1B48034940680A681044086041
:1004C000704700BF1401002080B5032000F072F8CF
:1004D000002000F007F808B1012080BD00F024F8EA
:1004E000002080BD70B50F4E04467068B0B14FF467
:1004F0007A71B1FBF0F060490968B1FBF0F000F0EF
:1005000093FE01250F2C0AD848B94FF0FF30214641
:100510000022002500F030F8346000E00125284674
:1005200070BD00BF0000002082B00B48816841F020
:1005300001018160816801F0010101910199016867
:1005400041F080510160006800F0805000900098F8
:1005500002B000F095B800BF58100240002808DB38
:1005600000F01F010122400902FA01F1014A42F89C
:100570002010704700E100E080B5144B1B68C3F306
:10058000022CBCF1030E8CF007034FF0FF3C38BF88
:100590004FF0000E042B28BF04230CFA03F39943F9
:1005A0000CFA0EF301FA0EF19A431143BDE88040B4
:1005B00001F05EBD05494FF6FF030A681A4060F37B
:1005C0000A22034810430860704700BF0CED00E0AA
:1005D0000000FA0520B3B949B0F5007F0A6845D19B
:1005E000D1F8800040F48070C1F8800002F4C0604F
:1005F000B0F5806F3ED10868012262F34A203222B2
:1006000008601D48006850431C4AB0FBF2F0C0432C
:100610004A6918B1013012F48062F9D1486920E0CA
:10062000A6480168D0F8802001F4C06122F48072ED
:10063000B1F5806FC0F880201CD10168012262F3FF
:100640004A21322201600C49096851430B4AB1FB2F
:10065000F2F1C943426919B1013112F48062F9D152
:100660004069400544BF0320704703E0022060F367
:100670004A220A60002070470800002040420F0014
:100680000248016841F480410160704708700040F1
:100690002DE9FC4104468078874E000701D40020F4
:1006A0005DE0F06CC0000BD4F06C4FF0010840F03E
:1006B0008050F064F06C00F080500190019801E0EF
:1006C0004FF000087D4F386840F480703860FFF7C5
:1006D000EDFE05463868C00506D4FFF7E7FE401B6F
:1006E0000228F7D9032033E0D6F8840010F44070D4
:1006F00025D0216C884211D0D6F88400D6F8841019
:1007000041F4803120F44070C6F88410D6F884108B
:1007100021F48031C6F88410C6F88400C0070ED0DA
:10072000FFF7C4FE054641F28837D6F884008007FB
:1007300005D4FFF7BBFE401BB842F6D9D2E7D6F886
:100740008400216C20F440700843C6F88400002027
:10075000B8F1000F1EBFF16C21F08051F1642168E7
:10076000CA0705D0F26F636822F003021A43F267EA
:100770008A0705D5F26FA36822F00C021A43F267CC
:100780004A0705D5F26FE36822F030021A43F26798
:100790000A0705D5F26F236922F0C0021A43F267F7
:1007A0008A0605D5F26F636922F440621A43F26744
:1007B0004A0605D5F26FA36922F440521A43F26744
:1007C0000A0605D5F26FE36922F440421A43F26744
:1007D000CA0505D5F26F236A22F440321A43F26744
:1007E0008A0505D5F26F636A22F440221A43F26744
:1007F0004A050DD5F26FA36A22F44012B3F5801FAB
:1008000042EA0302F26702BF326842F480123260A9
:100810000A050DD5F26FE36A22F44002B3F5800FAA
:1008200042EA0302F26702BF326842F48012326089
:10083000CA040DD5F26F236B22F04072B3F1807FB2
:1008400042EA0302F26702BF326842F48012326069
:100850008A040DD5F26F636B22F04062B3F1006F32
:1008600042EA0302F26702BF326842F48012326049
:100870004A040DD5F26FA36B22F04062B3F1006F12
:1008800042EA0302F26702BF326842F48012326029
:1008900009040DD5F16FE26B21F04051B2F1805F98
:1008A00041EA0201F16702BF316841F480313160F1
:1008B00002B0BDE8F08100BF0C10024000700040A3
:1008C0002DE9F047002854D0724B04460D461868B5
:1008D00000F00F00884209D2186820F00F0028436A
:1008E0001860186800F00F00A84242D12068934EAB
:1008F0009A46C107B14602D14FF000086BE061682B
:10090000032930D156F8081C890132D57168726804
:1009100073687768B4460226C7F3416701F00301A4
:1009200006EB4707864E032904BF41F20026C0F2BA
:100930007A06C2F30311C3F306220131B6FBF1F1CB
:100940005143554AB1FBF7F1914224D9DCF800102C
:10095000664611F0F00F16D0800701D5A06890B15F
:100960004FF000081AE056F8080C022904D1800361
:1009700004D40120BDE8F0874005FAD500F0AEF8B8
:1009800045498842ECD9306808214FF0800861F36E
:100990000710306002E04FF000086646306861687A
:1009A00020F0030008433060FFF780FD064641F267
:1009B00088374846D9F80000616800F00C00B0EBB9
:1009C000810F05D0FFF772FD801BB842F1D939E0E5
:1009D00020684E465346810706D4B8F1800F16D1E1
:1009E000316821F0F00111E0410742BF316841F464
:1009F000E0613160010704D53168072262F30D21FF
:100A000031603168A26821F0F0011143316019684A
:100A100001F00F01A9421AD9186820F00F002843ED
:100A20001860FFF743FD064641F288375046DAF872
:100A3000000000F00F00A84207D0FFF737FD801B31
:100A4000B842F3D90320BDE8F08720684E4641073D
:100A500005D53168E26821F4E06111433160000797
:100A600006D53068216920F4605040EAC10030604A
:100A700000F034F83168094AC1F30311515C01F008
:100A80001F01C8401349086005480068BDE8F047E9
:100A9000FFF728BD0020024000B4C404CC200008A9
:100AA000000000200B4825490B4A00680968C1F383
:100AB0000221515C01F01F01C840704705481F49E1
:100AC000054A00680968C1F3C221515C01F01F01A9
:100AD000C840704708000020DC2000081749184A69
:100AE000086800F00C000428104608BF704708682A
:100AF00000F00C031348082B1ED00B6803F00C0306
:100B00000C2B1CBF002070474B6803F00303032B22
:100B100008BF02464868C0F303100130B2FBF0F092
:100B20004A68C2F30622496850430222C1F3416178
:100B300002EB4101B0FBF1F0704700BF081002402A
:100B40000024F40000127A002DE9FC41002800F096
:100B5000AA8104460078DF4EC0071ED120788007A6
:100B600047D42078000740F19A806169D6F8940054
:100B7000002900F0838040F00100C6F89400FFF7E0
:100B800095FC0546D6F89400800700F18880FFF7B1
:100B90008DFC401B0228F5D9C9E0B168F06801F06E
:100BA0000C0108294BD0032281F00C0122EA00003D
:100BB0000844B0FA80F0400941D16768B7F5803F3A
:100BC00007D03068B7F5A02F40F0CC8040F48020EB
:100BD0003060306840F480303060FFF767FC0546D5
:100BE00030688003BAD4FFF761FC401B6428F7D952
:100BF0009DE0B068F16800F00C00042828D001F0F6
:100C0000030180F00C0081F002010844B0FA80F08A
:100C100040091DD1E1683068002900F08A8040F465
:100C200080703060FFF742FC05463068400500F1F7
:100C30009180FFF73BFC401B0228F6D977E0306833
:100C400080037FF58BAF606800287FF487AF2AE1CF
:100C50003068400503D5E068002800F02481706802
:100C6000216920F0FE4040EA01607060C0480068E1
:100C7000FFF738FC002840F0168172E720F00100F1
:100C8000C6F89400FFF712FC0546D6F894008007DA
:100C900005D5FFF70BFC401B0228F6D947E020786A
:100CA000400740F19A80B06DC0000BD4B06D4FF09A
:100CB000010840F08050B065B06D00F080500190A8
:100CC000019801E04FF00008AA4F3868C0050FD422
:100CD000386840F480703860FFF7E8FB05463868F4
:100CE000C00505D4FFF7E2FB401B0228F7D91EE040
:100CF000A768012F07D0D6F89000052F4AD140F001
:100D00000400C6F89000D6F8900040F00100C6F844
:100D10009000FFF7CBFB054641F28837D6F89000EC
:100D2000800753D4FFF7C2FB401BB842F6D903201B
:100D3000BAE020F480703060FFF7B8FB05463068F9
:100D400040057FF50EAFFFF7B1FB411B03200229E1
:100D5000F5D9A9E07068216920F0FE4040EA016001
:100D60007060FEE620F480303060306820F480202F
:100D70003060FFF79BFB0546002F7FF431AF3068F2
:100D800080037FF5EBAEFFF791FB411B0320642945
:100D9000F5D989E020F00100C6F89000D6F890005F
:100DA00020F00400C6F89000FFF780FB0546002FF6
:100DB000B2D141F28837D6F89000800706D5FFF708
:100DC00075FB411B0320B942F5D96DE0B8F1000F66
:100DD0001EBFB06D20F08050B0652078800627D50A
:100DE000A169D6F8980089B140F00100C6F89800D2
:100DF000FFF75CFB0546D6F89800800718D4FFF78C
:100E000055FB411B03200229F5D94DE020F00100DC
:100E1000C6F89800FFF74AFB0546D6F89800800709
:100E200006D5FFF743FB411B03200229F5D93BE020
:100E3000E069002800F09A80B16801F00C010C29EB
:100E400035D101282FD0F068216A00F003028A42D0
:100E500029D1616A6FF00F0202EB011100F0F0027C
:100E60008A4220D1A16A00F4FE42B2EB012F1AD1CE
:100E7000E16A00F07842B2EBC16F14D1216B404AB5
:100E800002EA015100F4C002A1F500118A420AD120
:100E9000616B4FF07E4200F0C06002EA016101F137
:100EA0007E41884262D0012002B0BDE8F081316805
:100EB000022821F0807131600ED1FFF7F7FA054664
:100EC000306880011DD5FFF7F1FA411B032002298C
:100ED000F6D9E9E700100240F068274920F0030046
:100EE000F060F0680840F060FFF7E0FA0446306810
:100EF00080013BD5FFF7DAFA011B03200229F6D95E
:100F0000D2E704F12007F0686FF00F058ECF05EBF4
:100F100002121A4D28400843216B1043184A40EA38
:100F2000032002EA01514FF07E42A1F5001108436F
:100F3000616B40EAC76002EA016101F17E4108434A
:100F4000F060306840F080703060F06840F0807091
:100F5000F060FFF7ABFA04463068800106D4FFF773
:100F6000A5FA011B03200229F6D99DE700209BE783
:100F70000000002000700040FFFFEEFE0C809F018B
:100F80000000E0FF10B578B3044690F8250028B9BA
:100F9000002084F82400204600F03EF80220CA21F8
:100FA00084F825002068416253214162204600F008
:100FB00004FDA8B92068174A816911408161616800
:100FC0002269A36911438269194311438161D4E9FC
:100FD000021242EA01410161204600F011FD28B1F0
:100FE0002168FF224A6210BD012010BD206881697E
:100FF000D4F814C0D4E9073221F0604111431943F9
:1010000041EA0C018161FF214162012084F8250041
:10101000002010BDBFFF8FFB10B592B0044601A8A1
:101020004421FFF72DF920680F49884219D14FF468
:10103000007011904FF40020019001A8FFF728FBE9
:1010400008B1FFF75BF9D248816B41F4004181633D
:10105000016841F480610160006800F480600090E4
:10106000009812B010BD00BF002800402DE9F041EB
:101070000D4690F8241004460220012908BFBDE85F
:10108000F08184F825000120002A84F8240006D08D
:101090006878E978AE78000240EA014714E06F789A
:1010A000DFF84881F80642BF07F0EF0000F10A07B9
:1010B0006F70E878C0470646F8B2C047000240EAC1
:1010C0000647A878C04706462068CA212D784162A5
:1010D00053214162204600F070FC18B12168FF22C4
:1010E0004A6213E047EA0600216820F0C00040EAA7
:1010F00045304860204600F083FC2168FF2200282C
:101100004A6203D1012084F825000020002184F8E0
:101110002410BDE8F08100BF2DE9F0470D4690F89E
:10112000241004460220012908BFBDE8F08784F896
:1011300025000120CA21164684F824002068416257
:1011400053214162204600F038FC18B12168FF228B
:101150004A6246E02768002EB86900F040000FD0D0
:10116000002807BF4FF0000985F80390E8784FEAA0
:1011700080596A782978A878120242EA014614E078
:10118000002807BF4FF0000985F80390E8784FEA80
:101190008059DFF858A02878D04780466878D04733
:1011A000000240EA0846A878D0473043104940EA98
:1011B000090008403860B86920F48020B861D5E99A
:1011C0000301BA6908431043B861204600F018FCD7
:1011D0002168FF2200284A6203D1012084F82500FB
:1011E0000020002184F82410BDE8F0878F19000842
:1011F0007F7F7F00B0B504460068C16821F0200100
:10120000C160FFF753F905462068C068800644BFF7
:101210000020B0BDFFF74AF9401BB0F57A7F84BFCC
:101220000320B0BDF0E70000411E0020B0EB116FBD
:101230001CBF01207047044AF023516003490B7022
:10124000072190601160704710E000E023ED00E09E
:1012500070477047704770477047704790F83C3050
:101260000222012B37D070B580F83D2001221B4DA2
:1012700080F83C20026854689368AA4202D0184E55
:10128000B24203D14E6824F470043443154EB2F1D7
:10129000804F06EA04060C6846EA040656600DD044
:1012A000114CA2420AD0114CA24207D00C4CA242CF
:1012B00004D00F4CA24201D0AA4204D1896823F085
:1012C0008003194391600022012180F83C2080F8BE
:1012D0003D10BDE870401046704700BF003401402B
:1012E000002C01408FFFFFFD00040040000800407B
:1012F00000400140704760B310B5044690F83D00CF
:1013000028B9002084F83C00204600F025F802208F
:10131000211D84F83D00206800F0E6FB012084F8E0
:10132000480084F83E0084F83F0084F8400084F8C8
:10133000410084F8420084F8430084F8440084F8B3
:10134000450084F8460084F8470084F83D000020FA
:1013500010BD01207047000000680C49884218BF8A
:101360007047E0B50A480022016841F010010160B1
:101370000421006800F01000019001983620FFF76A
:10138000FBF83620BDE88C40FFF7E8B800100040BD
:1013900058100240704710B504460068016989077B
:1013A00044BFC1685FEA81715BD40169490744BFEA
:1013B000C1685FEA417160D40169090744BFC1682F
:1013C0005FEA017166D40169C90644BFC1685FEA7A
:1013D000C1616BD40169C9071CBFC1685FEAC171F3
:1013E00071D10169090644BFC1685FEA016172D425
:1013F0000169C90544BFC1685FEA016173D401692D
:10140000490644BFC1685FEA416174D40169890635
:1014100044BFC1685FEA816175D40169C90244BFF4
:10142000C1685FEAC12176D40169890244BFC168FD
:101430005FEA812177D40169490244BFC1685FEA4C
:10144000412178D40169090246BFC1685FEA0121E0
:1014500010BD6FF4000101612046BDE81040FFF7A8
:1014600049BF6FF002010161012121778069800786
:1014700069D02046FFF78EFF6BE06FF00401016139
:1014800002212177806910F4407F66D02046FFF763
:1014900081FF68E06FF00801016104212177C069D4
:1014A000800764D02046FFF775FF66E06FF01001FB
:1014B000016108212177C06910F4407F61D0204686
:1014C000FFF768FF63E06FF001010161204600F063
:1014D00064F8206885E76FF0800101612046FFF71E
:1014E000B8FE206884E76FF4807101612046FFF741
:1014F000AFFE206883E76FF040010161204600F0F5
:101500004DF8206882E76FF0200101612046FFF767
:10151000A1FE206881E76FF4801101612046FFF78A
:101520009BFE206880E76FF4001101612046FFF701
:1015300092FE20687FE76FF4800101612046FFF78B
:101540008CFE20687EE7204600F025F8204600F05B
:1015500023F800202077206827E7204600F01BF8BA
:10156000204600F019F800202077206824E7204664
:1015700000F011F8204600F00FF8002020772068D6
:1015800021E7204600F007F8204600F005F800208B
:10159000207720681EE7704770477047704790F8C3
:1015A0008010012901D1022112E02421C0F8841009
:1015B00002681368116821F0010123F000531160E3
:1015C000002141661360202280F88010C0F884203A
:1015D00008467047B0B5044690F88000012804BF63
:1015E0000220B0BD2420C4F88400012084F88000CB
:1015F00020680568026822F001020260826822F019
:10160000606211438160204600F0E4FA20682021E6
:101610000560002084F88000C4F88410B0BDB0B527
:10162000044690F88000012804BF0220B0BD2420A9
:10163000C4F88400012084F88000206805680268EE
:1016400022F001020260826822F060421143816050
:10165000204600F0BFFA206820210560002084F8B1
:101660008000C4F88410B0BD10B5B0B10446D0F805
:10167000840028B9002084F88000204600F026F875
:101680002420C4F884002068016821F00101016071
:10169000204600F065FB012801D1012010BDA06AA1
:1016A00010B1204600F0C0FA2068416821F4904152
:1016B0004160816821F02A018160016841F00101E7
:1016C00001602046BDE8104000F017BB10B598B08F
:1016D000044613A81421FEF7D3FD02A84421FEF707
:1016E000CFFD2068A74988422AD100240120039415
:1016F000029002A8FEF7CCFF08B1FEF7FFFD5348A9
:10170000416941F480414161416901F480410191A5
:101710000199016841F00101016013A9006800F01E
:10172000010001900198072017900220CDE915448F
:1017300014904FF4C06013904FF09040FEF7E2FD1C
:1017400018B010BDFEE700002DE9F04F87B000246F
:101750003E48404F01224FF47F464FF00108069467
:10176000016841F004010160016801F00401019188
:101770000199016841F020010160016801F0200138
:1017800001910199016841F001010160016801F0D6
:10179000010101910199016841F0020101600168B4
:1017A00001F0020101910199016841F00801016015
:1017B0004FF47F41006800F0080001900198244830
:1017C00000F5806582462846B8472846C021002299
:1017D0004FF0C009B8470AF5006B042100225846B3
:1017E000B8475046C0210022B847CDE90484CDE96E
:1017F000026802AF184E28463946B0474FF0904075
:1018000039460494CDE90284B04707200494394650
:10181000CDE902045046B04728463946CDE9044494
:10182000CDE90298B047022005943946CDE90380FE
:10183000042002905846B04750463946CDE904444A
:10184000CDE90298B04707B0BDE8F08F4C100240D8
:1018500000040048A104000805030008B0B586B0E4
:1018600001A81421FEF70CFD19481A4D00244FF071
:101870008041FF227F230462C0E90054C0E90232A4
:10188000C0E90444C0E906410094FFF77BFB08B1BE
:10189000FEF734FD5020CDE90444029401A9012251
:1018A0008DF8060045F61110ADF804000848FFF762
:1018B00033FC08B1FEF722FD07486946012200907B
:1018C0000348FFF7D3FB08B1FEF718FD06B0B0BD23
:1018D0001000002000280040010101001FB58148D0
:1018E00080210E4B002440F21F32816140F2CF7103
:1018F000C0E90032C0E902410394CDE90144FFF799
:10190000FAFC08B1FEF7FAFC764801A903940194A9
:10191000FFF7A4FC08B1FEF7F1FC1FBD001000406A
:1019200010B5174C174B4FF416520C200021C4E988
:101930000032C4E90211C4E9041004F118001421B2
:10194000FEF79EFC2046FFF78FFE08B1FEF7D6FC9F
:101950000B480021FFF763FE08B1FEF7CFFC0848F3
:101960000021FFF737FE08B1FEF7C8FC0448FFF777
:1019700016FE002814BFBDE8104010BDFEF7BEBC27
:101980008400002000380140FEE7FEE77047014672
:1019900009284FF00A0328BF0921C94301440A312D
:1019A000CAB2B2FBF3F202EB8203A1EB4303591A72
:1019B000084440EA0210C0B2704770B5044600689F
:1019C000C168490619D4C168002641F08001C16090
:1019D000FEF76CFD05460BE010F040000ED1FEF75F
:1019E00065FD401BB0F57A7F02D9032684F8256097
:1019F0002068032EC068EFD100E00026F0B270BD71
:101A000010B504460068C16821F08001C160816999
:101A1000890609D42046FFF7EDFB00280EBF002001
:101A2000032084F8250010BD816921F02001816127
:101A30002046FFF7DFFB00281ABF032084F82500AB
:101A4000002021688A6942F020028A6110BD704737
:101A5000FEF730BD10B594B006AC1821201DFEF77E
:101A60000FFC01A81421FEF70BFC4FF40070FEF7E9
:101A7000B1FD02200A2101221390CDE9110010913D
:101A80000F92CDE90D0040200B920A904FF4807028
:101A9000099020460691FFF757F818B1EFF3108030
:101AA00072B6FEE7002002210590CDE90300032075
:101AB00002900F20019001A8FEF702FF18B1EFF38A
:101AC000108072B6FEE714B010BD00000248016835
:101AD00041F470010160704788ED00E00148FFF7B4
:101AE0005ABC00BF38000020B0B50368324DB0F1D9
:101AF000804F0AD0314A904207D0314A904204D0F8
:101B0000304A904201D0A84238D105F5C0544A6805
:101B100023F07003041BB4FA84F4134305F5E05278
:101B20004FEA541E05F5A054821A041BB2FA82F241
:101B3000B4FA84F452094FEA541CCC6823F440737D
:101B400023434C6923F08003002A43EA0403036023
:101B50008B68C3620B6883620BD1BEF1000F08D1A2
:101B6000A84206D005F50062904202D0BCF1000FF9
:101B700001D00969016301214161B0BD05F5C0547F
:101B800005F5E052041B821AB4FA84F4B2FA82F228
:101B90004FEA541E05F5A0545209041BB4FA84F40C
:101BA0004FEA541C084CA042C7D0084CA042C4D0F5
:101BB000074CA042C1D0C4E7002C01400004004003
:101BC000000800400034014000400140004801404E
:101BD00000440140416ED9B180B50268DFF840C0D1
:101BE000DFF840E09168C1F3426192681CF801306F
:101BF0001EF80110520FC900B1FBF3F11CF80230BE
:101C00001EF80220D200B2FBF3F2BDE8804001E0F2
:101C100001220121A0F86810A0F86A20704700BFD7
:101C200004210008FC200008816ACA0708D0026865
:101C30005368D0F82CC023F4003343EA0C035360FC
:101C40008A0708D502685368D0F830C023F480337F
:101C500043EA0C0353604A0708D502685368D0F87A
:101C600034C023F4802343EA0C0353600A0708D5E9
:101C700002685368D0F838C023F4004343EA0C03E9
:101C80005360CA0608D502689368D0F83CC023F4B4
:101C9000805343EA0C0393608A0608D50268936870
:101CA000D0F840C023F4005343EA0C03936080B59E
:101CB0004A0615D5D0F800E0DEF804C0436C2CF4D9
:101CC0008012B3F5801F42EA0302CEF8042007D148
:101CD000DEF80420836C22F4C0021A43CEF80420FC
:101CE0000906BDE8804058BF704701684A68C06C6B
:101CF00022F40022104348607047BCB5044600201F
:101D0000C4F88C00FEF7D2FB05462068016809077D
:101D10000BD56FF07E404FF4001100222B4600904F
:101D2000204600F039F970B92068006840070CD5EA
:101D30006FF07E404FF4800100222B460090204639
:101D400000F02AF908B1032008E02020C4F884003C
:101D5000C4F88800002084F88000E06602B0B0BDBE
:101D6000F8B5044603688068784D794ED4E90412CA
:101D7000B34240EA0100E16940EA02001A6840EA21
:101D8000010002EA0502734D40EA0200186058683B
:101D9000E26820F4405040EA02005860A0691CBF8D
:101DA000226A10439A682A406C4D10439860AB42F7
:101DB000D86A626A20F00F0040EA0200D8626648E2
:101DC00012D0674DAB4211D0664DAB4210D0B3423A
:101DD00010D0654DAB4217D1644B69A61B6803F068
:101DE000030356F8235012E0022504E0042502E024
:101DF000062500E00A255D4F3F68EF405CA507F02F
:101E0000030755F8275000E01025B3421ED0B1F566
:101E1000004F0DD10121082D00F28E80DFE805F082
:101E200005242F8C278C8C8C2D00FEF73BFE20E0A8
:101E30000121082D00F28080DFE805F00539437E9E
:101E40003C7E7E7E4100FEF72DFE35E00121082D0F
:101E500000F27280DFE805F005704F704870707016
:101E60004D00FEF71FFE41E0FEF728FE01E0FEF701
:101E700035FE00285DD0626A01E04FF4004044491D
:101E800031F81210B0FBF1F061684A0802EB400033
:101E90004FF6EF72B0FBF1F0A0F1100191424AD879
:101EA0004FF6F0710140C0F3420008443FE0FEF7F6
:101EB00005FE01E0FEF712FED8B3626A01E04FF4BE
:101EC0000040334931F812104FF6EF72B0FBF1F0D9
:101ED000616800EB5100B0FBF1F0A0F110019142FC
:101EE00029D8216880B223E0FEF7F8FD08B3626AC2
:101EF00001E04FF40040264931F812106268B0FB4F
:101F0000F1F002EB42030121984215D313039842EA
:101F100012D8010E0002002310EB520041F1000123
:101F2000FEF776F91B4AA0F54071914203D821686B
:101F3000C860002100E001210020C4E91C004FF02E
:101F40000110A066084601B0F0BD00BFF369FFCFE5
:101F500000800040FFF4FF110024F4000044004022
:101F600000480040004C004000380140881002400A
:101F70000000000004000000020000000800000053
:101F80000100000004000000020000000800000042
:101F9000E4200008FFFC0F002DE9F843DDF8209055
:101FA00004460068984616460F4609F10105C169C6
:101FB0003940C91BB1FA81F14909B14216D1002D4E
:101FC000F5D0FEF773FAB9F1000F13D0A0EB0800BB
:101FD00048450FD820680168490744BFC1695FEAD6
:101FE0000151E4D54FF4006101621EE0002001B010
:101FF000BDE8F083206850E8000F216820F4D0701D
:1020000041E80002002AF5D1206850E8020F21685B
:1020100020F0010041E80202002AF5D12020C4F896
:10202000840004F188001AE0206850E8000F21685D
:1020300020F4D07041E80002002AF5D1206850E871
:10204000020F216820F0010041E80202002AF5D1C8
:102050002020C4F88400C4F8880004F18C002021FA
:102060000160002084F880000320C0E7FEE7000044
:1020700010B5074C00F00F03044AB0F1FF3F2344B2
:10208000C8BF83180801187010BD00BF00E400E04D
:1020900014ED00E0FEF718FAFFF7DCFCFFF754FB45
:1020A000FFF7DCFBFFF71AFCFFF73AFCFEE702E064
:1020B00008C8121F08C1002AFAD1704770470020D3
:1020C00001E001C1121F002AFBD17047000000008F
:1020D00000000000010203040607080900000000D8
:1020E00001020304010002000400060008000A00C7
:1020F0000C001000200040008000000101010103DD
:102100000701000008040204080101013021000851
:102110000000002010000000AE2000084021000850
:102120001000002008050000BE200008000000008C
:1021300010000000010000000024F4000000000076
:04000005080001D915
:00000001FF
