:020000040800F2
:10000000300A002025030008535100086748000803
:1000100051510008911E0008315F000800000000E7
:100020000000000000000000000000000D55000866
:100030005B1F000800000000555100080F55000824
:100040003F0300083F0300083F0300083F03000888
:100050003F0300083F0300083F0300083F03000878
:100060003F0300083F0300083F030008951E0008F7
:10007000A11E00083F0300083F0300083F030008DB
:100080003F030008000000003F0300083F03000892
:100090003F0300083F0300083F0300083F03000838
:1000A0003F0300083F0300083F0300083F03000828
:1000B0003F030008915500083F0300083F03000874
:1000C0003F0300083F0300083F0300083F03000808
:1000D0003F030008255F00083F0300083F030008B6
:1000E0003F0300083F0300083F0300083F030008E8
:1000F0003F0300083F0300083F0300080000000022
:10010000000000003F030008000000003F0300085B
:100110003F030008000000009D550008A955000895
:10012000AD1E00083F0300083F0300083F0300081E
:100130003F03000800000000000000003F0300082B
:100140003F0300083F03000800000000000000001B
:10015000000000000000000000000000000000009F
:100160000000000000000000000000003F03000845
:100170003F03000800000000000000000000000035
:10018000000000003F030008000000000000000025
:10019000000000000000000000000000000000005F
:1001A00000000000000000003F0300083F030008BB
:1001B0003F0300083F0300083F0300080000000061
:1001C000000000003F0300080000000000000000E5
:1001D0003F0300083F03000800F002F800F092F827
:1001E0000AA090E8000C82448344AAF10107DA4592
:1001F00001D100F087F8AFF2090EBAE80F0013F052
:10020000010F18BFFB1A43F0010318475475000093
:1002100074750000103A24BF78C878C1FAD8520724
:1002200024BF30C830C144BF04680C607047000070
:100230000023002400250026103A28BF78C1FBD8EF
:10024000520728BF30C148BF0B6070476E2900F0CD
:10025000DB81702900F01D83662906F0AF806529D7
:1002600006F0AC80672906F0A980612906F0A88015
:1002700003681B0A28BF41F08001692900F08881CA
:10028000642900F08581752900F082816F2900F0D2
:10029000AA82782900F0E982E92900F04582E42960
:1002A00000F04282F52900F03F82EF2900F0A7829A
:1002B000F82900F0E8820368DB0928BF41F08001DB
:1002C000632900F0EF87732900F0F487E32900F039
:1002D000FF87F32901F00480002070471FB506F066
:1002E00068F801F04FF804000020002105F0D4FF69
:1002F000401C60600020002105F0B8FFE0601FBDD9
:1003000010B510BD01F011F81146FFF7E7FF05F039
:1003100075FE01F0EDF803B4FFF7F2FF03BC01F046
:10032000F1F800000948804709480047FEE7FEE76A
:10033000FEE7FEE7FEE7FEE7FEE7FEE7FEE7FEE795
:1003400004480549054A064B7047000081550008DE
:10035000D901000830040020300A002030060020B7
:100360003006002053EA020C00F069802DE9F04BC2
:100370004FF00006002B1FBFB3FA83F503FA05F414
:1003800024FA05F65E4012BF1643B2FA82F502FA6D
:1003900005F4C5F120051EBF22FA05FC44EA0C0451
:1003A000203556EA044C4FEA144418BF641C4FF041
:1003B00000084FF00009904271EB030C39D300297B
:1003C00019BFB1FA81F701FA07F6B0FA80F700FA1F
:1003D00007F6C7F120071EBF20FA07FC46EA0C0605
:1003E0002037B6FBF4FCA7EB0507103F07F01F0B07
:1003F000CBF120060CFA0BFB2CFA06F644BFB346F1
:100400000026202FA4BF5E464FF0000B5BEA060CCF
:1004100008BF4FF0010B19EB0B09ABFB027C48EB5B
:100420000608C01B06FB02CC0BFB03CC71EB0C01D6
:10043000C1E70B46024641464846BDE8F08B13B57E
:100440004FF000004FF00001AFF30080BDE81C400A
:10045000704700001CB50C46064B7B446946009073
:10046000204600F0EAF804460020694600F0F8F85B
:1004700020461CBD030200004FF0000200B51346E9
:1004800094469646203922BFA0E80C50A0E80C50B4
:10049000B1F12001BFF4F7AF090728BFA0E80C5065
:1004A00048BF0CC05DF804EB890028BF40F8042B5E
:1004B00008BF704748BF20F8022B11F0804F18BFCB
:1004C00000F8012B704770477047704770B50446BD
:1004D00085690068C10601D5302600E02026C007E6
:1004E00007D070BDD4E9012130469047206A401CF6
:1004F00020626D1EF6D570BD70B504468569007822
:10050000C00707D170BDD4E9012120209047206A9F
:10051000401C20626D1EF6D570BD09684A0501D5E4
:1005200040B27047C905FCD500B2704709684A055A
:1005300001D5C0B27047C905FCD580B2704770B50F
:100540000C460546012A05D02878800600D5EA69C0
:10055000002302E0012305E05B1C934202D2E05C31
:100560000028F9D1A869E618C01AA861286A1844B9
:1005700028622846FFF7AAFF04E0D5E9012114F814
:10058000010B9047B442F8D32846FFF7B5FF70BD82
:100590002DE9F0410646002410687529314616A55C
:1005A00010D0FFF7BAFF002802DA404213A507E097
:1005B00031688A0701D512A502E0490704D511A5C3
:1005C000012401E0FFF7B2FF00210A2206F124070F
:1005D00009E0B0FBF2FCB0FBF2F302FB1C00303090
:1005E00078541846491C0028F3D123462A46304641
:1005F000BDE8F04100F065BA000000002D000000E9
:100600002B0000002000000011680268006A5305FA
:1006100001D508700AE0D30501D5088006E013066D
:1006200003D5C217C1E9000200E00860012070474D
:1006300001694A1C02610878704700B58FB0CDE9A6
:1006400001310021059105497944CDE90310114696
:10065000684600F029F90FB000BD0000E5FFFFFF7C
:100660000A6802F8010B0A60704700002DE9FF5F7D
:1006700015468A460446DFF8AC80F8440027D8E9DE
:1006800000103E46CDE9001010E03AF816106A4618
:1006900002A800F029FE411C07D02178890603D565
:1006A000E269391891420DD80744761C20788006FB
:1006B00002D5E069B84205DDAE42E6DB3AF8160045
:1006C0000028E2D1A069C01BA0612046FFF7FEFE12
:1006D000D8E90010CDE90010002017E03AF8181012
:1006E0006A4602A800F000FEB0F1FF3F81460BD041
:1006F00000250DF1080B05E0D4E901211BF80500E8
:1007000090476D1C4D45F7D308F10100B04280467B
:10071000E4DB206A384420622046FFF7EDFEBDE8A6
:10072000FF9F0000566F00002DE9F0418046D21D6A
:1007300022F007020025D2E90002F52915A614D0FF
:10074000011E72F1000106DA0023D0EB030063EB17
:10075000020211A608E0D8F800108B0701D50FA6F9
:1007600002E0490701D50EA601251146002408F133
:10077000240704E000F060F930323A55641C50EA76
:100780000102F7D12B46324621464046BDE8F041F2
:1007900000F097B9000000002D0000002B000000C1
:1007A0002000000030B4002100F1240408E002F031
:1007B0000705D208303542EA4372DB086554491C0C
:1007C00052EA0305F3D10468002310A2250707D5D8
:1007D000A40600D421B1C46901230DA2641EC46122
:1007E00030BC00F06EB910B5044621461068FFF722
:1007F0009DFE02462046BDE810400023D2E7D21DF0
:1008000022F00701D1E90023CCE70000000000003E
:1008100030000000F0B40D460188090502D5214CD6
:100820007C4402E01F4C7C440E34002100F124067D
:1008300008E002F00F071209E75D42EA03721B09A4
:100840007754491C52EA0307F3D1027800231207B8
:1008500004D5702D06D009B1022311342246F0BC14
:1008600000F02FB901231034F8E770B504460D46A7
:1008700021461068FFF75AFE024629462046BDE889
:1008800070400023C6E7D21D22F00703D3E90023FE
:10089000C0E70368126843F0200303600823C361C4
:1008A0000023B7E7B86D00002DE9F05F89460446E4
:1008B0004FF0000ADFF874B1FB44C0F820A02046D6
:1008C000E1688847002874D0252806D0D4E90121A2
:1008D0009047206A401C2062F1E700265F462046D0
:1008E000E16888472028054607DB312D05D27819B5
:1008F00010F8200C08B10643F1E7B00701D526F047
:100900000406C4F81CA00027C4F818A02A2D09D09A
:10091000284605F036FB38B304EB8708303DC8F8AD
:10092000185019E059F8041B204604EB8702916126
:10093000E1688847012F054618D1E069002820DAD0
:1009400026F020061DE0D8F8180000EB800005EB2B
:1009500040003038C8F818002046E168884705464E
:1009600005F00FFB0028EED1012F0AD02E2D08D163
:100970002046E16888477F1C0546022F46F0200686
:10098000C4DBA069002803DA404246F00106A061FA
:10099000F00701D026F010066C2D0BD0682D09D081
:1009A0004C2D39D06A2D35D0742D35D07A2D33D0D9
:1009B00016E038E0E1682F4620468847B8420546F1
:1009C00009D16C2F26D04FF48060E16806432046A1
:1009D0008847054604E06C2F1AD04FF48070064318
:1009E0000DB3A5F14100192802D8203546F4006660
:1009F0004A462946204626604E46FFF727FC80B12E
:100A000001280BD0F61D26F0070000F1080956E773
:100A10004020E4E78020D8E70020D6E706F104096B
:100A20004DE7284652E7206ABDE8F09F486D000078
:100A300000487047D003002030B5B0F10A024FEAF9
:100A4000900E71F100034EEA817EB0EB0E0061EB77
:100A500091014FEA101E4EEA017E10EB0E0041EBB1
:100A600011114FEA102E4EEA016E10EB0E0041EB11
:100A700011214FEA104E4EEA014E10EB0E0041EBF1
:100A80001141401841F100014FEAD00040EA4170A5
:100A90004FEAD10110EB80054FEA810444EA9074DB
:100AA00044EB01046D1944EB0404521BA3414FF0C5
:100AB000000348BF0A3200D530BD401C41F100019F
:100AC00030BD2DE9F0470D4699469246044600F1A7
:100AD00024080168880604D5E06921F0100121602E
:100AE00000E00120A84201DD471B00E00027A169CA
:100AF0007A1902EB0900081AA0612078C00602D416
:100B00002046FFF7E3FC002608E0D4E901211AF8AB
:100B100006009047206A401C761C20624E45F4DB9C
:100B20002078C0060AD52046FFF7D0FC06E0D4E9BD
:100B3000012130209047206A401C2062381EA7F116
:100B40000107F4DC07E0D4E9012118F8050090471B
:100B5000206A401C2062281EA5F10105F3DC204616
:100B6000FFF7CAFC2078000602D50220BDE8F08716
:100B70000120FBE770472DE9FF4F0C461E464FF062
:100B8000FF378BB0D2E90001DDF860800A908A4619
:100B9000C1F30A5505B93D46002108464FF0000053
:100BA000BAF1000F00F4400005DA00EB80004FF4CA
:100BB000400101EA50004FEA9059B9F1010F00DD00
:100BC000B9460A9850EA4A000ED044F61050A5F2F1
:100BD000FF3545432F14B8F1000F1ED07542291E72
:100BE0001EDDC9F100021CE0B8F1010F4FF000005A
:100BF00001D0302103E0F24305E02154401CB04213
:100C0000FBDB30460022002121540B99C1F80880FB
:100C1000C1E900200FB0BDE8F08FBD1B6D1CDEE701
:100C20004A4600DA694206A800F0F0FB06AB93E8FA
:100C3000070003AB83E8070050460A9900F0A8FCC0
:100C40008DE80700A0F500501F3800900398002D94
:100C50000ADD42F21F014A460844002303A903901B
:100C6000684600F011FF09E0A0F500504A461F3821
:100C7000002303A90390684600F01BFF8DE80700DE
:100C80000004000C03D04FF0FF30410800E0104694
:100C9000B8F1000F03D00022009215461EE0751E29
:100CA00005D4FFF7C9FE303262556D1EF9D5B34643
:100CB0000122084302D000227F1C04E02078302863
:100CC00001D100227F1E002A099784D01DE0112D3A
:100CD00007DAFFF7B1FE303262556D1C50EA0102AF
:100CE000F5D1084302D00098C8B10EE00021681E7B
:100CF00005E0235C625C63542254401E491C81421F
:100D0000F7DBAB46A81B401E0990002004F80B003F
:100D10000B98099AC0F80880C0E9002B7AE71126E1
:100D20004FF0000857E72DE9F04F88460446D21DE2
:100D300022F0070191B0D1E90001CDE90A0105F0E7
:100D4000F8F802460B98C00F01D02D2007E020686C
:100D5000810701D52B2002E0202101EAC000032AEF
:100D6000099001D0072A05DB03464146204600F0E2
:100D70000DFB0BE12078800601D5E06900E006203C
:100D8000B8F1650F814606D0B8F1660F18D0B8F1FA
:100D9000670F70D131E00020B9F1110F009001DB35
:100DA000112301E009F101030AAA01A90CA8FFF728
:100DB000E2FEDDE90C70002609F10105834647E0FB
:100DC00001204B4600904FF000470AAA01A90CA849
:100DD000FFF7D1FEDDE90DB00C995D46002610B994
:100DE00009F101000D18B9EB050003D4C0F1FF367D
:100DF00009F10105A5EB09002BE0B9F1010F01DABA
:100E00004FF001090020B9F1110F0090484601DDB3
:100E1000112300E003460AAA01A90CA8FFF7ABFEC4
:100E2000DDE90C704D4600268346207800070AD481
:100E3000AB4500DA5D4601A8012D04DD411911F82A
:100E4000011C302907D04F4502DA17F1040F04DAEC
:100E5000012082460FE06D1EEEE7002F02DCED1B45
:100E60003E4403E0781CA84200DD7D1CB81B00F165
:100E7000010A4FF000472078000703D4AA4501DBA0
:100E80004FF0FF3A0021B7F1004F0DF143088DF804
:100E9000431024D002202B23002F01DA7F422D2380
:100EA0000A21021EA0F1010000DC5FB197FBF1FCFA
:100EB00097FBF1F201FB1C7C17460CF1300C08F893
:100EC00001CDEEE7A8F1010003702188090501D5E5
:100ED000452100E06521A0F1010800F8011C0998F6
:100EE0000FA9A1EB0807FF1D00B10120411901EB7B
:100EF000EA70A1693844081A401EA0612078C00633
:100F000002D42046FFF7E2FA099828B1D4E901217A
:100F10009047206A401C20622078C00622D52046D7
:100F2000FFF7D4FA1EE0002E04DBB34502DD01A872
:100F3000805D00E03020D4E901219047206A401C08
:100F40002062761CAAF101005FEA000A0AD100F0D3
:100F500019FAC0680168405CD4E901219047206A11
:100F6000401C2062281EA5F10105DCDC07E0D4E965
:100F7000012118F8010B9047206A401C2062381E9E
:100F8000A7F10107F3DC2046FFF7B6FA032011B002
:100F900041E600002DE9F04F04460D46D21D22F037
:100FA000070089B0D0E900974846394604F0C1FFF0
:100FB0000246F80F01D02D2307E02068810701D5F4
:100FC0002B2302E0202101EAC0038DF820300BB171
:100FD000012000E00020032A824601D0072A04DB1A
:100FE0002946204600F0D2F93FE12078800601D45E
:100FF0000D2500E0E569C7F30A560D2D49DA0021F9
:101000004FEA175B08464FF00000002F00F4400045
:1010100007DA00EB80004FF4400100EBD07001EAEA
:1010200060008115012901DD4FF0FF3100224FEAF8
:10103000850CBCF1180F06D31346ACF118004FF025
:101040008052C24003E04FF4801323FA0CF30CF1FA
:101050000C0CBCF1200F04D3ACF1200C09FA0CF0FD
:1010600001E007FA0CF000294FF0004801DD18B943
:101070000FE00ED140450CD319EB02095F4121B9B5
:10108000404502D19F4329EA0209BBEB175F00D01C
:10109000761C2088000502D57B48784402E07A4817
:1010A0007844193808AA302302F80A30037C0AF180
:1010B0000101002E0AF1020A53546A4602DC4FF085
:1010C000300101E04FF031014FF001088DF80010C0
:1010D00002D0A6F2FF3603E059EA470100D06B4E7A
:1010E000002D02DC2178090704D54FF002082E21DB
:1010F0008DF80110C44600210BE0C7F303433F0104
:10110000C35C491C6D1E02F80830052908F101086E
:1011100001DA002DF1DC00210CE000EB1973491C11
:101120001B786D1E082902F808304FEA091908F1EA
:10113000010801DA002DF0DC21688B0602D516E0EB
:10114000A8F10108E04505DD02EB080313F8013CB6
:10115000302BF5D0B8F1000F09DD02EB080313F8CE
:10116000013C2E2B03D1090701D4A8F10108002D61
:1011700005DD3E2102F808106D1E08F10108407CD3
:10118000002E02F8080008F1010804DA2D2076424A
:1011900002F8080002E02B2002F808000A214FF4B0
:1011A0007A70864208F101080BDB96FBF0F33033CE
:1011B00002F8083096FBF0F308F1010800FB136613
:1011C00001E0642E0CDB642096FBF0F3303302F870
:1011D000083096FBF0F308F1010800FB136601E00C
:1011E0000A2E06DB96FBF1F0303002F8080008F119
:1011F000010896FBF1F001FB1060303002F80800A6
:10120000A16908F1010808EB050202EB0A00081ABF
:10121000A0612078C00602D42046FFF757F9216A62
:1012200008AE01EB0A00206204E0D4E9012116F8BF
:10123000010B9047BAF1010AF7D22078C00602D517
:101240002046FFF743F96E4609E016F8010B3E28E9
:101250000FD0D4E901219047206A401C2062B8F1E8
:101260000108F2D22046FFF747F909B00320BDE894
:10127000F08F206A2844206203E0D4E90121302065
:1012800090476D1EEBD3F8E78A65000002FCFFFF74
:1012900010B5436913B1AFF3008001E0FFF74FF9D8
:1012A000012010BD127800F124010A7000224A705A
:1012B0000122EDE711684FF0FF32E9E710B543690D
:1012C00013B1AFF3008001E0FFF7D0F9012010BDAA
:1012D000128800F1240182840022C2840122EDE7F9
:1012E00011684FF0FF32E9E770B516460C46054627
:1012F00000F040F8036893F80101012806D0FF2CA4
:101300000FD8185D68B101202C7070BDD3F80701AB
:101310003246214603F2071303442846BDE87040D5
:1013200018474FF0FF3070BD70477546FFF780FBE0
:10133000AE4605006946534620F00700854618B0C2
:1013400020B5FEF7FDFFBDE820404FF000064FF04E
:1013500000074FF000084FF0000B21F00701AC46EA
:10136000ACE8C009ACE8C009ACE8C009ACE8C00909
:101370008D46704710B500F005F8001D10BD00BF88
:10138000194F000000487047F00300202DE9F0419C
:101390001F46044603260168072A01F4006004DBA7
:1013A00008B116A505E016A503E008B115A500E0F3
:1013B00015A521F010002060A069C01EA0610FB12A
:1013C000401EA0612046FFF781F84FB1D4E901210A
:1013D00038469047206A401C2062C01C206206E00C
:1013E000206AFAE7D4E9012115F8010B9047761E2F
:1013F000F8D22046FFF780F8BDE8F0814E414E005C
:101400006E616E00494E4600696E66002DE9F04738
:10141000814616468AB0354878440DC88DE80D00DF
:1014200032487844801C03AC0DC884E80D0041F6B6
:101430009B300844372190FBF1F290FBF1F5A5F1C8
:10144000800501FB12041B3C02D56442012000E030
:101450000020DFF898A080460027FA44AAF1BE0ACF
:101460000EE0E0070AD03246684607EB4701012349
:101470000AEB810100F01DFB8DE8070064107F1C62
:10148000002CEED1194F7F44AE3F19E0E80715D08C
:1014900007EB04100DF1180A90E80E008AE80E0020
:1014A000C068F04201D1981908903246012306A97C
:1014B00003A800F0FEFA03AB83E807006D10641C7C
:1014C000002DE3D14FF0010332466946B8F1000F19
:1014D00003A802D000F0D8FA01E000F0EAFAC9E966
:1014E0000001C9F808200AB0BDE8F0879C6200003E
:1014F00010B50446AFF300802046BDE81040FEF76B
:101500000ABF000001491820ABBEFEE7260002001A
:101510004FF0013C50F8042B51F8043B9A4221D182
:10152000A2EB0C03934313EACC1317D150F8042B0E
:1015300051F8043B9A4215D1A2EB0C03934313EAF2
:10154000CC130BD150F8042B51F8043B9A4209D12B
:10155000A2EB0C03934313EACC13DBD04FF0000053
:10156000704700BFD01A01BAB1FA81F101F0180139
:1015700022FA01F0CB40C1F12001DBB2C0B2C01AA7
:101580002CFA01F3D11A914311EAC311E6D1704745
:101590005FEA400C08BF91F0000F4FEA8C234FEA3E
:1015A000C12243EA51514FEA1C5018BF00F5F040E8
:1015B0004FEA300018BF41F000415FEA6C5C00F078
:1015C0002980BCF1FF3F08BF40F080407047130CFA
:1015D00006BF12044FF0100C4FF0000C130E04BFA6
:1015E00012020CF1080C130F04BF12010CF1040CD1
:1015F000930F04BF92000CF1020CD30F04BF5200F2
:101600000CF1010C11464FF00002A0F11F00A0EBFD
:101610000C00704711F0004F08BF704731F00041D7
:101620003FF4D5AF0B0C06BF09044FF0100C4FF080
:10163000000C0B0E04BF09020CF1080C0B0F04BFC9
:1016400009010CF1040C8B0F04BF89000CF1020C92
:10165000CB0F04BF49000CF1010CCCF12003A0EB2F
:101660000C0022FA03F302FA0CF241EA030100F142
:101670000100704720F07F4C80EA030023F07F4791
:10168000ACEB070303F57C5300F0004003F1FF03CC
:101690002DE980494FEA154B09B44FEA144325EA76
:1016A0000B4E24EA03480FF2042606EB13274908E1
:1016B0003E785FEA320203FB0667C7F5000707FBC7
:1016C00006F64FEA54374FEAD64606F1020607FB04
:1016D000066CCCF1005C4FEA1C472CEA074C07FB78
:1016E00006F40CFB06F504EB15464FEA961634BFDC
:1016F00000204FF000404FEAD13706FB07FC4FEACD
:101700001C4C0CFB0BF7D21B03FB0CF761EB070126
:101710000CFB0EF7B0EB074072EB17420CFB08F71F
:1017200034BFA2EB0742B2EB074261EB17414FEA2D
:101730000C444FEA910706FB07FC4FEA1C4C0CFBDC
:101740000BF7B0EBC74072EB573203FB0CF734BF1B
:10175000A2EBC742B2EBC74261EB57310CFB0EF76D
:10176000B0EBC70072EB57720CFB08F734BFA2EB6B
:10177000C702B2EBC70261EB5771039F4FEA816169
:1017800041EA921104EBCC044FEAD1374FEA82626E
:1017900006FB07FC42EA90124FEA80604FEA1C4CBD
:1017A0000CFB0BF7D21B03FB0CF761EB07010CFBE7
:1017B0000EF7B0EB074072EB17420CFB08F734BF93
:1017C000A2EB0742B2EB074261EB17414FEA8C559F
:1017D0004FEA910704EB9C2406FB07FC4FEA1C4CE4
:1017E0000CFB0BF7B0EBC74072EB573203FB0CF767
:1017F00034BFA2EBC742B2EBC74261EB57310CFBDF
:101800000EF7B0EBC70072EB57720CFB08F734BF52
:10181000A2EBC702B2EBC70261EB577115EB4C2587
:101820004FEA816141EA92114FEA82624FEAD13771
:1018300042EA901206FB07FC44F100044FEA806084
:101840004FEA1C4C0CFB0BF7D21B03FB0CF761EBB4
:1018500007010CFB0EF7B0EB074072EB17420CFBD5
:1018600008F734BFA2EB0742B2EB074261EB174126
:1018700015EB1C154FEA813141EA92414FEA823261
:1018800042EA90424FEA80304FEA0C7644F100047D
:1018900048EA03434EEA0B484FF0000EB2EB080C47
:1018A00071EB030724BF624639464EEB0E0E4FF034
:1018B000000B0018524149414BEB0B0BB2EB080CEB
:1018C00071EB03077BF1000B24BF624639464EEBF8
:1018D0000E0E4FF0000B0018524149414BEB0B0B21
:1018E000B2EB080C71EB03077BF1000B24BF6246DF
:1018F00039464EEB0E0E51EA020718BF46F00106BC
:1019000016EB0E7655F1000254F1000103D5BDE847
:101910008901BDE80088BDE88901BDE80048B61925
:10192000524141EB0101A3F10103704780807F7EAA
:101930007D7C7B7A79787776767574737271717045
:101940006F6E6E6D6C6C6B6A6A69686867666665F7
:101950006464636362616160605F5F5E5E5D5D5C85
:101960005C5B5B5A5A5959585857575656555555F6
:101970005454535352525251515050504F4F4F4E56
:101980004E4D4D4D4C4C4C4B4B4B4A4A4A494949A4
:1019900048484847474747464646454545444444E6
:1019A000444343434342424242414141002B9C460F
:1019B00030D477002BD01CB54FEA370703B44FF073
:1019C00010004FF01001BAF1000F06D0BCF1000F6B
:1019D000DCBF40F0080040F008014FF000000FBCF1
:1019E000BDE810400BF1010BBBF1010F08BF5FEA2E
:1019F000170722BF12F1010211F101014FF000415E
:101A000043F1000300F0004043EA00007047F9D3BF
:101A10005708D0E746EA064613F1400F4FEA16464C
:101A20001FDD13F1200FDFBF16430A4600212033CC
:101A30005B42BED0C3F1200746EA064602FA07F72A
:101A40004FEA164646EA0706C3F1200722FA03F2D8
:101A500001FA07F721FA03F14FF0000342EA070207
:101A6000A7E746EA020646EA06464FEA164646EA6F
:101A70000106BCBF46EA0646360C4FF000034FF0A5
:101A800000024FF0000194E72DE9804C9A469346FE
:101A900070B491E8380007C831EA400C48BF34EA16
:101AA000430C03D5FFF7E6FDFFF780FFF0BCBDE870
:101AB000008C2DE9804C9A46934670B491E838002A
:101AC00007C810F0804F08BF13F0804F03D100F01B
:101AD00005F8FFF76BFFF0BCBDE8008C20F07F47F6
:101AE00080EA030023F07F4C07EB0C03A3F57C5343
:101AF00000F00040A3F1FE0392F0000F00F0B3806D
:101B000095F0000F00F077802DE901494FEA114070
:101B10004FEA144621EA004800FB06FC24EA064787
:101B200008FB06F607FB08F800FB07F718EB06486A
:101B30004CEB164C4FEA124B18EB07484FEA154690
:101B40004CEB174022EA0B4E0BFB06FC25EA06473E
:101B50000EFB06F607FB0EFE0BFB07F71EEB064E11
:101B60004CEB164C4FF000061EEB074E4CEB174BA0
:101B700018EB0B0840F1000018EB0E0B58EB0008B7
:101B800040F100008F1A4FF000013CBFC943661BB3
:101B900014BFB5EB040C00213CBFC943F61B4FEA50
:101BA00017444EEA8E0E27EA04454FEA1C4704FB11
:101BB00007622CEA074C05FB07F70CFB05F604FB54
:101BC0000CFC16EB074642EB174216EB0C4642EBB9
:101BD0001C421BEB060658EB0202414146EA9E06F8
:101BE00001D5BDE80189B619524141EB0101A3F1CC
:101BF0000103BDE801894FEA14454FEA114724EA81
:101C0000054621EA074C05FB07F406FB07F70CFB2A
:101C100006F105FB0CFC11EB074144EB17444FEABE
:101C2000124711EB0C4144EB1C4422EA074C05FB24
:101C300007F206FB07F70CFB06F605FB0CFC16EBA0
:101C4000074642EB174216EB0C4642EB1C456A185E
:101C500054F1000148BF7047B619524141EB0101F0
:101C6000A3F10103704795F0000F37D04FEA1142FE
:101C70004FEA144721EA024624EA074C02FB07F127
:101C800006FB07F70CFB06F402FB0CFC14EB074405
:101C900041EB17414FEA154714EB0C4441EB1C4153
:101CA00025EA074C02FB07F506FB07F70CFB06F6D7
:101CB00002FB0CFC16EB074645EB174516EB0C46F2
:101CC00045EB1C42121951F1000148BF7047B6198B
:101CD000524141EB0101A3F1010370474FEA144562
:101CE0004FEA114724EA054621EA074C05FB07F1B4
:101CF00006FB07F70CFB06F24FF0000605FB0CFC99
:101D000012EB074241EB174112EB0C4251EB1C4125
:101D100048BF7047921841EB0101A3F101037047DE
:101D200010B5846AE16D11F0500F06D0E16DC9065F
:101D300025D5204600F07AFB10BDE06D40F4007020
:101D4000E06520680168090716D502F0FDFF78B14B
:101D50002068C068800400280ADBE06D20F48070F1
:101D6000E065E06DC00403D4E06D40F00100E06583
:101D7000204600F059FB10BDC0688007EBE7616D9D
:101D8000496BBDE81040084710B5806AC16D41F04D
:101D90004001C165016E41F00401016600F046FB9F
:101DA00010BD10B5806A00F040FB10BD70B5044650
:101DB000006881688268C1F3400112F0010F28D0E9
:101DC00039BB816801F00D01012914D18168124AE3
:101DD0001140891C816021680320086000F0AAFF7F
:101DE000054612E000F0A6FF401B02280DD920682E
:101DF0008068C00709D0E06D40F01000E065206EFB
:101E000040F001002066012070BD20688068C00796
:101E1000E8D1002070BD0000C0FFFF7F70B5044610
:101E20000068816811F0010F2DD18168174A1142B5
:101E30001AD18168D5432940491C816000F07AFF9E
:101E400006461BE0816811F0010F03D1816829402B
:101E5000491C816000F06EFF801B02280ED92068AB
:101E60000068C043C00709D0E06D40F01000E06595
:101E7000206E40F001002066012070BD20680168DE
:101E8000C943C907DED1002070BD00003F000080BB
:101E9000FEE70000014800F00ABD000070030020CA
:101EA000014800F004BD000080020020014800F05D
:101EB000FEBC00003C0100200D4902688A4201D2AC
:101EC0000C4901E00B492031D2B21423083AB2FB8D
:101ED000F3F2436C02F01F0223F003031944816400
:101EE00004498031C16401219140016570470000BF
:101EF00008040240000802400179074A02EB81020F
:101F00004265054A4432491E826501F01F020121E3
:101F10009140C16570470000FC08024030B5D0E92F
:101F200013456560446D14B1D0E91645656090F8BD
:101F3000444004F01F050124AC40056C6C6004684B
:101F400063608368102B036803D099600068C260E7
:101F500030BD9A600068C16030BD7047002240F615
:101F6000B83306E00021491C89B29942FBD3521CC8
:101F700092B28242F6D3704772B6FEE7F8B50026F9
:101F80000446009690F858000D4601280BD0012019
:101F900084F858002046FFF709FF0100E06D04D0E7
:101FA00040F010002AE00220F8BD20F4885040F0F4
:101FB0000200E06520688268134B1A4005F08043F8
:101FC0001A4342F000428260104A20680EE0009BF3
:101FD0005B1C0093934209D3E06D20F0020040F0B7
:101FE0001000E06584F858600120F8BD8368DB0FBD
:101FF000EDD1E06D20F0020040F00100E06584F8D2
:1020000058600846F8BD0000C0FFFF3F02DE040034
:102010002DE9F84F00270446009790F85800DFF8A4
:10202000D8930D46B846012811D0012684F858608F
:10203000206802F085FE60B1E06D40F02000E065B0
:102040005FF0010784F858803846BDE8F88F022019
:10205000FBE7D5E900210C23206803EA911318441B
:10206000036B01F01F014FF01F0C0CFA01FCC2F3CF
:10207000846223EA0C038A4013430363206802F05E
:102080005FFE8246206802F057FE5AEA00003CD10B
:10209000AA6829682068B2F1004F37D002F05CFED0
:1020A0002068416921F00041416120686969C26886
:1020B000C2F3C102520091402A69042A31D000EBD8
:1020C00082002B68026EDFF834C303F0F84302EAA3
:1020D0000C020B431A4342F00041016620682A6952
:1020E000A96900EB8200026E22F080720A43026648
:1020F000297F22682869012910D0002102EB800085
:10210000026E22F000720A4302667DE0002202F0B5
:1021100023FE2068416941F00041C5E74FF000719E
:10212000ECE7002102F002FE400320684FF00001BE
:1021300072D002F0FBFD90FAA0F0B0FA80F12868AE
:1021400042036ED090FAA0F0B0FA80F0814204D140
:1021500000221146206802F00EFE0121206802F0E4
:10216000E5FD400320684FF001015DD002F0DEFD87
:1021700090FAA0F0B0FA80F12868420359D090FAA2
:10218000A0F0B0FA80F0814204D100220121206841
:1021900002F0F1FD0221206802F0C8FD4003206832
:1021A0004FF0020148D002F0C1FD90FAA0F0B0FA61
:1021B00080F12868420344D090FAA0F0B0FA80F091
:1021C000814204D100220221206802F0D4FD0321C3
:1021D000206802F0ABFD400320684FF0030133D0CC
:1021E00002F0A4FD90FAA0F0B0FA80F12868420352
:1021F0002FD090FAA0F0B0FA80F0814204D10022F2
:102200000321206802F0B7FD2068816811F0010FFA
:1022100022D0A8E000E004E002F088FDC0F3846171
:102220008DE7C0F3846091E702F080FDC0F3846124
:10223000A2E7C0F38460A6E702F078FDC0F38461F2
:10224000B7E7C0F38460BBE702F070FDC0F38461C0
:10225000CCE7C0F38460D0E7EB6829684B4550F8C1
:10226000B03FC1F3120101D10B4300E08B43036087
:10227000E868484577D1286841031CD090FAA0F15E
:10228000B1FA81F1491C01F01F0109294FEA4031DF
:1022900032D8002912D000BF90FAA0F1B1FA81F132
:1022A00001F1010101F01F0106FA01F609D100BF99
:1022B000C0F3846109E0C0F38461E3E7C0F38461A3
:1022C000EEE790FAA0F1B1FA81F101F1010101F01C
:1022D0001F0146EA816102D1C0F3846003E090FAF5
:1022E000A0F0B0FA80F000F1010000F01F0000EB58
:1022F000400041EA005132E000290ED090FAA0F1EE
:10230000B1FA81F101F1010101F01F0106FA01F6B4
:1023100006D100BFC0F3846106E0C0F38461F1E739
:1023200090FAA0F1B1FA81F101F1010101F01F0170
:1023300046EA816102D1C0F3846003E090FAA0F024
:10234000B0FA80F000F1010000F01F002C4A00EB11
:10235000400002EB005041EA000141F00071AA6820
:10236000206802F0F9FC27482A6802423FF46AAE6E
:1023700025488168254B01F0E0719A4202D0244B38
:102380009A421CD10B021AD42268B2F1A04F7FF4FA
:1023900059AE826841F4000122F0E0720A43826083
:1023A0001C481D490068B0FBF1F0401C00EB4000E8
:1023B000800000E0401E00900028FBD142E6174D4F
:1023C000174BAA4207D1CD0105D422689A42F5D015
:1023D00041F0807109E0134DAA42EFD14A02EDD4D9
:1023E00022689A42EAD041F48001826822F0E072C9
:1023F0000A43826026E6000000007F4000F0FF03F1
:10240000000020FE0000088000030050000021C3EF
:102410001000C0903C000020400D0300000052C797
:1024200000010050000084CB7047704770470000E7
:10243000F8B54FF0000504002E46009502D0E06D7F
:1024400010B107E00120F8BD204600F0EFF8266645
:1024500084F8586020688168C1F3407119B18168BF
:102460006A4A1140816020688168C1F3007189B9AE
:102470008168674A114041F0805181606548664932
:102480000068B0FBF1F04000801C00E0401E0090AE
:102490000028FBD120688168C1F3007141B9E16D6A
:1024A00041F01001E165216E41F001012166012535
:1024B00002F046FCE16DC90600D430B1E06D40F099
:1024C0001000E06501252846F8BDE06D20F480701D
:1024D00040F00200E0652068806810F0010F11D123
:1024E0004FF0A04080684D4900F00100896801F07C
:1024F0000101084306D14A486168826822F47C12CF
:102500000A438260E168E06B627F0843A16841EAA8
:102510004231084394F8241040EA0140012904D1D3
:10252000218D404A02EB41410843E16A29B101F49F
:102530007871226B014342EA01002168CA683A4B74
:102540001A400243CA6020680169626B21F0406151
:1025500011430161206802F0F3FB0646206802F097
:10256000EBFB30432ED1207F94F83810800340EAF3
:1025700041022068C16844F2020399431143C160DB
:1025800020690028206801690AD041F48031016186
:10259000206850F8C01F22696FF30D01114307E056
:1025A00021F480310161206850F8C01F6FF30D01E4
:1025B000016094F8400001280CD02068016921F0E6
:1025C00001010161606901282068016B21F00F01A0
:1025D00011D013E0D4E911010843D4E913121143D7
:1025E000084321680A6940F2FC739A43104340F0A3
:1025F00001000861E6E7226A521E11430163E06DA3
:1026000020F0020040F00100E0655CE7C0FFFF5FE2
:10261000C0FFFF7F3C000020400D03000001005080
:10262000000300500000FEFF0740F0FF70B598B0B7
:102630000546142111A8FDF71FFF44216846FDF748
:102640001BFF2249286888423DD1C00100908003C9
:102650000F90684600F06CFC08B1FFF78DFC1C4938
:10266000C86C40F40050C864C86C00F40050169068
:10267000C86C40F00100C864C86C002600F001007E
:102680001690302011900320CDE9120611A94FF0C9
:10269000904000F021FA104C0E4820602420C4E93C
:1026A00001068020C4E90360800060614000A061F1
:1026B0002020C4E90706204600F056F908B1FFF7CC
:1026C0005BFC6C65A56218B070BD00000001005095
:1026D00000100240080402403C0100202DE9F041B6
:1026E0000446344817468846806800F01F05206875
:1026F00002F026FB00285AD194F85800012856D041
:10270000012084F85800002625B1052D02D0092D9E
:1027100000D003E02046FFF781FB18B184F8586031
:10272000BDE8F081E06D40F60161884340F48070BF
:10273000E06521492068884202D14FF0A04100E0C5
:102740000146814200D01DB9E06D20F48010E065A3
:10275000E06DC00404D5206E20F00600206600E085
:102760002666616D1548C862616D15480863616D24
:102770001448486321681C20086084F85860206869
:10278000416841F0100141602068C16841F00101D9
:10279000C16021683B4642464031606D00F044F91B
:1027A00021688A68084B1A40121D8A60B8E7022027
:1027B000B6E700000003005000010050211D000892
:1027C000A31D0008891D0008C0FFFF7F10B590F809
:1027D000253000210122022B03D00421C1630121F5
:1027E00022E003681C6824F00E041C60836C1C68E3
:1027F00024F480741C6003681C6824F001041C60CD
:1028000090F84430046C03F01F0302FA03F3636092
:10281000D0E913345C60436D33B11C6824F48074D8
:102820001C60D0E916345C6080F82520002280F816
:102830002420084610BD70B590F825200024012101
:102840002346022A07D00422C26380F8251080F8AC
:102850002430012429E00268156825F00E05156072
:102860000268156825F001051560826C156825F46D
:102870008075156090F84420056C02F01F0201FA83
:1028800002F26A60D0E913255560426D32B11568D5
:1028900025F480751560D0E91625556080F825105F
:1028A00080F82430816B01B18847204670BDF0B4B8
:1028B000016C0C6801680D6890F8442002F01F0656
:1028C000042202FA06F3234211D06B070FD50B68DE
:1028D0009B0603D40B6823F004030B6090F84410AC
:1028E00001F01F018A40016C4A60016B1DE0022368
:1028F00003FA06F727424FF0000C4FF0010218D000
:10290000AF0716D50C68A40605D40C6824F00A0499
:102910000C6080F8252090F8441001F01F018B40D6
:10292000016C4B6080F824C0C16A00291AD0F0BC49
:1029300008470823B340234214D02B0712D50B6855
:1029400023F00E030B6090F84410036C01F01F019C
:1029500002FA01F15960C26380F8252080F824C092
:10296000416BE2E7F0BC704770B504000CD02B4A15
:1029700021681420914209D2294A0A44B2FBF0F09E
:102980008000606427480AE0012070BD234A52425B
:102990000A44B2FBF0F080006064204808382064EC
:1029A000022084F825000A6847F6F0708243D4E9D3
:1029B00002031843D4E904352B431843A369184391
:1029C000E3691843236A1843104308602046FFF761
:1029D00073FAA0680025B0F5804F00D16560A16C46
:1029E00020790860D4E9130141606068401E032823
:1029F00008D82046FFF780FA606D0560D4E916011B
:102A0000416002E06565A565E565E563012084F840
:102A1000250084F82450002070BD00000804024006
:102A2000F8FFFDBF0000024070B5044690F8240096
:102A3000002501280CD0012084F8240094F825609A
:102A40000020012E06D084F824000225284670BDFF
:102A5000022070BD022684F82560E06320680668C5
:102A600026F0010606602046FFF758FA206B002882
:102A70002068016802D041F00E0106E021F0040157
:102A800001602068016841F00A010160A06C0168E2
:102A9000C90303D5016841F480710160606D18B10C
:102AA000016841F4807101602068016841F0010112
:102AB0000160CBE770B5044600F03CF90546601CA8
:102AC00002D004484068044400F034F9401BA0429E
:102AD000FAD370BD300000202DE9F04FDFF82092CE
:102AE000002301260324A9F1040B85B00F2709F167
:102AF000040AABF1040EFAE006FA03F52A407CD092
:102B000091F804C00CF0030CBCF1010F02D0BCF131
:102B1000020F26D1D0F808C0CDF800C04FEA430C10
:102B200004FA0CF8CDF810C0DDF800C02CEA080C4F
:102B3000CDF800C0D1F80C80DDF810C008FA0CF810
:102B4000DDF800C048EA0C08C0F80880D0F804C0DE
:102B50002CEA050C0D79C5F300159D4045EA0C05DE
:102B600045600D79ED43AD070ED0C5684FEA4308C7
:102B700004FA08FC25EA0C05D1F808C00CFA08FC98
:102B80004CEA050CC0F80CC00D7905F00305022DC8
:102B900016D1DD0800EB850CCDF808C0DCF82080EC
:102BA0005D074FEAD56C07FA0CF528EA05080D69B0
:102BB00005FA0CF5DDF808C045EA0805CCF8205008
:102BC00005684FEA430CCDF808C004FA0CFC25EA6E
:102BD0000C0591F804C00CF00308DDF808C008FAF1
:102BE0000CF848EA0508C0F800804D6815F4403F2D
:102BF0007CD0444DD5F860C000E077E04CF0010C8B
:102C0000C5F860C02D6E23F0030C05F0010500959A
:102C10003D4D65440295AD684FEA837C4FEA1C78D0
:102C200007FA08FC25EA0C05B0F1904F06D0DFF852
:102C3000DCC0604505D14FF0010C20E04FF0000CE6
:102C40001DE0DFF8CCC0604502D14FF0020C16E069
:102C5000DFF8C0C0604502D14FF0030C0FE0DFF891
:102C6000B8C0604502D14FF0040C08E0DFF8ACC0FA
:102C7000604502D14FF0050C01E04FF0060C0CFA54
:102C800008FC4CEA050C029DC5F808C0D9F80050B4
:102C9000CC46D1F8048095435FEAC82800D5154397
:102CA000CCF80050DAF80050D446D1F804809543AF
:102CB0005FEA882800D51543CCF80050DBF80050B7
:102CC000DC46D1F8048095435FEA883800D5154387
:102CD000CCF80050DEF80050F446D1F8048095435B
:102CE0005FEAC83800D51543CCF800505B1C0A6871
:102CF00032FA03F57FF400AF05B0BDE8F08F0000B5
:102D00000804014000100240000001400004004897
:102D100000080048000C004800100048001400485B
:102D20000069084000D0012070470AB181617047F6
:102D300081627047014880687047000030000020C1
:102D40000248816842681144816070473000002069
:102D500010B50024032000F073F8002000F008F8FC
:102D600008B1012401E000F025F8204610BD000064
:102D700070B50E4E05460024706898B14FF47A7114
:102D8000B1FBF0F00A490968B1FBF0F000F062FD18
:102D900040B9102D06D200222946501E00F030F80E
:102DA000356000E00124204670BD000030000020A6
:102DB0003C0000200A4882B0016E41F0010101662A
:102DC000016E01F001010091816D41F0805181653A
:102DD000806D00F08050009002B000F0A1B80000BB
:102DE00000100240002809DB00F01F020121914081
:102DF0004009800000F1E020C0F800117047000099
:102E0000F0B40E4B1B680C46C3F30223C3F1070555
:102E1000042D00D90425191D072901D2002300E043
:102E2000DB1E012606FA05F1491E214099409E400D
:102E3000761E16403143F0BC03F093B80CED00E071
:102E4000064900F0070208684FF6FF03184040EA01
:102E50000220034A10430860704700000CED00E0B8
:102E60000000FA052B492C4B0A6832214A432B49B2
:102E700040B1B0F5007F086829D020F4C06040F46C
:102E800080602CE00868C0F34120022804D051F88B
:102E9000800F20F4807022E0D1F8800020F4807050
:102EA000C1F88000086820F4C06040F40070086039
:102EB000B2FBF3F0401C00E0401E4A69520501D508
:102EC0000028F9D1486940050AD503207047C0F3AE
:102ED0004120022806D051F8800F40F4807008602D
:102EE00000207047D1F8800040F48070C1F8800065
:102EF000086820F4C06040F400700860B2FBF3F092
:102F0000401C00E0401E4A695205DBD50028F9D17B
:102F1000D8E700003C00002040420F000070004055
:102F20000248816841F48041816070470070004030
:102F30002DE9F8430446006800269D4D00035ED548
:102F4000A86D0027C00008D4A86D40F08050A86587
:102F5000A86D012700F080500090DFF85892D9F852
:102F6000001041F48071C9F80010FFF7E3FE8046BD
:102F700006E000BFFFF7DEFEA0EB080002282BD81A
:102F8000D9F80000C005F5D5D5F8900010F44070D0
:102F900014D0216C814211D0D5F89000D5F8901052
:102FA00020F4407041F48031C5F89010D5F89010AD
:102FB00021F48031C5F89010C5F89000C00711D0F9
:102FC000FFF7B8FE804641F2883907E0FFF7B2FE0E
:102FD000A0EB0801494501D903260BE0D5F8900084
:102FE0008007F3D5D5F89000216C20F44070084399
:102FF000C5F890001FB1A86D20F08050A86520781A
:10300000C00707D0D5F88800616820F003000843A6
:10301000C5F888002078800707D5D5F88800A16812
:1030200020F00C000843C5F888002078400707D539
:10303000D5F88800E16820F030000843C5F8880022
:103040002078000707D5D5F88800216920F0C00056
:103050000843C5F888002078800607D5D5F8880091
:10306000616920F440600843C5F888002078400674
:1030700007D5D5F88800A16920F440500843C5F869
:1030800088002078000607D5D5F88800E16920F48B
:1030900040400843C5F888002088C00507D5D5F80A
:1030A0008800216A20F440300843C5F88800208851
:1030B000800507D5D5F88800616A20F440200843D0
:1030C000C5F88800208840050FD5D5F88800A16A8A
:1030D00020F440100843C5F88800A06AB0F5801FAE
:1030E00003D1E86840F48010E860208800050FD51F
:1030F000D5F88800E16A20F440000843C5F888004C
:10310000E06AB0F5800F03D1E86840F48010E86011
:103110002088C0040FD5D5F88800216B20F04070BE
:103120000843C5F88800206BB0F1807F03D1E868C0
:1031300040F48010E86020884FF0006180040ED5D4
:10314000D5F88800626B20F040601043C5F8880015
:10315000606B884203D1E86840F48010E860208802
:1031600040040ED5D5F88800A26B20F040601043D3
:10317000C5F88800A06B884203D1E86840F480104D
:10318000E860208800040FD5D5F88800E16B20F0B6
:1031900040500843C5F88800E06BB0F1805F03D170
:1031A000E86840F48030E8603046BDE8F88300000D
:1031B00000100240007000402DE9F0470E46050067
:1031C0004FF0000725D0DFF8AC81D8F8000000F000
:1031D0000F00B0420CD2D8F8001021F00F0131439B
:1031E000C8F80010D8F8000000F00F00B04210D16D
:1031F0002968614CC80741F2883A5AD06868DFF8FC
:103200007C91032808D0022820682DD04005002892
:103210002CDB0120BDE8F08720688001F9D5E0684B
:1032200000F00302E068C0F30310401C032A19D029
:10323000534A00BFB2FBF0F0E268C2F306225043EB
:10324000E268C2F34162521C5200B0FBF2F0484502
:1032500017D9A06810F0F00F0CD0880711D5A86816
:1032600040B10EE0474AE5E78003D0E700F0B6F84A
:10327000484506D9A06820F0F00040F08000A0602A
:103280008027A068696820F003000843A060FFF76A
:1032900051FD814606E000BFFFF74CFDA0EB0901A0
:1032A00051453AD8A068696800F00C00B0EB810F76
:1032B000F2D12868810714D5400703D5A06840F4EF
:1032C000E060A0602878000705D5A06820F4605071
:1032D00040F4E060A060A068A96820F0F000084316
:1032E00004E0802F03D1A06820F0F000A060D8F89F
:1032F0000010404601F00F01B14216D9016821F0DB
:103300000F0131430160FFF715FD074607E000BFDD
:10331000FFF710FDC11B514501D903207AE7D8F80A
:10332000000000F00F00B042F2D12878400705D528
:10333000A068E96820F4E0600843A06028780007EE
:1033400006D5A068296920F4605040EAC100A06059
:1033500000F044F8A1680C4AC1F30311515C01F07C
:103360001F01C8400949086009480068BDE8F047E6
:10337000FFF7FEBC002002400010024000B4C4046D
:103380000024F40000127A00BC7500083C00002004
:10339000300000200548064900688968054AC1F3E5
:1033A0000221515C01F01F01C84070473C00002021
:1033B00000100240CC75000805480649006889687D
:1033C000054AC1F3C221515C01F01F01C84070479A
:1033D0003C00002000100240CC750008184910B5D0
:1033E0008868C0F381021748012A0BD08A6843100D
:1033F000C2F38102022A06D08A68C2F38102032A3C
:1034000003D0002010BD184610BDCA6802F00304A6
:10341000CA68C2F30312521C032C02D0B0FBF2F0B4
:1034200001E0B3FBF2F0CA68C968C2F30622504358
:10343000C1F34161491C4900B0FBF1F010BD00002F
:10344000001002400024F4002DE9F84304007AD073
:103450002078FA4DC00747D0A868E96800F00C0052
:1034600001F003010C2802D0082817D001E003293D
:1034700014D06068B0F5803F17D0B0F5A02F286851
:1034800017D020F480302860286820F4802028603D
:103490006068E0B1FFF74EFC064614E02868800340
:1034A00022D560680028D2D01EE0286840F4803021
:1034B000EDE740F480202860F7E700BFFFF73AFC13
:1034C000801B642870D828688003F7D50CE0FFF7CC
:1034D00031FC064605E000BFFFF72CFC801B64288A
:1034E000F0D828688003F7D4207880074CD5A868E6
:1034F000E96800F00C0001F003010C2802D0042858
:103500000DD001E002290AD0E068002828682BD0FD
:1035100040F480702860FFF70DFC064619E028682B
:10352000400502D5E068002891D06868217C20F031
:10353000FE4040EA01606860C1480068FFF718FC7F
:10354000002800D120E076E1FFF7F4FB801B022881
:10355000B8D828684005F7D56868217C20F0FE407F
:1035600040EA016068600FE020F480702860FFF797
:10357000E1FB064605E000BFFFF7DCFB801B0228ED
:10358000A0D828684005F7D42078000729D56069BD
:103590000028D5F8940013D040F00100C5F894003D
:1035A000FFF7C8FB064606E090E000BFFFF7C2FB4E
:1035B000801B022886D8D5F894008007F6D510E045
:1035C00020F00100C5F89400FFF7B4FB064604E0C4
:1035D000FFF7B0FB801B022878D8D5F8940080074D
:1035E000F6D42078400761D5A86D0026C00008D425
:1035F000A86D40F08050A865A86D012600F08050AD
:10360000009090480168C90511D40168804641F4D2
:1036100080710160FFF78EFB074604E0FFF78AFB2D
:10362000C01B022852D8D8F80000C005F6D5A06803
:10363000012815D00528D5F8900016D020F00100FB
:10364000C5F89000D5F8900020F00400C5F890006F
:10365000A06841F28838B8B1FFF76CFB07460EE06E
:10366000D5F8900040F00100F0E740F00400C5F804
:103670009000F5E7FFF75EFBC11B414526D8D5F862
:1036800090008007F6D50CE0FFF754FB074604E0F6
:10369000FFF750FBC11B414518D8D5F890008007B3
:1036A000F6D41EB1A86D20F08050A8652078800661
:1036B00029D5A0690028D5F8980013D040F0010062
:1036C000C5F89800FFF736FB064606E077E000BF36
:1036D000FFF730FB801B022877D8D5F898008007C9
:1036E000F6D510E020F00100C5F89800FFF722FBA6
:1036F000064604E0FFF71EFB801B022865D8D5F8BC
:1037000098008007F6D4E069F0B3A968C1F381019D
:10371000032961D00228286820F0807028600BD02F
:10372000E86820F00300E860E86847490840E8607E
:10373000FFF700FB04464BE0FFF7FCFA064604E007
:10374000FFF7F8FA801B02283FD828688001F7D4D9
:10375000F4E908016FF00F0202EB01110843218A1E
:103760005204490802EB4151A26841EA0221084390
:10377000217D4FF07E42490802EB41610843217BE5
:1037800040EAC160E96800E062E0304A1140084365
:10379000E860286840F080702860E86840F0807039
:1037A000E860FFF7C7FA044605E000BFFFF7C2FA7A
:1037B000001B022809D828688001F7D548E004E0FA
:1037C000FFF7B8FA001B022802D90320BDE8F883EE
:1037D00028688001F4D43BE00128F7D0E868226A29
:1037E00000F00301914226D1616A00F0F002090164
:1037F000103991421FD1A26A00F4FE41B1EB022FB1
:1038000019D194F82C2000F07841B1EBC26F12D19D
:10381000218E00F4C00249084905A1F5001191422A
:1038200009D194F8341000F0C06049084906A1F1AC
:10383000007181420CD00120C8E700000010024056
:103840003000002000700040FFFFEEFE0C809F0162
:103850000020BBE710B5401EB0F1807F01D30120EE
:1038600010BD4FF0E02460610F21601702F079FB7A
:103870000020A06107202061002010BD7047704724
:103880007047704770477047F0B590F83C20012AA8
:103890003AD0012580F83C50022280F83D20036890
:1038A0005A689C68194E1A4FB34201D0BB4204D1EA
:1038B00022F4700C4A6842EA0C02DFF858C002EAAF
:1038C0000C02D1F800C04CEA020CC3F804C0026834
:1038D000B2420DD0B2F1804F0AD00F4B9A4207D0BE
:1038E0000E4B9A4204D0BA4202D00D4B9A4204D1F8
:1038F000896824F080031943916080F83D500021CD
:1039000080F83C100846F0BD0220F0BD002C0140BC
:10391000003401408FFFFFFD00040040000800401C
:1039200000400140704710B5040003D094F83D00FA
:1039300010B107E0012010BD002084F83C002046B3
:1039400000F022F8022084F83D00211D206801F0DB
:1039500031FE012084F8480084F83E0084F83F00DE
:1039600084F8400084F8410084F8420084F8430061
:1039700084F8440084F8450084F8460084F8470041
:1039800084F83D00002010BD08B5154A01681548AF
:1039900091420ED1816D41F010018165806D002250
:1039A00000F01000009011463620FFF729FA36206B
:1039B00010E00D4A914211D1816D41F020018165E5
:1039C000806D002200F02000009011463720FFF7A4
:1039D00017FA3720BDE80840FFF704BA08BD000019
:1039E00000100040001002400014004090F83D100C
:1039F000012901D001207047022180F83D100168A3
:103A0000CA6842F00102CA600068104988420ED0BC
:103A1000B0F1804F0BD00E49884208D00D49884242
:103A200005D00D49884202D00C49884207D18168EF
:103A30000B4A1140062906D0B1F5803F03D001683A
:103A400041F001010160002070470000002C01409E
:103A500000040040000800400034014000400140E4
:103A60000700010010B50A4A016891420FD1007F9A
:103A700002280CD10021074800F012FC064908601A
:103A80000421044800F00CFC03492839086010BDEB
:103A9000000400409C010020880000202DE9F04136
:103AA000054690F83C0000260C46012810D0012065
:103AB00085F83C0072B1042A1CD0082A2CD00C2AAC
:103AC00050D00126002085F83C003046BDE8F0814A
:103AD0000220FBE7D4E90012E368286801F054FEF5
:103AE0002868816921F00C01816128688169A268D8
:103AF00011430FE0D4E90012E368286801F08CFE5E
:103B00002868816921F44061816128688169A2681F
:103B100041EA02218161D5E72868D4E9002C277B9E
:103B2000016A21F480710162C169036A21F0030115
:103B300041EA0C0121F0F00C39074FF420674CEA00
:103B4000116123F4206307EA02221A43C161026271
:103B50002868C16921F00C01C1612868C169A268A7
:103B6000114328E02868D4E90027E168036A23F4B8
:103B700080530362D0F81CC0036A2CF4407C4CEAEA
:103B800007274FF6FF7C27F470470CEA01313943D1
:103B90004FF4204723F4204307EA02321A43C1615D
:103BA00002622868C16921F44061C1612868C16965
:103BB000A26841EA0221C16184E710B5040003D084
:103BC00094F83D0010B107E0012010BD002084F8FA
:103BD0003C00204600F022F8022084F83D00211D20
:103BE000206801F0E7FC012084F8480084F83E00DA
:103BF00084F83F0084F8400084F8410084F84200D3
:103C000084F8430084F8440084F8450084F84600B2
:103C100084F8470084F83D00002010BDF0B587B05F
:103C2000064614216846FCF727FC21493068884283
:103C30003BD12049886D40F002008865886D00F016
:103C400002000590C86C40F00100C864C86C802771
:103C500000F001000097059002200025CDE9010544
:103C6000CDE9035069464FF09040FEF735FF134C05
:103C7000114820603E20C4E901057800E560C4E9F0
:103C80000470C000C4E9060520462562FEF76CFEFC
:103C900008B1FEF771F9B462002211461D20A66238
:103CA000FFF7AEF81D20FFF79DF807B0F0BD00004C
:103CB00000040040001002401C000240800200206E
:103CC00030B50446002571B1042911D0082914D05B
:103CD0000C2917D0102918D094F8430094F84720E5
:103CE000012817D114E094F83E0094F84420F7E737
:103CF00094F83F0094F84520F2E794F8400094F8D7
:103D00004620EDE794F84100E8E794F84200E5E743
:103D1000012A01D0012030BD022079B1042916D03A
:103D200008291DD00C2949D010294AD084F8430015
:103D300084F847000C2947D001253DE084F83E0077
:103D400084F844002068C26842F0020210E084F85F
:103D50003F0084F845002068C26842F0040207E092
:103D600084F8400084F846002068C26842F00802E7
:103D7000C2600122206801F075FC16492068884263
:103D80000ED0B0F1804F0BD01349884208D01349B0
:103D9000884205D01249884202D01249884207D190
:103DA0008168114A1140062906D0B1F5803F03D041
:103DB000016841F001010160284630BD84F84100EE
:103DC000B6E784F84200B3E72068C26842F0100208
:103DD000CEE70000002C0140000400400008004035
:103DE00000340140004001400700010070B5044666
:103DF000006801694FF00005C943890715D4C168FF
:103E0000C943890711D4E91E016101202077206888
:103E100080698007204602D0FFF724FE04E000F00E
:103E2000E3F8204600F0E1F8257720680169C943EE
:103E3000490717D4C168C943490713D46FF0040177
:103E40000161022020772068806910F4407F2046BD
:103E500002D0FFF707FE04E000F0C6F8204600F0AD
:103E6000C4F8257720680169C943090716D4C168D9
:103E7000C943090712D46FF00801016104202077BB
:103E80002068C0698007204602D0FFF7EBFD04E000
:103E900000F0AAF8204600F0A8F82577206801690C
:103EA000C943C90617D4C168C943C90613D46FF002
:103EB00010010161082020772068C06910F4407F5C
:103EC000204602D0FFF7CEFD04E000F08DF820463A
:103ED00000F08BF8257720680169C943C90708D12C
:103EE000C168C943C90704D1891E0161204600F099
:103EF0007DF820680169C943090609D4C168C9432E
:103F0000090605D46FF0800101612046FFF7B7FC78
:103F100020680169C943C90509D4C168C9430906B4
:103F200005D46FF4807101612046FFF7A7FC20687B
:103F30000169C943490609D4C168C943490605D482
:103F40006FF040010161204600F0EAF92068016944
:103F5000C943890609D4C168C943890605D46FF0ED
:103F6000200101612046FFF78BFC20680169C943ED
:103F7000C90209D4C168C943C90205D46FF48011CC
:103F800001612046FFF77EFC20680169C943890270
:103F900009D4C168C943890205D46FF400110161D5
:103FA0002046FFF76EFC20680169C943490209D425
:103FB000C168C943490205D46FF4800101612046FC
:103FC000FFF761FC20680169C94309020BD4C1688D
:103FD000C943090207D46FF4000101612046BDE81E
:103FE0007040FFF79FBC70BD7047704770B58D493A
:103FF0002DED028B006888427ED18B4D0121284631
:10400000FEF78EFE014689A001F0EAFF014600207E
:1040100000F044FD01212846FEF782FE844CE16851
:1040200040EA4100E06002212846FEF779FE21695E
:1040300040EA4100206104212846FEF771FE6169D3
:1040400040EA4100606101214FF09040FEF768FEB8
:10405000A169002540EA4100A06120780028207B6A
:104060004FEA807018D0C0B92570207968B1E07926
:104070006179884203D1D4E90801814205D001F079
:104080008DFFE0796071606A2062207980F0010024
:10409000207102F05FF802E000B101202070207969
:1040A00040B160780028207C4FEA807059D0002809
:1040B00051D057E05E4C0834208800EE100AB8EE6C
:1040C000400ADFED5C8A20EE280A9FED5B8A20EE35
:1040D000080A10EE100A02F0FBF841EC100B57A092
:1040E00053EC102B01F07CFF0146482000F0D6FC79
:1040F000608800EE100A00E04CE0B8EE400A20EEC6
:10410000280A20EE080A10EE100A02F0E1F841EC4D
:10411000100B4FA053EC102B01F062FF0146602002
:1041200000F0BCFC4F486421006848434D492839E1
:104130000968B0FBF1F14CA001F052FF0146782074
:1041400000F0ACFCBDEC028B2146BDE870400222C1
:104150004A48FEF7C3BA6570A07980F00100A071EB
:1041600002E000B1012060706069B0B1A17811B1C6
:1041700010F0FF0F11D0800700D00120A070A069BF
:1041800060B3E17811B110F0FF0F27D0800700D0A5
:104190000120E070BDEC028B70BDA570A07978B1F4
:1041A000606A401C6062292801D12820606234A026
:1041B000216A01F015FF0146482000F06FFC03E082
:1041C000E07980F00100E071617931A0491C01F0D3
:1041D00007FF0146602000F061FCD0E7E570A079A0
:1041E00078B1606A401E6062132801D114206062B9
:1041F00023A0216A01F0F4FE0146482000F04EFCA5
:1042000003E0E07980F00100E071617920A0491CB1
:1042100001F0E6FEBDEC028B0146BDE87040602077
:1042200000F03CBC0014004000040048256400007D
:104230000800002033335340000080392020202024
:104240004130313A20252E32662020200000000027
:10425000202020204130323A20252E326620202096
:1042600000000000880000202020202050574D3200
:104270003A2564252520202000000000D0000020E1
:1042800020202020543A20256420202020000000F7
:1042900020202020583A20256420202020000000E3
:1042A0000246002041B1042909D008290AD00C296E
:1042B00001D11068006C70471068406B704710683F
:1042C000806B70471068C06B704770B5044690F8FB
:1042D0003C00012812D0012584F83C50022084F8CB
:1042E0003D00204601F0D6F901004FF0000007D054
:1042F00084F83D5084F83C00012070BD022070BD60
:104300002168CA6822F04002CA602168CA6822F4A3
:104310008042CA6084F83D5084F83C00002070BDA3
:10432000704790F88010012918D0012180F8801082
:104330002421C0F8841050F8641B0A680B6823F02D
:1043400001030B6022F000510022026050F8643C2F
:1043500019602021016202771046704702207047E1
:1043600010B50446D0F88800202820D181B17AB158
:1043700094F8800001281AD0012084F88000E066BB
:10438000204601F019FD002803D1E16E012901D07A
:10439000012010BD226810211162226852E8001F1E
:1043A00041F0100142E80013002BF6D110BD0220AD
:1043B00010BD7047704770B5044690F88000012822
:1043C0001DD0012084F880002420C4F884002068D7
:1043D0000568026822F0010202602068826822F00B
:1043E00060620A438260204601F032FA206805606C
:1043F0002020C4F88400002084F8800070BD0220D2
:1044000070BD70B5044690F8800001281DD00120D1
:1044100084F880002420C4F88400206805680268BD
:1044200022F0010202602068826822F060420A43A2
:104430008260204601F00CFA206805602020C4F854
:104440008400002084F8800070BD022070BD704799
:10445000704770472DE9F04103680446D869196830
:104460009A6840F60F0528424FF0000509D18606EC
:104470007ED501F0200602F080573E4378D0216FB0
:1044800027E1A94EA94F16400F40374370D0C70708
:1044900009D0CF0507D501271F62D4F88C3043F02F
:1044A0000103C4F88C3083070AD5D30708D02768E6
:1044B00002233B62D4F88C3043F00403C4F88C3000
:1044C00043070AD5D30708D0276804233B62D4F8F2
:1044D0008C3043F00203C4F88C3003070CD501F094
:1044E0002003334308D0266808233362D4F88C3085
:1044F00043F00803C4F88C3003050BD54B0109D5F4
:1045000026684FF400633362D4F88C3043F0200304
:10451000C4F88C30D4F88C30002B3AD0800609D502
:1045200001F0200002F08051084303D0216F09B14F
:1045300020468847D4F88C0021688968490602D44F
:1045400010F0280F27D0204601F0BAFA20688068C2
:1045500040061BD52068083050E8001F21F04001BC
:1045600040E80012002AF5D1E06F78B1704900E010
:1045700017E08163E06FFEF75EF9002809D0E06F75
:10458000816B00E02046BDE8F04108472046FFF778
:1045900060FFBDE8F0812046FFF75BFFC4F88C5058
:1045A000F7E7E76E2026012F7ED1C7067CD5CF0620
:1045B0007AD51020186220688068400642D5E16FE5
:1045C000086840680004000CE3D0B4F85C20824224
:1045D000DFD9A4F85E000868006880062BD4206844
:1045E00050E8001F21F4807140E80012002AF6D143
:1045F0002068083050E8001F21F0010140E8001257
:10460000002AF5D12068083050E8001F21F0400151
:1046100040E80012002AF5D1C4F88860E5662168F8
:1046200051E8000F20F0100041E80002002AF6D106
:10463000E06FFEF7CBF8B4F85C00B4F85E10401AF7
:1046400081B22CE0B4F85C00B4F85E10401A81B27C
:10465000B4F85E0000289CD000299AD0226852E865
:10466000000F20F4907042E80003002BF6D12E4B8F
:10467000DB432068083050E8002F1A4040E800274C
:10468000002FF6D1C4F88860E5662567226852E8F5
:10469000000F20F0100042E80003002BF6D1204666
:1046A000FFF787FE75E7FFE7C70209D5570207D571
:1046B0004FF4801018622046BDE8F041FFF7C8BEF5
:1046C00003060AD501F0800302F40002134304D06C
:1046D000616F00297FF456AF5BE7420611D54A06A9
:1046E0000FD52046016851E8002F22F0400241E832
:1046F0000023002BF6D1C0F88460456700F0B2F8C3
:1047000047E7020206D54A0004D52046BDE8F0413D
:10471000FFF79DBEC001C5D50029C3DA2046BDE81C
:10472000F041FFF747BE0000010000102001000427
:10473000BD59000810B5040003D0D4F8840010B1AE
:1047400007E0012010BD002084F88000204600F022
:1047500027F82420C4F884002068016821F00101B2
:104760000160204601F0EEF90128EBD0A06A10B1FB
:10477000204601F08FF82068416821F490414160A3
:104780002068816821F02A0181602068016841F079
:10479000010101602046BDE8104001F0DFB80000D3
:1047A00070B598B00646142111A8FBF765FE4421A8
:1047B0006846FBF761FE26493068884245D10120F2
:1047C000009001906846FEF7B3FB08B1FDF7D4FBFB
:1047D0002049086E40F480400866086E00F480406E
:1047E0001690C86C40F00100C864C86C002500F049
:1047F000010016904FF4C06011900220CDE912051F
:104800000720CDE9145011A94FF09040FEF764F94C
:10481000124C114820601820C4E901058020C4E929
:1048200003506561A561E56120462562FEF79CF8AD
:1048300008B1FDF7A1FBF467002211462520A6620E
:10484000FEF7DEFA2520FEF7CDFA18B070BD0000A5
:1048500000380140001002400800024070030020B0
:10486000704770477047FEE770B50446082516E0AC
:1048700000F0FCFD142001F08BFB04F0800000F040
:1048800023FE142001F084FB6006040E142001F0C6
:104890007FFB012000F0EAFD142001F079FB6D1E82
:1048A000EDB24FF00000E3D200F0E0FDBDE8704053
:1048B000142001F06DBB10B5012000F005FE14209E
:1048C00001F066FB012000F0D1FD142001F060FB37
:1048D000002000F0F9FD142001F05AFB002000F048
:1048E000C5FDBDE81040142001F052BB10B50020FA
:1048F00000F0BCFD142001F04BFB002000F0E4FDB3
:10490000142001F045FB012000F0B0FD142001F05F
:104910003FFB012000F0D8FDBDE81040142001F05D
:1049200037BB10B5052400F0B9FD142001F030FBB1
:10493000012000F09BFD142001F02AFB05E0641E1D
:10494000A4B2142001F024FB6CB100F09BFD002800
:10495000F5D100F0C5FD002000F088FD142001F025
:1049600017FB002010BD00F0BBFDFFF7BFFF0120CB
:1049700010BD000000B585B014216846FBF77CFD32
:104980004FF6FF70009000200321CDE90201019055
:1049900069460248FEF7A0F805B000BD00080048CF
:1049A00000B585B014216846FBF766FD4FF6FF7031
:1049B000009001200190032003900020029069469E
:1049C0000248FEF789F805B000BD00000008004865
:1049D00070B5002406462146204600F003F900F099
:1049E00041F94FF49635304600F010F9641CAC42A2
:1049F000F9D370BD30B587B014216846FBF73CFD94
:104A00001E48C16C41F00401C164C16C01F0040195
:104A10000591C16C41F00101C164C16C01F001015B
:104A20000591C16C41F00201C164C06C012500F028
:104A3000020005904FF44870CDE90005002403946E
:104A4000694602940E48FEF747F828020394009046
:104A5000CDE901544FF0904469462046FEF73CF8FA
:104A6000FFF79EFFA06940F48070A06104481830F1
:104A7000016841F40871016007B030BD00100240C8
:104A800000040048203AD2B2034B02EB420203EB8F
:104A9000021200F019B80000C4630008F0B50E4619
:104AA0000746002540F23F1407E021463846FFF74D
:104AB000E9FF103C6D1CA4B2761C3278002A01D0AC
:104AC000142DF2D3F0BD00002DE9F04791468A463F
:104AD0000026044600F086F8DFF84080012700BF7A
:104AE00000F0C0F85FF0000539F8160007FA05F18C
:104AF0000842404601D1408800E0008800F086F876
:104B00006D1C102DF0D3641CE4B25146204600F019
:104B100069F8761C182EE3D3BDE8F087000000206A
:104B200010B5FFF767FF002000F014F8084CA080D4
:104B3000A088A0F50241303906D000F095FB002096
:104B400000F008F8A08010BD00F005FBF7E70000BA
:104B50000000002070B51D490A6842F400720A6026
:104B60000A6842F480720A60184C103C226842F0D5
:104B700020022260164A1060086840F02000086099
:104B800000BF00BF00BF206840F020002060206808
:104B900040F480702060FFF7EDFE4FF09041886A8E
:104BA00040F48070886200BF00BF00BF0848001F4B
:104BB000006885B2886940F480708861FFF7F0FE74
:104BC000206840F400702060284670BD280400482A
:104BD0001408004801B5BDF800000149488008BD2F
:104BE0000000002010B50C460146202000F068F8B7
:104BF0002146BDE81040212000F062B801B5BDF8A3
:104C000000000149088008BD00000020134A116817
:104C100041F400711160114910390B6843F480733D
:104C20000B600B6843F020030B600D4B186010689D
:104C300040F02000106000BF00BF00BF086840F0D7
:104C400020000860086840F48070086000BF00BF62
:104C500000BF086840F400700860704728040048EE
:104C6000140800481449086840F400700860086897
:104C700040F48070086010481038026842F020024A
:104C800002600E4B22221A600A6842F020020A607B
:104C900000BF00BF00BF016841F020010160016852
:104CA00041F48071016000BF00BF00BF016841F4A2
:104CB0000071016070470000280400481408004893
:104CC000184B10B51A6842F400721A601A6842F460
:104CD00080721A60134A103A146844F02004146079
:104CE000114C2060186840F02000186000BF00BF21
:104CF00000BF106840F020001060106840F4807021
:104D000010602160186840F02000186000BF00BFEC
:104D100000BF106840F020001060106840F4807000
:104D2000106010BD280400481408004800EB810002
:104D3000006E00F0F84070478068C0F3C000704714
:104D40008068C0F380007047C06810F4406F01D0E5
:104D50000020704701207047042303EAD15310B5A7
:104D600018444369C1F3045107248C40A3438A408B
:104D70001343436110BD00EB8100016E21F000413F
:104D8000114301667047000010B588B020216846C5
:104D9000FBF772FB20481F49002401604FF44031AB
:104DA000C0E901140121C460C0E904410821816106
:104DB000047744770221016280F82440C4620463CE
:104DC00080F83840C46380F84040FDF731FB08B1FB
:104DD000FDF7D2F8114800900620CDE901047F20AC
:104DE00003900420CDE9040469460B48FDF710F94F
:104DF00008B1FDF7C1F80A4800900C2001906946FF
:104E00000548FDF705F9002801D0FDF7B5F808B011
:104E100010BD000000010050D000002000005247EB
:104E200000209036194808B5816C41F00401816476
:104E3000816C01F004010091816C41F001018164F9
:104E4000816C01F001010091816C41F002018164EB
:104E5000806C002200F00200009011460B20FDF74C
:104E6000CFFF0B20FDF7BEFF002211460C20FDF7FF
:104E7000C7FF0C20FDF7B6FF002211463820FDF7D2
:104E8000BFFFBDE808403820FDF7ACBF001002406E
:104E90002DE9F04387B014216846FBF7EDFA3E4850
:104EA000C16C41F00401C164C16C01F004010591C1
:104EB000C16C41F02001C164C16C01F02001059179
:104EC000C16C41F00101C164C16C01F001010591A7
:104ED000C16C41F00201C164C16C01F00201059195
:104EE000C16C41F00801C164C06C2C4E00F0080098
:104EF0004FF47F440590012221463046FDF715FF0F
:104F00004FF0904700224E213846FDF70EFFDFF8A4
:104F10009080012204214046FDF707FFDFF88490CE
:104F20000022C0214846FDF700FF0125CDE90045DC
:104F30000024CDE9025469463046FDF7CDFDCDE9A8
:104F40000054694638460294FDF7C6FD4E20009095
:104F5000CDE90154694638460394FDF7BDFD0720AD
:104F60008DE8310069464846FDF7B6FD0420CDE9DD
:104F70000005CDE9025469464046FDF7ADFDC0206D
:104F80000090CDE90154694648460394FDF7A4FD1D
:104F900007B0BDE8F08300000010024000080048A0
:104FA000000C00480004004810B58CB0142104A87F
:104FB000FBF762FA002425480094019402940394BC
:104FC00009940A9420490B9401609F21C0E90114BF
:104FD0004FF6FF71C0E903148461FEF7EEFD08B1DE
:104FE000FCF7CAFF042004906020CDE90504079473
:104FF00004A916480894FFF768F908B1FCF7BCFF4C
:1050000002200090CDE90104002269460F48039474
:10501000FEF744FD08B1FCF7AFFF0120CDE90040E9
:10502000042269460948FEF739FD08B1FCF7A4FFE0
:10503000099409A905480B94FEF726FC002801D025
:10504000FCF79AFF0CB010BD000400409C0100204A
:105050003EB500241048009401940E49029401606A
:1050600043F67F61C0E9011444F61F61C1608021ED
:105070008161FEF758FC08B1FCF77EFF0094694699
:1050800005480294FEF700FC002801D0FCF774FFED
:105090003EBD000000100040E80100203EB50024A5
:1050A0001048009401940E490294016040F23F615F
:1050B000C0E9011440F2CF71C16080218161FEF727
:1050C00032FC08B1FCF758FF20200090694602949A
:1050D0000448FEF7D9FB002801D0FCF74DFF3EBD88
:1050E0000014004034020020184810B51649016031
:1050F0004FF416514160002181600C22C160C0E96B
:1051000004128161C161016241628162FFF712FB99
:1051100008B1FCF731FF00210C48FFF772F908B124
:10512000FCF72AFF00210948FFF745F908B1FCF711
:1051300023FF0648FFF7F5F8002803D0BDE810402C
:10514000FCF71ABF10BD000000380140E00200204B
:10515000FEE7FEE7704730B501210020FFF7B0FD04
:105160004FF47A70FCF7FAFE00210120FFF7A8FD4A
:1051700041F290711020FFF7A3FD4FF41C51602005
:10518000FFF79EFD01216120FFF79AFD02214620D5
:10519000FFF796FD48F210011320FFF791FD48F24A
:1051A000FE011220FFF78CFD4FF4A0610220FFF7F3
:1051B00087FD41F230010320FFF782FD40F2033406
:1051C00021463020FFF77CFD21463120FFF778FD96
:1051D00021463220FFF774FDE51E29463320FFF7F4
:1051E0006FFD03213420FFF76BFD21463520FFF7CB
:1051F00067FD14213620FFF763FD21463720FFF7B6
:105200005FFD21463820FFF75BFD21463920FFF77F
:1052100057FD29463A20FFF753FD03213B20FFF7B6
:105220004FFD21463C20FFF74BFD4FF4A0513D20A0
:10523000FFF746FD4FF400719220FFF741FD214634
:105240009320FFF73DFD40F60D019020FFF738FD5C
:1052500041F218010320FFF733FDBDE8304040F272
:1052600073110720FFF72CBD10B543F20801E320AE
:10527000FFF726FD1221E720FFF722FD41F2312141
:10528000EF20FFF71DFD00210120FFF719FD4FF46E
:10529000E0610220FFF714FD41F230010320FFF727
:1052A0000FFD00210420FFF70BFD40F2072108202D
:1052B000FFF706FD00210920FFF702FD00210A206B
:1052C000FFF7FEFC00210C20FFF7FAFC00210D2067
:1052D000FFF7F6FC00210F20FFF7F2FC0021102061
:1052E000FFF7EEFC07211120FFF7EAFC0021122056
:1052F000FFF7E6FC00211320FFF7E2FCC820FDF7D2
:10530000D9FB41F290611020FFF7DAFC40F227212F
:105310001120FFF7D5FC3220FDF7CCFB1D21122018
:10532000FFF7CEFC3220FDF7C5FB4FF400611320E0
:10533000FFF7C6FC14212920FFF7C2FC0B212B200C
:10534000FFF7BEFC3220FDF7B5FB00212020FFF760
:10535000B7FC00212120FFF7B3FC07213020FFF725
:10536000AFFC40F207713120FFF7AAFC0621322082
:10537000FFF7A6FC40F204713520FFF7A1FC41F6CF
:1053800004713620FFF79CFC04213720FFF798FCBE
:1053900000213820FFF794FC40F206713920FFF716
:1053A0008FFC40F201713C20FFF78AFC0F213D2069
:1053B000FFF786FC00215020FFF782FCEF215120EF
:1053C000FFF77EFC00215220FFF77AFC40F23F11EC
:1053D0005320FFF775FC4FF41C516020FFF770FC61
:1053E00001216120FFF76CFC00216A20FFF768FCB7
:1053F00000218020FFF764FC00218120FFF760FC82
:1054000000218220FFF75CFC00218320FFF758FC7D
:1054100000218420FFF754FC00218520FFF750FC79
:1054200010219020FFF74CFC00219220FFF748FC50
:1054300003219320FFF744FC4FF488719520FFF778
:105440003FFC00219720FFF73BFC00219820FFF74D
:1054500037FC41F218010320FFF732FCBDE8104091
:1054600040F273110720FFF72BBC000008B104487D
:1054700001E003481030016841F0400101607047CD
:105480001804004810B580210348FDF749FC0128A5
:1054900000D0002010BD00000004004800B585B019
:1054A00014216846FAF7E8FF802000900020019060
:1054B000012002900220039069460248FDF70CFB90
:1054C00005B000BD0004004808B1044801E00348ED
:1054D0001030016841F080010160704718040048F5
:1054E00000B585B014216846FAF7C6FF8020009009
:1054F000112001900020029002200390694602488A
:10550000FDF7EAFA05B000BD000400487047FDF75A
:1055100017BC00B593B038216846FAF7ADFF1421E7
:105520000EA8FAF7A9FF0020FDF79CFC0220C1019C
:105530000391402104910121CDE90801009014213B
:10554000CDE90A1007900C900D906846FDF77CFF9E
:1055500008B172B6FEE70F200E9003200F900020D6
:10556000109011904FF48060129004210EA8FDF766
:1055700023FE002801D072B6FEE713B000BD000084
:105580000248016841F470010160704788ED00E055
:105590000148FEF72BBC00009C0100200148FEF7EB
:1055A00025BC0000E80100200148FEF71FBC0000F8
:1055B000340200202DE9F0430268234B234D244E92
:1055C000244C4FF08049984207D0484505D0A84266
:1055D00003D0B04201D0A04203D122F070074A6844
:1055E0003A431D4FDFF874C0DFF8748098420DD045
:1055F00048450BD0A84209D0B04207D0A04205D000
:10560000B84203D0604501D0404503D122F4407533
:10561000CA682A434D6922F080022A4302608A68E0
:10562000C2620A688262984207D0A04205D0B8429E
:1056300003D0604501D0404501D1096901630121D2
:105640004161BDE8F0830000002C014000040040EF
:105650000008004000340140004001400044014087
:105660000048014010B501F01F030121046A994070
:105670008C430462016A9A401143016210BD10B567
:10568000846842EA032224F47F440A43224382606E
:1056900010BD000070B505680024AA682E4B1A40A2
:1056A0004B6813432D4A13400A681A43AA604A689C
:1056B000602A4AD00DDC302A1FD005DCEAB1102A5E
:1056C0001BD0202A18D118E0402A1FD0502A13D10D
:1056D00035E0234D531BAA420FD009DC702A0ED0AF
:1056E000B2F1101F09D0203AB2F5801F04D104E0B6
:1056F000102B02D0402B00D00124204670BD0B6936
:10570000D1E902210068FFF7BAFFF6E70A68052A27
:1057100013D0B2F1011F10D00268136A156A25F088
:105720000105156202689569096925F0F00545EAE9
:105730000111916100680362DFE7012070BD0A6911
:105740008968006800F00EF8D7E70A698968006880
:1057500000F050F8D1E700008FFFCFFFF8FFFEFF09
:105760003000100010B5036A046A24F001040462DA
:10577000846924F0F00444EA021423F00A020A4384
:105780008461026210BD000070B5046A24F0010457
:1057900004628469056A124EB0420ED0B0F1804FA7
:1057A0000BD0104EB04208D00F4EB04205D00F4E75
:1057B000B04202D00E4EB04203D124F00304144391
:1057C00001E044F001041A0724F0F00444EA1262F4
:1057D00025F00A0301F00A0119438261016270BDDC
:1057E000002C01400004004000080040003401404B
:1057F0000040014010B5036A23F01003036283697F
:10580000046A23F4704343EA023224F0A00343EA1B
:1058100001118261016210BD30B5046A24F01004E8
:1058200004628469056A24F4407444EA022222F482
:1058300070444FF6FF7202EA03322243A02425F09F
:10584000A00304EA011119438261016230BD000026
:1058500030B5416EB9B1026891689268C1F3426196
:105860000B4B520F9C5CE50003F10804A25CB5FBF6
:10587000F2F2A0F86A205A5C615CD200B2FBF1F14E
:10588000A0F8681030BD0121A0F86A10F8E7000008
:10589000AC75000890F82810C90706D001684A685E
:1058A000C36A22F400321A434A6090F8281089072C
:1058B00006D501684A68036B22F480321A434A60B5
:1058C00090F82810490706D501684A68436B22F40E
:1058D00080221A434A6090F82810090706D501680B
:1058E0004A68836B22F400421A434A6090F82810F9
:1058F000C90606D501688A68C36B22F480521A4330
:105900008A6090F82810890606D501688A68036CB9
:1059100022F400521A438A6090F82810490611D5E3
:1059200001684A68436C22F480121A434A60416C51
:10593000B1F5801F06D101684A68836C22F4C00269
:105940001A434A6090F82810090606D501684A688B
:10595000C06C22F4002202434A607047F8B500266A
:105960000446C0F88C60FDF7E5F90546206800683C
:105970006FF07E47000708D52B4600224FF4001138
:105980002046009700F06AFA60B920680068400776
:105990000AD52B4600224FF480012046009700F0E4
:1059A0005DFA08B10320F8BD2020C4F88400C4F8D3
:1059B000880044F86C6F00202675F8BD10B5806A29
:1059C0000021A0F85E10A0F85610FEF742FD10BDB1
:1059D00070B5846AD4F88400D4F888502168896846
:1059E0004FF00006090606D5212804D1A4F8566018
:1059F000204600F08FF820688068400606D5222DEA
:105A000004D1A4F85E60204600F05AF8D4F88C0067
:105A100040F01000C4F88C002046FEF71AFD70BD5F
:105A200010B50146806A0968096889062ED40021EC
:105A3000A0F85E10016851E8002F22F4807241E85E
:105A40000023002BF6D10168083151E8002F22F025
:105A5000010241E80023002BF5D10168083151E82B
:105A6000002F22F0400241E80023002BF5D1202135
:105A7000C0F88810C16E012908D1026852E8001FE1
:105A800021F0100142E80013002BF6D1C16E01296C
:105A900002D0FEF7E5FE10BDB0F85C10FEF789FC01
:105AA00010BD10B5806AC16E012902D0FEF7D9FE83
:105AB00010BDB0F85C104908FEF77BFC10BD00007B
:105AC00010B5026852E8001F21F4907142E80013FB
:105AD000002BF6D10E4B0268083252E8001F194025
