:020000040800F2
:10000000B807002081020008AB2400082B1F00085D
:10001000A9240008A5060008292E000800000000F9
:10002000000000000000000000000000C3270008DE
:10003000A706000800000000AD240008C52700083E
:100040009B0200089B0200089B0200089B0200081C
:100050009B0200089B0200089B0200089B0200080C
:100060009B0200089B0200089B0200089B020008FC
:100070009B0200089B0200089B0200089B020008EC
:100080009B020008000000009B0200089B02000881
:100090009B0200089B0200089B0200089B020008CC
:1000A0009B0200089B0200089B0200089B020008BC
:1000B0009B0200089B0200089B0200089B020008AC
:1000C0009B0200089B0200089B0200089B0200089C
:1000D0009B0200081D2E00089B0200089B020008DE
:1000E0009B0200089B0200089B0200089B0200087C
:1000F0009B0200089B0200089B0200080000000011
:10010000000000009B020008000000009B020008A5
:100110009B02000800000000452800085128000844
:100120009B0200089B0200089B0200089B0200083B
:100130009B02000800000000000000009B02000875
:100140009B0200089B020008000000000000000065
:10015000000000000000000000000000000000009F
:100160000000000000000000000000009B020008EA
:100170009B020008000000000000000000000000DA
:10018000000000009B0200080000000000000000CA
:10019000000000000000000000000000000000005F
:1001A00000000000000000009B0200089B02000805
:1001B0009B0200089B0200089B0200080000000050
:1001C000000000009B02000800000000000000008A
:1001D0009B0200089B02000800F002F800F040F8C3
:1001E0000AA090E8000C82448344AAF10107DA4592
:1001F00001D100F035F8AFF2090EBAE80F0013F0A4
:10020000010F18BFFB1A43F0010318470C4400000C
:100210002C440000103A24BF78C878C1FAD852079D
:1002200024BF30C830C144BF04680C607047000070
:100230000023002400250026103A28BF78C1FBD8EF
:10024000520728BF30C148BF0B6070471FB503F08D
:10025000D6F89DE8030000F047F91FBD10B510BDAA
:1002600000F09EF91146FFF7F1FF02F045FF00F0A4
:10027000BCF903B4FFF7F2FF03BC00F0EDF9000096
:100280000948804709480047FEE7FEE7FEE7FEE72A
:10029000FEE7FEE7FEE7FEE7FEE7FEE70448054966
:1002A000054A064B7047000035280008D9010008B0
:1002B000B8010020B8070020B8030020B8030020D0
:1002C00070B5064600F0F4F8056806F10B0020F062
:1002D0000704B4429CBF002070BD2B466A68BAB1C7
:1002E0001068A04210D304F1080188423CBF506856
:1002F000586007D35168101941601168091B0160EB
:1003000058601460101D70BD13465268002AE7D172
:100310002146284600F0D4F80028DED170BD70B523
:100320000446051F00F0C4F80068002C14BF4468A0
:1003300070BD002C18BFAC423CBF20466468F8D3A7
:1003400001680A18AA4218BF456003D12A68054609
:100350001144016028684119A1421CBF6C6070BD46
:100360006168696021680844286070BD53EA020C26
:1003700000F069802DE9F04B4FF00006002B1FBF05
:10038000B3FA83F503FA05F424FA05F65E4012BFCA
:100390001643B2FA82F502FA05F4C5F120051EBF34
:1003A00022FA05FC44EA0C04203556EA044C4FEAD4
:1003B000144418BF641C4FF000084FF0000990422D
:1003C00071EB030C39D3002919BFB1FA81F701FA97
:1003D00007F6B0FA80F700FA07F6C7F120071EBF4C
:1003E00020FA07FC46EA0C062037B6FBF4FCA7EB24
:1003F0000507103F07F01F0BCBF120060CFA0BFB93
:100400002CFA06F644BFB3460026202FA4BF5E4652
:100410004FF0000B5BEA060C08BF4FF0010B19EB25
:100420000B09ABFB027C48EB0608C01B06FB02CCA9
:100430000BFB03CC71EB0C01C1E70B4602464146B6
:100440004846BDE8F08B13B54FF000004FF00001B7
:10045000AFF30080BDE81C4070474FF0000200B5CC
:10046000134694469646203922BFA0E80C50A0E8D7
:100470000C50B1F12001BFF4F7AF090728BFA0E885
:100480000C5048BF0CC05DF804EB890028BF40F851
:10049000042B08BF704748BF20F8022B11F0804F93
:1004A00018BF00F8012B7047704770477047000075
:1004B000004870475C0100207047704770477047E4
:1004C00038B504460A4600206946AFF3008000288C
:1004D00008BF38BD02460099204600F03FF80120D1
:1004E00038BD012000F054B8F8B5AFF300800546E0
:1004F00000200C46102000BF0646A819A0420DD9C6
:10050000324669460020AFF30080070008BF00F0C4
:100510003FF80098A04218BF0546C419FFF7C8FF6E
:1005200005600746F01D20F007004619284600F038
:100530000AF8B44208BFF8BDA21B31463868BDE8CE
:10054000F84000F00BB800210160C0E901107047CD
:10055000102070470048704754010020034640684F
:100560008C46002818BF88423CBF03464068F8D339
:1005700018681844884207D00CF1030020F00700E7
:10058000001D411A521A0146081D0A60FFF7C7BE36
:1005900010B500F039F8BDE8104000F02FB87047F2
:1005A0007546FFF7D7FFAE4605006946534620F073
:1005B0000700854618B020B5FFF770FEBDE8204063
:1005C0004FF000064FF000074FF000084FF0000B0F
:1005D00021F00701AC46ACE8C009ACE8C009ACE8C2
:1005E000C009ACE8C0098D46704710B50446AFF3AA
:1005F00000802046BDE81040FFF73BBE002801D038
:1006000000F02AB87047000010B5012805D000217D
:1006100003A000F027F8012010BD09A1F8E70000B1
:1006200053494752544D454D3A204F7574206F66DB
:100630002068656170206D656D6F72790000000043
:100640003A2048656170206D656D6F727920636F27
:10065000727275707465640001491820ABBEFEE7C4
:100660002600020070B505460C460A2000E06D1C0D
:1006700000F011F835B128780028F8D102E0641CA8
:1006800000F009F814B120780028F8D1BDE87040D6
:100690000A20AFF3008008B569468DF800000320FA
:1006A000ABBE08BDFEE77047002240F6B83306E057
:1006B0000021491C89B29942FBD3521C92B282425A
:1006C000F6D3704772B6FEE710B590F825300021DA
:1006D0000122022B03D00421C163012122E003681F
:1006E0001C6824F00E041C60836C1C6824F4807465
:1006F0001C6003681C6824F001041C6090F84430FE
:10070000046C03F01F0302FA03F36360D0E91334AF
:100710005C60436D33B11C6824F480741C60D0E9C4
:1007200016345C6080F82520002280F824200846DA
:1007300010BD70B590F82520002401212346022A1F
:1007400007D00422C26380F8251080F824300124E9
:1007500029E00268156825F00E0515600268156825
:1007600025F001051560826C156825F4807515600B
:1007700090F84420056C02F01F0201FA02F26A6050
:10078000D0E913255560426D32B1156825F48075A6
:100790001560D0E91625556080F8251080F82430C2
:1007A000816B01B18847204670BD000070B50446DA
:1007B00000F038F90546601C02D004484068044443
:1007C00000F030F9401BA042FAD370BD1C0000209D
:1007D0002DE9F04FDFF82092002301260324A9F130
:1007E000040B85B00F2709F1040AABF1040EFAE0FF
:1007F00006FA03F52A407CD091F804C00CF0030CF3
:10080000BCF1010F02D0BCF1020F26D1D0F808C014
:10081000CDF800C04FEA430C04FA0CF8CDF810C034
:10082000DDF800C02CEA080CCDF800C0D1F80C802F
:10083000DDF810C008FA0CF8DDF800C048EA0C0832
:10084000C0F80880D0F804C02CEA050C0D79C5F377
:1008500000159D4045EA0C0545600D79ED43AD0757
:100860000ED0C5684FEA430804FA08FC25EA0C05D7
:10087000D1F808C00CFA08FC4CEA050CC0F80CC012
:100880000D7905F00305022D16D1DD0800EB850C6E
:10089000CDF808C0DCF820805D074FEAD56C07FA78
:1008A0000CF528EA05080D6905FA0CF5DDF808C015
:1008B00045EA0805CCF8205005684FEA430CCDF80E
:1008C00008C004FA0CFC25EA0C0591F804C00CF0F1
:1008D0000308DDF808C008FA0CF848EA0508C0F873
:1008E00000804D6815F4403F7CD0444DD5F860C081
:1008F00000E077E04CF0010CC5F860C02D6E23F0ED
:10090000030C05F0010500953D4D65440295AD6869
:100910004FEA837C4FEA1C7807FA08FC25EA0C05AD
:10092000B0F1904F06D0DFF8DCC0604505D14FF044
:10093000010C20E04FF0000C1DE0DFF8CCC060455A
:1009400002D14FF0020C16E0DFF8C0C0604502D1C2
:100950004FF0030C0FE0DFF8B8C0604502D14FF054
:10096000040C08E0DFF8ACC0604502D14FF0050C84
:1009700001E04FF0060C0CFA08FC4CEA050C029D55
:10098000C5F808C0D9F80050CC46D1F8048095438A
:100990005FEAC82800D51543CCF80050DAF80050BB
:1009A000D446D1F8048095435FEA882800D51543E2
:1009B000CCF80050DBF80050DC46D1F804809543B9
:1009C0005FEA883800D51543CCF80050DEF80050B7
:1009D000F446D1F8048095435FEAC83800D5154342
:1009E000CCF800505B1C0A6832FA03F57FF400AFC4
:1009F00005B0BDE8F08F000008040140001002407F
:100A0000000001400004004800080048000C0048B5
:100A100000100048001400480AB1816170478162EB
:100A20007047000001488068704700001C000020EB
:100A30000248816842681144816070471C000020B0
:100A400010B50024032000F073F80F2000F008F820
:100A500008B1012401E000F025F8204610BD000097
:100A600070B50E4E05460024706898B14FF47A7147
:100A7000B1FBF0F00A490968B1FBF0F000F062FD4B
:100A800040B9102D06D200222946501E00F030F841
:100A9000356000E00124204670BD00001C000020ED
:100AA000280000200A4882B0016E41F00101016671
:100AB000016E01F001010091816D41F0805181656D
:100AC000806D00F08050009002B000F0A1B80000EE
:100AD00000100240002809DB00F01F0201219140B4
:100AE0004009800000F1E020C0F8001170470000CC
:100AF000F0B40E4B1B680C46C3F30223C3F1070589
:100B0000042D00D90425191D072901D2002300E076
:100B1000DB1E012606FA05F1491E214099409E4040
:100B2000761E16403143F0BC02F07FB90CED00E0B8
:100B3000064900F0070208684FF6FF03184040EA34
:100B40000220034A10430860704700000CED00E0EB
:100B50000000FA052B492C4B0A6832214A432B49E5
:100B600040B1B0F5007F086829D020F4C06040F49F
:100B700080602CE00868C0F34120022804D051F8BE
:100B8000800F20F4807022E0D1F8800020F4807083
:100B9000C1F88000086820F4C06040F4007008606C
:100BA000B2FBF3F0401C00E0401E4A69520501D53B
:100BB0000028F9D1486940050AD503207047C0F3E1
:100BC0004120022806D051F8800F40F48070086060
:100BD00000207047D1F8800040F48070C1F8800098
:100BE000086820F4C06040F400700860B2FBF3F0C5
:100BF000401C00E0401E4A695205DBD50028F9D1AF
:100C0000D8E700002800002040420F00007000409C
:100C10000248816841F48041816070470070004063
:100C20002DE9F8430446006800269D4D00035ED57B
:100C3000A86D0027C00008D4A86D40F08050A865BA
:100C4000A86D012700F080500090DFF85892D9F885
:100C5000001041F48071C9F80010FFF7E3FE8046F0
:100C600006E000BFFFF7DEFEA0EB080002282BD84D
:100C7000D9F80000C005F5D5D5F8900010F4407003
:100C800014D0216C814211D0D5F89000D5F8901085
:100C900020F4407041F48031C5F89010D5F89010E0
:100CA00021F48031C5F89010C5F89000C00711D02C
:100CB000FFF7B8FE804641F2883907E0FFF7B2FE41
:100CC000A0EB0801494501D903260BE0D5F89000B7
:100CD0008007F3D5D5F89000216C20F440700843CC
:100CE000C5F890001FB1A86D20F08050A86520784D
:100CF000C00707D0D5F88800616820F003000843DA
:100D0000C5F888002078800707D5D5F88800A16845
:100D100020F00C000843C5F888002078400707D56C
:100D2000D5F88800E16820F030000843C5F8880055
:100D30002078000707D5D5F88800216920F0C00089
:100D40000843C5F888002078800607D5D5F88800C4
:100D5000616920F440600843C5F8880020784006A7
:100D600007D5D5F88800A16920F440500843C5F89C
:100D700088002078000607D5D5F88800E16920F4BE
:100D800040400843C5F888002088C00507D5D5F83D
:100D90008800216A20F440300843C5F88800208884
:100DA000800507D5D5F88800616A20F44020084303
:100DB000C5F88800208840050FD5D5F88800A16ABD
:100DC00020F440100843C5F88800A06AB0F5801FE1
:100DD00003D1E86840F48010E860208800050FD552
:100DE000D5F88800E16A20F440000843C5F888007F
:100DF000E06AB0F5800F03D1E86840F48010E86045
:100E00002088C0040FD5D5F88800216B20F04070F1
:100E10000843C5F88800206BB0F1807F03D1E868F3
:100E200040F48010E86020884FF0006180040ED507
:100E3000D5F88800626B20F040601043C5F8880048
:100E4000606B884203D1E86840F48010E860208835
:100E500040040ED5D5F88800A26B20F04060104306
:100E6000C5F88800A06B884203D1E86840F4801080
:100E7000E860208800040FD5D5F88800E16B20F0E9
:100E800040500843C5F88800E06BB0F1805F03D1A3
:100E9000E86840F48030E8603046BDE8F883000040
:100EA00000100240007000402DE9F0470E4605009A
:100EB0004FF0000725D0DFF8AC81D8F8000000F033
:100EC0000F00B0420CD2D8F8001021F00F013143CE
:100ED000C8F80010D8F8000000F00F00B04210D1A0
:100EE0002968614CC80741F2883A5AD06868DFF82F
:100EF0007C91032808D0022820682DD040050028C6
:100F00002CDB0120BDE8F08720688001F9D5E0687E
:100F100000F00302E068C0F30310401C032A19D05C
:100F2000534A00BFB2FBF0F0E268C2F3062250431E
:100F3000E268C2F34162521C5200B0FBF2F0484535
:100F400017D9A06810F0F00F0CD0880711D5A86849
:100F500040B10EE0474AE5E78003D0E700F0B6F87D
:100F6000484506D9A06820F0F00040F08000A0605D
:100F70008027A068696820F003000843A060FFF79D
:100F800051FD814606E000BFFFF74CFDA0EB0901D3
:100F900051453AD8A068696800F00C00B0EB810FA9
:100FA000F2D12868810714D5400703D5A06840F422
:100FB000E060A0602878000705D5A06820F46050A4
:100FC00040F4E060A060A068A96820F0F000084349
:100FD00004E0802F03D1A06820F0F000A060D8F8D2
:100FE0000010404601F00F01B14216D9016821F00E
:100FF0000F0131430160FFF715FD074607E000BF11
:10100000FFF710FDC11B514501D903207AE7D8F83D
:10101000000000F00F00B042F2D12878400705D55B
:10102000A068E96820F4E0600843A0602878000721
:1010300006D5A068296920F4605040EAC100A0608C
:1010400000F044F8A1680C4AC1F30311515C01F0AF
:101050001F01C8400949086009480068BDE8F04719
:10106000FFF7FEBC002002400010024000B4C404A0
:101070000024F40000127A00004600082800002036
:101080001C0000200548064900688968054AC1F32C
:101090000221515C01F01F01C84070472800002068
:1010A000001002401046000805480649006889689B
:1010B000054AC1F3C221515C01F01F01C8407047CD
:1010C000280000200010024010460008184910B502
:1010D0008868C0F381021748012A0BD08A68431040
:1010E000C2F38102022A06D08A68C2F38102032A6F
:1010F00003D0002010BD184610BDCA6802F00304DA
:10110000CA68C2F30312521C032C02D0B0FBF2F0E7
:1011100001E0B3FBF2F0CA68C968C2F3062250438B
:10112000C1F34161491C4900B0FBF1F010BD000062
:10113000001002400024F4002DE9F84304007AD0A6
:101140002078FA4DC00747D0A868E96800F00C0085
:1011500001F003010C2802D0082817D001E0032970
:1011600014D06068B0F5803F17D0B0F5A02F286884
:1011700017D020F480302860286820F48020286070
:101180006068E0B1FFF74EFC064614E02868800373
:1011900022D560680028D2D01EE0286840F4803054
:1011A000EDE740F480202860F7E700BFFFF73AFC46
:1011B000801B642870D828688003F7D50CE0FFF7FF
:1011C00031FC064605E000BFFFF72CFC801B6428BD
:1011D000F0D828688003F7D4207880074CD5A86819
:1011E000E96800F00C0001F003010C2802D004288B
:1011F0000DD001E002290AD0E068002828682BD031
:1012000040F480702860FFF70DFC064619E028685E
:10121000400502D5E068002891D06868217C20F064
:10122000FE4040EA01606860C1480068FFF718FCB2
:10123000002800D120E076E1FFF7F4FB801B0228B4
:10124000B8D828684005F7D56868217C20F0FE40B2
:1012500040EA016068600FE020F480702860FFF7CA
:10126000E1FB064605E000BFFFF7DCFB801B022820
:10127000A0D828684005F7D42078000729D56069F0
:101280000028D5F8940013D040F00100C5F8940070
:10129000FFF7C8FB064606E090E000BFFFF7C2FB81
:1012A000801B022886D8D5F894008007F6D510E078
:1012B00020F00100C5F89400FFF7B4FB064604E0F7
:1012C000FFF7B0FB801B022878D8D5F89400800780
:1012D000F6D42078400761D5A86D0026C00008D458
:1012E000A86D40F08050A865A86D012600F08050E0
:1012F000009090480168C90511D40168804641F406
:1013000080710160FFF78EFB074604E0FFF78AFB60
:10131000C01B022852D8D8F80000C005F6D5A06836
:10132000012815D00528D5F8900016D020F001002E
:10133000C5F89000D5F8900020F00400C5F89000A2
:10134000A06841F28838B8B1FFF76CFB07460EE0A1
:10135000D5F8900040F00100F0E740F00400C5F837
:101360009000F5E7FFF75EFBC11B414526D8D5F895
:1013700090008007F6D50CE0FFF754FB074604E029
:10138000FFF750FBC11B414518D8D5F890008007E6
:10139000F6D41EB1A86D20F08050A8652078800694
:1013A00029D5A0690028D5F8980013D040F0010095
:1013B000C5F89800FFF736FB064606E077E000BF69
:1013C000FFF730FB801B022877D8D5F898008007FC
:1013D000F6D510E020F00100C5F89800FFF722FBD9
:1013E000064604E0FFF71EFB801B022865D8D5F8EF
:1013F00098008007F6D4E069F0B3A968C1F38101D1
:10140000032961D00228286820F0807028600BD062
:10141000E86820F00300E860E86847490840E860B1
:10142000FFF700FB04464BE0FFF7FCFA064604E03A
:10143000FFF7F8FA801B02283FD828688001F7D40C
:10144000F4E908016FF00F0202EB01110843218A51
:101450005204490802EB4151A26841EA02210843C3
:10146000217D4FF07E42490802EB41610843217B18
:1014700040EAC160E96800E062E0304A1140084398
:10148000E860286840F080702860E86840F080706C
:10149000E860FFF7C7FA044605E000BFFFF7C2FAAD
:1014A000001B022809D828688001F7D548E004E02D
:1014B000FFF7B8FA001B022802D90320BDE8F88321
:1014C00028688001F4D43BE00128F7D0E868226A5C
:1014D00000F00301914226D1616A00F0F002090197
:1014E000103991421FD1A26A00F4FE41B1EB022FE4
:1014F00019D194F82C2000F07841B1EBC26F12D1D1
:10150000218E00F4C00249084905A1F5001191425D
:1015100009D194F8341000F0C06049084906A1F1DF
:10152000007181420CD00120C8E700000010024089
:101530001C00002000700040FFFFEEFE0C809F01A9
:101540000020BBE710B5401EB0F1807F01D3012021
:1015500010BD4FF0E02460610F21601701F065FCC1
:101560000020A06107202061002010BD7047704757
:101570007047704770477047F0B590F83C20012ADB
:101580003AD0012580F83C50022280F83D200368C3
:101590005A689C68194E1A4FB34201D0BB4204D11D
:1015A00022F4700C4A6842EA0C02DFF858C002EAE2
:1015B0000C02D1F800C04CEA020CC3F804C0026867
:1015C000B2420DD0B2F1804F0AD00F4B9A4207D0F1
:1015D0000E4B9A4204D0BA4202D00D4B9A4204D12B
:1015E000896824F080031943916080F83D50002100
:1015F00080F83C100846F0BD0220F0BD002C0140F0
:10160000003401408FFFFFFD00040040000800404F
:1016100000400140704710B5040003D094F83D002D
:1016200010B107E0012010BD002084F83C002046E6
:1016300000F022F8022084F83D00211D206801F00E
:101640000DF9012084F8480084F83E0084F83F003A
:1016500084F8400084F8410084F8420084F8430094
:1016600084F8440084F8450084F8460084F8470074
:1016700084F83D00002010BD08B5154A01681548E2
:1016800091420ED1816D41F010018165806D002283
:1016900000F01000009011463620FFF729FA36209E
:1016A00010E00D4A914211D1816D41F02001816518
:1016B000806D002200F02000009011463720FFF7D7
:1016C00017FA3720BDE80840FFF704BA08BD00004C
:1016D00000100040001002400014004090F83D103F
:1016E000012901D001207047022180F83D100168D6
:1016F000CA6842F00102CA600068104988420ED0F0
:10170000B0F1804F0BD00E49884208D00D49884275
:1017100005D00D49884202D00C49884207D1816822
:101720000B4A1140062906D0B1F5803F03D001686D
:1017300041F001010160002070470000002C0140D1
:101740000004004000080040003401400040014017
:1017500007000100704770B50446006801694FF04A
:101760000005C943890715D4C168C943890711D445
:10177000E91E0161012020772068806980072046EA
:1017800002D0FFF7E7FF04E000F0E3F8204600F0A6
:10179000E1F8257720680169C943490717D4C16872
:1017A000C943490713D46FF0040101610220207777
:1017B0002068806910F4407F204602D0FFF7CAFFFE
:1017C00004E000F0C6F8204600F0C4F82577206851
:1017D0000169C943090716D4C168C943090712D46E
:1017E0006FF008010161042020772068C06980073C
:1017F000204602D0FFF7AEFF04E000F0AAF8204632
:1018000000F0A8F8257720680169C943C90617D4F4
:10181000C168C943C90613D46FF0100101610820E3
:1018200020772068C06910F4407F204602D0FFF77F
:1018300091FF04E000F08DF8204600F08BF825774A
:1018400020680169C943C90708D1C168C943C907EC
:1018500004D1891E0161204600F07EF820680169EC
:10186000C943090609D4C168C943090605D46FF004
:10187000800101612046FFF77AFE20680169C943B3
:10188000C90509D4C168C943090605D46FF480713C
:1018900001612046FFF76AFE20680169C9434906D5
:1018A00009D4C168C943490605D46FF040010161FC
:1018B000204600F0DBF820680169C943890609D495
:1018C000C168C943890605D46FF020010161204633
:1018D000FFF74EFE20680169C943C90209D4C168F7
:1018E000C943C90205D46FF4801101612046FFF796
:1018F00041FE20680169C943890209D4C168C9430E
:10190000890205D46FF4001101612046FFF731FE12
:1019100020680169C943490209D4C168C943490221
:1019200005D46FF4800101612046FFF724FE206892
:101930000169C94309020BD4C168C943090207D42C
:101940006FF4000101612046BDE87040FFF762BE00
:1019500070BD7047704700002DE9F04104460168F2
:101960003B483C4D81422ED1287808B1401E28705A
:10197000C2B20A21B2FBF1F0B2FBF1F301FB132278
:1019800034490C318A5C08B1095C00E00021002078
:1019900001F0CEFC687840B180218140401E687023
:1019A00089B201222C48FFF737F82C4E012204217E
:1019B0003046FFF731F8002204213046FFF72CF8BB
:1019C0002748FFF78BFE2749206888423ED1686888
:1019D00000283BD0017A0127002619B10168491E71
:1019E000016001D0C46816E04068804768684169BA
:1019F00001B10F72C16809B10E6100E0AE60C46848
:101A0000FEF78DFC6C6006E0207A18B12068401E5D
:101A1000206007D0E468002CF6D1BDE8F041124800
:101A2000FFF75CBE606880476169204601B10F72B4
:101A3000016909B1C268CA60C16811B102690A616D
:101A400000E0AE60C468FEF76AFCE4E7BDE8F08140
:101A5000001000400000002000080048000C004872
:101A60002C0000200014004078000020704790F8FF
:101A70008010012918D0012180F880102421C0F89D
:101A8000841050F8641B0A680B6823F001030B6094
:101A900022F000510022026050F8643C19602021BD
:101AA0000162027710467047022070477047704706
:101AB00070B5044690F8800001281DD0012084F8FC
:101AC00080002420C4F8840020680568026822F0A1
:101AD000010202602068826822F060620A4382602C
:101AE000204600F013FF206805602020C4F8840021
:101AF000002084F8800070BD022070BD70B50446DF
:101B000090F8800001281DD0012084F88000242056
:101B1000C4F8840020680568026822F001020260AF
:101B20002068826822F060420A438260204600F00A
:101B3000EDFE206805602020C4F88400002084F8B1
:101B4000800070BD022070BD704770477047000074
:101B50002DE9F04103680446D86919689A6840F68F
:101B60000F0528424FF0000509D186067ED501F009
:101B7000200602F080573E4378D0216F27E1A94E1E
:101B8000A94F16400F40374370D0C70709D0CF0583
:101B900007D501271F62D4F88C3043F00103C4F845
:101BA0008C3083070AD5D30708D0276802233B620D
:101BB000D4F88C3043F00403C4F88C3043070AD5C2
:101BC000D30708D0276804233B62D4F88C3043F055
:101BD0000203C4F88C3003070CD501F02003334313
:101BE00008D0266808233362D4F88C3043F0080309
:101BF000C4F88C3003050BD54B0109D526684FF48A
:101C000000633362D4F88C3043F02003C4F88C3086
:101C1000D4F88C30002B3AD0800609D501F0200092
:101C200002F08051084303D0216F09B12046884754
:101C3000D4F88C0021688968490602D410F0280F76
:101C400027D0204600F022FF2068806840061BD580
:101C50002068083050E8001F21F0400140E80012E1
:101C6000002AF5D1E06F78B1704900E017E0816398
:101C7000E06FFEF75EFD002809D0E06F816B00E0A9
:101C80002046BDE8F04108472046FFF75FFFBDE86A
:101C9000F0812046FFF75AFFC4F88C50F7E7E76E53
:101CA0002026012F7ED1C7067CD5CF067AD51020FD
:101CB000186220688068400642D5E16F0868406875
:101CC0000004000CE3D0B4F85C208242DFD9A4F811
:101CD0005E000868006880062BD4206850E8001F6A
:101CE00021F4807140E80012002AF6D12068083003
:101CF00050E8001F21F0010140E80012002AF5D150
:101D00002068083050E8001F21F0400140E8001230
:101D1000002AF5D1C4F88860E566216851E8000F13
:101D200020F0100041E80002002AF6D1E06FFEF733
:101D3000CBFCB4F85C00B4F85E10401A81B22CE021
:101D4000B4F85C00B4F85E10401A81B2B4F85E00DA
:101D500000289CD000299AD0226852E8000F20F475
:101D6000907042E80003002BF6D12E4BDB43206835
:101D7000083050E8002F1A4040E80027002FF6D125
:101D8000C4F88860E5662567226852E8000F20F0F5
:101D9000100042E80003002BF6D12046FFF786FE34
:101DA00075E7FFE7C70209D5570207D54FF4801042
:101DB00018622046BDE8F041FFF7C7BE03060AD50A
:101DC00001F0800302F40002134304D0616F002984
:101DD0007FF456AF5BE7420611D54A060FD5204681
:101DE000016851E8002F22F0400241E80023002B57
:101DF000F6D1C0F88460456700F096F847E7020224
:101E000006D54A0004D52046BDE8F041FFF79CBE48
:101E1000C001C5D50029C3DA2046BDE8F041FFF76F
:101E200046BE00000100001020010004792A0008CD
:101E300010B5040003D0D4F8840010B107E00120ED
:101E400010BD002084F88000204600F027F82420F0
:101E5000C4F884002068016821F001010160204677
:101E600000F03EFE0128EBD0A06A10B1204600F041
:101E70006FFD2068416821F49041416020688168CD
:101E800021F02A0181602068016841F001010160B0
:101E90002046BDE8104000F0BFBD000010B598B06E
:101EA0000446142111A8FEF7D8FA44216846FEF72B
:101EB000D4FA1A49206888422ED101200024CDE9A5
:101EC00000046846FEF7ACFE08B1FEF7FBFB1448C1
:101ED000016E41F480410166016E01F4804116916A
:101EE000C16C41F00401C164C06C11A900F0040090
:101EF0001690302011900220CDE912040720CDE980
:101F000014400848FEF764FC002211462520FEF725
:101F1000EFFD2520FEF7DEFD18B010BD00380140B2
:101F200000100240000800487047FEE700B585B089
:101F300014216846FEF791FA4FF6FF7000900020DA
:101F40000321CDE90201019069460248FEF740FCF9
:101F500005B000BD0008004800B585B014216846F2
:101F6000FEF77BFA4FF6FF700090012001900320EE
:101F700003900020029069460248FEF729FC05B054
:101F800000BD00000008004870B500240646214648
:101F9000204600F003F900F041F94FF49635304641
:101FA00000F010F9641CAC42F9D370BD30B587B0B5
:101FB00014216846FEF751FA1E48C16C41F0040135
:101FC000C164C16C01F004010591C16C41F00101D3
:101FD000C164C16C01F001010591C16C41F00201C5
:101FE000C164C06C012500F0020005904FF44870F8
:101FF000CDE9000500240394694602940E48FEF7DB
:10200000E7FB280203940090CDE901544FF090447F
:1020100069462046FEF7DCFBFFF79EFFA06940F40F
:102020008070A06104481830016841F408710160B3
:1020300007B030BD0010024000040048203AD2B280
:10204000034B02EB420203EB021200F019B800004E
:1020500008340008F0B50E460746002540F23F144C
:1020600007E021463846FFF7E9FF103C6D1CA4B29B
:10207000761C3278002A01D0142DF2D3F0BD000076
:102080002DE9F04791468A460026044600F086F87E
:10209000DFF84080012700BF00F0C0F85FF00005C6
:1020A00039F8160007FA05F10842404601D1408888
:1020B00000E0008800F086F86D1C102DF0D3641C41
:1020C000E4B25146204600F069F8761C182EE3D39E
:1020D000BDE8F0871600002010B5FFF767FF00206D
:1020E00000F014F8084CA080A088A0F50241303917
:1020F00006D000F065FA002000F008F8A08010BDBE
:1021000000F0D5F9F7E700001600002070B51D4972
:102110000A6842F400720A600A6842F480720A6037
:10212000184C103C226842F020022260164A1060CF
:10213000086840F02000086000BF00BF00BF2068B2
:1021400040F020002060206840F480702060FFF79D
:10215000EDFE4FF09041886A40F48070886200BFC5
:1021600000BF00BF0848001F006885B2886940F4BE
:1021700080708861FFF7F0FE206840F400702060F6
:10218000284670BD280400481408004801B5BDF871
:1021900000000149488008BD1600002010B50C461B
:1021A0000146202000F068F82146BDE810402120BB
:1021B00000F062B801B5BDF800000149088008BD13
:1021C00016000020134A116841F400711160114992
:1021D00010390B6843F480730B600B6843F02003E5
:1021E0000B600D4B1860106840F02000106000BFBD
:1021F00000BF00BF086840F020000860086840F495
:102200008070086000BF00BF00BF086840F4007025
:1022100008607047280400481408004814490868FA
:1022200040F400700860086840F48070086010484E
:102230001038026842F0200202600E4B22221A601F
:102240000A6842F020020A6000BF00BF00BF0168B8
:1022500041F020010160016841F48071016000BF1C
:1022600000BF00BF016841F40071016070470000C9
:102270002804004814080048184B10B51A6842F4A6
:1022800000721A601A6842F480721A60134A103A97
:10229000146844F020041460114C2060186840F069
:1022A0002000186000BF00BF00BF106840F0200091
:1022B0001060106840F4807010602160186840F071
:1022C0002000186000BF00BF00BF106840F0200071
:1022D0001060106840F48070106010BD2804004841
:1022E000140800482DE9F04186B014216846FEF735
:1022F000B4F82B48C16C41F00401C164C16C01F019
:1023000004010591C16C41F02001C164C16C01F070
:1023100020010591C16C41F00101C164C16C01F063
:1023200001010591C16C41F00801C164C06C1D4EF2
:1023300000F008004FF47F4405900022214630460B
:10234000FEF76AFB4FF0904700220E213846FEF759
:1023500063FBDFF85480002204214046FEF75CFB5B
:102360000125CDE9004500240294694630460394D6
:10237000FEF72EFA0E200090CDE90154694638464A
:102380000394FEF725FA04200090CDE90154694634
:1023900040460394FEF71CFA06B0BDE8F081000049
:1023A0000010024000080048000C00483EB5002420
:1023B0001048009401940E490294016041F63F7167
:1023C000C0E9011442F20F71C16080218161FFF701
:1023D00022F908B1FEF776F900946946054802949F
:1023E000FFF7CAF8002801D0FEF76CF93EBD0000E7
:1023F000001000402C0000203EB500240F4800943F
:1024000001940D49029401604F21C0E9011440F28A
:10241000E731C16080218161FFF7FDF808B1FEF767
:1024200051F90094694605480294FFF7A5F8002881
:1024300001D0FEF747F93EBD0014004078000020AF
:10244000184810B5164901604FF4E1314160002190
:1024500081600C22C160C0E904128161C161016226
:1024600041628162FFF7E4FC08B1FEF72BF900211D
:102470000C48FFF743FB08B1FEF724F90021094897
:10248000FFF716FB08B1FEF71DF90648FFF7EFFA54
:10249000002803D0BDE81040FEF714B910BD0000BD
:1024A00000380140C4000020FEE7FEE7704730B569
:1024B00001210020FFF7E0FE4FF47A70FEF7F4F8F8
:1024C00000210120FFF7D8FE41F290711020FFF7A4
:1024D000D3FE4FF41C516020FFF7CEFE0121612096
:1024E000FFF7CAFE02214620FFF7C6FE48F21001A0
:1024F0001320FFF7C1FE48F2FE011220FFF7BCFED9
:102500004FF4A0610220FFF7B7FE41F23001032033
:10251000FFF7B2FE40F2033421463020FFF7ACFE55
:1025200021463120FFF7A8FE21463220FFF7A4FE06
:10253000E51E29463320FFF79FFE03213420FFF7D5
:102540009BFE21463520FFF797FE14213620FFF72A
:1025500093FE21463720FFF78FFE21463820FFF7F4
:102560008BFE21463920FFF787FE29463A20FFF7E8
:1025700083FE03213B20FFF77FFE21463C20FFF72F
:102580007BFE4FF4A0513D20FFF776FE4FF4007123
:102590009220FFF771FE21469320FFF76DFE40F673
:1025A0000D019020FFF768FE41F218010320FFF7AC
:1025B00063FEBDE8304040F273110720FFF75CBEB8
:1025C00010B543F20801E320FFF756FE1221E72081
:1025D000FFF752FE41F23121EF20FFF74DFE0021BF
:1025E0000120FFF749FE4FF4E0610220FFF744FEAF
:1025F00041F230010320FFF73FFE00210420FFF7E6
:102600003BFE40F207210820FFF736FE002109209B
:10261000FFF732FE00210A20FFF72EFE00210C20DA
:10262000FFF72AFE00210D20FFF726FE00210F20D4
:10263000FFF722FE00211020FFF71EFE07211120C8
:10264000FFF71AFE00211220FFF716FE00211320CB
:10265000FFF712FEC820FEF7A9F841F290611020A2
:10266000FFF70AFE40F227211120FFF705FE322076
:10267000FEF79CF81D211220FFF7FEFD3220FEF729
:1026800095F84FF400611320FFF7F6FD142129207F
:10269000FFF7F2FD0B212B20FFF7EEFD3220FEF7B6
:1026A00085F800212020FFF7E7FD00212120FFF71A
:1026B000E3FD07213020FFF7DFFD40F207713120F5
:1026C000FFF7DAFD06213220FFF7D6FD40F2047154
:1026D0003520FFF7D1FD41F604713620FFF7CCFD20
:1026E00004213720FFF7C8FD00213820FFF7C4FD83
:1026F00040F206713920FFF7BFFD40F201713C2026
:10270000FFF7BAFD0F213D20FFF7B6FD0021502055
:10271000FFF7B2FDEF215120FFF7AEFD002152205F
:10272000FFF7AAFD40F23F115320FFF7A5FD4FF43C
:102730001C516020FFF7A0FD01216120FFF79CFDE7
:1027400000216A20FFF798FD00218020FFF794FD0B
:1027500000218120FFF790FD00218220FFF78CFDF2
:1027600000218320FFF788FD00218420FFF784FDEE
:1027700000218520FFF780FD10219020FFF77CFDD0
:1027800000219220FFF778FD03219320FFF774FDCD
:102790004FF488719520FFF76FFD00219720FFF718
:1027A0006BFD00219820FFF767FD41F2180103201F
:1027B000FFF762FDBDE8104040F273110720FFF7FC
:1027C0005BBD7047FEF734B900B593B03821684659
:1027D000FDF743FE14210EA8FDF73FFE4FF40070F5
:1027E000FEF7B8F90220C1010391402104910121B3
:1027F000CDE9080100900A21CDE90A1007900C905C
:102800000D906846FEF798FC08B172B6FEE70F20FF
:102810000E9003200F900020109011901290022132
:102820000EA8FEF741FB002801D072B6FEE713B0F8
:1028300000BD00000248016841F47001016070476A
:1028400088ED00E00148FEF786BF00002C00002064
:102850000148FEF780BF0000780000202DE9F0431A
:102860000268234B234D244E244C4FF0804998425C
:1028700007D0484505D0A84203D0B04201D0A042BD
:1028800003D122F070074A683A431D4FDFF874C045
:10289000DFF8748098420DD048450BD0A84209D08B
:1028A000B04207D0A04205D0B84203D0604501D065
:1028B000404503D122F44075CA682A434D6922F08D
:1028C00080022A4302608A68C2620A688262984271
:1028D00007D0A04205D0B84203D0604501D04045A2
:1028E00001D10969016301214161BDE8F083000064
:1028F000002C01400004004000080040003401406A
:1029000000400140004401400048014030B5416EA4
:10291000B9B1026891689268C1F342610B4B520FE2
:102920009C5CE50003F10804A25CB5FBF2F2A0F8A0
:102930006A205A5C615CD200B2FBF1F1A0F8681029
:1029400030BD0121A0F86A10F8E70000F04500084A
:1029500090F82810C90706D001684A68C36A22F4B3
:1029600000321A434A6090F82810890706D501689A
:102970004A68036B22F480321A434A6090F82810A8
:10298000490706D501684A68436B22F480221A433E
:102990004A6090F82810090706D501684A68836BD9
:1029A00022F400421A434A6090F82810C90606D55E
:1029B00001688A68C36B22F480521A438A6090F8D7
:1029C0002810890606D501688A68036C22F4005233
:1029D0001A438A6090F82810490611D501684A68A0
:1029E000436C22F480121A434A60416CB1F5801F97
:1029F00006D101684A68836C22F4C0021A434A6017
:102A000090F82810090606D501684A68C06C22F4BF
:102A1000002202434A607047F8B500260446C0F819
:102A20008C60FDF7FFFF0546206800686FF07E4769
:102A3000000708D52B4600224FF4001120460097CE
:102A400000F088F960B92068006840070AD52B4675
:102A500000224FF480012046009700F07BF908B176
:102A60000320F8BD2020C4F88400C4F8880044F88E
:102A70006C6F00202675F8BD10B5806A0021A0F8A3
:102A80005E10A0F85610FFF761F810BD10B502688F
:102A900052E8001F21F4907142E80013002BF6D198
:102AA0000E4B0268083252E8001F194042E8001439
:102AB000002CF6D1C16E012908D1016851E8002F20
:102AC00022F0100241E80023002BF6D12021C0F8AB
:102AD00088100021C166016710BD0000FEFFFFEFF6
:102AE0002DE9F0410446016880682269E3691043DA
:102AF000626900251A431043DFF82CC20A688B4B29
:102B00001A4002430A6020684168E26821F440519B
:102B1000114341602168A069614501D0226A1043D8
:102B20008A68834B1A4002438A602068C16A626ADD
:102B300021F00F011143C1627E4923687E488B4218
:102B40000DD1D0F8880010F0030006D0012855D030
:102B5000022842D003283FD152E001203DE07749CE
:102B60008B420BD1D0F8880010F00C0035D004282F
:102B700033D0082840D00C282ED141E070498B4238
:102B80000BD1D0F8880010F0300026D0102835D0B6
:102B9000202831D030281FD132E06A498B420BD136
:102BA000D0F8880010F0C00017D0402826D0802828
:102BB00022D0C02810D123E063450DD1D0F8880081
:102BC00010F4406009D0B0F5806F17D0B0F5006FF9
:102BD00012D0B0F5406F13D010205B495B4F002638
:102BE0004FF4004263453BD160B1022813D0042862
:102BF0000BD0082872D10DE00220EEE70420ECE7AC
:102C00000820EAE7FEF73EFA01E0FEF75FFA01006E
:102C100001D17CE01146606A37F810206768B1FB8B
:102C2000F2F007EB4703834270D8B0EB073F6DD853
:102C3000002308461946FDF799FB090241EA106195
:102C400002027808101871413A460023FDF78EFB06
:102C50003F4AA0F54071914258D82168C86056E0BB
:102C6000E3694FF6EF7893422CD109284ED2DFE882
:102C700000F00508114D0D4D4D4D1000FEF702FA04
:102C800001E0FEF711FA010004D140E0FEF71EFA60
:102C9000F9E71146606A37F81000B1FBF0F0410027
:102CA000606801EB5001B1FBF0F0A0F1100141456B
:102CB0002CD84FF6F0710140C0F342000143206868
:102CC000C16024E0092821D2DFE800F005091220C4
:102CD0000E2020201100FEF7D5F902E016E0FEF7E5
:102CE000E3F9010004D112E0FEF7F0F9F9E711462B
:102CF000606A37F81000B1FBF0F1606801EB500139
:102D0000B1FBF0F0A0F1100141450AD901250120E5
:102D1000A4F86A0024F8680F2846A660E660BDE8BB
:102D2000F08180B299E7000000800040F369FFCF96
:102D3000FFF4FF1100380140001002400044004041
:102D400000480040004C00400024F400D845000832
:102D5000FFFC0F002DE9F0479A4617460E46044641
:102D60004FF000094FF02008089D4AE0681C48D049
:102D7000FDF758FEA0EB0A00A8422AD84DB3206800
:102D8000016849073DD5C069C043000539D42168B1
:102D90004FF400600862206850E8001F21F4D071F1
:102DA00040E80012002AF6D12068083050E8001FE1
:102DB00021F0010140E80012002AF5D144F8848F87
:102DC000C4F80480C4F8088004F8049C0320BDE81B
:102DD000F087216851E8000F20F4D07041E800022C
:102DE000002AF6D12068083050E8001F21F00101C8
:102DF00040E80012002AF5D144F8848FC4F804801A
:102E0000E2E72068C06936EA000004D00020B8423A
:102E1000ACD00020DBE70120F9E700000148FEF715
:102E200097BE0000C4000020FEE70907090E002835
:102E300004DB00F1E02080F80014704700F00F0080
:102E400000F1E02080F8141D7047000010B508A1C3
:102E50009020FFF7FFF80A492D20087001F10C00BF
:102E600042790179BDE81040002000F061BA00000D
:102E700020202020413A2050617373202000000060
:102E80000000002070B52DA19020FFF7E3F82F4C33
:102E900000224FF480712046FDF7BEFD2C4D01222B
:102EA00004212846FDF7B8FD002204212846FDF73D
:102EB000B3FD00224FF400712046FDF7ADFD012265
:102EC00004212846FDF7A8FD002204212846FDF72D
:102ED000A3FD00224FF480612046FDF79DFD0122F5
:102EE00004212846FDF798FD002204212846FDF71D
:102EF00093FD00224FF400612046FDF78DFD012275
:102F000004212846FDF788FD002204212846FDF70C
:102F100083FD00224FF480512046FDF77DFD012204
:102F200004212846FDF778FD002204212846FDF7FC
:102F300073FD08490520487070BD00002020202046
:102F4000413A2053746F70202000000000080048B0
:102F5000000C00480000002070B51A4C41F2883582
:102F6000194A29460020A36800F0C4F918B917A12E
:102F7000D820FFF76FF8194A4AF6C8710020A368F5
:102F800000F0B8F918B911A1D820FFF763F8144A76
:102F900029460020A36800F0ADF918B90BA1D8208C
:102FA000FFF758F80F4A46F2A8110020A36800F076
:102FB000A1F9002805D1BDE8704004A1D820FFF791
:102FC00049B870BD000000204D2E00084D414C4C0A
:102FD0004F43204641494C4544000000852E0008DF
:102FE000E92F00082130000810B508A1A820FFF73C
:102FF00031F80A491920087001F10C0042798178F2
:10300000BDE81040002000F093B9000020202020EF
:10301000423A20506173732020000000000000201D
:1030200070B52EA1A820FFF715F8FFF795FF2F4CDC
:1030300000224FF480712046FDF7EEFC2C4D01225A
:1030400004212846FDF7E8FC002204212846FDF76C
:10305000E3FC00224FF400712046FDF7DDFC012265
:1030600004212846FDF7D8FC002204212846FDF75C
:10307000D3FC00224FF480612046FDF7CDFC0122F5
:1030800004212846FDF7C8FC002204212846FDF74C
:10309000C3FC00224FF400612046FDF7BDFC012275
:1030A00004212846FDF7B8FC002204212846FDF73C
:1030B000B3FC00224FF480512046FDF7ADFC012205
:1030C00004212846FDF7A8FC002204212846FDF72C
:1030D000A3FC08490520487070BD00002020202076
:1030E000423A2053746F702020000000000800480E
:1030F000000C004800000020FDF7A2FCFFF764FB75
:10310000FFF7F0F8FFF752F9FFF776F9FFF798F9B4
:10311000644C002204212046FDF77EFCFEF7DCFF14
:103120000020FFF733F84FF6FF70FFF743F8002059
:10313000FEF72AFF5CA14820FEF78CFF5E4D0022BF
:103140004FF480712846FDF767FC012204212046D8
:10315000FDF762FC002204212046FDF75DFC002201
:103160004FF400712846FDF757FC01220421204648
:10317000FDF752FC002204212046FDF74DFC002201
:103180004FF480612846FDF747FC012204212046C8
:10319000FDF742FC002204212046FDF73DFC002201
:1031A0004FF400612846FDF737FC01220421204638
:1031B000FDF732FC002204212046FDF72DFC002201
:1031C0004FF480512846FDF727FC012204212046B8
:1031D000FDF722FC002204212046FDF71DFC012200
:1031E00051032846FDF718FC012204212046FDF773
:1031F00013FC002204212046FDF70EFC012291035E
:103200002846FDF709FC012204212046FDF704FCB5
:10321000002204212046FDF7FFFB0122D1032846AE
:10322000FDF7FAFB012204212046FDF7F5FB002201
:1032300004212046FDF7F0FBFFF708FE1FA1A820A0
:10324000FEF708FF0023214A4AF6E031012000F092
:1032500051F818B91EA1D820FEF7FCFE204C214AD7
:1032600041F288310020A36800F044F818B918A191
:10327000D820FEF7EFFE1C4A46F2A8110020A368F2
:1032800000F038F818B912A1D820FEF7E3FE20208C
:10329000FDF78CFA1548FEF721FA1548FEF71EFADD
:1032A000FEE70000000C0048202020205369676ED4
:1032B000616C20696E666F000008004820202020A5
:1032C000423A2053746F702020000000852E0008C1
:1032D0004D414C4C4F43204641494C454400000071
:1032E00000000020E92F0008213000082C000020F9
:1032F000780000202DE9F04107461C4616460D4691
:103300001820FCF7DDFF07720849C0E900568A68FB
:103310000023C0E9033202B1D06088604A6802B974
:103320004860002C00D06061BDE8F0810000002002
:103330002DE9F04114460D4606464FF09048002214
:1033400004214046FDF768FB07270022082140467C
:10335000FDF762FB04F0800202214046FDF75CFBB2
:103360006006040E002208214046FDF755FB0122AD
:1033700008214046FDF750FB7F1EE6D20727444652
:10338000002208212046FDF747FB05F080020221BC
:103390002046FDF741FB6806050E00220821204665
:1033A000FDF73AFB012208212046FDF735FB7F1E81
:1033B000E6D20725002208212046FDF72DFB06F066
:1033C000800202212046FDF727FB7006060E002230
:1033D00008212046FDF720FB012208212046FDF7A9
:1033E0001BFB6D1EE6D2002204212046FDF714FBD4
:1033F0002046BDE8F04101220421FDF70DBB4FF04E
:103400004070E1EE100A704700000000000000006C
:1034100000000000000000000000000000000000AC
:10342000000000000000000000000000000000009C
:103430000000000000000000000080018001800109
:103440008001800180018001800180018001800174
:103450008001800100000000800180010000000068
:10346000000000000000000000000000CC00CC00C4
:10347000CC00CC00CC00CC0000000000000000001C
:10348000000000000000000000000000000000003C
:10349000000000000000000000000000000000002C
:1034A00000000000600C600C600C30063006FE1F4F
:1034B000FE1F300638071803FE1FFE1F18031803EF
:1034C0008C018C018C01000000008000E003F80FEB
:1034D0009C0E8C1C8C188C009800F801E007800E64
:1034E000801C8C188C189C18B80CF00FE00380001E
:1034F00080000000000000000000000000000E1826
:103500001B0C110C11061106110311039B018E01F6
:10351000C038C06C60446044304430441844186C77
:103520000C380000000000000000E001F003380744
:10353000180618063003F001F000F8009C310E3335
:10354000061E061C061C063FFC73F021000000004E
:103550000000000000000000000000000C000C0053
:103560000C000C000C000C0000000000000000002B
:10357000000000000000000000000000000000004B
:1035800000000000000000000000000200038001B5
:10359000C000C0006000600030003000300030002B
:1035A000300030003000300060006000C000C0001B
:1035B0008001000300020000000020006000C00045
:1035C00080018001000300030006000600060006DB
:1035D00000060006000600060003000380018001CB
:1035E000C00060002000000000000000000000009B
:1035F00000000000C000C000D806F807E00130035A
:10360000380700000000000000000000000000007B
:1036100000000000000000000000000000000000AA
:103620000000000080018001800180018001FC3FDA
:10363000FC3F8001800180018001800100000000CA
:10364000000000000000000000000000000000007A
:10365000000000000000000000000000000000006A
:103660000000000000000000000080018001000157
:1036700000018000000000000000000000000000C9
:10368000000000000000000000000000000000003A
:10369000E007E0070000000000000000000000005C
:1036A000000000000000000000000000000000001A
:1036B000000000000000000000000000000000000A
:1036C00000000000000000000000C000C00000007A
:1036D00000000000000000000000000C000C0006CC
:1036E0000006000600030003000380038001800140
:1036F0008001C000C000C000600060000000000049
:1037000000000000000000000000E003F007380E99
:10371000180C0C180C180C180C180C180C180C1889
:103720000C180C18180C380EF007E003000000000D
:103730000000000000000000000000018001C00146
:10374000F0019801880180018001800180018001E1
:103750008001800180018001800180010000000063
:1037600000000000000000000000E003F80F180C4B
:103770000C180C1800180018000C0006000380013B
:10378000C000600030001800FC1FFC1F000000009B
:1037900000000000000000000000E001F807180E23
:1037A0000C0C0C0C000C0006C003C007000C001829
:1037B00000180C180C18180CF807E00300000000A3
:1037C00000000000000000000000000C000E000FD0
:1037D000000F800DC00C600C600C300C180C0C0C31
:1037E000FC3FFC3F000C000C000C000C0000000033
:1037F00000000000000000000000F80FF80F1800A3
:1038000018000C00EC03FC071C0E001C001800182C
:1038100000180C181C0C180EF807E003000000003C
:1038200000000000000000000000C007F00F381C7E
:10383000181818000C00CC03EC0F3C0E1C1C0C18C4
:103840000C180C18181C380EF007E00300000000DC
:1038500000000000000000000000FC1FFC1F000C26
:1038600000060006000380038001C001C000E000E4
:103870006000600070003000300030000000000088
:1038800000000000000000000000E003F007380E18
:10389000180C180C180C3806F007F007180C0C1848
:1038A0000C180C180C18380CF80FE003000000007E
:1038B00000000000000000000000E003F007380EE8
:1038C0001C0C0C180C180C181C1C381EF81BE019CA
:1038D0000018000C000C1C0EF807F001000000009E
:1038E00000000000000000000000000000000000D8
:1038F00000000000800180010000000000000000C6
:1039000000000000000000008001800100000000B5
:1039100000000000000000000000000000000000A7
:103920000000000080018001000000000000000095
:103930000000000000000000800180010001000183
:1039400080000000000000000000000000000000F7
:1039500000000000000000000010001C800FE003C9
:10396000F8001800F800E003800F001C00100000B1
:103970000000000000000000000000000000000047
:103980000000000000000000F81F00000000000020
:10399000F81F000000000000000000000000000010
:1039A0000000000000000000000000000000000017
:1039B000000000000000000008003800F001C0070F
:1039C000001F0018001FC007F001380008000000A9
:1039D00000000000000000000000E003F80F180CD9
:1039E0000C180C180018000C000600038001C00021
:1039F000C000C00000000000C000C00000000000C7
:103A0000000000000000000000000000E00718189F
:103A10000420C229224A11440944094409440922C4
:103A20001113E20C024004201818E0070000000007
:103A30000000000000000000000080038003C006BA
:103A4000C006C006600C600C301830183018F83F03
:103A5000F83F1C700C600C6006C006C0000000003F
:103A600000000000000000000000FC03FC0F0C0C34
:103A70000C180C180C180C0CFC07FC0F0C180C3054
:103A80000C300C300C300C18FC1FFC070000000040
:103A900000000000000000000000C007F01F3838E0
:103AA0001C300C70066006000600060006000600CA
:103AB000060006600C701C30F01FE00700000000DC
:103AC00000000000000000000000FE03FE0F060ED4
:103AD0000618061806300630063006300630063066
:103AE000063006180618060EFE0FFE030000000042
:103AF00000000000000000000000FC3FFC3F0C0044
:103B00000C000C000C000C00FC1FFC1F0C000C0037
:103B10000C000C000C000C00FC3FFC3F00000000FF
:103B200000000000000000000000F83FF83F18000F
:103B30001800180018001800F81FF81F18001800C7
:103B400018001800180018001800180000000000E5
:103B500000000000000000000000E00FF83F3C788B
:103B60000E6006E007C00300030003FE03FE03C06F
:103B700007C006C00EC03CF0F83FE00F0000000098
:103B8000000000000000000000000C300C300C3081
:103B90000C300C300C300C30FC3FFC3F0C300C3047
:103BA0000C300C300C300C300C300C3000000000AD
:103BB0000000000000000000000080018001800182
:103BC00080018001800180018001800180018001ED
:103BD00080018001800180018001800100000000DF
:103BE00000000000000000000000000600060006C3
:103BF0000006000600060006000600060006000695
:103C00000006180618063807F003E001000000005F
:103C10000000000000000000000006300618060C3E
:103C2000060606038601C60066007600DE008E01E9
:103C300006030606060C06180630066000000000A3
:103C4000000000000000000000001800180018002C
:103C500018001800180018001800180018001800A4
:103C60001800180018001800F81FF81F00000000C6
:103C7000000000000000000000000EE01EF01EF03A
:103C80001EF036D836D836D836D866CC66CC66CC58
:103C9000C6C6C6C6C6C6C6C686C386C30000000062
:103CA000000000000000000000000C301C303C3020
:103CB0003C306C306C30CC30CC308C310C330C332D
:103CC0000C360C360C3C0C3C0C380C300000000060
:103CD00000000000000000000000E007F81F1C3892
:103CE0000E70066003C003C003C003C003C003C05E
:103CF00003C006600E701C38F81FE00700000000CB
:103D000000000000000000000000FC0FFC1F0C3849
:103D10000C300C300C300C300C18FC1FFC070C0065
:103D20000C000C000C000C000C000C00000000004B
:103D300000000000000000000000E007F81F1C3831
:103D40000E70066003E003C003C003C003C003C0DD
:103D500007E006630E3F1C3CF83FE0F700C00000A0
:103D600000000000000000000000FE0FFE1F0638EB
:103D70000630063006300638FE1FFE07060306062C
:103D8000060C061806180630063006600000000013
:103D900000000000000000000000E003F80F1C0C11
:103DA0000C180C180C001C00F803E00F001E003863
:103DB000063006300E301C1CF80FE0070000000033
:103DC00000000000000000000000FE7FFE7F800178
:103DD00080018001800180018001800180018001DB
:103DE00080018001800180018001800100000000CD
:103DF000000000000000000000000C300C300C300F
:103E00000C300C300C300C300C300C300C300C30D2
:103E10000C300C300C301818F81FE00700000000C0
:103E200000000000000000000000036006300630C3
:103E300006300C180C180C18180C180C380E30061C
:103E40003006700760036003C001C001000000007D
:103E5000000000000000000000000360C361C361B7
:103E6000C3616633663366336633663366336C1B11
:103E70006C1B6C1B2C1A3C1E380E380E0000000008
:103E8000000000000000000000000FE00C7018307F
:103E90003018700C600EC00780038003C003E0067A
:103EA000700C301C18180C300E6007E00000000089
:103EB0000000000000000000000003C006600C309D
:103EC0001C383818300C6006E007C0038001800100
:103ED00080018001800180018001800100000000DC
:103EE00000000000000000000000FC7FFC7F00607C
:103EF00000300018000C000600038001C0006000C4
:103F0000300018000C000600FE7FFE7F000000005D
:103F100000000000000000000000E003E00360007B
:103F20006000600060006000600060006000600091
:103F30006000600060006000600060006000600081
:103F40006000E003E003000000003000300060008B
:103F500060006000C000C000C000C001800180019E
:103F600080010003000300030006000600000000BB
:103F700000000000000000000000E003E003000378
:103F80000003000300030003000300030003000319
:103F90000003000300030003000300030003000309
:103FA0000003E003E003000000000000C001C001C6
:103FB00060036003600330063006180C180C000024
:103FC00000000000000000000000000000000000F1
:103FD00000000000000000000000000000000000E1
:103FE00000000000000000000000000000000000D1
:103FF00000000000000000000000FFFFFFFF0000C5
:10400000000000000000000000000C000C000C008C
:104010000C000C000C00000000000000000000007C
:104020000000000000000000000000000000000090
:104030000000000000000000000000000000000080
:1040400000000000F003F8071C0C0C0C000FF00F30
:10405000F80C0C0C0C0C1C0FF80FF01800000000F2
:104060000000000000000000000018001800180008
:1040700018001800D803F80F380C1818181818185A
:10408000181818181818380CF80FD803000000007A
:104090000000000000000000000000000000000020
:1040A00000000000C003F007300E180C18001800C4
:1040B00018001800180C300EF007C00300000000B4
:1040C00000000000000000000000001800180018A8
:1040D00000180018C01BF01F301C181818181818EA
:1040E000181818181818301CF01FC01B000000000A
:1040F00000000000000000000000000000000000C0
:1041000000000000C003F00F300C1818F81FF81F53
:10411000180018003818301CF00FC007000000000D
:1041200000000000000000000000800FC00FC00071
:10413000C000C000F007F007C000C000C000C00011
:10414000C000C000C000C000C000C00000000000EF
:10415000000000000000000000000000000000005F
:1041600000000000E00DF80F180E0C0C0C0C0C0CED
:104170000C0C0C0C0C0C180EF80FE00D000C0C0CB9
:104180001C06F807F00100000000180018001800D5
:1041900018001800D807F80F381C18181818181825
:1041A00018181818181818181818181800000000EF
:1041B00000000000000000000000C000C00000007F
:1041C00000000000C000C000C000C000C000C0006F
:1041D000C000C000C000C000C000C000000000005F
:1041E00000000000000000000000C000C00000004F
:1041F00000000000C000C000C000C000C000C0003F
:10420000C000C000C000C000C000C000C000C000AE
:10421000C000F8007800000000000C000C000C004A
:104220000C000C000C0C0C060C038C01CC006C0078
:10423000FC009C018C030C030C060C0C000000001D
:1042400000000000000000000000C000C000C0002E
:10425000C000C000C000C000C000C000C000C0005E
:10426000C000C000C000C000C000C00000000000CE
:10427000000000000000000000000000000000003E
:10428000000000007C3CFF7EC7E383C183C183C183
:1042900083C183C183C183C183C183C10000000086
:1042A000000000000000000000000000000000000E
:1042B000000000009807F80F381C18181818181874
:1042C00018181818181818181818181800000000CE
:1042D00000000000000000000000000000000000DE
:1042E00000000000C003F00F300C18181818181840
:1042F000181818181818300CF00FC0030000000030
:1043000000000000000000000000000000000000AD
:1043100000000000D803F80F380C181818181818E7
:10432000181818181818380CF80FD80318001800A7
:104330001800180018000000000000000000000035
:1043400000000000C01BF01F301C181818181818A7
:10435000181818181818301CF01FC01B0018001867
:104360000018001800180000000000000000000005
:1043700000000000B007F003700030003000300093
:10438000300030003000300030003000000000000D
:10439000000000000000000000000000000000001D
:1043A00000000000E003F003380E180C3800F003A2
:1043B000C007000C180C380EF007E00300000000E6
:1043C0000000000000000000000000008000C000AD
:1043D000C000C000F007F007C000C000C000C0006F
:1043E000C000C000C000C000C0078007000000007F
:1043F00000000000000000000000000000000000BD
:10440000000000001818181818181818181818188C
:10441000181818181818381CF01FE01900000000B0
:10442000000000000000000000000000000000008C
:10443000000000000C18180C180C180C3006300680
:104440003006600360036003C001C001000000008B
:10445000000000000000000000000000000000005C
:1044600000000000C141C141C361636363636363D2
:104470003636363636361C1C1C1C1C1C0000000050
:10448000000000000000000000000000000000002C
:10449000000000001C38381C300C6006600360030C
:1044A000600360036006300C381C1C3800000000FC
:1044B00000000000000000000000000000000000FC
:1044C000000000001830301830187018600C600CB4
:1044D000E00CC006C00680038003800380018001D9
:1044E000C001F000700000000000000000000000AB
:1044F00000000000FC1FFC1F000C000600038001F0
:10450000C000600030001800FC1FFC1F000000000D
:104510000000000000000000000000038001C00057
:10452000C000C000C000C000C000600060003000DB
:1045300060004000C000C000C000C000C000C0005B
:104540008001000300000000000080018001800164
:104550008001800180018001800180018001800153
:104560008001800180018001800180018001800143
:10457000800180018001000000006000C000C001D7
:10458000800180018001800180010003000300069A
:104590000003000180018001800180018001800111
:1045A000C0006000000000000000000000000000EB
:1045B0000000000000000000F010F81F080F0000CD
:1045C00000000000000000000000000000000000EB
:1045D00000000000000000000100020004000600CE
:1045E00008000A000C0010002000400080000001BC
:1045F0000101010307010000080402040801010190
:104600000000000000000000010203040607080982
:1046100000000000010203043846000800000020EA
:104620002C00000014020008644600082C00002042
:104630008C070000300200080000000000000000AD
:10464000000000003F065B4F666D7D077F6F000036
:10465000FFFF00001000000001000000000000004B
:044660000024F4003E
:04000005080001D915
:00000001FF
